{
	"remix-section-2/Factory.sol": {
		"Factory": {
			"abi": [
				{
					"inputs": [
						{
							"internalType": "uint256",
							"name": "",
							"type": "uint256"
						}
					],
					"name": "allVaults",
					"outputs": [
						{
							"internalType": "contract InitialVault",
							"name": "",
							"type": "address"
						}
					],
					"stateMutability": "view",
					"type": "function"
				},
				{
					"inputs": [
						{
							"internalType": "string",
							"name": "_name",
							"type": "string"
						},
						{
							"internalType": "enum VaultType",
							"name": "_type",
							"type": "uint8"
						}
					],
					"name": "createVault",
					"outputs": [],
					"stateMutability": "nonpayable",
					"type": "function"
				},
				{
					"inputs": [],
					"name": "getAllVaultsCount",
					"outputs": [
						{
							"internalType": "uint256",
							"name": "",
							"type": "uint256"
						}
					],
					"stateMutability": "view",
					"type": "function"
				},
				{
					"inputs": [
						{
							"internalType": "uint256",
							"name": "_index",
							"type": "uint256"
						}
					],
					"name": "getVault",
					"outputs": [
						{
							"internalType": "contract InitialVault",
							"name": "",
							"type": "address"
						}
					],
					"stateMutability": "view",
					"type": "function"
				},
				{
					"inputs": [
						{
							"internalType": "uint256",
							"name": "_index",
							"type": "uint256"
						}
					],
					"name": "getVaultName",
					"outputs": [
						{
							"internalType": "string",
							"name": "",
							"type": "string"
						}
					],
					"stateMutability": "view",
					"type": "function"
				},
				{
					"inputs": [
						{
							"internalType": "uint256",
							"name": "_index",
							"type": "uint256"
						}
					],
					"name": "getVaultNumber",
					"outputs": [
						{
							"internalType": "uint256",
							"name": "",
							"type": "uint256"
						}
					],
					"stateMutability": "view",
					"type": "function"
				},
				{
					"inputs": [
						{
							"internalType": "uint256",
							"name": "_index",
							"type": "uint256"
						},
						{
							"internalType": "uint256",
							"name": "_num",
							"type": "uint256"
						}
					],
					"name": "setVaultNumber",
					"outputs": [],
					"stateMutability": "nonpayable",
					"type": "function"
				}
			],
			"devdoc": {
				"kind": "dev",
				"methods": {},
				"version": 1
			},
			"evm": {
				"assembly": "    /* \"remix-section-2/Factory.sol\":686:1941  contract Factory {... */\n  mstore(0x40, 0x80)\n  callvalue\n  dup1\n  iszero\n  tag_1\n  jumpi\n  0x00\n  dup1\n  revert\ntag_1:\n  pop\n  dataSize(sub_0)\n  dup1\n  dataOffset(sub_0)\n  0x00\n  codecopy\n  0x00\n  return\nstop\n\nsub_0: assembly {\n        /* \"remix-section-2/Factory.sol\":686:1941  contract Factory {... */\n      mstore(0x40, 0x80)\n      callvalue\n      dup1\n      iszero\n      tag_1\n      jumpi\n      0x00\n      dup1\n      revert\n    tag_1:\n      pop\n      jumpi(tag_2, lt(calldatasize, 0x04))\n      shr(0xe0, calldataload(0x00))\n      dup1\n      0x9094a91e\n      gt\n      tag_10\n      jumpi\n      dup1\n      0x9094a91e\n      eq\n      tag_6\n      jumpi\n      dup1\n      0x9403b634\n      eq\n      tag_7\n      jumpi\n      dup1\n      0xbd880c9c\n      eq\n      tag_8\n      jumpi\n      dup1\n      0xe8620af1\n      eq\n      tag_9\n      jumpi\n      jump(tag_2)\n    tag_10:\n      dup1\n      0x1248ff83\n      eq\n      tag_3\n      jumpi\n      dup1\n      0x73eebef8\n      eq\n      tag_4\n      jumpi\n      dup1\n      0x7f8556f4\n      eq\n      tag_5\n      jumpi\n    tag_2:\n      0x00\n      dup1\n      revert\n        /* \"remix-section-2/Factory.sol\":1572:1677  function setVaultNumber(uint _index, uint _num) public {... */\n    tag_3:\n      tag_11\n      0x04\n      dup1\n      calldatasize\n      sub\n      dup2\n      add\n      swap1\n      tag_12\n      swap2\n      swap1\n      tag_13\n      jump\t// in\n    tag_12:\n      tag_14\n      jump\t// in\n    tag_11:\n      stop\n        /* \"remix-section-2/Factory.sol\":1414:1531  function getVaultNumber(uint _index) public view returns (uint) {... */\n    tag_4:\n      tag_15\n      0x04\n      dup1\n      calldatasize\n      sub\n      dup2\n      add\n      swap1\n      tag_16\n      swap2\n      swap1\n      tag_17\n      jump\t// in\n    tag_16:\n      tag_18\n      jump\t// in\n    tag_15:\n      mload(0x40)\n      tag_19\n      swap2\n      swap1\n      tag_20\n      jump\t// in\n    tag_19:\n      mload(0x40)\n      dup1\n      swap2\n      sub\n      swap1\n      return\n        /* \"remix-section-2/Factory.sol\":817:1054  function createVault(string memory _name, VaultType _type) public {... */\n    tag_5:\n      tag_21\n      0x04\n      dup1\n      calldatasize\n      sub\n      dup2\n      add\n      swap1\n      tag_22\n      swap2\n      swap1\n      tag_23\n      jump\t// in\n    tag_22:\n      tag_24\n      jump\t// in\n    tag_21:\n      stop\n        /* \"remix-section-2/Factory.sol\":709:740  InitialVault[] public allVaults */\n    tag_6:\n      tag_25\n      0x04\n      dup1\n      calldatasize\n      sub\n      dup2\n      add\n      swap1\n      tag_26\n      swap2\n      swap1\n      tag_17\n      jump\t// in\n    tag_26:\n      tag_27\n      jump\t// in\n    tag_25:\n      mload(0x40)\n      tag_28\n      swap2\n      swap1\n      tag_29\n      jump\t// in\n    tag_28:\n      mload(0x40)\n      dup1\n      swap2\n      sub\n      swap1\n      return\n        /* \"remix-section-2/Factory.sol\":1266:1373  function getVault(uint _index) public view returns (InitialVault) {... */\n    tag_7:\n      tag_30\n      0x04\n      dup1\n      calldatasize\n      sub\n      dup2\n      add\n      swap1\n      tag_31\n      swap2\n      swap1\n      tag_17\n      jump\t// in\n    tag_31:\n      tag_32\n      jump\t// in\n    tag_30:\n      mload(0x40)\n      tag_33\n      swap2\n      swap1\n      tag_29\n      jump\t// in\n    tag_33:\n      mload(0x40)\n      dup1\n      swap2\n      sub\n      swap1\n      return\n        /* \"remix-section-2/Factory.sol\":1762:1939  function getVaultName(uint _index) public view returns (string memory) {... */\n    tag_8:\n      tag_34\n      0x04\n      dup1\n      calldatasize\n      sub\n      dup2\n      add\n      swap1\n      tag_35\n      swap2\n      swap1\n      tag_17\n      jump\t// in\n    tag_35:\n      tag_36\n      jump\t// in\n    tag_34:\n      mload(0x40)\n      tag_37\n      swap2\n      swap1\n      tag_38\n      jump\t// in\n    tag_37:\n      mload(0x40)\n      dup1\n      swap2\n      sub\n      swap1\n      return\n        /* \"remix-section-2/Factory.sol\":1089:1187  function getAllVaultsCount() external view returns (uint) {... */\n    tag_9:\n      tag_39\n      tag_40\n      jump\t// in\n    tag_39:\n      mload(0x40)\n      tag_41\n      swap2\n      swap1\n      tag_20\n      jump\t// in\n    tag_41:\n      mload(0x40)\n      dup1\n      swap2\n      sub\n      swap1\n      return\n        /* \"remix-section-2/Factory.sol\":1572:1677  function setVaultNumber(uint _index, uint _num) public {... */\n    tag_14:\n        /* \"remix-section-2/Factory.sol\":1637:1646  allVaults */\n      0x00\n        /* \"remix-section-2/Factory.sol\":1647:1653  _index */\n      dup3\n        /* \"remix-section-2/Factory.sol\":1637:1654  allVaults[_index] */\n      dup2\n      sload\n      dup2\n      lt\n      tag_43\n      jumpi\n      tag_44\n      tag_45\n      jump\t// in\n    tag_44:\n    tag_43:\n      swap1\n      0x00\n      mstore\n      keccak256(0x00, 0x20)\n      add\n      0x00\n      swap1\n      sload\n      swap1\n      0x0100\n      exp\n      swap1\n      div\n      0xffffffffffffffffffffffffffffffffffffffff\n      and\n        /* \"remix-section-2/Factory.sol\":1637:1664  allVaults[_index].setNumber */\n      0xffffffffffffffffffffffffffffffffffffffff\n      and\n      0x3fb5c1cb\n        /* \"remix-section-2/Factory.sol\":1665:1669  _num */\n      dup3\n        /* \"remix-section-2/Factory.sol\":1637:1670  allVaults[_index].setNumber(_num) */\n      mload(0x40)\n      dup3\n      0xffffffff\n      and\n      0xe0\n      shl\n      dup2\n      mstore\n      0x04\n      add\n      tag_47\n      swap2\n      swap1\n      tag_20\n      jump\t// in\n    tag_47:\n      0x00\n      mload(0x40)\n      dup1\n      dup4\n      sub\n      dup2\n      0x00\n      dup8\n      dup1\n      extcodesize\n      iszero\n      dup1\n      iszero\n      tag_48\n      jumpi\n      0x00\n      dup1\n      revert\n    tag_48:\n      pop\n      gas\n      call\n      iszero\n      dup1\n      iszero\n      tag_50\n      jumpi\n      returndatasize\n      0x00\n      dup1\n      returndatacopy\n      revert(0x00, returndatasize)\n    tag_50:\n      pop\n      pop\n      pop\n      pop\n        /* \"remix-section-2/Factory.sol\":1572:1677  function setVaultNumber(uint _index, uint _num) public {... */\n      pop\n      pop\n      jump\t// out\n        /* \"remix-section-2/Factory.sol\":1414:1531  function getVaultNumber(uint _index) public view returns (uint) {... */\n    tag_18:\n        /* \"remix-section-2/Factory.sol\":1472:1476  uint */\n      0x00\n        /* \"remix-section-2/Factory.sol\":1495:1504  allVaults */\n      dup1\n        /* \"remix-section-2/Factory.sol\":1505:1511  _index */\n      dup3\n        /* \"remix-section-2/Factory.sol\":1495:1512  allVaults[_index] */\n      dup2\n      sload\n      dup2\n      lt\n      tag_52\n      jumpi\n      tag_53\n      tag_45\n      jump\t// in\n    tag_53:\n    tag_52:\n      swap1\n      0x00\n      mstore\n      keccak256(0x00, 0x20)\n      add\n      0x00\n      swap1\n      sload\n      swap1\n      0x0100\n      exp\n      swap1\n      div\n      0xffffffffffffffffffffffffffffffffffffffff\n      and\n        /* \"remix-section-2/Factory.sol\":1495:1522  allVaults[_index].getNumber */\n      0xffffffffffffffffffffffffffffffffffffffff\n      and\n      0xf2c9ecd8\n        /* \"remix-section-2/Factory.sol\":1495:1524  allVaults[_index].getNumber() */\n      mload(0x40)\n      dup2\n      0xffffffff\n      and\n      0xe0\n      shl\n      dup2\n      mstore\n      0x04\n      add\n      0x20\n      mload(0x40)\n      dup1\n      dup4\n      sub\n      dup2\n      dup7\n      gas\n      staticcall\n      iszero\n      dup1\n      iszero\n      tag_56\n      jumpi\n      returndatasize\n      0x00\n      dup1\n      returndatacopy\n      revert(0x00, returndatasize)\n    tag_56:\n      pop\n      pop\n      pop\n      pop\n      mload(0x40)\n      returndatasize\n      not(0x1f)\n      0x1f\n      dup3\n      add\n      and\n      dup3\n      add\n      dup1\n      0x40\n      mstore\n      pop\n      dup2\n      add\n      swap1\n      tag_57\n      swap2\n      swap1\n      tag_58\n      jump\t// in\n    tag_57:\n        /* \"remix-section-2/Factory.sol\":1488:1524  return allVaults[_index].getNumber() */\n      swap1\n      pop\n        /* \"remix-section-2/Factory.sol\":1414:1531  function getVaultNumber(uint _index) public view returns (uint) {... */\n      swap2\n      swap1\n      pop\n      jump\t// out\n        /* \"remix-section-2/Factory.sol\":817:1054  function createVault(string memory _name, VaultType _type) public {... */\n    tag_24:\n        /* \"remix-section-2/Factory.sol\":906:921  VaultType.Named */\n      0x00\n        /* \"remix-section-2/Factory.sol\":897:921  _type == VaultType.Named */\n      0x01\n      dup2\n      gt\n      iszero\n      tag_60\n      jumpi\n      tag_61\n      tag_62\n      jump\t// in\n    tag_61:\n    tag_60:\n        /* \"remix-section-2/Factory.sol\":897:902  _type */\n      dup2\n        /* \"remix-section-2/Factory.sol\":897:921  _type == VaultType.Named */\n      0x01\n      dup2\n      gt\n      iszero\n      tag_63\n      jumpi\n      tag_64\n      tag_62\n      jump\t// in\n    tag_64:\n    tag_63:\n      sub\n        /* \"remix-section-2/Factory.sol\":893:1048  if (_type == VaultType.Named) {... */\n      tag_65\n      jumpi\n        /* \"remix-section-2/Factory.sol\":937:946  allVaults */\n      0x00\n        /* \"remix-section-2/Factory.sol\":967:972  _name */\n      dup3\n        /* \"remix-section-2/Factory.sol\":952:973  new NamedVault(_name) */\n      mload(0x40)\n      tag_66\n      swap1\n      tag_67\n      jump\t// in\n    tag_66:\n      tag_68\n      swap2\n      swap1\n      tag_38\n      jump\t// in\n    tag_68:\n      mload(0x40)\n      dup1\n      swap2\n      sub\n      swap1\n      0x00\n      create\n      dup1\n      iszero\n      dup1\n      iszero\n      tag_69\n      jumpi\n      returndatasize\n      0x00\n      dup1\n      returndatacopy\n      revert(0x00, returndatasize)\n    tag_69:\n      pop\n        /* \"remix-section-2/Factory.sol\":937:974  allVaults.push(new NamedVault(_name)) */\n      swap1\n      dup1\n      0x01\n      dup2\n      sload\n      add\n      dup1\n      dup3\n      sstore\n      dup1\n      swap2\n      pop\n      pop\n      0x01\n      swap1\n      sub\n      swap1\n      0x00\n      mstore\n      keccak256(0x00, 0x20)\n      add\n      0x00\n      swap1\n      swap2\n      swap1\n      swap2\n      swap1\n      swap2\n      0x0100\n      exp\n      dup2\n      sload\n      dup2\n      0xffffffffffffffffffffffffffffffffffffffff\n      mul\n      not\n      and\n      swap1\n      dup4\n      0xffffffffffffffffffffffffffffffffffffffff\n      and\n      mul\n      or\n      swap1\n      sstore\n      pop\n        /* \"remix-section-2/Factory.sol\":893:1048  if (_type == VaultType.Named) {... */\n      jump(tag_71)\n    tag_65:\n        /* \"remix-section-2/Factory.sol\":1005:1014  allVaults */\n      0x00\n        /* \"remix-section-2/Factory.sol\":1020:1036  new SuperVault() */\n      mload(0x40)\n      tag_72\n      swap1\n      tag_73\n      jump\t// in\n    tag_72:\n      mload(0x40)\n      dup1\n      swap2\n      sub\n      swap1\n      0x00\n      create\n      dup1\n      iszero\n      dup1\n      iszero\n      tag_74\n      jumpi\n      returndatasize\n      0x00\n      dup1\n      returndatacopy\n      revert(0x00, returndatasize)\n    tag_74:\n      pop\n        /* \"remix-section-2/Factory.sol\":1005:1037  allVaults.push(new SuperVault()) */\n      swap1\n      dup1\n      0x01\n      dup2\n      sload\n      add\n      dup1\n      dup3\n      sstore\n      dup1\n      swap2\n      pop\n      pop\n      0x01\n      swap1\n      sub\n      swap1\n      0x00\n      mstore\n      keccak256(0x00, 0x20)\n      add\n      0x00\n      swap1\n      swap2\n      swap1\n      swap2\n      swap1\n      swap2\n      0x0100\n      exp\n      dup2\n      sload\n      dup2\n      0xffffffffffffffffffffffffffffffffffffffff\n      mul\n      not\n      and\n      swap1\n      dup4\n      0xffffffffffffffffffffffffffffffffffffffff\n      and\n      mul\n      or\n      swap1\n      sstore\n      pop\n        /* \"remix-section-2/Factory.sol\":893:1048  if (_type == VaultType.Named) {... */\n    tag_71:\n        /* \"remix-section-2/Factory.sol\":817:1054  function createVault(string memory _name, VaultType _type) public {... */\n      pop\n      pop\n      jump\t// out\n        /* \"remix-section-2/Factory.sol\":709:740  InitialVault[] public allVaults */\n    tag_27:\n      0x00\n      dup2\n      dup2\n      sload\n      dup2\n      lt\n      tag_76\n      jumpi\n      0x00\n      dup1\n      revert\n    tag_76:\n      swap1\n      0x00\n      mstore\n      keccak256(0x00, 0x20)\n      add\n      0x00\n      swap2\n      pop\n      sload\n      swap1\n      0x0100\n      exp\n      swap1\n      div\n      0xffffffffffffffffffffffffffffffffffffffff\n      and\n      dup2\n      jump\t// out\n        /* \"remix-section-2/Factory.sol\":1266:1373  function getVault(uint _index) public view returns (InitialVault) {... */\n    tag_32:\n        /* \"remix-section-2/Factory.sol\":1318:1330  InitialVault */\n      0x00\n        /* \"remix-section-2/Factory.sol\":1349:1358  allVaults */\n      dup1\n        /* \"remix-section-2/Factory.sol\":1359:1365  _index */\n      dup3\n        /* \"remix-section-2/Factory.sol\":1349:1366  allVaults[_index] */\n      dup2\n      sload\n      dup2\n      lt\n      tag_79\n      jumpi\n      tag_80\n      tag_45\n      jump\t// in\n    tag_80:\n    tag_79:\n      swap1\n      0x00\n      mstore\n      keccak256(0x00, 0x20)\n      add\n      0x00\n      swap1\n      sload\n      swap1\n      0x0100\n      exp\n      swap1\n      div\n      0xffffffffffffffffffffffffffffffffffffffff\n      and\n        /* \"remix-section-2/Factory.sol\":1342:1366  return allVaults[_index] */\n      swap1\n      pop\n        /* \"remix-section-2/Factory.sol\":1266:1373  function getVault(uint _index) public view returns (InitialVault) {... */\n      swap2\n      swap1\n      pop\n      jump\t// out\n        /* \"remix-section-2/Factory.sol\":1762:1939  function getVaultName(uint _index) public view returns (string memory) {... */\n    tag_36:\n        /* \"remix-section-2/Factory.sol\":1818:1831  string memory */\n      0x60\n        /* \"remix-section-2/Factory.sol\":1843:1859  NamedVault named */\n      0x00\n        /* \"remix-section-2/Factory.sol\":1881:1890  allVaults */\n      dup1\n        /* \"remix-section-2/Factory.sol\":1891:1897  _index */\n      dup4\n        /* \"remix-section-2/Factory.sol\":1881:1898  allVaults[_index] */\n      dup2\n      sload\n      dup2\n      lt\n      tag_83\n      jumpi\n      tag_84\n      tag_45\n      jump\t// in\n    tag_84:\n    tag_83:\n      swap1\n      0x00\n      mstore\n      keccak256(0x00, 0x20)\n      add\n      0x00\n      swap1\n      sload\n      swap1\n      0x0100\n      exp\n      swap1\n      div\n      0xffffffffffffffffffffffffffffffffffffffff\n      and\n        /* \"remix-section-2/Factory.sol\":1843:1900  NamedVault named = NamedVault(address(allVaults[_index])) */\n      swap1\n      pop\n        /* \"remix-section-2/Factory.sol\":1917:1922  named */\n      dup1\n        /* \"remix-section-2/Factory.sol\":1917:1930  named.getName */\n      0xffffffffffffffffffffffffffffffffffffffff\n      and\n      0x17d7de7c\n        /* \"remix-section-2/Factory.sol\":1917:1932  named.getName() */\n      mload(0x40)\n      dup2\n      0xffffffff\n      and\n      0xe0\n      shl\n      dup2\n      mstore\n      0x04\n      add\n      0x00\n      mload(0x40)\n      dup1\n      dup4\n      sub\n      dup2\n      dup7\n      gas\n      staticcall\n      iszero\n      dup1\n      iszero\n      tag_87\n      jumpi\n      returndatasize\n      0x00\n      dup1\n      returndatacopy\n      revert(0x00, returndatasize)\n    tag_87:\n      pop\n      pop\n      pop\n      pop\n      mload(0x40)\n      returndatasize\n      0x00\n      dup3\n      returndatacopy\n      returndatasize\n      not(0x1f)\n      0x1f\n      dup3\n      add\n      and\n      dup3\n      add\n      dup1\n      0x40\n      mstore\n      pop\n      dup2\n      add\n      swap1\n      tag_88\n      swap2\n      swap1\n      tag_89\n      jump\t// in\n    tag_88:\n        /* \"remix-section-2/Factory.sol\":1910:1932  return named.getName() */\n      swap2\n      pop\n      pop\n        /* \"remix-section-2/Factory.sol\":1762:1939  function getVaultName(uint _index) public view returns (string memory) {... */\n      swap2\n      swap1\n      pop\n      jump\t// out\n        /* \"remix-section-2/Factory.sol\":1089:1187  function getAllVaultsCount() external view returns (uint) {... */\n    tag_40:\n        /* \"remix-section-2/Factory.sol\":1141:1145  uint */\n      0x00\n        /* \"remix-section-2/Factory.sol\":1164:1173  allVaults */\n      dup1\n        /* \"remix-section-2/Factory.sol\":1164:1180  allVaults.length */\n      dup1\n      sload\n      swap1\n      pop\n        /* \"remix-section-2/Factory.sol\":1157:1180  return allVaults.length */\n      swap1\n      pop\n        /* \"remix-section-2/Factory.sol\":1089:1187  function getAllVaultsCount() external view returns (uint) {... */\n      swap1\n      jump\t// out\n    tag_67:\n      dataSize(sub_0)\n      dup1\n      dataOffset(sub_0)\n      dup4\n      codecopy\n      add\n      swap1\n      jump\t// out\n    tag_73:\n      dataSize(sub_1)\n      dup1\n      dataOffset(sub_1)\n      dup4\n      codecopy\n      add\n      swap1\n      jump\t// out\n        /* \"#utility.yul\":7:82   */\n    tag_91:\n        /* \"#utility.yul\":40:46   */\n      0x00\n        /* \"#utility.yul\":73:75   */\n      0x40\n        /* \"#utility.yul\":67:76   */\n      mload\n        /* \"#utility.yul\":57:76   */\n      swap1\n      pop\n        /* \"#utility.yul\":7:82   */\n      swap1\n      jump\t// out\n        /* \"#utility.yul\":88:205   */\n    tag_92:\n        /* \"#utility.yul\":197:198   */\n      0x00\n        /* \"#utility.yul\":194:195   */\n      dup1\n        /* \"#utility.yul\":187:199   */\n      revert\n        /* \"#utility.yul\":211:328   */\n    tag_93:\n        /* \"#utility.yul\":320:321   */\n      0x00\n        /* \"#utility.yul\":317:318   */\n      dup1\n        /* \"#utility.yul\":310:322   */\n      revert\n        /* \"#utility.yul\":334:411   */\n    tag_94:\n        /* \"#utility.yul\":371:378   */\n      0x00\n        /* \"#utility.yul\":400:405   */\n      dup2\n        /* \"#utility.yul\":389:405   */\n      swap1\n      pop\n        /* \"#utility.yul\":334:411   */\n      swap2\n      swap1\n      pop\n      jump\t// out\n        /* \"#utility.yul\":417:539   */\n    tag_95:\n        /* \"#utility.yul\":490:514   */\n      tag_129\n        /* \"#utility.yul\":508:513   */\n      dup2\n        /* \"#utility.yul\":490:514   */\n      tag_94\n      jump\t// in\n    tag_129:\n        /* \"#utility.yul\":483:488   */\n      dup2\n        /* \"#utility.yul\":480:515   */\n      eq\n        /* \"#utility.yul\":470:533   */\n      tag_130\n      jumpi\n        /* \"#utility.yul\":529:530   */\n      0x00\n        /* \"#utility.yul\":526:527   */\n      dup1\n        /* \"#utility.yul\":519:531   */\n      revert\n        /* \"#utility.yul\":470:533   */\n    tag_130:\n        /* \"#utility.yul\":417:539   */\n      pop\n      jump\t// out\n        /* \"#utility.yul\":545:684   */\n    tag_96:\n        /* \"#utility.yul\":591:596   */\n      0x00\n        /* \"#utility.yul\":629:635   */\n      dup2\n        /* \"#utility.yul\":616:636   */\n      calldataload\n        /* \"#utility.yul\":607:636   */\n      swap1\n      pop\n        /* \"#utility.yul\":645:678   */\n      tag_132\n        /* \"#utility.yul\":672:677   */\n      dup2\n        /* \"#utility.yul\":645:678   */\n      tag_95\n      jump\t// in\n    tag_132:\n        /* \"#utility.yul\":545:684   */\n      swap3\n      swap2\n      pop\n      pop\n      jump\t// out\n        /* \"#utility.yul\":690:1164   */\n    tag_13:\n        /* \"#utility.yul\":758:764   */\n      0x00\n        /* \"#utility.yul\":766:772   */\n      dup1\n        /* \"#utility.yul\":815:817   */\n      0x40\n        /* \"#utility.yul\":803:812   */\n      dup4\n        /* \"#utility.yul\":794:801   */\n      dup6\n        /* \"#utility.yul\":790:813   */\n      sub\n        /* \"#utility.yul\":786:818   */\n      slt\n        /* \"#utility.yul\":783:902   */\n      iszero\n      tag_134\n      jumpi\n        /* \"#utility.yul\":821:900   */\n      tag_135\n      tag_92\n      jump\t// in\n    tag_135:\n        /* \"#utility.yul\":783:902   */\n    tag_134:\n        /* \"#utility.yul\":941:942   */\n      0x00\n        /* \"#utility.yul\":966:1019   */\n      tag_136\n        /* \"#utility.yul\":1011:1018   */\n      dup6\n        /* \"#utility.yul\":1002:1008   */\n      dup3\n        /* \"#utility.yul\":991:1000   */\n      dup7\n        /* \"#utility.yul\":987:1009   */\n      add\n        /* \"#utility.yul\":966:1019   */\n      tag_96\n      jump\t// in\n    tag_136:\n        /* \"#utility.yul\":956:1019   */\n      swap3\n      pop\n        /* \"#utility.yul\":912:1029   */\n      pop\n        /* \"#utility.yul\":1068:1070   */\n      0x20\n        /* \"#utility.yul\":1094:1147   */\n      tag_137\n        /* \"#utility.yul\":1139:1146   */\n      dup6\n        /* \"#utility.yul\":1130:1136   */\n      dup3\n        /* \"#utility.yul\":1119:1128   */\n      dup7\n        /* \"#utility.yul\":1115:1137   */\n      add\n        /* \"#utility.yul\":1094:1147   */\n      tag_96\n      jump\t// in\n    tag_137:\n        /* \"#utility.yul\":1084:1147   */\n      swap2\n      pop\n        /* \"#utility.yul\":1039:1157   */\n      pop\n        /* \"#utility.yul\":690:1164   */\n      swap3\n      pop\n      swap3\n      swap1\n      pop\n      jump\t// out\n        /* \"#utility.yul\":1170:1499   */\n    tag_17:\n        /* \"#utility.yul\":1229:1235   */\n      0x00\n        /* \"#utility.yul\":1278:1280   */\n      0x20\n        /* \"#utility.yul\":1266:1275   */\n      dup3\n        /* \"#utility.yul\":1257:1264   */\n      dup5\n        /* \"#utility.yul\":1253:1276   */\n      sub\n        /* \"#utility.yul\":1249:1281   */\n      slt\n        /* \"#utility.yul\":1246:1365   */\n      iszero\n      tag_139\n      jumpi\n        /* \"#utility.yul\":1284:1363   */\n      tag_140\n      tag_92\n      jump\t// in\n    tag_140:\n        /* \"#utility.yul\":1246:1365   */\n    tag_139:\n        /* \"#utility.yul\":1404:1405   */\n      0x00\n        /* \"#utility.yul\":1429:1482   */\n      tag_141\n        /* \"#utility.yul\":1474:1481   */\n      dup5\n        /* \"#utility.yul\":1465:1471   */\n      dup3\n        /* \"#utility.yul\":1454:1463   */\n      dup6\n        /* \"#utility.yul\":1450:1472   */\n      add\n        /* \"#utility.yul\":1429:1482   */\n      tag_96\n      jump\t// in\n    tag_141:\n        /* \"#utility.yul\":1419:1482   */\n      swap2\n      pop\n        /* \"#utility.yul\":1375:1492   */\n      pop\n        /* \"#utility.yul\":1170:1499   */\n      swap3\n      swap2\n      pop\n      pop\n      jump\t// out\n        /* \"#utility.yul\":1505:1623   */\n    tag_97:\n        /* \"#utility.yul\":1592:1616   */\n      tag_143\n        /* \"#utility.yul\":1610:1615   */\n      dup2\n        /* \"#utility.yul\":1592:1616   */\n      tag_94\n      jump\t// in\n    tag_143:\n        /* \"#utility.yul\":1587:1590   */\n      dup3\n        /* \"#utility.yul\":1580:1617   */\n      mstore\n        /* \"#utility.yul\":1505:1623   */\n      pop\n      pop\n      jump\t// out\n        /* \"#utility.yul\":1629:1851   */\n    tag_20:\n        /* \"#utility.yul\":1722:1726   */\n      0x00\n        /* \"#utility.yul\":1760:1762   */\n      0x20\n        /* \"#utility.yul\":1749:1758   */\n      dup3\n        /* \"#utility.yul\":1745:1763   */\n      add\n        /* \"#utility.yul\":1737:1763   */\n      swap1\n      pop\n        /* \"#utility.yul\":1773:1844   */\n      tag_145\n        /* \"#utility.yul\":1841:1842   */\n      0x00\n        /* \"#utility.yul\":1830:1839   */\n      dup4\n        /* \"#utility.yul\":1826:1843   */\n      add\n        /* \"#utility.yul\":1817:1823   */\n      dup5\n        /* \"#utility.yul\":1773:1844   */\n      tag_97\n      jump\t// in\n    tag_145:\n        /* \"#utility.yul\":1629:1851   */\n      swap3\n      swap2\n      pop\n      pop\n      jump\t// out\n        /* \"#utility.yul\":1857:1974   */\n    tag_98:\n        /* \"#utility.yul\":1966:1967   */\n      0x00\n        /* \"#utility.yul\":1963:1964   */\n      dup1\n        /* \"#utility.yul\":1956:1968   */\n      revert\n        /* \"#utility.yul\":1980:2097   */\n    tag_99:\n        /* \"#utility.yul\":2089:2090   */\n      0x00\n        /* \"#utility.yul\":2086:2087   */\n      dup1\n        /* \"#utility.yul\":2079:2091   */\n      revert\n        /* \"#utility.yul\":2103:2205   */\n    tag_100:\n        /* \"#utility.yul\":2144:2150   */\n      0x00\n        /* \"#utility.yul\":2195:2197   */\n      0x1f\n        /* \"#utility.yul\":2191:2198   */\n      not\n        /* \"#utility.yul\":2186:2188   */\n      0x1f\n        /* \"#utility.yul\":2179:2184   */\n      dup4\n        /* \"#utility.yul\":2175:2189   */\n      add\n        /* \"#utility.yul\":2171:2199   */\n      and\n        /* \"#utility.yul\":2161:2199   */\n      swap1\n      pop\n        /* \"#utility.yul\":2103:2205   */\n      swap2\n      swap1\n      pop\n      jump\t// out\n        /* \"#utility.yul\":2211:2391   */\n    tag_101:\n        /* \"#utility.yul\":2259:2336   */\n      0x4e487b7100000000000000000000000000000000000000000000000000000000\n        /* \"#utility.yul\":2256:2257   */\n      0x00\n        /* \"#utility.yul\":2249:2337   */\n      mstore\n        /* \"#utility.yul\":2356:2360   */\n      0x41\n        /* \"#utility.yul\":2353:2354   */\n      0x04\n        /* \"#utility.yul\":2346:2361   */\n      mstore\n        /* \"#utility.yul\":2380:2384   */\n      0x24\n        /* \"#utility.yul\":2377:2378   */\n      0x00\n        /* \"#utility.yul\":2370:2385   */\n      revert\n        /* \"#utility.yul\":2397:2678   */\n    tag_102:\n        /* \"#utility.yul\":2480:2507   */\n      tag_151\n        /* \"#utility.yul\":2502:2506   */\n      dup3\n        /* \"#utility.yul\":2480:2507   */\n      tag_100\n      jump\t// in\n    tag_151:\n        /* \"#utility.yul\":2472:2478   */\n      dup2\n        /* \"#utility.yul\":2468:2508   */\n      add\n        /* \"#utility.yul\":2610:2616   */\n      dup2\n        /* \"#utility.yul\":2598:2608   */\n      dup2\n        /* \"#utility.yul\":2595:2617   */\n      lt\n        /* \"#utility.yul\":2574:2592   */\n      0xffffffffffffffff\n        /* \"#utility.yul\":2562:2572   */\n      dup3\n        /* \"#utility.yul\":2559:2593   */\n      gt\n        /* \"#utility.yul\":2556:2618   */\n      or\n        /* \"#utility.yul\":2553:2641   */\n      iszero\n      tag_152\n      jumpi\n        /* \"#utility.yul\":2621:2639   */\n      tag_153\n      tag_101\n      jump\t// in\n    tag_153:\n        /* \"#utility.yul\":2553:2641   */\n    tag_152:\n        /* \"#utility.yul\":2661:2671   */\n      dup1\n        /* \"#utility.yul\":2657:2659   */\n      0x40\n        /* \"#utility.yul\":2650:2672   */\n      mstore\n        /* \"#utility.yul\":2440:2678   */\n      pop\n        /* \"#utility.yul\":2397:2678   */\n      pop\n      pop\n      jump\t// out\n        /* \"#utility.yul\":2684:2813   */\n    tag_103:\n        /* \"#utility.yul\":2718:2724   */\n      0x00\n        /* \"#utility.yul\":2745:2765   */\n      tag_155\n      tag_91\n      jump\t// in\n    tag_155:\n        /* \"#utility.yul\":2735:2765   */\n      swap1\n      pop\n        /* \"#utility.yul\":2774:2807   */\n      tag_156\n        /* \"#utility.yul\":2802:2806   */\n      dup3\n        /* \"#utility.yul\":2794:2800   */\n      dup3\n        /* \"#utility.yul\":2774:2807   */\n      tag_102\n      jump\t// in\n    tag_156:\n        /* \"#utility.yul\":2684:2813   */\n      swap2\n      swap1\n      pop\n      jump\t// out\n        /* \"#utility.yul\":2819:3127   */\n    tag_104:\n        /* \"#utility.yul\":2881:2885   */\n      0x00\n        /* \"#utility.yul\":2971:2989   */\n      0xffffffffffffffff\n        /* \"#utility.yul\":2963:2969   */\n      dup3\n        /* \"#utility.yul\":2960:2990   */\n      gt\n        /* \"#utility.yul\":2957:3013   */\n      iszero\n      tag_158\n      jumpi\n        /* \"#utility.yul\":2993:3011   */\n      tag_159\n      tag_101\n      jump\t// in\n    tag_159:\n        /* \"#utility.yul\":2957:3013   */\n    tag_158:\n        /* \"#utility.yul\":3031:3060   */\n      tag_160\n        /* \"#utility.yul\":3053:3059   */\n      dup3\n        /* \"#utility.yul\":3031:3060   */\n      tag_100\n      jump\t// in\n    tag_160:\n        /* \"#utility.yul\":3023:3060   */\n      swap1\n      pop\n        /* \"#utility.yul\":3115:3119   */\n      0x20\n        /* \"#utility.yul\":3109:3113   */\n      dup2\n        /* \"#utility.yul\":3105:3120   */\n      add\n        /* \"#utility.yul\":3097:3120   */\n      swap1\n      pop\n        /* \"#utility.yul\":2819:3127   */\n      swap2\n      swap1\n      pop\n      jump\t// out\n        /* \"#utility.yul\":3133:3279   */\n    tag_105:\n        /* \"#utility.yul\":3230:3236   */\n      dup3\n        /* \"#utility.yul\":3225:3228   */\n      dup2\n        /* \"#utility.yul\":3220:3223   */\n      dup4\n        /* \"#utility.yul\":3207:3237   */\n      calldatacopy\n        /* \"#utility.yul\":3271:3272   */\n      0x00\n        /* \"#utility.yul\":3262:3268   */\n      dup4\n        /* \"#utility.yul\":3257:3260   */\n      dup4\n        /* \"#utility.yul\":3253:3269   */\n      add\n        /* \"#utility.yul\":3246:3273   */\n      mstore\n        /* \"#utility.yul\":3133:3279   */\n      pop\n      pop\n      pop\n      jump\t// out\n        /* \"#utility.yul\":3285:3710   */\n    tag_106:\n        /* \"#utility.yul\":3363:3368   */\n      0x00\n        /* \"#utility.yul\":3388:3454   */\n      tag_163\n        /* \"#utility.yul\":3404:3453   */\n      tag_164\n        /* \"#utility.yul\":3446:3452   */\n      dup5\n        /* \"#utility.yul\":3404:3453   */\n      tag_104\n      jump\t// in\n    tag_164:\n        /* \"#utility.yul\":3388:3454   */\n      tag_103\n      jump\t// in\n    tag_163:\n        /* \"#utility.yul\":3379:3454   */\n      swap1\n      pop\n        /* \"#utility.yul\":3477:3483   */\n      dup3\n        /* \"#utility.yul\":3470:3475   */\n      dup2\n        /* \"#utility.yul\":3463:3484   */\n      mstore\n        /* \"#utility.yul\":3515:3519   */\n      0x20\n        /* \"#utility.yul\":3508:3513   */\n      dup2\n        /* \"#utility.yul\":3504:3520   */\n      add\n        /* \"#utility.yul\":3553:3556   */\n      dup5\n        /* \"#utility.yul\":3544:3550   */\n      dup5\n        /* \"#utility.yul\":3539:3542   */\n      dup5\n        /* \"#utility.yul\":3535:3551   */\n      add\n        /* \"#utility.yul\":3532:3557   */\n      gt\n        /* \"#utility.yul\":3529:3641   */\n      iszero\n      tag_165\n      jumpi\n        /* \"#utility.yul\":3560:3639   */\n      tag_166\n      tag_99\n      jump\t// in\n    tag_166:\n        /* \"#utility.yul\":3529:3641   */\n    tag_165:\n        /* \"#utility.yul\":3650:3704   */\n      tag_167\n        /* \"#utility.yul\":3697:3703   */\n      dup5\n        /* \"#utility.yul\":3692:3695   */\n      dup3\n        /* \"#utility.yul\":3687:3690   */\n      dup6\n        /* \"#utility.yul\":3650:3704   */\n      tag_105\n      jump\t// in\n    tag_167:\n        /* \"#utility.yul\":3369:3710   */\n      pop\n        /* \"#utility.yul\":3285:3710   */\n      swap4\n      swap3\n      pop\n      pop\n      pop\n      jump\t// out\n        /* \"#utility.yul\":3730:4070   */\n    tag_107:\n        /* \"#utility.yul\":3786:3791   */\n      0x00\n        /* \"#utility.yul\":3835:3838   */\n      dup3\n        /* \"#utility.yul\":3828:3832   */\n      0x1f\n        /* \"#utility.yul\":3820:3826   */\n      dup4\n        /* \"#utility.yul\":3816:3833   */\n      add\n        /* \"#utility.yul\":3812:3839   */\n      slt\n        /* \"#utility.yul\":3802:3924   */\n      tag_169\n      jumpi\n        /* \"#utility.yul\":3843:3922   */\n      tag_170\n      tag_98\n      jump\t// in\n    tag_170:\n        /* \"#utility.yul\":3802:3924   */\n    tag_169:\n        /* \"#utility.yul\":3960:3966   */\n      dup2\n        /* \"#utility.yul\":3947:3967   */\n      calldataload\n        /* \"#utility.yul\":3985:4064   */\n      tag_171\n        /* \"#utility.yul\":4060:4063   */\n      dup5\n        /* \"#utility.yul\":4052:4058   */\n      dup3\n        /* \"#utility.yul\":4045:4049   */\n      0x20\n        /* \"#utility.yul\":4037:4043   */\n      dup7\n        /* \"#utility.yul\":4033:4050   */\n      add\n        /* \"#utility.yul\":3985:4064   */\n      tag_106\n      jump\t// in\n    tag_171:\n        /* \"#utility.yul\":3976:4064   */\n      swap2\n      pop\n        /* \"#utility.yul\":3792:4070   */\n      pop\n        /* \"#utility.yul\":3730:4070   */\n      swap3\n      swap2\n      pop\n      pop\n      jump\t// out\n        /* \"#utility.yul\":4076:4187   */\n    tag_108:\n        /* \"#utility.yul\":4161:4162   */\n      0x02\n        /* \"#utility.yul\":4154:4159   */\n      dup2\n        /* \"#utility.yul\":4151:4163   */\n      lt\n        /* \"#utility.yul\":4141:4181   */\n      tag_173\n      jumpi\n        /* \"#utility.yul\":4177:4178   */\n      0x00\n        /* \"#utility.yul\":4174:4175   */\n      dup1\n        /* \"#utility.yul\":4167:4179   */\n      revert\n        /* \"#utility.yul\":4141:4181   */\n    tag_173:\n        /* \"#utility.yul\":4076:4187   */\n      pop\n      jump\t// out\n        /* \"#utility.yul\":4193:4356   */\n    tag_109:\n        /* \"#utility.yul\":4251:4256   */\n      0x00\n        /* \"#utility.yul\":4289:4295   */\n      dup2\n        /* \"#utility.yul\":4276:4296   */\n      calldataload\n        /* \"#utility.yul\":4267:4296   */\n      swap1\n      pop\n        /* \"#utility.yul\":4305:4350   */\n      tag_175\n        /* \"#utility.yul\":4344:4349   */\n      dup2\n        /* \"#utility.yul\":4305:4350   */\n      tag_108\n      jump\t// in\n    tag_175:\n        /* \"#utility.yul\":4193:4356   */\n      swap3\n      swap2\n      pop\n      pop\n      jump\t// out\n        /* \"#utility.yul\":4362:5040   */\n    tag_23:\n        /* \"#utility.yul\":4452:4458   */\n      0x00\n        /* \"#utility.yul\":4460:4466   */\n      dup1\n        /* \"#utility.yul\":4509:4511   */\n      0x40\n        /* \"#utility.yul\":4497:4506   */\n      dup4\n        /* \"#utility.yul\":4488:4495   */\n      dup6\n        /* \"#utility.yul\":4484:4507   */\n      sub\n        /* \"#utility.yul\":4480:4512   */\n      slt\n        /* \"#utility.yul\":4477:4596   */\n      iszero\n      tag_177\n      jumpi\n        /* \"#utility.yul\":4515:4594   */\n      tag_178\n      tag_92\n      jump\t// in\n    tag_178:\n        /* \"#utility.yul\":4477:4596   */\n    tag_177:\n        /* \"#utility.yul\":4663:4664   */\n      0x00\n        /* \"#utility.yul\":4652:4661   */\n      dup4\n        /* \"#utility.yul\":4648:4665   */\n      add\n        /* \"#utility.yul\":4635:4666   */\n      calldataload\n        /* \"#utility.yul\":4693:4711   */\n      0xffffffffffffffff\n        /* \"#utility.yul\":4685:4691   */\n      dup2\n        /* \"#utility.yul\":4682:4712   */\n      gt\n        /* \"#utility.yul\":4679:4796   */\n      iszero\n      tag_179\n      jumpi\n        /* \"#utility.yul\":4715:4794   */\n      tag_180\n      tag_93\n      jump\t// in\n    tag_180:\n        /* \"#utility.yul\":4679:4796   */\n    tag_179:\n        /* \"#utility.yul\":4820:4883   */\n      tag_181\n        /* \"#utility.yul\":4875:4882   */\n      dup6\n        /* \"#utility.yul\":4866:4872   */\n      dup3\n        /* \"#utility.yul\":4855:4864   */\n      dup7\n        /* \"#utility.yul\":4851:4873   */\n      add\n        /* \"#utility.yul\":4820:4883   */\n      tag_107\n      jump\t// in\n    tag_181:\n        /* \"#utility.yul\":4810:4883   */\n      swap3\n      pop\n        /* \"#utility.yul\":4606:4893   */\n      pop\n        /* \"#utility.yul\":4932:4934   */\n      0x20\n        /* \"#utility.yul\":4958:5023   */\n      tag_182\n        /* \"#utility.yul\":5015:5022   */\n      dup6\n        /* \"#utility.yul\":5006:5012   */\n      dup3\n        /* \"#utility.yul\":4995:5004   */\n      dup7\n        /* \"#utility.yul\":4991:5013   */\n      add\n        /* \"#utility.yul\":4958:5023   */\n      tag_109\n      jump\t// in\n    tag_182:\n        /* \"#utility.yul\":4948:5023   */\n      swap2\n      pop\n        /* \"#utility.yul\":4903:5033   */\n      pop\n        /* \"#utility.yul\":4362:5040   */\n      swap3\n      pop\n      swap3\n      swap1\n      pop\n      jump\t// out\n        /* \"#utility.yul\":5046:5172   */\n    tag_110:\n        /* \"#utility.yul\":5083:5090   */\n      0x00\n        /* \"#utility.yul\":5123:5165   */\n      0xffffffffffffffffffffffffffffffffffffffff\n        /* \"#utility.yul\":5116:5121   */\n      dup3\n        /* \"#utility.yul\":5112:5166   */\n      and\n        /* \"#utility.yul\":5101:5166   */\n      swap1\n      pop\n        /* \"#utility.yul\":5046:5172   */\n      swap2\n      swap1\n      pop\n      jump\t// out\n        /* \"#utility.yul\":5178:5238   */\n    tag_111:\n        /* \"#utility.yul\":5206:5209   */\n      0x00\n        /* \"#utility.yul\":5227:5232   */\n      dup2\n        /* \"#utility.yul\":5220:5232   */\n      swap1\n      pop\n        /* \"#utility.yul\":5178:5238   */\n      swap2\n      swap1\n      pop\n      jump\t// out\n        /* \"#utility.yul\":5244:5386   */\n    tag_112:\n        /* \"#utility.yul\":5294:5303   */\n      0x00\n        /* \"#utility.yul\":5327:5380   */\n      tag_186\n        /* \"#utility.yul\":5345:5379   */\n      tag_187\n        /* \"#utility.yul\":5354:5378   */\n      tag_188\n        /* \"#utility.yul\":5372:5377   */\n      dup5\n        /* \"#utility.yul\":5354:5378   */\n      tag_110\n      jump\t// in\n    tag_188:\n        /* \"#utility.yul\":5345:5379   */\n      tag_111\n      jump\t// in\n    tag_187:\n        /* \"#utility.yul\":5327:5380   */\n      tag_110\n      jump\t// in\n    tag_186:\n        /* \"#utility.yul\":5314:5380   */\n      swap1\n      pop\n        /* \"#utility.yul\":5244:5386   */\n      swap2\n      swap1\n      pop\n      jump\t// out\n        /* \"#utility.yul\":5392:5518   */\n    tag_113:\n        /* \"#utility.yul\":5442:5451   */\n      0x00\n        /* \"#utility.yul\":5475:5512   */\n      tag_190\n        /* \"#utility.yul\":5506:5511   */\n      dup3\n        /* \"#utility.yul\":5475:5512   */\n      tag_112\n      jump\t// in\n    tag_190:\n        /* \"#utility.yul\":5462:5512   */\n      swap1\n      pop\n        /* \"#utility.yul\":5392:5518   */\n      swap2\n      swap1\n      pop\n      jump\t// out\n        /* \"#utility.yul\":5524:5670   */\n    tag_114:\n        /* \"#utility.yul\":5594:5603   */\n      0x00\n        /* \"#utility.yul\":5627:5664   */\n      tag_192\n        /* \"#utility.yul\":5658:5663   */\n      dup3\n        /* \"#utility.yul\":5627:5664   */\n      tag_113\n      jump\t// in\n    tag_192:\n        /* \"#utility.yul\":5614:5664   */\n      swap1\n      pop\n        /* \"#utility.yul\":5524:5670   */\n      swap2\n      swap1\n      pop\n      jump\t// out\n        /* \"#utility.yul\":5676:5847   */\n    tag_115:\n        /* \"#utility.yul\":5783:5840   */\n      tag_194\n        /* \"#utility.yul\":5834:5839   */\n      dup2\n        /* \"#utility.yul\":5783:5840   */\n      tag_114\n      jump\t// in\n    tag_194:\n        /* \"#utility.yul\":5778:5781   */\n      dup3\n        /* \"#utility.yul\":5771:5841   */\n      mstore\n        /* \"#utility.yul\":5676:5847   */\n      pop\n      pop\n      jump\t// out\n        /* \"#utility.yul\":5853:6115   */\n    tag_29:\n        /* \"#utility.yul\":5966:5970   */\n      0x00\n        /* \"#utility.yul\":6004:6006   */\n      0x20\n        /* \"#utility.yul\":5993:6002   */\n      dup3\n        /* \"#utility.yul\":5989:6007   */\n      add\n        /* \"#utility.yul\":5981:6007   */\n      swap1\n      pop\n        /* \"#utility.yul\":6017:6108   */\n      tag_196\n        /* \"#utility.yul\":6105:6106   */\n      0x00\n        /* \"#utility.yul\":6094:6103   */\n      dup4\n        /* \"#utility.yul\":6090:6107   */\n      add\n        /* \"#utility.yul\":6081:6087   */\n      dup5\n        /* \"#utility.yul\":6017:6108   */\n      tag_115\n      jump\t// in\n    tag_196:\n        /* \"#utility.yul\":5853:6115   */\n      swap3\n      swap2\n      pop\n      pop\n      jump\t// out\n        /* \"#utility.yul\":6121:6220   */\n    tag_116:\n        /* \"#utility.yul\":6173:6179   */\n      0x00\n        /* \"#utility.yul\":6207:6212   */\n      dup2\n        /* \"#utility.yul\":6201:6213   */\n      mload\n        /* \"#utility.yul\":6191:6213   */\n      swap1\n      pop\n        /* \"#utility.yul\":6121:6220   */\n      swap2\n      swap1\n      pop\n      jump\t// out\n        /* \"#utility.yul\":6226:6395   */\n    tag_117:\n        /* \"#utility.yul\":6310:6321   */\n      0x00\n        /* \"#utility.yul\":6344:6350   */\n      dup3\n        /* \"#utility.yul\":6339:6342   */\n      dup3\n        /* \"#utility.yul\":6332:6351   */\n      mstore\n        /* \"#utility.yul\":6384:6388   */\n      0x20\n        /* \"#utility.yul\":6379:6382   */\n      dup3\n        /* \"#utility.yul\":6375:6389   */\n      add\n        /* \"#utility.yul\":6360:6389   */\n      swap1\n      pop\n        /* \"#utility.yul\":6226:6395   */\n      swap3\n      swap2\n      pop\n      pop\n      jump\t// out\n        /* \"#utility.yul\":6401:6647   */\n    tag_118:\n        /* \"#utility.yul\":6482:6483   */\n      0x00\n        /* \"#utility.yul\":6492:6605   */\n    tag_200:\n        /* \"#utility.yul\":6506:6512   */\n      dup4\n        /* \"#utility.yul\":6503:6504   */\n      dup2\n        /* \"#utility.yul\":6500:6513   */\n      lt\n        /* \"#utility.yul\":6492:6605   */\n      iszero\n      tag_202\n      jumpi\n        /* \"#utility.yul\":6591:6592   */\n      dup1\n        /* \"#utility.yul\":6586:6589   */\n      dup3\n        /* \"#utility.yul\":6582:6593   */\n      add\n        /* \"#utility.yul\":6576:6594   */\n      mload\n        /* \"#utility.yul\":6572:6573   */\n      dup2\n        /* \"#utility.yul\":6567:6570   */\n      dup5\n        /* \"#utility.yul\":6563:6574   */\n      add\n        /* \"#utility.yul\":6556:6595   */\n      mstore\n        /* \"#utility.yul\":6528:6530   */\n      0x20\n        /* \"#utility.yul\":6525:6526   */\n      dup2\n        /* \"#utility.yul\":6521:6531   */\n      add\n        /* \"#utility.yul\":6516:6531   */\n      swap1\n      pop\n        /* \"#utility.yul\":6492:6605   */\n      jump(tag_200)\n    tag_202:\n        /* \"#utility.yul\":6639:6640   */\n      0x00\n        /* \"#utility.yul\":6630:6636   */\n      dup5\n        /* \"#utility.yul\":6625:6628   */\n      dup5\n        /* \"#utility.yul\":6621:6637   */\n      add\n        /* \"#utility.yul\":6614:6641   */\n      mstore\n        /* \"#utility.yul\":6463:6647   */\n      pop\n        /* \"#utility.yul\":6401:6647   */\n      pop\n      pop\n      pop\n      jump\t// out\n        /* \"#utility.yul\":6653:7030   */\n    tag_119:\n        /* \"#utility.yul\":6741:6744   */\n      0x00\n        /* \"#utility.yul\":6769:6808   */\n      tag_204\n        /* \"#utility.yul\":6802:6807   */\n      dup3\n        /* \"#utility.yul\":6769:6808   */\n      tag_116\n      jump\t// in\n    tag_204:\n        /* \"#utility.yul\":6824:6895   */\n      tag_205\n        /* \"#utility.yul\":6888:6894   */\n      dup2\n        /* \"#utility.yul\":6883:6886   */\n      dup6\n        /* \"#utility.yul\":6824:6895   */\n      tag_117\n      jump\t// in\n    tag_205:\n        /* \"#utility.yul\":6817:6895   */\n      swap4\n      pop\n        /* \"#utility.yul\":6904:6969   */\n      tag_206\n        /* \"#utility.yul\":6962:6968   */\n      dup2\n        /* \"#utility.yul\":6957:6960   */\n      dup6\n        /* \"#utility.yul\":6950:6954   */\n      0x20\n        /* \"#utility.yul\":6943:6948   */\n      dup7\n        /* \"#utility.yul\":6939:6955   */\n      add\n        /* \"#utility.yul\":6904:6969   */\n      tag_118\n      jump\t// in\n    tag_206:\n        /* \"#utility.yul\":6994:7023   */\n      tag_207\n        /* \"#utility.yul\":7016:7022   */\n      dup2\n        /* \"#utility.yul\":6994:7023   */\n      tag_100\n      jump\t// in\n    tag_207:\n        /* \"#utility.yul\":6989:6992   */\n      dup5\n        /* \"#utility.yul\":6985:7024   */\n      add\n        /* \"#utility.yul\":6978:7024   */\n      swap2\n      pop\n        /* \"#utility.yul\":6745:7030   */\n      pop\n        /* \"#utility.yul\":6653:7030   */\n      swap3\n      swap2\n      pop\n      pop\n      jump\t// out\n        /* \"#utility.yul\":7036:7349   */\n    tag_38:\n        /* \"#utility.yul\":7149:7153   */\n      0x00\n        /* \"#utility.yul\":7187:7189   */\n      0x20\n        /* \"#utility.yul\":7176:7185   */\n      dup3\n        /* \"#utility.yul\":7172:7190   */\n      add\n        /* \"#utility.yul\":7164:7190   */\n      swap1\n      pop\n        /* \"#utility.yul\":7236:7245   */\n      dup2\n        /* \"#utility.yul\":7230:7234   */\n      dup2\n        /* \"#utility.yul\":7226:7246   */\n      sub\n        /* \"#utility.yul\":7222:7223   */\n      0x00\n        /* \"#utility.yul\":7211:7220   */\n      dup4\n        /* \"#utility.yul\":7207:7224   */\n      add\n        /* \"#utility.yul\":7200:7247   */\n      mstore\n        /* \"#utility.yul\":7264:7342   */\n      tag_209\n        /* \"#utility.yul\":7337:7341   */\n      dup2\n        /* \"#utility.yul\":7328:7334   */\n      dup5\n        /* \"#utility.yul\":7264:7342   */\n      tag_119\n      jump\t// in\n    tag_209:\n        /* \"#utility.yul\":7256:7342   */\n      swap1\n      pop\n        /* \"#utility.yul\":7036:7349   */\n      swap3\n      swap2\n      pop\n      pop\n      jump\t// out\n        /* \"#utility.yul\":7355:7535   */\n    tag_45:\n        /* \"#utility.yul\":7403:7480   */\n      0x4e487b7100000000000000000000000000000000000000000000000000000000\n        /* \"#utility.yul\":7400:7401   */\n      0x00\n        /* \"#utility.yul\":7393:7481   */\n      mstore\n        /* \"#utility.yul\":7500:7504   */\n      0x32\n        /* \"#utility.yul\":7497:7498   */\n      0x04\n        /* \"#utility.yul\":7490:7505   */\n      mstore\n        /* \"#utility.yul\":7524:7528   */\n      0x24\n        /* \"#utility.yul\":7521:7522   */\n      0x00\n        /* \"#utility.yul\":7514:7529   */\n      revert\n        /* \"#utility.yul\":7541:7684   */\n    tag_120:\n        /* \"#utility.yul\":7598:7603   */\n      0x00\n        /* \"#utility.yul\":7629:7635   */\n      dup2\n        /* \"#utility.yul\":7623:7636   */\n      mload\n        /* \"#utility.yul\":7614:7636   */\n      swap1\n      pop\n        /* \"#utility.yul\":7645:7678   */\n      tag_212\n        /* \"#utility.yul\":7672:7677   */\n      dup2\n        /* \"#utility.yul\":7645:7678   */\n      tag_95\n      jump\t// in\n    tag_212:\n        /* \"#utility.yul\":7541:7684   */\n      swap3\n      swap2\n      pop\n      pop\n      jump\t// out\n        /* \"#utility.yul\":7690:8041   */\n    tag_58:\n        /* \"#utility.yul\":7760:7766   */\n      0x00\n        /* \"#utility.yul\":7809:7811   */\n      0x20\n        /* \"#utility.yul\":7797:7806   */\n      dup3\n        /* \"#utility.yul\":7788:7795   */\n      dup5\n        /* \"#utility.yul\":7784:7807   */\n      sub\n        /* \"#utility.yul\":7780:7812   */\n      slt\n        /* \"#utility.yul\":7777:7896   */\n      iszero\n      tag_214\n      jumpi\n        /* \"#utility.yul\":7815:7894   */\n      tag_215\n      tag_92\n      jump\t// in\n    tag_215:\n        /* \"#utility.yul\":7777:7896   */\n    tag_214:\n        /* \"#utility.yul\":7935:7936   */\n      0x00\n        /* \"#utility.yul\":7960:8024   */\n      tag_216\n        /* \"#utility.yul\":8016:8023   */\n      dup5\n        /* \"#utility.yul\":8007:8013   */\n      dup3\n        /* \"#utility.yul\":7996:8005   */\n      dup6\n        /* \"#utility.yul\":7992:8014   */\n      add\n        /* \"#utility.yul\":7960:8024   */\n      tag_120\n      jump\t// in\n    tag_216:\n        /* \"#utility.yul\":7950:8024   */\n      swap2\n      pop\n        /* \"#utility.yul\":7906:8034   */\n      pop\n        /* \"#utility.yul\":7690:8041   */\n      swap3\n      swap2\n      pop\n      pop\n      jump\t// out\n        /* \"#utility.yul\":8047:8227   */\n    tag_62:\n        /* \"#utility.yul\":8095:8172   */\n      0x4e487b7100000000000000000000000000000000000000000000000000000000\n        /* \"#utility.yul\":8092:8093   */\n      0x00\n        /* \"#utility.yul\":8085:8173   */\n      mstore\n        /* \"#utility.yul\":8192:8196   */\n      0x21\n        /* \"#utility.yul\":8189:8190   */\n      0x04\n        /* \"#utility.yul\":8182:8197   */\n      mstore\n        /* \"#utility.yul\":8216:8220   */\n      0x24\n        /* \"#utility.yul\":8213:8214   */\n      0x00\n        /* \"#utility.yul\":8206:8221   */\n      revert\n        /* \"#utility.yul\":8233:8667   */\n    tag_121:\n        /* \"#utility.yul\":8322:8327   */\n      0x00\n        /* \"#utility.yul\":8347:8413   */\n      tag_219\n        /* \"#utility.yul\":8363:8412   */\n      tag_220\n        /* \"#utility.yul\":8405:8411   */\n      dup5\n        /* \"#utility.yul\":8363:8412   */\n      tag_104\n      jump\t// in\n    tag_220:\n        /* \"#utility.yul\":8347:8413   */\n      tag_103\n      jump\t// in\n    tag_219:\n        /* \"#utility.yul\":8338:8413   */\n      swap1\n      pop\n        /* \"#utility.yul\":8436:8442   */\n      dup3\n        /* \"#utility.yul\":8429:8434   */\n      dup2\n        /* \"#utility.yul\":8422:8443   */\n      mstore\n        /* \"#utility.yul\":8474:8478   */\n      0x20\n        /* \"#utility.yul\":8467:8472   */\n      dup2\n        /* \"#utility.yul\":8463:8479   */\n      add\n        /* \"#utility.yul\":8512:8515   */\n      dup5\n        /* \"#utility.yul\":8503:8509   */\n      dup5\n        /* \"#utility.yul\":8498:8501   */\n      dup5\n        /* \"#utility.yul\":8494:8510   */\n      add\n        /* \"#utility.yul\":8491:8516   */\n      gt\n        /* \"#utility.yul\":8488:8600   */\n      iszero\n      tag_221\n      jumpi\n        /* \"#utility.yul\":8519:8598   */\n      tag_222\n      tag_99\n      jump\t// in\n    tag_222:\n        /* \"#utility.yul\":8488:8600   */\n    tag_221:\n        /* \"#utility.yul\":8609:8661   */\n      tag_223\n        /* \"#utility.yul\":8654:8660   */\n      dup5\n        /* \"#utility.yul\":8649:8652   */\n      dup3\n        /* \"#utility.yul\":8644:8647   */\n      dup6\n        /* \"#utility.yul\":8609:8661   */\n      tag_118\n      jump\t// in\n    tag_223:\n        /* \"#utility.yul\":8328:8667   */\n      pop\n        /* \"#utility.yul\":8233:8667   */\n      swap4\n      swap3\n      pop\n      pop\n      pop\n      jump\t// out\n        /* \"#utility.yul\":8687:9042   */\n    tag_122:\n        /* \"#utility.yul\":8754:8759   */\n      0x00\n        /* \"#utility.yul\":8803:8806   */\n      dup3\n        /* \"#utility.yul\":8796:8800   */\n      0x1f\n        /* \"#utility.yul\":8788:8794   */\n      dup4\n        /* \"#utility.yul\":8784:8801   */\n      add\n        /* \"#utility.yul\":8780:8807   */\n      slt\n        /* \"#utility.yul\":8770:8892   */\n      tag_225\n      jumpi\n        /* \"#utility.yul\":8811:8890   */\n      tag_226\n      tag_98\n      jump\t// in\n    tag_226:\n        /* \"#utility.yul\":8770:8892   */\n    tag_225:\n        /* \"#utility.yul\":8921:8927   */\n      dup2\n        /* \"#utility.yul\":8915:8928   */\n      mload\n        /* \"#utility.yul\":8946:9036   */\n      tag_227\n        /* \"#utility.yul\":9032:9035   */\n      dup5\n        /* \"#utility.yul\":9024:9030   */\n      dup3\n        /* \"#utility.yul\":9017:9021   */\n      0x20\n        /* \"#utility.yul\":9009:9015   */\n      dup7\n        /* \"#utility.yul\":9005:9022   */\n      add\n        /* \"#utility.yul\":8946:9036   */\n      tag_121\n      jump\t// in\n    tag_227:\n        /* \"#utility.yul\":8937:9036   */\n      swap2\n      pop\n        /* \"#utility.yul\":8760:9042   */\n      pop\n        /* \"#utility.yul\":8687:9042   */\n      swap3\n      swap2\n      pop\n      pop\n      jump\t// out\n        /* \"#utility.yul\":9048:9572   */\n    tag_89:\n        /* \"#utility.yul\":9128:9134   */\n      0x00\n        /* \"#utility.yul\":9177:9179   */\n      0x20\n        /* \"#utility.yul\":9165:9174   */\n      dup3\n        /* \"#utility.yul\":9156:9163   */\n      dup5\n        /* \"#utility.yul\":9152:9175   */\n      sub\n        /* \"#utility.yul\":9148:9180   */\n      slt\n        /* \"#utility.yul\":9145:9264   */\n      iszero\n      tag_229\n      jumpi\n        /* \"#utility.yul\":9183:9262   */\n      tag_230\n      tag_92\n      jump\t// in\n    tag_230:\n        /* \"#utility.yul\":9145:9264   */\n    tag_229:\n        /* \"#utility.yul\":9324:9325   */\n      0x00\n        /* \"#utility.yul\":9313:9322   */\n      dup3\n        /* \"#utility.yul\":9309:9326   */\n      add\n        /* \"#utility.yul\":9303:9327   */\n      mload\n        /* \"#utility.yul\":9354:9372   */\n      0xffffffffffffffff\n        /* \"#utility.yul\":9346:9352   */\n      dup2\n        /* \"#utility.yul\":9343:9373   */\n      gt\n        /* \"#utility.yul\":9340:9457   */\n      iszero\n      tag_231\n      jumpi\n        /* \"#utility.yul\":9376:9455   */\n      tag_232\n      tag_93\n      jump\t// in\n    tag_232:\n        /* \"#utility.yul\":9340:9457   */\n    tag_231:\n        /* \"#utility.yul\":9481:9555   */\n      tag_233\n        /* \"#utility.yul\":9547:9554   */\n      dup5\n        /* \"#utility.yul\":9538:9544   */\n      dup3\n        /* \"#utility.yul\":9527:9536   */\n      dup6\n        /* \"#utility.yul\":9523:9545   */\n      add\n        /* \"#utility.yul\":9481:9555   */\n      tag_122\n      jump\t// in\n    tag_233:\n        /* \"#utility.yul\":9471:9555   */\n      swap2\n      pop\n        /* \"#utility.yul\":9274:9565   */\n      pop\n        /* \"#utility.yul\":9048:9572   */\n      swap3\n      swap2\n      pop\n      pop\n      jump\t// out\n    stop\n\n    sub_0: assembly {\n            /* \"remix-section-2/NamedStorage.sol\":439:1001  contract NamedVault is InitialVault{... */\n          mstore(0x40, 0x80)\n            /* \"remix-section-2/NamedStorage.sol\":519:610  constructor(string memory _name){... */\n          callvalue\n          dup1\n          iszero\n          tag_1\n          jumpi\n          0x00\n          dup1\n          revert\n        tag_1:\n          pop\n          mload(0x40)\n          sub(codesize, bytecodeSize)\n          dup1\n          bytecodeSize\n          dup4\n          codecopy\n          dup2\n          dup2\n          add\n          0x40\n          mstore\n          dup2\n          add\n          swap1\n          tag_2\n          swap2\n          swap1\n          tag_3\n          jump\t// in\n        tag_2:\n            /* \"remix-section-2/NamedStorage.sol\":568:573  _name */\n          dup1\n            /* \"remix-section-2/NamedStorage.sol\":561:565  name */\n          0x01\n            /* \"remix-section-2/NamedStorage.sol\":561:573  name = _name */\n          swap1\n          dup2\n          tag_6\n          swap2\n          swap1\n          tag_7\n          jump\t// in\n        tag_6:\n          pop\n            /* \"remix-section-2/NamedStorage.sol\":593:603  msg.sender */\n          caller\n            /* \"remix-section-2/NamedStorage.sol\":583:590  creator */\n          0x02\n          0x00\n            /* \"remix-section-2/NamedStorage.sol\":583:603  creator = msg.sender */\n          0x0100\n          exp\n          dup2\n          sload\n          dup2\n          0xffffffffffffffffffffffffffffffffffffffff\n          mul\n          not\n          and\n          swap1\n          dup4\n          0xffffffffffffffffffffffffffffffffffffffff\n          and\n          mul\n          or\n          swap1\n          sstore\n          pop\n            /* \"remix-section-2/NamedStorage.sol\":519:610  constructor(string memory _name){... */\n          pop\n            /* \"remix-section-2/NamedStorage.sol\":439:1001  contract NamedVault is InitialVault{... */\n          jump(tag_8)\n            /* \"#utility.yul\":7:82   */\n        tag_9:\n            /* \"#utility.yul\":40:46   */\n          0x00\n            /* \"#utility.yul\":73:75   */\n          0x40\n            /* \"#utility.yul\":67:76   */\n          mload\n            /* \"#utility.yul\":57:76   */\n          swap1\n          pop\n            /* \"#utility.yul\":7:82   */\n          swap1\n          jump\t// out\n            /* \"#utility.yul\":88:205   */\n        tag_10:\n            /* \"#utility.yul\":197:198   */\n          0x00\n            /* \"#utility.yul\":194:195   */\n          dup1\n            /* \"#utility.yul\":187:199   */\n          revert\n            /* \"#utility.yul\":211:328   */\n        tag_11:\n            /* \"#utility.yul\":320:321   */\n          0x00\n            /* \"#utility.yul\":317:318   */\n          dup1\n            /* \"#utility.yul\":310:322   */\n          revert\n            /* \"#utility.yul\":334:451   */\n        tag_12:\n            /* \"#utility.yul\":443:444   */\n          0x00\n            /* \"#utility.yul\":440:441   */\n          dup1\n            /* \"#utility.yul\":433:445   */\n          revert\n            /* \"#utility.yul\":457:574   */\n        tag_13:\n            /* \"#utility.yul\":566:567   */\n          0x00\n            /* \"#utility.yul\":563:564   */\n          dup1\n            /* \"#utility.yul\":556:568   */\n          revert\n            /* \"#utility.yul\":580:682   */\n        tag_14:\n            /* \"#utility.yul\":621:627   */\n          0x00\n            /* \"#utility.yul\":672:674   */\n          0x1f\n            /* \"#utility.yul\":668:675   */\n          not\n            /* \"#utility.yul\":663:665   */\n          0x1f\n            /* \"#utility.yul\":656:661   */\n          dup4\n            /* \"#utility.yul\":652:666   */\n          add\n            /* \"#utility.yul\":648:676   */\n          and\n            /* \"#utility.yul\":638:676   */\n          swap1\n          pop\n            /* \"#utility.yul\":580:682   */\n          swap2\n          swap1\n          pop\n          jump\t// out\n            /* \"#utility.yul\":688:868   */\n        tag_15:\n            /* \"#utility.yul\":736:813   */\n          0x4e487b7100000000000000000000000000000000000000000000000000000000\n            /* \"#utility.yul\":733:734   */\n          0x00\n            /* \"#utility.yul\":726:814   */\n          mstore\n            /* \"#utility.yul\":833:837   */\n          0x41\n            /* \"#utility.yul\":830:831   */\n          0x04\n            /* \"#utility.yul\":823:838   */\n          mstore\n            /* \"#utility.yul\":857:861   */\n          0x24\n            /* \"#utility.yul\":854:855   */\n          0x00\n            /* \"#utility.yul\":847:862   */\n          revert\n            /* \"#utility.yul\":874:1155   */\n        tag_16:\n            /* \"#utility.yul\":957:984   */\n          tag_50\n            /* \"#utility.yul\":979:983   */\n          dup3\n            /* \"#utility.yul\":957:984   */\n          tag_14\n          jump\t// in\n        tag_50:\n            /* \"#utility.yul\":949:955   */\n          dup2\n            /* \"#utility.yul\":945:985   */\n          add\n            /* \"#utility.yul\":1087:1093   */\n          dup2\n            /* \"#utility.yul\":1075:1085   */\n          dup2\n            /* \"#utility.yul\":1072:1094   */\n          lt\n            /* \"#utility.yul\":1051:1069   */\n          0xffffffffffffffff\n            /* \"#utility.yul\":1039:1049   */\n          dup3\n            /* \"#utility.yul\":1036:1070   */\n          gt\n            /* \"#utility.yul\":1033:1095   */\n          or\n            /* \"#utility.yul\":1030:1118   */\n          iszero\n          tag_51\n          jumpi\n            /* \"#utility.yul\":1098:1116   */\n          tag_52\n          tag_15\n          jump\t// in\n        tag_52:\n            /* \"#utility.yul\":1030:1118   */\n        tag_51:\n            /* \"#utility.yul\":1138:1148   */\n          dup1\n            /* \"#utility.yul\":1134:1136   */\n          0x40\n            /* \"#utility.yul\":1127:1149   */\n          mstore\n            /* \"#utility.yul\":917:1155   */\n          pop\n            /* \"#utility.yul\":874:1155   */\n          pop\n          pop\n          jump\t// out\n            /* \"#utility.yul\":1161:1290   */\n        tag_17:\n            /* \"#utility.yul\":1195:1201   */\n          0x00\n            /* \"#utility.yul\":1222:1242   */\n          tag_54\n          tag_9\n          jump\t// in\n        tag_54:\n            /* \"#utility.yul\":1212:1242   */\n          swap1\n          pop\n            /* \"#utility.yul\":1251:1284   */\n          tag_55\n            /* \"#utility.yul\":1279:1283   */\n          dup3\n            /* \"#utility.yul\":1271:1277   */\n          dup3\n            /* \"#utility.yul\":1251:1284   */\n          tag_16\n          jump\t// in\n        tag_55:\n            /* \"#utility.yul\":1161:1290   */\n          swap2\n          swap1\n          pop\n          jump\t// out\n            /* \"#utility.yul\":1296:1604   */\n        tag_18:\n            /* \"#utility.yul\":1358:1362   */\n          0x00\n            /* \"#utility.yul\":1448:1466   */\n          0xffffffffffffffff\n            /* \"#utility.yul\":1440:1446   */\n          dup3\n            /* \"#utility.yul\":1437:1467   */\n          gt\n            /* \"#utility.yul\":1434:1490   */\n          iszero\n          tag_57\n          jumpi\n            /* \"#utility.yul\":1470:1488   */\n          tag_58\n          tag_15\n          jump\t// in\n        tag_58:\n            /* \"#utility.yul\":1434:1490   */\n        tag_57:\n            /* \"#utility.yul\":1508:1537   */\n          tag_59\n            /* \"#utility.yul\":1530:1536   */\n          dup3\n            /* \"#utility.yul\":1508:1537   */\n          tag_14\n          jump\t// in\n        tag_59:\n            /* \"#utility.yul\":1500:1537   */\n          swap1\n          pop\n            /* \"#utility.yul\":1592:1596   */\n          0x20\n            /* \"#utility.yul\":1586:1590   */\n          dup2\n            /* \"#utility.yul\":1582:1597   */\n          add\n            /* \"#utility.yul\":1574:1597   */\n          swap1\n          pop\n            /* \"#utility.yul\":1296:1604   */\n          swap2\n          swap1\n          pop\n          jump\t// out\n            /* \"#utility.yul\":1610:1856   */\n        tag_19:\n            /* \"#utility.yul\":1691:1692   */\n          0x00\n            /* \"#utility.yul\":1701:1814   */\n        tag_61:\n            /* \"#utility.yul\":1715:1721   */\n          dup4\n            /* \"#utility.yul\":1712:1713   */\n          dup2\n            /* \"#utility.yul\":1709:1722   */\n          lt\n            /* \"#utility.yul\":1701:1814   */\n          iszero\n          tag_63\n          jumpi\n            /* \"#utility.yul\":1800:1801   */\n          dup1\n            /* \"#utility.yul\":1795:1798   */\n          dup3\n            /* \"#utility.yul\":1791:1802   */\n          add\n            /* \"#utility.yul\":1785:1803   */\n          mload\n            /* \"#utility.yul\":1781:1782   */\n          dup2\n            /* \"#utility.yul\":1776:1779   */\n          dup5\n            /* \"#utility.yul\":1772:1783   */\n          add\n            /* \"#utility.yul\":1765:1804   */\n          mstore\n            /* \"#utility.yul\":1737:1739   */\n          0x20\n            /* \"#utility.yul\":1734:1735   */\n          dup2\n            /* \"#utility.yul\":1730:1740   */\n          add\n            /* \"#utility.yul\":1725:1740   */\n          swap1\n          pop\n            /* \"#utility.yul\":1701:1814   */\n          jump(tag_61)\n        tag_63:\n            /* \"#utility.yul\":1848:1849   */\n          0x00\n            /* \"#utility.yul\":1839:1845   */\n          dup5\n            /* \"#utility.yul\":1834:1837   */\n          dup5\n            /* \"#utility.yul\":1830:1846   */\n          add\n            /* \"#utility.yul\":1823:1850   */\n          mstore\n            /* \"#utility.yul\":1672:1856   */\n          pop\n            /* \"#utility.yul\":1610:1856   */\n          pop\n          pop\n          pop\n          jump\t// out\n            /* \"#utility.yul\":1862:2296   */\n        tag_20:\n            /* \"#utility.yul\":1951:1956   */\n          0x00\n            /* \"#utility.yul\":1976:2042   */\n          tag_65\n            /* \"#utility.yul\":1992:2041   */\n          tag_66\n            /* \"#utility.yul\":2034:2040   */\n          dup5\n            /* \"#utility.yul\":1992:2041   */\n          tag_18\n          jump\t// in\n        tag_66:\n            /* \"#utility.yul\":1976:2042   */\n          tag_17\n          jump\t// in\n        tag_65:\n            /* \"#utility.yul\":1967:2042   */\n          swap1\n          pop\n            /* \"#utility.yul\":2065:2071   */\n          dup3\n            /* \"#utility.yul\":2058:2063   */\n          dup2\n            /* \"#utility.yul\":2051:2072   */\n          mstore\n            /* \"#utility.yul\":2103:2107   */\n          0x20\n            /* \"#utility.yul\":2096:2101   */\n          dup2\n            /* \"#utility.yul\":2092:2108   */\n          add\n            /* \"#utility.yul\":2141:2144   */\n          dup5\n            /* \"#utility.yul\":2132:2138   */\n          dup5\n            /* \"#utility.yul\":2127:2130   */\n          dup5\n            /* \"#utility.yul\":2123:2139   */\n          add\n            /* \"#utility.yul\":2120:2145   */\n          gt\n            /* \"#utility.yul\":2117:2229   */\n          iszero\n          tag_67\n          jumpi\n            /* \"#utility.yul\":2148:2227   */\n          tag_68\n          tag_13\n          jump\t// in\n        tag_68:\n            /* \"#utility.yul\":2117:2229   */\n        tag_67:\n            /* \"#utility.yul\":2238:2290   */\n          tag_69\n            /* \"#utility.yul\":2283:2289   */\n          dup5\n            /* \"#utility.yul\":2278:2281   */\n          dup3\n            /* \"#utility.yul\":2273:2276   */\n          dup6\n            /* \"#utility.yul\":2238:2290   */\n          tag_19\n          jump\t// in\n        tag_69:\n            /* \"#utility.yul\":1957:2296   */\n          pop\n            /* \"#utility.yul\":1862:2296   */\n          swap4\n          swap3\n          pop\n          pop\n          pop\n          jump\t// out\n            /* \"#utility.yul\":2316:2671   */\n        tag_21:\n            /* \"#utility.yul\":2383:2388   */\n          0x00\n            /* \"#utility.yul\":2432:2435   */\n          dup3\n            /* \"#utility.yul\":2425:2429   */\n          0x1f\n            /* \"#utility.yul\":2417:2423   */\n          dup4\n            /* \"#utility.yul\":2413:2430   */\n          add\n            /* \"#utility.yul\":2409:2436   */\n          slt\n            /* \"#utility.yul\":2399:2521   */\n          tag_71\n          jumpi\n            /* \"#utility.yul\":2440:2519   */\n          tag_72\n          tag_12\n          jump\t// in\n        tag_72:\n            /* \"#utility.yul\":2399:2521   */\n        tag_71:\n            /* \"#utility.yul\":2550:2556   */\n          dup2\n            /* \"#utility.yul\":2544:2557   */\n          mload\n            /* \"#utility.yul\":2575:2665   */\n          tag_73\n            /* \"#utility.yul\":2661:2664   */\n          dup5\n            /* \"#utility.yul\":2653:2659   */\n          dup3\n            /* \"#utility.yul\":2646:2650   */\n          0x20\n            /* \"#utility.yul\":2638:2644   */\n          dup7\n            /* \"#utility.yul\":2634:2651   */\n          add\n            /* \"#utility.yul\":2575:2665   */\n          tag_20\n          jump\t// in\n        tag_73:\n            /* \"#utility.yul\":2566:2665   */\n          swap2\n          pop\n            /* \"#utility.yul\":2389:2671   */\n          pop\n            /* \"#utility.yul\":2316:2671   */\n          swap3\n          swap2\n          pop\n          pop\n          jump\t// out\n            /* \"#utility.yul\":2677:3201   */\n        tag_3:\n            /* \"#utility.yul\":2757:2763   */\n          0x00\n            /* \"#utility.yul\":2806:2808   */\n          0x20\n            /* \"#utility.yul\":2794:2803   */\n          dup3\n            /* \"#utility.yul\":2785:2792   */\n          dup5\n            /* \"#utility.yul\":2781:2804   */\n          sub\n            /* \"#utility.yul\":2777:2809   */\n          slt\n            /* \"#utility.yul\":2774:2893   */\n          iszero\n          tag_75\n          jumpi\n            /* \"#utility.yul\":2812:2891   */\n          tag_76\n          tag_10\n          jump\t// in\n        tag_76:\n            /* \"#utility.yul\":2774:2893   */\n        tag_75:\n            /* \"#utility.yul\":2953:2954   */\n          0x00\n            /* \"#utility.yul\":2942:2951   */\n          dup3\n            /* \"#utility.yul\":2938:2955   */\n          add\n            /* \"#utility.yul\":2932:2956   */\n          mload\n            /* \"#utility.yul\":2983:3001   */\n          0xffffffffffffffff\n            /* \"#utility.yul\":2975:2981   */\n          dup2\n            /* \"#utility.yul\":2972:3002   */\n          gt\n            /* \"#utility.yul\":2969:3086   */\n          iszero\n          tag_77\n          jumpi\n            /* \"#utility.yul\":3005:3084   */\n          tag_78\n          tag_11\n          jump\t// in\n        tag_78:\n            /* \"#utility.yul\":2969:3086   */\n        tag_77:\n            /* \"#utility.yul\":3110:3184   */\n          tag_79\n            /* \"#utility.yul\":3176:3183   */\n          dup5\n            /* \"#utility.yul\":3167:3173   */\n          dup3\n            /* \"#utility.yul\":3156:3165   */\n          dup6\n            /* \"#utility.yul\":3152:3174   */\n          add\n            /* \"#utility.yul\":3110:3184   */\n          tag_21\n          jump\t// in\n        tag_79:\n            /* \"#utility.yul\":3100:3184   */\n          swap2\n          pop\n            /* \"#utility.yul\":2903:3194   */\n          pop\n            /* \"#utility.yul\":2677:3201   */\n          swap3\n          swap2\n          pop\n          pop\n          jump\t// out\n            /* \"#utility.yul\":3207:3306   */\n        tag_22:\n            /* \"#utility.yul\":3259:3265   */\n          0x00\n            /* \"#utility.yul\":3293:3298   */\n          dup2\n            /* \"#utility.yul\":3287:3299   */\n          mload\n            /* \"#utility.yul\":3277:3299   */\n          swap1\n          pop\n            /* \"#utility.yul\":3207:3306   */\n          swap2\n          swap1\n          pop\n          jump\t// out\n            /* \"#utility.yul\":3312:3492   */\n        tag_23:\n            /* \"#utility.yul\":3360:3437   */\n          0x4e487b7100000000000000000000000000000000000000000000000000000000\n            /* \"#utility.yul\":3357:3358   */\n          0x00\n            /* \"#utility.yul\":3350:3438   */\n          mstore\n            /* \"#utility.yul\":3457:3461   */\n          0x22\n            /* \"#utility.yul\":3454:3455   */\n          0x04\n            /* \"#utility.yul\":3447:3462   */\n          mstore\n            /* \"#utility.yul\":3481:3485   */\n          0x24\n            /* \"#utility.yul\":3478:3479   */\n          0x00\n            /* \"#utility.yul\":3471:3486   */\n          revert\n            /* \"#utility.yul\":3498:3818   */\n        tag_24:\n            /* \"#utility.yul\":3542:3548   */\n          0x00\n            /* \"#utility.yul\":3579:3580   */\n          0x02\n            /* \"#utility.yul\":3573:3577   */\n          dup3\n            /* \"#utility.yul\":3569:3581   */\n          div\n            /* \"#utility.yul\":3559:3581   */\n          swap1\n          pop\n            /* \"#utility.yul\":3626:3627   */\n          0x01\n            /* \"#utility.yul\":3620:3624   */\n          dup3\n            /* \"#utility.yul\":3616:3628   */\n          and\n            /* \"#utility.yul\":3647:3665   */\n          dup1\n            /* \"#utility.yul\":3637:3718   */\n          tag_83\n          jumpi\n            /* \"#utility.yul\":3703:3707   */\n          0x7f\n            /* \"#utility.yul\":3695:3701   */\n          dup3\n            /* \"#utility.yul\":3691:3708   */\n          and\n            /* \"#utility.yul\":3681:3708   */\n          swap2\n          pop\n            /* \"#utility.yul\":3637:3718   */\n        tag_83:\n            /* \"#utility.yul\":3765:3767   */\n          0x20\n            /* \"#utility.yul\":3757:3763   */\n          dup3\n            /* \"#utility.yul\":3754:3768   */\n          lt\n            /* \"#utility.yul\":3734:3752   */\n          dup2\n            /* \"#utility.yul\":3731:3769   */\n          sub\n            /* \"#utility.yul\":3728:3812   */\n          tag_84\n          jumpi\n            /* \"#utility.yul\":3784:3802   */\n          tag_85\n          tag_23\n          jump\t// in\n        tag_85:\n            /* \"#utility.yul\":3728:3812   */\n        tag_84:\n            /* \"#utility.yul\":3549:3818   */\n          pop\n            /* \"#utility.yul\":3498:3818   */\n          swap2\n          swap1\n          pop\n          jump\t// out\n            /* \"#utility.yul\":3824:3965   */\n        tag_25:\n            /* \"#utility.yul\":3873:3877   */\n          0x00\n            /* \"#utility.yul\":3896:3899   */\n          dup2\n            /* \"#utility.yul\":3888:3899   */\n          swap1\n          pop\n            /* \"#utility.yul\":3919:3922   */\n          dup2\n            /* \"#utility.yul\":3916:3917   */\n          0x00\n            /* \"#utility.yul\":3909:3923   */\n          mstore\n            /* \"#utility.yul\":3953:3957   */\n          0x20\n            /* \"#utility.yul\":3950:3951   */\n          0x00\n            /* \"#utility.yul\":3940:3958   */\n          keccak256\n            /* \"#utility.yul\":3932:3958   */\n          swap1\n          pop\n            /* \"#utility.yul\":3824:3965   */\n          swap2\n          swap1\n          pop\n          jump\t// out\n            /* \"#utility.yul\":3971:4064   */\n        tag_26:\n            /* \"#utility.yul\":4008:4014   */\n          0x00\n            /* \"#utility.yul\":4055:4057   */\n          0x20\n            /* \"#utility.yul\":4050:4052   */\n          0x1f\n            /* \"#utility.yul\":4043:4048   */\n          dup4\n            /* \"#utility.yul\":4039:4053   */\n          add\n            /* \"#utility.yul\":4035:4058   */\n          div\n            /* \"#utility.yul\":4025:4058   */\n          swap1\n          pop\n            /* \"#utility.yul\":3971:4064   */\n          swap2\n          swap1\n          pop\n          jump\t// out\n            /* \"#utility.yul\":4070:4177   */\n        tag_27:\n            /* \"#utility.yul\":4114:4122   */\n          0x00\n            /* \"#utility.yul\":4164:4169   */\n          dup3\n            /* \"#utility.yul\":4158:4162   */\n          dup3\n            /* \"#utility.yul\":4154:4170   */\n          shl\n            /* \"#utility.yul\":4133:4170   */\n          swap1\n          pop\n            /* \"#utility.yul\":4070:4177   */\n          swap3\n          swap2\n          pop\n          pop\n          jump\t// out\n            /* \"#utility.yul\":4183:4576   */\n        tag_28:\n            /* \"#utility.yul\":4252:4258   */\n          0x00\n            /* \"#utility.yul\":4302:4303   */\n          0x08\n            /* \"#utility.yul\":4290:4300   */\n          dup4\n            /* \"#utility.yul\":4286:4304   */\n          mul\n            /* \"#utility.yul\":4325:4422   */\n          tag_90\n            /* \"#utility.yul\":4355:4421   */\n          0xffffffffffffffffffffffffffffffffffffffffffffffffffffffffffffffff\n            /* \"#utility.yul\":4344:4353   */\n          dup3\n            /* \"#utility.yul\":4325:4422   */\n          tag_27\n          jump\t// in\n        tag_90:\n            /* \"#utility.yul\":4443:4482   */\n          tag_91\n            /* \"#utility.yul\":4473:4481   */\n          dup7\n            /* \"#utility.yul\":4462:4471   */\n          dup4\n            /* \"#utility.yul\":4443:4482   */\n          tag_27\n          jump\t// in\n        tag_91:\n            /* \"#utility.yul\":4431:4482   */\n          swap6\n          pop\n            /* \"#utility.yul\":4515:4519   */\n          dup1\n            /* \"#utility.yul\":4511:4520   */\n          not\n            /* \"#utility.yul\":4504:4509   */\n          dup5\n            /* \"#utility.yul\":4500:4521   */\n          and\n            /* \"#utility.yul\":4491:4521   */\n          swap4\n          pop\n            /* \"#utility.yul\":4564:4568   */\n          dup1\n            /* \"#utility.yul\":4554:4562   */\n          dup7\n            /* \"#utility.yul\":4550:4569   */\n          and\n            /* \"#utility.yul\":4543:4548   */\n          dup5\n            /* \"#utility.yul\":4540:4570   */\n          or\n            /* \"#utility.yul\":4530:4570   */\n          swap3\n          pop\n            /* \"#utility.yul\":4259:4576   */\n          pop\n          pop\n            /* \"#utility.yul\":4183:4576   */\n          swap4\n          swap3\n          pop\n          pop\n          pop\n          jump\t// out\n            /* \"#utility.yul\":4582:4659   */\n        tag_29:\n            /* \"#utility.yul\":4619:4626   */\n          0x00\n            /* \"#utility.yul\":4648:4653   */\n          dup2\n            /* \"#utility.yul\":4637:4653   */\n          swap1\n          pop\n            /* \"#utility.yul\":4582:4659   */\n          swap2\n          swap1\n          pop\n          jump\t// out\n            /* \"#utility.yul\":4665:4725   */\n        tag_30:\n            /* \"#utility.yul\":4693:4696   */\n          0x00\n            /* \"#utility.yul\":4714:4719   */\n          dup2\n            /* \"#utility.yul\":4707:4719   */\n          swap1\n          pop\n            /* \"#utility.yul\":4665:4725   */\n          swap2\n          swap1\n          pop\n          jump\t// out\n            /* \"#utility.yul\":4731:4873   */\n        tag_31:\n            /* \"#utility.yul\":4781:4790   */\n          0x00\n            /* \"#utility.yul\":4814:4867   */\n          tag_95\n            /* \"#utility.yul\":4832:4866   */\n          tag_96\n            /* \"#utility.yul\":4841:4865   */\n          tag_97\n            /* \"#utility.yul\":4859:4864   */\n          dup5\n            /* \"#utility.yul\":4841:4865   */\n          tag_29\n          jump\t// in\n        tag_97:\n            /* \"#utility.yul\":4832:4866   */\n          tag_30\n          jump\t// in\n        tag_96:\n            /* \"#utility.yul\":4814:4867   */\n          tag_29\n          jump\t// in\n        tag_95:\n            /* \"#utility.yul\":4801:4867   */\n          swap1\n          pop\n            /* \"#utility.yul\":4731:4873   */\n          swap2\n          swap1\n          pop\n          jump\t// out\n            /* \"#utility.yul\":4879:4954   */\n        tag_32:\n            /* \"#utility.yul\":4922:4925   */\n          0x00\n            /* \"#utility.yul\":4943:4948   */\n          dup2\n            /* \"#utility.yul\":4936:4948   */\n          swap1\n          pop\n            /* \"#utility.yul\":4879:4954   */\n          swap2\n          swap1\n          pop\n          jump\t// out\n            /* \"#utility.yul\":4960:5229   */\n        tag_33:\n            /* \"#utility.yul\":5070:5109   */\n          tag_100\n            /* \"#utility.yul\":5101:5108   */\n          dup4\n            /* \"#utility.yul\":5070:5109   */\n          tag_31\n          jump\t// in\n        tag_100:\n            /* \"#utility.yul\":5131:5222   */\n          tag_101\n            /* \"#utility.yul\":5180:5221   */\n          tag_102\n            /* \"#utility.yul\":5204:5220   */\n          dup3\n            /* \"#utility.yul\":5180:5221   */\n          tag_32\n          jump\t// in\n        tag_102:\n            /* \"#utility.yul\":5172:5178   */\n          dup5\n            /* \"#utility.yul\":5165:5169   */\n          dup5\n            /* \"#utility.yul\":5159:5170   */\n          sload\n            /* \"#utility.yul\":5131:5222   */\n          tag_28\n          jump\t// in\n        tag_101:\n            /* \"#utility.yul\":5125:5129   */\n          dup3\n            /* \"#utility.yul\":5118:5223   */\n          sstore\n            /* \"#utility.yul\":5036:5229   */\n          pop\n            /* \"#utility.yul\":4960:5229   */\n          pop\n          pop\n          pop\n          jump\t// out\n            /* \"#utility.yul\":5235:5308   */\n        tag_34:\n            /* \"#utility.yul\":5280:5283   */\n          0x00\n            /* \"#utility.yul\":5235:5308   */\n          swap1\n          jump\t// out\n            /* \"#utility.yul\":5314:5503   */\n        tag_35:\n            /* \"#utility.yul\":5391:5423   */\n          tag_105\n          tag_34\n          jump\t// in\n        tag_105:\n            /* \"#utility.yul\":5432:5497   */\n          tag_106\n            /* \"#utility.yul\":5490:5496   */\n          dup2\n            /* \"#utility.yul\":5482:5488   */\n          dup5\n            /* \"#utility.yul\":5476:5480   */\n          dup5\n            /* \"#utility.yul\":5432:5497   */\n          tag_33\n          jump\t// in\n        tag_106:\n            /* \"#utility.yul\":5367:5503   */\n          pop\n            /* \"#utility.yul\":5314:5503   */\n          pop\n          pop\n          jump\t// out\n            /* \"#utility.yul\":5509:5695   */\n        tag_36:\n            /* \"#utility.yul\":5569:5689   */\n        tag_108:\n            /* \"#utility.yul\":5586:5589   */\n          dup2\n            /* \"#utility.yul\":5579:5584   */\n          dup2\n            /* \"#utility.yul\":5576:5590   */\n          lt\n            /* \"#utility.yul\":5569:5689   */\n          iszero\n          tag_110\n          jumpi\n            /* \"#utility.yul\":5640:5679   */\n          tag_111\n            /* \"#utility.yul\":5677:5678   */\n          0x00\n            /* \"#utility.yul\":5670:5675   */\n          dup3\n            /* \"#utility.yul\":5640:5679   */\n          tag_35\n          jump\t// in\n        tag_111:\n            /* \"#utility.yul\":5613:5614   */\n          0x01\n            /* \"#utility.yul\":5606:5611   */\n          dup2\n            /* \"#utility.yul\":5602:5615   */\n          add\n            /* \"#utility.yul\":5593:5615   */\n          swap1\n          pop\n            /* \"#utility.yul\":5569:5689   */\n          jump(tag_108)\n        tag_110:\n            /* \"#utility.yul\":5509:5695   */\n          pop\n          pop\n          jump\t// out\n            /* \"#utility.yul\":5701:6244   */\n        tag_37:\n            /* \"#utility.yul\":5802:5804   */\n          0x1f\n            /* \"#utility.yul\":5797:5800   */\n          dup3\n            /* \"#utility.yul\":5794:5805   */\n          gt\n            /* \"#utility.yul\":5791:6237   */\n          iszero\n          tag_113\n          jumpi\n            /* \"#utility.yul\":5836:5874   */\n          tag_114\n            /* \"#utility.yul\":5868:5873   */\n          dup2\n            /* \"#utility.yul\":5836:5874   */\n          tag_25\n          jump\t// in\n        tag_114:\n            /* \"#utility.yul\":5920:5949   */\n          tag_115\n            /* \"#utility.yul\":5938:5948   */\n          dup5\n            /* \"#utility.yul\":5920:5949   */\n          tag_26\n          jump\t// in\n        tag_115:\n            /* \"#utility.yul\":5910:5918   */\n          dup2\n            /* \"#utility.yul\":5906:5950   */\n          add\n            /* \"#utility.yul\":6103:6105   */\n          0x20\n            /* \"#utility.yul\":6091:6101   */\n          dup6\n            /* \"#utility.yul\":6088:6106   */\n          lt\n            /* \"#utility.yul\":6085:6134   */\n          iszero\n          tag_116\n          jumpi\n            /* \"#utility.yul\":6124:6132   */\n          dup2\n            /* \"#utility.yul\":6109:6132   */\n          swap1\n          pop\n            /* \"#utility.yul\":6085:6134   */\n        tag_116:\n            /* \"#utility.yul\":6147:6227   */\n          tag_117\n            /* \"#utility.yul\":6203:6225   */\n          tag_118\n            /* \"#utility.yul\":6221:6224   */\n          dup6\n            /* \"#utility.yul\":6203:6225   */\n          tag_26\n          jump\t// in\n        tag_118:\n            /* \"#utility.yul\":6193:6201   */\n          dup4\n            /* \"#utility.yul\":6189:6226   */\n          add\n            /* \"#utility.yul\":6176:6187   */\n          dup3\n            /* \"#utility.yul\":6147:6227   */\n          tag_36\n          jump\t// in\n        tag_117:\n            /* \"#utility.yul\":5806:6237   */\n          pop\n          pop\n            /* \"#utility.yul\":5791:6237   */\n        tag_113:\n            /* \"#utility.yul\":5701:6244   */\n          pop\n          pop\n          pop\n          jump\t// out\n            /* \"#utility.yul\":6250:6367   */\n        tag_38:\n            /* \"#utility.yul\":6304:6312   */\n          0x00\n            /* \"#utility.yul\":6354:6359   */\n          dup3\n            /* \"#utility.yul\":6348:6352   */\n          dup3\n            /* \"#utility.yul\":6344:6360   */\n          shr\n            /* \"#utility.yul\":6323:6360   */\n          swap1\n          pop\n            /* \"#utility.yul\":6250:6367   */\n          swap3\n          swap2\n          pop\n          pop\n          jump\t// out\n            /* \"#utility.yul\":6373:6542   */\n        tag_39:\n            /* \"#utility.yul\":6417:6423   */\n          0x00\n            /* \"#utility.yul\":6450:6501   */\n          tag_121\n            /* \"#utility.yul\":6498:6499   */\n          0x00\n            /* \"#utility.yul\":6494:6500   */\n          not\n            /* \"#utility.yul\":6486:6491   */\n          dup5\n            /* \"#utility.yul\":6483:6484   */\n          0x08\n            /* \"#utility.yul\":6479:6492   */\n          mul\n            /* \"#utility.yul\":6450:6501   */\n          tag_38\n          jump\t// in\n        tag_121:\n            /* \"#utility.yul\":6446:6502   */\n          not\n            /* \"#utility.yul\":6531:6535   */\n          dup1\n            /* \"#utility.yul\":6525:6529   */\n          dup4\n            /* \"#utility.yul\":6521:6536   */\n          and\n            /* \"#utility.yul\":6511:6536   */\n          swap2\n          pop\n            /* \"#utility.yul\":6424:6542   */\n          pop\n            /* \"#utility.yul\":6373:6542   */\n          swap3\n          swap2\n          pop\n          pop\n          jump\t// out\n            /* \"#utility.yul\":6547:6842   */\n        tag_40:\n            /* \"#utility.yul\":6623:6627   */\n          0x00\n            /* \"#utility.yul\":6769:6798   */\n          tag_123\n            /* \"#utility.yul\":6794:6797   */\n          dup4\n            /* \"#utility.yul\":6788:6792   */\n          dup4\n            /* \"#utility.yul\":6769:6798   */\n          tag_39\n          jump\t// in\n        tag_123:\n            /* \"#utility.yul\":6761:6798   */\n          swap2\n          pop\n            /* \"#utility.yul\":6831:6834   */\n          dup3\n            /* \"#utility.yul\":6828:6829   */\n          0x02\n            /* \"#utility.yul\":6824:6835   */\n          mul\n            /* \"#utility.yul\":6818:6822   */\n          dup3\n            /* \"#utility.yul\":6815:6836   */\n          or\n            /* \"#utility.yul\":6807:6836   */\n          swap1\n          pop\n            /* \"#utility.yul\":6547:6842   */\n          swap3\n          swap2\n          pop\n          pop\n          jump\t// out\n            /* \"#utility.yul\":6847:8242   */\n        tag_7:\n            /* \"#utility.yul\":6964:7001   */\n          tag_125\n            /* \"#utility.yul\":6997:7000   */\n          dup3\n            /* \"#utility.yul\":6964:7001   */\n          tag_22\n          jump\t// in\n        tag_125:\n            /* \"#utility.yul\":7066:7084   */\n          0xffffffffffffffff\n            /* \"#utility.yul\":7058:7064   */\n          dup2\n            /* \"#utility.yul\":7055:7085   */\n          gt\n            /* \"#utility.yul\":7052:7108   */\n          iszero\n          tag_126\n          jumpi\n            /* \"#utility.yul\":7088:7106   */\n          tag_127\n          tag_15\n          jump\t// in\n        tag_127:\n            /* \"#utility.yul\":7052:7108   */\n        tag_126:\n            /* \"#utility.yul\":7132:7170   */\n          tag_128\n            /* \"#utility.yul\":7164:7168   */\n          dup3\n            /* \"#utility.yul\":7158:7169   */\n          sload\n            /* \"#utility.yul\":7132:7170   */\n          tag_24\n          jump\t// in\n        tag_128:\n            /* \"#utility.yul\":7217:7284   */\n          tag_129\n            /* \"#utility.yul\":7277:7283   */\n          dup3\n            /* \"#utility.yul\":7269:7275   */\n          dup3\n            /* \"#utility.yul\":7263:7267   */\n          dup6\n            /* \"#utility.yul\":7217:7284   */\n          tag_37\n          jump\t// in\n        tag_129:\n            /* \"#utility.yul\":7311:7312   */\n          0x00\n            /* \"#utility.yul\":7335:7339   */\n          0x20\n            /* \"#utility.yul\":7322:7339   */\n          swap1\n          pop\n            /* \"#utility.yul\":7367:7369   */\n          0x1f\n            /* \"#utility.yul\":7359:7365   */\n          dup4\n            /* \"#utility.yul\":7356:7370   */\n          gt\n            /* \"#utility.yul\":7384:7385   */\n          0x01\n            /* \"#utility.yul\":7379:7997   */\n          dup2\n          eq\n          tag_131\n          jumpi\n            /* \"#utility.yul\":8041:8042   */\n          0x00\n            /* \"#utility.yul\":8058:8064   */\n          dup5\n            /* \"#utility.yul\":8055:8132   */\n          iszero\n          tag_132\n          jumpi\n            /* \"#utility.yul\":8107:8116   */\n          dup3\n            /* \"#utility.yul\":8102:8105   */\n          dup8\n            /* \"#utility.yul\":8098:8117   */\n          add\n            /* \"#utility.yul\":8092:8118   */\n          mload\n            /* \"#utility.yul\":8083:8118   */\n          swap1\n          pop\n            /* \"#utility.yul\":8055:8132   */\n        tag_132:\n            /* \"#utility.yul\":8158:8225   */\n          tag_133\n            /* \"#utility.yul\":8218:8224   */\n          dup6\n            /* \"#utility.yul\":8211:8216   */\n          dup3\n            /* \"#utility.yul\":8158:8225   */\n          tag_40\n          jump\t// in\n        tag_133:\n            /* \"#utility.yul\":8152:8156   */\n          dup7\n            /* \"#utility.yul\":8145:8226   */\n          sstore\n            /* \"#utility.yul\":8014:8236   */\n          pop\n            /* \"#utility.yul\":7349:8236   */\n          jump(tag_130)\n            /* \"#utility.yul\":7379:7997   */\n        tag_131:\n            /* \"#utility.yul\":7431:7435   */\n          0x1f\n            /* \"#utility.yul\":7427:7436   */\n          not\n            /* \"#utility.yul\":7419:7425   */\n          dup5\n            /* \"#utility.yul\":7415:7437   */\n          and\n            /* \"#utility.yul\":7465:7502   */\n          tag_134\n            /* \"#utility.yul\":7497:7501   */\n          dup7\n            /* \"#utility.yul\":7465:7502   */\n          tag_25\n          jump\t// in\n        tag_134:\n            /* \"#utility.yul\":7524:7525   */\n          0x00\n            /* \"#utility.yul\":7538:7746   */\n        tag_135:\n            /* \"#utility.yul\":7552:7559   */\n          dup3\n            /* \"#utility.yul\":7549:7550   */\n          dup2\n            /* \"#utility.yul\":7546:7560   */\n          lt\n            /* \"#utility.yul\":7538:7746   */\n          iszero\n          tag_137\n          jumpi\n            /* \"#utility.yul\":7631:7640   */\n          dup5\n            /* \"#utility.yul\":7626:7629   */\n          dup10\n            /* \"#utility.yul\":7622:7641   */\n          add\n            /* \"#utility.yul\":7616:7642   */\n          mload\n            /* \"#utility.yul\":7608:7614   */\n          dup3\n            /* \"#utility.yul\":7601:7643   */\n          sstore\n            /* \"#utility.yul\":7682:7683   */\n          0x01\n            /* \"#utility.yul\":7674:7680   */\n          dup3\n            /* \"#utility.yul\":7670:7684   */\n          add\n            /* \"#utility.yul\":7660:7684   */\n          swap2\n          pop\n            /* \"#utility.yul\":7729:7731   */\n          0x20\n            /* \"#utility.yul\":7718:7727   */\n          dup6\n            /* \"#utility.yul\":7714:7732   */\n          add\n            /* \"#utility.yul\":7701:7732   */\n          swap5\n          pop\n            /* \"#utility.yul\":7575:7579   */\n          0x20\n            /* \"#utility.yul\":7572:7573   */\n          dup2\n            /* \"#utility.yul\":7568:7580   */\n          add\n            /* \"#utility.yul\":7563:7580   */\n          swap1\n          pop\n            /* \"#utility.yul\":7538:7746   */\n          jump(tag_135)\n        tag_137:\n            /* \"#utility.yul\":7774:7780   */\n          dup7\n            /* \"#utility.yul\":7765:7772   */\n          dup4\n            /* \"#utility.yul\":7762:7781   */\n          lt\n            /* \"#utility.yul\":7759:7938   */\n          iszero\n          tag_138\n          jumpi\n            /* \"#utility.yul\":7832:7841   */\n          dup5\n            /* \"#utility.yul\":7827:7830   */\n          dup10\n            /* \"#utility.yul\":7823:7842   */\n          add\n            /* \"#utility.yul\":7817:7843   */\n          mload\n            /* \"#utility.yul\":7875:7923   */\n          tag_139\n            /* \"#utility.yul\":7917:7921   */\n          0x1f\n            /* \"#utility.yul\":7909:7915   */\n          dup10\n            /* \"#utility.yul\":7905:7922   */\n          and\n            /* \"#utility.yul\":7894:7903   */\n          dup3\n            /* \"#utility.yul\":7875:7923   */\n          tag_39\n          jump\t// in\n        tag_139:\n            /* \"#utility.yul\":7867:7873   */\n          dup4\n            /* \"#utility.yul\":7860:7924   */\n          sstore\n            /* \"#utility.yul\":7782:7938   */\n          pop\n            /* \"#utility.yul\":7759:7938   */\n        tag_138:\n            /* \"#utility.yul\":7984:7985   */\n          0x01\n            /* \"#utility.yul\":7980:7981   */\n          0x02\n            /* \"#utility.yul\":7972:7978   */\n          dup9\n            /* \"#utility.yul\":7968:7982   */\n          mul\n            /* \"#utility.yul\":7964:7986   */\n          add\n            /* \"#utility.yul\":7958:7962   */\n          dup9\n            /* \"#utility.yul\":7951:7987   */\n          sstore\n            /* \"#utility.yul\":7386:7997   */\n          pop\n          pop\n          pop\n            /* \"#utility.yul\":7349:8236   */\n        tag_130:\n          pop\n            /* \"#utility.yul\":6939:8242   */\n          pop\n          pop\n          pop\n            /* \"#utility.yul\":6847:8242   */\n          pop\n          pop\n          jump\t// out\n            /* \"remix-section-2/NamedStorage.sol\":439:1001  contract NamedVault is InitialVault{... */\n        tag_8:\n          dataSize(sub_0)\n          dup1\n          dataOffset(sub_0)\n          0x00\n          codecopy\n          0x00\n          return\n        stop\n\n        sub_0: assembly {\n                /* \"remix-section-2/NamedStorage.sol\":439:1001  contract NamedVault is InitialVault{... */\n              mstore(0x40, 0x80)\n              callvalue\n              dup1\n              iszero\n              tag_1\n              jumpi\n              0x00\n              dup1\n              revert\n            tag_1:\n              pop\n              jumpi(tag_2, lt(calldatasize, 0x04))\n              shr(0xe0, calldataload(0x00))\n              dup1\n              0x17d7de7c\n              eq\n              tag_3\n              jumpi\n              dup1\n              0x3fb5c1cb\n              eq\n              tag_4\n              jumpi\n              dup1\n              0xf2c9ecd8\n              eq\n              tag_5\n              jumpi\n            tag_2:\n              0x00\n              dup1\n              revert\n                /* \"remix-section-2/NamedStorage.sol\":917:999  function getName() public view returns (string memory){... */\n            tag_3:\n              tag_6\n              tag_7\n              jump\t// in\n            tag_6:\n              mload(0x40)\n              tag_8\n              swap2\n              swap1\n              tag_9\n              jump\t// in\n            tag_8:\n              mload(0x40)\n              dup1\n              swap2\n              sub\n              swap1\n              return\n                /* \"remix-section-2/NamedStorage.sol\":616:911  function setNumber(uint _number) public override {... */\n            tag_4:\n              tag_10\n              0x04\n              dup1\n              calldatasize\n              sub\n              dup2\n              add\n              swap1\n              tag_11\n              swap2\n              swap1\n              tag_12\n              jump\t// in\n            tag_11:\n              tag_13\n              jump\t// in\n            tag_10:\n              stop\n                /* \"remix-section-2/Storage.sol\":1334:1411  function getNumber() public view returns (uint){... */\n            tag_5:\n              tag_14\n              tag_15\n              jump\t// in\n            tag_14:\n              mload(0x40)\n              tag_16\n              swap2\n              swap1\n              tag_17\n              jump\t// in\n            tag_16:\n              mload(0x40)\n              dup1\n              swap2\n              sub\n              swap1\n              return\n                /* \"remix-section-2/NamedStorage.sol\":917:999  function getName() public view returns (string memory){... */\n            tag_7:\n                /* \"remix-section-2/NamedStorage.sol\":957:970  string memory */\n              0x60\n                /* \"remix-section-2/NamedStorage.sol\":988:992  name */\n              0x01\n                /* \"remix-section-2/NamedStorage.sol\":981:992  return name */\n              dup1\n              sload\n              tag_19\n              swap1\n              tag_20\n              jump\t// in\n            tag_19:\n              dup1\n              0x1f\n              add\n              0x20\n              dup1\n              swap2\n              div\n              mul\n              0x20\n              add\n              mload(0x40)\n              swap1\n              dup2\n              add\n              0x40\n              mstore\n              dup1\n              swap3\n              swap2\n              swap1\n              dup2\n              dup2\n              mstore\n              0x20\n              add\n              dup3\n              dup1\n              sload\n              tag_21\n              swap1\n              tag_20\n              jump\t// in\n            tag_21:\n              dup1\n              iszero\n              tag_22\n              jumpi\n              dup1\n              0x1f\n              lt\n              tag_23\n              jumpi\n              0x0100\n              dup1\n              dup4\n              sload\n              div\n              mul\n              dup4\n              mstore\n              swap2\n              0x20\n              add\n              swap2\n              jump(tag_22)\n            tag_23:\n              dup3\n              add\n              swap2\n              swap1\n              0x00\n              mstore\n              keccak256(0x00, 0x20)\n              swap1\n            tag_24:\n              dup2\n              sload\n              dup2\n              mstore\n              swap1\n              0x01\n              add\n              swap1\n              0x20\n              add\n              dup1\n              dup4\n              gt\n              tag_24\n              jumpi\n              dup3\n              swap1\n              sub\n              0x1f\n              and\n              dup3\n              add\n              swap2\n            tag_22:\n              pop\n              pop\n              pop\n              pop\n              pop\n              swap1\n              pop\n                /* \"remix-section-2/NamedStorage.sol\":917:999  function getName() public view returns (string memory){... */\n              swap1\n              jump\t// out\n                /* \"remix-section-2/NamedStorage.sol\":616:911  function setNumber(uint _number) public override {... */\n            tag_13:\n                /* \"remix-section-2/NamedStorage.sol\":697:704  creator */\n              0x02\n              0x00\n              swap1\n              sload\n              swap1\n              0x0100\n              exp\n              swap1\n              div\n              0xffffffffffffffffffffffffffffffffffffffff\n              and\n                /* \"remix-section-2/NamedStorage.sol\":683:704  msg.sender == creator */\n              0xffffffffffffffffffffffffffffffffffffffff\n              and\n                /* \"remix-section-2/NamedStorage.sol\":683:693  msg.sender */\n              caller\n                /* \"remix-section-2/NamedStorage.sol\":683:704  msg.sender == creator */\n              0xffffffffffffffffffffffffffffffffffffffff\n              and\n              eq\n                /* \"remix-section-2/NamedStorage.sol\":675:705  require(msg.sender == creator) */\n              tag_26\n              jumpi\n              0x00\n              dup1\n              revert\n            tag_26:\n                /* \"remix-section-2/NamedStorage.sol\":743:747  1000 */\n              0x03e8\n                /* \"remix-section-2/NamedStorage.sol\":723:727  this */\n              address\n                /* \"remix-section-2/NamedStorage.sol\":723:737  this.getNumber */\n              0xffffffffffffffffffffffffffffffffffffffff\n              and\n              0xf2c9ecd8\n                /* \"remix-section-2/NamedStorage.sol\":723:739  this.getNumber() */\n              mload(0x40)\n              dup2\n              0xffffffff\n              and\n              0xe0\n              shl\n              dup2\n              mstore\n              0x04\n              add\n              0x20\n              mload(0x40)\n              dup1\n              dup4\n              sub\n              dup2\n              dup7\n              gas\n              staticcall\n              iszero\n              dup1\n              iszero\n              tag_28\n              jumpi\n              returndatasize\n              0x00\n              dup1\n              returndatacopy\n              revert(0x00, returndatasize)\n            tag_28:\n              pop\n              pop\n              pop\n              pop\n              mload(0x40)\n              returndatasize\n              not(0x1f)\n              0x1f\n              dup3\n              add\n              and\n              dup3\n              add\n              dup1\n              0x40\n              mstore\n              pop\n              dup2\n              add\n              swap1\n              tag_29\n              swap2\n              swap1\n              tag_30\n              jump\t// in\n            tag_29:\n                /* \"remix-section-2/NamedStorage.sol\":723:747  this.getNumber() <= 1000 */\n              gt\n              iszero\n                /* \"remix-section-2/NamedStorage.sol\":715:748  require(this.getNumber() <= 1000) */\n              tag_31\n              jumpi\n              0x00\n              dup1\n              revert\n            tag_31:\n                /* \"remix-section-2/NamedStorage.sol\":897:904  _number */\n              dup1\n                /* \"remix-section-2/NamedStorage.sol\":888:894  number */\n              0x00\n                /* \"remix-section-2/NamedStorage.sol\":888:904  number = _number */\n              dup2\n              swap1\n              sstore\n              pop\n                /* \"remix-section-2/NamedStorage.sol\":616:911  function setNumber(uint _number) public override {... */\n              pop\n              jump\t// out\n                /* \"remix-section-2/Storage.sol\":1334:1411  function getNumber() public view returns (uint){... */\n            tag_15:\n                /* \"remix-section-2/Storage.sol\":1376:1380  uint */\n              0x00\n                /* \"remix-section-2/Storage.sol\":1398:1404  number */\n              dup1\n              sload\n                /* \"remix-section-2/Storage.sol\":1391:1404  return number */\n              swap1\n              pop\n                /* \"remix-section-2/Storage.sol\":1334:1411  function getNumber() public view returns (uint){... */\n              swap1\n              jump\t// out\n                /* \"#utility.yul\":7:106   */\n            tag_33:\n                /* \"#utility.yul\":59:65   */\n              0x00\n                /* \"#utility.yul\":93:98   */\n              dup2\n                /* \"#utility.yul\":87:99   */\n              mload\n                /* \"#utility.yul\":77:99   */\n              swap1\n              pop\n                /* \"#utility.yul\":7:106   */\n              swap2\n              swap1\n              pop\n              jump\t// out\n                /* \"#utility.yul\":112:281   */\n            tag_34:\n                /* \"#utility.yul\":196:207   */\n              0x00\n                /* \"#utility.yul\":230:236   */\n              dup3\n                /* \"#utility.yul\":225:228   */\n              dup3\n                /* \"#utility.yul\":218:237   */\n              mstore\n                /* \"#utility.yul\":270:274   */\n              0x20\n                /* \"#utility.yul\":265:268   */\n              dup3\n                /* \"#utility.yul\":261:275   */\n              add\n                /* \"#utility.yul\":246:275   */\n              swap1\n              pop\n                /* \"#utility.yul\":112:281   */\n              swap3\n              swap2\n              pop\n              pop\n              jump\t// out\n                /* \"#utility.yul\":287:533   */\n            tag_35:\n                /* \"#utility.yul\":368:369   */\n              0x00\n                /* \"#utility.yul\":378:491   */\n            tag_51:\n                /* \"#utility.yul\":392:398   */\n              dup4\n                /* \"#utility.yul\":389:390   */\n              dup2\n                /* \"#utility.yul\":386:399   */\n              lt\n                /* \"#utility.yul\":378:491   */\n              iszero\n              tag_53\n              jumpi\n                /* \"#utility.yul\":477:478   */\n              dup1\n                /* \"#utility.yul\":472:475   */\n              dup3\n                /* \"#utility.yul\":468:479   */\n              add\n                /* \"#utility.yul\":462:480   */\n              mload\n                /* \"#utility.yul\":458:459   */\n              dup2\n                /* \"#utility.yul\":453:456   */\n              dup5\n                /* \"#utility.yul\":449:460   */\n              add\n                /* \"#utility.yul\":442:481   */\n              mstore\n                /* \"#utility.yul\":414:416   */\n              0x20\n                /* \"#utility.yul\":411:412   */\n              dup2\n                /* \"#utility.yul\":407:417   */\n              add\n                /* \"#utility.yul\":402:417   */\n              swap1\n              pop\n                /* \"#utility.yul\":378:491   */\n              jump(tag_51)\n            tag_53:\n                /* \"#utility.yul\":525:526   */\n              0x00\n                /* \"#utility.yul\":516:522   */\n              dup5\n                /* \"#utility.yul\":511:514   */\n              dup5\n                /* \"#utility.yul\":507:523   */\n              add\n                /* \"#utility.yul\":500:527   */\n              mstore\n                /* \"#utility.yul\":349:533   */\n              pop\n                /* \"#utility.yul\":287:533   */\n              pop\n              pop\n              pop\n              jump\t// out\n                /* \"#utility.yul\":539:641   */\n            tag_36:\n                /* \"#utility.yul\":580:586   */\n              0x00\n                /* \"#utility.yul\":631:633   */\n              0x1f\n                /* \"#utility.yul\":627:634   */\n              not\n                /* \"#utility.yul\":622:624   */\n              0x1f\n                /* \"#utility.yul\":615:620   */\n              dup4\n                /* \"#utility.yul\":611:625   */\n              add\n                /* \"#utility.yul\":607:635   */\n              and\n                /* \"#utility.yul\":597:635   */\n              swap1\n              pop\n                /* \"#utility.yul\":539:641   */\n              swap2\n              swap1\n              pop\n              jump\t// out\n                /* \"#utility.yul\":647:1024   */\n            tag_37:\n                /* \"#utility.yul\":735:738   */\n              0x00\n                /* \"#utility.yul\":763:802   */\n              tag_56\n                /* \"#utility.yul\":796:801   */\n              dup3\n                /* \"#utility.yul\":763:802   */\n              tag_33\n              jump\t// in\n            tag_56:\n                /* \"#utility.yul\":818:889   */\n              tag_57\n                /* \"#utility.yul\":882:888   */\n              dup2\n                /* \"#utility.yul\":877:880   */\n              dup6\n                /* \"#utility.yul\":818:889   */\n              tag_34\n              jump\t// in\n            tag_57:\n                /* \"#utility.yul\":811:889   */\n              swap4\n              pop\n                /* \"#utility.yul\":898:963   */\n              tag_58\n                /* \"#utility.yul\":956:962   */\n              dup2\n                /* \"#utility.yul\":951:954   */\n              dup6\n                /* \"#utility.yul\":944:948   */\n              0x20\n                /* \"#utility.yul\":937:942   */\n              dup7\n                /* \"#utility.yul\":933:949   */\n              add\n                /* \"#utility.yul\":898:963   */\n              tag_35\n              jump\t// in\n            tag_58:\n                /* \"#utility.yul\":988:1017   */\n              tag_59\n                /* \"#utility.yul\":1010:1016   */\n              dup2\n                /* \"#utility.yul\":988:1017   */\n              tag_36\n              jump\t// in\n            tag_59:\n                /* \"#utility.yul\":983:986   */\n              dup5\n                /* \"#utility.yul\":979:1018   */\n              add\n                /* \"#utility.yul\":972:1018   */\n              swap2\n              pop\n                /* \"#utility.yul\":739:1024   */\n              pop\n                /* \"#utility.yul\":647:1024   */\n              swap3\n              swap2\n              pop\n              pop\n              jump\t// out\n                /* \"#utility.yul\":1030:1343   */\n            tag_9:\n                /* \"#utility.yul\":1143:1147   */\n              0x00\n                /* \"#utility.yul\":1181:1183   */\n              0x20\n                /* \"#utility.yul\":1170:1179   */\n              dup3\n                /* \"#utility.yul\":1166:1184   */\n              add\n                /* \"#utility.yul\":1158:1184   */\n              swap1\n              pop\n                /* \"#utility.yul\":1230:1239   */\n              dup2\n                /* \"#utility.yul\":1224:1228   */\n              dup2\n                /* \"#utility.yul\":1220:1240   */\n              sub\n                /* \"#utility.yul\":1216:1217   */\n              0x00\n                /* \"#utility.yul\":1205:1214   */\n              dup4\n                /* \"#utility.yul\":1201:1218   */\n              add\n                /* \"#utility.yul\":1194:1241   */\n              mstore\n                /* \"#utility.yul\":1258:1336   */\n              tag_61\n                /* \"#utility.yul\":1331:1335   */\n              dup2\n                /* \"#utility.yul\":1322:1328   */\n              dup5\n                /* \"#utility.yul\":1258:1336   */\n              tag_37\n              jump\t// in\n            tag_61:\n                /* \"#utility.yul\":1250:1336   */\n              swap1\n              pop\n                /* \"#utility.yul\":1030:1343   */\n              swap3\n              swap2\n              pop\n              pop\n              jump\t// out\n                /* \"#utility.yul\":1430:1547   */\n            tag_39:\n                /* \"#utility.yul\":1539:1540   */\n              0x00\n                /* \"#utility.yul\":1536:1537   */\n              dup1\n                /* \"#utility.yul\":1529:1541   */\n              revert\n                /* \"#utility.yul\":1676:1753   */\n            tag_41:\n                /* \"#utility.yul\":1713:1720   */\n              0x00\n                /* \"#utility.yul\":1742:1747   */\n              dup2\n                /* \"#utility.yul\":1731:1747   */\n              swap1\n              pop\n                /* \"#utility.yul\":1676:1753   */\n              swap2\n              swap1\n              pop\n              jump\t// out\n                /* \"#utility.yul\":1759:1881   */\n            tag_42:\n                /* \"#utility.yul\":1832:1856   */\n              tag_67\n                /* \"#utility.yul\":1850:1855   */\n              dup2\n                /* \"#utility.yul\":1832:1856   */\n              tag_41\n              jump\t// in\n            tag_67:\n                /* \"#utility.yul\":1825:1830   */\n              dup2\n                /* \"#utility.yul\":1822:1857   */\n              eq\n                /* \"#utility.yul\":1812:1875   */\n              tag_68\n              jumpi\n                /* \"#utility.yul\":1871:1872   */\n              0x00\n                /* \"#utility.yul\":1868:1869   */\n              dup1\n                /* \"#utility.yul\":1861:1873   */\n              revert\n                /* \"#utility.yul\":1812:1875   */\n            tag_68:\n                /* \"#utility.yul\":1759:1881   */\n              pop\n              jump\t// out\n                /* \"#utility.yul\":1887:2026   */\n            tag_43:\n                /* \"#utility.yul\":1933:1938   */\n              0x00\n                /* \"#utility.yul\":1971:1977   */\n              dup2\n                /* \"#utility.yul\":1958:1978   */\n              calldataload\n                /* \"#utility.yul\":1949:1978   */\n              swap1\n              pop\n                /* \"#utility.yul\":1987:2020   */\n              tag_70\n                /* \"#utility.yul\":2014:2019   */\n              dup2\n                /* \"#utility.yul\":1987:2020   */\n              tag_42\n              jump\t// in\n            tag_70:\n                /* \"#utility.yul\":1887:2026   */\n              swap3\n              swap2\n              pop\n              pop\n              jump\t// out\n                /* \"#utility.yul\":2032:2361   */\n            tag_12:\n                /* \"#utility.yul\":2091:2097   */\n              0x00\n                /* \"#utility.yul\":2140:2142   */\n              0x20\n                /* \"#utility.yul\":2128:2137   */\n              dup3\n                /* \"#utility.yul\":2119:2126   */\n              dup5\n                /* \"#utility.yul\":2115:2138   */\n              sub\n                /* \"#utility.yul\":2111:2143   */\n              slt\n                /* \"#utility.yul\":2108:2227   */\n              iszero\n              tag_72\n              jumpi\n                /* \"#utility.yul\":2146:2225   */\n              tag_73\n              tag_39\n              jump\t// in\n            tag_73:\n                /* \"#utility.yul\":2108:2227   */\n            tag_72:\n                /* \"#utility.yul\":2266:2267   */\n              0x00\n                /* \"#utility.yul\":2291:2344   */\n              tag_74\n                /* \"#utility.yul\":2336:2343   */\n              dup5\n                /* \"#utility.yul\":2327:2333   */\n              dup3\n                /* \"#utility.yul\":2316:2325   */\n              dup6\n                /* \"#utility.yul\":2312:2334   */\n              add\n                /* \"#utility.yul\":2291:2344   */\n              tag_43\n              jump\t// in\n            tag_74:\n                /* \"#utility.yul\":2281:2344   */\n              swap2\n              pop\n                /* \"#utility.yul\":2237:2354   */\n              pop\n                /* \"#utility.yul\":2032:2361   */\n              swap3\n              swap2\n              pop\n              pop\n              jump\t// out\n                /* \"#utility.yul\":2367:2485   */\n            tag_44:\n                /* \"#utility.yul\":2454:2478   */\n              tag_76\n                /* \"#utility.yul\":2472:2477   */\n              dup2\n                /* \"#utility.yul\":2454:2478   */\n              tag_41\n              jump\t// in\n            tag_76:\n                /* \"#utility.yul\":2449:2452   */\n              dup3\n                /* \"#utility.yul\":2442:2479   */\n              mstore\n                /* \"#utility.yul\":2367:2485   */\n              pop\n              pop\n              jump\t// out\n                /* \"#utility.yul\":2491:2713   */\n            tag_17:\n                /* \"#utility.yul\":2584:2588   */\n              0x00\n                /* \"#utility.yul\":2622:2624   */\n              0x20\n                /* \"#utility.yul\":2611:2620   */\n              dup3\n                /* \"#utility.yul\":2607:2625   */\n              add\n                /* \"#utility.yul\":2599:2625   */\n              swap1\n              pop\n                /* \"#utility.yul\":2635:2706   */\n              tag_78\n                /* \"#utility.yul\":2703:2704   */\n              0x00\n                /* \"#utility.yul\":2692:2701   */\n              dup4\n                /* \"#utility.yul\":2688:2705   */\n              add\n                /* \"#utility.yul\":2679:2685   */\n              dup5\n                /* \"#utility.yul\":2635:2706   */\n              tag_44\n              jump\t// in\n            tag_78:\n                /* \"#utility.yul\":2491:2713   */\n              swap3\n              swap2\n              pop\n              pop\n              jump\t// out\n                /* \"#utility.yul\":2719:2899   */\n            tag_45:\n                /* \"#utility.yul\":2767:2844   */\n              0x4e487b7100000000000000000000000000000000000000000000000000000000\n                /* \"#utility.yul\":2764:2765   */\n              0x00\n                /* \"#utility.yul\":2757:2845   */\n              mstore\n                /* \"#utility.yul\":2864:2868   */\n              0x22\n                /* \"#utility.yul\":2861:2862   */\n              0x04\n                /* \"#utility.yul\":2854:2869   */\n              mstore\n                /* \"#utility.yul\":2888:2892   */\n              0x24\n                /* \"#utility.yul\":2885:2886   */\n              0x00\n                /* \"#utility.yul\":2878:2893   */\n              revert\n                /* \"#utility.yul\":2905:3225   */\n            tag_20:\n                /* \"#utility.yul\":2949:2955   */\n              0x00\n                /* \"#utility.yul\":2986:2987   */\n              0x02\n                /* \"#utility.yul\":2980:2984   */\n              dup3\n                /* \"#utility.yul\":2976:2988   */\n              div\n                /* \"#utility.yul\":2966:2988   */\n              swap1\n              pop\n                /* \"#utility.yul\":3033:3034   */\n              0x01\n                /* \"#utility.yul\":3027:3031   */\n              dup3\n                /* \"#utility.yul\":3023:3035   */\n              and\n                /* \"#utility.yul\":3054:3072   */\n              dup1\n                /* \"#utility.yul\":3044:3125   */\n              tag_81\n              jumpi\n                /* \"#utility.yul\":3110:3114   */\n              0x7f\n                /* \"#utility.yul\":3102:3108   */\n              dup3\n                /* \"#utility.yul\":3098:3115   */\n              and\n                /* \"#utility.yul\":3088:3115   */\n              swap2\n              pop\n                /* \"#utility.yul\":3044:3125   */\n            tag_81:\n                /* \"#utility.yul\":3172:3174   */\n              0x20\n                /* \"#utility.yul\":3164:3170   */\n              dup3\n                /* \"#utility.yul\":3161:3175   */\n              lt\n                /* \"#utility.yul\":3141:3159   */\n              dup2\n                /* \"#utility.yul\":3138:3176   */\n              sub\n                /* \"#utility.yul\":3135:3219   */\n              tag_82\n              jumpi\n                /* \"#utility.yul\":3191:3209   */\n              tag_83\n              tag_45\n              jump\t// in\n            tag_83:\n                /* \"#utility.yul\":3135:3219   */\n            tag_82:\n                /* \"#utility.yul\":2956:3225   */\n              pop\n                /* \"#utility.yul\":2905:3225   */\n              swap2\n              swap1\n              pop\n              jump\t// out\n                /* \"#utility.yul\":3231:3374   */\n            tag_46:\n                /* \"#utility.yul\":3288:3293   */\n              0x00\n                /* \"#utility.yul\":3319:3325   */\n              dup2\n                /* \"#utility.yul\":3313:3326   */\n              mload\n                /* \"#utility.yul\":3304:3326   */\n              swap1\n              pop\n                /* \"#utility.yul\":3335:3368   */\n              tag_85\n                /* \"#utility.yul\":3362:3367   */\n              dup2\n                /* \"#utility.yul\":3335:3368   */\n              tag_42\n              jump\t// in\n            tag_85:\n                /* \"#utility.yul\":3231:3374   */\n              swap3\n              swap2\n              pop\n              pop\n              jump\t// out\n                /* \"#utility.yul\":3380:3731   */\n            tag_30:\n                /* \"#utility.yul\":3450:3456   */\n              0x00\n                /* \"#utility.yul\":3499:3501   */\n              0x20\n                /* \"#utility.yul\":3487:3496   */\n              dup3\n                /* \"#utility.yul\":3478:3485   */\n              dup5\n                /* \"#utility.yul\":3474:3497   */\n              sub\n                /* \"#utility.yul\":3470:3502   */\n              slt\n                /* \"#utility.yul\":3467:3586   */\n              iszero\n              tag_87\n              jumpi\n                /* \"#utility.yul\":3505:3584   */\n              tag_88\n              tag_39\n              jump\t// in\n            tag_88:\n                /* \"#utility.yul\":3467:3586   */\n            tag_87:\n                /* \"#utility.yul\":3625:3626   */\n              0x00\n                /* \"#utility.yul\":3650:3714   */\n              tag_89\n                /* \"#utility.yul\":3706:3713   */\n              dup5\n                /* \"#utility.yul\":3697:3703   */\n              dup3\n                /* \"#utility.yul\":3686:3695   */\n              dup6\n                /* \"#utility.yul\":3682:3704   */\n              add\n                /* \"#utility.yul\":3650:3714   */\n              tag_46\n              jump\t// in\n            tag_89:\n                /* \"#utility.yul\":3640:3714   */\n              swap2\n              pop\n                /* \"#utility.yul\":3596:3724   */\n              pop\n                /* \"#utility.yul\":3380:3731   */\n              swap3\n              swap2\n              pop\n              pop\n              jump\t// out\n\n            auxdata: 0xa2646970667358221220b31f7a97d428a9ed463a4e41bb736642171902b2a3275794c7a8e9b48e8f250464736f6c63430008120033\n        }\n    }\n\n    sub_1: assembly {\n            /* \"remix-section-2/SuperStorage.sol\":102:320  contract SuperVault is InitialVault {... */\n          mstore(0x40, 0x80)\n            /* \"remix-section-2/SuperStorage.sol\":145:171  string name = \"supervault\" */\n          mload(0x40)\n          dup1\n          0x40\n          add\n          0x40\n          mstore\n          dup1\n          0x0a\n          dup2\n          mstore\n          0x20\n          add\n          0x73757065727661756c7400000000000000000000000000000000000000000000\n          dup2\n          mstore\n          pop\n          0x01\n          swap1\n          dup2\n          tag_1\n          swap2\n          swap1\n          tag_2\n          jump\t// in\n        tag_1:\n          pop\n            /* \"remix-section-2/SuperStorage.sol\":102:320  contract SuperVault is InitialVault {... */\n          callvalue\n          dup1\n          iszero\n          tag_3\n          jumpi\n          0x00\n          dup1\n          revert\n        tag_3:\n          pop\n          jump(tag_4)\n            /* \"#utility.yul\":7:106   */\n        tag_5:\n            /* \"#utility.yul\":59:65   */\n          0x00\n            /* \"#utility.yul\":93:98   */\n          dup2\n            /* \"#utility.yul\":87:99   */\n          mload\n            /* \"#utility.yul\":77:99   */\n          swap1\n          pop\n            /* \"#utility.yul\":7:106   */\n          swap2\n          swap1\n          pop\n          jump\t// out\n            /* \"#utility.yul\":112:292   */\n        tag_6:\n            /* \"#utility.yul\":160:237   */\n          0x4e487b7100000000000000000000000000000000000000000000000000000000\n            /* \"#utility.yul\":157:158   */\n          0x00\n            /* \"#utility.yul\":150:238   */\n          mstore\n            /* \"#utility.yul\":257:261   */\n          0x41\n            /* \"#utility.yul\":254:255   */\n          0x04\n            /* \"#utility.yul\":247:262   */\n          mstore\n            /* \"#utility.yul\":281:285   */\n          0x24\n            /* \"#utility.yul\":278:279   */\n          0x00\n            /* \"#utility.yul\":271:286   */\n          revert\n            /* \"#utility.yul\":298:478   */\n        tag_7:\n            /* \"#utility.yul\":346:423   */\n          0x4e487b7100000000000000000000000000000000000000000000000000000000\n            /* \"#utility.yul\":343:344   */\n          0x00\n            /* \"#utility.yul\":336:424   */\n          mstore\n            /* \"#utility.yul\":443:447   */\n          0x22\n            /* \"#utility.yul\":440:441   */\n          0x04\n            /* \"#utility.yul\":433:448   */\n          mstore\n            /* \"#utility.yul\":467:471   */\n          0x24\n            /* \"#utility.yul\":464:465   */\n          0x00\n            /* \"#utility.yul\":457:472   */\n          revert\n            /* \"#utility.yul\":484:804   */\n        tag_8:\n            /* \"#utility.yul\":528:534   */\n          0x00\n            /* \"#utility.yul\":565:566   */\n          0x02\n            /* \"#utility.yul\":559:563   */\n          dup3\n            /* \"#utility.yul\":555:567   */\n          div\n            /* \"#utility.yul\":545:567   */\n          swap1\n          pop\n            /* \"#utility.yul\":612:613   */\n          0x01\n            /* \"#utility.yul\":606:610   */\n          dup3\n            /* \"#utility.yul\":602:614   */\n          and\n            /* \"#utility.yul\":633:651   */\n          dup1\n            /* \"#utility.yul\":623:704   */\n          tag_30\n          jumpi\n            /* \"#utility.yul\":689:693   */\n          0x7f\n            /* \"#utility.yul\":681:687   */\n          dup3\n            /* \"#utility.yul\":677:694   */\n          and\n            /* \"#utility.yul\":667:694   */\n          swap2\n          pop\n            /* \"#utility.yul\":623:704   */\n        tag_30:\n            /* \"#utility.yul\":751:753   */\n          0x20\n            /* \"#utility.yul\":743:749   */\n          dup3\n            /* \"#utility.yul\":740:754   */\n          lt\n            /* \"#utility.yul\":720:738   */\n          dup2\n            /* \"#utility.yul\":717:755   */\n          sub\n            /* \"#utility.yul\":714:798   */\n          tag_31\n          jumpi\n            /* \"#utility.yul\":770:788   */\n          tag_32\n          tag_7\n          jump\t// in\n        tag_32:\n            /* \"#utility.yul\":714:798   */\n        tag_31:\n            /* \"#utility.yul\":535:804   */\n          pop\n            /* \"#utility.yul\":484:804   */\n          swap2\n          swap1\n          pop\n          jump\t// out\n            /* \"#utility.yul\":810:951   */\n        tag_9:\n            /* \"#utility.yul\":859:863   */\n          0x00\n            /* \"#utility.yul\":882:885   */\n          dup2\n            /* \"#utility.yul\":874:885   */\n          swap1\n          pop\n            /* \"#utility.yul\":905:908   */\n          dup2\n            /* \"#utility.yul\":902:903   */\n          0x00\n            /* \"#utility.yul\":895:909   */\n          mstore\n            /* \"#utility.yul\":939:943   */\n          0x20\n            /* \"#utility.yul\":936:937   */\n          0x00\n            /* \"#utility.yul\":926:944   */\n          keccak256\n            /* \"#utility.yul\":918:944   */\n          swap1\n          pop\n            /* \"#utility.yul\":810:951   */\n          swap2\n          swap1\n          pop\n          jump\t// out\n            /* \"#utility.yul\":957:1050   */\n        tag_10:\n            /* \"#utility.yul\":994:1000   */\n          0x00\n            /* \"#utility.yul\":1041:1043   */\n          0x20\n            /* \"#utility.yul\":1036:1038   */\n          0x1f\n            /* \"#utility.yul\":1029:1034   */\n          dup4\n            /* \"#utility.yul\":1025:1039   */\n          add\n            /* \"#utility.yul\":1021:1044   */\n          div\n            /* \"#utility.yul\":1011:1044   */\n          swap1\n          pop\n            /* \"#utility.yul\":957:1050   */\n          swap2\n          swap1\n          pop\n          jump\t// out\n            /* \"#utility.yul\":1056:1163   */\n        tag_11:\n            /* \"#utility.yul\":1100:1108   */\n          0x00\n            /* \"#utility.yul\":1150:1155   */\n          dup3\n            /* \"#utility.yul\":1144:1148   */\n          dup3\n            /* \"#utility.yul\":1140:1156   */\n          shl\n            /* \"#utility.yul\":1119:1156   */\n          swap1\n          pop\n            /* \"#utility.yul\":1056:1163   */\n          swap3\n          swap2\n          pop\n          pop\n          jump\t// out\n            /* \"#utility.yul\":1169:1562   */\n        tag_12:\n            /* \"#utility.yul\":1238:1244   */\n          0x00\n            /* \"#utility.yul\":1288:1289   */\n          0x08\n            /* \"#utility.yul\":1276:1286   */\n          dup4\n            /* \"#utility.yul\":1272:1290   */\n          mul\n            /* \"#utility.yul\":1311:1408   */\n          tag_37\n            /* \"#utility.yul\":1341:1407   */\n          0xffffffffffffffffffffffffffffffffffffffffffffffffffffffffffffffff\n            /* \"#utility.yul\":1330:1339   */\n          dup3\n            /* \"#utility.yul\":1311:1408   */\n          tag_11\n          jump\t// in\n        tag_37:\n            /* \"#utility.yul\":1429:1468   */\n          tag_38\n            /* \"#utility.yul\":1459:1467   */\n          dup7\n            /* \"#utility.yul\":1448:1457   */\n          dup4\n            /* \"#utility.yul\":1429:1468   */\n          tag_11\n          jump\t// in\n        tag_38:\n            /* \"#utility.yul\":1417:1468   */\n          swap6\n          pop\n            /* \"#utility.yul\":1501:1505   */\n          dup1\n            /* \"#utility.yul\":1497:1506   */\n          not\n            /* \"#utility.yul\":1490:1495   */\n          dup5\n            /* \"#utility.yul\":1486:1507   */\n          and\n            /* \"#utility.yul\":1477:1507   */\n          swap4\n          pop\n            /* \"#utility.yul\":1550:1554   */\n          dup1\n            /* \"#utility.yul\":1540:1548   */\n          dup7\n            /* \"#utility.yul\":1536:1555   */\n          and\n            /* \"#utility.yul\":1529:1534   */\n          dup5\n            /* \"#utility.yul\":1526:1556   */\n          or\n            /* \"#utility.yul\":1516:1556   */\n          swap3\n          pop\n            /* \"#utility.yul\":1245:1562   */\n          pop\n          pop\n            /* \"#utility.yul\":1169:1562   */\n          swap4\n          swap3\n          pop\n          pop\n          pop\n          jump\t// out\n            /* \"#utility.yul\":1568:1645   */\n        tag_13:\n            /* \"#utility.yul\":1605:1612   */\n          0x00\n            /* \"#utility.yul\":1634:1639   */\n          dup2\n            /* \"#utility.yul\":1623:1639   */\n          swap1\n          pop\n            /* \"#utility.yul\":1568:1645   */\n          swap2\n          swap1\n          pop\n          jump\t// out\n            /* \"#utility.yul\":1651:1711   */\n        tag_14:\n            /* \"#utility.yul\":1679:1682   */\n          0x00\n            /* \"#utility.yul\":1700:1705   */\n          dup2\n            /* \"#utility.yul\":1693:1705   */\n          swap1\n          pop\n            /* \"#utility.yul\":1651:1711   */\n          swap2\n          swap1\n          pop\n          jump\t// out\n            /* \"#utility.yul\":1717:1859   */\n        tag_15:\n            /* \"#utility.yul\":1767:1776   */\n          0x00\n            /* \"#utility.yul\":1800:1853   */\n          tag_42\n            /* \"#utility.yul\":1818:1852   */\n          tag_43\n            /* \"#utility.yul\":1827:1851   */\n          tag_44\n            /* \"#utility.yul\":1845:1850   */\n          dup5\n            /* \"#utility.yul\":1827:1851   */\n          tag_13\n          jump\t// in\n        tag_44:\n            /* \"#utility.yul\":1818:1852   */\n          tag_14\n          jump\t// in\n        tag_43:\n            /* \"#utility.yul\":1800:1853   */\n          tag_13\n          jump\t// in\n        tag_42:\n            /* \"#utility.yul\":1787:1853   */\n          swap1\n          pop\n            /* \"#utility.yul\":1717:1859   */\n          swap2\n          swap1\n          pop\n          jump\t// out\n            /* \"#utility.yul\":1865:1940   */\n        tag_16:\n            /* \"#utility.yul\":1908:1911   */\n          0x00\n            /* \"#utility.yul\":1929:1934   */\n          dup2\n            /* \"#utility.yul\":1922:1934   */\n          swap1\n          pop\n            /* \"#utility.yul\":1865:1940   */\n          swap2\n          swap1\n          pop\n          jump\t// out\n            /* \"#utility.yul\":1946:2215   */\n        tag_17:\n            /* \"#utility.yul\":2056:2095   */\n          tag_47\n            /* \"#utility.yul\":2087:2094   */\n          dup4\n            /* \"#utility.yul\":2056:2095   */\n          tag_15\n          jump\t// in\n        tag_47:\n            /* \"#utility.yul\":2117:2208   */\n          tag_48\n            /* \"#utility.yul\":2166:2207   */\n          tag_49\n            /* \"#utility.yul\":2190:2206   */\n          dup3\n            /* \"#utility.yul\":2166:2207   */\n          tag_16\n          jump\t// in\n        tag_49:\n            /* \"#utility.yul\":2158:2164   */\n          dup5\n            /* \"#utility.yul\":2151:2155   */\n          dup5\n            /* \"#utility.yul\":2145:2156   */\n          sload\n            /* \"#utility.yul\":2117:2208   */\n          tag_12\n          jump\t// in\n        tag_48:\n            /* \"#utility.yul\":2111:2115   */\n          dup3\n            /* \"#utility.yul\":2104:2209   */\n          sstore\n            /* \"#utility.yul\":2022:2215   */\n          pop\n            /* \"#utility.yul\":1946:2215   */\n          pop\n          pop\n          pop\n          jump\t// out\n            /* \"#utility.yul\":2221:2294   */\n        tag_18:\n            /* \"#utility.yul\":2266:2269   */\n          0x00\n            /* \"#utility.yul\":2221:2294   */\n          swap1\n          jump\t// out\n            /* \"#utility.yul\":2300:2489   */\n        tag_19:\n            /* \"#utility.yul\":2377:2409   */\n          tag_52\n          tag_18\n          jump\t// in\n        tag_52:\n            /* \"#utility.yul\":2418:2483   */\n          tag_53\n            /* \"#utility.yul\":2476:2482   */\n          dup2\n            /* \"#utility.yul\":2468:2474   */\n          dup5\n            /* \"#utility.yul\":2462:2466   */\n          dup5\n            /* \"#utility.yul\":2418:2483   */\n          tag_17\n          jump\t// in\n        tag_53:\n            /* \"#utility.yul\":2353:2489   */\n          pop\n            /* \"#utility.yul\":2300:2489   */\n          pop\n          pop\n          jump\t// out\n            /* \"#utility.yul\":2495:2681   */\n        tag_20:\n            /* \"#utility.yul\":2555:2675   */\n        tag_55:\n            /* \"#utility.yul\":2572:2575   */\n          dup2\n            /* \"#utility.yul\":2565:2570   */\n          dup2\n            /* \"#utility.yul\":2562:2576   */\n          lt\n            /* \"#utility.yul\":2555:2675   */\n          iszero\n          tag_57\n          jumpi\n            /* \"#utility.yul\":2626:2665   */\n          tag_58\n            /* \"#utility.yul\":2663:2664   */\n          0x00\n            /* \"#utility.yul\":2656:2661   */\n          dup3\n            /* \"#utility.yul\":2626:2665   */\n          tag_19\n          jump\t// in\n        tag_58:\n            /* \"#utility.yul\":2599:2600   */\n          0x01\n            /* \"#utility.yul\":2592:2597   */\n          dup2\n            /* \"#utility.yul\":2588:2601   */\n          add\n            /* \"#utility.yul\":2579:2601   */\n          swap1\n          pop\n            /* \"#utility.yul\":2555:2675   */\n          jump(tag_55)\n        tag_57:\n            /* \"#utility.yul\":2495:2681   */\n          pop\n          pop\n          jump\t// out\n            /* \"#utility.yul\":2687:3230   */\n        tag_21:\n            /* \"#utility.yul\":2788:2790   */\n          0x1f\n            /* \"#utility.yul\":2783:2786   */\n          dup3\n            /* \"#utility.yul\":2780:2791   */\n          gt\n            /* \"#utility.yul\":2777:3223   */\n          iszero\n          tag_60\n          jumpi\n            /* \"#utility.yul\":2822:2860   */\n          tag_61\n            /* \"#utility.yul\":2854:2859   */\n          dup2\n            /* \"#utility.yul\":2822:2860   */\n          tag_9\n          jump\t// in\n        tag_61:\n            /* \"#utility.yul\":2906:2935   */\n          tag_62\n            /* \"#utility.yul\":2924:2934   */\n          dup5\n            /* \"#utility.yul\":2906:2935   */\n          tag_10\n          jump\t// in\n        tag_62:\n            /* \"#utility.yul\":2896:2904   */\n          dup2\n            /* \"#utility.yul\":2892:2936   */\n          add\n            /* \"#utility.yul\":3089:3091   */\n          0x20\n            /* \"#utility.yul\":3077:3087   */\n          dup6\n            /* \"#utility.yul\":3074:3092   */\n          lt\n            /* \"#utility.yul\":3071:3120   */\n          iszero\n          tag_63\n          jumpi\n            /* \"#utility.yul\":3110:3118   */\n          dup2\n            /* \"#utility.yul\":3095:3118   */\n          swap1\n          pop\n            /* \"#utility.yul\":3071:3120   */\n        tag_63:\n            /* \"#utility.yul\":3133:3213   */\n          tag_64\n            /* \"#utility.yul\":3189:3211   */\n          tag_65\n            /* \"#utility.yul\":3207:3210   */\n          dup6\n            /* \"#utility.yul\":3189:3211   */\n          tag_10\n          jump\t// in\n        tag_65:\n            /* \"#utility.yul\":3179:3187   */\n          dup4\n            /* \"#utility.yul\":3175:3212   */\n          add\n            /* \"#utility.yul\":3162:3173   */\n          dup3\n            /* \"#utility.yul\":3133:3213   */\n          tag_20\n          jump\t// in\n        tag_64:\n            /* \"#utility.yul\":2792:3223   */\n          pop\n          pop\n            /* \"#utility.yul\":2777:3223   */\n        tag_60:\n            /* \"#utility.yul\":2687:3230   */\n          pop\n          pop\n          pop\n          jump\t// out\n            /* \"#utility.yul\":3236:3353   */\n        tag_22:\n            /* \"#utility.yul\":3290:3298   */\n          0x00\n            /* \"#utility.yul\":3340:3345   */\n          dup3\n            /* \"#utility.yul\":3334:3338   */\n          dup3\n            /* \"#utility.yul\":3330:3346   */\n          shr\n            /* \"#utility.yul\":3309:3346   */\n          swap1\n          pop\n            /* \"#utility.yul\":3236:3353   */\n          swap3\n          swap2\n          pop\n          pop\n          jump\t// out\n            /* \"#utility.yul\":3359:3528   */\n        tag_23:\n            /* \"#utility.yul\":3403:3409   */\n          0x00\n            /* \"#utility.yul\":3436:3487   */\n          tag_68\n            /* \"#utility.yul\":3484:3485   */\n          0x00\n            /* \"#utility.yul\":3480:3486   */\n          not\n            /* \"#utility.yul\":3472:3477   */\n          dup5\n            /* \"#utility.yul\":3469:3470   */\n          0x08\n            /* \"#utility.yul\":3465:3478   */\n          mul\n            /* \"#utility.yul\":3436:3487   */\n          tag_22\n          jump\t// in\n        tag_68:\n            /* \"#utility.yul\":3432:3488   */\n          not\n            /* \"#utility.yul\":3517:3521   */\n          dup1\n            /* \"#utility.yul\":3511:3515   */\n          dup4\n            /* \"#utility.yul\":3507:3522   */\n          and\n            /* \"#utility.yul\":3497:3522   */\n          swap2\n          pop\n            /* \"#utility.yul\":3410:3528   */\n          pop\n            /* \"#utility.yul\":3359:3528   */\n          swap3\n          swap2\n          pop\n          pop\n          jump\t// out\n            /* \"#utility.yul\":3533:3828   */\n        tag_24:\n            /* \"#utility.yul\":3609:3613   */\n          0x00\n            /* \"#utility.yul\":3755:3784   */\n          tag_70\n            /* \"#utility.yul\":3780:3783   */\n          dup4\n            /* \"#utility.yul\":3774:3778   */\n          dup4\n            /* \"#utility.yul\":3755:3784   */\n          tag_23\n          jump\t// in\n        tag_70:\n            /* \"#utility.yul\":3747:3784   */\n          swap2\n          pop\n            /* \"#utility.yul\":3817:3820   */\n          dup3\n            /* \"#utility.yul\":3814:3815   */\n          0x02\n            /* \"#utility.yul\":3810:3821   */\n          mul\n            /* \"#utility.yul\":3804:3808   */\n          dup3\n            /* \"#utility.yul\":3801:3822   */\n          or\n            /* \"#utility.yul\":3793:3822   */\n          swap1\n          pop\n            /* \"#utility.yul\":3533:3828   */\n          swap3\n          swap2\n          pop\n          pop\n          jump\t// out\n            /* \"#utility.yul\":3833:5228   */\n        tag_2:\n            /* \"#utility.yul\":3950:3987   */\n          tag_72\n            /* \"#utility.yul\":3983:3986   */\n          dup3\n            /* \"#utility.yul\":3950:3987   */\n          tag_5\n          jump\t// in\n        tag_72:\n            /* \"#utility.yul\":4052:4070   */\n          0xffffffffffffffff\n            /* \"#utility.yul\":4044:4050   */\n          dup2\n            /* \"#utility.yul\":4041:4071   */\n          gt\n            /* \"#utility.yul\":4038:4094   */\n          iszero\n          tag_73\n          jumpi\n            /* \"#utility.yul\":4074:4092   */\n          tag_74\n          tag_6\n          jump\t// in\n        tag_74:\n            /* \"#utility.yul\":4038:4094   */\n        tag_73:\n            /* \"#utility.yul\":4118:4156   */\n          tag_75\n            /* \"#utility.yul\":4150:4154   */\n          dup3\n            /* \"#utility.yul\":4144:4155   */\n          sload\n            /* \"#utility.yul\":4118:4156   */\n          tag_8\n          jump\t// in\n        tag_75:\n            /* \"#utility.yul\":4203:4270   */\n          tag_76\n            /* \"#utility.yul\":4263:4269   */\n          dup3\n            /* \"#utility.yul\":4255:4261   */\n          dup3\n            /* \"#utility.yul\":4249:4253   */\n          dup6\n            /* \"#utility.yul\":4203:4270   */\n          tag_21\n          jump\t// in\n        tag_76:\n            /* \"#utility.yul\":4297:4298   */\n          0x00\n            /* \"#utility.yul\":4321:4325   */\n          0x20\n            /* \"#utility.yul\":4308:4325   */\n          swap1\n          pop\n            /* \"#utility.yul\":4353:4355   */\n          0x1f\n            /* \"#utility.yul\":4345:4351   */\n          dup4\n            /* \"#utility.yul\":4342:4356   */\n          gt\n            /* \"#utility.yul\":4370:4371   */\n          0x01\n            /* \"#utility.yul\":4365:4983   */\n          dup2\n          eq\n          tag_78\n          jumpi\n            /* \"#utility.yul\":5027:5028   */\n          0x00\n            /* \"#utility.yul\":5044:5050   */\n          dup5\n            /* \"#utility.yul\":5041:5118   */\n          iszero\n          tag_79\n          jumpi\n            /* \"#utility.yul\":5093:5102   */\n          dup3\n            /* \"#utility.yul\":5088:5091   */\n          dup8\n            /* \"#utility.yul\":5084:5103   */\n          add\n            /* \"#utility.yul\":5078:5104   */\n          mload\n            /* \"#utility.yul\":5069:5104   */\n          swap1\n          pop\n            /* \"#utility.yul\":5041:5118   */\n        tag_79:\n            /* \"#utility.yul\":5144:5211   */\n          tag_80\n            /* \"#utility.yul\":5204:5210   */\n          dup6\n            /* \"#utility.yul\":5197:5202   */\n          dup3\n            /* \"#utility.yul\":5144:5211   */\n          tag_24\n          jump\t// in\n        tag_80:\n            /* \"#utility.yul\":5138:5142   */\n          dup7\n            /* \"#utility.yul\":5131:5212   */\n          sstore\n            /* \"#utility.yul\":5000:5222   */\n          pop\n            /* \"#utility.yul\":4335:5222   */\n          jump(tag_77)\n            /* \"#utility.yul\":4365:4983   */\n        tag_78:\n            /* \"#utility.yul\":4417:4421   */\n          0x1f\n            /* \"#utility.yul\":4413:4422   */\n          not\n            /* \"#utility.yul\":4405:4411   */\n          dup5\n            /* \"#utility.yul\":4401:4423   */\n          and\n            /* \"#utility.yul\":4451:4488   */\n          tag_81\n            /* \"#utility.yul\":4483:4487   */\n          dup7\n            /* \"#utility.yul\":4451:4488   */\n          tag_9\n          jump\t// in\n        tag_81:\n            /* \"#utility.yul\":4510:4511   */\n          0x00\n            /* \"#utility.yul\":4524:4732   */\n        tag_82:\n            /* \"#utility.yul\":4538:4545   */\n          dup3\n            /* \"#utility.yul\":4535:4536   */\n          dup2\n            /* \"#utility.yul\":4532:4546   */\n          lt\n            /* \"#utility.yul\":4524:4732   */\n          iszero\n          tag_84\n          jumpi\n            /* \"#utility.yul\":4617:4626   */\n          dup5\n            /* \"#utility.yul\":4612:4615   */\n          dup10\n            /* \"#utility.yul\":4608:4627   */\n          add\n            /* \"#utility.yul\":4602:4628   */\n          mload\n            /* \"#utility.yul\":4594:4600   */\n          dup3\n            /* \"#utility.yul\":4587:4629   */\n          sstore\n            /* \"#utility.yul\":4668:4669   */\n          0x01\n            /* \"#utility.yul\":4660:4666   */\n          dup3\n            /* \"#utility.yul\":4656:4670   */\n          add\n            /* \"#utility.yul\":4646:4670   */\n          swap2\n          pop\n            /* \"#utility.yul\":4715:4717   */\n          0x20\n            /* \"#utility.yul\":4704:4713   */\n          dup6\n            /* \"#utility.yul\":4700:4718   */\n          add\n            /* \"#utility.yul\":4687:4718   */\n          swap5\n          pop\n            /* \"#utility.yul\":4561:4565   */\n          0x20\n            /* \"#utility.yul\":4558:4559   */\n          dup2\n            /* \"#utility.yul\":4554:4566   */\n          add\n            /* \"#utility.yul\":4549:4566   */\n          swap1\n          pop\n            /* \"#utility.yul\":4524:4732   */\n          jump(tag_82)\n        tag_84:\n            /* \"#utility.yul\":4760:4766   */\n          dup7\n            /* \"#utility.yul\":4751:4758   */\n          dup4\n            /* \"#utility.yul\":4748:4767   */\n          lt\n            /* \"#utility.yul\":4745:4924   */\n          iszero\n          tag_85\n          jumpi\n            /* \"#utility.yul\":4818:4827   */\n          dup5\n            /* \"#utility.yul\":4813:4816   */\n          dup10\n            /* \"#utility.yul\":4809:4828   */\n          add\n            /* \"#utility.yul\":4803:4829   */\n          mload\n            /* \"#utility.yul\":4861:4909   */\n          tag_86\n            /* \"#utility.yul\":4903:4907   */\n          0x1f\n            /* \"#utility.yul\":4895:4901   */\n          dup10\n            /* \"#utility.yul\":4891:4908   */\n          and\n            /* \"#utility.yul\":4880:4889   */\n          dup3\n            /* \"#utility.yul\":4861:4909   */\n          tag_23\n          jump\t// in\n        tag_86:\n            /* \"#utility.yul\":4853:4859   */\n          dup4\n            /* \"#utility.yul\":4846:4910   */\n          sstore\n            /* \"#utility.yul\":4768:4924   */\n          pop\n            /* \"#utility.yul\":4745:4924   */\n        tag_85:\n            /* \"#utility.yul\":4970:4971   */\n          0x01\n            /* \"#utility.yul\":4966:4967   */\n          0x02\n            /* \"#utility.yul\":4958:4964   */\n          dup9\n            /* \"#utility.yul\":4954:4968   */\n          mul\n            /* \"#utility.yul\":4950:4972   */\n          add\n            /* \"#utility.yul\":4944:4948   */\n          dup9\n            /* \"#utility.yul\":4937:4973   */\n          sstore\n            /* \"#utility.yul\":4372:4983   */\n          pop\n          pop\n          pop\n            /* \"#utility.yul\":4335:5222   */\n        tag_77:\n          pop\n            /* \"#utility.yul\":3925:5228   */\n          pop\n          pop\n          pop\n            /* \"#utility.yul\":3833:5228   */\n          pop\n          pop\n          jump\t// out\n            /* \"remix-section-2/SuperStorage.sol\":102:320  contract SuperVault is InitialVault {... */\n        tag_4:\n          dataSize(sub_0)\n          dup1\n          dataOffset(sub_0)\n          0x00\n          codecopy\n          0x00\n          return\n        stop\n\n        sub_0: assembly {\n                /* \"remix-section-2/SuperStorage.sol\":102:320  contract SuperVault is InitialVault {... */\n              mstore(0x40, 0x80)\n              callvalue\n              dup1\n              iszero\n              tag_1\n              jumpi\n              0x00\n              dup1\n              revert\n            tag_1:\n              pop\n              jumpi(tag_2, lt(calldatasize, 0x04))\n              shr(0xe0, calldataload(0x00))\n              dup1\n              0x3fb5c1cb\n              eq\n              tag_3\n              jumpi\n              dup1\n              0xf2c9ecd8\n              eq\n              tag_4\n              jumpi\n            tag_2:\n              0x00\n              dup1\n              revert\n                /* \"remix-section-2/SuperStorage.sol\":182:318  function setNumber(uint _number) public override {... */\n            tag_3:\n              tag_5\n              0x04\n              dup1\n              calldatasize\n              sub\n              dup2\n              add\n              swap1\n              tag_6\n              swap2\n              swap1\n              tag_7\n              jump\t// in\n            tag_6:\n              tag_8\n              jump\t// in\n            tag_5:\n              stop\n                /* \"remix-section-2/Storage.sol\":1334:1411  function getNumber() public view returns (uint){... */\n            tag_4:\n              tag_9\n              tag_10\n              jump\t// in\n            tag_9:\n              mload(0x40)\n              tag_11\n              swap2\n              swap1\n              tag_12\n              jump\t// in\n            tag_11:\n              mload(0x40)\n              dup1\n              swap2\n              sub\n              swap1\n              return\n                /* \"remix-section-2/SuperStorage.sol\":182:318  function setNumber(uint _number) public override {... */\n            tag_8:\n                /* \"remix-section-2/SuperStorage.sol\":260:263  500 */\n              0x01f4\n                /* \"remix-section-2/SuperStorage.sol\":249:256  _number */\n              dup2\n                /* \"remix-section-2/SuperStorage.sol\":249:263  _number <= 500 */\n              gt\n              iszero\n                /* \"remix-section-2/SuperStorage.sol\":241:285  require(_number <= 500, \"Number too large!\") */\n              tag_14\n              jumpi\n              mload(0x40)\n              0x08c379a000000000000000000000000000000000000000000000000000000000\n              dup2\n              mstore\n              0x04\n              add\n              tag_15\n              swap1\n              tag_16\n              jump\t// in\n            tag_15:\n              mload(0x40)\n              dup1\n              swap2\n              sub\n              swap1\n              revert\n            tag_14:\n                /* \"remix-section-2/SuperStorage.sol\":304:311  _number */\n              dup1\n                /* \"remix-section-2/SuperStorage.sol\":295:301  number */\n              0x00\n                /* \"remix-section-2/SuperStorage.sol\":295:311  number = _number */\n              dup2\n              swap1\n              sstore\n              pop\n                /* \"remix-section-2/SuperStorage.sol\":182:318  function setNumber(uint _number) public override {... */\n              pop\n              jump\t// out\n                /* \"remix-section-2/Storage.sol\":1334:1411  function getNumber() public view returns (uint){... */\n            tag_10:\n                /* \"remix-section-2/Storage.sol\":1376:1380  uint */\n              0x00\n                /* \"remix-section-2/Storage.sol\":1398:1404  number */\n              dup1\n              sload\n                /* \"remix-section-2/Storage.sol\":1391:1404  return number */\n              swap1\n              pop\n                /* \"remix-section-2/Storage.sol\":1334:1411  function getNumber() public view returns (uint){... */\n              swap1\n              jump\t// out\n                /* \"#utility.yul\":88:205   */\n            tag_19:\n                /* \"#utility.yul\":197:198   */\n              0x00\n                /* \"#utility.yul\":194:195   */\n              dup1\n                /* \"#utility.yul\":187:199   */\n              revert\n                /* \"#utility.yul\":334:411   */\n            tag_21:\n                /* \"#utility.yul\":371:378   */\n              0x00\n                /* \"#utility.yul\":400:405   */\n              dup2\n                /* \"#utility.yul\":389:405   */\n              swap1\n              pop\n                /* \"#utility.yul\":334:411   */\n              swap2\n              swap1\n              pop\n              jump\t// out\n                /* \"#utility.yul\":417:539   */\n            tag_22:\n                /* \"#utility.yul\":490:514   */\n              tag_34\n                /* \"#utility.yul\":508:513   */\n              dup2\n                /* \"#utility.yul\":490:514   */\n              tag_21\n              jump\t// in\n            tag_34:\n                /* \"#utility.yul\":483:488   */\n              dup2\n                /* \"#utility.yul\":480:515   */\n              eq\n                /* \"#utility.yul\":470:533   */\n              tag_35\n              jumpi\n                /* \"#utility.yul\":529:530   */\n              0x00\n                /* \"#utility.yul\":526:527   */\n              dup1\n                /* \"#utility.yul\":519:531   */\n              revert\n                /* \"#utility.yul\":470:533   */\n            tag_35:\n                /* \"#utility.yul\":417:539   */\n              pop\n              jump\t// out\n                /* \"#utility.yul\":545:684   */\n            tag_23:\n                /* \"#utility.yul\":591:596   */\n              0x00\n                /* \"#utility.yul\":629:635   */\n              dup2\n                /* \"#utility.yul\":616:636   */\n              calldataload\n                /* \"#utility.yul\":607:636   */\n              swap1\n              pop\n                /* \"#utility.yul\":645:678   */\n              tag_37\n                /* \"#utility.yul\":672:677   */\n              dup2\n                /* \"#utility.yul\":645:678   */\n              tag_22\n              jump\t// in\n            tag_37:\n                /* \"#utility.yul\":545:684   */\n              swap3\n              swap2\n              pop\n              pop\n              jump\t// out\n                /* \"#utility.yul\":690:1019   */\n            tag_7:\n                /* \"#utility.yul\":749:755   */\n              0x00\n                /* \"#utility.yul\":798:800   */\n              0x20\n                /* \"#utility.yul\":786:795   */\n              dup3\n                /* \"#utility.yul\":777:784   */\n              dup5\n                /* \"#utility.yul\":773:796   */\n              sub\n                /* \"#utility.yul\":769:801   */\n              slt\n                /* \"#utility.yul\":766:885   */\n              iszero\n              tag_39\n              jumpi\n                /* \"#utility.yul\":804:883   */\n              tag_40\n              tag_19\n              jump\t// in\n            tag_40:\n                /* \"#utility.yul\":766:885   */\n            tag_39:\n                /* \"#utility.yul\":924:925   */\n              0x00\n                /* \"#utility.yul\":949:1002   */\n              tag_41\n                /* \"#utility.yul\":994:1001   */\n              dup5\n                /* \"#utility.yul\":985:991   */\n              dup3\n                /* \"#utility.yul\":974:983   */\n              dup6\n                /* \"#utility.yul\":970:992   */\n              add\n                /* \"#utility.yul\":949:1002   */\n              tag_23\n              jump\t// in\n            tag_41:\n                /* \"#utility.yul\":939:1002   */\n              swap2\n              pop\n                /* \"#utility.yul\":895:1012   */\n              pop\n                /* \"#utility.yul\":690:1019   */\n              swap3\n              swap2\n              pop\n              pop\n              jump\t// out\n                /* \"#utility.yul\":1025:1143   */\n            tag_24:\n                /* \"#utility.yul\":1112:1136   */\n              tag_43\n                /* \"#utility.yul\":1130:1135   */\n              dup2\n                /* \"#utility.yul\":1112:1136   */\n              tag_21\n              jump\t// in\n            tag_43:\n                /* \"#utility.yul\":1107:1110   */\n              dup3\n                /* \"#utility.yul\":1100:1137   */\n              mstore\n                /* \"#utility.yul\":1025:1143   */\n              pop\n              pop\n              jump\t// out\n                /* \"#utility.yul\":1149:1371   */\n            tag_12:\n                /* \"#utility.yul\":1242:1246   */\n              0x00\n                /* \"#utility.yul\":1280:1282   */\n              0x20\n                /* \"#utility.yul\":1269:1278   */\n              dup3\n                /* \"#utility.yul\":1265:1283   */\n              add\n                /* \"#utility.yul\":1257:1283   */\n              swap1\n              pop\n                /* \"#utility.yul\":1293:1364   */\n              tag_45\n                /* \"#utility.yul\":1361:1362   */\n              0x00\n                /* \"#utility.yul\":1350:1359   */\n              dup4\n                /* \"#utility.yul\":1346:1363   */\n              add\n                /* \"#utility.yul\":1337:1343   */\n              dup5\n                /* \"#utility.yul\":1293:1364   */\n              tag_24\n              jump\t// in\n            tag_45:\n                /* \"#utility.yul\":1149:1371   */\n              swap3\n              swap2\n              pop\n              pop\n              jump\t// out\n                /* \"#utility.yul\":1377:1546   */\n            tag_25:\n                /* \"#utility.yul\":1461:1472   */\n              0x00\n                /* \"#utility.yul\":1495:1501   */\n              dup3\n                /* \"#utility.yul\":1490:1493   */\n              dup3\n                /* \"#utility.yul\":1483:1502   */\n              mstore\n                /* \"#utility.yul\":1535:1539   */\n              0x20\n                /* \"#utility.yul\":1530:1533   */\n              dup3\n                /* \"#utility.yul\":1526:1540   */\n              add\n                /* \"#utility.yul\":1511:1540   */\n              swap1\n              pop\n                /* \"#utility.yul\":1377:1546   */\n              swap3\n              swap2\n              pop\n              pop\n              jump\t// out\n                /* \"#utility.yul\":1552:1719   */\n            tag_26:\n                /* \"#utility.yul\":1692:1711   */\n              0x4e756d62657220746f6f206c6172676521000000000000000000000000000000\n                /* \"#utility.yul\":1688:1689   */\n              0x00\n                /* \"#utility.yul\":1680:1686   */\n              dup3\n                /* \"#utility.yul\":1676:1690   */\n              add\n                /* \"#utility.yul\":1669:1712   */\n              mstore\n                /* \"#utility.yul\":1552:1719   */\n              pop\n              jump\t// out\n                /* \"#utility.yul\":1725:2091   */\n            tag_27:\n                /* \"#utility.yul\":1867:1870   */\n              0x00\n                /* \"#utility.yul\":1888:1955   */\n              tag_49\n                /* \"#utility.yul\":1952:1954   */\n              0x11\n                /* \"#utility.yul\":1947:1950   */\n              dup4\n                /* \"#utility.yul\":1888:1955   */\n              tag_25\n              jump\t// in\n            tag_49:\n                /* \"#utility.yul\":1881:1955   */\n              swap2\n              pop\n                /* \"#utility.yul\":1964:2057   */\n              tag_50\n                /* \"#utility.yul\":2053:2056   */\n              dup3\n                /* \"#utility.yul\":1964:2057   */\n              tag_26\n              jump\t// in\n            tag_50:\n                /* \"#utility.yul\":2082:2084   */\n              0x20\n                /* \"#utility.yul\":2077:2080   */\n              dup3\n                /* \"#utility.yul\":2073:2085   */\n              add\n                /* \"#utility.yul\":2066:2085   */\n              swap1\n              pop\n                /* \"#utility.yul\":1725:2091   */\n              swap2\n              swap1\n              pop\n              jump\t// out\n                /* \"#utility.yul\":2097:2516   */\n            tag_16:\n                /* \"#utility.yul\":2263:2267   */\n              0x00\n                /* \"#utility.yul\":2301:2303   */\n              0x20\n                /* \"#utility.yul\":2290:2299   */\n              dup3\n                /* \"#utility.yul\":2286:2304   */\n              add\n                /* \"#utility.yul\":2278:2304   */\n              swap1\n              pop\n                /* \"#utility.yul\":2350:2359   */\n              dup2\n                /* \"#utility.yul\":2344:2348   */\n              dup2\n                /* \"#utility.yul\":2340:2360   */\n              sub\n                /* \"#utility.yul\":2336:2337   */\n              0x00\n                /* \"#utility.yul\":2325:2334   */\n              dup4\n                /* \"#utility.yul\":2321:2338   */\n              add\n                /* \"#utility.yul\":2314:2361   */\n              mstore\n                /* \"#utility.yul\":2378:2509   */\n              tag_52\n                /* \"#utility.yul\":2504:2508   */\n              dup2\n                /* \"#utility.yul\":2378:2509   */\n              tag_27\n              jump\t// in\n            tag_52:\n                /* \"#utility.yul\":2370:2509   */\n              swap1\n              pop\n                /* \"#utility.yul\":2097:2516   */\n              swap2\n              swap1\n              pop\n              jump\t// out\n\n            auxdata: 0xa26469706673582212203ea006b787d1611189d8f27530cc7c6c11657b30e1b315252d2c8ec2c4a988c364736f6c63430008120033\n        }\n    }\n\n    auxdata: 0xa26469706673582212208523570bca95549ae8c2a90c31d6981e89c971b84895ac047fae9824de634d3b64736f6c63430008120033\n}\n",
				"bytecode": {
					"linkReferences": {},
					"object": "608060405234801561001057600080fd5b50611b87806100206000396000f3fe60806040523480156200001157600080fd5b5060043610620000885760003560e01c80639094a91e11620000635780639094a91e14620001035780639403b6341462000139578063bd880c9c146200016f578063e8620af114620001a55762000088565b80631248ff83146200008d57806373eebef814620000ad5780637f8556f414620000e3575b600080fd5b620000ab6004803603810190620000a5919062000664565b620001c7565b005b620000cb6004803603810190620000c59190620006ab565b6200027b565b604051620000da9190620006ee565b60405180910390f35b620001016004803603810190620000fb919062000895565b62000336565b005b6200012160048036038101906200011b9190620006ab565b6200049d565b60405162000130919062000986565b60405180910390f35b620001576004803603810190620001519190620006ab565b620004dd565b60405162000166919062000986565b60405180910390f35b6200018d6004803603810190620001879190620006ab565b62000527565b6040516200019c919062000a2c565b60405180910390f35b620001af620005ed565b604051620001be9190620006ee565b60405180910390f35b60008281548110620001de57620001dd62000a50565b5b9060005260206000200160009054906101000a900473ffffffffffffffffffffffffffffffffffffffff1673ffffffffffffffffffffffffffffffffffffffff16633fb5c1cb826040518263ffffffff1660e01b8152600401620002439190620006ee565b600060405180830381600087803b1580156200025e57600080fd5b505af115801562000273573d6000803e3d6000fd5b505050505050565b600080828154811062000293576200029262000a50565b5b9060005260206000200160009054906101000a900473ffffffffffffffffffffffffffffffffffffffff1673ffffffffffffffffffffffffffffffffffffffff1663f2c9ecd86040518163ffffffff1660e01b8152600401602060405180830381865afa15801562000309573d6000803e3d6000fd5b505050506040513d601f19601f820116820180604052508101906200032f919062000a96565b9050919050565b600060018111156200034d576200034c62000ac8565b5b81600181111562000363576200036262000ac8565b5b036200040a576000826040516200037a90620005f9565b62000386919062000a2c565b604051809103906000f080158015620003a3573d6000803e3d6000fd5b509080600181540180825580915050600190039060005260206000200160009091909190916101000a81548173ffffffffffffffffffffffffffffffffffffffff021916908373ffffffffffffffffffffffffffffffffffffffff16021790555062000499565b60006040516200041a9062000607565b604051809103906000f08015801562000437573d6000803e3d6000fd5b509080600181540180825580915050600190039060005260206000200160009091909190916101000a81548173ffffffffffffffffffffffffffffffffffffffff021916908373ffffffffffffffffffffffffffffffffffffffff1602179055505b5050565b60008181548110620004ae57600080fd5b906000526020600020016000915054906101000a900473ffffffffffffffffffffffffffffffffffffffff1681565b6000808281548110620004f557620004f462000a50565b5b9060005260206000200160009054906101000a900473ffffffffffffffffffffffffffffffffffffffff169050919050565b6060600080838154811062000541576200054062000a50565b5b9060005260206000200160009054906101000a900473ffffffffffffffffffffffffffffffffffffffff1690508073ffffffffffffffffffffffffffffffffffffffff166317d7de7c6040518163ffffffff1660e01b8152600401600060405180830381865afa158015620005ba573d6000803e3d6000fd5b505050506040513d6000823e3d601f19601f82011682018060405250810190620005e5919062000b75565b915050919050565b60008080549050905090565b6109ed8062000bc783390190565b61059e80620015b483390190565b6000604051905090565b600080fd5b600080fd5b6000819050919050565b6200063e8162000629565b81146200064a57600080fd5b50565b6000813590506200065e8162000633565b92915050565b600080604083850312156200067e576200067d6200061f565b5b60006200068e858286016200064d565b9250506020620006a1858286016200064d565b9150509250929050565b600060208284031215620006c457620006c36200061f565b5b6000620006d4848285016200064d565b91505092915050565b620006e88162000629565b82525050565b6000602082019050620007056000830184620006dd565b92915050565b600080fd5b600080fd5b6000601f19601f8301169050919050565b7f4e487b7100000000000000000000000000000000000000000000000000000000600052604160045260246000fd5b620007608262000715565b810181811067ffffffffffffffff8211171562000782576200078162000726565b5b80604052505050565b60006200079762000615565b9050620007a5828262000755565b919050565b600067ffffffffffffffff821115620007c857620007c762000726565b5b620007d38262000715565b9050602081019050919050565b82818337600083830152505050565b6000620008066200080084620007aa565b6200078b565b90508281526020810184848401111562000825576200082462000710565b5b62000832848285620007e0565b509392505050565b600082601f8301126200085257620008516200070b565b5b813562000864848260208601620007ef565b91505092915050565b600281106200087b57600080fd5b50565b6000813590506200088f816200086d565b92915050565b60008060408385031215620008af57620008ae6200061f565b5b600083013567ffffffffffffffff811115620008d057620008cf62000624565b5b620008de858286016200083a565b9250506020620008f1858286016200087e565b9150509250929050565b600073ffffffffffffffffffffffffffffffffffffffff82169050919050565b6000819050919050565b600062000946620009406200093a84620008fb565b6200091b565b620008fb565b9050919050565b60006200095a8262000925565b9050919050565b60006200096e826200094d565b9050919050565b620009808162000961565b82525050565b60006020820190506200099d600083018462000975565b92915050565b600081519050919050565b600082825260208201905092915050565b60005b83811015620009df578082015181840152602081019050620009c2565b60008484015250505050565b6000620009f882620009a3565b62000a048185620009ae565b935062000a16818560208601620009bf565b62000a218162000715565b840191505092915050565b6000602082019050818103600083015262000a488184620009eb565b905092915050565b7f4e487b7100000000000000000000000000000000000000000000000000000000600052603260045260246000fd5b60008151905062000a908162000633565b92915050565b60006020828403121562000aaf5762000aae6200061f565b5b600062000abf8482850162000a7f565b91505092915050565b7f4e487b7100000000000000000000000000000000000000000000000000000000600052602160045260246000fd5b600062000b0e62000b0884620007aa565b6200078b565b90508281526020810184848401111562000b2d5762000b2c62000710565b5b62000b3a848285620009bf565b509392505050565b600082601f83011262000b5a5762000b596200070b565b5b815162000b6c84826020860162000af7565b91505092915050565b60006020828403121562000b8e5762000b8d6200061f565b5b600082015167ffffffffffffffff81111562000baf5762000bae62000624565b5b62000bbd8482850162000b42565b9150509291505056fe60806040523480156200001157600080fd5b50604051620009ed380380620009ed833981810160405281019062000037919062000224565b8060019081620000489190620004c0565b5033600260006101000a81548173ffffffffffffffffffffffffffffffffffffffff021916908373ffffffffffffffffffffffffffffffffffffffff16021790555050620005a7565b6000604051905090565b600080fd5b600080fd5b600080fd5b600080fd5b6000601f19601f8301169050919050565b7f4e487b7100000000000000000000000000000000000000000000000000000000600052604160045260246000fd5b620000fa82620000af565b810181811067ffffffffffffffff821117156200011c576200011b620000c0565b5b80604052505050565b60006200013162000091565b90506200013f8282620000ef565b919050565b600067ffffffffffffffff821115620001625762000161620000c0565b5b6200016d82620000af565b9050602081019050919050565b60005b838110156200019a5780820151818401526020810190506200017d565b60008484015250505050565b6000620001bd620001b78462000144565b62000125565b905082815260208101848484011115620001dc57620001db620000aa565b5b620001e98482856200017a565b509392505050565b600082601f830112620002095762000208620000a5565b5b81516200021b848260208601620001a6565b91505092915050565b6000602082840312156200023d576200023c6200009b565b5b600082015167ffffffffffffffff8111156200025e576200025d620000a0565b5b6200026c84828501620001f1565b91505092915050565b600081519050919050565b7f4e487b7100000000000000000000000000000000000000000000000000000000600052602260045260246000fd5b60006002820490506001821680620002c857607f821691505b602082108103620002de57620002dd62000280565b5b50919050565b60008190508160005260206000209050919050565b60006020601f8301049050919050565b600082821b905092915050565b600060088302620003487fffffffffffffffffffffffffffffffffffffffffffffffffffffffffffffffff8262000309565b62000354868362000309565b95508019841693508086168417925050509392505050565b6000819050919050565b6000819050919050565b6000620003a16200039b62000395846200036c565b62000376565b6200036c565b9050919050565b6000819050919050565b620003bd8362000380565b620003d5620003cc82620003a8565b84845462000316565b825550505050565b600090565b620003ec620003dd565b620003f9818484620003b2565b505050565b5b81811015620004215762000415600082620003e2565b600181019050620003ff565b5050565b601f82111562000470576200043a81620002e4565b6200044584620002f9565b8101602085101562000455578190505b6200046d6200046485620002f9565b830182620003fe565b50505b505050565b600082821c905092915050565b6000620004956000198460080262000475565b1980831691505092915050565b6000620004b0838362000482565b9150826002028217905092915050565b620004cb8262000275565b67ffffffffffffffff811115620004e757620004e6620000c0565b5b620004f38254620002af565b6200050082828562000425565b600060209050601f83116001811462000538576000841562000523578287015190505b6200052f8582620004a2565b8655506200059f565b601f1984166200054886620002e4565b60005b8281101562000572578489015182556001820191506020850194506020810190506200054b565b868310156200059257848901516200058e601f89168262000482565b8355505b6001600288020188555050505b505050505050565b61043680620005b76000396000f3fe608060405234801561001057600080fd5b50600436106100415760003560e01c806317d7de7c146100465780633fb5c1cb14610064578063f2c9ecd814610080575b600080fd5b61004e61009e565b60405161005b91906102aa565b60405180910390f35b61007e60048036038101906100799190610307565b610130565b005b610088610211565b6040516100959190610343565b60405180910390f35b6060600180546100ad9061038d565b80601f01602080910402602001604051908101604052809291908181526020018280546100d99061038d565b80156101265780601f106100fb57610100808354040283529160200191610126565b820191906000526020600020905b81548152906001019060200180831161010957829003601f168201915b5050505050905090565b600260009054906101000a900473ffffffffffffffffffffffffffffffffffffffff1673ffffffffffffffffffffffffffffffffffffffff163373ffffffffffffffffffffffffffffffffffffffff161461018a57600080fd5b6103e83073ffffffffffffffffffffffffffffffffffffffff1663f2c9ecd86040518163ffffffff1660e01b8152600401602060405180830381865afa1580156101d8573d6000803e3d6000fd5b505050506040513d601f19601f820116820180604052508101906101fc91906103d3565b111561020757600080fd5b8060008190555050565b60008054905090565b600081519050919050565b600082825260208201905092915050565b60005b83811015610254578082015181840152602081019050610239565b60008484015250505050565b6000601f19601f8301169050919050565b600061027c8261021a565b6102868185610225565b9350610296818560208601610236565b61029f81610260565b840191505092915050565b600060208201905081810360008301526102c48184610271565b905092915050565b600080fd5b6000819050919050565b6102e4816102d1565b81146102ef57600080fd5b50565b600081359050610301816102db565b92915050565b60006020828403121561031d5761031c6102cc565b5b600061032b848285016102f2565b91505092915050565b61033d816102d1565b82525050565b60006020820190506103586000830184610334565b92915050565b7f4e487b7100000000000000000000000000000000000000000000000000000000600052602260045260246000fd5b600060028204905060018216806103a557607f821691505b6020821081036103b8576103b761035e565b5b50919050565b6000815190506103cd816102db565b92915050565b6000602082840312156103e9576103e86102cc565b5b60006103f7848285016103be565b9150509291505056fea2646970667358221220b31f7a97d428a9ed463a4e41bb736642171902b2a3275794c7a8e9b48e8f250464736f6c6343000812003360806040526040518060400160405280600a81526020017f73757065727661756c74000000000000000000000000000000000000000000008152506001908161004891906102ab565b5034801561005557600080fd5b5061037d565b600081519050919050565b7f4e487b7100000000000000000000000000000000000000000000000000000000600052604160045260246000fd5b7f4e487b7100000000000000000000000000000000000000000000000000000000600052602260045260246000fd5b600060028204905060018216806100dc57607f821691505b6020821081036100ef576100ee610095565b5b50919050565b60008190508160005260206000209050919050565b60006020601f8301049050919050565b600082821b905092915050565b6000600883026101577fffffffffffffffffffffffffffffffffffffffffffffffffffffffffffffffff8261011a565b610161868361011a565b95508019841693508086168417925050509392505050565b6000819050919050565b6000819050919050565b60006101a86101a361019e84610179565b610183565b610179565b9050919050565b6000819050919050565b6101c28361018d565b6101d66101ce826101af565b848454610127565b825550505050565b600090565b6101eb6101de565b6101f68184846101b9565b505050565b5b8181101561021a5761020f6000826101e3565b6001810190506101fc565b5050565b601f82111561025f57610230816100f5565b6102398461010a565b81016020851015610248578190505b61025c6102548561010a565b8301826101fb565b50505b505050565b600082821c905092915050565b600061028260001984600802610264565b1980831691505092915050565b600061029b8383610271565b9150826002028217905092915050565b6102b48261005b565b67ffffffffffffffff8111156102cd576102cc610066565b5b6102d782546100c4565b6102e282828561021e565b600060209050601f8311600181146103155760008415610303578287015190505b61030d858261028f565b865550610375565b601f198416610323866100f5565b60005b8281101561034b57848901518255600182019150602085019450602081019050610326565b868310156103685784890151610364601f891682610271565b8355505b6001600288020188555050505b505050505050565b6102128061038c6000396000f3fe608060405234801561001057600080fd5b50600436106100365760003560e01c80633fb5c1cb1461003b578063f2c9ecd814610057575b600080fd5b61005560048036038101906100509190610108565b610075565b005b61005f6100c4565b60405161006c9190610144565b60405180910390f35b6101f48111156100ba576040517f08c379a00000000000000000000000000000000000000000000000000000000081526004016100b1906101bc565b60405180910390fd5b8060008190555050565b60008054905090565b600080fd5b6000819050919050565b6100e5816100d2565b81146100f057600080fd5b50565b600081359050610102816100dc565b92915050565b60006020828403121561011e5761011d6100cd565b5b600061012c848285016100f3565b91505092915050565b61013e816100d2565b82525050565b60006020820190506101596000830184610135565b92915050565b600082825260208201905092915050565b7f4e756d62657220746f6f206c6172676521000000000000000000000000000000600082015250565b60006101a660118361015f565b91506101b182610170565b602082019050919050565b600060208201905081810360008301526101d581610199565b905091905056fea26469706673582212203ea006b787d1611189d8f27530cc7c6c11657b30e1b315252d2c8ec2c4a988c364736f6c63430008120033a26469706673582212208523570bca95549ae8c2a90c31d6981e89c971b84895ac047fae9824de634d3b64736f6c63430008120033",
					"opcodes": "PUSH1 0x80 PUSH1 0x40 MSTORE CALLVALUE DUP1 ISZERO PUSH2 0x10 JUMPI PUSH1 0x0 DUP1 REVERT JUMPDEST POP PUSH2 0x1B87 DUP1 PUSH2 0x20 PUSH1 0x0 CODECOPY PUSH1 0x0 RETURN INVALID PUSH1 0x80 PUSH1 0x40 MSTORE CALLVALUE DUP1 ISZERO PUSH3 0x11 JUMPI PUSH1 0x0 DUP1 REVERT JUMPDEST POP PUSH1 0x4 CALLDATASIZE LT PUSH3 0x88 JUMPI PUSH1 0x0 CALLDATALOAD PUSH1 0xE0 SHR DUP1 PUSH4 0x9094A91E GT PUSH3 0x63 JUMPI DUP1 PUSH4 0x9094A91E EQ PUSH3 0x103 JUMPI DUP1 PUSH4 0x9403B634 EQ PUSH3 0x139 JUMPI DUP1 PUSH4 0xBD880C9C EQ PUSH3 0x16F JUMPI DUP1 PUSH4 0xE8620AF1 EQ PUSH3 0x1A5 JUMPI PUSH3 0x88 JUMP JUMPDEST DUP1 PUSH4 0x1248FF83 EQ PUSH3 0x8D JUMPI DUP1 PUSH4 0x73EEBEF8 EQ PUSH3 0xAD JUMPI DUP1 PUSH4 0x7F8556F4 EQ PUSH3 0xE3 JUMPI JUMPDEST PUSH1 0x0 DUP1 REVERT JUMPDEST PUSH3 0xAB PUSH1 0x4 DUP1 CALLDATASIZE SUB DUP2 ADD SWAP1 PUSH3 0xA5 SWAP2 SWAP1 PUSH3 0x664 JUMP JUMPDEST PUSH3 0x1C7 JUMP JUMPDEST STOP JUMPDEST PUSH3 0xCB PUSH1 0x4 DUP1 CALLDATASIZE SUB DUP2 ADD SWAP1 PUSH3 0xC5 SWAP2 SWAP1 PUSH3 0x6AB JUMP JUMPDEST PUSH3 0x27B JUMP JUMPDEST PUSH1 0x40 MLOAD PUSH3 0xDA SWAP2 SWAP1 PUSH3 0x6EE JUMP JUMPDEST PUSH1 0x40 MLOAD DUP1 SWAP2 SUB SWAP1 RETURN JUMPDEST PUSH3 0x101 PUSH1 0x4 DUP1 CALLDATASIZE SUB DUP2 ADD SWAP1 PUSH3 0xFB SWAP2 SWAP1 PUSH3 0x895 JUMP JUMPDEST PUSH3 0x336 JUMP JUMPDEST STOP JUMPDEST PUSH3 0x121 PUSH1 0x4 DUP1 CALLDATASIZE SUB DUP2 ADD SWAP1 PUSH3 0x11B SWAP2 SWAP1 PUSH3 0x6AB JUMP JUMPDEST PUSH3 0x49D JUMP JUMPDEST PUSH1 0x40 MLOAD PUSH3 0x130 SWAP2 SWAP1 PUSH3 0x986 JUMP JUMPDEST PUSH1 0x40 MLOAD DUP1 SWAP2 SUB SWAP1 RETURN JUMPDEST PUSH3 0x157 PUSH1 0x4 DUP1 CALLDATASIZE SUB DUP2 ADD SWAP1 PUSH3 0x151 SWAP2 SWAP1 PUSH3 0x6AB JUMP JUMPDEST PUSH3 0x4DD JUMP JUMPDEST PUSH1 0x40 MLOAD PUSH3 0x166 SWAP2 SWAP1 PUSH3 0x986 JUMP JUMPDEST PUSH1 0x40 MLOAD DUP1 SWAP2 SUB SWAP1 RETURN JUMPDEST PUSH3 0x18D PUSH1 0x4 DUP1 CALLDATASIZE SUB DUP2 ADD SWAP1 PUSH3 0x187 SWAP2 SWAP1 PUSH3 0x6AB JUMP JUMPDEST PUSH3 0x527 JUMP JUMPDEST PUSH1 0x40 MLOAD PUSH3 0x19C SWAP2 SWAP1 PUSH3 0xA2C JUMP JUMPDEST PUSH1 0x40 MLOAD DUP1 SWAP2 SUB SWAP1 RETURN JUMPDEST PUSH3 0x1AF PUSH3 0x5ED JUMP JUMPDEST PUSH1 0x40 MLOAD PUSH3 0x1BE SWAP2 SWAP1 PUSH3 0x6EE JUMP JUMPDEST PUSH1 0x40 MLOAD DUP1 SWAP2 SUB SWAP1 RETURN JUMPDEST PUSH1 0x0 DUP3 DUP2 SLOAD DUP2 LT PUSH3 0x1DE JUMPI PUSH3 0x1DD PUSH3 0xA50 JUMP JUMPDEST JUMPDEST SWAP1 PUSH1 0x0 MSTORE PUSH1 0x20 PUSH1 0x0 KECCAK256 ADD PUSH1 0x0 SWAP1 SLOAD SWAP1 PUSH2 0x100 EXP SWAP1 DIV PUSH20 0xFFFFFFFFFFFFFFFFFFFFFFFFFFFFFFFFFFFFFFFF AND PUSH20 0xFFFFFFFFFFFFFFFFFFFFFFFFFFFFFFFFFFFFFFFF AND PUSH4 0x3FB5C1CB DUP3 PUSH1 0x40 MLOAD DUP3 PUSH4 0xFFFFFFFF AND PUSH1 0xE0 SHL DUP2 MSTORE PUSH1 0x4 ADD PUSH3 0x243 SWAP2 SWAP1 PUSH3 0x6EE JUMP JUMPDEST PUSH1 0x0 PUSH1 0x40 MLOAD DUP1 DUP4 SUB DUP2 PUSH1 0x0 DUP8 DUP1 EXTCODESIZE ISZERO DUP1 ISZERO PUSH3 0x25E JUMPI PUSH1 0x0 DUP1 REVERT JUMPDEST POP GAS CALL ISZERO DUP1 ISZERO PUSH3 0x273 JUMPI RETURNDATASIZE PUSH1 0x0 DUP1 RETURNDATACOPY RETURNDATASIZE PUSH1 0x0 REVERT JUMPDEST POP POP POP POP POP POP JUMP JUMPDEST PUSH1 0x0 DUP1 DUP3 DUP2 SLOAD DUP2 LT PUSH3 0x293 JUMPI PUSH3 0x292 PUSH3 0xA50 JUMP JUMPDEST JUMPDEST SWAP1 PUSH1 0x0 MSTORE PUSH1 0x20 PUSH1 0x0 KECCAK256 ADD PUSH1 0x0 SWAP1 SLOAD SWAP1 PUSH2 0x100 EXP SWAP1 DIV PUSH20 0xFFFFFFFFFFFFFFFFFFFFFFFFFFFFFFFFFFFFFFFF AND PUSH20 0xFFFFFFFFFFFFFFFFFFFFFFFFFFFFFFFFFFFFFFFF AND PUSH4 0xF2C9ECD8 PUSH1 0x40 MLOAD DUP2 PUSH4 0xFFFFFFFF AND PUSH1 0xE0 SHL DUP2 MSTORE PUSH1 0x4 ADD PUSH1 0x20 PUSH1 0x40 MLOAD DUP1 DUP4 SUB DUP2 DUP7 GAS STATICCALL ISZERO DUP1 ISZERO PUSH3 0x309 JUMPI RETURNDATASIZE PUSH1 0x0 DUP1 RETURNDATACOPY RETURNDATASIZE PUSH1 0x0 REVERT JUMPDEST POP POP POP POP PUSH1 0x40 MLOAD RETURNDATASIZE PUSH1 0x1F NOT PUSH1 0x1F DUP3 ADD AND DUP3 ADD DUP1 PUSH1 0x40 MSTORE POP DUP2 ADD SWAP1 PUSH3 0x32F SWAP2 SWAP1 PUSH3 0xA96 JUMP JUMPDEST SWAP1 POP SWAP2 SWAP1 POP JUMP JUMPDEST PUSH1 0x0 PUSH1 0x1 DUP2 GT ISZERO PUSH3 0x34D JUMPI PUSH3 0x34C PUSH3 0xAC8 JUMP JUMPDEST JUMPDEST DUP2 PUSH1 0x1 DUP2 GT ISZERO PUSH3 0x363 JUMPI PUSH3 0x362 PUSH3 0xAC8 JUMP JUMPDEST JUMPDEST SUB PUSH3 0x40A JUMPI PUSH1 0x0 DUP3 PUSH1 0x40 MLOAD PUSH3 0x37A SWAP1 PUSH3 0x5F9 JUMP JUMPDEST PUSH3 0x386 SWAP2 SWAP1 PUSH3 0xA2C JUMP JUMPDEST PUSH1 0x40 MLOAD DUP1 SWAP2 SUB SWAP1 PUSH1 0x0 CREATE DUP1 ISZERO DUP1 ISZERO PUSH3 0x3A3 JUMPI RETURNDATASIZE PUSH1 0x0 DUP1 RETURNDATACOPY RETURNDATASIZE PUSH1 0x0 REVERT JUMPDEST POP SWAP1 DUP1 PUSH1 0x1 DUP2 SLOAD ADD DUP1 DUP3 SSTORE DUP1 SWAP2 POP POP PUSH1 0x1 SWAP1 SUB SWAP1 PUSH1 0x0 MSTORE PUSH1 0x20 PUSH1 0x0 KECCAK256 ADD PUSH1 0x0 SWAP1 SWAP2 SWAP1 SWAP2 SWAP1 SWAP2 PUSH2 0x100 EXP DUP2 SLOAD DUP2 PUSH20 0xFFFFFFFFFFFFFFFFFFFFFFFFFFFFFFFFFFFFFFFF MUL NOT AND SWAP1 DUP4 PUSH20 0xFFFFFFFFFFFFFFFFFFFFFFFFFFFFFFFFFFFFFFFF AND MUL OR SWAP1 SSTORE POP PUSH3 0x499 JUMP JUMPDEST PUSH1 0x0 PUSH1 0x40 MLOAD PUSH3 0x41A SWAP1 PUSH3 0x607 JUMP JUMPDEST PUSH1 0x40 MLOAD DUP1 SWAP2 SUB SWAP1 PUSH1 0x0 CREATE DUP1 ISZERO DUP1 ISZERO PUSH3 0x437 JUMPI RETURNDATASIZE PUSH1 0x0 DUP1 RETURNDATACOPY RETURNDATASIZE PUSH1 0x0 REVERT JUMPDEST POP SWAP1 DUP1 PUSH1 0x1 DUP2 SLOAD ADD DUP1 DUP3 SSTORE DUP1 SWAP2 POP POP PUSH1 0x1 SWAP1 SUB SWAP1 PUSH1 0x0 MSTORE PUSH1 0x20 PUSH1 0x0 KECCAK256 ADD PUSH1 0x0 SWAP1 SWAP2 SWAP1 SWAP2 SWAP1 SWAP2 PUSH2 0x100 EXP DUP2 SLOAD DUP2 PUSH20 0xFFFFFFFFFFFFFFFFFFFFFFFFFFFFFFFFFFFFFFFF MUL NOT AND SWAP1 DUP4 PUSH20 0xFFFFFFFFFFFFFFFFFFFFFFFFFFFFFFFFFFFFFFFF AND MUL OR SWAP1 SSTORE POP JUMPDEST POP POP JUMP JUMPDEST PUSH1 0x0 DUP2 DUP2 SLOAD DUP2 LT PUSH3 0x4AE JUMPI PUSH1 0x0 DUP1 REVERT JUMPDEST SWAP1 PUSH1 0x0 MSTORE PUSH1 0x20 PUSH1 0x0 KECCAK256 ADD PUSH1 0x0 SWAP2 POP SLOAD SWAP1 PUSH2 0x100 EXP SWAP1 DIV PUSH20 0xFFFFFFFFFFFFFFFFFFFFFFFFFFFFFFFFFFFFFFFF AND DUP2 JUMP JUMPDEST PUSH1 0x0 DUP1 DUP3 DUP2 SLOAD DUP2 LT PUSH3 0x4F5 JUMPI PUSH3 0x4F4 PUSH3 0xA50 JUMP JUMPDEST JUMPDEST SWAP1 PUSH1 0x0 MSTORE PUSH1 0x20 PUSH1 0x0 KECCAK256 ADD PUSH1 0x0 SWAP1 SLOAD SWAP1 PUSH2 0x100 EXP SWAP1 DIV PUSH20 0xFFFFFFFFFFFFFFFFFFFFFFFFFFFFFFFFFFFFFFFF AND SWAP1 POP SWAP2 SWAP1 POP JUMP JUMPDEST PUSH1 0x60 PUSH1 0x0 DUP1 DUP4 DUP2 SLOAD DUP2 LT PUSH3 0x541 JUMPI PUSH3 0x540 PUSH3 0xA50 JUMP JUMPDEST JUMPDEST SWAP1 PUSH1 0x0 MSTORE PUSH1 0x20 PUSH1 0x0 KECCAK256 ADD PUSH1 0x0 SWAP1 SLOAD SWAP1 PUSH2 0x100 EXP SWAP1 DIV PUSH20 0xFFFFFFFFFFFFFFFFFFFFFFFFFFFFFFFFFFFFFFFF AND SWAP1 POP DUP1 PUSH20 0xFFFFFFFFFFFFFFFFFFFFFFFFFFFFFFFFFFFFFFFF AND PUSH4 0x17D7DE7C PUSH1 0x40 MLOAD DUP2 PUSH4 0xFFFFFFFF AND PUSH1 0xE0 SHL DUP2 MSTORE PUSH1 0x4 ADD PUSH1 0x0 PUSH1 0x40 MLOAD DUP1 DUP4 SUB DUP2 DUP7 GAS STATICCALL ISZERO DUP1 ISZERO PUSH3 0x5BA JUMPI RETURNDATASIZE PUSH1 0x0 DUP1 RETURNDATACOPY RETURNDATASIZE PUSH1 0x0 REVERT JUMPDEST POP POP POP POP PUSH1 0x40 MLOAD RETURNDATASIZE PUSH1 0x0 DUP3 RETURNDATACOPY RETURNDATASIZE PUSH1 0x1F NOT PUSH1 0x1F DUP3 ADD AND DUP3 ADD DUP1 PUSH1 0x40 MSTORE POP DUP2 ADD SWAP1 PUSH3 0x5E5 SWAP2 SWAP1 PUSH3 0xB75 JUMP JUMPDEST SWAP2 POP POP SWAP2 SWAP1 POP JUMP JUMPDEST PUSH1 0x0 DUP1 DUP1 SLOAD SWAP1 POP SWAP1 POP SWAP1 JUMP JUMPDEST PUSH2 0x9ED DUP1 PUSH3 0xBC7 DUP4 CODECOPY ADD SWAP1 JUMP JUMPDEST PUSH2 0x59E DUP1 PUSH3 0x15B4 DUP4 CODECOPY ADD SWAP1 JUMP JUMPDEST PUSH1 0x0 PUSH1 0x40 MLOAD SWAP1 POP SWAP1 JUMP JUMPDEST PUSH1 0x0 DUP1 REVERT JUMPDEST PUSH1 0x0 DUP1 REVERT JUMPDEST PUSH1 0x0 DUP2 SWAP1 POP SWAP2 SWAP1 POP JUMP JUMPDEST PUSH3 0x63E DUP2 PUSH3 0x629 JUMP JUMPDEST DUP2 EQ PUSH3 0x64A JUMPI PUSH1 0x0 DUP1 REVERT JUMPDEST POP JUMP JUMPDEST PUSH1 0x0 DUP2 CALLDATALOAD SWAP1 POP PUSH3 0x65E DUP2 PUSH3 0x633 JUMP JUMPDEST SWAP3 SWAP2 POP POP JUMP JUMPDEST PUSH1 0x0 DUP1 PUSH1 0x40 DUP4 DUP6 SUB SLT ISZERO PUSH3 0x67E JUMPI PUSH3 0x67D PUSH3 0x61F JUMP JUMPDEST JUMPDEST PUSH1 0x0 PUSH3 0x68E DUP6 DUP3 DUP7 ADD PUSH3 0x64D JUMP JUMPDEST SWAP3 POP POP PUSH1 0x20 PUSH3 0x6A1 DUP6 DUP3 DUP7 ADD PUSH3 0x64D JUMP JUMPDEST SWAP2 POP POP SWAP3 POP SWAP3 SWAP1 POP JUMP JUMPDEST PUSH1 0x0 PUSH1 0x20 DUP3 DUP5 SUB SLT ISZERO PUSH3 0x6C4 JUMPI PUSH3 0x6C3 PUSH3 0x61F JUMP JUMPDEST JUMPDEST PUSH1 0x0 PUSH3 0x6D4 DUP5 DUP3 DUP6 ADD PUSH3 0x64D JUMP JUMPDEST SWAP2 POP POP SWAP3 SWAP2 POP POP JUMP JUMPDEST PUSH3 0x6E8 DUP2 PUSH3 0x629 JUMP JUMPDEST DUP3 MSTORE POP POP JUMP JUMPDEST PUSH1 0x0 PUSH1 0x20 DUP3 ADD SWAP1 POP PUSH3 0x705 PUSH1 0x0 DUP4 ADD DUP5 PUSH3 0x6DD JUMP JUMPDEST SWAP3 SWAP2 POP POP JUMP JUMPDEST PUSH1 0x0 DUP1 REVERT JUMPDEST PUSH1 0x0 DUP1 REVERT JUMPDEST PUSH1 0x0 PUSH1 0x1F NOT PUSH1 0x1F DUP4 ADD AND SWAP1 POP SWAP2 SWAP1 POP JUMP JUMPDEST PUSH32 0x4E487B7100000000000000000000000000000000000000000000000000000000 PUSH1 0x0 MSTORE PUSH1 0x41 PUSH1 0x4 MSTORE PUSH1 0x24 PUSH1 0x0 REVERT JUMPDEST PUSH3 0x760 DUP3 PUSH3 0x715 JUMP JUMPDEST DUP2 ADD DUP2 DUP2 LT PUSH8 0xFFFFFFFFFFFFFFFF DUP3 GT OR ISZERO PUSH3 0x782 JUMPI PUSH3 0x781 PUSH3 0x726 JUMP JUMPDEST JUMPDEST DUP1 PUSH1 0x40 MSTORE POP POP POP JUMP JUMPDEST PUSH1 0x0 PUSH3 0x797 PUSH3 0x615 JUMP JUMPDEST SWAP1 POP PUSH3 0x7A5 DUP3 DUP3 PUSH3 0x755 JUMP JUMPDEST SWAP2 SWAP1 POP JUMP JUMPDEST PUSH1 0x0 PUSH8 0xFFFFFFFFFFFFFFFF DUP3 GT ISZERO PUSH3 0x7C8 JUMPI PUSH3 0x7C7 PUSH3 0x726 JUMP JUMPDEST JUMPDEST PUSH3 0x7D3 DUP3 PUSH3 0x715 JUMP JUMPDEST SWAP1 POP PUSH1 0x20 DUP2 ADD SWAP1 POP SWAP2 SWAP1 POP JUMP JUMPDEST DUP3 DUP2 DUP4 CALLDATACOPY PUSH1 0x0 DUP4 DUP4 ADD MSTORE POP POP POP JUMP JUMPDEST PUSH1 0x0 PUSH3 0x806 PUSH3 0x800 DUP5 PUSH3 0x7AA JUMP JUMPDEST PUSH3 0x78B JUMP JUMPDEST SWAP1 POP DUP3 DUP2 MSTORE PUSH1 0x20 DUP2 ADD DUP5 DUP5 DUP5 ADD GT ISZERO PUSH3 0x825 JUMPI PUSH3 0x824 PUSH3 0x710 JUMP JUMPDEST JUMPDEST PUSH3 0x832 DUP5 DUP3 DUP6 PUSH3 0x7E0 JUMP JUMPDEST POP SWAP4 SWAP3 POP POP POP JUMP JUMPDEST PUSH1 0x0 DUP3 PUSH1 0x1F DUP4 ADD SLT PUSH3 0x852 JUMPI PUSH3 0x851 PUSH3 0x70B JUMP JUMPDEST JUMPDEST DUP2 CALLDATALOAD PUSH3 0x864 DUP5 DUP3 PUSH1 0x20 DUP7 ADD PUSH3 0x7EF JUMP JUMPDEST SWAP2 POP POP SWAP3 SWAP2 POP POP JUMP JUMPDEST PUSH1 0x2 DUP2 LT PUSH3 0x87B JUMPI PUSH1 0x0 DUP1 REVERT JUMPDEST POP JUMP JUMPDEST PUSH1 0x0 DUP2 CALLDATALOAD SWAP1 POP PUSH3 0x88F DUP2 PUSH3 0x86D JUMP JUMPDEST SWAP3 SWAP2 POP POP JUMP JUMPDEST PUSH1 0x0 DUP1 PUSH1 0x40 DUP4 DUP6 SUB SLT ISZERO PUSH3 0x8AF JUMPI PUSH3 0x8AE PUSH3 0x61F JUMP JUMPDEST JUMPDEST PUSH1 0x0 DUP4 ADD CALLDATALOAD PUSH8 0xFFFFFFFFFFFFFFFF DUP2 GT ISZERO PUSH3 0x8D0 JUMPI PUSH3 0x8CF PUSH3 0x624 JUMP JUMPDEST JUMPDEST PUSH3 0x8DE DUP6 DUP3 DUP7 ADD PUSH3 0x83A JUMP JUMPDEST SWAP3 POP POP PUSH1 0x20 PUSH3 0x8F1 DUP6 DUP3 DUP7 ADD PUSH3 0x87E JUMP JUMPDEST SWAP2 POP POP SWAP3 POP SWAP3 SWAP1 POP JUMP JUMPDEST PUSH1 0x0 PUSH20 0xFFFFFFFFFFFFFFFFFFFFFFFFFFFFFFFFFFFFFFFF DUP3 AND SWAP1 POP SWAP2 SWAP1 POP JUMP JUMPDEST PUSH1 0x0 DUP2 SWAP1 POP SWAP2 SWAP1 POP JUMP JUMPDEST PUSH1 0x0 PUSH3 0x946 PUSH3 0x940 PUSH3 0x93A DUP5 PUSH3 0x8FB JUMP JUMPDEST PUSH3 0x91B JUMP JUMPDEST PUSH3 0x8FB JUMP JUMPDEST SWAP1 POP SWAP2 SWAP1 POP JUMP JUMPDEST PUSH1 0x0 PUSH3 0x95A DUP3 PUSH3 0x925 JUMP JUMPDEST SWAP1 POP SWAP2 SWAP1 POP JUMP JUMPDEST PUSH1 0x0 PUSH3 0x96E DUP3 PUSH3 0x94D JUMP JUMPDEST SWAP1 POP SWAP2 SWAP1 POP JUMP JUMPDEST PUSH3 0x980 DUP2 PUSH3 0x961 JUMP JUMPDEST DUP3 MSTORE POP POP JUMP JUMPDEST PUSH1 0x0 PUSH1 0x20 DUP3 ADD SWAP1 POP PUSH3 0x99D PUSH1 0x0 DUP4 ADD DUP5 PUSH3 0x975 JUMP JUMPDEST SWAP3 SWAP2 POP POP JUMP JUMPDEST PUSH1 0x0 DUP2 MLOAD SWAP1 POP SWAP2 SWAP1 POP JUMP JUMPDEST PUSH1 0x0 DUP3 DUP3 MSTORE PUSH1 0x20 DUP3 ADD SWAP1 POP SWAP3 SWAP2 POP POP JUMP JUMPDEST PUSH1 0x0 JUMPDEST DUP4 DUP2 LT ISZERO PUSH3 0x9DF JUMPI DUP1 DUP3 ADD MLOAD DUP2 DUP5 ADD MSTORE PUSH1 0x20 DUP2 ADD SWAP1 POP PUSH3 0x9C2 JUMP JUMPDEST PUSH1 0x0 DUP5 DUP5 ADD MSTORE POP POP POP POP JUMP JUMPDEST PUSH1 0x0 PUSH3 0x9F8 DUP3 PUSH3 0x9A3 JUMP JUMPDEST PUSH3 0xA04 DUP2 DUP6 PUSH3 0x9AE JUMP JUMPDEST SWAP4 POP PUSH3 0xA16 DUP2 DUP6 PUSH1 0x20 DUP7 ADD PUSH3 0x9BF JUMP JUMPDEST PUSH3 0xA21 DUP2 PUSH3 0x715 JUMP JUMPDEST DUP5 ADD SWAP2 POP POP SWAP3 SWAP2 POP POP JUMP JUMPDEST PUSH1 0x0 PUSH1 0x20 DUP3 ADD SWAP1 POP DUP2 DUP2 SUB PUSH1 0x0 DUP4 ADD MSTORE PUSH3 0xA48 DUP2 DUP5 PUSH3 0x9EB JUMP JUMPDEST SWAP1 POP SWAP3 SWAP2 POP POP JUMP JUMPDEST PUSH32 0x4E487B7100000000000000000000000000000000000000000000000000000000 PUSH1 0x0 MSTORE PUSH1 0x32 PUSH1 0x4 MSTORE PUSH1 0x24 PUSH1 0x0 REVERT JUMPDEST PUSH1 0x0 DUP2 MLOAD SWAP1 POP PUSH3 0xA90 DUP2 PUSH3 0x633 JUMP JUMPDEST SWAP3 SWAP2 POP POP JUMP JUMPDEST PUSH1 0x0 PUSH1 0x20 DUP3 DUP5 SUB SLT ISZERO PUSH3 0xAAF JUMPI PUSH3 0xAAE PUSH3 0x61F JUMP JUMPDEST JUMPDEST PUSH1 0x0 PUSH3 0xABF DUP5 DUP3 DUP6 ADD PUSH3 0xA7F JUMP JUMPDEST SWAP2 POP POP SWAP3 SWAP2 POP POP JUMP JUMPDEST PUSH32 0x4E487B7100000000000000000000000000000000000000000000000000000000 PUSH1 0x0 MSTORE PUSH1 0x21 PUSH1 0x4 MSTORE PUSH1 0x24 PUSH1 0x0 REVERT JUMPDEST PUSH1 0x0 PUSH3 0xB0E PUSH3 0xB08 DUP5 PUSH3 0x7AA JUMP JUMPDEST PUSH3 0x78B JUMP JUMPDEST SWAP1 POP DUP3 DUP2 MSTORE PUSH1 0x20 DUP2 ADD DUP5 DUP5 DUP5 ADD GT ISZERO PUSH3 0xB2D JUMPI PUSH3 0xB2C PUSH3 0x710 JUMP JUMPDEST JUMPDEST PUSH3 0xB3A DUP5 DUP3 DUP6 PUSH3 0x9BF JUMP JUMPDEST POP SWAP4 SWAP3 POP POP POP JUMP JUMPDEST PUSH1 0x0 DUP3 PUSH1 0x1F DUP4 ADD SLT PUSH3 0xB5A JUMPI PUSH3 0xB59 PUSH3 0x70B JUMP JUMPDEST JUMPDEST DUP2 MLOAD PUSH3 0xB6C DUP5 DUP3 PUSH1 0x20 DUP7 ADD PUSH3 0xAF7 JUMP JUMPDEST SWAP2 POP POP SWAP3 SWAP2 POP POP JUMP JUMPDEST PUSH1 0x0 PUSH1 0x20 DUP3 DUP5 SUB SLT ISZERO PUSH3 0xB8E JUMPI PUSH3 0xB8D PUSH3 0x61F JUMP JUMPDEST JUMPDEST PUSH1 0x0 DUP3 ADD MLOAD PUSH8 0xFFFFFFFFFFFFFFFF DUP2 GT ISZERO PUSH3 0xBAF JUMPI PUSH3 0xBAE PUSH3 0x624 JUMP JUMPDEST JUMPDEST PUSH3 0xBBD DUP5 DUP3 DUP6 ADD PUSH3 0xB42 JUMP JUMPDEST SWAP2 POP POP SWAP3 SWAP2 POP POP JUMP INVALID PUSH1 0x80 PUSH1 0x40 MSTORE CALLVALUE DUP1 ISZERO PUSH3 0x11 JUMPI PUSH1 0x0 DUP1 REVERT JUMPDEST POP PUSH1 0x40 MLOAD PUSH3 0x9ED CODESIZE SUB DUP1 PUSH3 0x9ED DUP4 CODECOPY DUP2 DUP2 ADD PUSH1 0x40 MSTORE DUP2 ADD SWAP1 PUSH3 0x37 SWAP2 SWAP1 PUSH3 0x224 JUMP JUMPDEST DUP1 PUSH1 0x1 SWAP1 DUP2 PUSH3 0x48 SWAP2 SWAP1 PUSH3 0x4C0 JUMP JUMPDEST POP CALLER PUSH1 0x2 PUSH1 0x0 PUSH2 0x100 EXP DUP2 SLOAD DUP2 PUSH20 0xFFFFFFFFFFFFFFFFFFFFFFFFFFFFFFFFFFFFFFFF MUL NOT AND SWAP1 DUP4 PUSH20 0xFFFFFFFFFFFFFFFFFFFFFFFFFFFFFFFFFFFFFFFF AND MUL OR SWAP1 SSTORE POP POP PUSH3 0x5A7 JUMP JUMPDEST PUSH1 0x0 PUSH1 0x40 MLOAD SWAP1 POP SWAP1 JUMP JUMPDEST PUSH1 0x0 DUP1 REVERT JUMPDEST PUSH1 0x0 DUP1 REVERT JUMPDEST PUSH1 0x0 DUP1 REVERT JUMPDEST PUSH1 0x0 DUP1 REVERT JUMPDEST PUSH1 0x0 PUSH1 0x1F NOT PUSH1 0x1F DUP4 ADD AND SWAP1 POP SWAP2 SWAP1 POP JUMP JUMPDEST PUSH32 0x4E487B7100000000000000000000000000000000000000000000000000000000 PUSH1 0x0 MSTORE PUSH1 0x41 PUSH1 0x4 MSTORE PUSH1 0x24 PUSH1 0x0 REVERT JUMPDEST PUSH3 0xFA DUP3 PUSH3 0xAF JUMP JUMPDEST DUP2 ADD DUP2 DUP2 LT PUSH8 0xFFFFFFFFFFFFFFFF DUP3 GT OR ISZERO PUSH3 0x11C JUMPI PUSH3 0x11B PUSH3 0xC0 JUMP JUMPDEST JUMPDEST DUP1 PUSH1 0x40 MSTORE POP POP POP JUMP JUMPDEST PUSH1 0x0 PUSH3 0x131 PUSH3 0x91 JUMP JUMPDEST SWAP1 POP PUSH3 0x13F DUP3 DUP3 PUSH3 0xEF JUMP JUMPDEST SWAP2 SWAP1 POP JUMP JUMPDEST PUSH1 0x0 PUSH8 0xFFFFFFFFFFFFFFFF DUP3 GT ISZERO PUSH3 0x162 JUMPI PUSH3 0x161 PUSH3 0xC0 JUMP JUMPDEST JUMPDEST PUSH3 0x16D DUP3 PUSH3 0xAF JUMP JUMPDEST SWAP1 POP PUSH1 0x20 DUP2 ADD SWAP1 POP SWAP2 SWAP1 POP JUMP JUMPDEST PUSH1 0x0 JUMPDEST DUP4 DUP2 LT ISZERO PUSH3 0x19A JUMPI DUP1 DUP3 ADD MLOAD DUP2 DUP5 ADD MSTORE PUSH1 0x20 DUP2 ADD SWAP1 POP PUSH3 0x17D JUMP JUMPDEST PUSH1 0x0 DUP5 DUP5 ADD MSTORE POP POP POP POP JUMP JUMPDEST PUSH1 0x0 PUSH3 0x1BD PUSH3 0x1B7 DUP5 PUSH3 0x144 JUMP JUMPDEST PUSH3 0x125 JUMP JUMPDEST SWAP1 POP DUP3 DUP2 MSTORE PUSH1 0x20 DUP2 ADD DUP5 DUP5 DUP5 ADD GT ISZERO PUSH3 0x1DC JUMPI PUSH3 0x1DB PUSH3 0xAA JUMP JUMPDEST JUMPDEST PUSH3 0x1E9 DUP5 DUP3 DUP6 PUSH3 0x17A JUMP JUMPDEST POP SWAP4 SWAP3 POP POP POP JUMP JUMPDEST PUSH1 0x0 DUP3 PUSH1 0x1F DUP4 ADD SLT PUSH3 0x209 JUMPI PUSH3 0x208 PUSH3 0xA5 JUMP JUMPDEST JUMPDEST DUP2 MLOAD PUSH3 0x21B DUP5 DUP3 PUSH1 0x20 DUP7 ADD PUSH3 0x1A6 JUMP JUMPDEST SWAP2 POP POP SWAP3 SWAP2 POP POP JUMP JUMPDEST PUSH1 0x0 PUSH1 0x20 DUP3 DUP5 SUB SLT ISZERO PUSH3 0x23D JUMPI PUSH3 0x23C PUSH3 0x9B JUMP JUMPDEST JUMPDEST PUSH1 0x0 DUP3 ADD MLOAD PUSH8 0xFFFFFFFFFFFFFFFF DUP2 GT ISZERO PUSH3 0x25E JUMPI PUSH3 0x25D PUSH3 0xA0 JUMP JUMPDEST JUMPDEST PUSH3 0x26C DUP5 DUP3 DUP6 ADD PUSH3 0x1F1 JUMP JUMPDEST SWAP2 POP POP SWAP3 SWAP2 POP POP JUMP JUMPDEST PUSH1 0x0 DUP2 MLOAD SWAP1 POP SWAP2 SWAP1 POP JUMP JUMPDEST PUSH32 0x4E487B7100000000000000000000000000000000000000000000000000000000 PUSH1 0x0 MSTORE PUSH1 0x22 PUSH1 0x4 MSTORE PUSH1 0x24 PUSH1 0x0 REVERT JUMPDEST PUSH1 0x0 PUSH1 0x2 DUP3 DIV SWAP1 POP PUSH1 0x1 DUP3 AND DUP1 PUSH3 0x2C8 JUMPI PUSH1 0x7F DUP3 AND SWAP2 POP JUMPDEST PUSH1 0x20 DUP3 LT DUP2 SUB PUSH3 0x2DE JUMPI PUSH3 0x2DD PUSH3 0x280 JUMP JUMPDEST JUMPDEST POP SWAP2 SWAP1 POP JUMP JUMPDEST PUSH1 0x0 DUP2 SWAP1 POP DUP2 PUSH1 0x0 MSTORE PUSH1 0x20 PUSH1 0x0 KECCAK256 SWAP1 POP SWAP2 SWAP1 POP JUMP JUMPDEST PUSH1 0x0 PUSH1 0x20 PUSH1 0x1F DUP4 ADD DIV SWAP1 POP SWAP2 SWAP1 POP JUMP JUMPDEST PUSH1 0x0 DUP3 DUP3 SHL SWAP1 POP SWAP3 SWAP2 POP POP JUMP JUMPDEST PUSH1 0x0 PUSH1 0x8 DUP4 MUL PUSH3 0x348 PUSH32 0xFFFFFFFFFFFFFFFFFFFFFFFFFFFFFFFFFFFFFFFFFFFFFFFFFFFFFFFFFFFFFFFF DUP3 PUSH3 0x309 JUMP JUMPDEST PUSH3 0x354 DUP7 DUP4 PUSH3 0x309 JUMP JUMPDEST SWAP6 POP DUP1 NOT DUP5 AND SWAP4 POP DUP1 DUP7 AND DUP5 OR SWAP3 POP POP POP SWAP4 SWAP3 POP POP POP JUMP JUMPDEST PUSH1 0x0 DUP2 SWAP1 POP SWAP2 SWAP1 POP JUMP JUMPDEST PUSH1 0x0 DUP2 SWAP1 POP SWAP2 SWAP1 POP JUMP JUMPDEST PUSH1 0x0 PUSH3 0x3A1 PUSH3 0x39B PUSH3 0x395 DUP5 PUSH3 0x36C JUMP JUMPDEST PUSH3 0x376 JUMP JUMPDEST PUSH3 0x36C JUMP JUMPDEST SWAP1 POP SWAP2 SWAP1 POP JUMP JUMPDEST PUSH1 0x0 DUP2 SWAP1 POP SWAP2 SWAP1 POP JUMP JUMPDEST PUSH3 0x3BD DUP4 PUSH3 0x380 JUMP JUMPDEST PUSH3 0x3D5 PUSH3 0x3CC DUP3 PUSH3 0x3A8 JUMP JUMPDEST DUP5 DUP5 SLOAD PUSH3 0x316 JUMP JUMPDEST DUP3 SSTORE POP POP POP POP JUMP JUMPDEST PUSH1 0x0 SWAP1 JUMP JUMPDEST PUSH3 0x3EC PUSH3 0x3DD JUMP JUMPDEST PUSH3 0x3F9 DUP2 DUP5 DUP5 PUSH3 0x3B2 JUMP JUMPDEST POP POP POP JUMP JUMPDEST JUMPDEST DUP2 DUP2 LT ISZERO PUSH3 0x421 JUMPI PUSH3 0x415 PUSH1 0x0 DUP3 PUSH3 0x3E2 JUMP JUMPDEST PUSH1 0x1 DUP2 ADD SWAP1 POP PUSH3 0x3FF JUMP JUMPDEST POP POP JUMP JUMPDEST PUSH1 0x1F DUP3 GT ISZERO PUSH3 0x470 JUMPI PUSH3 0x43A DUP2 PUSH3 0x2E4 JUMP JUMPDEST PUSH3 0x445 DUP5 PUSH3 0x2F9 JUMP JUMPDEST DUP2 ADD PUSH1 0x20 DUP6 LT ISZERO PUSH3 0x455 JUMPI DUP2 SWAP1 POP JUMPDEST PUSH3 0x46D PUSH3 0x464 DUP6 PUSH3 0x2F9 JUMP JUMPDEST DUP4 ADD DUP3 PUSH3 0x3FE JUMP JUMPDEST POP POP JUMPDEST POP POP POP JUMP JUMPDEST PUSH1 0x0 DUP3 DUP3 SHR SWAP1 POP SWAP3 SWAP2 POP POP JUMP JUMPDEST PUSH1 0x0 PUSH3 0x495 PUSH1 0x0 NOT DUP5 PUSH1 0x8 MUL PUSH3 0x475 JUMP JUMPDEST NOT DUP1 DUP4 AND SWAP2 POP POP SWAP3 SWAP2 POP POP JUMP JUMPDEST PUSH1 0x0 PUSH3 0x4B0 DUP4 DUP4 PUSH3 0x482 JUMP JUMPDEST SWAP2 POP DUP3 PUSH1 0x2 MUL DUP3 OR SWAP1 POP SWAP3 SWAP2 POP POP JUMP JUMPDEST PUSH3 0x4CB DUP3 PUSH3 0x275 JUMP JUMPDEST PUSH8 0xFFFFFFFFFFFFFFFF DUP2 GT ISZERO PUSH3 0x4E7 JUMPI PUSH3 0x4E6 PUSH3 0xC0 JUMP JUMPDEST JUMPDEST PUSH3 0x4F3 DUP3 SLOAD PUSH3 0x2AF JUMP JUMPDEST PUSH3 0x500 DUP3 DUP3 DUP6 PUSH3 0x425 JUMP JUMPDEST PUSH1 0x0 PUSH1 0x20 SWAP1 POP PUSH1 0x1F DUP4 GT PUSH1 0x1 DUP2 EQ PUSH3 0x538 JUMPI PUSH1 0x0 DUP5 ISZERO PUSH3 0x523 JUMPI DUP3 DUP8 ADD MLOAD SWAP1 POP JUMPDEST PUSH3 0x52F DUP6 DUP3 PUSH3 0x4A2 JUMP JUMPDEST DUP7 SSTORE POP PUSH3 0x59F JUMP JUMPDEST PUSH1 0x1F NOT DUP5 AND PUSH3 0x548 DUP7 PUSH3 0x2E4 JUMP JUMPDEST PUSH1 0x0 JUMPDEST DUP3 DUP2 LT ISZERO PUSH3 0x572 JUMPI DUP5 DUP10 ADD MLOAD DUP3 SSTORE PUSH1 0x1 DUP3 ADD SWAP2 POP PUSH1 0x20 DUP6 ADD SWAP5 POP PUSH1 0x20 DUP2 ADD SWAP1 POP PUSH3 0x54B JUMP JUMPDEST DUP7 DUP4 LT ISZERO PUSH3 0x592 JUMPI DUP5 DUP10 ADD MLOAD PUSH3 0x58E PUSH1 0x1F DUP10 AND DUP3 PUSH3 0x482 JUMP JUMPDEST DUP4 SSTORE POP JUMPDEST PUSH1 0x1 PUSH1 0x2 DUP9 MUL ADD DUP9 SSTORE POP POP POP JUMPDEST POP POP POP POP POP POP JUMP JUMPDEST PUSH2 0x436 DUP1 PUSH3 0x5B7 PUSH1 0x0 CODECOPY PUSH1 0x0 RETURN INVALID PUSH1 0x80 PUSH1 0x40 MSTORE CALLVALUE DUP1 ISZERO PUSH2 0x10 JUMPI PUSH1 0x0 DUP1 REVERT JUMPDEST POP PUSH1 0x4 CALLDATASIZE LT PUSH2 0x41 JUMPI PUSH1 0x0 CALLDATALOAD PUSH1 0xE0 SHR DUP1 PUSH4 0x17D7DE7C EQ PUSH2 0x46 JUMPI DUP1 PUSH4 0x3FB5C1CB EQ PUSH2 0x64 JUMPI DUP1 PUSH4 0xF2C9ECD8 EQ PUSH2 0x80 JUMPI JUMPDEST PUSH1 0x0 DUP1 REVERT JUMPDEST PUSH2 0x4E PUSH2 0x9E JUMP JUMPDEST PUSH1 0x40 MLOAD PUSH2 0x5B SWAP2 SWAP1 PUSH2 0x2AA JUMP JUMPDEST PUSH1 0x40 MLOAD DUP1 SWAP2 SUB SWAP1 RETURN JUMPDEST PUSH2 0x7E PUSH1 0x4 DUP1 CALLDATASIZE SUB DUP2 ADD SWAP1 PUSH2 0x79 SWAP2 SWAP1 PUSH2 0x307 JUMP JUMPDEST PUSH2 0x130 JUMP JUMPDEST STOP JUMPDEST PUSH2 0x88 PUSH2 0x211 JUMP JUMPDEST PUSH1 0x40 MLOAD PUSH2 0x95 SWAP2 SWAP1 PUSH2 0x343 JUMP JUMPDEST PUSH1 0x40 MLOAD DUP1 SWAP2 SUB SWAP1 RETURN JUMPDEST PUSH1 0x60 PUSH1 0x1 DUP1 SLOAD PUSH2 0xAD SWAP1 PUSH2 0x38D JUMP JUMPDEST DUP1 PUSH1 0x1F ADD PUSH1 0x20 DUP1 SWAP2 DIV MUL PUSH1 0x20 ADD PUSH1 0x40 MLOAD SWAP1 DUP2 ADD PUSH1 0x40 MSTORE DUP1 SWAP3 SWAP2 SWAP1 DUP2 DUP2 MSTORE PUSH1 0x20 ADD DUP3 DUP1 SLOAD PUSH2 0xD9 SWAP1 PUSH2 0x38D JUMP JUMPDEST DUP1 ISZERO PUSH2 0x126 JUMPI DUP1 PUSH1 0x1F LT PUSH2 0xFB JUMPI PUSH2 0x100 DUP1 DUP4 SLOAD DIV MUL DUP4 MSTORE SWAP2 PUSH1 0x20 ADD SWAP2 PUSH2 0x126 JUMP JUMPDEST DUP3 ADD SWAP2 SWAP1 PUSH1 0x0 MSTORE PUSH1 0x20 PUSH1 0x0 KECCAK256 SWAP1 JUMPDEST DUP2 SLOAD DUP2 MSTORE SWAP1 PUSH1 0x1 ADD SWAP1 PUSH1 0x20 ADD DUP1 DUP4 GT PUSH2 0x109 JUMPI DUP3 SWAP1 SUB PUSH1 0x1F AND DUP3 ADD SWAP2 JUMPDEST POP POP POP POP POP SWAP1 POP SWAP1 JUMP JUMPDEST PUSH1 0x2 PUSH1 0x0 SWAP1 SLOAD SWAP1 PUSH2 0x100 EXP SWAP1 DIV PUSH20 0xFFFFFFFFFFFFFFFFFFFFFFFFFFFFFFFFFFFFFFFF AND PUSH20 0xFFFFFFFFFFFFFFFFFFFFFFFFFFFFFFFFFFFFFFFF AND CALLER PUSH20 0xFFFFFFFFFFFFFFFFFFFFFFFFFFFFFFFFFFFFFFFF AND EQ PUSH2 0x18A JUMPI PUSH1 0x0 DUP1 REVERT JUMPDEST PUSH2 0x3E8 ADDRESS PUSH20 0xFFFFFFFFFFFFFFFFFFFFFFFFFFFFFFFFFFFFFFFF AND PUSH4 0xF2C9ECD8 PUSH1 0x40 MLOAD DUP2 PUSH4 0xFFFFFFFF AND PUSH1 0xE0 SHL DUP2 MSTORE PUSH1 0x4 ADD PUSH1 0x20 PUSH1 0x40 MLOAD DUP1 DUP4 SUB DUP2 DUP7 GAS STATICCALL ISZERO DUP1 ISZERO PUSH2 0x1D8 JUMPI RETURNDATASIZE PUSH1 0x0 DUP1 RETURNDATACOPY RETURNDATASIZE PUSH1 0x0 REVERT JUMPDEST POP POP POP POP PUSH1 0x40 MLOAD RETURNDATASIZE PUSH1 0x1F NOT PUSH1 0x1F DUP3 ADD AND DUP3 ADD DUP1 PUSH1 0x40 MSTORE POP DUP2 ADD SWAP1 PUSH2 0x1FC SWAP2 SWAP1 PUSH2 0x3D3 JUMP JUMPDEST GT ISZERO PUSH2 0x207 JUMPI PUSH1 0x0 DUP1 REVERT JUMPDEST DUP1 PUSH1 0x0 DUP2 SWAP1 SSTORE POP POP JUMP JUMPDEST PUSH1 0x0 DUP1 SLOAD SWAP1 POP SWAP1 JUMP JUMPDEST PUSH1 0x0 DUP2 MLOAD SWAP1 POP SWAP2 SWAP1 POP JUMP JUMPDEST PUSH1 0x0 DUP3 DUP3 MSTORE PUSH1 0x20 DUP3 ADD SWAP1 POP SWAP3 SWAP2 POP POP JUMP JUMPDEST PUSH1 0x0 JUMPDEST DUP4 DUP2 LT ISZERO PUSH2 0x254 JUMPI DUP1 DUP3 ADD MLOAD DUP2 DUP5 ADD MSTORE PUSH1 0x20 DUP2 ADD SWAP1 POP PUSH2 0x239 JUMP JUMPDEST PUSH1 0x0 DUP5 DUP5 ADD MSTORE POP POP POP POP JUMP JUMPDEST PUSH1 0x0 PUSH1 0x1F NOT PUSH1 0x1F DUP4 ADD AND SWAP1 POP SWAP2 SWAP1 POP JUMP JUMPDEST PUSH1 0x0 PUSH2 0x27C DUP3 PUSH2 0x21A JUMP JUMPDEST PUSH2 0x286 DUP2 DUP6 PUSH2 0x225 JUMP JUMPDEST SWAP4 POP PUSH2 0x296 DUP2 DUP6 PUSH1 0x20 DUP7 ADD PUSH2 0x236 JUMP JUMPDEST PUSH2 0x29F DUP2 PUSH2 0x260 JUMP JUMPDEST DUP5 ADD SWAP2 POP POP SWAP3 SWAP2 POP POP JUMP JUMPDEST PUSH1 0x0 PUSH1 0x20 DUP3 ADD SWAP1 POP DUP2 DUP2 SUB PUSH1 0x0 DUP4 ADD MSTORE PUSH2 0x2C4 DUP2 DUP5 PUSH2 0x271 JUMP JUMPDEST SWAP1 POP SWAP3 SWAP2 POP POP JUMP JUMPDEST PUSH1 0x0 DUP1 REVERT JUMPDEST PUSH1 0x0 DUP2 SWAP1 POP SWAP2 SWAP1 POP JUMP JUMPDEST PUSH2 0x2E4 DUP2 PUSH2 0x2D1 JUMP JUMPDEST DUP2 EQ PUSH2 0x2EF JUMPI PUSH1 0x0 DUP1 REVERT JUMPDEST POP JUMP JUMPDEST PUSH1 0x0 DUP2 CALLDATALOAD SWAP1 POP PUSH2 0x301 DUP2 PUSH2 0x2DB JUMP JUMPDEST SWAP3 SWAP2 POP POP JUMP JUMPDEST PUSH1 0x0 PUSH1 0x20 DUP3 DUP5 SUB SLT ISZERO PUSH2 0x31D JUMPI PUSH2 0x31C PUSH2 0x2CC JUMP JUMPDEST JUMPDEST PUSH1 0x0 PUSH2 0x32B DUP5 DUP3 DUP6 ADD PUSH2 0x2F2 JUMP JUMPDEST SWAP2 POP POP SWAP3 SWAP2 POP POP JUMP JUMPDEST PUSH2 0x33D DUP2 PUSH2 0x2D1 JUMP JUMPDEST DUP3 MSTORE POP POP JUMP JUMPDEST PUSH1 0x0 PUSH1 0x20 DUP3 ADD SWAP1 POP PUSH2 0x358 PUSH1 0x0 DUP4 ADD DUP5 PUSH2 0x334 JUMP JUMPDEST SWAP3 SWAP2 POP POP JUMP JUMPDEST PUSH32 0x4E487B7100000000000000000000000000000000000000000000000000000000 PUSH1 0x0 MSTORE PUSH1 0x22 PUSH1 0x4 MSTORE PUSH1 0x24 PUSH1 0x0 REVERT JUMPDEST PUSH1 0x0 PUSH1 0x2 DUP3 DIV SWAP1 POP PUSH1 0x1 DUP3 AND DUP1 PUSH2 0x3A5 JUMPI PUSH1 0x7F DUP3 AND SWAP2 POP JUMPDEST PUSH1 0x20 DUP3 LT DUP2 SUB PUSH2 0x3B8 JUMPI PUSH2 0x3B7 PUSH2 0x35E JUMP JUMPDEST JUMPDEST POP SWAP2 SWAP1 POP JUMP JUMPDEST PUSH1 0x0 DUP2 MLOAD SWAP1 POP PUSH2 0x3CD DUP2 PUSH2 0x2DB JUMP JUMPDEST SWAP3 SWAP2 POP POP JUMP JUMPDEST PUSH1 0x0 PUSH1 0x20 DUP3 DUP5 SUB SLT ISZERO PUSH2 0x3E9 JUMPI PUSH2 0x3E8 PUSH2 0x2CC JUMP JUMPDEST JUMPDEST PUSH1 0x0 PUSH2 0x3F7 DUP5 DUP3 DUP6 ADD PUSH2 0x3BE JUMP JUMPDEST SWAP2 POP POP SWAP3 SWAP2 POP POP JUMP INVALID LOG2 PUSH5 0x6970667358 0x22 SLT KECCAK256 0xB3 0x1F PUSH27 0x97D428A9ED463A4E41BB736642171902B2A3275794C7A8E9B48E8F 0x25 DIV PUSH5 0x736F6C6343 STOP ADDMOD SLT STOP CALLER PUSH1 0x80 PUSH1 0x40 MSTORE PUSH1 0x40 MLOAD DUP1 PUSH1 0x40 ADD PUSH1 0x40 MSTORE DUP1 PUSH1 0xA DUP2 MSTORE PUSH1 0x20 ADD PUSH32 0x73757065727661756C7400000000000000000000000000000000000000000000 DUP2 MSTORE POP PUSH1 0x1 SWAP1 DUP2 PUSH2 0x48 SWAP2 SWAP1 PUSH2 0x2AB JUMP JUMPDEST POP CALLVALUE DUP1 ISZERO PUSH2 0x55 JUMPI PUSH1 0x0 DUP1 REVERT JUMPDEST POP PUSH2 0x37D JUMP JUMPDEST PUSH1 0x0 DUP2 MLOAD SWAP1 POP SWAP2 SWAP1 POP JUMP JUMPDEST PUSH32 0x4E487B7100000000000000000000000000000000000000000000000000000000 PUSH1 0x0 MSTORE PUSH1 0x41 PUSH1 0x4 MSTORE PUSH1 0x24 PUSH1 0x0 REVERT JUMPDEST PUSH32 0x4E487B7100000000000000000000000000000000000000000000000000000000 PUSH1 0x0 MSTORE PUSH1 0x22 PUSH1 0x4 MSTORE PUSH1 0x24 PUSH1 0x0 REVERT JUMPDEST PUSH1 0x0 PUSH1 0x2 DUP3 DIV SWAP1 POP PUSH1 0x1 DUP3 AND DUP1 PUSH2 0xDC JUMPI PUSH1 0x7F DUP3 AND SWAP2 POP JUMPDEST PUSH1 0x20 DUP3 LT DUP2 SUB PUSH2 0xEF JUMPI PUSH2 0xEE PUSH2 0x95 JUMP JUMPDEST JUMPDEST POP SWAP2 SWAP1 POP JUMP JUMPDEST PUSH1 0x0 DUP2 SWAP1 POP DUP2 PUSH1 0x0 MSTORE PUSH1 0x20 PUSH1 0x0 KECCAK256 SWAP1 POP SWAP2 SWAP1 POP JUMP JUMPDEST PUSH1 0x0 PUSH1 0x20 PUSH1 0x1F DUP4 ADD DIV SWAP1 POP SWAP2 SWAP1 POP JUMP JUMPDEST PUSH1 0x0 DUP3 DUP3 SHL SWAP1 POP SWAP3 SWAP2 POP POP JUMP JUMPDEST PUSH1 0x0 PUSH1 0x8 DUP4 MUL PUSH2 0x157 PUSH32 0xFFFFFFFFFFFFFFFFFFFFFFFFFFFFFFFFFFFFFFFFFFFFFFFFFFFFFFFFFFFFFFFF DUP3 PUSH2 0x11A JUMP JUMPDEST PUSH2 0x161 DUP7 DUP4 PUSH2 0x11A JUMP JUMPDEST SWAP6 POP DUP1 NOT DUP5 AND SWAP4 POP DUP1 DUP7 AND DUP5 OR SWAP3 POP POP POP SWAP4 SWAP3 POP POP POP JUMP JUMPDEST PUSH1 0x0 DUP2 SWAP1 POP SWAP2 SWAP1 POP JUMP JUMPDEST PUSH1 0x0 DUP2 SWAP1 POP SWAP2 SWAP1 POP JUMP JUMPDEST PUSH1 0x0 PUSH2 0x1A8 PUSH2 0x1A3 PUSH2 0x19E DUP5 PUSH2 0x179 JUMP JUMPDEST PUSH2 0x183 JUMP JUMPDEST PUSH2 0x179 JUMP JUMPDEST SWAP1 POP SWAP2 SWAP1 POP JUMP JUMPDEST PUSH1 0x0 DUP2 SWAP1 POP SWAP2 SWAP1 POP JUMP JUMPDEST PUSH2 0x1C2 DUP4 PUSH2 0x18D JUMP JUMPDEST PUSH2 0x1D6 PUSH2 0x1CE DUP3 PUSH2 0x1AF JUMP JUMPDEST DUP5 DUP5 SLOAD PUSH2 0x127 JUMP JUMPDEST DUP3 SSTORE POP POP POP POP JUMP JUMPDEST PUSH1 0x0 SWAP1 JUMP JUMPDEST PUSH2 0x1EB PUSH2 0x1DE JUMP JUMPDEST PUSH2 0x1F6 DUP2 DUP5 DUP5 PUSH2 0x1B9 JUMP JUMPDEST POP POP POP JUMP JUMPDEST JUMPDEST DUP2 DUP2 LT ISZERO PUSH2 0x21A JUMPI PUSH2 0x20F PUSH1 0x0 DUP3 PUSH2 0x1E3 JUMP JUMPDEST PUSH1 0x1 DUP2 ADD SWAP1 POP PUSH2 0x1FC JUMP JUMPDEST POP POP JUMP JUMPDEST PUSH1 0x1F DUP3 GT ISZERO PUSH2 0x25F JUMPI PUSH2 0x230 DUP2 PUSH2 0xF5 JUMP JUMPDEST PUSH2 0x239 DUP5 PUSH2 0x10A JUMP JUMPDEST DUP2 ADD PUSH1 0x20 DUP6 LT ISZERO PUSH2 0x248 JUMPI DUP2 SWAP1 POP JUMPDEST PUSH2 0x25C PUSH2 0x254 DUP6 PUSH2 0x10A JUMP JUMPDEST DUP4 ADD DUP3 PUSH2 0x1FB JUMP JUMPDEST POP POP JUMPDEST POP POP POP JUMP JUMPDEST PUSH1 0x0 DUP3 DUP3 SHR SWAP1 POP SWAP3 SWAP2 POP POP JUMP JUMPDEST PUSH1 0x0 PUSH2 0x282 PUSH1 0x0 NOT DUP5 PUSH1 0x8 MUL PUSH2 0x264 JUMP JUMPDEST NOT DUP1 DUP4 AND SWAP2 POP POP SWAP3 SWAP2 POP POP JUMP JUMPDEST PUSH1 0x0 PUSH2 0x29B DUP4 DUP4 PUSH2 0x271 JUMP JUMPDEST SWAP2 POP DUP3 PUSH1 0x2 MUL DUP3 OR SWAP1 POP SWAP3 SWAP2 POP POP JUMP JUMPDEST PUSH2 0x2B4 DUP3 PUSH2 0x5B JUMP JUMPDEST PUSH8 0xFFFFFFFFFFFFFFFF DUP2 GT ISZERO PUSH2 0x2CD JUMPI PUSH2 0x2CC PUSH2 0x66 JUMP JUMPDEST JUMPDEST PUSH2 0x2D7 DUP3 SLOAD PUSH2 0xC4 JUMP JUMPDEST PUSH2 0x2E2 DUP3 DUP3 DUP6 PUSH2 0x21E JUMP JUMPDEST PUSH1 0x0 PUSH1 0x20 SWAP1 POP PUSH1 0x1F DUP4 GT PUSH1 0x1 DUP2 EQ PUSH2 0x315 JUMPI PUSH1 0x0 DUP5 ISZERO PUSH2 0x303 JUMPI DUP3 DUP8 ADD MLOAD SWAP1 POP JUMPDEST PUSH2 0x30D DUP6 DUP3 PUSH2 0x28F JUMP JUMPDEST DUP7 SSTORE POP PUSH2 0x375 JUMP JUMPDEST PUSH1 0x1F NOT DUP5 AND PUSH2 0x323 DUP7 PUSH2 0xF5 JUMP JUMPDEST PUSH1 0x0 JUMPDEST DUP3 DUP2 LT ISZERO PUSH2 0x34B JUMPI DUP5 DUP10 ADD MLOAD DUP3 SSTORE PUSH1 0x1 DUP3 ADD SWAP2 POP PUSH1 0x20 DUP6 ADD SWAP5 POP PUSH1 0x20 DUP2 ADD SWAP1 POP PUSH2 0x326 JUMP JUMPDEST DUP7 DUP4 LT ISZERO PUSH2 0x368 JUMPI DUP5 DUP10 ADD MLOAD PUSH2 0x364 PUSH1 0x1F DUP10 AND DUP3 PUSH2 0x271 JUMP JUMPDEST DUP4 SSTORE POP JUMPDEST PUSH1 0x1 PUSH1 0x2 DUP9 MUL ADD DUP9 SSTORE POP POP POP JUMPDEST POP POP POP POP POP POP JUMP JUMPDEST PUSH2 0x212 DUP1 PUSH2 0x38C PUSH1 0x0 CODECOPY PUSH1 0x0 RETURN INVALID PUSH1 0x80 PUSH1 0x40 MSTORE CALLVALUE DUP1 ISZERO PUSH2 0x10 JUMPI PUSH1 0x0 DUP1 REVERT JUMPDEST POP PUSH1 0x4 CALLDATASIZE LT PUSH2 0x36 JUMPI PUSH1 0x0 CALLDATALOAD PUSH1 0xE0 SHR DUP1 PUSH4 0x3FB5C1CB EQ PUSH2 0x3B JUMPI DUP1 PUSH4 0xF2C9ECD8 EQ PUSH2 0x57 JUMPI JUMPDEST PUSH1 0x0 DUP1 REVERT JUMPDEST PUSH2 0x55 PUSH1 0x4 DUP1 CALLDATASIZE SUB DUP2 ADD SWAP1 PUSH2 0x50 SWAP2 SWAP1 PUSH2 0x108 JUMP JUMPDEST PUSH2 0x75 JUMP JUMPDEST STOP JUMPDEST PUSH2 0x5F PUSH2 0xC4 JUMP JUMPDEST PUSH1 0x40 MLOAD PUSH2 0x6C SWAP2 SWAP1 PUSH2 0x144 JUMP JUMPDEST PUSH1 0x40 MLOAD DUP1 SWAP2 SUB SWAP1 RETURN JUMPDEST PUSH2 0x1F4 DUP2 GT ISZERO PUSH2 0xBA JUMPI PUSH1 0x40 MLOAD PUSH32 0x8C379A000000000000000000000000000000000000000000000000000000000 DUP2 MSTORE PUSH1 0x4 ADD PUSH2 0xB1 SWAP1 PUSH2 0x1BC JUMP JUMPDEST PUSH1 0x40 MLOAD DUP1 SWAP2 SUB SWAP1 REVERT JUMPDEST DUP1 PUSH1 0x0 DUP2 SWAP1 SSTORE POP POP JUMP JUMPDEST PUSH1 0x0 DUP1 SLOAD SWAP1 POP SWAP1 JUMP JUMPDEST PUSH1 0x0 DUP1 REVERT JUMPDEST PUSH1 0x0 DUP2 SWAP1 POP SWAP2 SWAP1 POP JUMP JUMPDEST PUSH2 0xE5 DUP2 PUSH2 0xD2 JUMP JUMPDEST DUP2 EQ PUSH2 0xF0 JUMPI PUSH1 0x0 DUP1 REVERT JUMPDEST POP JUMP JUMPDEST PUSH1 0x0 DUP2 CALLDATALOAD SWAP1 POP PUSH2 0x102 DUP2 PUSH2 0xDC JUMP JUMPDEST SWAP3 SWAP2 POP POP JUMP JUMPDEST PUSH1 0x0 PUSH1 0x20 DUP3 DUP5 SUB SLT ISZERO PUSH2 0x11E JUMPI PUSH2 0x11D PUSH2 0xCD JUMP JUMPDEST JUMPDEST PUSH1 0x0 PUSH2 0x12C DUP5 DUP3 DUP6 ADD PUSH2 0xF3 JUMP JUMPDEST SWAP2 POP POP SWAP3 SWAP2 POP POP JUMP JUMPDEST PUSH2 0x13E DUP2 PUSH2 0xD2 JUMP JUMPDEST DUP3 MSTORE POP POP JUMP JUMPDEST PUSH1 0x0 PUSH1 0x20 DUP3 ADD SWAP1 POP PUSH2 0x159 PUSH1 0x0 DUP4 ADD DUP5 PUSH2 0x135 JUMP JUMPDEST SWAP3 SWAP2 POP POP JUMP JUMPDEST PUSH1 0x0 DUP3 DUP3 MSTORE PUSH1 0x20 DUP3 ADD SWAP1 POP SWAP3 SWAP2 POP POP JUMP JUMPDEST PUSH32 0x4E756D62657220746F6F206C6172676521000000000000000000000000000000 PUSH1 0x0 DUP3 ADD MSTORE POP JUMP JUMPDEST PUSH1 0x0 PUSH2 0x1A6 PUSH1 0x11 DUP4 PUSH2 0x15F JUMP JUMPDEST SWAP2 POP PUSH2 0x1B1 DUP3 PUSH2 0x170 JUMP JUMPDEST PUSH1 0x20 DUP3 ADD SWAP1 POP SWAP2 SWAP1 POP JUMP JUMPDEST PUSH1 0x0 PUSH1 0x20 DUP3 ADD SWAP1 POP DUP2 DUP2 SUB PUSH1 0x0 DUP4 ADD MSTORE PUSH2 0x1D5 DUP2 PUSH2 0x199 JUMP JUMPDEST SWAP1 POP SWAP2 SWAP1 POP JUMP INVALID LOG2 PUSH5 0x6970667358 0x22 SLT KECCAK256 RETURNDATACOPY LOG0 MOD 0xB7 DUP8 0xD1 PUSH2 0x1189 0xD8 CALLCODE PUSH22 0x30CC7C6C11657B30E1B315252D2C8EC2C4A988C36473 PUSH16 0x6C63430008120033A264697066735822 SLT KECCAK256 DUP6 0x23 JUMPI SIGNEXTEND 0xCA SWAP6 SLOAD SWAP11 0xE8 0xC2 0xA9 0xC BALANCE 0xD6 SWAP9 0x1E DUP10 0xC9 PUSH18 0xB84895AC047FAE9824DE634D3B64736F6C63 NUMBER STOP ADDMOD SLT STOP CALLER "
				},
				"gasEstimates": {
					"creation": {
						"codeDepositCost": "1409400",
						"executionCost": "1472",
						"totalCost": "1410872"
					},
					"external": {
						"allVaults(uint256)": "infinite",
						"createVault(string,uint8)": "infinite",
						"getAllVaultsCount()": "2511",
						"getVault(uint256)": "infinite",
						"getVaultName(uint256)": "infinite",
						"getVaultNumber(uint256)": "infinite",
						"setVaultNumber(uint256,uint256)": "infinite"
					}
				},
				"methodIdentifiers": {
					"allVaults(uint256)": "9094a91e",
					"createVault(string,uint8)": "7f8556f4",
					"getAllVaultsCount()": "e8620af1",
					"getVault(uint256)": "9403b634",
					"getVaultName(uint256)": "bd880c9c",
					"getVaultNumber(uint256)": "73eebef8",
					"setVaultNumber(uint256,uint256)": "1248ff83"
				}
			},
			"storageLayout": {
				"storage": [
					{
						"astId": 14,
						"contract": "remix-section-2/Factory.sol:Factory",
						"label": "allVaults",
						"offset": 0,
						"slot": "0",
						"type": "t_array(t_contract(InitialVault)208)dyn_storage"
					}
				],
				"types": {
					"t_array(t_contract(InitialVault)208)dyn_storage": {
						"base": "t_contract(InitialVault)208",
						"encoding": "dynamic_array",
						"label": "contract InitialVault[]",
						"numberOfBytes": "32"
					},
					"t_contract(InitialVault)208": {
						"encoding": "inplace",
						"label": "contract InitialVault",
						"numberOfBytes": "20"
					}
				}
			},
			"userdoc": {
				"kind": "user",
				"methods": {},
				"version": 1
			}
		}
	}
}