{
	"Struct-Array.sol": {
		"PeopleList": {
			"abi": [
				{
					"inputs": [
						{
							"internalType": "string",
							"name": "_name",
							"type": "string"
						},
						{
							"internalType": "uint256",
							"name": "_age",
							"type": "uint256"
						}
					],
					"name": "addPerson",
					"outputs": [],
					"stateMutability": "nonpayable",
					"type": "function"
				},
				{
					"inputs": [
						{
							"internalType": "uint256",
							"name": "index",
							"type": "uint256"
						}
					],
					"name": "getPerson",
					"outputs": [
						{
							"internalType": "string",
							"name": "name",
							"type": "string"
						},
						{
							"internalType": "uint256",
							"name": "",
							"type": "uint256"
						}
					],
					"stateMutability": "view",
					"type": "function"
				},
				{
					"inputs": [
						{
							"internalType": "uint256",
							"name": "",
							"type": "uint256"
						}
					],
					"name": "people",
					"outputs": [
						{
							"internalType": "string",
							"name": "name",
							"type": "string"
						},
						{
							"internalType": "uint256",
							"name": "age",
							"type": "uint256"
						}
					],
					"stateMutability": "view",
					"type": "function"
				}
			],
			"devdoc": {
				"kind": "dev",
				"methods": {},
				"version": 1
			},
			"evm": {
				"assembly": "    /* \"Struct-Array.sol\":520:1018  contract PeopleList{... */\n  mstore(0x40, 0x80)\n  callvalue\n  dup1\n  iszero\n  tag_1\n  jumpi\n  0x00\n  dup1\n  revert\ntag_1:\n  pop\n  dataSize(sub_0)\n  dup1\n  dataOffset(sub_0)\n  0x00\n  codecopy\n  0x00\n  return\nstop\n\nsub_0: assembly {\n        /* \"Struct-Array.sol\":520:1018  contract PeopleList{... */\n      mstore(0x40, 0x80)\n      callvalue\n      dup1\n      iszero\n      tag_1\n      jumpi\n      0x00\n      dup1\n      revert\n    tag_1:\n      pop\n      jumpi(tag_2, lt(calldatasize, 0x04))\n      shr(0xe0, calldataload(0x00))\n      dup1\n      0x246982c4\n      eq\n      tag_3\n      jumpi\n      dup1\n      0x6f760f41\n      eq\n      tag_4\n      jumpi\n      dup1\n      0x9e7a13ad\n      eq\n      tag_5\n      jumpi\n    tag_2:\n      0x00\n      dup1\n      revert\n        /* \"Struct-Array.sol\":836:1016  function getPerson(uint index) public view returns (string memory name, uint){... */\n    tag_3:\n      tag_6\n      0x04\n      dup1\n      calldatasize\n      sub\n      dup2\n      add\n      swap1\n      tag_7\n      swap2\n      swap1\n      tag_8\n      jump\t// in\n    tag_7:\n      tag_9\n      jump\t// in\n    tag_6:\n      mload(0x40)\n      tag_10\n      swap3\n      swap2\n      swap1\n      tag_11\n      jump\t// in\n    tag_10:\n      mload(0x40)\n      dup1\n      swap2\n      sub\n      swap1\n      return\n        /* \"Struct-Array.sol\":639:746  function addPerson(string memory _name, uint _age) public {... */\n    tag_4:\n      tag_12\n      0x04\n      dup1\n      calldatasize\n      sub\n      dup2\n      add\n      swap1\n      tag_13\n      swap2\n      swap1\n      tag_14\n      jump\t// in\n    tag_13:\n      tag_15\n      jump\t// in\n    tag_12:\n      stop\n        /* \"Struct-Array.sol\":610:632  Person[] public people */\n    tag_5:\n      tag_16\n      0x04\n      dup1\n      calldatasize\n      sub\n      dup2\n      add\n      swap1\n      tag_17\n      swap2\n      swap1\n      tag_8\n      jump\t// in\n    tag_17:\n      tag_18\n      jump\t// in\n    tag_16:\n      mload(0x40)\n      tag_19\n      swap3\n      swap2\n      swap1\n      tag_11\n      jump\t// in\n    tag_19:\n      mload(0x40)\n      dup1\n      swap2\n      sub\n      swap1\n      return\n        /* \"Struct-Array.sol\":836:1016  function getPerson(uint index) public view returns (string memory name, uint){... */\n    tag_9:\n        /* \"Struct-Array.sol\":888:906  string memory name */\n      0x60\n        /* \"Struct-Array.sol\":908:912  uint */\n      0x00\n        /* \"Struct-Array.sol\":939:945  people */\n      dup1\n        /* \"Struct-Array.sol\":939:952  people.length */\n      dup1\n      sload\n      swap1\n      pop\n        /* \"Struct-Array.sol\":931:936  index */\n      dup4\n        /* \"Struct-Array.sol\":931:952  index < people.length */\n      lt\n        /* \"Struct-Array.sol\":923:953  require(index < people.length) */\n      tag_21\n      jumpi\n      0x00\n      dup1\n      revert\n    tag_21:\n        /* \"Struct-Array.sol\":971:977  people */\n      0x00\n        /* \"Struct-Array.sol\":978:983  index */\n      dup4\n        /* \"Struct-Array.sol\":971:984  people[index] */\n      dup2\n      sload\n      dup2\n      lt\n      tag_22\n      jumpi\n      tag_23\n      tag_24\n      jump\t// in\n    tag_23:\n    tag_22:\n      swap1\n      0x00\n      mstore\n      keccak256(0x00, 0x20)\n      swap1\n      0x02\n      mul\n      add\n        /* \"Struct-Array.sol\":971:989  people[index].name */\n      0x00\n      add\n        /* \"Struct-Array.sol\":991:997  people */\n      0x00\n        /* \"Struct-Array.sol\":998:1003  index */\n      dup5\n        /* \"Struct-Array.sol\":991:1004  people[index] */\n      dup2\n      sload\n      dup2\n      lt\n      tag_26\n      jumpi\n      tag_27\n      tag_24\n      jump\t// in\n    tag_27:\n    tag_26:\n      swap1\n      0x00\n      mstore\n      keccak256(0x00, 0x20)\n      swap1\n      0x02\n      mul\n      add\n        /* \"Struct-Array.sol\":991:1008  people[index].age */\n      0x01\n      add\n      sload\n        /* \"Struct-Array.sol\":963:1009  return (people[index].name, people[index].age) */\n      dup2\n      dup1\n      sload\n      tag_29\n      swap1\n      tag_30\n      jump\t// in\n    tag_29:\n      dup1\n      0x1f\n      add\n      0x20\n      dup1\n      swap2\n      div\n      mul\n      0x20\n      add\n      mload(0x40)\n      swap1\n      dup2\n      add\n      0x40\n      mstore\n      dup1\n      swap3\n      swap2\n      swap1\n      dup2\n      dup2\n      mstore\n      0x20\n      add\n      dup3\n      dup1\n      sload\n      tag_31\n      swap1\n      tag_30\n      jump\t// in\n    tag_31:\n      dup1\n      iszero\n      tag_32\n      jumpi\n      dup1\n      0x1f\n      lt\n      tag_33\n      jumpi\n      0x0100\n      dup1\n      dup4\n      sload\n      div\n      mul\n      dup4\n      mstore\n      swap2\n      0x20\n      add\n      swap2\n      jump(tag_32)\n    tag_33:\n      dup3\n      add\n      swap2\n      swap1\n      0x00\n      mstore\n      keccak256(0x00, 0x20)\n      swap1\n    tag_34:\n      dup2\n      sload\n      dup2\n      mstore\n      swap1\n      0x01\n      add\n      swap1\n      0x20\n      add\n      dup1\n      dup4\n      gt\n      tag_34\n      jumpi\n      dup3\n      swap1\n      sub\n      0x1f\n      and\n      dup3\n      add\n      swap2\n    tag_32:\n      pop\n      pop\n      pop\n      pop\n      pop\n      swap2\n      pop\n      swap2\n      pop\n      swap2\n      pop\n        /* \"Struct-Array.sol\":836:1016  function getPerson(uint index) public view returns (string memory name, uint){... */\n      swap2\n      pop\n      swap2\n      jump\t// out\n        /* \"Struct-Array.sol\":639:746  function addPerson(string memory _name, uint _age) public {... */\n    tag_15:\n        /* \"Struct-Array.sol\":707:713  people */\n      0x00\n        /* \"Struct-Array.sol\":719:738  Person(_name, _age) */\n      mload(0x40)\n      dup1\n      0x40\n      add\n      0x40\n      mstore\n      dup1\n        /* \"Struct-Array.sol\":726:731  _name */\n      dup5\n        /* \"Struct-Array.sol\":719:738  Person(_name, _age) */\n      dup2\n      mstore\n      0x20\n      add\n        /* \"Struct-Array.sol\":733:737  _age */\n      dup4\n        /* \"Struct-Array.sol\":719:738  Person(_name, _age) */\n      dup2\n      mstore\n      pop\n        /* \"Struct-Array.sol\":707:739  people.push(Person(_name, _age)) */\n      swap1\n      dup1\n      0x01\n      dup2\n      sload\n      add\n      dup1\n      dup3\n      sstore\n      dup1\n      swap2\n      pop\n      pop\n      0x01\n      swap1\n      sub\n      swap1\n      0x00\n      mstore\n      keccak256(0x00, 0x20)\n      swap1\n      0x02\n      mul\n      add\n      0x00\n      swap1\n      swap2\n      swap1\n      swap2\n      swap1\n      swap2\n      pop\n      0x00\n      dup3\n      add\n      mload\n      dup2\n      0x00\n      add\n      swap1\n      dup2\n      tag_37\n      swap2\n      swap1\n      tag_38\n      jump\t// in\n    tag_37:\n      pop\n      0x20\n      dup3\n      add\n      mload\n      dup2\n      0x01\n      add\n      sstore\n      pop\n      pop\n        /* \"Struct-Array.sol\":639:746  function addPerson(string memory _name, uint _age) public {... */\n      pop\n      pop\n      jump\t// out\n        /* \"Struct-Array.sol\":610:632  Person[] public people */\n    tag_18:\n      0x00\n      dup2\n      dup2\n      sload\n      dup2\n      lt\n      tag_39\n      jumpi\n      0x00\n      dup1\n      revert\n    tag_39:\n      swap1\n      0x00\n      mstore\n      keccak256(0x00, 0x20)\n      swap1\n      0x02\n      mul\n      add\n      0x00\n      swap2\n      pop\n      swap1\n      pop\n      dup1\n      0x00\n      add\n      dup1\n      sload\n      tag_41\n      swap1\n      tag_30\n      jump\t// in\n    tag_41:\n      dup1\n      0x1f\n      add\n      0x20\n      dup1\n      swap2\n      div\n      mul\n      0x20\n      add\n      mload(0x40)\n      swap1\n      dup2\n      add\n      0x40\n      mstore\n      dup1\n      swap3\n      swap2\n      swap1\n      dup2\n      dup2\n      mstore\n      0x20\n      add\n      dup3\n      dup1\n      sload\n      tag_42\n      swap1\n      tag_30\n      jump\t// in\n    tag_42:\n      dup1\n      iszero\n      tag_43\n      jumpi\n      dup1\n      0x1f\n      lt\n      tag_44\n      jumpi\n      0x0100\n      dup1\n      dup4\n      sload\n      div\n      mul\n      dup4\n      mstore\n      swap2\n      0x20\n      add\n      swap2\n      jump(tag_43)\n    tag_44:\n      dup3\n      add\n      swap2\n      swap1\n      0x00\n      mstore\n      keccak256(0x00, 0x20)\n      swap1\n    tag_45:\n      dup2\n      sload\n      dup2\n      mstore\n      swap1\n      0x01\n      add\n      swap1\n      0x20\n      add\n      dup1\n      dup4\n      gt\n      tag_45\n      jumpi\n      dup3\n      swap1\n      sub\n      0x1f\n      and\n      dup3\n      add\n      swap2\n    tag_43:\n      pop\n      pop\n      pop\n      pop\n      pop\n      swap1\n      dup1\n      0x01\n      add\n      sload\n      swap1\n      pop\n      dup3\n      jump\t// out\n        /* \"#utility.yul\":7:82   */\n    tag_46:\n        /* \"#utility.yul\":40:46   */\n      0x00\n        /* \"#utility.yul\":73:75   */\n      0x40\n        /* \"#utility.yul\":67:76   */\n      mload\n        /* \"#utility.yul\":57:76   */\n      swap1\n      pop\n        /* \"#utility.yul\":7:82   */\n      swap1\n      jump\t// out\n        /* \"#utility.yul\":88:205   */\n    tag_47:\n        /* \"#utility.yul\":197:198   */\n      0x00\n        /* \"#utility.yul\":194:195   */\n      dup1\n        /* \"#utility.yul\":187:199   */\n      revert\n        /* \"#utility.yul\":211:328   */\n    tag_48:\n        /* \"#utility.yul\":320:321   */\n      0x00\n        /* \"#utility.yul\":317:318   */\n      dup1\n        /* \"#utility.yul\":310:322   */\n      revert\n        /* \"#utility.yul\":334:411   */\n    tag_49:\n        /* \"#utility.yul\":371:378   */\n      0x00\n        /* \"#utility.yul\":400:405   */\n      dup2\n        /* \"#utility.yul\":389:405   */\n      swap1\n      pop\n        /* \"#utility.yul\":334:411   */\n      swap2\n      swap1\n      pop\n      jump\t// out\n        /* \"#utility.yul\":417:539   */\n    tag_50:\n        /* \"#utility.yul\":490:514   */\n      tag_89\n        /* \"#utility.yul\":508:513   */\n      dup2\n        /* \"#utility.yul\":490:514   */\n      tag_49\n      jump\t// in\n    tag_89:\n        /* \"#utility.yul\":483:488   */\n      dup2\n        /* \"#utility.yul\":480:515   */\n      eq\n        /* \"#utility.yul\":470:533   */\n      tag_90\n      jumpi\n        /* \"#utility.yul\":529:530   */\n      0x00\n        /* \"#utility.yul\":526:527   */\n      dup1\n        /* \"#utility.yul\":519:531   */\n      revert\n        /* \"#utility.yul\":470:533   */\n    tag_90:\n        /* \"#utility.yul\":417:539   */\n      pop\n      jump\t// out\n        /* \"#utility.yul\":545:684   */\n    tag_51:\n        /* \"#utility.yul\":591:596   */\n      0x00\n        /* \"#utility.yul\":629:635   */\n      dup2\n        /* \"#utility.yul\":616:636   */\n      calldataload\n        /* \"#utility.yul\":607:636   */\n      swap1\n      pop\n        /* \"#utility.yul\":645:678   */\n      tag_92\n        /* \"#utility.yul\":672:677   */\n      dup2\n        /* \"#utility.yul\":645:678   */\n      tag_50\n      jump\t// in\n    tag_92:\n        /* \"#utility.yul\":545:684   */\n      swap3\n      swap2\n      pop\n      pop\n      jump\t// out\n        /* \"#utility.yul\":690:1019   */\n    tag_8:\n        /* \"#utility.yul\":749:755   */\n      0x00\n        /* \"#utility.yul\":798:800   */\n      0x20\n        /* \"#utility.yul\":786:795   */\n      dup3\n        /* \"#utility.yul\":777:784   */\n      dup5\n        /* \"#utility.yul\":773:796   */\n      sub\n        /* \"#utility.yul\":769:801   */\n      slt\n        /* \"#utility.yul\":766:885   */\n      iszero\n      tag_94\n      jumpi\n        /* \"#utility.yul\":804:883   */\n      tag_95\n      tag_47\n      jump\t// in\n    tag_95:\n        /* \"#utility.yul\":766:885   */\n    tag_94:\n        /* \"#utility.yul\":924:925   */\n      0x00\n        /* \"#utility.yul\":949:1002   */\n      tag_96\n        /* \"#utility.yul\":994:1001   */\n      dup5\n        /* \"#utility.yul\":985:991   */\n      dup3\n        /* \"#utility.yul\":974:983   */\n      dup6\n        /* \"#utility.yul\":970:992   */\n      add\n        /* \"#utility.yul\":949:1002   */\n      tag_51\n      jump\t// in\n    tag_96:\n        /* \"#utility.yul\":939:1002   */\n      swap2\n      pop\n        /* \"#utility.yul\":895:1012   */\n      pop\n        /* \"#utility.yul\":690:1019   */\n      swap3\n      swap2\n      pop\n      pop\n      jump\t// out\n        /* \"#utility.yul\":1025:1124   */\n    tag_52:\n        /* \"#utility.yul\":1077:1083   */\n      0x00\n        /* \"#utility.yul\":1111:1116   */\n      dup2\n        /* \"#utility.yul\":1105:1117   */\n      mload\n        /* \"#utility.yul\":1095:1117   */\n      swap1\n      pop\n        /* \"#utility.yul\":1025:1124   */\n      swap2\n      swap1\n      pop\n      jump\t// out\n        /* \"#utility.yul\":1130:1299   */\n    tag_53:\n        /* \"#utility.yul\":1214:1225   */\n      0x00\n        /* \"#utility.yul\":1248:1254   */\n      dup3\n        /* \"#utility.yul\":1243:1246   */\n      dup3\n        /* \"#utility.yul\":1236:1255   */\n      mstore\n        /* \"#utility.yul\":1288:1292   */\n      0x20\n        /* \"#utility.yul\":1283:1286   */\n      dup3\n        /* \"#utility.yul\":1279:1293   */\n      add\n        /* \"#utility.yul\":1264:1293   */\n      swap1\n      pop\n        /* \"#utility.yul\":1130:1299   */\n      swap3\n      swap2\n      pop\n      pop\n      jump\t// out\n        /* \"#utility.yul\":1305:1551   */\n    tag_54:\n        /* \"#utility.yul\":1386:1387   */\n      0x00\n        /* \"#utility.yul\":1396:1509   */\n    tag_100:\n        /* \"#utility.yul\":1410:1416   */\n      dup4\n        /* \"#utility.yul\":1407:1408   */\n      dup2\n        /* \"#utility.yul\":1404:1417   */\n      lt\n        /* \"#utility.yul\":1396:1509   */\n      iszero\n      tag_102\n      jumpi\n        /* \"#utility.yul\":1495:1496   */\n      dup1\n        /* \"#utility.yul\":1490:1493   */\n      dup3\n        /* \"#utility.yul\":1486:1497   */\n      add\n        /* \"#utility.yul\":1480:1498   */\n      mload\n        /* \"#utility.yul\":1476:1477   */\n      dup2\n        /* \"#utility.yul\":1471:1474   */\n      dup5\n        /* \"#utility.yul\":1467:1478   */\n      add\n        /* \"#utility.yul\":1460:1499   */\n      mstore\n        /* \"#utility.yul\":1432:1434   */\n      0x20\n        /* \"#utility.yul\":1429:1430   */\n      dup2\n        /* \"#utility.yul\":1425:1435   */\n      add\n        /* \"#utility.yul\":1420:1435   */\n      swap1\n      pop\n        /* \"#utility.yul\":1396:1509   */\n      jump(tag_100)\n    tag_102:\n        /* \"#utility.yul\":1543:1544   */\n      0x00\n        /* \"#utility.yul\":1534:1540   */\n      dup5\n        /* \"#utility.yul\":1529:1532   */\n      dup5\n        /* \"#utility.yul\":1525:1541   */\n      add\n        /* \"#utility.yul\":1518:1545   */\n      mstore\n        /* \"#utility.yul\":1367:1551   */\n      pop\n        /* \"#utility.yul\":1305:1551   */\n      pop\n      pop\n      pop\n      jump\t// out\n        /* \"#utility.yul\":1557:1659   */\n    tag_55:\n        /* \"#utility.yul\":1598:1604   */\n      0x00\n        /* \"#utility.yul\":1649:1651   */\n      0x1f\n        /* \"#utility.yul\":1645:1652   */\n      not\n        /* \"#utility.yul\":1640:1642   */\n      0x1f\n        /* \"#utility.yul\":1633:1638   */\n      dup4\n        /* \"#utility.yul\":1629:1643   */\n      add\n        /* \"#utility.yul\":1625:1653   */\n      and\n        /* \"#utility.yul\":1615:1653   */\n      swap1\n      pop\n        /* \"#utility.yul\":1557:1659   */\n      swap2\n      swap1\n      pop\n      jump\t// out\n        /* \"#utility.yul\":1665:2042   */\n    tag_56:\n        /* \"#utility.yul\":1753:1756   */\n      0x00\n        /* \"#utility.yul\":1781:1820   */\n      tag_105\n        /* \"#utility.yul\":1814:1819   */\n      dup3\n        /* \"#utility.yul\":1781:1820   */\n      tag_52\n      jump\t// in\n    tag_105:\n        /* \"#utility.yul\":1836:1907   */\n      tag_106\n        /* \"#utility.yul\":1900:1906   */\n      dup2\n        /* \"#utility.yul\":1895:1898   */\n      dup6\n        /* \"#utility.yul\":1836:1907   */\n      tag_53\n      jump\t// in\n    tag_106:\n        /* \"#utility.yul\":1829:1907   */\n      swap4\n      pop\n        /* \"#utility.yul\":1916:1981   */\n      tag_107\n        /* \"#utility.yul\":1974:1980   */\n      dup2\n        /* \"#utility.yul\":1969:1972   */\n      dup6\n        /* \"#utility.yul\":1962:1966   */\n      0x20\n        /* \"#utility.yul\":1955:1960   */\n      dup7\n        /* \"#utility.yul\":1951:1967   */\n      add\n        /* \"#utility.yul\":1916:1981   */\n      tag_54\n      jump\t// in\n    tag_107:\n        /* \"#utility.yul\":2006:2035   */\n      tag_108\n        /* \"#utility.yul\":2028:2034   */\n      dup2\n        /* \"#utility.yul\":2006:2035   */\n      tag_55\n      jump\t// in\n    tag_108:\n        /* \"#utility.yul\":2001:2004   */\n      dup5\n        /* \"#utility.yul\":1997:2036   */\n      add\n        /* \"#utility.yul\":1990:2036   */\n      swap2\n      pop\n        /* \"#utility.yul\":1757:2042   */\n      pop\n        /* \"#utility.yul\":1665:2042   */\n      swap3\n      swap2\n      pop\n      pop\n      jump\t// out\n        /* \"#utility.yul\":2048:2166   */\n    tag_57:\n        /* \"#utility.yul\":2135:2159   */\n      tag_110\n        /* \"#utility.yul\":2153:2158   */\n      dup2\n        /* \"#utility.yul\":2135:2159   */\n      tag_49\n      jump\t// in\n    tag_110:\n        /* \"#utility.yul\":2130:2133   */\n      dup3\n        /* \"#utility.yul\":2123:2160   */\n      mstore\n        /* \"#utility.yul\":2048:2166   */\n      pop\n      pop\n      jump\t// out\n        /* \"#utility.yul\":2172:2595   */\n    tag_11:\n        /* \"#utility.yul\":2313:2317   */\n      0x00\n        /* \"#utility.yul\":2351:2353   */\n      0x40\n        /* \"#utility.yul\":2340:2349   */\n      dup3\n        /* \"#utility.yul\":2336:2354   */\n      add\n        /* \"#utility.yul\":2328:2354   */\n      swap1\n      pop\n        /* \"#utility.yul\":2400:2409   */\n      dup2\n        /* \"#utility.yul\":2394:2398   */\n      dup2\n        /* \"#utility.yul\":2390:2410   */\n      sub\n        /* \"#utility.yul\":2386:2387   */\n      0x00\n        /* \"#utility.yul\":2375:2384   */\n      dup4\n        /* \"#utility.yul\":2371:2388   */\n      add\n        /* \"#utility.yul\":2364:2411   */\n      mstore\n        /* \"#utility.yul\":2428:2506   */\n      tag_112\n        /* \"#utility.yul\":2501:2505   */\n      dup2\n        /* \"#utility.yul\":2492:2498   */\n      dup6\n        /* \"#utility.yul\":2428:2506   */\n      tag_56\n      jump\t// in\n    tag_112:\n        /* \"#utility.yul\":2420:2506   */\n      swap1\n      pop\n        /* \"#utility.yul\":2516:2588   */\n      tag_113\n        /* \"#utility.yul\":2584:2586   */\n      0x20\n        /* \"#utility.yul\":2573:2582   */\n      dup4\n        /* \"#utility.yul\":2569:2587   */\n      add\n        /* \"#utility.yul\":2560:2566   */\n      dup5\n        /* \"#utility.yul\":2516:2588   */\n      tag_57\n      jump\t// in\n    tag_113:\n        /* \"#utility.yul\":2172:2595   */\n      swap4\n      swap3\n      pop\n      pop\n      pop\n      jump\t// out\n        /* \"#utility.yul\":2601:2718   */\n    tag_58:\n        /* \"#utility.yul\":2710:2711   */\n      0x00\n        /* \"#utility.yul\":2707:2708   */\n      dup1\n        /* \"#utility.yul\":2700:2712   */\n      revert\n        /* \"#utility.yul\":2724:2841   */\n    tag_59:\n        /* \"#utility.yul\":2833:2834   */\n      0x00\n        /* \"#utility.yul\":2830:2831   */\n      dup1\n        /* \"#utility.yul\":2823:2835   */\n      revert\n        /* \"#utility.yul\":2847:3027   */\n    tag_60:\n        /* \"#utility.yul\":2895:2972   */\n      0x4e487b7100000000000000000000000000000000000000000000000000000000\n        /* \"#utility.yul\":2892:2893   */\n      0x00\n        /* \"#utility.yul\":2885:2973   */\n      mstore\n        /* \"#utility.yul\":2992:2996   */\n      0x41\n        /* \"#utility.yul\":2989:2990   */\n      0x04\n        /* \"#utility.yul\":2982:2997   */\n      mstore\n        /* \"#utility.yul\":3016:3020   */\n      0x24\n        /* \"#utility.yul\":3013:3014   */\n      0x00\n        /* \"#utility.yul\":3006:3021   */\n      revert\n        /* \"#utility.yul\":3033:3314   */\n    tag_61:\n        /* \"#utility.yul\":3116:3143   */\n      tag_118\n        /* \"#utility.yul\":3138:3142   */\n      dup3\n        /* \"#utility.yul\":3116:3143   */\n      tag_55\n      jump\t// in\n    tag_118:\n        /* \"#utility.yul\":3108:3114   */\n      dup2\n        /* \"#utility.yul\":3104:3144   */\n      add\n        /* \"#utility.yul\":3246:3252   */\n      dup2\n        /* \"#utility.yul\":3234:3244   */\n      dup2\n        /* \"#utility.yul\":3231:3253   */\n      lt\n        /* \"#utility.yul\":3210:3228   */\n      0xffffffffffffffff\n        /* \"#utility.yul\":3198:3208   */\n      dup3\n        /* \"#utility.yul\":3195:3229   */\n      gt\n        /* \"#utility.yul\":3192:3254   */\n      or\n        /* \"#utility.yul\":3189:3277   */\n      iszero\n      tag_119\n      jumpi\n        /* \"#utility.yul\":3257:3275   */\n      tag_120\n      tag_60\n      jump\t// in\n    tag_120:\n        /* \"#utility.yul\":3189:3277   */\n    tag_119:\n        /* \"#utility.yul\":3297:3307   */\n      dup1\n        /* \"#utility.yul\":3293:3295   */\n      0x40\n        /* \"#utility.yul\":3286:3308   */\n      mstore\n        /* \"#utility.yul\":3076:3314   */\n      pop\n        /* \"#utility.yul\":3033:3314   */\n      pop\n      pop\n      jump\t// out\n        /* \"#utility.yul\":3320:3449   */\n    tag_62:\n        /* \"#utility.yul\":3354:3360   */\n      0x00\n        /* \"#utility.yul\":3381:3401   */\n      tag_122\n      tag_46\n      jump\t// in\n    tag_122:\n        /* \"#utility.yul\":3371:3401   */\n      swap1\n      pop\n        /* \"#utility.yul\":3410:3443   */\n      tag_123\n        /* \"#utility.yul\":3438:3442   */\n      dup3\n        /* \"#utility.yul\":3430:3436   */\n      dup3\n        /* \"#utility.yul\":3410:3443   */\n      tag_61\n      jump\t// in\n    tag_123:\n        /* \"#utility.yul\":3320:3449   */\n      swap2\n      swap1\n      pop\n      jump\t// out\n        /* \"#utility.yul\":3455:3763   */\n    tag_63:\n        /* \"#utility.yul\":3517:3521   */\n      0x00\n        /* \"#utility.yul\":3607:3625   */\n      0xffffffffffffffff\n        /* \"#utility.yul\":3599:3605   */\n      dup3\n        /* \"#utility.yul\":3596:3626   */\n      gt\n        /* \"#utility.yul\":3593:3649   */\n      iszero\n      tag_125\n      jumpi\n        /* \"#utility.yul\":3629:3647   */\n      tag_126\n      tag_60\n      jump\t// in\n    tag_126:\n        /* \"#utility.yul\":3593:3649   */\n    tag_125:\n        /* \"#utility.yul\":3667:3696   */\n      tag_127\n        /* \"#utility.yul\":3689:3695   */\n      dup3\n        /* \"#utility.yul\":3667:3696   */\n      tag_55\n      jump\t// in\n    tag_127:\n        /* \"#utility.yul\":3659:3696   */\n      swap1\n      pop\n        /* \"#utility.yul\":3751:3755   */\n      0x20\n        /* \"#utility.yul\":3745:3749   */\n      dup2\n        /* \"#utility.yul\":3741:3756   */\n      add\n        /* \"#utility.yul\":3733:3756   */\n      swap1\n      pop\n        /* \"#utility.yul\":3455:3763   */\n      swap2\n      swap1\n      pop\n      jump\t// out\n        /* \"#utility.yul\":3769:3915   */\n    tag_64:\n        /* \"#utility.yul\":3866:3872   */\n      dup3\n        /* \"#utility.yul\":3861:3864   */\n      dup2\n        /* \"#utility.yul\":3856:3859   */\n      dup4\n        /* \"#utility.yul\":3843:3873   */\n      calldatacopy\n        /* \"#utility.yul\":3907:3908   */\n      0x00\n        /* \"#utility.yul\":3898:3904   */\n      dup4\n        /* \"#utility.yul\":3893:3896   */\n      dup4\n        /* \"#utility.yul\":3889:3905   */\n      add\n        /* \"#utility.yul\":3882:3909   */\n      mstore\n        /* \"#utility.yul\":3769:3915   */\n      pop\n      pop\n      pop\n      jump\t// out\n        /* \"#utility.yul\":3921:4346   */\n    tag_65:\n        /* \"#utility.yul\":3999:4004   */\n      0x00\n        /* \"#utility.yul\":4024:4090   */\n      tag_130\n        /* \"#utility.yul\":4040:4089   */\n      tag_131\n        /* \"#utility.yul\":4082:4088   */\n      dup5\n        /* \"#utility.yul\":4040:4089   */\n      tag_63\n      jump\t// in\n    tag_131:\n        /* \"#utility.yul\":4024:4090   */\n      tag_62\n      jump\t// in\n    tag_130:\n        /* \"#utility.yul\":4015:4090   */\n      swap1\n      pop\n        /* \"#utility.yul\":4113:4119   */\n      dup3\n        /* \"#utility.yul\":4106:4111   */\n      dup2\n        /* \"#utility.yul\":4099:4120   */\n      mstore\n        /* \"#utility.yul\":4151:4155   */\n      0x20\n        /* \"#utility.yul\":4144:4149   */\n      dup2\n        /* \"#utility.yul\":4140:4156   */\n      add\n        /* \"#utility.yul\":4189:4192   */\n      dup5\n        /* \"#utility.yul\":4180:4186   */\n      dup5\n        /* \"#utility.yul\":4175:4178   */\n      dup5\n        /* \"#utility.yul\":4171:4187   */\n      add\n        /* \"#utility.yul\":4168:4193   */\n      gt\n        /* \"#utility.yul\":4165:4277   */\n      iszero\n      tag_132\n      jumpi\n        /* \"#utility.yul\":4196:4275   */\n      tag_133\n      tag_59\n      jump\t// in\n    tag_133:\n        /* \"#utility.yul\":4165:4277   */\n    tag_132:\n        /* \"#utility.yul\":4286:4340   */\n      tag_134\n        /* \"#utility.yul\":4333:4339   */\n      dup5\n        /* \"#utility.yul\":4328:4331   */\n      dup3\n        /* \"#utility.yul\":4323:4326   */\n      dup6\n        /* \"#utility.yul\":4286:4340   */\n      tag_64\n      jump\t// in\n    tag_134:\n        /* \"#utility.yul\":4005:4346   */\n      pop\n        /* \"#utility.yul\":3921:4346   */\n      swap4\n      swap3\n      pop\n      pop\n      pop\n      jump\t// out\n        /* \"#utility.yul\":4366:4706   */\n    tag_66:\n        /* \"#utility.yul\":4422:4427   */\n      0x00\n        /* \"#utility.yul\":4471:4474   */\n      dup3\n        /* \"#utility.yul\":4464:4468   */\n      0x1f\n        /* \"#utility.yul\":4456:4462   */\n      dup4\n        /* \"#utility.yul\":4452:4469   */\n      add\n        /* \"#utility.yul\":4448:4475   */\n      slt\n        /* \"#utility.yul\":4438:4560   */\n      tag_136\n      jumpi\n        /* \"#utility.yul\":4479:4558   */\n      tag_137\n      tag_58\n      jump\t// in\n    tag_137:\n        /* \"#utility.yul\":4438:4560   */\n    tag_136:\n        /* \"#utility.yul\":4596:4602   */\n      dup2\n        /* \"#utility.yul\":4583:4603   */\n      calldataload\n        /* \"#utility.yul\":4621:4700   */\n      tag_138\n        /* \"#utility.yul\":4696:4699   */\n      dup5\n        /* \"#utility.yul\":4688:4694   */\n      dup3\n        /* \"#utility.yul\":4681:4685   */\n      0x20\n        /* \"#utility.yul\":4673:4679   */\n      dup7\n        /* \"#utility.yul\":4669:4686   */\n      add\n        /* \"#utility.yul\":4621:4700   */\n      tag_65\n      jump\t// in\n    tag_138:\n        /* \"#utility.yul\":4612:4700   */\n      swap2\n      pop\n        /* \"#utility.yul\":4428:4706   */\n      pop\n        /* \"#utility.yul\":4366:4706   */\n      swap3\n      swap2\n      pop\n      pop\n      jump\t// out\n        /* \"#utility.yul\":4712:5366   */\n    tag_14:\n        /* \"#utility.yul\":4790:4796   */\n      0x00\n        /* \"#utility.yul\":4798:4804   */\n      dup1\n        /* \"#utility.yul\":4847:4849   */\n      0x40\n        /* \"#utility.yul\":4835:4844   */\n      dup4\n        /* \"#utility.yul\":4826:4833   */\n      dup6\n        /* \"#utility.yul\":4822:4845   */\n      sub\n        /* \"#utility.yul\":4818:4850   */\n      slt\n        /* \"#utility.yul\":4815:4934   */\n      iszero\n      tag_140\n      jumpi\n        /* \"#utility.yul\":4853:4932   */\n      tag_141\n      tag_47\n      jump\t// in\n    tag_141:\n        /* \"#utility.yul\":4815:4934   */\n    tag_140:\n        /* \"#utility.yul\":5001:5002   */\n      0x00\n        /* \"#utility.yul\":4990:4999   */\n      dup4\n        /* \"#utility.yul\":4986:5003   */\n      add\n        /* \"#utility.yul\":4973:5004   */\n      calldataload\n        /* \"#utility.yul\":5031:5049   */\n      0xffffffffffffffff\n        /* \"#utility.yul\":5023:5029   */\n      dup2\n        /* \"#utility.yul\":5020:5050   */\n      gt\n        /* \"#utility.yul\":5017:5134   */\n      iszero\n      tag_142\n      jumpi\n        /* \"#utility.yul\":5053:5132   */\n      tag_143\n      tag_48\n      jump\t// in\n    tag_143:\n        /* \"#utility.yul\":5017:5134   */\n    tag_142:\n        /* \"#utility.yul\":5158:5221   */\n      tag_144\n        /* \"#utility.yul\":5213:5220   */\n      dup6\n        /* \"#utility.yul\":5204:5210   */\n      dup3\n        /* \"#utility.yul\":5193:5202   */\n      dup7\n        /* \"#utility.yul\":5189:5211   */\n      add\n        /* \"#utility.yul\":5158:5221   */\n      tag_66\n      jump\t// in\n    tag_144:\n        /* \"#utility.yul\":5148:5221   */\n      swap3\n      pop\n        /* \"#utility.yul\":4944:5231   */\n      pop\n        /* \"#utility.yul\":5270:5272   */\n      0x20\n        /* \"#utility.yul\":5296:5349   */\n      tag_145\n        /* \"#utility.yul\":5341:5348   */\n      dup6\n        /* \"#utility.yul\":5332:5338   */\n      dup3\n        /* \"#utility.yul\":5321:5330   */\n      dup7\n        /* \"#utility.yul\":5317:5339   */\n      add\n        /* \"#utility.yul\":5296:5349   */\n      tag_51\n      jump\t// in\n    tag_145:\n        /* \"#utility.yul\":5286:5349   */\n      swap2\n      pop\n        /* \"#utility.yul\":5241:5359   */\n      pop\n        /* \"#utility.yul\":4712:5366   */\n      swap3\n      pop\n      swap3\n      swap1\n      pop\n      jump\t// out\n        /* \"#utility.yul\":5372:5552   */\n    tag_24:\n        /* \"#utility.yul\":5420:5497   */\n      0x4e487b7100000000000000000000000000000000000000000000000000000000\n        /* \"#utility.yul\":5417:5418   */\n      0x00\n        /* \"#utility.yul\":5410:5498   */\n      mstore\n        /* \"#utility.yul\":5517:5521   */\n      0x32\n        /* \"#utility.yul\":5514:5515   */\n      0x04\n        /* \"#utility.yul\":5507:5522   */\n      mstore\n        /* \"#utility.yul\":5541:5545   */\n      0x24\n        /* \"#utility.yul\":5538:5539   */\n      0x00\n        /* \"#utility.yul\":5531:5546   */\n      revert\n        /* \"#utility.yul\":5558:5738   */\n    tag_67:\n        /* \"#utility.yul\":5606:5683   */\n      0x4e487b7100000000000000000000000000000000000000000000000000000000\n        /* \"#utility.yul\":5603:5604   */\n      0x00\n        /* \"#utility.yul\":5596:5684   */\n      mstore\n        /* \"#utility.yul\":5703:5707   */\n      0x22\n        /* \"#utility.yul\":5700:5701   */\n      0x04\n        /* \"#utility.yul\":5693:5708   */\n      mstore\n        /* \"#utility.yul\":5727:5731   */\n      0x24\n        /* \"#utility.yul\":5724:5725   */\n      0x00\n        /* \"#utility.yul\":5717:5732   */\n      revert\n        /* \"#utility.yul\":5744:6064   */\n    tag_30:\n        /* \"#utility.yul\":5788:5794   */\n      0x00\n        /* \"#utility.yul\":5825:5826   */\n      0x02\n        /* \"#utility.yul\":5819:5823   */\n      dup3\n        /* \"#utility.yul\":5815:5827   */\n      div\n        /* \"#utility.yul\":5805:5827   */\n      swap1\n      pop\n        /* \"#utility.yul\":5872:5873   */\n      0x01\n        /* \"#utility.yul\":5866:5870   */\n      dup3\n        /* \"#utility.yul\":5862:5874   */\n      and\n        /* \"#utility.yul\":5893:5911   */\n      dup1\n        /* \"#utility.yul\":5883:5964   */\n      tag_149\n      jumpi\n        /* \"#utility.yul\":5949:5953   */\n      0x7f\n        /* \"#utility.yul\":5941:5947   */\n      dup3\n        /* \"#utility.yul\":5937:5954   */\n      and\n        /* \"#utility.yul\":5927:5954   */\n      swap2\n      pop\n        /* \"#utility.yul\":5883:5964   */\n    tag_149:\n        /* \"#utility.yul\":6011:6013   */\n      0x20\n        /* \"#utility.yul\":6003:6009   */\n      dup3\n        /* \"#utility.yul\":6000:6014   */\n      lt\n        /* \"#utility.yul\":5980:5998   */\n      dup2\n        /* \"#utility.yul\":5977:6015   */\n      sub\n        /* \"#utility.yul\":5974:6058   */\n      tag_150\n      jumpi\n        /* \"#utility.yul\":6030:6048   */\n      tag_151\n      tag_67\n      jump\t// in\n    tag_151:\n        /* \"#utility.yul\":5974:6058   */\n    tag_150:\n        /* \"#utility.yul\":5795:6064   */\n      pop\n        /* \"#utility.yul\":5744:6064   */\n      swap2\n      swap1\n      pop\n      jump\t// out\n        /* \"#utility.yul\":6070:6211   */\n    tag_68:\n        /* \"#utility.yul\":6119:6123   */\n      0x00\n        /* \"#utility.yul\":6142:6145   */\n      dup2\n        /* \"#utility.yul\":6134:6145   */\n      swap1\n      pop\n        /* \"#utility.yul\":6165:6168   */\n      dup2\n        /* \"#utility.yul\":6162:6163   */\n      0x00\n        /* \"#utility.yul\":6155:6169   */\n      mstore\n        /* \"#utility.yul\":6199:6203   */\n      0x20\n        /* \"#utility.yul\":6196:6197   */\n      0x00\n        /* \"#utility.yul\":6186:6204   */\n      keccak256\n        /* \"#utility.yul\":6178:6204   */\n      swap1\n      pop\n        /* \"#utility.yul\":6070:6211   */\n      swap2\n      swap1\n      pop\n      jump\t// out\n        /* \"#utility.yul\":6217:6310   */\n    tag_69:\n        /* \"#utility.yul\":6254:6260   */\n      0x00\n        /* \"#utility.yul\":6301:6303   */\n      0x20\n        /* \"#utility.yul\":6296:6298   */\n      0x1f\n        /* \"#utility.yul\":6289:6294   */\n      dup4\n        /* \"#utility.yul\":6285:6299   */\n      add\n        /* \"#utility.yul\":6281:6304   */\n      div\n        /* \"#utility.yul\":6271:6304   */\n      swap1\n      pop\n        /* \"#utility.yul\":6217:6310   */\n      swap2\n      swap1\n      pop\n      jump\t// out\n        /* \"#utility.yul\":6316:6423   */\n    tag_70:\n        /* \"#utility.yul\":6360:6368   */\n      0x00\n        /* \"#utility.yul\":6410:6415   */\n      dup3\n        /* \"#utility.yul\":6404:6408   */\n      dup3\n        /* \"#utility.yul\":6400:6416   */\n      shl\n        /* \"#utility.yul\":6379:6416   */\n      swap1\n      pop\n        /* \"#utility.yul\":6316:6423   */\n      swap3\n      swap2\n      pop\n      pop\n      jump\t// out\n        /* \"#utility.yul\":6429:6822   */\n    tag_71:\n        /* \"#utility.yul\":6498:6504   */\n      0x00\n        /* \"#utility.yul\":6548:6549   */\n      0x08\n        /* \"#utility.yul\":6536:6546   */\n      dup4\n        /* \"#utility.yul\":6532:6550   */\n      mul\n        /* \"#utility.yul\":6571:6668   */\n      tag_156\n        /* \"#utility.yul\":6601:6667   */\n      0xffffffffffffffffffffffffffffffffffffffffffffffffffffffffffffffff\n        /* \"#utility.yul\":6590:6599   */\n      dup3\n        /* \"#utility.yul\":6571:6668   */\n      tag_70\n      jump\t// in\n    tag_156:\n        /* \"#utility.yul\":6689:6728   */\n      tag_157\n        /* \"#utility.yul\":6719:6727   */\n      dup7\n        /* \"#utility.yul\":6708:6717   */\n      dup4\n        /* \"#utility.yul\":6689:6728   */\n      tag_70\n      jump\t// in\n    tag_157:\n        /* \"#utility.yul\":6677:6728   */\n      swap6\n      pop\n        /* \"#utility.yul\":6761:6765   */\n      dup1\n        /* \"#utility.yul\":6757:6766   */\n      not\n        /* \"#utility.yul\":6750:6755   */\n      dup5\n        /* \"#utility.yul\":6746:6767   */\n      and\n        /* \"#utility.yul\":6737:6767   */\n      swap4\n      pop\n        /* \"#utility.yul\":6810:6814   */\n      dup1\n        /* \"#utility.yul\":6800:6808   */\n      dup7\n        /* \"#utility.yul\":6796:6815   */\n      and\n        /* \"#utility.yul\":6789:6794   */\n      dup5\n        /* \"#utility.yul\":6786:6816   */\n      or\n        /* \"#utility.yul\":6776:6816   */\n      swap3\n      pop\n        /* \"#utility.yul\":6505:6822   */\n      pop\n      pop\n        /* \"#utility.yul\":6429:6822   */\n      swap4\n      swap3\n      pop\n      pop\n      pop\n      jump\t// out\n        /* \"#utility.yul\":6828:6888   */\n    tag_72:\n        /* \"#utility.yul\":6856:6859   */\n      0x00\n        /* \"#utility.yul\":6877:6882   */\n      dup2\n        /* \"#utility.yul\":6870:6882   */\n      swap1\n      pop\n        /* \"#utility.yul\":6828:6888   */\n      swap2\n      swap1\n      pop\n      jump\t// out\n        /* \"#utility.yul\":6894:7036   */\n    tag_73:\n        /* \"#utility.yul\":6944:6953   */\n      0x00\n        /* \"#utility.yul\":6977:7030   */\n      tag_160\n        /* \"#utility.yul\":6995:7029   */\n      tag_161\n        /* \"#utility.yul\":7004:7028   */\n      tag_162\n        /* \"#utility.yul\":7022:7027   */\n      dup5\n        /* \"#utility.yul\":7004:7028   */\n      tag_49\n      jump\t// in\n    tag_162:\n        /* \"#utility.yul\":6995:7029   */\n      tag_72\n      jump\t// in\n    tag_161:\n        /* \"#utility.yul\":6977:7030   */\n      tag_49\n      jump\t// in\n    tag_160:\n        /* \"#utility.yul\":6964:7030   */\n      swap1\n      pop\n        /* \"#utility.yul\":6894:7036   */\n      swap2\n      swap1\n      pop\n      jump\t// out\n        /* \"#utility.yul\":7042:7117   */\n    tag_74:\n        /* \"#utility.yul\":7085:7088   */\n      0x00\n        /* \"#utility.yul\":7106:7111   */\n      dup2\n        /* \"#utility.yul\":7099:7111   */\n      swap1\n      pop\n        /* \"#utility.yul\":7042:7117   */\n      swap2\n      swap1\n      pop\n      jump\t// out\n        /* \"#utility.yul\":7123:7392   */\n    tag_75:\n        /* \"#utility.yul\":7233:7272   */\n      tag_165\n        /* \"#utility.yul\":7264:7271   */\n      dup4\n        /* \"#utility.yul\":7233:7272   */\n      tag_73\n      jump\t// in\n    tag_165:\n        /* \"#utility.yul\":7294:7385   */\n      tag_166\n        /* \"#utility.yul\":7343:7384   */\n      tag_167\n        /* \"#utility.yul\":7367:7383   */\n      dup3\n        /* \"#utility.yul\":7343:7384   */\n      tag_74\n      jump\t// in\n    tag_167:\n        /* \"#utility.yul\":7335:7341   */\n      dup5\n        /* \"#utility.yul\":7328:7332   */\n      dup5\n        /* \"#utility.yul\":7322:7333   */\n      sload\n        /* \"#utility.yul\":7294:7385   */\n      tag_71\n      jump\t// in\n    tag_166:\n        /* \"#utility.yul\":7288:7292   */\n      dup3\n        /* \"#utility.yul\":7281:7386   */\n      sstore\n        /* \"#utility.yul\":7199:7392   */\n      pop\n        /* \"#utility.yul\":7123:7392   */\n      pop\n      pop\n      pop\n      jump\t// out\n        /* \"#utility.yul\":7398:7471   */\n    tag_76:\n        /* \"#utility.yul\":7443:7446   */\n      0x00\n        /* \"#utility.yul\":7398:7471   */\n      swap1\n      jump\t// out\n        /* \"#utility.yul\":7477:7666   */\n    tag_77:\n        /* \"#utility.yul\":7554:7586   */\n      tag_170\n      tag_76\n      jump\t// in\n    tag_170:\n        /* \"#utility.yul\":7595:7660   */\n      tag_171\n        /* \"#utility.yul\":7653:7659   */\n      dup2\n        /* \"#utility.yul\":7645:7651   */\n      dup5\n        /* \"#utility.yul\":7639:7643   */\n      dup5\n        /* \"#utility.yul\":7595:7660   */\n      tag_75\n      jump\t// in\n    tag_171:\n        /* \"#utility.yul\":7530:7666   */\n      pop\n        /* \"#utility.yul\":7477:7666   */\n      pop\n      pop\n      jump\t// out\n        /* \"#utility.yul\":7672:7858   */\n    tag_78:\n        /* \"#utility.yul\":7732:7852   */\n    tag_173:\n        /* \"#utility.yul\":7749:7752   */\n      dup2\n        /* \"#utility.yul\":7742:7747   */\n      dup2\n        /* \"#utility.yul\":7739:7753   */\n      lt\n        /* \"#utility.yul\":7732:7852   */\n      iszero\n      tag_175\n      jumpi\n        /* \"#utility.yul\":7803:7842   */\n      tag_176\n        /* \"#utility.yul\":7840:7841   */\n      0x00\n        /* \"#utility.yul\":7833:7838   */\n      dup3\n        /* \"#utility.yul\":7803:7842   */\n      tag_77\n      jump\t// in\n    tag_176:\n        /* \"#utility.yul\":7776:7777   */\n      0x01\n        /* \"#utility.yul\":7769:7774   */\n      dup2\n        /* \"#utility.yul\":7765:7778   */\n      add\n        /* \"#utility.yul\":7756:7778   */\n      swap1\n      pop\n        /* \"#utility.yul\":7732:7852   */\n      jump(tag_173)\n    tag_175:\n        /* \"#utility.yul\":7672:7858   */\n      pop\n      pop\n      jump\t// out\n        /* \"#utility.yul\":7864:8407   */\n    tag_79:\n        /* \"#utility.yul\":7965:7967   */\n      0x1f\n        /* \"#utility.yul\":7960:7963   */\n      dup3\n        /* \"#utility.yul\":7957:7968   */\n      gt\n        /* \"#utility.yul\":7954:8400   */\n      iszero\n      tag_178\n      jumpi\n        /* \"#utility.yul\":7999:8037   */\n      tag_179\n        /* \"#utility.yul\":8031:8036   */\n      dup2\n        /* \"#utility.yul\":7999:8037   */\n      tag_68\n      jump\t// in\n    tag_179:\n        /* \"#utility.yul\":8083:8112   */\n      tag_180\n        /* \"#utility.yul\":8101:8111   */\n      dup5\n        /* \"#utility.yul\":8083:8112   */\n      tag_69\n      jump\t// in\n    tag_180:\n        /* \"#utility.yul\":8073:8081   */\n      dup2\n        /* \"#utility.yul\":8069:8113   */\n      add\n        /* \"#utility.yul\":8266:8268   */\n      0x20\n        /* \"#utility.yul\":8254:8264   */\n      dup6\n        /* \"#utility.yul\":8251:8269   */\n      lt\n        /* \"#utility.yul\":8248:8297   */\n      iszero\n      tag_181\n      jumpi\n        /* \"#utility.yul\":8287:8295   */\n      dup2\n        /* \"#utility.yul\":8272:8295   */\n      swap1\n      pop\n        /* \"#utility.yul\":8248:8297   */\n    tag_181:\n        /* \"#utility.yul\":8310:8390   */\n      tag_182\n        /* \"#utility.yul\":8366:8388   */\n      tag_183\n        /* \"#utility.yul\":8384:8387   */\n      dup6\n        /* \"#utility.yul\":8366:8388   */\n      tag_69\n      jump\t// in\n    tag_183:\n        /* \"#utility.yul\":8356:8364   */\n      dup4\n        /* \"#utility.yul\":8352:8389   */\n      add\n        /* \"#utility.yul\":8339:8350   */\n      dup3\n        /* \"#utility.yul\":8310:8390   */\n      tag_78\n      jump\t// in\n    tag_182:\n        /* \"#utility.yul\":7969:8400   */\n      pop\n      pop\n        /* \"#utility.yul\":7954:8400   */\n    tag_178:\n        /* \"#utility.yul\":7864:8407   */\n      pop\n      pop\n      pop\n      jump\t// out\n        /* \"#utility.yul\":8413:8530   */\n    tag_80:\n        /* \"#utility.yul\":8467:8475   */\n      0x00\n        /* \"#utility.yul\":8517:8522   */\n      dup3\n        /* \"#utility.yul\":8511:8515   */\n      dup3\n        /* \"#utility.yul\":8507:8523   */\n      shr\n        /* \"#utility.yul\":8486:8523   */\n      swap1\n      pop\n        /* \"#utility.yul\":8413:8530   */\n      swap3\n      swap2\n      pop\n      pop\n      jump\t// out\n        /* \"#utility.yul\":8536:8705   */\n    tag_81:\n        /* \"#utility.yul\":8580:8586   */\n      0x00\n        /* \"#utility.yul\":8613:8664   */\n      tag_186\n        /* \"#utility.yul\":8661:8662   */\n      0x00\n        /* \"#utility.yul\":8657:8663   */\n      not\n        /* \"#utility.yul\":8649:8654   */\n      dup5\n        /* \"#utility.yul\":8646:8647   */\n      0x08\n        /* \"#utility.yul\":8642:8655   */\n      mul\n        /* \"#utility.yul\":8613:8664   */\n      tag_80\n      jump\t// in\n    tag_186:\n        /* \"#utility.yul\":8609:8665   */\n      not\n        /* \"#utility.yul\":8694:8698   */\n      dup1\n        /* \"#utility.yul\":8688:8692   */\n      dup4\n        /* \"#utility.yul\":8684:8699   */\n      and\n        /* \"#utility.yul\":8674:8699   */\n      swap2\n      pop\n        /* \"#utility.yul\":8587:8705   */\n      pop\n        /* \"#utility.yul\":8536:8705   */\n      swap3\n      swap2\n      pop\n      pop\n      jump\t// out\n        /* \"#utility.yul\":8710:9005   */\n    tag_82:\n        /* \"#utility.yul\":8786:8790   */\n      0x00\n        /* \"#utility.yul\":8932:8961   */\n      tag_188\n        /* \"#utility.yul\":8957:8960   */\n      dup4\n        /* \"#utility.yul\":8951:8955   */\n      dup4\n        /* \"#utility.yul\":8932:8961   */\n      tag_81\n      jump\t// in\n    tag_188:\n        /* \"#utility.yul\":8924:8961   */\n      swap2\n      pop\n        /* \"#utility.yul\":8994:8997   */\n      dup3\n        /* \"#utility.yul\":8991:8992   */\n      0x02\n        /* \"#utility.yul\":8987:8998   */\n      mul\n        /* \"#utility.yul\":8981:8985   */\n      dup3\n        /* \"#utility.yul\":8978:8999   */\n      or\n        /* \"#utility.yul\":8970:8999   */\n      swap1\n      pop\n        /* \"#utility.yul\":8710:9005   */\n      swap3\n      swap2\n      pop\n      pop\n      jump\t// out\n        /* \"#utility.yul\":9010:10405   */\n    tag_38:\n        /* \"#utility.yul\":9127:9164   */\n      tag_190\n        /* \"#utility.yul\":9160:9163   */\n      dup3\n        /* \"#utility.yul\":9127:9164   */\n      tag_52\n      jump\t// in\n    tag_190:\n        /* \"#utility.yul\":9229:9247   */\n      0xffffffffffffffff\n        /* \"#utility.yul\":9221:9227   */\n      dup2\n        /* \"#utility.yul\":9218:9248   */\n      gt\n        /* \"#utility.yul\":9215:9271   */\n      iszero\n      tag_191\n      jumpi\n        /* \"#utility.yul\":9251:9269   */\n      tag_192\n      tag_60\n      jump\t// in\n    tag_192:\n        /* \"#utility.yul\":9215:9271   */\n    tag_191:\n        /* \"#utility.yul\":9295:9333   */\n      tag_193\n        /* \"#utility.yul\":9327:9331   */\n      dup3\n        /* \"#utility.yul\":9321:9332   */\n      sload\n        /* \"#utility.yul\":9295:9333   */\n      tag_30\n      jump\t// in\n    tag_193:\n        /* \"#utility.yul\":9380:9447   */\n      tag_194\n        /* \"#utility.yul\":9440:9446   */\n      dup3\n        /* \"#utility.yul\":9432:9438   */\n      dup3\n        /* \"#utility.yul\":9426:9430   */\n      dup6\n        /* \"#utility.yul\":9380:9447   */\n      tag_79\n      jump\t// in\n    tag_194:\n        /* \"#utility.yul\":9474:9475   */\n      0x00\n        /* \"#utility.yul\":9498:9502   */\n      0x20\n        /* \"#utility.yul\":9485:9502   */\n      swap1\n      pop\n        /* \"#utility.yul\":9530:9532   */\n      0x1f\n        /* \"#utility.yul\":9522:9528   */\n      dup4\n        /* \"#utility.yul\":9519:9533   */\n      gt\n        /* \"#utility.yul\":9547:9548   */\n      0x01\n        /* \"#utility.yul\":9542:10160   */\n      dup2\n      eq\n      tag_196\n      jumpi\n        /* \"#utility.yul\":10204:10205   */\n      0x00\n        /* \"#utility.yul\":10221:10227   */\n      dup5\n        /* \"#utility.yul\":10218:10295   */\n      iszero\n      tag_197\n      jumpi\n        /* \"#utility.yul\":10270:10279   */\n      dup3\n        /* \"#utility.yul\":10265:10268   */\n      dup8\n        /* \"#utility.yul\":10261:10280   */\n      add\n        /* \"#utility.yul\":10255:10281   */\n      mload\n        /* \"#utility.yul\":10246:10281   */\n      swap1\n      pop\n        /* \"#utility.yul\":10218:10295   */\n    tag_197:\n        /* \"#utility.yul\":10321:10388   */\n      tag_198\n        /* \"#utility.yul\":10381:10387   */\n      dup6\n        /* \"#utility.yul\":10374:10379   */\n      dup3\n        /* \"#utility.yul\":10321:10388   */\n      tag_82\n      jump\t// in\n    tag_198:\n        /* \"#utility.yul\":10315:10319   */\n      dup7\n        /* \"#utility.yul\":10308:10389   */\n      sstore\n        /* \"#utility.yul\":10177:10399   */\n      pop\n        /* \"#utility.yul\":9512:10399   */\n      jump(tag_195)\n        /* \"#utility.yul\":9542:10160   */\n    tag_196:\n        /* \"#utility.yul\":9594:9598   */\n      0x1f\n        /* \"#utility.yul\":9590:9599   */\n      not\n        /* \"#utility.yul\":9582:9588   */\n      dup5\n        /* \"#utility.yul\":9578:9600   */\n      and\n        /* \"#utility.yul\":9628:9665   */\n      tag_199\n        /* \"#utility.yul\":9660:9664   */\n      dup7\n        /* \"#utility.yul\":9628:9665   */\n      tag_68\n      jump\t// in\n    tag_199:\n        /* \"#utility.yul\":9687:9688   */\n      0x00\n        /* \"#utility.yul\":9701:9909   */\n    tag_200:\n        /* \"#utility.yul\":9715:9722   */\n      dup3\n        /* \"#utility.yul\":9712:9713   */\n      dup2\n        /* \"#utility.yul\":9709:9723   */\n      lt\n        /* \"#utility.yul\":9701:9909   */\n      iszero\n      tag_202\n      jumpi\n        /* \"#utility.yul\":9794:9803   */\n      dup5\n        /* \"#utility.yul\":9789:9792   */\n      dup10\n        /* \"#utility.yul\":9785:9804   */\n      add\n        /* \"#utility.yul\":9779:9805   */\n      mload\n        /* \"#utility.yul\":9771:9777   */\n      dup3\n        /* \"#utility.yul\":9764:9806   */\n      sstore\n        /* \"#utility.yul\":9845:9846   */\n      0x01\n        /* \"#utility.yul\":9837:9843   */\n      dup3\n        /* \"#utility.yul\":9833:9847   */\n      add\n        /* \"#utility.yul\":9823:9847   */\n      swap2\n      pop\n        /* \"#utility.yul\":9892:9894   */\n      0x20\n        /* \"#utility.yul\":9881:9890   */\n      dup6\n        /* \"#utility.yul\":9877:9895   */\n      add\n        /* \"#utility.yul\":9864:9895   */\n      swap5\n      pop\n        /* \"#utility.yul\":9738:9742   */\n      0x20\n        /* \"#utility.yul\":9735:9736   */\n      dup2\n        /* \"#utility.yul\":9731:9743   */\n      add\n        /* \"#utility.yul\":9726:9743   */\n      swap1\n      pop\n        /* \"#utility.yul\":9701:9909   */\n      jump(tag_200)\n    tag_202:\n        /* \"#utility.yul\":9937:9943   */\n      dup7\n        /* \"#utility.yul\":9928:9935   */\n      dup4\n        /* \"#utility.yul\":9925:9944   */\n      lt\n        /* \"#utility.yul\":9922:10101   */\n      iszero\n      tag_203\n      jumpi\n        /* \"#utility.yul\":9995:10004   */\n      dup5\n        /* \"#utility.yul\":9990:9993   */\n      dup10\n        /* \"#utility.yul\":9986:10005   */\n      add\n        /* \"#utility.yul\":9980:10006   */\n      mload\n        /* \"#utility.yul\":10038:10086   */\n      tag_204\n        /* \"#utility.yul\":10080:10084   */\n      0x1f\n        /* \"#utility.yul\":10072:10078   */\n      dup10\n        /* \"#utility.yul\":10068:10085   */\n      and\n        /* \"#utility.yul\":10057:10066   */\n      dup3\n        /* \"#utility.yul\":10038:10086   */\n      tag_81\n      jump\t// in\n    tag_204:\n        /* \"#utility.yul\":10030:10036   */\n      dup4\n        /* \"#utility.yul\":10023:10087   */\n      sstore\n        /* \"#utility.yul\":9945:10101   */\n      pop\n        /* \"#utility.yul\":9922:10101   */\n    tag_203:\n        /* \"#utility.yul\":10147:10148   */\n      0x01\n        /* \"#utility.yul\":10143:10144   */\n      0x02\n        /* \"#utility.yul\":10135:10141   */\n      dup9\n        /* \"#utility.yul\":10131:10145   */\n      mul\n        /* \"#utility.yul\":10127:10149   */\n      add\n        /* \"#utility.yul\":10121:10125   */\n      dup9\n        /* \"#utility.yul\":10114:10150   */\n      sstore\n        /* \"#utility.yul\":9549:10160   */\n      pop\n      pop\n      pop\n        /* \"#utility.yul\":9512:10399   */\n    tag_195:\n      pop\n        /* \"#utility.yul\":9102:10405   */\n      pop\n      pop\n      pop\n        /* \"#utility.yul\":9010:10405   */\n      pop\n      pop\n      jump\t// out\n\n    auxdata: 0xa2646970667358221220dc231cb06d93b05387d28dd7816caf30008d5735ab6eeb4e569be9a5567f260a64736f6c63430008120033\n}\n",
				"bytecode": {
					"linkReferences": {},
					"object": "608060405234801561001057600080fd5b506108f4806100206000396000f3fe608060405234801561001057600080fd5b50600436106100415760003560e01c8063246982c4146100465780636f760f41146100775780639e7a13ad14610093575b600080fd5b610060600480360381019061005b9190610324565b6100c4565b60405161006e9291906103f0565b60405180910390f35b610091600480360381019061008c9190610555565b6101b8565b005b6100ad60048036038101906100a89190610324565b61021e565b6040516100bb9291906103f0565b60405180910390f35b60606000808054905083106100d857600080fd5b600083815481106100ec576100eb6105b1565b5b906000526020600020906002020160000160008481548110610111576101106105b1565b5b90600052602060002090600202016001015481805461012f9061060f565b80601f016020809104026020016040519081016040528092919081815260200182805461015b9061060f565b80156101a85780601f1061017d576101008083540402835291602001916101a8565b820191906000526020600020905b81548152906001019060200180831161018b57829003601f168201915b5050505050915091509150915091565b60006040518060400160405280848152602001838152509080600181540180825580915050600190039060005260206000209060020201600090919091909150600082015181600001908161020d91906107ec565b506020820151816001015550505050565b6000818154811061022e57600080fd5b90600052602060002090600202016000915090508060000180546102519061060f565b80601f016020809104026020016040519081016040528092919081815260200182805461027d9061060f565b80156102ca5780601f1061029f576101008083540402835291602001916102ca565b820191906000526020600020905b8154815290600101906020018083116102ad57829003601f168201915b5050505050908060010154905082565b6000604051905090565b600080fd5b600080fd5b6000819050919050565b610301816102ee565b811461030c57600080fd5b50565b60008135905061031e816102f8565b92915050565b60006020828403121561033a576103396102e4565b5b60006103488482850161030f565b91505092915050565b600081519050919050565b600082825260208201905092915050565b60005b8381101561038b578082015181840152602081019050610370565b60008484015250505050565b6000601f19601f8301169050919050565b60006103b382610351565b6103bd818561035c565b93506103cd81856020860161036d565b6103d681610397565b840191505092915050565b6103ea816102ee565b82525050565b6000604082019050818103600083015261040a81856103a8565b905061041960208301846103e1565b9392505050565b600080fd5b600080fd5b7f4e487b7100000000000000000000000000000000000000000000000000000000600052604160045260246000fd5b61046282610397565b810181811067ffffffffffffffff821117156104815761048061042a565b5b80604052505050565b60006104946102da565b90506104a08282610459565b919050565b600067ffffffffffffffff8211156104c0576104bf61042a565b5b6104c982610397565b9050602081019050919050565b82818337600083830152505050565b60006104f86104f3846104a5565b61048a565b90508281526020810184848401111561051457610513610425565b5b61051f8482856104d6565b509392505050565b600082601f83011261053c5761053b610420565b5b813561054c8482602086016104e5565b91505092915050565b6000806040838503121561056c5761056b6102e4565b5b600083013567ffffffffffffffff81111561058a576105896102e9565b5b61059685828601610527565b92505060206105a78582860161030f565b9150509250929050565b7f4e487b7100000000000000000000000000000000000000000000000000000000600052603260045260246000fd5b7f4e487b7100000000000000000000000000000000000000000000000000000000600052602260045260246000fd5b6000600282049050600182168061062757607f821691505b60208210810361063a576106396105e0565b5b50919050565b60008190508160005260206000209050919050565b60006020601f8301049050919050565b600082821b905092915050565b6000600883026106a27fffffffffffffffffffffffffffffffffffffffffffffffffffffffffffffffff82610665565b6106ac8683610665565b95508019841693508086168417925050509392505050565b6000819050919050565b60006106e96106e46106df846102ee565b6106c4565b6102ee565b9050919050565b6000819050919050565b610703836106ce565b61071761070f826106f0565b848454610672565b825550505050565b600090565b61072c61071f565b6107378184846106fa565b505050565b5b8181101561075b57610750600082610724565b60018101905061073d565b5050565b601f8211156107a05761077181610640565b61077a84610655565b81016020851015610789578190505b61079d61079585610655565b83018261073c565b50505b505050565b600082821c905092915050565b60006107c3600019846008026107a5565b1980831691505092915050565b60006107dc83836107b2565b9150826002028217905092915050565b6107f582610351565b67ffffffffffffffff81111561080e5761080d61042a565b5b610818825461060f565b61082382828561075f565b600060209050601f8311600181146108565760008415610844578287015190505b61084e85826107d0565b8655506108b6565b601f19841661086486610640565b60005b8281101561088c57848901518255600182019150602085019450602081019050610867565b868310156108a957848901516108a5601f8916826107b2565b8355505b6001600288020188555050505b50505050505056fea2646970667358221220dc231cb06d93b05387d28dd7816caf30008d5735ab6eeb4e569be9a5567f260a64736f6c63430008120033",
					"opcodes": "PUSH1 0x80 PUSH1 0x40 MSTORE CALLVALUE DUP1 ISZERO PUSH2 0x10 JUMPI PUSH1 0x0 DUP1 REVERT JUMPDEST POP PUSH2 0x8F4 DUP1 PUSH2 0x20 PUSH1 0x0 CODECOPY PUSH1 0x0 RETURN INVALID PUSH1 0x80 PUSH1 0x40 MSTORE CALLVALUE DUP1 ISZERO PUSH2 0x10 JUMPI PUSH1 0x0 DUP1 REVERT JUMPDEST POP PUSH1 0x4 CALLDATASIZE LT PUSH2 0x41 JUMPI PUSH1 0x0 CALLDATALOAD PUSH1 0xE0 SHR DUP1 PUSH4 0x246982C4 EQ PUSH2 0x46 JUMPI DUP1 PUSH4 0x6F760F41 EQ PUSH2 0x77 JUMPI DUP1 PUSH4 0x9E7A13AD EQ PUSH2 0x93 JUMPI JUMPDEST PUSH1 0x0 DUP1 REVERT JUMPDEST PUSH2 0x60 PUSH1 0x4 DUP1 CALLDATASIZE SUB DUP2 ADD SWAP1 PUSH2 0x5B SWAP2 SWAP1 PUSH2 0x324 JUMP JUMPDEST PUSH2 0xC4 JUMP JUMPDEST PUSH1 0x40 MLOAD PUSH2 0x6E SWAP3 SWAP2 SWAP1 PUSH2 0x3F0 JUMP JUMPDEST PUSH1 0x40 MLOAD DUP1 SWAP2 SUB SWAP1 RETURN JUMPDEST PUSH2 0x91 PUSH1 0x4 DUP1 CALLDATASIZE SUB DUP2 ADD SWAP1 PUSH2 0x8C SWAP2 SWAP1 PUSH2 0x555 JUMP JUMPDEST PUSH2 0x1B8 JUMP JUMPDEST STOP JUMPDEST PUSH2 0xAD PUSH1 0x4 DUP1 CALLDATASIZE SUB DUP2 ADD SWAP1 PUSH2 0xA8 SWAP2 SWAP1 PUSH2 0x324 JUMP JUMPDEST PUSH2 0x21E JUMP JUMPDEST PUSH1 0x40 MLOAD PUSH2 0xBB SWAP3 SWAP2 SWAP1 PUSH2 0x3F0 JUMP JUMPDEST PUSH1 0x40 MLOAD DUP1 SWAP2 SUB SWAP1 RETURN JUMPDEST PUSH1 0x60 PUSH1 0x0 DUP1 DUP1 SLOAD SWAP1 POP DUP4 LT PUSH2 0xD8 JUMPI PUSH1 0x0 DUP1 REVERT JUMPDEST PUSH1 0x0 DUP4 DUP2 SLOAD DUP2 LT PUSH2 0xEC JUMPI PUSH2 0xEB PUSH2 0x5B1 JUMP JUMPDEST JUMPDEST SWAP1 PUSH1 0x0 MSTORE PUSH1 0x20 PUSH1 0x0 KECCAK256 SWAP1 PUSH1 0x2 MUL ADD PUSH1 0x0 ADD PUSH1 0x0 DUP5 DUP2 SLOAD DUP2 LT PUSH2 0x111 JUMPI PUSH2 0x110 PUSH2 0x5B1 JUMP JUMPDEST JUMPDEST SWAP1 PUSH1 0x0 MSTORE PUSH1 0x20 PUSH1 0x0 KECCAK256 SWAP1 PUSH1 0x2 MUL ADD PUSH1 0x1 ADD SLOAD DUP2 DUP1 SLOAD PUSH2 0x12F SWAP1 PUSH2 0x60F JUMP JUMPDEST DUP1 PUSH1 0x1F ADD PUSH1 0x20 DUP1 SWAP2 DIV MUL PUSH1 0x20 ADD PUSH1 0x40 MLOAD SWAP1 DUP2 ADD PUSH1 0x40 MSTORE DUP1 SWAP3 SWAP2 SWAP1 DUP2 DUP2 MSTORE PUSH1 0x20 ADD DUP3 DUP1 SLOAD PUSH2 0x15B SWAP1 PUSH2 0x60F JUMP JUMPDEST DUP1 ISZERO PUSH2 0x1A8 JUMPI DUP1 PUSH1 0x1F LT PUSH2 0x17D JUMPI PUSH2 0x100 DUP1 DUP4 SLOAD DIV MUL DUP4 MSTORE SWAP2 PUSH1 0x20 ADD SWAP2 PUSH2 0x1A8 JUMP JUMPDEST DUP3 ADD SWAP2 SWAP1 PUSH1 0x0 MSTORE PUSH1 0x20 PUSH1 0x0 KECCAK256 SWAP1 JUMPDEST DUP2 SLOAD DUP2 MSTORE SWAP1 PUSH1 0x1 ADD SWAP1 PUSH1 0x20 ADD DUP1 DUP4 GT PUSH2 0x18B JUMPI DUP3 SWAP1 SUB PUSH1 0x1F AND DUP3 ADD SWAP2 JUMPDEST POP POP POP POP POP SWAP2 POP SWAP2 POP SWAP2 POP SWAP2 POP SWAP2 JUMP JUMPDEST PUSH1 0x0 PUSH1 0x40 MLOAD DUP1 PUSH1 0x40 ADD PUSH1 0x40 MSTORE DUP1 DUP5 DUP2 MSTORE PUSH1 0x20 ADD DUP4 DUP2 MSTORE POP SWAP1 DUP1 PUSH1 0x1 DUP2 SLOAD ADD DUP1 DUP3 SSTORE DUP1 SWAP2 POP POP PUSH1 0x1 SWAP1 SUB SWAP1 PUSH1 0x0 MSTORE PUSH1 0x20 PUSH1 0x0 KECCAK256 SWAP1 PUSH1 0x2 MUL ADD PUSH1 0x0 SWAP1 SWAP2 SWAP1 SWAP2 SWAP1 SWAP2 POP PUSH1 0x0 DUP3 ADD MLOAD DUP2 PUSH1 0x0 ADD SWAP1 DUP2 PUSH2 0x20D SWAP2 SWAP1 PUSH2 0x7EC JUMP JUMPDEST POP PUSH1 0x20 DUP3 ADD MLOAD DUP2 PUSH1 0x1 ADD SSTORE POP POP POP POP JUMP JUMPDEST PUSH1 0x0 DUP2 DUP2 SLOAD DUP2 LT PUSH2 0x22E JUMPI PUSH1 0x0 DUP1 REVERT JUMPDEST SWAP1 PUSH1 0x0 MSTORE PUSH1 0x20 PUSH1 0x0 KECCAK256 SWAP1 PUSH1 0x2 MUL ADD PUSH1 0x0 SWAP2 POP SWAP1 POP DUP1 PUSH1 0x0 ADD DUP1 SLOAD PUSH2 0x251 SWAP1 PUSH2 0x60F JUMP JUMPDEST DUP1 PUSH1 0x1F ADD PUSH1 0x20 DUP1 SWAP2 DIV MUL PUSH1 0x20 ADD PUSH1 0x40 MLOAD SWAP1 DUP2 ADD PUSH1 0x40 MSTORE DUP1 SWAP3 SWAP2 SWAP1 DUP2 DUP2 MSTORE PUSH1 0x20 ADD DUP3 DUP1 SLOAD PUSH2 0x27D SWAP1 PUSH2 0x60F JUMP JUMPDEST DUP1 ISZERO PUSH2 0x2CA JUMPI DUP1 PUSH1 0x1F LT PUSH2 0x29F JUMPI PUSH2 0x100 DUP1 DUP4 SLOAD DIV MUL DUP4 MSTORE SWAP2 PUSH1 0x20 ADD SWAP2 PUSH2 0x2CA JUMP JUMPDEST DUP3 ADD SWAP2 SWAP1 PUSH1 0x0 MSTORE PUSH1 0x20 PUSH1 0x0 KECCAK256 SWAP1 JUMPDEST DUP2 SLOAD DUP2 MSTORE SWAP1 PUSH1 0x1 ADD SWAP1 PUSH1 0x20 ADD DUP1 DUP4 GT PUSH2 0x2AD JUMPI DUP3 SWAP1 SUB PUSH1 0x1F AND DUP3 ADD SWAP2 JUMPDEST POP POP POP POP POP SWAP1 DUP1 PUSH1 0x1 ADD SLOAD SWAP1 POP DUP3 JUMP JUMPDEST PUSH1 0x0 PUSH1 0x40 MLOAD SWAP1 POP SWAP1 JUMP JUMPDEST PUSH1 0x0 DUP1 REVERT JUMPDEST PUSH1 0x0 DUP1 REVERT JUMPDEST PUSH1 0x0 DUP2 SWAP1 POP SWAP2 SWAP1 POP JUMP JUMPDEST PUSH2 0x301 DUP2 PUSH2 0x2EE JUMP JUMPDEST DUP2 EQ PUSH2 0x30C JUMPI PUSH1 0x0 DUP1 REVERT JUMPDEST POP JUMP JUMPDEST PUSH1 0x0 DUP2 CALLDATALOAD SWAP1 POP PUSH2 0x31E DUP2 PUSH2 0x2F8 JUMP JUMPDEST SWAP3 SWAP2 POP POP JUMP JUMPDEST PUSH1 0x0 PUSH1 0x20 DUP3 DUP5 SUB SLT ISZERO PUSH2 0x33A JUMPI PUSH2 0x339 PUSH2 0x2E4 JUMP JUMPDEST JUMPDEST PUSH1 0x0 PUSH2 0x348 DUP5 DUP3 DUP6 ADD PUSH2 0x30F JUMP JUMPDEST SWAP2 POP POP SWAP3 SWAP2 POP POP JUMP JUMPDEST PUSH1 0x0 DUP2 MLOAD SWAP1 POP SWAP2 SWAP1 POP JUMP JUMPDEST PUSH1 0x0 DUP3 DUP3 MSTORE PUSH1 0x20 DUP3 ADD SWAP1 POP SWAP3 SWAP2 POP POP JUMP JUMPDEST PUSH1 0x0 JUMPDEST DUP4 DUP2 LT ISZERO PUSH2 0x38B JUMPI DUP1 DUP3 ADD MLOAD DUP2 DUP5 ADD MSTORE PUSH1 0x20 DUP2 ADD SWAP1 POP PUSH2 0x370 JUMP JUMPDEST PUSH1 0x0 DUP5 DUP5 ADD MSTORE POP POP POP POP JUMP JUMPDEST PUSH1 0x0 PUSH1 0x1F NOT PUSH1 0x1F DUP4 ADD AND SWAP1 POP SWAP2 SWAP1 POP JUMP JUMPDEST PUSH1 0x0 PUSH2 0x3B3 DUP3 PUSH2 0x351 JUMP JUMPDEST PUSH2 0x3BD DUP2 DUP6 PUSH2 0x35C JUMP JUMPDEST SWAP4 POP PUSH2 0x3CD DUP2 DUP6 PUSH1 0x20 DUP7 ADD PUSH2 0x36D JUMP JUMPDEST PUSH2 0x3D6 DUP2 PUSH2 0x397 JUMP JUMPDEST DUP5 ADD SWAP2 POP POP SWAP3 SWAP2 POP POP JUMP JUMPDEST PUSH2 0x3EA DUP2 PUSH2 0x2EE JUMP JUMPDEST DUP3 MSTORE POP POP JUMP JUMPDEST PUSH1 0x0 PUSH1 0x40 DUP3 ADD SWAP1 POP DUP2 DUP2 SUB PUSH1 0x0 DUP4 ADD MSTORE PUSH2 0x40A DUP2 DUP6 PUSH2 0x3A8 JUMP JUMPDEST SWAP1 POP PUSH2 0x419 PUSH1 0x20 DUP4 ADD DUP5 PUSH2 0x3E1 JUMP JUMPDEST SWAP4 SWAP3 POP POP POP JUMP JUMPDEST PUSH1 0x0 DUP1 REVERT JUMPDEST PUSH1 0x0 DUP1 REVERT JUMPDEST PUSH32 0x4E487B7100000000000000000000000000000000000000000000000000000000 PUSH1 0x0 MSTORE PUSH1 0x41 PUSH1 0x4 MSTORE PUSH1 0x24 PUSH1 0x0 REVERT JUMPDEST PUSH2 0x462 DUP3 PUSH2 0x397 JUMP JUMPDEST DUP2 ADD DUP2 DUP2 LT PUSH8 0xFFFFFFFFFFFFFFFF DUP3 GT OR ISZERO PUSH2 0x481 JUMPI PUSH2 0x480 PUSH2 0x42A JUMP JUMPDEST JUMPDEST DUP1 PUSH1 0x40 MSTORE POP POP POP JUMP JUMPDEST PUSH1 0x0 PUSH2 0x494 PUSH2 0x2DA JUMP JUMPDEST SWAP1 POP PUSH2 0x4A0 DUP3 DUP3 PUSH2 0x459 JUMP JUMPDEST SWAP2 SWAP1 POP JUMP JUMPDEST PUSH1 0x0 PUSH8 0xFFFFFFFFFFFFFFFF DUP3 GT ISZERO PUSH2 0x4C0 JUMPI PUSH2 0x4BF PUSH2 0x42A JUMP JUMPDEST JUMPDEST PUSH2 0x4C9 DUP3 PUSH2 0x397 JUMP JUMPDEST SWAP1 POP PUSH1 0x20 DUP2 ADD SWAP1 POP SWAP2 SWAP1 POP JUMP JUMPDEST DUP3 DUP2 DUP4 CALLDATACOPY PUSH1 0x0 DUP4 DUP4 ADD MSTORE POP POP POP JUMP JUMPDEST PUSH1 0x0 PUSH2 0x4F8 PUSH2 0x4F3 DUP5 PUSH2 0x4A5 JUMP JUMPDEST PUSH2 0x48A JUMP JUMPDEST SWAP1 POP DUP3 DUP2 MSTORE PUSH1 0x20 DUP2 ADD DUP5 DUP5 DUP5 ADD GT ISZERO PUSH2 0x514 JUMPI PUSH2 0x513 PUSH2 0x425 JUMP JUMPDEST JUMPDEST PUSH2 0x51F DUP5 DUP3 DUP6 PUSH2 0x4D6 JUMP JUMPDEST POP SWAP4 SWAP3 POP POP POP JUMP JUMPDEST PUSH1 0x0 DUP3 PUSH1 0x1F DUP4 ADD SLT PUSH2 0x53C JUMPI PUSH2 0x53B PUSH2 0x420 JUMP JUMPDEST JUMPDEST DUP2 CALLDATALOAD PUSH2 0x54C DUP5 DUP3 PUSH1 0x20 DUP7 ADD PUSH2 0x4E5 JUMP JUMPDEST SWAP2 POP POP SWAP3 SWAP2 POP POP JUMP JUMPDEST PUSH1 0x0 DUP1 PUSH1 0x40 DUP4 DUP6 SUB SLT ISZERO PUSH2 0x56C JUMPI PUSH2 0x56B PUSH2 0x2E4 JUMP JUMPDEST JUMPDEST PUSH1 0x0 DUP4 ADD CALLDATALOAD PUSH8 0xFFFFFFFFFFFFFFFF DUP2 GT ISZERO PUSH2 0x58A JUMPI PUSH2 0x589 PUSH2 0x2E9 JUMP JUMPDEST JUMPDEST PUSH2 0x596 DUP6 DUP3 DUP7 ADD PUSH2 0x527 JUMP JUMPDEST SWAP3 POP POP PUSH1 0x20 PUSH2 0x5A7 DUP6 DUP3 DUP7 ADD PUSH2 0x30F JUMP JUMPDEST SWAP2 POP POP SWAP3 POP SWAP3 SWAP1 POP JUMP JUMPDEST PUSH32 0x4E487B7100000000000000000000000000000000000000000000000000000000 PUSH1 0x0 MSTORE PUSH1 0x32 PUSH1 0x4 MSTORE PUSH1 0x24 PUSH1 0x0 REVERT JUMPDEST PUSH32 0x4E487B7100000000000000000000000000000000000000000000000000000000 PUSH1 0x0 MSTORE PUSH1 0x22 PUSH1 0x4 MSTORE PUSH1 0x24 PUSH1 0x0 REVERT JUMPDEST PUSH1 0x0 PUSH1 0x2 DUP3 DIV SWAP1 POP PUSH1 0x1 DUP3 AND DUP1 PUSH2 0x627 JUMPI PUSH1 0x7F DUP3 AND SWAP2 POP JUMPDEST PUSH1 0x20 DUP3 LT DUP2 SUB PUSH2 0x63A JUMPI PUSH2 0x639 PUSH2 0x5E0 JUMP JUMPDEST JUMPDEST POP SWAP2 SWAP1 POP JUMP JUMPDEST PUSH1 0x0 DUP2 SWAP1 POP DUP2 PUSH1 0x0 MSTORE PUSH1 0x20 PUSH1 0x0 KECCAK256 SWAP1 POP SWAP2 SWAP1 POP JUMP JUMPDEST PUSH1 0x0 PUSH1 0x20 PUSH1 0x1F DUP4 ADD DIV SWAP1 POP SWAP2 SWAP1 POP JUMP JUMPDEST PUSH1 0x0 DUP3 DUP3 SHL SWAP1 POP SWAP3 SWAP2 POP POP JUMP JUMPDEST PUSH1 0x0 PUSH1 0x8 DUP4 MUL PUSH2 0x6A2 PUSH32 0xFFFFFFFFFFFFFFFFFFFFFFFFFFFFFFFFFFFFFFFFFFFFFFFFFFFFFFFFFFFFFFFF DUP3 PUSH2 0x665 JUMP JUMPDEST PUSH2 0x6AC DUP7 DUP4 PUSH2 0x665 JUMP JUMPDEST SWAP6 POP DUP1 NOT DUP5 AND SWAP4 POP DUP1 DUP7 AND DUP5 OR SWAP3 POP POP POP SWAP4 SWAP3 POP POP POP JUMP JUMPDEST PUSH1 0x0 DUP2 SWAP1 POP SWAP2 SWAP1 POP JUMP JUMPDEST PUSH1 0x0 PUSH2 0x6E9 PUSH2 0x6E4 PUSH2 0x6DF DUP5 PUSH2 0x2EE JUMP JUMPDEST PUSH2 0x6C4 JUMP JUMPDEST PUSH2 0x2EE JUMP JUMPDEST SWAP1 POP SWAP2 SWAP1 POP JUMP JUMPDEST PUSH1 0x0 DUP2 SWAP1 POP SWAP2 SWAP1 POP JUMP JUMPDEST PUSH2 0x703 DUP4 PUSH2 0x6CE JUMP JUMPDEST PUSH2 0x717 PUSH2 0x70F DUP3 PUSH2 0x6F0 JUMP JUMPDEST DUP5 DUP5 SLOAD PUSH2 0x672 JUMP JUMPDEST DUP3 SSTORE POP POP POP POP JUMP JUMPDEST PUSH1 0x0 SWAP1 JUMP JUMPDEST PUSH2 0x72C PUSH2 0x71F JUMP JUMPDEST PUSH2 0x737 DUP2 DUP5 DUP5 PUSH2 0x6FA JUMP JUMPDEST POP POP POP JUMP JUMPDEST JUMPDEST DUP2 DUP2 LT ISZERO PUSH2 0x75B JUMPI PUSH2 0x750 PUSH1 0x0 DUP3 PUSH2 0x724 JUMP JUMPDEST PUSH1 0x1 DUP2 ADD SWAP1 POP PUSH2 0x73D JUMP JUMPDEST POP POP JUMP JUMPDEST PUSH1 0x1F DUP3 GT ISZERO PUSH2 0x7A0 JUMPI PUSH2 0x771 DUP2 PUSH2 0x640 JUMP JUMPDEST PUSH2 0x77A DUP5 PUSH2 0x655 JUMP JUMPDEST DUP2 ADD PUSH1 0x20 DUP6 LT ISZERO PUSH2 0x789 JUMPI DUP2 SWAP1 POP JUMPDEST PUSH2 0x79D PUSH2 0x795 DUP6 PUSH2 0x655 JUMP JUMPDEST DUP4 ADD DUP3 PUSH2 0x73C JUMP JUMPDEST POP POP JUMPDEST POP POP POP JUMP JUMPDEST PUSH1 0x0 DUP3 DUP3 SHR SWAP1 POP SWAP3 SWAP2 POP POP JUMP JUMPDEST PUSH1 0x0 PUSH2 0x7C3 PUSH1 0x0 NOT DUP5 PUSH1 0x8 MUL PUSH2 0x7A5 JUMP JUMPDEST NOT DUP1 DUP4 AND SWAP2 POP POP SWAP3 SWAP2 POP POP JUMP JUMPDEST PUSH1 0x0 PUSH2 0x7DC DUP4 DUP4 PUSH2 0x7B2 JUMP JUMPDEST SWAP2 POP DUP3 PUSH1 0x2 MUL DUP3 OR SWAP1 POP SWAP3 SWAP2 POP POP JUMP JUMPDEST PUSH2 0x7F5 DUP3 PUSH2 0x351 JUMP JUMPDEST PUSH8 0xFFFFFFFFFFFFFFFF DUP2 GT ISZERO PUSH2 0x80E JUMPI PUSH2 0x80D PUSH2 0x42A JUMP JUMPDEST JUMPDEST PUSH2 0x818 DUP3 SLOAD PUSH2 0x60F JUMP JUMPDEST PUSH2 0x823 DUP3 DUP3 DUP6 PUSH2 0x75F JUMP JUMPDEST PUSH1 0x0 PUSH1 0x20 SWAP1 POP PUSH1 0x1F DUP4 GT PUSH1 0x1 DUP2 EQ PUSH2 0x856 JUMPI PUSH1 0x0 DUP5 ISZERO PUSH2 0x844 JUMPI DUP3 DUP8 ADD MLOAD SWAP1 POP JUMPDEST PUSH2 0x84E DUP6 DUP3 PUSH2 0x7D0 JUMP JUMPDEST DUP7 SSTORE POP PUSH2 0x8B6 JUMP JUMPDEST PUSH1 0x1F NOT DUP5 AND PUSH2 0x864 DUP7 PUSH2 0x640 JUMP JUMPDEST PUSH1 0x0 JUMPDEST DUP3 DUP2 LT ISZERO PUSH2 0x88C JUMPI DUP5 DUP10 ADD MLOAD DUP3 SSTORE PUSH1 0x1 DUP3 ADD SWAP2 POP PUSH1 0x20 DUP6 ADD SWAP5 POP PUSH1 0x20 DUP2 ADD SWAP1 POP PUSH2 0x867 JUMP JUMPDEST DUP7 DUP4 LT ISZERO PUSH2 0x8A9 JUMPI DUP5 DUP10 ADD MLOAD PUSH2 0x8A5 PUSH1 0x1F DUP10 AND DUP3 PUSH2 0x7B2 JUMP JUMPDEST DUP4 SSTORE POP JUMPDEST PUSH1 0x1 PUSH1 0x2 DUP9 MUL ADD DUP9 SSTORE POP POP POP JUMPDEST POP POP POP POP POP POP JUMP INVALID LOG2 PUSH5 0x6970667358 0x22 SLT KECCAK256 0xDC 0x23 SHR 0xB0 PUSH14 0x93B05387D28DD7816CAF30008D57 CALLDATALOAD 0xAB PUSH15 0xEB4E569BE9A5567F260A64736F6C63 NUMBER STOP ADDMOD SLT STOP CALLER "
				},
				"gasEstimates": {
					"creation": {
						"codeDepositCost": "458400",
						"executionCost": "493",
						"totalCost": "458893"
					},
					"external": {
						"addPerson(string,uint256)": "infinite",
						"getPerson(uint256)": "infinite",
						"people(uint256)": "infinite"
					}
				},
				"methodIdentifiers": {
					"addPerson(string,uint256)": "6f760f41",
					"getPerson(uint256)": "246982c4",
					"people(uint256)": "9e7a13ad"
				}
			},
			"storageLayout": {
				"storage": [
					{
						"astId": 10,
						"contract": "Struct-Array.sol:PeopleList",
						"label": "people",
						"offset": 0,
						"slot": "0",
						"type": "t_array(t_struct(Person)6_storage)dyn_storage"
					}
				],
				"types": {
					"t_array(t_struct(Person)6_storage)dyn_storage": {
						"base": "t_struct(Person)6_storage",
						"encoding": "dynamic_array",
						"label": "struct PeopleList.Person[]",
						"numberOfBytes": "32"
					},
					"t_string_storage": {
						"encoding": "bytes",
						"label": "string",
						"numberOfBytes": "32"
					},
					"t_struct(Person)6_storage": {
						"encoding": "inplace",
						"label": "struct PeopleList.Person",
						"members": [
							{
								"astId": 3,
								"contract": "Struct-Array.sol:PeopleList",
								"label": "name",
								"offset": 0,
								"slot": "0",
								"type": "t_string_storage"
							},
							{
								"astId": 5,
								"contract": "Struct-Array.sol:PeopleList",
								"label": "age",
								"offset": 0,
								"slot": "1",
								"type": "t_uint256"
							}
						],
						"numberOfBytes": "64"
					},
					"t_uint256": {
						"encoding": "inplace",
						"label": "uint256",
						"numberOfBytes": "32"
					}
				}
			},
			"userdoc": {
				"kind": "user",
				"methods": {},
				"version": 1
			}
		}
	}
}