{
	"view-pure-function.sol": {
		"Calculator": {
			"abi": [
				{
					"inputs": [],
					"stateMutability": "nonpayable",
					"type": "constructor"
				},
				{
					"inputs": [
						{
							"internalType": "uint256",
							"name": "a",
							"type": "uint256"
						},
						{
							"internalType": "uint256",
							"name": "b",
							"type": "uint256"
						}
					],
					"name": "add",
					"outputs": [
						{
							"internalType": "uint256",
							"name": "",
							"type": "uint256"
						}
					],
					"stateMutability": "pure",
					"type": "function"
				},
				{
					"inputs": [],
					"name": "getOwner",
					"outputs": [
						{
							"internalType": "address",
							"name": "",
							"type": "address"
						}
					],
					"stateMutability": "view",
					"type": "function"
				},
				{
					"inputs": [
						{
							"internalType": "uint256",
							"name": "a",
							"type": "uint256"
						},
						{
							"internalType": "uint256",
							"name": "b",
							"type": "uint256"
						}
					],
					"name": "mine",
					"outputs": [
						{
							"internalType": "uint256",
							"name": "res",
							"type": "uint256"
						}
					],
					"stateMutability": "pure",
					"type": "function"
				},
				{
					"inputs": [],
					"name": "owner",
					"outputs": [
						{
							"internalType": "address",
							"name": "",
							"type": "address"
						}
					],
					"stateMutability": "view",
					"type": "function"
				}
			],
			"devdoc": {
				"kind": "dev",
				"methods": {},
				"version": 1
			},
			"evm": {
				"assembly": "    /* \"view-pure-function.sol\":57:1089  contract Calculator{... */\n  mstore(0x40, 0x80)\n    /* \"view-pure-function.sol\":481:595  constructor (){... */\n  callvalue\n  dup1\n  iszero\n  tag_1\n  jumpi\n  0x00\n  dup1\n  revert\ntag_1:\n  pop\n    /* \"view-pure-function.sol\":513:523  msg.sender */\n  caller\n    /* \"view-pure-function.sol\":505:510  owner */\n  0x00\n  dup1\n    /* \"view-pure-function.sol\":505:523  owner = msg.sender */\n  0x0100\n  exp\n  dup2\n  sload\n  dup2\n  0xffffffffffffffffffffffffffffffffffffffff\n  mul\n  not\n  and\n  swap1\n  dup4\n  0xffffffffffffffffffffffffffffffffffffffff\n  and\n  mul\n  or\n  swap1\n  sstore\n  pop\n    /* \"view-pure-function.sol\":57:1089  contract Calculator{... */\n  dataSize(sub_0)\n  dup1\n  dataOffset(sub_0)\n  0x00\n  codecopy\n  0x00\n  return\nstop\n\nsub_0: assembly {\n        /* \"view-pure-function.sol\":57:1089  contract Calculator{... */\n      mstore(0x40, 0x80)\n      callvalue\n      dup1\n      iszero\n      tag_1\n      jumpi\n      0x00\n      dup1\n      revert\n    tag_1:\n      pop\n      jumpi(tag_2, lt(calldatasize, 0x04))\n      shr(0xe0, calldataload(0x00))\n      dup1\n      0x071e9503\n      eq\n      tag_3\n      jumpi\n      dup1\n      0x771602f7\n      eq\n      tag_4\n      jumpi\n      dup1\n      0x893d20e8\n      eq\n      tag_5\n      jumpi\n      dup1\n      0x8da5cb5b\n      eq\n      tag_6\n      jumpi\n    tag_2:\n      0x00\n      dup1\n      revert\n        /* \"view-pure-function.sol\":865:954  function mine(uint a, uint b) public pure returns (uint res) {... */\n    tag_3:\n      tag_7\n      0x04\n      dup1\n      calldatasize\n      sub\n      dup2\n      add\n      swap1\n      tag_8\n      swap2\n      swap1\n      tag_9\n      jump\t// in\n    tag_8:\n      tag_10\n      jump\t// in\n    tag_7:\n      mload(0x40)\n      tag_11\n      swap2\n      swap1\n      tag_12\n      jump\t// in\n    tag_11:\n      mload(0x40)\n      dup1\n      swap2\n      sub\n      swap1\n      return\n        /* \"view-pure-function.sol\":673:775  function add(uint a, uint b) public  pure returns (uint) {... */\n    tag_4:\n      tag_13\n      0x04\n      dup1\n      calldatasize\n      sub\n      dup2\n      add\n      swap1\n      tag_14\n      swap2\n      swap1\n      tag_9\n      jump\t// in\n    tag_14:\n      tag_15\n      jump\t// in\n    tag_13:\n      mload(0x40)\n      tag_16\n      swap2\n      swap1\n      tag_12\n      jump\t// in\n    tag_16:\n      mload(0x40)\n      dup1\n      swap2\n      sub\n      swap1\n      return\n        /* \"view-pure-function.sol\":1002:1080  function getOwner() public view returns (address){... */\n    tag_5:\n      tag_17\n      tag_18\n      jump\t// in\n    tag_17:\n      mload(0x40)\n      tag_19\n      swap2\n      swap1\n      tag_20\n      jump\t// in\n    tag_19:\n      mload(0x40)\n      dup1\n      swap2\n      sub\n      swap1\n      return\n        /* \"view-pure-function.sol\":363:383  address public owner */\n    tag_6:\n      tag_21\n      tag_22\n      jump\t// in\n    tag_21:\n      mload(0x40)\n      tag_23\n      swap2\n      swap1\n      tag_20\n      jump\t// in\n    tag_23:\n      mload(0x40)\n      dup1\n      swap2\n      sub\n      swap1\n      return\n        /* \"view-pure-function.sol\":865:954  function mine(uint a, uint b) public pure returns (uint res) {... */\n    tag_10:\n        /* \"view-pure-function.sol\":916:924  uint res */\n      0x00\n        /* \"view-pure-function.sol\":946:947  b */\n      dup2\n        /* \"view-pure-function.sol\":942:943  a */\n      dup4\n        /* \"view-pure-function.sol\":942:947  a - b */\n      tag_25\n      swap2\n      swap1\n      tag_26\n      jump\t// in\n    tag_25:\n        /* \"view-pure-function.sol\":936:947  res = a - b */\n      swap1\n      pop\n        /* \"view-pure-function.sol\":865:954  function mine(uint a, uint b) public pure returns (uint res) {... */\n      swap3\n      swap2\n      pop\n      pop\n      jump\t// out\n        /* \"view-pure-function.sol\":673:775  function add(uint a, uint b) public  pure returns (uint) {... */\n    tag_15:\n        /* \"view-pure-function.sol\":724:728  uint */\n      0x00\n        /* \"view-pure-function.sol\":751:752  b */\n      dup2\n        /* \"view-pure-function.sol\":747:748  a */\n      dup4\n        /* \"view-pure-function.sol\":747:752  a + b */\n      tag_28\n      swap2\n      swap1\n      tag_29\n      jump\t// in\n    tag_28:\n        /* \"view-pure-function.sol\":740:752  return a + b */\n      swap1\n      pop\n        /* \"view-pure-function.sol\":673:775  function add(uint a, uint b) public  pure returns (uint) {... */\n      swap3\n      swap2\n      pop\n      pop\n      jump\t// out\n        /* \"view-pure-function.sol\":1002:1080  function getOwner() public view returns (address){... */\n    tag_18:\n        /* \"view-pure-function.sol\":1043:1050  address */\n      0x00\n        /* \"view-pure-function.sol\":1068:1073  owner */\n      dup1\n      0x00\n      swap1\n      sload\n      swap1\n      0x0100\n      exp\n      swap1\n      div\n      0xffffffffffffffffffffffffffffffffffffffff\n      and\n        /* \"view-pure-function.sol\":1061:1073  return owner */\n      swap1\n      pop\n        /* \"view-pure-function.sol\":1002:1080  function getOwner() public view returns (address){... */\n      swap1\n      jump\t// out\n        /* \"view-pure-function.sol\":363:383  address public owner */\n    tag_22:\n      0x00\n      dup1\n      sload\n      swap1\n      0x0100\n      exp\n      swap1\n      div\n      0xffffffffffffffffffffffffffffffffffffffff\n      and\n      dup2\n      jump\t// out\n        /* \"#utility.yul\":88:205   */\n    tag_32:\n        /* \"#utility.yul\":197:198   */\n      0x00\n        /* \"#utility.yul\":194:195   */\n      dup1\n        /* \"#utility.yul\":187:199   */\n      revert\n        /* \"#utility.yul\":334:411   */\n    tag_34:\n        /* \"#utility.yul\":371:378   */\n      0x00\n        /* \"#utility.yul\":400:405   */\n      dup2\n        /* \"#utility.yul\":389:405   */\n      swap1\n      pop\n        /* \"#utility.yul\":334:411   */\n      swap2\n      swap1\n      pop\n      jump\t// out\n        /* \"#utility.yul\":417:539   */\n    tag_35:\n        /* \"#utility.yul\":490:514   */\n      tag_48\n        /* \"#utility.yul\":508:513   */\n      dup2\n        /* \"#utility.yul\":490:514   */\n      tag_34\n      jump\t// in\n    tag_48:\n        /* \"#utility.yul\":483:488   */\n      dup2\n        /* \"#utility.yul\":480:515   */\n      eq\n        /* \"#utility.yul\":470:533   */\n      tag_49\n      jumpi\n        /* \"#utility.yul\":529:530   */\n      0x00\n        /* \"#utility.yul\":526:527   */\n      dup1\n        /* \"#utility.yul\":519:531   */\n      revert\n        /* \"#utility.yul\":470:533   */\n    tag_49:\n        /* \"#utility.yul\":417:539   */\n      pop\n      jump\t// out\n        /* \"#utility.yul\":545:684   */\n    tag_36:\n        /* \"#utility.yul\":591:596   */\n      0x00\n        /* \"#utility.yul\":629:635   */\n      dup2\n        /* \"#utility.yul\":616:636   */\n      calldataload\n        /* \"#utility.yul\":607:636   */\n      swap1\n      pop\n        /* \"#utility.yul\":645:678   */\n      tag_51\n        /* \"#utility.yul\":672:677   */\n      dup2\n        /* \"#utility.yul\":645:678   */\n      tag_35\n      jump\t// in\n    tag_51:\n        /* \"#utility.yul\":545:684   */\n      swap3\n      swap2\n      pop\n      pop\n      jump\t// out\n        /* \"#utility.yul\":690:1164   */\n    tag_9:\n        /* \"#utility.yul\":758:764   */\n      0x00\n        /* \"#utility.yul\":766:772   */\n      dup1\n        /* \"#utility.yul\":815:817   */\n      0x40\n        /* \"#utility.yul\":803:812   */\n      dup4\n        /* \"#utility.yul\":794:801   */\n      dup6\n        /* \"#utility.yul\":790:813   */\n      sub\n        /* \"#utility.yul\":786:818   */\n      slt\n        /* \"#utility.yul\":783:902   */\n      iszero\n      tag_53\n      jumpi\n        /* \"#utility.yul\":821:900   */\n      tag_54\n      tag_32\n      jump\t// in\n    tag_54:\n        /* \"#utility.yul\":783:902   */\n    tag_53:\n        /* \"#utility.yul\":941:942   */\n      0x00\n        /* \"#utility.yul\":966:1019   */\n      tag_55\n        /* \"#utility.yul\":1011:1018   */\n      dup6\n        /* \"#utility.yul\":1002:1008   */\n      dup3\n        /* \"#utility.yul\":991:1000   */\n      dup7\n        /* \"#utility.yul\":987:1009   */\n      add\n        /* \"#utility.yul\":966:1019   */\n      tag_36\n      jump\t// in\n    tag_55:\n        /* \"#utility.yul\":956:1019   */\n      swap3\n      pop\n        /* \"#utility.yul\":912:1029   */\n      pop\n        /* \"#utility.yul\":1068:1070   */\n      0x20\n        /* \"#utility.yul\":1094:1147   */\n      tag_56\n        /* \"#utility.yul\":1139:1146   */\n      dup6\n        /* \"#utility.yul\":1130:1136   */\n      dup3\n        /* \"#utility.yul\":1119:1128   */\n      dup7\n        /* \"#utility.yul\":1115:1137   */\n      add\n        /* \"#utility.yul\":1094:1147   */\n      tag_36\n      jump\t// in\n    tag_56:\n        /* \"#utility.yul\":1084:1147   */\n      swap2\n      pop\n        /* \"#utility.yul\":1039:1157   */\n      pop\n        /* \"#utility.yul\":690:1164   */\n      swap3\n      pop\n      swap3\n      swap1\n      pop\n      jump\t// out\n        /* \"#utility.yul\":1170:1288   */\n    tag_37:\n        /* \"#utility.yul\":1257:1281   */\n      tag_58\n        /* \"#utility.yul\":1275:1280   */\n      dup2\n        /* \"#utility.yul\":1257:1281   */\n      tag_34\n      jump\t// in\n    tag_58:\n        /* \"#utility.yul\":1252:1255   */\n      dup3\n        /* \"#utility.yul\":1245:1282   */\n      mstore\n        /* \"#utility.yul\":1170:1288   */\n      pop\n      pop\n      jump\t// out\n        /* \"#utility.yul\":1294:1516   */\n    tag_12:\n        /* \"#utility.yul\":1387:1391   */\n      0x00\n        /* \"#utility.yul\":1425:1427   */\n      0x20\n        /* \"#utility.yul\":1414:1423   */\n      dup3\n        /* \"#utility.yul\":1410:1428   */\n      add\n        /* \"#utility.yul\":1402:1428   */\n      swap1\n      pop\n        /* \"#utility.yul\":1438:1509   */\n      tag_60\n        /* \"#utility.yul\":1506:1507   */\n      0x00\n        /* \"#utility.yul\":1495:1504   */\n      dup4\n        /* \"#utility.yul\":1491:1508   */\n      add\n        /* \"#utility.yul\":1482:1488   */\n      dup5\n        /* \"#utility.yul\":1438:1509   */\n      tag_37\n      jump\t// in\n    tag_60:\n        /* \"#utility.yul\":1294:1516   */\n      swap3\n      swap2\n      pop\n      pop\n      jump\t// out\n        /* \"#utility.yul\":1522:1648   */\n    tag_38:\n        /* \"#utility.yul\":1559:1566   */\n      0x00\n        /* \"#utility.yul\":1599:1641   */\n      0xffffffffffffffffffffffffffffffffffffffff\n        /* \"#utility.yul\":1592:1597   */\n      dup3\n        /* \"#utility.yul\":1588:1642   */\n      and\n        /* \"#utility.yul\":1577:1642   */\n      swap1\n      pop\n        /* \"#utility.yul\":1522:1648   */\n      swap2\n      swap1\n      pop\n      jump\t// out\n        /* \"#utility.yul\":1654:1750   */\n    tag_39:\n        /* \"#utility.yul\":1691:1698   */\n      0x00\n        /* \"#utility.yul\":1720:1744   */\n      tag_63\n        /* \"#utility.yul\":1738:1743   */\n      dup3\n        /* \"#utility.yul\":1720:1744   */\n      tag_38\n      jump\t// in\n    tag_63:\n        /* \"#utility.yul\":1709:1744   */\n      swap1\n      pop\n        /* \"#utility.yul\":1654:1750   */\n      swap2\n      swap1\n      pop\n      jump\t// out\n        /* \"#utility.yul\":1756:1874   */\n    tag_40:\n        /* \"#utility.yul\":1843:1867   */\n      tag_65\n        /* \"#utility.yul\":1861:1866   */\n      dup2\n        /* \"#utility.yul\":1843:1867   */\n      tag_39\n      jump\t// in\n    tag_65:\n        /* \"#utility.yul\":1838:1841   */\n      dup3\n        /* \"#utility.yul\":1831:1868   */\n      mstore\n        /* \"#utility.yul\":1756:1874   */\n      pop\n      pop\n      jump\t// out\n        /* \"#utility.yul\":1880:2102   */\n    tag_20:\n        /* \"#utility.yul\":1973:1977   */\n      0x00\n        /* \"#utility.yul\":2011:2013   */\n      0x20\n        /* \"#utility.yul\":2000:2009   */\n      dup3\n        /* \"#utility.yul\":1996:2014   */\n      add\n        /* \"#utility.yul\":1988:2014   */\n      swap1\n      pop\n        /* \"#utility.yul\":2024:2095   */\n      tag_67\n        /* \"#utility.yul\":2092:2093   */\n      0x00\n        /* \"#utility.yul\":2081:2090   */\n      dup4\n        /* \"#utility.yul\":2077:2094   */\n      add\n        /* \"#utility.yul\":2068:2074   */\n      dup5\n        /* \"#utility.yul\":2024:2095   */\n      tag_40\n      jump\t// in\n    tag_67:\n        /* \"#utility.yul\":1880:2102   */\n      swap3\n      swap2\n      pop\n      pop\n      jump\t// out\n        /* \"#utility.yul\":2108:2288   */\n    tag_41:\n        /* \"#utility.yul\":2156:2233   */\n      0x4e487b7100000000000000000000000000000000000000000000000000000000\n        /* \"#utility.yul\":2153:2154   */\n      0x00\n        /* \"#utility.yul\":2146:2234   */\n      mstore\n        /* \"#utility.yul\":2253:2257   */\n      0x11\n        /* \"#utility.yul\":2250:2251   */\n      0x04\n        /* \"#utility.yul\":2243:2258   */\n      mstore\n        /* \"#utility.yul\":2277:2281   */\n      0x24\n        /* \"#utility.yul\":2274:2275   */\n      0x00\n        /* \"#utility.yul\":2267:2282   */\n      revert\n        /* \"#utility.yul\":2294:2488   */\n    tag_26:\n        /* \"#utility.yul\":2334:2338   */\n      0x00\n        /* \"#utility.yul\":2354:2374   */\n      tag_70\n        /* \"#utility.yul\":2372:2373   */\n      dup3\n        /* \"#utility.yul\":2354:2374   */\n      tag_34\n      jump\t// in\n    tag_70:\n        /* \"#utility.yul\":2349:2374   */\n      swap2\n      pop\n        /* \"#utility.yul\":2388:2408   */\n      tag_71\n        /* \"#utility.yul\":2406:2407   */\n      dup4\n        /* \"#utility.yul\":2388:2408   */\n      tag_34\n      jump\t// in\n    tag_71:\n        /* \"#utility.yul\":2383:2408   */\n      swap3\n      pop\n        /* \"#utility.yul\":2432:2433   */\n      dup3\n        /* \"#utility.yul\":2429:2430   */\n      dup3\n        /* \"#utility.yul\":2425:2434   */\n      sub\n        /* \"#utility.yul\":2417:2434   */\n      swap1\n      pop\n        /* \"#utility.yul\":2456:2457   */\n      dup2\n        /* \"#utility.yul\":2450:2454   */\n      dup2\n        /* \"#utility.yul\":2447:2458   */\n      gt\n        /* \"#utility.yul\":2444:2481   */\n      iszero\n      tag_72\n      jumpi\n        /* \"#utility.yul\":2461:2479   */\n      tag_73\n      tag_41\n      jump\t// in\n    tag_73:\n        /* \"#utility.yul\":2444:2481   */\n    tag_72:\n        /* \"#utility.yul\":2294:2488   */\n      swap3\n      swap2\n      pop\n      pop\n      jump\t// out\n        /* \"#utility.yul\":2494:2685   */\n    tag_29:\n        /* \"#utility.yul\":2534:2537   */\n      0x00\n        /* \"#utility.yul\":2553:2573   */\n      tag_75\n        /* \"#utility.yul\":2571:2572   */\n      dup3\n        /* \"#utility.yul\":2553:2573   */\n      tag_34\n      jump\t// in\n    tag_75:\n        /* \"#utility.yul\":2548:2573   */\n      swap2\n      pop\n        /* \"#utility.yul\":2587:2607   */\n      tag_76\n        /* \"#utility.yul\":2605:2606   */\n      dup4\n        /* \"#utility.yul\":2587:2607   */\n      tag_34\n      jump\t// in\n    tag_76:\n        /* \"#utility.yul\":2582:2607   */\n      swap3\n      pop\n        /* \"#utility.yul\":2630:2631   */\n      dup3\n        /* \"#utility.yul\":2627:2628   */\n      dup3\n        /* \"#utility.yul\":2623:2632   */\n      add\n        /* \"#utility.yul\":2616:2632   */\n      swap1\n      pop\n        /* \"#utility.yul\":2651:2654   */\n      dup1\n        /* \"#utility.yul\":2648:2649   */\n      dup3\n        /* \"#utility.yul\":2645:2655   */\n      gt\n        /* \"#utility.yul\":2642:2678   */\n      iszero\n      tag_77\n      jumpi\n        /* \"#utility.yul\":2658:2676   */\n      tag_78\n      tag_41\n      jump\t// in\n    tag_78:\n        /* \"#utility.yul\":2642:2678   */\n    tag_77:\n        /* \"#utility.yul\":2494:2685   */\n      swap3\n      swap2\n      pop\n      pop\n      jump\t// out\n\n    auxdata: 0xa26469706673582212201ce37a9e7cb67cf71b4d099053a7156fa277b13ab66e695c20af6108a0055eb764736f6c63430008120033\n}\n",
				"bytecode": {
					"linkReferences": {},
					"object": "608060405234801561001057600080fd5b50336000806101000a81548173ffffffffffffffffffffffffffffffffffffffff021916908373ffffffffffffffffffffffffffffffffffffffff160217905550610334806100606000396000f3fe608060405234801561001057600080fd5b506004361061004c5760003560e01c8063071e950314610051578063771602f714610081578063893d20e8146100b15780638da5cb5b146100cf575b600080fd5b61006b600480360381019061006691906101a1565b6100ed565b60405161007891906101f0565b60405180910390f35b61009b600480360381019061009691906101a1565b610103565b6040516100a891906101f0565b60405180910390f35b6100b9610119565b6040516100c6919061024c565b60405180910390f35b6100d7610142565b6040516100e4919061024c565b60405180910390f35b600081836100fb9190610296565b905092915050565b6000818361011191906102ca565b905092915050565b60008060009054906101000a900473ffffffffffffffffffffffffffffffffffffffff16905090565b60008054906101000a900473ffffffffffffffffffffffffffffffffffffffff1681565b600080fd5b6000819050919050565b61017e8161016b565b811461018957600080fd5b50565b60008135905061019b81610175565b92915050565b600080604083850312156101b8576101b7610166565b5b60006101c68582860161018c565b92505060206101d78582860161018c565b9150509250929050565b6101ea8161016b565b82525050565b600060208201905061020560008301846101e1565b92915050565b600073ffffffffffffffffffffffffffffffffffffffff82169050919050565b60006102368261020b565b9050919050565b6102468161022b565b82525050565b6000602082019050610261600083018461023d565b92915050565b7f4e487b7100000000000000000000000000000000000000000000000000000000600052601160045260246000fd5b60006102a18261016b565b91506102ac8361016b565b92508282039050818111156102c4576102c3610267565b5b92915050565b60006102d58261016b565b91506102e08361016b565b92508282019050808211156102f8576102f7610267565b5b9291505056fea26469706673582212201ce37a9e7cb67cf71b4d099053a7156fa277b13ab66e695c20af6108a0055eb764736f6c63430008120033",
					"opcodes": "PUSH1 0x80 PUSH1 0x40 MSTORE CALLVALUE DUP1 ISZERO PUSH2 0x10 JUMPI PUSH1 0x0 DUP1 REVERT JUMPDEST POP CALLER PUSH1 0x0 DUP1 PUSH2 0x100 EXP DUP2 SLOAD DUP2 PUSH20 0xFFFFFFFFFFFFFFFFFFFFFFFFFFFFFFFFFFFFFFFF MUL NOT AND SWAP1 DUP4 PUSH20 0xFFFFFFFFFFFFFFFFFFFFFFFFFFFFFFFFFFFFFFFF AND MUL OR SWAP1 SSTORE POP PUSH2 0x334 DUP1 PUSH2 0x60 PUSH1 0x0 CODECOPY PUSH1 0x0 RETURN INVALID PUSH1 0x80 PUSH1 0x40 MSTORE CALLVALUE DUP1 ISZERO PUSH2 0x10 JUMPI PUSH1 0x0 DUP1 REVERT JUMPDEST POP PUSH1 0x4 CALLDATASIZE LT PUSH2 0x4C JUMPI PUSH1 0x0 CALLDATALOAD PUSH1 0xE0 SHR DUP1 PUSH4 0x71E9503 EQ PUSH2 0x51 JUMPI DUP1 PUSH4 0x771602F7 EQ PUSH2 0x81 JUMPI DUP1 PUSH4 0x893D20E8 EQ PUSH2 0xB1 JUMPI DUP1 PUSH4 0x8DA5CB5B EQ PUSH2 0xCF JUMPI JUMPDEST PUSH1 0x0 DUP1 REVERT JUMPDEST PUSH2 0x6B PUSH1 0x4 DUP1 CALLDATASIZE SUB DUP2 ADD SWAP1 PUSH2 0x66 SWAP2 SWAP1 PUSH2 0x1A1 JUMP JUMPDEST PUSH2 0xED JUMP JUMPDEST PUSH1 0x40 MLOAD PUSH2 0x78 SWAP2 SWAP1 PUSH2 0x1F0 JUMP JUMPDEST PUSH1 0x40 MLOAD DUP1 SWAP2 SUB SWAP1 RETURN JUMPDEST PUSH2 0x9B PUSH1 0x4 DUP1 CALLDATASIZE SUB DUP2 ADD SWAP1 PUSH2 0x96 SWAP2 SWAP1 PUSH2 0x1A1 JUMP JUMPDEST PUSH2 0x103 JUMP JUMPDEST PUSH1 0x40 MLOAD PUSH2 0xA8 SWAP2 SWAP1 PUSH2 0x1F0 JUMP JUMPDEST PUSH1 0x40 MLOAD DUP1 SWAP2 SUB SWAP1 RETURN JUMPDEST PUSH2 0xB9 PUSH2 0x119 JUMP JUMPDEST PUSH1 0x40 MLOAD PUSH2 0xC6 SWAP2 SWAP1 PUSH2 0x24C JUMP JUMPDEST PUSH1 0x40 MLOAD DUP1 SWAP2 SUB SWAP1 RETURN JUMPDEST PUSH2 0xD7 PUSH2 0x142 JUMP JUMPDEST PUSH1 0x40 MLOAD PUSH2 0xE4 SWAP2 SWAP1 PUSH2 0x24C JUMP JUMPDEST PUSH1 0x40 MLOAD DUP1 SWAP2 SUB SWAP1 RETURN JUMPDEST PUSH1 0x0 DUP2 DUP4 PUSH2 0xFB SWAP2 SWAP1 PUSH2 0x296 JUMP JUMPDEST SWAP1 POP SWAP3 SWAP2 POP POP JUMP JUMPDEST PUSH1 0x0 DUP2 DUP4 PUSH2 0x111 SWAP2 SWAP1 PUSH2 0x2CA JUMP JUMPDEST SWAP1 POP SWAP3 SWAP2 POP POP JUMP JUMPDEST PUSH1 0x0 DUP1 PUSH1 0x0 SWAP1 SLOAD SWAP1 PUSH2 0x100 EXP SWAP1 DIV PUSH20 0xFFFFFFFFFFFFFFFFFFFFFFFFFFFFFFFFFFFFFFFF AND SWAP1 POP SWAP1 JUMP JUMPDEST PUSH1 0x0 DUP1 SLOAD SWAP1 PUSH2 0x100 EXP SWAP1 DIV PUSH20 0xFFFFFFFFFFFFFFFFFFFFFFFFFFFFFFFFFFFFFFFF AND DUP2 JUMP JUMPDEST PUSH1 0x0 DUP1 REVERT JUMPDEST PUSH1 0x0 DUP2 SWAP1 POP SWAP2 SWAP1 POP JUMP JUMPDEST PUSH2 0x17E DUP2 PUSH2 0x16B JUMP JUMPDEST DUP2 EQ PUSH2 0x189 JUMPI PUSH1 0x0 DUP1 REVERT JUMPDEST POP JUMP JUMPDEST PUSH1 0x0 DUP2 CALLDATALOAD SWAP1 POP PUSH2 0x19B DUP2 PUSH2 0x175 JUMP JUMPDEST SWAP3 SWAP2 POP POP JUMP JUMPDEST PUSH1 0x0 DUP1 PUSH1 0x40 DUP4 DUP6 SUB SLT ISZERO PUSH2 0x1B8 JUMPI PUSH2 0x1B7 PUSH2 0x166 JUMP JUMPDEST JUMPDEST PUSH1 0x0 PUSH2 0x1C6 DUP6 DUP3 DUP7 ADD PUSH2 0x18C JUMP JUMPDEST SWAP3 POP POP PUSH1 0x20 PUSH2 0x1D7 DUP6 DUP3 DUP7 ADD PUSH2 0x18C JUMP JUMPDEST SWAP2 POP POP SWAP3 POP SWAP3 SWAP1 POP JUMP JUMPDEST PUSH2 0x1EA DUP2 PUSH2 0x16B JUMP JUMPDEST DUP3 MSTORE POP POP JUMP JUMPDEST PUSH1 0x0 PUSH1 0x20 DUP3 ADD SWAP1 POP PUSH2 0x205 PUSH1 0x0 DUP4 ADD DUP5 PUSH2 0x1E1 JUMP JUMPDEST SWAP3 SWAP2 POP POP JUMP JUMPDEST PUSH1 0x0 PUSH20 0xFFFFFFFFFFFFFFFFFFFFFFFFFFFFFFFFFFFFFFFF DUP3 AND SWAP1 POP SWAP2 SWAP1 POP JUMP JUMPDEST PUSH1 0x0 PUSH2 0x236 DUP3 PUSH2 0x20B JUMP JUMPDEST SWAP1 POP SWAP2 SWAP1 POP JUMP JUMPDEST PUSH2 0x246 DUP2 PUSH2 0x22B JUMP JUMPDEST DUP3 MSTORE POP POP JUMP JUMPDEST PUSH1 0x0 PUSH1 0x20 DUP3 ADD SWAP1 POP PUSH2 0x261 PUSH1 0x0 DUP4 ADD DUP5 PUSH2 0x23D JUMP JUMPDEST SWAP3 SWAP2 POP POP JUMP JUMPDEST PUSH32 0x4E487B7100000000000000000000000000000000000000000000000000000000 PUSH1 0x0 MSTORE PUSH1 0x11 PUSH1 0x4 MSTORE PUSH1 0x24 PUSH1 0x0 REVERT JUMPDEST PUSH1 0x0 PUSH2 0x2A1 DUP3 PUSH2 0x16B JUMP JUMPDEST SWAP2 POP PUSH2 0x2AC DUP4 PUSH2 0x16B JUMP JUMPDEST SWAP3 POP DUP3 DUP3 SUB SWAP1 POP DUP2 DUP2 GT ISZERO PUSH2 0x2C4 JUMPI PUSH2 0x2C3 PUSH2 0x267 JUMP JUMPDEST JUMPDEST SWAP3 SWAP2 POP POP JUMP JUMPDEST PUSH1 0x0 PUSH2 0x2D5 DUP3 PUSH2 0x16B JUMP JUMPDEST SWAP2 POP PUSH2 0x2E0 DUP4 PUSH2 0x16B JUMP JUMPDEST SWAP3 POP DUP3 DUP3 ADD SWAP1 POP DUP1 DUP3 GT ISZERO PUSH2 0x2F8 JUMPI PUSH2 0x2F7 PUSH2 0x267 JUMP JUMPDEST JUMPDEST SWAP3 SWAP2 POP POP JUMP INVALID LOG2 PUSH5 0x6970667358 0x22 SLT KECCAK256 SHR 0xE3 PUSH27 0x9E7CB67CF71B4D099053A7156FA277B13AB66E695C20AF6108A005 0x5E 0xB7 PUSH5 0x736F6C6343 STOP ADDMOD SLT STOP CALLER "
				},
				"gasEstimates": {
					"creation": {
						"codeDepositCost": "164000",
						"executionCost": "24474",
						"totalCost": "188474"
					},
					"external": {
						"add(uint256,uint256)": "infinite",
						"getOwner()": "2544",
						"mine(uint256,uint256)": "infinite",
						"owner()": "2555"
					}
				},
				"methodIdentifiers": {
					"add(uint256,uint256)": "771602f7",
					"getOwner()": "893d20e8",
					"mine(uint256,uint256)": "071e9503",
					"owner()": "8da5cb5b"
				}
			},
			"storageLayout": {
				"storage": [
					{
						"astId": 3,
						"contract": "view-pure-function.sol:Calculator",
						"label": "owner",
						"offset": 0,
						"slot": "0",
						"type": "t_address"
					}
				],
				"types": {
					"t_address": {
						"encoding": "inplace",
						"label": "address",
						"numberOfBytes": "20"
					}
				}
			},
			"userdoc": {
				"kind": "user",
				"methods": {},
				"version": 1
			}
		}
	}
}