{
	"remix-fundme/CryptoCrowdfund.sol": {
		"CryptoCrowdfund": {
			"abi": [
				{
					"inputs": [],
					"stateMutability": "nonpayable",
					"type": "constructor"
				},
				{
					"inputs": [],
					"name": "notFinish",
					"type": "error"
				},
				{
					"inputs": [],
					"name": "notOwner",
					"type": "error"
				},
				{
					"inputs": [],
					"name": "withdrawFailed",
					"type": "error"
				},
				{
					"stateMutability": "payable",
					"type": "fallback"
				},
				{
					"inputs": [
						{
							"internalType": "address",
							"name": "",
							"type": "address"
						}
					],
					"name": "addressToAmountFunded",
					"outputs": [
						{
							"internalType": "uint256",
							"name": "",
							"type": "uint256"
						}
					],
					"stateMutability": "view",
					"type": "function"
				},
				{
					"inputs": [],
					"name": "fund",
					"outputs": [],
					"stateMutability": "payable",
					"type": "function"
				},
				{
					"inputs": [
						{
							"internalType": "uint256",
							"name": "",
							"type": "uint256"
						}
					],
					"name": "funders",
					"outputs": [
						{
							"internalType": "address",
							"name": "",
							"type": "address"
						}
					],
					"stateMutability": "view",
					"type": "function"
				},
				{
					"inputs": [],
					"name": "getRemainingTime",
					"outputs": [
						{
							"internalType": "uint256",
							"name": "",
							"type": "uint256"
						}
					],
					"stateMutability": "view",
					"type": "function"
				},
				{
					"inputs": [],
					"name": "getTotalRaisedInUsd",
					"outputs": [
						{
							"internalType": "uint256",
							"name": "",
							"type": "uint256"
						}
					],
					"stateMutability": "view",
					"type": "function"
				},
				{
					"inputs": [],
					"name": "goalReached",
					"outputs": [
						{
							"internalType": "bool",
							"name": "",
							"type": "bool"
						}
					],
					"stateMutability": "view",
					"type": "function"
				},
				{
					"inputs": [
						{
							"internalType": "address",
							"name": "",
							"type": "address"
						}
					],
					"name": "hasFunded",
					"outputs": [
						{
							"internalType": "bool",
							"name": "",
							"type": "bool"
						}
					],
					"stateMutability": "view",
					"type": "function"
				},
				{
					"inputs": [],
					"name": "i_deadline",
					"outputs": [
						{
							"internalType": "uint256",
							"name": "",
							"type": "uint256"
						}
					],
					"stateMutability": "view",
					"type": "function"
				},
				{
					"inputs": [],
					"name": "i_goal",
					"outputs": [
						{
							"internalType": "uint256",
							"name": "",
							"type": "uint256"
						}
					],
					"stateMutability": "view",
					"type": "function"
				},
				{
					"inputs": [],
					"name": "i_owner",
					"outputs": [
						{
							"internalType": "address",
							"name": "",
							"type": "address"
						}
					],
					"stateMutability": "view",
					"type": "function"
				},
				{
					"inputs": [],
					"name": "totalAmount",
					"outputs": [
						{
							"internalType": "uint256",
							"name": "",
							"type": "uint256"
						}
					],
					"stateMutability": "view",
					"type": "function"
				},
				{
					"inputs": [],
					"name": "withdraw",
					"outputs": [],
					"stateMutability": "nonpayable",
					"type": "function"
				},
				{
					"stateMutability": "payable",
					"type": "receive"
				}
			],
			"devdoc": {
				"kind": "dev",
				"methods": {},
				"version": 1
			},
			"evm": {
				"assembly": "    /* \"remix-fundme/CryptoCrowdfund.sol\":284:4276  contract CryptoCrowdfund{... */\n  mstore(0x40, 0xe0)\n    /* \"remix-fundme/CryptoCrowdfund.sol\":848:1019  constructor(){... */\n  callvalue\n  dup1\n  iszero\n  tag_1\n  jumpi\n  0x00\n  dup1\n  revert\ntag_1:\n  pop\n    /* \"remix-fundme/CryptoCrowdfund.sol\":881:891  msg.sender */\n  caller\n    /* \"remix-fundme/CryptoCrowdfund.sol\":871:891  i_owner = msg.sender */\n  0xffffffffffffffffffffffffffffffffffffffff\n  and\n  0x80\n  dup2\n  0xffffffffffffffffffffffffffffffffffffffff\n  and\n  dup2\n  mstore\n  pop\n  pop\n    /* \"remix-fundme/CryptoCrowdfund.sol\":910:919  50 * 1e18 */\n  0x02b5e3af16b1880000\n    /* \"remix-fundme/CryptoCrowdfund.sol\":901:919  i_goal = 50 * 1e18 */\n  0xa0\n  dup2\n  dup2\n  mstore\n  pop\n  pop\n    /* \"remix-fundme/CryptoCrowdfund.sol\":969:974  30*60 */\n  0x0708\n    /* \"remix-fundme/CryptoCrowdfund.sol\":950:965  block.timestamp */\n  timestamp\n    /* \"remix-fundme/CryptoCrowdfund.sol\":950:974  block.timestamp +  30*60 */\n  tag_4\n  swap2\n  swap1\n  tag_5\n  jump\t// in\ntag_4:\n    /* \"remix-fundme/CryptoCrowdfund.sol\":937:974  i_deadline = block.timestamp +  30*60 */\n  0xc0\n  dup2\n  dup2\n  mstore\n  pop\n  pop\n    /* \"remix-fundme/CryptoCrowdfund.sol\":284:4276  contract CryptoCrowdfund{... */\n  jump(tag_6)\n    /* \"#utility.yul\":7:84   */\ntag_7:\n    /* \"#utility.yul\":44:51   */\n  0x00\n    /* \"#utility.yul\":73:78   */\n  dup2\n    /* \"#utility.yul\":62:78   */\n  swap1\n  pop\n    /* \"#utility.yul\":7:84   */\n  swap2\n  swap1\n  pop\n  jump\t// out\n    /* \"#utility.yul\":90:270   */\ntag_8:\n    /* \"#utility.yul\":138:215   */\n  0x4e487b7100000000000000000000000000000000000000000000000000000000\n    /* \"#utility.yul\":135:136   */\n  0x00\n    /* \"#utility.yul\":128:216   */\n  mstore\n    /* \"#utility.yul\":235:239   */\n  0x11\n    /* \"#utility.yul\":232:233   */\n  0x04\n    /* \"#utility.yul\":225:240   */\n  mstore\n    /* \"#utility.yul\":259:263   */\n  0x24\n    /* \"#utility.yul\":256:257   */\n  0x00\n    /* \"#utility.yul\":249:264   */\n  revert\n    /* \"#utility.yul\":276:467   */\ntag_5:\n    /* \"#utility.yul\":316:319   */\n  0x00\n    /* \"#utility.yul\":335:355   */\n  tag_13\n    /* \"#utility.yul\":353:354   */\n  dup3\n    /* \"#utility.yul\":335:355   */\n  tag_7\n  jump\t// in\ntag_13:\n    /* \"#utility.yul\":330:355   */\n  swap2\n  pop\n    /* \"#utility.yul\":369:389   */\n  tag_14\n    /* \"#utility.yul\":387:388   */\n  dup4\n    /* \"#utility.yul\":369:389   */\n  tag_7\n  jump\t// in\ntag_14:\n    /* \"#utility.yul\":364:389   */\n  swap3\n  pop\n    /* \"#utility.yul\":412:413   */\n  dup3\n    /* \"#utility.yul\":409:410   */\n  dup3\n    /* \"#utility.yul\":405:414   */\n  add\n    /* \"#utility.yul\":398:414   */\n  swap1\n  pop\n    /* \"#utility.yul\":433:436   */\n  dup1\n    /* \"#utility.yul\":430:431   */\n  dup3\n    /* \"#utility.yul\":427:437   */\n  gt\n    /* \"#utility.yul\":424:460   */\n  iszero\n  tag_15\n  jumpi\n    /* \"#utility.yul\":440:458   */\n  tag_16\n  tag_8\n  jump\t// in\ntag_16:\n    /* \"#utility.yul\":424:460   */\ntag_15:\n    /* \"#utility.yul\":276:467   */\n  swap3\n  swap2\n  pop\n  pop\n  jump\t// out\n    /* \"remix-fundme/CryptoCrowdfund.sol\":284:4276  contract CryptoCrowdfund{... */\ntag_6:\n  mload(0x80)\n  mload(0xa0)\n  mload(0xc0)\n  codecopy(0x00, dataOffset(sub_0), dataSize(sub_0))\n  0x00\n  assignImmutable(\"0x646d998f946f968f0675fd4e3cb527e1222094ea0d9cc1fd615146a8fe29802e\")\n  0x00\n  assignImmutable(\"0xd9670a00d025e59e1bd58d53874bea4ab34fea782716e2c168e89a3c8452d3bb\")\n  0x00\n  assignImmutable(\"0x7446b42d7fe1689ec32fc1ca65129d9f21f1979742315d34500a6886f6986bea\")\n  return(0x00, dataSize(sub_0))\nstop\n\nsub_0: assembly {\n        /* \"remix-fundme/CryptoCrowdfund.sol\":284:4276  contract CryptoCrowdfund{... */\n      mstore(0x40, 0x80)\n      jumpi(tag_1, lt(calldatasize, 0x04))\n      shr(0xe0, calldataload(0x00))\n      dup1\n      0x7d3d6522\n      gt\n      tag_15\n      jumpi\n      dup1\n      0x7d3d6522\n      eq\n      tag_9\n      jumpi\n      dup1\n      0xa67e30cb\n      eq\n      tag_10\n      jumpi\n      dup1\n      0xb60d4288\n      eq\n      tag_11\n      jumpi\n      dup1\n      0xdba6335f\n      eq\n      tag_12\n      jumpi\n      dup1\n      0xdc0d3dff\n      eq\n      tag_13\n      jumpi\n      dup1\n      0xefb98bcf\n      eq\n      tag_14\n      jumpi\n      jump(tag_2)\n    tag_15:\n      dup1\n      0x1a39d8ef\n      eq\n      tag_3\n      jumpi\n      dup1\n      0x3ccfd60b\n      eq\n      tag_4\n      jumpi\n      dup1\n      0x3e47d6f3\n      eq\n      tag_5\n      jumpi\n      dup1\n      0x4628ac39\n      eq\n      tag_6\n      jumpi\n      dup1\n      0x61dba32a\n      eq\n      tag_7\n      jumpi\n      dup1\n      0x769d3c98\n      eq\n      tag_8\n      jumpi\n      jump(tag_2)\n    tag_1:\n      jumpi(tag_2, calldatasize)\n        /* \"remix-fundme/CryptoCrowdfund.sol\":3941:3947  fund() */\n      tag_18\n        /* \"remix-fundme/CryptoCrowdfund.sol\":3941:3945  fund */\n      tag_19\n        /* \"remix-fundme/CryptoCrowdfund.sol\":3941:3947  fund() */\n      jump\t// in\n    tag_18:\n        /* \"remix-fundme/CryptoCrowdfund.sol\":284:4276  contract CryptoCrowdfund{... */\n      stop\n    tag_2:\n        /* \"remix-fundme/CryptoCrowdfund.sol\":3985:3991  fund() */\n      tag_22\n        /* \"remix-fundme/CryptoCrowdfund.sol\":3985:3989  fund */\n      tag_19\n        /* \"remix-fundme/CryptoCrowdfund.sol\":3985:3991  fund() */\n      jump\t// in\n    tag_22:\n        /* \"remix-fundme/CryptoCrowdfund.sol\":284:4276  contract CryptoCrowdfund{... */\n      stop\n        /* \"remix-fundme/CryptoCrowdfund.sol\":660:686  uint256 public totalAmount */\n    tag_3:\n      callvalue\n      dup1\n      iszero\n      tag_23\n      jumpi\n      0x00\n      dup1\n      revert\n    tag_23:\n      pop\n      tag_24\n      tag_25\n      jump\t// in\n    tag_24:\n      mload(0x40)\n      tag_26\n      swap2\n      swap1\n      tag_27\n      jump\t// in\n    tag_26:\n      mload(0x40)\n      dup1\n      swap2\n      sub\n      swap1\n      return\n        /* \"remix-fundme/CryptoCrowdfund.sol\":2440:3573  function withdraw() public onlyOwner fundSuccessOrTimeout{... */\n    tag_4:\n      callvalue\n      dup1\n      iszero\n      tag_28\n      jumpi\n      0x00\n      dup1\n      revert\n    tag_28:\n      pop\n      tag_29\n      tag_30\n      jump\t// in\n    tag_29:\n      stop\n        /* \"remix-fundme/CryptoCrowdfund.sol\":516:572  mapping(address => uint256) public addressToAmountFunded */\n    tag_5:\n      callvalue\n      dup1\n      iszero\n      tag_31\n      jumpi\n      0x00\n      dup1\n      revert\n    tag_31:\n      pop\n      tag_32\n      0x04\n      dup1\n      calldatasize\n      sub\n      dup2\n      add\n      swap1\n      tag_33\n      swap2\n      swap1\n      tag_34\n      jump\t// in\n    tag_33:\n      tag_35\n      jump\t// in\n    tag_32:\n      mload(0x40)\n      tag_36\n      swap2\n      swap1\n      tag_27\n      jump\t// in\n    tag_36:\n      mload(0x40)\n      dup1\n      swap2\n      sub\n      swap1\n      return\n        /* \"remix-fundme/CryptoCrowdfund.sol\":463:495  uint public immutable i_deadline */\n    tag_6:\n      callvalue\n      dup1\n      iszero\n      tag_37\n      jumpi\n      0x00\n      dup1\n      revert\n    tag_37:\n      pop\n      tag_38\n      tag_39\n      jump\t// in\n    tag_38:\n      mload(0x40)\n      tag_40\n      swap2\n      swap1\n      tag_27\n      jump\t// in\n    tag_40:\n      mload(0x40)\n      dup1\n      swap2\n      sub\n      swap1\n      return\n        /* \"remix-fundme/CryptoCrowdfund.sol\":714:756  mapping (address => bool) public hasFunded */\n    tag_7:\n      callvalue\n      dup1\n      iszero\n      tag_41\n      jumpi\n      0x00\n      dup1\n      revert\n    tag_41:\n      pop\n      tag_42\n      0x04\n      dup1\n      calldatasize\n      sub\n      dup2\n      add\n      swap1\n      tag_43\n      swap2\n      swap1\n      tag_34\n      jump\t// in\n    tag_43:\n      tag_44\n      jump\t// in\n    tag_42:\n      mload(0x40)\n      tag_45\n      swap2\n      swap1\n      tag_46\n      jump\t// in\n    tag_45:\n      mload(0x40)\n      dup1\n      swap2\n      sub\n      swap1\n      return\n        /* \"remix-fundme/CryptoCrowdfund.sol\":4000:4273  function getTotalRaisedInUsd() public view returns (uint256){... */\n    tag_8:\n      callvalue\n      dup1\n      iszero\n      tag_47\n      jumpi\n      0x00\n      dup1\n      revert\n    tag_47:\n      pop\n      tag_48\n      tag_49\n      jump\t// in\n    tag_48:\n      mload(0x40)\n      tag_50\n      swap2\n      swap1\n      tag_27\n      jump\t// in\n    tag_50:\n      mload(0x40)\n      dup1\n      swap2\n      sub\n      swap1\n      return\n        /* \"remix-fundme/CryptoCrowdfund.sol\":792:815  bool public goalReached */\n    tag_9:\n      callvalue\n      dup1\n      iszero\n      tag_51\n      jumpi\n      0x00\n      dup1\n      revert\n    tag_51:\n      pop\n      tag_52\n      tag_53\n      jump\t// in\n    tag_52:\n      mload(0x40)\n      tag_54\n      swap2\n      swap1\n      tag_46\n      jump\t// in\n    tag_54:\n      mload(0x40)\n      dup1\n      swap2\n      sub\n      swap1\n      return\n        /* \"remix-fundme/CryptoCrowdfund.sol\":411:442  uint256 public immutable i_goal */\n    tag_10:\n      callvalue\n      dup1\n      iszero\n      tag_55\n      jumpi\n      0x00\n      dup1\n      revert\n    tag_55:\n      pop\n      tag_56\n      tag_57\n      jump\t// in\n    tag_56:\n      mload(0x40)\n      tag_58\n      swap2\n      swap1\n      tag_27\n      jump\t// in\n    tag_58:\n      mload(0x40)\n      dup1\n      swap2\n      sub\n      swap1\n      return\n        /* \"remix-fundme/CryptoCrowdfund.sol\":1347:1981  function fund() public payable {... */\n    tag_11:\n      tag_59\n      tag_19\n      jump\t// in\n    tag_59:\n      stop\n        /* \"remix-fundme/CryptoCrowdfund.sol\":354:386  address public immutable i_owner */\n    tag_12:\n      callvalue\n      dup1\n      iszero\n      tag_60\n      jumpi\n      0x00\n      dup1\n      revert\n    tag_60:\n      pop\n      tag_61\n      tag_62\n      jump\t// in\n    tag_61:\n      mload(0x40)\n      tag_63\n      swap2\n      swap1\n      tag_64\n      jump\t// in\n    tag_63:\n      mload(0x40)\n      dup1\n      swap2\n      sub\n      swap1\n      return\n        /* \"remix-fundme/CryptoCrowdfund.sol\":604:628  address[] public funders */\n    tag_13:\n      callvalue\n      dup1\n      iszero\n      tag_65\n      jumpi\n      0x00\n      dup1\n      revert\n    tag_65:\n      pop\n      tag_66\n      0x04\n      dup1\n      calldatasize\n      sub\n      dup2\n      add\n      swap1\n      tag_67\n      swap2\n      swap1\n      tag_68\n      jump\t// in\n    tag_67:\n      tag_69\n      jump\t// in\n    tag_66:\n      mload(0x40)\n      tag_70\n      swap2\n      swap1\n      tag_64\n      jump\t// in\n    tag_70:\n      mload(0x40)\n      dup1\n      swap2\n      sub\n      swap1\n      return\n        /* \"remix-fundme/CryptoCrowdfund.sol\":3579:3742  function  getRemainingTime() public view returns(uint256) {... */\n    tag_14:\n      callvalue\n      dup1\n      iszero\n      tag_71\n      jumpi\n      0x00\n      dup1\n      revert\n    tag_71:\n      pop\n      tag_72\n      tag_73\n      jump\t// in\n    tag_72:\n      mload(0x40)\n      tag_74\n      swap2\n      swap1\n      tag_27\n      jump\t// in\n    tag_74:\n      mload(0x40)\n      dup1\n      swap2\n      sub\n      swap1\n      return\n        /* \"remix-fundme/CryptoCrowdfund.sol\":1347:1981  function fund() public payable {... */\n    tag_19:\n        /* \"remix-fundme/CryptoCrowdfund.sol\":1414:1424  i_deadline */\n      immutable(\"0x646d998f946f968f0675fd4e3cb527e1222094ea0d9cc1fd615146a8fe29802e\")\n        /* \"remix-fundme/CryptoCrowdfund.sol\":1396:1411  block.timestamp */\n      timestamp\n        /* \"remix-fundme/CryptoCrowdfund.sol\":1396:1424  block.timestamp < i_deadline */\n      lt\n        /* \"remix-fundme/CryptoCrowdfund.sol\":1388:1453  require(block.timestamp < i_deadline, \"Crowdfund: Project ended\") */\n      tag_76\n      jumpi\n      mload(0x40)\n      0x08c379a000000000000000000000000000000000000000000000000000000000\n      dup2\n      mstore\n      0x04\n      add\n      tag_77\n      swap1\n      tag_78\n      jump\t// in\n    tag_77:\n      mload(0x40)\n      dup1\n      swap2\n      sub\n      swap1\n      revert\n    tag_76:\n        /* \"remix-fundme/CryptoCrowdfund.sol\":1500:1511  goalReached */\n      0x04\n      0x00\n      swap1\n      sload\n      swap1\n      0x0100\n      exp\n      swap1\n      div\n      0xff\n      and\n        /* \"remix-fundme/CryptoCrowdfund.sol\":1499:1511  !goalReached */\n      iszero\n        /* \"remix-fundme/CryptoCrowdfund.sol\":1491:1547  require(!goalReached, \"Crowdfund: Goal already reached\") */\n      tag_79\n      jumpi\n      mload(0x40)\n      0x08c379a000000000000000000000000000000000000000000000000000000000\n      dup2\n      mstore\n      0x04\n      add\n      tag_80\n      swap1\n      tag_81\n      jump\t// in\n    tag_80:\n      mload(0x40)\n      dup1\n      swap2\n      sub\n      swap1\n      revert\n    tag_79:\n        /* \"remix-fundme/CryptoCrowdfund.sol\":1563:1572  hasFunded */\n      0x03\n        /* \"remix-fundme/CryptoCrowdfund.sol\":1563:1584  hasFunded[msg.sender] */\n      0x00\n        /* \"remix-fundme/CryptoCrowdfund.sol\":1573:1583  msg.sender */\n      caller\n        /* \"remix-fundme/CryptoCrowdfund.sol\":1563:1584  hasFunded[msg.sender] */\n      0xffffffffffffffffffffffffffffffffffffffff\n      and\n      0xffffffffffffffffffffffffffffffffffffffff\n      and\n      dup2\n      mstore\n      0x20\n      add\n      swap1\n      dup2\n      mstore\n      0x20\n      add\n      0x00\n      keccak256\n      0x00\n      swap1\n      sload\n      swap1\n      0x0100\n      exp\n      swap1\n      div\n      0xff\n      and\n        /* \"remix-fundme/CryptoCrowdfund.sol\":1558:1676  if (!hasFunded[msg.sender]){... */\n      tag_82\n      jumpi\n        /* \"remix-fundme/CryptoCrowdfund.sol\":1623:1627  true */\n      0x01\n        /* \"remix-fundme/CryptoCrowdfund.sol\":1599:1608  hasFunded */\n      0x03\n        /* \"remix-fundme/CryptoCrowdfund.sol\":1599:1620  hasFunded[msg.sender] */\n      0x00\n        /* \"remix-fundme/CryptoCrowdfund.sol\":1609:1619  msg.sender */\n      caller\n        /* \"remix-fundme/CryptoCrowdfund.sol\":1599:1620  hasFunded[msg.sender] */\n      0xffffffffffffffffffffffffffffffffffffffff\n      and\n      0xffffffffffffffffffffffffffffffffffffffff\n      and\n      dup2\n      mstore\n      0x20\n      add\n      swap1\n      dup2\n      mstore\n      0x20\n      add\n      0x00\n      keccak256\n      0x00\n        /* \"remix-fundme/CryptoCrowdfund.sol\":1599:1627  hasFunded[msg.sender] = true */\n      0x0100\n      exp\n      dup2\n      sload\n      dup2\n      0xff\n      mul\n      not\n      and\n      swap1\n      dup4\n      iszero\n      iszero\n      mul\n      or\n      swap1\n      sstore\n      pop\n        /* \"remix-fundme/CryptoCrowdfund.sol\":1641:1648  funders */\n      0x01\n        /* \"remix-fundme/CryptoCrowdfund.sol\":1654:1664  msg.sender */\n      caller\n        /* \"remix-fundme/CryptoCrowdfund.sol\":1641:1665  funders.push(msg.sender) */\n      swap1\n      dup1\n      0x01\n      dup2\n      sload\n      add\n      dup1\n      dup3\n      sstore\n      dup1\n      swap2\n      pop\n      pop\n      0x01\n      swap1\n      sub\n      swap1\n      0x00\n      mstore\n      keccak256(0x00, 0x20)\n      add\n      0x00\n      swap1\n      swap2\n      swap1\n      swap2\n      swap1\n      swap2\n      0x0100\n      exp\n      dup2\n      sload\n      dup2\n      0xffffffffffffffffffffffffffffffffffffffff\n      mul\n      not\n      and\n      swap1\n      dup4\n      0xffffffffffffffffffffffffffffffffffffffff\n      and\n      mul\n      or\n      swap1\n      sstore\n      pop\n        /* \"remix-fundme/CryptoCrowdfund.sol\":1558:1676  if (!hasFunded[msg.sender]){... */\n    tag_82:\n        /* \"remix-fundme/CryptoCrowdfund.sol\":1723:1732  msg.value */\n      callvalue\n        /* \"remix-fundme/CryptoCrowdfund.sol\":1686:1707  addressToAmountFunded */\n      0x00\n        /* \"remix-fundme/CryptoCrowdfund.sol\":1686:1719  addressToAmountFunded[msg.sender] */\n      dup1\n        /* \"remix-fundme/CryptoCrowdfund.sol\":1708:1718  msg.sender */\n      caller\n        /* \"remix-fundme/CryptoCrowdfund.sol\":1686:1719  addressToAmountFunded[msg.sender] */\n      0xffffffffffffffffffffffffffffffffffffffff\n      and\n      0xffffffffffffffffffffffffffffffffffffffff\n      and\n      dup2\n      mstore\n      0x20\n      add\n      swap1\n      dup2\n      mstore\n      0x20\n      add\n      0x00\n      keccak256\n      0x00\n        /* \"remix-fundme/CryptoCrowdfund.sol\":1686:1732  addressToAmountFunded[msg.sender] += msg.value */\n      dup3\n      dup3\n      sload\n      tag_84\n      swap2\n      swap1\n      tag_85\n      jump\t// in\n    tag_84:\n      swap3\n      pop\n      pop\n      dup2\n      swap1\n      sstore\n      pop\n        /* \"remix-fundme/CryptoCrowdfund.sol\":1757:1766  msg.value */\n      callvalue\n        /* \"remix-fundme/CryptoCrowdfund.sol\":1742:1753  totalAmount */\n      0x02\n      0x00\n        /* \"remix-fundme/CryptoCrowdfund.sol\":1742:1766  totalAmount += msg.value */\n      dup3\n      dup3\n      sload\n      tag_86\n      swap2\n      swap1\n      tag_85\n      jump\t// in\n    tag_86:\n      swap3\n      pop\n      pop\n      dup2\n      swap1\n      sstore\n      pop\n        /* \"remix-fundme/CryptoCrowdfund.sol\":1837:1856  uint256 newTotalUsd */\n      0x00\n        /* \"remix-fundme/CryptoCrowdfund.sol\":1859:1895  totalAmount.getLatestETHPriceInUSD() */\n      tag_87\n        /* \"remix-fundme/CryptoCrowdfund.sol\":1859:1870  totalAmount */\n      sload(0x02)\n        /* \"remix-fundme/CryptoCrowdfund.sol\":1859:1893  totalAmount.getLatestETHPriceInUSD */\n      tag_88\n        /* \"remix-fundme/CryptoCrowdfund.sol\":1859:1895  totalAmount.getLatestETHPriceInUSD() */\n      jump\t// in\n    tag_87:\n        /* \"remix-fundme/CryptoCrowdfund.sol\":1837:1895  uint256 newTotalUsd = totalAmount.getLatestETHPriceInUSD() */\n      swap1\n      pop\n        /* \"remix-fundme/CryptoCrowdfund.sol\":1924:1930  i_goal */\n      immutable(\"0xd9670a00d025e59e1bd58d53874bea4ab34fea782716e2c168e89a3c8452d3bb\")\n        /* \"remix-fundme/CryptoCrowdfund.sol\":1909:1920  newTotalUsd */\n      dup2\n        /* \"remix-fundme/CryptoCrowdfund.sol\":1909:1930  newTotalUsd >= i_goal */\n      lt\n        /* \"remix-fundme/CryptoCrowdfund.sol\":1905:1975  if (newTotalUsd >= i_goal) {... */\n      tag_89\n      jumpi\n        /* \"remix-fundme/CryptoCrowdfund.sol\":1960:1964  true */\n      0x01\n        /* \"remix-fundme/CryptoCrowdfund.sol\":1946:1957  goalReached */\n      0x04\n      0x00\n        /* \"remix-fundme/CryptoCrowdfund.sol\":1946:1964  goalReached = true */\n      0x0100\n      exp\n      dup2\n      sload\n      dup2\n      0xff\n      mul\n      not\n      and\n      swap1\n      dup4\n      iszero\n      iszero\n      mul\n      or\n      swap1\n      sstore\n      pop\n        /* \"remix-fundme/CryptoCrowdfund.sol\":1905:1975  if (newTotalUsd >= i_goal) {... */\n    tag_89:\n        /* \"remix-fundme/CryptoCrowdfund.sol\":1378:1981  {... */\n      pop\n        /* \"remix-fundme/CryptoCrowdfund.sol\":1347:1981  function fund() public payable {... */\n      jump\t// out\n        /* \"remix-fundme/CryptoCrowdfund.sol\":660:686  uint256 public totalAmount */\n    tag_25:\n      sload(0x02)\n      dup2\n      jump\t// out\n        /* \"remix-fundme/CryptoCrowdfund.sol\":2440:3573  function withdraw() public onlyOwner fundSuccessOrTimeout{... */\n    tag_30:\n        /* \"remix-fundme/CryptoCrowdfund.sol\":2113:2120  i_owner */\n      immutable(\"0x7446b42d7fe1689ec32fc1ca65129d9f21f1979742315d34500a6886f6986bea\")\n        /* \"remix-fundme/CryptoCrowdfund.sol\":2099:2120  msg.sender != i_owner */\n      0xffffffffffffffffffffffffffffffffffffffff\n      and\n        /* \"remix-fundme/CryptoCrowdfund.sol\":2099:2109  msg.sender */\n      caller\n        /* \"remix-fundme/CryptoCrowdfund.sol\":2099:2120  msg.sender != i_owner */\n      0xffffffffffffffffffffffffffffffffffffffff\n      and\n      eq\n        /* \"remix-fundme/CryptoCrowdfund.sol\":2095:2139  if (msg.sender != i_owner) revert notOwner() */\n      tag_91\n      jumpi\n        /* \"remix-fundme/CryptoCrowdfund.sol\":2129:2139  notOwner() */\n      mload(0x40)\n      0x251c9d6300000000000000000000000000000000000000000000000000000000\n      dup2\n      mstore\n      0x04\n      add\n      mload(0x40)\n      dup1\n      swap2\n      sub\n      swap1\n      revert\n        /* \"remix-fundme/CryptoCrowdfund.sol\":2095:2139  if (msg.sender != i_owner) revert notOwner() */\n    tag_91:\n        /* \"remix-fundme/CryptoCrowdfund.sol\":2352:2362  i_deadline */\n      immutable(\"0x646d998f946f968f0675fd4e3cb527e1222094ea0d9cc1fd615146a8fe29802e\")\n        /* \"remix-fundme/CryptoCrowdfund.sol\":2334:2349  block.timestamp */\n      timestamp\n        /* \"remix-fundme/CryptoCrowdfund.sol\":2334:2362  block.timestamp < i_deadline */\n      lt\n        /* \"remix-fundme/CryptoCrowdfund.sol\":2334:2396  block.timestamp < i_deadline && getTotalRaisedInUsd() < i_goal */\n      dup1\n      iszero\n      tag_93\n      jumpi\n      pop\n        /* \"remix-fundme/CryptoCrowdfund.sol\":2390:2396  i_goal */\n      immutable(\"0xd9670a00d025e59e1bd58d53874bea4ab34fea782716e2c168e89a3c8452d3bb\")\n        /* \"remix-fundme/CryptoCrowdfund.sol\":2366:2387  getTotalRaisedInUsd() */\n      tag_94\n        /* \"remix-fundme/CryptoCrowdfund.sol\":2366:2385  getTotalRaisedInUsd */\n      tag_49\n        /* \"remix-fundme/CryptoCrowdfund.sol\":2366:2387  getTotalRaisedInUsd() */\n      jump\t// in\n    tag_94:\n        /* \"remix-fundme/CryptoCrowdfund.sol\":2366:2396  getTotalRaisedInUsd() < i_goal */\n      lt\n        /* \"remix-fundme/CryptoCrowdfund.sol\":2334:2396  block.timestamp < i_deadline && getTotalRaisedInUsd() < i_goal */\n    tag_93:\n        /* \"remix-fundme/CryptoCrowdfund.sol\":2330:2416  if (block.timestamp < i_deadline && getTotalRaisedInUsd() < i_goal) revert notFinish() */\n      iszero\n      tag_95\n      jumpi\n        /* \"remix-fundme/CryptoCrowdfund.sol\":2405:2416  notFinish() */\n      mload(0x40)\n      0x046e298b00000000000000000000000000000000000000000000000000000000\n      dup2\n      mstore\n      0x04\n      add\n      mload(0x40)\n      dup1\n      swap2\n      sub\n      swap1\n      revert\n        /* \"remix-fundme/CryptoCrowdfund.sol\":2330:2416  if (block.timestamp < i_deadline && getTotalRaisedInUsd() < i_goal) revert notFinish() */\n    tag_95:\n        /* \"remix-fundme/CryptoCrowdfund.sol\":2547:2560  uint256 index */\n      0x00\n        /* \"remix-fundme/CryptoCrowdfund.sol\":2542:2665  for (uint256 index = 0; index < funders.length; index ++){... */\n    tag_97:\n        /* \"remix-fundme/CryptoCrowdfund.sol\":2574:2581  funders */\n      0x01\n        /* \"remix-fundme/CryptoCrowdfund.sol\":2574:2588  funders.length */\n      dup1\n      sload\n      swap1\n      pop\n        /* \"remix-fundme/CryptoCrowdfund.sol\":2566:2571  index */\n      dup2\n        /* \"remix-fundme/CryptoCrowdfund.sol\":2566:2588  index < funders.length */\n      lt\n        /* \"remix-fundme/CryptoCrowdfund.sol\":2542:2665  for (uint256 index = 0; index < funders.length; index ++){... */\n      iszero\n      tag_98\n      jumpi\n        /* \"remix-fundme/CryptoCrowdfund.sol\":2653:2654  0 */\n      0x00\n        /* \"remix-fundme/CryptoCrowdfund.sol\":2613:2634  addressToAmountFunded */\n      dup1\n        /* \"remix-fundme/CryptoCrowdfund.sol\":2613:2650  addressToAmountFunded[funders[index]] */\n      0x00\n        /* \"remix-fundme/CryptoCrowdfund.sol\":2635:2642  funders */\n      0x01\n        /* \"remix-fundme/CryptoCrowdfund.sol\":2643:2648  index */\n      dup5\n        /* \"remix-fundme/CryptoCrowdfund.sol\":2635:2649  funders[index] */\n      dup2\n      sload\n      dup2\n      lt\n      tag_100\n      jumpi\n      tag_101\n      tag_102\n      jump\t// in\n    tag_101:\n    tag_100:\n      swap1\n      0x00\n      mstore\n      keccak256(0x00, 0x20)\n      add\n      0x00\n      swap1\n      sload\n      swap1\n      0x0100\n      exp\n      swap1\n      div\n      0xffffffffffffffffffffffffffffffffffffffff\n      and\n        /* \"remix-fundme/CryptoCrowdfund.sol\":2613:2650  addressToAmountFunded[funders[index]] */\n      0xffffffffffffffffffffffffffffffffffffffff\n      and\n      0xffffffffffffffffffffffffffffffffffffffff\n      and\n      dup2\n      mstore\n      0x20\n      add\n      swap1\n      dup2\n      mstore\n      0x20\n      add\n      0x00\n      keccak256\n        /* \"remix-fundme/CryptoCrowdfund.sol\":2613:2654  addressToAmountFunded[funders[index]] = 0 */\n      dup2\n      swap1\n      sstore\n      pop\n        /* \"remix-fundme/CryptoCrowdfund.sol\":2590:2598  index ++ */\n      dup1\n      dup1\n      tag_104\n      swap1\n      tag_105\n      jump\t// in\n    tag_104:\n      swap2\n      pop\n      pop\n        /* \"remix-fundme/CryptoCrowdfund.sol\":2542:2665  for (uint256 index = 0; index < funders.length; index ++){... */\n      jump(tag_97)\n    tag_98:\n      pop\n        /* \"remix-fundme/CryptoCrowdfund.sol\":2698:2699  0 */\n      0x00\n        /* \"remix-fundme/CryptoCrowdfund.sol\":2684:2700  new address[](0) */\n      0xffffffffffffffff\n      dup2\n      gt\n      iszero\n      tag_106\n      jumpi\n      tag_107\n      tag_108\n      jump\t// in\n    tag_107:\n    tag_106:\n      mload(0x40)\n      swap1\n      dup1\n      dup3\n      mstore\n      dup1\n      0x20\n      mul\n      0x20\n      add\n      dup3\n      add\n      0x40\n      mstore\n      dup1\n      iszero\n      tag_109\n      jumpi\n      dup2\n      0x20\n      add\n      0x20\n      dup3\n      mul\n      dup1\n      calldatasize\n      dup4\n      calldatacopy\n      dup1\n      dup3\n      add\n      swap2\n      pop\n      pop\n      swap1\n      pop\n    tag_109:\n      pop\n        /* \"remix-fundme/CryptoCrowdfund.sol\":2674:2681  funders */\n      0x01\n        /* \"remix-fundme/CryptoCrowdfund.sol\":2674:2700  funders = new address[](0) */\n      swap1\n      dup1\n      mload\n      swap1\n      0x20\n      add\n      swap1\n      tag_110\n      swap3\n      swap2\n      swap1\n      tag_111\n      jump\t// in\n    tag_110:\n      pop\n        /* \"remix-fundme/CryptoCrowdfund.sol\":3379:3393  bool isSuccess */\n      0x00\n        /* \"remix-fundme/CryptoCrowdfund.sol\":3421:3428  i_owner */\n      immutable(\"0x7446b42d7fe1689ec32fc1ca65129d9f21f1979742315d34500a6886f6986bea\")\n        /* \"remix-fundme/CryptoCrowdfund.sol\":3398:3434  payable(/*msg.sender*/ i_owner).call */\n      0xffffffffffffffffffffffffffffffffffffffff\n      and\n        /* \"remix-fundme/CryptoCrowdfund.sol\":3441:3462  address(this).balance */\n      selfbalance\n        /* \"remix-fundme/CryptoCrowdfund.sol\":3398:3467  payable(/*msg.sender*/ i_owner).call{value:address(this).balance}(\"\") */\n      mload(0x40)\n      tag_112\n      swap1\n      tag_113\n      jump\t// in\n    tag_112:\n      0x00\n      mload(0x40)\n      dup1\n      dup4\n      sub\n      dup2\n      dup6\n      dup8\n      gas\n      call\n      swap3\n      pop\n      pop\n      pop\n      returndatasize\n      dup1\n      0x00\n      dup2\n      eq\n      tag_116\n      jumpi\n      mload(0x40)\n      swap2\n      pop\n      and(add(returndatasize, 0x3f), not(0x1f))\n      dup3\n      add\n      0x40\n      mstore\n      returndatasize\n      dup3\n      mstore\n      returndatasize\n      0x00\n      0x20\n      dup5\n      add\n      returndatacopy\n      jump(tag_115)\n    tag_116:\n      0x60\n      swap2\n      pop\n    tag_115:\n      pop\n        /* \"remix-fundme/CryptoCrowdfund.sol\":3378:3467  (bool isSuccess, )= payable(/*msg.sender*/ i_owner).call{value:address(this).balance}(\"\") */\n      pop\n      swap1\n      pop\n        /* \"remix-fundme/CryptoCrowdfund.sol\":3532:3541  isSuccess */\n      dup1\n        /* \"remix-fundme/CryptoCrowdfund.sol\":3527:3566  if (!isSuccess) revert withdrawFailed() */\n      tag_117\n      jumpi\n        /* \"remix-fundme/CryptoCrowdfund.sol\":3550:3566  withdrawFailed() */\n      mload(0x40)\n      0x67b2cd0500000000000000000000000000000000000000000000000000000000\n      dup2\n      mstore\n      0x04\n      add\n      mload(0x40)\n      dup1\n      swap2\n      sub\n      swap1\n      revert\n        /* \"remix-fundme/CryptoCrowdfund.sol\":3527:3566  if (!isSuccess) revert withdrawFailed() */\n    tag_117:\n        /* \"remix-fundme/CryptoCrowdfund.sol\":2497:3573  {... */\n      pop\n        /* \"remix-fundme/CryptoCrowdfund.sol\":2440:3573  function withdraw() public onlyOwner fundSuccessOrTimeout{... */\n      jump\t// out\n        /* \"remix-fundme/CryptoCrowdfund.sol\":516:572  mapping(address => uint256) public addressToAmountFunded */\n    tag_35:\n      mstore(0x20, 0x00)\n      dup1\n      0x00\n      mstore\n      keccak256(0x00, 0x40)\n      0x00\n      swap2\n      pop\n      swap1\n      pop\n      sload\n      dup2\n      jump\t// out\n        /* \"remix-fundme/CryptoCrowdfund.sol\":463:495  uint public immutable i_deadline */\n    tag_39:\n      immutable(\"0x646d998f946f968f0675fd4e3cb527e1222094ea0d9cc1fd615146a8fe29802e\")\n      dup2\n      jump\t// out\n        /* \"remix-fundme/CryptoCrowdfund.sol\":714:756  mapping (address => bool) public hasFunded */\n    tag_44:\n      mstore(0x20, 0x03)\n      dup1\n      0x00\n      mstore\n      keccak256(0x00, 0x40)\n      0x00\n      swap2\n      pop\n      sload\n      swap1\n      0x0100\n      exp\n      swap1\n      div\n      0xff\n      and\n      dup2\n      jump\t// out\n        /* \"remix-fundme/CryptoCrowdfund.sol\":4000:4273  function getTotalRaisedInUsd() public view returns (uint256){... */\n    tag_49:\n        /* \"remix-fundme/CryptoCrowdfund.sol\":4052:4059  uint256 */\n      0x00\n        /* \"remix-fundme/CryptoCrowdfund.sol\":4070:4083  uint256 total */\n      dup1\n        /* \"remix-fundme/CryptoCrowdfund.sol\":4098:4111  uint256 index */\n      0x00\n        /* \"remix-fundme/CryptoCrowdfund.sol\":4093:4220  for (uint256 index = 0; index < funders.length; index++){... */\n    tag_119:\n        /* \"remix-fundme/CryptoCrowdfund.sol\":4125:4132  funders */\n      0x01\n        /* \"remix-fundme/CryptoCrowdfund.sol\":4125:4139  funders.length */\n      dup1\n      sload\n      swap1\n      pop\n        /* \"remix-fundme/CryptoCrowdfund.sol\":4117:4122  index */\n      dup2\n        /* \"remix-fundme/CryptoCrowdfund.sol\":4117:4139  index < funders.length */\n      lt\n        /* \"remix-fundme/CryptoCrowdfund.sol\":4093:4220  for (uint256 index = 0; index < funders.length; index++){... */\n      iszero\n      tag_120\n      jumpi\n        /* \"remix-fundme/CryptoCrowdfund.sol\":4172:4193  addressToAmountFunded */\n      0x00\n        /* \"remix-fundme/CryptoCrowdfund.sol\":4172:4209  addressToAmountFunded[funders[index]] */\n      dup1\n        /* \"remix-fundme/CryptoCrowdfund.sol\":4194:4201  funders */\n      0x01\n        /* \"remix-fundme/CryptoCrowdfund.sol\":4202:4207  index */\n      dup4\n        /* \"remix-fundme/CryptoCrowdfund.sol\":4194:4208  funders[index] */\n      dup2\n      sload\n      dup2\n      lt\n      tag_122\n      jumpi\n      tag_123\n      tag_102\n      jump\t// in\n    tag_123:\n    tag_122:\n      swap1\n      0x00\n      mstore\n      keccak256(0x00, 0x20)\n      add\n      0x00\n      swap1\n      sload\n      swap1\n      0x0100\n      exp\n      swap1\n      div\n      0xffffffffffffffffffffffffffffffffffffffff\n      and\n        /* \"remix-fundme/CryptoCrowdfund.sol\":4172:4209  addressToAmountFunded[funders[index]] */\n      0xffffffffffffffffffffffffffffffffffffffff\n      and\n      0xffffffffffffffffffffffffffffffffffffffff\n      and\n      dup2\n      mstore\n      0x20\n      add\n      swap1\n      dup2\n      mstore\n      0x20\n      add\n      0x00\n      keccak256\n      sload\n        /* \"remix-fundme/CryptoCrowdfund.sol\":4163:4209  total += addressToAmountFunded[funders[index]] */\n      dup3\n      tag_125\n      swap2\n      swap1\n      tag_85\n      jump\t// in\n    tag_125:\n      swap2\n      pop\n        /* \"remix-fundme/CryptoCrowdfund.sol\":4141:4148  index++ */\n      dup1\n      dup1\n      tag_126\n      swap1\n      tag_105\n      jump\t// in\n    tag_126:\n      swap2\n      pop\n      pop\n        /* \"remix-fundme/CryptoCrowdfund.sol\":4093:4220  for (uint256 index = 0; index < funders.length; index++){... */\n      jump(tag_119)\n    tag_120:\n      pop\n        /* \"remix-fundme/CryptoCrowdfund.sol\":4236:4266  total.getLatestETHPriceInUSD() */\n      tag_127\n        /* \"remix-fundme/CryptoCrowdfund.sol\":4236:4241  total */\n      dup2\n        /* \"remix-fundme/CryptoCrowdfund.sol\":4236:4264  total.getLatestETHPriceInUSD */\n      tag_88\n        /* \"remix-fundme/CryptoCrowdfund.sol\":4236:4266  total.getLatestETHPriceInUSD() */\n      jump\t// in\n    tag_127:\n        /* \"remix-fundme/CryptoCrowdfund.sol\":4229:4266  return total.getLatestETHPriceInUSD() */\n      swap2\n      pop\n      pop\n        /* \"remix-fundme/CryptoCrowdfund.sol\":4000:4273  function getTotalRaisedInUsd() public view returns (uint256){... */\n      swap1\n      jump\t// out\n        /* \"remix-fundme/CryptoCrowdfund.sol\":792:815  bool public goalReached */\n    tag_53:\n      0x04\n      0x00\n      swap1\n      sload\n      swap1\n      0x0100\n      exp\n      swap1\n      div\n      0xff\n      and\n      dup2\n      jump\t// out\n        /* \"remix-fundme/CryptoCrowdfund.sol\":411:442  uint256 public immutable i_goal */\n    tag_57:\n      immutable(\"0xd9670a00d025e59e1bd58d53874bea4ab34fea782716e2c168e89a3c8452d3bb\")\n      dup2\n      jump\t// out\n        /* \"remix-fundme/CryptoCrowdfund.sol\":354:386  address public immutable i_owner */\n    tag_62:\n      immutable(\"0x7446b42d7fe1689ec32fc1ca65129d9f21f1979742315d34500a6886f6986bea\")\n      dup2\n      jump\t// out\n        /* \"remix-fundme/CryptoCrowdfund.sol\":604:628  address[] public funders */\n    tag_69:\n      0x01\n      dup2\n      dup2\n      sload\n      dup2\n      lt\n      tag_128\n      jumpi\n      0x00\n      dup1\n      revert\n    tag_128:\n      swap1\n      0x00\n      mstore\n      keccak256(0x00, 0x20)\n      add\n      0x00\n      swap2\n      pop\n      sload\n      swap1\n      0x0100\n      exp\n      swap1\n      div\n      0xffffffffffffffffffffffffffffffffffffffff\n      and\n      dup2\n      jump\t// out\n        /* \"remix-fundme/CryptoCrowdfund.sol\":3579:3742  function  getRemainingTime() public view returns(uint256) {... */\n    tag_73:\n        /* \"remix-fundme/CryptoCrowdfund.sol\":3628:3635  uint256 */\n      0x00\n        /* \"remix-fundme/CryptoCrowdfund.sol\":3670:3680  i_deadline */\n      immutable(\"0x646d998f946f968f0675fd4e3cb527e1222094ea0d9cc1fd615146a8fe29802e\")\n        /* \"remix-fundme/CryptoCrowdfund.sol\":3651:3666  block.timestamp */\n      timestamp\n        /* \"remix-fundme/CryptoCrowdfund.sol\":3651:3680  block.timestamp >= i_deadline */\n      lt\n        /* \"remix-fundme/CryptoCrowdfund.sol\":3647:3690  if (block.timestamp >= i_deadline) return 0 */\n      tag_131\n      jumpi\n        /* \"remix-fundme/CryptoCrowdfund.sol\":3689:3690  0 */\n      0x00\n        /* \"remix-fundme/CryptoCrowdfund.sol\":3682:3690  return 0 */\n      swap1\n      pop\n      jump(tag_130)\n        /* \"remix-fundme/CryptoCrowdfund.sol\":3647:3690  if (block.timestamp >= i_deadline) return 0 */\n    tag_131:\n        /* \"remix-fundme/CryptoCrowdfund.sol\":3720:3735  block.timestamp */\n      timestamp\n        /* \"remix-fundme/CryptoCrowdfund.sol\":3707:3717  i_deadline */\n      immutable(\"0x646d998f946f968f0675fd4e3cb527e1222094ea0d9cc1fd615146a8fe29802e\")\n        /* \"remix-fundme/CryptoCrowdfund.sol\":3707:3735  i_deadline - block.timestamp */\n      tag_132\n      swap2\n      swap1\n      tag_133\n      jump\t// in\n    tag_132:\n        /* \"remix-fundme/CryptoCrowdfund.sol\":3700:3735  return i_deadline - block.timestamp */\n      swap1\n      pop\n        /* \"remix-fundme/CryptoCrowdfund.sol\":3579:3742  function  getRemainingTime() public view returns(uint256) {... */\n    tag_130:\n      swap1\n      jump\t// out\n        /* \"remix-fundme/GetPrice.sol\":204:1974  function getLatestETHPriceInUSD(uint ethAmountInWei) internal view returns (uint256){... */\n    tag_88:\n        /* \"remix-fundme/GetPrice.sol\":280:287  uint256 */\n      0x00\n        /* \"remix-fundme/GetPrice.sol\":298:329  AggregatorV3Interface priceFeed */\n      dup1\n        /* \"remix-fundme/GetPrice.sol\":354:396  0x694AA1769357215DE4FAC081bf1f309aDC325306 */\n      0x694aa1769357215de4fac081bf1f309adc325306\n        /* \"remix-fundme/GetPrice.sol\":298:397  AggregatorV3Interface priceFeed = AggregatorV3Interface(0x694AA1769357215DE4FAC081bf1f309aDC325306) */\n      swap1\n      pop\n        /* \"remix-fundme/GetPrice.sol\":482:495  int256 answer */\n      0x00\n        /* \"remix-fundme/GetPrice.sol\":874:883  priceFeed */\n      dup2\n        /* \"remix-fundme/GetPrice.sol\":874:899  priceFeed.latestRoundData */\n      0xffffffffffffffffffffffffffffffffffffffff\n      and\n      0xfeaf968c\n        /* \"remix-fundme/GetPrice.sol\":874:901  priceFeed.latestRoundData() */\n      mload(0x40)\n      dup2\n      0xffffffff\n      and\n      0xe0\n      shl\n      dup2\n      mstore\n      0x04\n      add\n      0xa0\n      mload(0x40)\n      dup1\n      dup4\n      sub\n      dup2\n      dup7\n      gas\n      staticcall\n      iszero\n      dup1\n      iszero\n      tag_136\n      jumpi\n      returndatasize\n      0x00\n      dup1\n      returndatacopy\n      revert(0x00, returndatasize)\n    tag_136:\n      pop\n      pop\n      pop\n      pop\n      mload(0x40)\n      returndatasize\n      not(0x1f)\n      0x1f\n      dup3\n      add\n      and\n      dup3\n      add\n      dup1\n      0x40\n      mstore\n      pop\n      dup2\n      add\n      swap1\n      tag_137\n      swap2\n      swap1\n      tag_138\n      jump\t// in\n    tag_137:\n        /* \"remix-fundme/GetPrice.sol\":434:901  (... */\n      pop\n      pop\n      pop\n      swap2\n      pop\n      pop\n        /* \"remix-fundme/GetPrice.sol\":1051:1067  uint256 ethPrice */\n      0x00\n        /* \"remix-fundme/GetPrice.sol\":1088:1092  1e10 */\n      0x02540be400\n        /* \"remix-fundme/GetPrice.sol\":1079:1085  answer */\n      dup3\n        /* \"remix-fundme/GetPrice.sol\":1079:1092  answer * 1e10 */\n      tag_139\n      swap2\n      swap1\n      tag_140\n      jump\t// in\n    tag_139:\n        /* \"remix-fundme/GetPrice.sol\":1051:1093  uint256 ethPrice = uint256 (answer * 1e10) */\n      swap1\n      pop\n        /* \"remix-fundme/GetPrice.sol\":1456:1460  1e18 */\n      0x0de0b6b3a7640000\n        /* \"remix-fundme/GetPrice.sol\":1438:1452  ethAmountInWei */\n      dup6\n        /* \"remix-fundme/GetPrice.sol\":1427:1435  ethPrice */\n      dup3\n        /* \"remix-fundme/GetPrice.sol\":1427:1452  ethPrice * ethAmountInWei */\n      tag_141\n      swap2\n      swap1\n      tag_142\n      jump\t// in\n    tag_141:\n        /* \"remix-fundme/GetPrice.sol\":1426:1460  (ethPrice * ethAmountInWei) / 1e18 */\n      tag_143\n      swap2\n      swap1\n      tag_144\n      jump\t// in\n    tag_143:\n        /* \"remix-fundme/GetPrice.sol\":1419:1460  return (ethPrice * ethAmountInWei) / 1e18 */\n      swap4\n      pop\n      pop\n      pop\n      pop\n        /* \"remix-fundme/GetPrice.sol\":204:1974  function getLatestETHPriceInUSD(uint ethAmountInWei) internal view returns (uint256){... */\n      swap2\n      swap1\n      pop\n      jump\t// out\n    tag_111:\n      dup3\n      dup1\n      sload\n      dup3\n      dup3\n      sstore\n      swap1\n      0x00\n      mstore\n      keccak256(0x00, 0x20)\n      swap1\n      dup2\n      add\n      swap3\n      dup3\n      iszero\n      tag_145\n      jumpi\n      swap2\n      0x20\n      mul\n      dup3\n      add\n    tag_146:\n      dup3\n      dup2\n      gt\n      iszero\n      tag_147\n      jumpi\n      dup3\n      mload\n      dup3\n      exp(0x0100, 0x00)\n      dup2\n      sload\n      dup2\n      0xffffffffffffffffffffffffffffffffffffffff\n      mul\n      not\n      and\n      swap1\n      dup4\n      0xffffffffffffffffffffffffffffffffffffffff\n      and\n      mul\n      or\n      swap1\n      sstore\n      pop\n      swap2\n      0x20\n      add\n      swap2\n      swap1\n      0x01\n      add\n      swap1\n      jump(tag_146)\n    tag_147:\n    tag_145:\n      pop\n      swap1\n      pop\n      tag_148\n      swap2\n      swap1\n      tag_149\n      jump\t// in\n    tag_148:\n      pop\n      swap1\n      jump\t// out\n    tag_149:\n    tag_150:\n      dup1\n      dup3\n      gt\n      iszero\n      tag_151\n      jumpi\n      0x00\n      dup2\n      0x00\n      swap1\n      sstore\n      pop\n      0x01\n      add\n      jump(tag_150)\n    tag_151:\n      pop\n      swap1\n      jump\t// out\n        /* \"#utility.yul\":7:84   */\n    tag_152:\n        /* \"#utility.yul\":44:51   */\n      0x00\n        /* \"#utility.yul\":73:78   */\n      dup2\n        /* \"#utility.yul\":62:78   */\n      swap1\n      pop\n        /* \"#utility.yul\":7:84   */\n      swap2\n      swap1\n      pop\n      jump\t// out\n        /* \"#utility.yul\":90:208   */\n    tag_153:\n        /* \"#utility.yul\":177:201   */\n      tag_186\n        /* \"#utility.yul\":195:200   */\n      dup2\n        /* \"#utility.yul\":177:201   */\n      tag_152\n      jump\t// in\n    tag_186:\n        /* \"#utility.yul\":172:175   */\n      dup3\n        /* \"#utility.yul\":165:202   */\n      mstore\n        /* \"#utility.yul\":90:208   */\n      pop\n      pop\n      jump\t// out\n        /* \"#utility.yul\":214:436   */\n    tag_27:\n        /* \"#utility.yul\":307:311   */\n      0x00\n        /* \"#utility.yul\":345:347   */\n      0x20\n        /* \"#utility.yul\":334:343   */\n      dup3\n        /* \"#utility.yul\":330:348   */\n      add\n        /* \"#utility.yul\":322:348   */\n      swap1\n      pop\n        /* \"#utility.yul\":358:429   */\n      tag_188\n        /* \"#utility.yul\":426:427   */\n      0x00\n        /* \"#utility.yul\":415:424   */\n      dup4\n        /* \"#utility.yul\":411:428   */\n      add\n        /* \"#utility.yul\":402:408   */\n      dup5\n        /* \"#utility.yul\":358:429   */\n      tag_153\n      jump\t// in\n    tag_188:\n        /* \"#utility.yul\":214:436   */\n      swap3\n      swap2\n      pop\n      pop\n      jump\t// out\n        /* \"#utility.yul\":523:640   */\n    tag_155:\n        /* \"#utility.yul\":632:633   */\n      0x00\n        /* \"#utility.yul\":629:630   */\n      dup1\n        /* \"#utility.yul\":622:634   */\n      revert\n        /* \"#utility.yul\":769:895   */\n    tag_157:\n        /* \"#utility.yul\":806:813   */\n      0x00\n        /* \"#utility.yul\":846:888   */\n      0xffffffffffffffffffffffffffffffffffffffff\n        /* \"#utility.yul\":839:844   */\n      dup3\n        /* \"#utility.yul\":835:889   */\n      and\n        /* \"#utility.yul\":824:889   */\n      swap1\n      pop\n        /* \"#utility.yul\":769:895   */\n      swap2\n      swap1\n      pop\n      jump\t// out\n        /* \"#utility.yul\":901:997   */\n    tag_158:\n        /* \"#utility.yul\":938:945   */\n      0x00\n        /* \"#utility.yul\":967:991   */\n      tag_194\n        /* \"#utility.yul\":985:990   */\n      dup3\n        /* \"#utility.yul\":967:991   */\n      tag_157\n      jump\t// in\n    tag_194:\n        /* \"#utility.yul\":956:991   */\n      swap1\n      pop\n        /* \"#utility.yul\":901:997   */\n      swap2\n      swap1\n      pop\n      jump\t// out\n        /* \"#utility.yul\":1003:1125   */\n    tag_159:\n        /* \"#utility.yul\":1076:1100   */\n      tag_196\n        /* \"#utility.yul\":1094:1099   */\n      dup2\n        /* \"#utility.yul\":1076:1100   */\n      tag_158\n      jump\t// in\n    tag_196:\n        /* \"#utility.yul\":1069:1074   */\n      dup2\n        /* \"#utility.yul\":1066:1101   */\n      eq\n        /* \"#utility.yul\":1056:1119   */\n      tag_197\n      jumpi\n        /* \"#utility.yul\":1115:1116   */\n      0x00\n        /* \"#utility.yul\":1112:1113   */\n      dup1\n        /* \"#utility.yul\":1105:1117   */\n      revert\n        /* \"#utility.yul\":1056:1119   */\n    tag_197:\n        /* \"#utility.yul\":1003:1125   */\n      pop\n      jump\t// out\n        /* \"#utility.yul\":1131:1270   */\n    tag_160:\n        /* \"#utility.yul\":1177:1182   */\n      0x00\n        /* \"#utility.yul\":1215:1221   */\n      dup2\n        /* \"#utility.yul\":1202:1222   */\n      calldataload\n        /* \"#utility.yul\":1193:1222   */\n      swap1\n      pop\n        /* \"#utility.yul\":1231:1264   */\n      tag_199\n        /* \"#utility.yul\":1258:1263   */\n      dup2\n        /* \"#utility.yul\":1231:1264   */\n      tag_159\n      jump\t// in\n    tag_199:\n        /* \"#utility.yul\":1131:1270   */\n      swap3\n      swap2\n      pop\n      pop\n      jump\t// out\n        /* \"#utility.yul\":1276:1605   */\n    tag_34:\n        /* \"#utility.yul\":1335:1341   */\n      0x00\n        /* \"#utility.yul\":1384:1386   */\n      0x20\n        /* \"#utility.yul\":1372:1381   */\n      dup3\n        /* \"#utility.yul\":1363:1370   */\n      dup5\n        /* \"#utility.yul\":1359:1382   */\n      sub\n        /* \"#utility.yul\":1355:1387   */\n      slt\n        /* \"#utility.yul\":1352:1471   */\n      iszero\n      tag_201\n      jumpi\n        /* \"#utility.yul\":1390:1469   */\n      tag_202\n      tag_155\n      jump\t// in\n    tag_202:\n        /* \"#utility.yul\":1352:1471   */\n    tag_201:\n        /* \"#utility.yul\":1510:1511   */\n      0x00\n        /* \"#utility.yul\":1535:1588   */\n      tag_203\n        /* \"#utility.yul\":1580:1587   */\n      dup5\n        /* \"#utility.yul\":1571:1577   */\n      dup3\n        /* \"#utility.yul\":1560:1569   */\n      dup6\n        /* \"#utility.yul\":1556:1578   */\n      add\n        /* \"#utility.yul\":1535:1588   */\n      tag_160\n      jump\t// in\n    tag_203:\n        /* \"#utility.yul\":1525:1588   */\n      swap2\n      pop\n        /* \"#utility.yul\":1481:1598   */\n      pop\n        /* \"#utility.yul\":1276:1605   */\n      swap3\n      swap2\n      pop\n      pop\n      jump\t// out\n        /* \"#utility.yul\":1611:1701   */\n    tag_161:\n        /* \"#utility.yul\":1645:1652   */\n      0x00\n        /* \"#utility.yul\":1688:1693   */\n      dup2\n        /* \"#utility.yul\":1681:1694   */\n      iszero\n        /* \"#utility.yul\":1674:1695   */\n      iszero\n        /* \"#utility.yul\":1663:1695   */\n      swap1\n      pop\n        /* \"#utility.yul\":1611:1701   */\n      swap2\n      swap1\n      pop\n      jump\t// out\n        /* \"#utility.yul\":1707:1816   */\n    tag_162:\n        /* \"#utility.yul\":1788:1809   */\n      tag_206\n        /* \"#utility.yul\":1803:1808   */\n      dup2\n        /* \"#utility.yul\":1788:1809   */\n      tag_161\n      jump\t// in\n    tag_206:\n        /* \"#utility.yul\":1783:1786   */\n      dup3\n        /* \"#utility.yul\":1776:1810   */\n      mstore\n        /* \"#utility.yul\":1707:1816   */\n      pop\n      pop\n      jump\t// out\n        /* \"#utility.yul\":1822:2032   */\n    tag_46:\n        /* \"#utility.yul\":1909:1913   */\n      0x00\n        /* \"#utility.yul\":1947:1949   */\n      0x20\n        /* \"#utility.yul\":1936:1945   */\n      dup3\n        /* \"#utility.yul\":1932:1950   */\n      add\n        /* \"#utility.yul\":1924:1950   */\n      swap1\n      pop\n        /* \"#utility.yul\":1960:2025   */\n      tag_208\n        /* \"#utility.yul\":2022:2023   */\n      0x00\n        /* \"#utility.yul\":2011:2020   */\n      dup4\n        /* \"#utility.yul\":2007:2024   */\n      add\n        /* \"#utility.yul\":1998:2004   */\n      dup5\n        /* \"#utility.yul\":1960:2025   */\n      tag_162\n      jump\t// in\n    tag_208:\n        /* \"#utility.yul\":1822:2032   */\n      swap3\n      swap2\n      pop\n      pop\n      jump\t// out\n        /* \"#utility.yul\":2038:2156   */\n    tag_163:\n        /* \"#utility.yul\":2125:2149   */\n      tag_210\n        /* \"#utility.yul\":2143:2148   */\n      dup2\n        /* \"#utility.yul\":2125:2149   */\n      tag_158\n      jump\t// in\n    tag_210:\n        /* \"#utility.yul\":2120:2123   */\n      dup3\n        /* \"#utility.yul\":2113:2150   */\n      mstore\n        /* \"#utility.yul\":2038:2156   */\n      pop\n      pop\n      jump\t// out\n        /* \"#utility.yul\":2162:2384   */\n    tag_64:\n        /* \"#utility.yul\":2255:2259   */\n      0x00\n        /* \"#utility.yul\":2293:2295   */\n      0x20\n        /* \"#utility.yul\":2282:2291   */\n      dup3\n        /* \"#utility.yul\":2278:2296   */\n      add\n        /* \"#utility.yul\":2270:2296   */\n      swap1\n      pop\n        /* \"#utility.yul\":2306:2377   */\n      tag_212\n        /* \"#utility.yul\":2374:2375   */\n      0x00\n        /* \"#utility.yul\":2363:2372   */\n      dup4\n        /* \"#utility.yul\":2359:2376   */\n      add\n        /* \"#utility.yul\":2350:2356   */\n      dup5\n        /* \"#utility.yul\":2306:2377   */\n      tag_163\n      jump\t// in\n    tag_212:\n        /* \"#utility.yul\":2162:2384   */\n      swap3\n      swap2\n      pop\n      pop\n      jump\t// out\n        /* \"#utility.yul\":2390:2512   */\n    tag_164:\n        /* \"#utility.yul\":2463:2487   */\n      tag_214\n        /* \"#utility.yul\":2481:2486   */\n      dup2\n        /* \"#utility.yul\":2463:2487   */\n      tag_152\n      jump\t// in\n    tag_214:\n        /* \"#utility.yul\":2456:2461   */\n      dup2\n        /* \"#utility.yul\":2453:2488   */\n      eq\n        /* \"#utility.yul\":2443:2506   */\n      tag_215\n      jumpi\n        /* \"#utility.yul\":2502:2503   */\n      0x00\n        /* \"#utility.yul\":2499:2500   */\n      dup1\n        /* \"#utility.yul\":2492:2504   */\n      revert\n        /* \"#utility.yul\":2443:2506   */\n    tag_215:\n        /* \"#utility.yul\":2390:2512   */\n      pop\n      jump\t// out\n        /* \"#utility.yul\":2518:2657   */\n    tag_165:\n        /* \"#utility.yul\":2564:2569   */\n      0x00\n        /* \"#utility.yul\":2602:2608   */\n      dup2\n        /* \"#utility.yul\":2589:2609   */\n      calldataload\n        /* \"#utility.yul\":2580:2609   */\n      swap1\n      pop\n        /* \"#utility.yul\":2618:2651   */\n      tag_217\n        /* \"#utility.yul\":2645:2650   */\n      dup2\n        /* \"#utility.yul\":2618:2651   */\n      tag_164\n      jump\t// in\n    tag_217:\n        /* \"#utility.yul\":2518:2657   */\n      swap3\n      swap2\n      pop\n      pop\n      jump\t// out\n        /* \"#utility.yul\":2663:2992   */\n    tag_68:\n        /* \"#utility.yul\":2722:2728   */\n      0x00\n        /* \"#utility.yul\":2771:2773   */\n      0x20\n        /* \"#utility.yul\":2759:2768   */\n      dup3\n        /* \"#utility.yul\":2750:2757   */\n      dup5\n        /* \"#utility.yul\":2746:2769   */\n      sub\n        /* \"#utility.yul\":2742:2774   */\n      slt\n        /* \"#utility.yul\":2739:2858   */\n      iszero\n      tag_219\n      jumpi\n        /* \"#utility.yul\":2777:2856   */\n      tag_220\n      tag_155\n      jump\t// in\n    tag_220:\n        /* \"#utility.yul\":2739:2858   */\n    tag_219:\n        /* \"#utility.yul\":2897:2898   */\n      0x00\n        /* \"#utility.yul\":2922:2975   */\n      tag_221\n        /* \"#utility.yul\":2967:2974   */\n      dup5\n        /* \"#utility.yul\":2958:2964   */\n      dup3\n        /* \"#utility.yul\":2947:2956   */\n      dup6\n        /* \"#utility.yul\":2943:2965   */\n      add\n        /* \"#utility.yul\":2922:2975   */\n      tag_165\n      jump\t// in\n    tag_221:\n        /* \"#utility.yul\":2912:2975   */\n      swap2\n      pop\n        /* \"#utility.yul\":2868:2985   */\n      pop\n        /* \"#utility.yul\":2663:2992   */\n      swap3\n      swap2\n      pop\n      pop\n      jump\t// out\n        /* \"#utility.yul\":2998:3167   */\n    tag_166:\n        /* \"#utility.yul\":3082:3093   */\n      0x00\n        /* \"#utility.yul\":3116:3122   */\n      dup3\n        /* \"#utility.yul\":3111:3114   */\n      dup3\n        /* \"#utility.yul\":3104:3123   */\n      mstore\n        /* \"#utility.yul\":3156:3160   */\n      0x20\n        /* \"#utility.yul\":3151:3154   */\n      dup3\n        /* \"#utility.yul\":3147:3161   */\n      add\n        /* \"#utility.yul\":3132:3161   */\n      swap1\n      pop\n        /* \"#utility.yul\":2998:3167   */\n      swap3\n      swap2\n      pop\n      pop\n      jump\t// out\n        /* \"#utility.yul\":3173:3347   */\n    tag_167:\n        /* \"#utility.yul\":3313:3339   */\n      0x43726f776466756e643a2050726f6a65637420656e6465640000000000000000\n        /* \"#utility.yul\":3309:3310   */\n      0x00\n        /* \"#utility.yul\":3301:3307   */\n      dup3\n        /* \"#utility.yul\":3297:3311   */\n      add\n        /* \"#utility.yul\":3290:3340   */\n      mstore\n        /* \"#utility.yul\":3173:3347   */\n      pop\n      jump\t// out\n        /* \"#utility.yul\":3353:3719   */\n    tag_168:\n        /* \"#utility.yul\":3495:3498   */\n      0x00\n        /* \"#utility.yul\":3516:3583   */\n      tag_225\n        /* \"#utility.yul\":3580:3582   */\n      0x18\n        /* \"#utility.yul\":3575:3578   */\n      dup4\n        /* \"#utility.yul\":3516:3583   */\n      tag_166\n      jump\t// in\n    tag_225:\n        /* \"#utility.yul\":3509:3583   */\n      swap2\n      pop\n        /* \"#utility.yul\":3592:3685   */\n      tag_226\n        /* \"#utility.yul\":3681:3684   */\n      dup3\n        /* \"#utility.yul\":3592:3685   */\n      tag_167\n      jump\t// in\n    tag_226:\n        /* \"#utility.yul\":3710:3712   */\n      0x20\n        /* \"#utility.yul\":3705:3708   */\n      dup3\n        /* \"#utility.yul\":3701:3713   */\n      add\n        /* \"#utility.yul\":3694:3713   */\n      swap1\n      pop\n        /* \"#utility.yul\":3353:3719   */\n      swap2\n      swap1\n      pop\n      jump\t// out\n        /* \"#utility.yul\":3725:4144   */\n    tag_78:\n        /* \"#utility.yul\":3891:3895   */\n      0x00\n        /* \"#utility.yul\":3929:3931   */\n      0x20\n        /* \"#utility.yul\":3918:3927   */\n      dup3\n        /* \"#utility.yul\":3914:3932   */\n      add\n        /* \"#utility.yul\":3906:3932   */\n      swap1\n      pop\n        /* \"#utility.yul\":3978:3987   */\n      dup2\n        /* \"#utility.yul\":3972:3976   */\n      dup2\n        /* \"#utility.yul\":3968:3988   */\n      sub\n        /* \"#utility.yul\":3964:3965   */\n      0x00\n        /* \"#utility.yul\":3953:3962   */\n      dup4\n        /* \"#utility.yul\":3949:3966   */\n      add\n        /* \"#utility.yul\":3942:3989   */\n      mstore\n        /* \"#utility.yul\":4006:4137   */\n      tag_228\n        /* \"#utility.yul\":4132:4136   */\n      dup2\n        /* \"#utility.yul\":4006:4137   */\n      tag_168\n      jump\t// in\n    tag_228:\n        /* \"#utility.yul\":3998:4137   */\n      swap1\n      pop\n        /* \"#utility.yul\":3725:4144   */\n      swap2\n      swap1\n      pop\n      jump\t// out\n        /* \"#utility.yul\":4150:4331   */\n    tag_169:\n        /* \"#utility.yul\":4290:4323   */\n      0x43726f776466756e643a20476f616c20616c7265616479207265616368656400\n        /* \"#utility.yul\":4286:4287   */\n      0x00\n        /* \"#utility.yul\":4278:4284   */\n      dup3\n        /* \"#utility.yul\":4274:4288   */\n      add\n        /* \"#utility.yul\":4267:4324   */\n      mstore\n        /* \"#utility.yul\":4150:4331   */\n      pop\n      jump\t// out\n        /* \"#utility.yul\":4337:4703   */\n    tag_170:\n        /* \"#utility.yul\":4479:4482   */\n      0x00\n        /* \"#utility.yul\":4500:4567   */\n      tag_231\n        /* \"#utility.yul\":4564:4566   */\n      0x1f\n        /* \"#utility.yul\":4559:4562   */\n      dup4\n        /* \"#utility.yul\":4500:4567   */\n      tag_166\n      jump\t// in\n    tag_231:\n        /* \"#utility.yul\":4493:4567   */\n      swap2\n      pop\n        /* \"#utility.yul\":4576:4669   */\n      tag_232\n        /* \"#utility.yul\":4665:4668   */\n      dup3\n        /* \"#utility.yul\":4576:4669   */\n      tag_169\n      jump\t// in\n    tag_232:\n        /* \"#utility.yul\":4694:4696   */\n      0x20\n        /* \"#utility.yul\":4689:4692   */\n      dup3\n        /* \"#utility.yul\":4685:4697   */\n      add\n        /* \"#utility.yul\":4678:4697   */\n      swap1\n      pop\n        /* \"#utility.yul\":4337:4703   */\n      swap2\n      swap1\n      pop\n      jump\t// out\n        /* \"#utility.yul\":4709:5128   */\n    tag_81:\n        /* \"#utility.yul\":4875:4879   */\n      0x00\n        /* \"#utility.yul\":4913:4915   */\n      0x20\n        /* \"#utility.yul\":4902:4911   */\n      dup3\n        /* \"#utility.yul\":4898:4916   */\n      add\n        /* \"#utility.yul\":4890:4916   */\n      swap1\n      pop\n        /* \"#utility.yul\":4962:4971   */\n      dup2\n        /* \"#utility.yul\":4956:4960   */\n      dup2\n        /* \"#utility.yul\":4952:4972   */\n      sub\n        /* \"#utility.yul\":4948:4949   */\n      0x00\n        /* \"#utility.yul\":4937:4946   */\n      dup4\n        /* \"#utility.yul\":4933:4950   */\n      add\n        /* \"#utility.yul\":4926:4973   */\n      mstore\n        /* \"#utility.yul\":4990:5121   */\n      tag_234\n        /* \"#utility.yul\":5116:5120   */\n      dup2\n        /* \"#utility.yul\":4990:5121   */\n      tag_170\n      jump\t// in\n    tag_234:\n        /* \"#utility.yul\":4982:5121   */\n      swap1\n      pop\n        /* \"#utility.yul\":4709:5128   */\n      swap2\n      swap1\n      pop\n      jump\t// out\n        /* \"#utility.yul\":5134:5314   */\n    tag_171:\n        /* \"#utility.yul\":5182:5259   */\n      0x4e487b7100000000000000000000000000000000000000000000000000000000\n        /* \"#utility.yul\":5179:5180   */\n      0x00\n        /* \"#utility.yul\":5172:5260   */\n      mstore\n        /* \"#utility.yul\":5279:5283   */\n      0x11\n        /* \"#utility.yul\":5276:5277   */\n      0x04\n        /* \"#utility.yul\":5269:5284   */\n      mstore\n        /* \"#utility.yul\":5303:5307   */\n      0x24\n        /* \"#utility.yul\":5300:5301   */\n      0x00\n        /* \"#utility.yul\":5293:5308   */\n      revert\n        /* \"#utility.yul\":5320:5511   */\n    tag_85:\n        /* \"#utility.yul\":5360:5363   */\n      0x00\n        /* \"#utility.yul\":5379:5399   */\n      tag_237\n        /* \"#utility.yul\":5397:5398   */\n      dup3\n        /* \"#utility.yul\":5379:5399   */\n      tag_152\n      jump\t// in\n    tag_237:\n        /* \"#utility.yul\":5374:5399   */\n      swap2\n      pop\n        /* \"#utility.yul\":5413:5433   */\n      tag_238\n        /* \"#utility.yul\":5431:5432   */\n      dup4\n        /* \"#utility.yul\":5413:5433   */\n      tag_152\n      jump\t// in\n    tag_238:\n        /* \"#utility.yul\":5408:5433   */\n      swap3\n      pop\n        /* \"#utility.yul\":5456:5457   */\n      dup3\n        /* \"#utility.yul\":5453:5454   */\n      dup3\n        /* \"#utility.yul\":5449:5458   */\n      add\n        /* \"#utility.yul\":5442:5458   */\n      swap1\n      pop\n        /* \"#utility.yul\":5477:5480   */\n      dup1\n        /* \"#utility.yul\":5474:5475   */\n      dup3\n        /* \"#utility.yul\":5471:5481   */\n      gt\n        /* \"#utility.yul\":5468:5504   */\n      iszero\n      tag_239\n      jumpi\n        /* \"#utility.yul\":5484:5502   */\n      tag_240\n      tag_171\n      jump\t// in\n    tag_240:\n        /* \"#utility.yul\":5468:5504   */\n    tag_239:\n        /* \"#utility.yul\":5320:5511   */\n      swap3\n      swap2\n      pop\n      pop\n      jump\t// out\n        /* \"#utility.yul\":5517:5697   */\n    tag_102:\n        /* \"#utility.yul\":5565:5642   */\n      0x4e487b7100000000000000000000000000000000000000000000000000000000\n        /* \"#utility.yul\":5562:5563   */\n      0x00\n        /* \"#utility.yul\":5555:5643   */\n      mstore\n        /* \"#utility.yul\":5662:5666   */\n      0x32\n        /* \"#utility.yul\":5659:5660   */\n      0x04\n        /* \"#utility.yul\":5652:5667   */\n      mstore\n        /* \"#utility.yul\":5686:5690   */\n      0x24\n        /* \"#utility.yul\":5683:5684   */\n      0x00\n        /* \"#utility.yul\":5676:5691   */\n      revert\n        /* \"#utility.yul\":5703:5936   */\n    tag_105:\n        /* \"#utility.yul\":5742:5745   */\n      0x00\n        /* \"#utility.yul\":5765:5789   */\n      tag_243\n        /* \"#utility.yul\":5783:5788   */\n      dup3\n        /* \"#utility.yul\":5765:5789   */\n      tag_152\n      jump\t// in\n    tag_243:\n        /* \"#utility.yul\":5756:5789   */\n      swap2\n      pop\n        /* \"#utility.yul\":5811:5877   */\n      0xffffffffffffffffffffffffffffffffffffffffffffffffffffffffffffffff\n        /* \"#utility.yul\":5804:5809   */\n      dup3\n        /* \"#utility.yul\":5801:5878   */\n      sub\n        /* \"#utility.yul\":5798:5901   */\n      tag_244\n      jumpi\n        /* \"#utility.yul\":5881:5899   */\n      tag_245\n      tag_171\n      jump\t// in\n    tag_245:\n        /* \"#utility.yul\":5798:5901   */\n    tag_244:\n        /* \"#utility.yul\":5928:5929   */\n      0x01\n        /* \"#utility.yul\":5921:5926   */\n      dup3\n        /* \"#utility.yul\":5917:5930   */\n      add\n        /* \"#utility.yul\":5910:5930   */\n      swap1\n      pop\n        /* \"#utility.yul\":5703:5936   */\n      swap2\n      swap1\n      pop\n      jump\t// out\n        /* \"#utility.yul\":5942:6122   */\n    tag_108:\n        /* \"#utility.yul\":5990:6067   */\n      0x4e487b7100000000000000000000000000000000000000000000000000000000\n        /* \"#utility.yul\":5987:5988   */\n      0x00\n        /* \"#utility.yul\":5980:6068   */\n      mstore\n        /* \"#utility.yul\":6087:6091   */\n      0x41\n        /* \"#utility.yul\":6084:6085   */\n      0x04\n        /* \"#utility.yul\":6077:6092   */\n      mstore\n        /* \"#utility.yul\":6111:6115   */\n      0x24\n        /* \"#utility.yul\":6108:6109   */\n      0x00\n        /* \"#utility.yul\":6101:6116   */\n      revert\n        /* \"#utility.yul\":6128:6275   */\n    tag_172:\n        /* \"#utility.yul\":6229:6240   */\n      0x00\n        /* \"#utility.yul\":6266:6269   */\n      dup2\n        /* \"#utility.yul\":6251:6269   */\n      swap1\n      pop\n        /* \"#utility.yul\":6128:6275   */\n      swap3\n      swap2\n      pop\n      pop\n      jump\t// out\n        /* \"#utility.yul\":6281:6395   */\n    tag_173:\n      pop\n      jump\t// out\n        /* \"#utility.yul\":6401:6799   */\n    tag_174:\n        /* \"#utility.yul\":6560:6563   */\n      0x00\n        /* \"#utility.yul\":6581:6664   */\n      tag_250\n        /* \"#utility.yul\":6662:6663   */\n      0x00\n        /* \"#utility.yul\":6657:6660   */\n      dup4\n        /* \"#utility.yul\":6581:6664   */\n      tag_172\n      jump\t// in\n    tag_250:\n        /* \"#utility.yul\":6574:6664   */\n      swap2\n      pop\n        /* \"#utility.yul\":6673:6766   */\n      tag_251\n        /* \"#utility.yul\":6762:6765   */\n      dup3\n        /* \"#utility.yul\":6673:6766   */\n      tag_173\n      jump\t// in\n    tag_251:\n        /* \"#utility.yul\":6791:6792   */\n      0x00\n        /* \"#utility.yul\":6786:6789   */\n      dup3\n        /* \"#utility.yul\":6782:6793   */\n      add\n        /* \"#utility.yul\":6775:6793   */\n      swap1\n      pop\n        /* \"#utility.yul\":6401:6799   */\n      swap2\n      swap1\n      pop\n      jump\t// out\n        /* \"#utility.yul\":6805:7184   */\n    tag_113:\n        /* \"#utility.yul\":6989:6992   */\n      0x00\n        /* \"#utility.yul\":7011:7158   */\n      tag_253\n        /* \"#utility.yul\":7154:7157   */\n      dup3\n        /* \"#utility.yul\":7011:7158   */\n      tag_174\n      jump\t// in\n    tag_253:\n        /* \"#utility.yul\":7004:7158   */\n      swap2\n      pop\n        /* \"#utility.yul\":7175:7178   */\n      dup2\n        /* \"#utility.yul\":7168:7178   */\n      swap1\n      pop\n        /* \"#utility.yul\":6805:7184   */\n      swap2\n      swap1\n      pop\n      jump\t// out\n        /* \"#utility.yul\":7190:7384   */\n    tag_133:\n        /* \"#utility.yul\":7230:7234   */\n      0x00\n        /* \"#utility.yul\":7250:7270   */\n      tag_255\n        /* \"#utility.yul\":7268:7269   */\n      dup3\n        /* \"#utility.yul\":7250:7270   */\n      tag_152\n      jump\t// in\n    tag_255:\n        /* \"#utility.yul\":7245:7270   */\n      swap2\n      pop\n        /* \"#utility.yul\":7284:7304   */\n      tag_256\n        /* \"#utility.yul\":7302:7303   */\n      dup4\n        /* \"#utility.yul\":7284:7304   */\n      tag_152\n      jump\t// in\n    tag_256:\n        /* \"#utility.yul\":7279:7304   */\n      swap3\n      pop\n        /* \"#utility.yul\":7328:7329   */\n      dup3\n        /* \"#utility.yul\":7325:7326   */\n      dup3\n        /* \"#utility.yul\":7321:7330   */\n      sub\n        /* \"#utility.yul\":7313:7330   */\n      swap1\n      pop\n        /* \"#utility.yul\":7352:7353   */\n      dup2\n        /* \"#utility.yul\":7346:7350   */\n      dup2\n        /* \"#utility.yul\":7343:7354   */\n      gt\n        /* \"#utility.yul\":7340:7377   */\n      iszero\n      tag_257\n      jumpi\n        /* \"#utility.yul\":7357:7375   */\n      tag_258\n      tag_171\n      jump\t// in\n    tag_258:\n        /* \"#utility.yul\":7340:7377   */\n    tag_257:\n        /* \"#utility.yul\":7190:7384   */\n      swap3\n      swap2\n      pop\n      pop\n      jump\t// out\n        /* \"#utility.yul\":7390:7495   */\n    tag_175:\n        /* \"#utility.yul\":7426:7433   */\n      0x00\n        /* \"#utility.yul\":7466:7488   */\n      0xffffffffffffffffffff\n        /* \"#utility.yul\":7459:7464   */\n      dup3\n        /* \"#utility.yul\":7455:7489   */\n      and\n        /* \"#utility.yul\":7444:7489   */\n      swap1\n      pop\n        /* \"#utility.yul\":7390:7495   */\n      swap2\n      swap1\n      pop\n      jump\t// out\n        /* \"#utility.yul\":7501:7621   */\n    tag_176:\n        /* \"#utility.yul\":7573:7596   */\n      tag_261\n        /* \"#utility.yul\":7590:7595   */\n      dup2\n        /* \"#utility.yul\":7573:7596   */\n      tag_175\n      jump\t// in\n    tag_261:\n        /* \"#utility.yul\":7566:7571   */\n      dup2\n        /* \"#utility.yul\":7563:7597   */\n      eq\n        /* \"#utility.yul\":7553:7615   */\n      tag_262\n      jumpi\n        /* \"#utility.yul\":7611:7612   */\n      0x00\n        /* \"#utility.yul\":7608:7609   */\n      dup1\n        /* \"#utility.yul\":7601:7613   */\n      revert\n        /* \"#utility.yul\":7553:7615   */\n    tag_262:\n        /* \"#utility.yul\":7501:7621   */\n      pop\n      jump\t// out\n        /* \"#utility.yul\":7627:7768   */\n    tag_177:\n        /* \"#utility.yul\":7683:7688   */\n      0x00\n        /* \"#utility.yul\":7714:7720   */\n      dup2\n        /* \"#utility.yul\":7708:7721   */\n      mload\n        /* \"#utility.yul\":7699:7721   */\n      swap1\n      pop\n        /* \"#utility.yul\":7730:7762   */\n      tag_264\n        /* \"#utility.yul\":7756:7761   */\n      dup2\n        /* \"#utility.yul\":7730:7762   */\n      tag_176\n      jump\t// in\n    tag_264:\n        /* \"#utility.yul\":7627:7768   */\n      swap3\n      swap2\n      pop\n      pop\n      jump\t// out\n        /* \"#utility.yul\":7774:7850   */\n    tag_178:\n        /* \"#utility.yul\":7810:7817   */\n      0x00\n        /* \"#utility.yul\":7839:7844   */\n      dup2\n        /* \"#utility.yul\":7828:7844   */\n      swap1\n      pop\n        /* \"#utility.yul\":7774:7850   */\n      swap2\n      swap1\n      pop\n      jump\t// out\n        /* \"#utility.yul\":7856:7976   */\n    tag_179:\n        /* \"#utility.yul\":7928:7951   */\n      tag_267\n        /* \"#utility.yul\":7945:7950   */\n      dup2\n        /* \"#utility.yul\":7928:7951   */\n      tag_178\n      jump\t// in\n    tag_267:\n        /* \"#utility.yul\":7921:7926   */\n      dup2\n        /* \"#utility.yul\":7918:7952   */\n      eq\n        /* \"#utility.yul\":7908:7970   */\n      tag_268\n      jumpi\n        /* \"#utility.yul\":7966:7967   */\n      0x00\n        /* \"#utility.yul\":7963:7964   */\n      dup1\n        /* \"#utility.yul\":7956:7968   */\n      revert\n        /* \"#utility.yul\":7908:7970   */\n    tag_268:\n        /* \"#utility.yul\":7856:7976   */\n      pop\n      jump\t// out\n        /* \"#utility.yul\":7982:8123   */\n    tag_180:\n        /* \"#utility.yul\":8038:8043   */\n      0x00\n        /* \"#utility.yul\":8069:8075   */\n      dup2\n        /* \"#utility.yul\":8063:8076   */\n      mload\n        /* \"#utility.yul\":8054:8076   */\n      swap1\n      pop\n        /* \"#utility.yul\":8085:8117   */\n      tag_270\n        /* \"#utility.yul\":8111:8116   */\n      dup2\n        /* \"#utility.yul\":8085:8117   */\n      tag_179\n      jump\t// in\n    tag_270:\n        /* \"#utility.yul\":7982:8123   */\n      swap3\n      swap2\n      pop\n      pop\n      jump\t// out\n        /* \"#utility.yul\":8129:8272   */\n    tag_181:\n        /* \"#utility.yul\":8186:8191   */\n      0x00\n        /* \"#utility.yul\":8217:8223   */\n      dup2\n        /* \"#utility.yul\":8211:8224   */\n      mload\n        /* \"#utility.yul\":8202:8224   */\n      swap1\n      pop\n        /* \"#utility.yul\":8233:8266   */\n      tag_272\n        /* \"#utility.yul\":8260:8265   */\n      dup2\n        /* \"#utility.yul\":8233:8266   */\n      tag_164\n      jump\t// in\n    tag_272:\n        /* \"#utility.yul\":8129:8272   */\n      swap3\n      swap2\n      pop\n      pop\n      jump\t// out\n        /* \"#utility.yul\":8278:9249   */\n    tag_138:\n        /* \"#utility.yul\":8381:8387   */\n      0x00\n        /* \"#utility.yul\":8389:8395   */\n      dup1\n        /* \"#utility.yul\":8397:8403   */\n      0x00\n        /* \"#utility.yul\":8405:8411   */\n      dup1\n        /* \"#utility.yul\":8413:8419   */\n      0x00\n        /* \"#utility.yul\":8462:8465   */\n      0xa0\n        /* \"#utility.yul\":8450:8459   */\n      dup7\n        /* \"#utility.yul\":8441:8448   */\n      dup9\n        /* \"#utility.yul\":8437:8460   */\n      sub\n        /* \"#utility.yul\":8433:8466   */\n      slt\n        /* \"#utility.yul\":8430:8550   */\n      iszero\n      tag_274\n      jumpi\n        /* \"#utility.yul\":8469:8548   */\n      tag_275\n      tag_155\n      jump\t// in\n    tag_275:\n        /* \"#utility.yul\":8430:8550   */\n    tag_274:\n        /* \"#utility.yul\":8589:8590   */\n      0x00\n        /* \"#utility.yul\":8614:8677   */\n      tag_276\n        /* \"#utility.yul\":8669:8676   */\n      dup9\n        /* \"#utility.yul\":8660:8666   */\n      dup3\n        /* \"#utility.yul\":8649:8658   */\n      dup10\n        /* \"#utility.yul\":8645:8667   */\n      add\n        /* \"#utility.yul\":8614:8677   */\n      tag_177\n      jump\t// in\n    tag_276:\n        /* \"#utility.yul\":8604:8677   */\n      swap6\n      pop\n        /* \"#utility.yul\":8560:8687   */\n      pop\n        /* \"#utility.yul\":8726:8728   */\n      0x20\n        /* \"#utility.yul\":8752:8815   */\n      tag_277\n        /* \"#utility.yul\":8807:8814   */\n      dup9\n        /* \"#utility.yul\":8798:8804   */\n      dup3\n        /* \"#utility.yul\":8787:8796   */\n      dup10\n        /* \"#utility.yul\":8783:8805   */\n      add\n        /* \"#utility.yul\":8752:8815   */\n      tag_180\n      jump\t// in\n    tag_277:\n        /* \"#utility.yul\":8742:8815   */\n      swap5\n      pop\n        /* \"#utility.yul\":8697:8825   */\n      pop\n        /* \"#utility.yul\":8864:8866   */\n      0x40\n        /* \"#utility.yul\":8890:8954   */\n      tag_278\n        /* \"#utility.yul\":8946:8953   */\n      dup9\n        /* \"#utility.yul\":8937:8943   */\n      dup3\n        /* \"#utility.yul\":8926:8935   */\n      dup10\n        /* \"#utility.yul\":8922:8944   */\n      add\n        /* \"#utility.yul\":8890:8954   */\n      tag_181\n      jump\t// in\n    tag_278:\n        /* \"#utility.yul\":8880:8954   */\n      swap4\n      pop\n        /* \"#utility.yul\":8835:8964   */\n      pop\n        /* \"#utility.yul\":9003:9005   */\n      0x60\n        /* \"#utility.yul\":9029:9093   */\n      tag_279\n        /* \"#utility.yul\":9085:9092   */\n      dup9\n        /* \"#utility.yul\":9076:9082   */\n      dup3\n        /* \"#utility.yul\":9065:9074   */\n      dup10\n        /* \"#utility.yul\":9061:9083   */\n      add\n        /* \"#utility.yul\":9029:9093   */\n      tag_181\n      jump\t// in\n    tag_279:\n        /* \"#utility.yul\":9019:9093   */\n      swap3\n      pop\n        /* \"#utility.yul\":8974:9103   */\n      pop\n        /* \"#utility.yul\":9142:9145   */\n      0x80\n        /* \"#utility.yul\":9169:9232   */\n      tag_280\n        /* \"#utility.yul\":9224:9231   */\n      dup9\n        /* \"#utility.yul\":9215:9221   */\n      dup3\n        /* \"#utility.yul\":9204:9213   */\n      dup10\n        /* \"#utility.yul\":9200:9222   */\n      add\n        /* \"#utility.yul\":9169:9232   */\n      tag_177\n      jump\t// in\n    tag_280:\n        /* \"#utility.yul\":9159:9232   */\n      swap2\n      pop\n        /* \"#utility.yul\":9113:9242   */\n      pop\n        /* \"#utility.yul\":8278:9249   */\n      swap3\n      swap6\n      pop\n      swap3\n      swap6\n      swap1\n      swap4\n      pop\n      jump\t// out\n        /* \"#utility.yul\":9255:9811   */\n    tag_140:\n        /* \"#utility.yul\":9294:9301   */\n      0x00\n        /* \"#utility.yul\":9317:9336   */\n      tag_282\n        /* \"#utility.yul\":9334:9335   */\n      dup3\n        /* \"#utility.yul\":9317:9336   */\n      tag_178\n      jump\t// in\n    tag_282:\n        /* \"#utility.yul\":9312:9336   */\n      swap2\n      pop\n        /* \"#utility.yul\":9350:9369   */\n      tag_283\n        /* \"#utility.yul\":9367:9368   */\n      dup4\n        /* \"#utility.yul\":9350:9369   */\n      tag_178\n      jump\t// in\n    tag_283:\n        /* \"#utility.yul\":9345:9369   */\n      swap3\n      pop\n        /* \"#utility.yul\":9404:9405   */\n      dup3\n        /* \"#utility.yul\":9401:9402   */\n      dup3\n        /* \"#utility.yul\":9397:9406   */\n      mul\n        /* \"#utility.yul\":9426:9455   */\n      tag_284\n        /* \"#utility.yul\":9443:9454   */\n      dup2\n        /* \"#utility.yul\":9426:9455   */\n      tag_178\n      jump\t// in\n    tag_284:\n        /* \"#utility.yul\":9415:9455   */\n      swap2\n      pop\n        /* \"#utility.yul\":9513:9579   */\n      0x8000000000000000000000000000000000000000000000000000000000000000\n        /* \"#utility.yul\":9510:9511   */\n      dup5\n        /* \"#utility.yul\":9507:9580   */\n      eq\n        /* \"#utility.yul\":9503:9504   */\n      0x00\n        /* \"#utility.yul\":9500:9501   */\n      dup5\n        /* \"#utility.yul\":9496:9505   */\n      slt\n        /* \"#utility.yul\":9492:9581   */\n      and\n        /* \"#utility.yul\":9489:9604   */\n      iszero\n      tag_285\n      jumpi\n        /* \"#utility.yul\":9584:9602   */\n      tag_286\n      tag_171\n      jump\t// in\n    tag_286:\n        /* \"#utility.yul\":9489:9604   */\n    tag_285:\n        /* \"#utility.yul\":9754:9755   */\n      dup3\n        /* \"#utility.yul\":9745:9752   */\n      dup3\n        /* \"#utility.yul\":9740:9756   */\n      sdiv\n        /* \"#utility.yul\":9737:9738   */\n      dup5\n        /* \"#utility.yul\":9734:9757   */\n      eq\n        /* \"#utility.yul\":9714:9715   */\n      dup4\n        /* \"#utility.yul\":9707:9716   */\n      iszero\n        /* \"#utility.yul\":9687:9771   */\n      or\n        /* \"#utility.yul\":9664:9804   */\n      tag_287\n      jumpi\n        /* \"#utility.yul\":9784:9802   */\n      tag_288\n      tag_171\n      jump\t// in\n    tag_288:\n        /* \"#utility.yul\":9664:9804   */\n    tag_287:\n        /* \"#utility.yul\":9302:9811   */\n      pop\n        /* \"#utility.yul\":9255:9811   */\n      swap3\n      swap2\n      pop\n      pop\n      jump\t// out\n        /* \"#utility.yul\":9817:10227   */\n    tag_142:\n        /* \"#utility.yul\":9857:9864   */\n      0x00\n        /* \"#utility.yul\":9880:9900   */\n      tag_290\n        /* \"#utility.yul\":9898:9899   */\n      dup3\n        /* \"#utility.yul\":9880:9900   */\n      tag_152\n      jump\t// in\n    tag_290:\n        /* \"#utility.yul\":9875:9900   */\n      swap2\n      pop\n        /* \"#utility.yul\":9914:9934   */\n      tag_291\n        /* \"#utility.yul\":9932:9933   */\n      dup4\n        /* \"#utility.yul\":9914:9934   */\n      tag_152\n      jump\t// in\n    tag_291:\n        /* \"#utility.yul\":9909:9934   */\n      swap3\n      pop\n        /* \"#utility.yul\":9969:9970   */\n      dup3\n        /* \"#utility.yul\":9966:9967   */\n      dup3\n        /* \"#utility.yul\":9962:9971   */\n      mul\n        /* \"#utility.yul\":9991:10021   */\n      tag_292\n        /* \"#utility.yul\":10009:10020   */\n      dup2\n        /* \"#utility.yul\":9991:10021   */\n      tag_152\n      jump\t// in\n    tag_292:\n        /* \"#utility.yul\":9980:10021   */\n      swap2\n      pop\n        /* \"#utility.yul\":10170:10171   */\n      dup3\n        /* \"#utility.yul\":10161:10168   */\n      dup3\n        /* \"#utility.yul\":10157:10172   */\n      div\n        /* \"#utility.yul\":10154:10155   */\n      dup5\n        /* \"#utility.yul\":10151:10173   */\n      eq\n        /* \"#utility.yul\":10131:10132   */\n      dup4\n        /* \"#utility.yul\":10124:10133   */\n      iszero\n        /* \"#utility.yul\":10104:10187   */\n      or\n        /* \"#utility.yul\":10081:10220   */\n      tag_293\n      jumpi\n        /* \"#utility.yul\":10200:10218   */\n      tag_294\n      tag_171\n      jump\t// in\n    tag_294:\n        /* \"#utility.yul\":10081:10220   */\n    tag_293:\n        /* \"#utility.yul\":9865:10227   */\n      pop\n        /* \"#utility.yul\":9817:10227   */\n      swap3\n      swap2\n      pop\n      pop\n      jump\t// out\n        /* \"#utility.yul\":10233:10413   */\n    tag_182:\n        /* \"#utility.yul\":10281:10358   */\n      0x4e487b7100000000000000000000000000000000000000000000000000000000\n        /* \"#utility.yul\":10278:10279   */\n      0x00\n        /* \"#utility.yul\":10271:10359   */\n      mstore\n        /* \"#utility.yul\":10378:10382   */\n      0x12\n        /* \"#utility.yul\":10375:10376   */\n      0x04\n        /* \"#utility.yul\":10368:10383   */\n      mstore\n        /* \"#utility.yul\":10402:10406   */\n      0x24\n        /* \"#utility.yul\":10399:10400   */\n      0x00\n        /* \"#utility.yul\":10392:10407   */\n      revert\n        /* \"#utility.yul\":10419:10604   */\n    tag_144:\n        /* \"#utility.yul\":10459:10460   */\n      0x00\n        /* \"#utility.yul\":10476:10496   */\n      tag_297\n        /* \"#utility.yul\":10494:10495   */\n      dup3\n        /* \"#utility.yul\":10476:10496   */\n      tag_152\n      jump\t// in\n    tag_297:\n        /* \"#utility.yul\":10471:10496   */\n      swap2\n      pop\n        /* \"#utility.yul\":10510:10530   */\n      tag_298\n        /* \"#utility.yul\":10528:10529   */\n      dup4\n        /* \"#utility.yul\":10510:10530   */\n      tag_152\n      jump\t// in\n    tag_298:\n        /* \"#utility.yul\":10505:10530   */\n      swap3\n      pop\n        /* \"#utility.yul\":10549:10550   */\n      dup3\n        /* \"#utility.yul\":10539:10574   */\n      tag_299\n      jumpi\n        /* \"#utility.yul\":10554:10572   */\n      tag_300\n      tag_182\n      jump\t// in\n    tag_300:\n        /* \"#utility.yul\":10539:10574   */\n    tag_299:\n        /* \"#utility.yul\":10596:10597   */\n      dup3\n        /* \"#utility.yul\":10593:10594   */\n      dup3\n        /* \"#utility.yul\":10589:10598   */\n      div\n        /* \"#utility.yul\":10584:10598   */\n      swap1\n      pop\n        /* \"#utility.yul\":10419:10604   */\n      swap3\n      swap2\n      pop\n      pop\n      jump\t// out\n\n    auxdata: 0xa2646970667358221220bfd893472f9c83fead5a830138192338756a5d5c830add2490d3be5b1436cef764736f6c63430008120033\n}\n",
				"bytecode": {
					"linkReferences": {},
					"object": "60e060405234801561001057600080fd5b503373ffffffffffffffffffffffffffffffffffffffff1660808173ffffffffffffffffffffffffffffffffffffffff16815250506802b5e3af16b188000060a081815250506107084261006491906100a9565b60c081815250506100dd565b6000819050919050565b7f4e487b7100000000000000000000000000000000000000000000000000000000600052601160045260246000fd5b60006100b482610070565b91506100bf83610070565b92508282019050808211156100d7576100d661007a565b5b92915050565b60805160a05160c0516111ff610144600039600081816102cb015281816105d801528181610848015281816109e80152610a1901526000818161050701528181610602015261095f0152600081816105530152818161076c015261098301526111ff6000f3fe6080604052600436106100ab5760003560e01c80637d3d6522116100645780637d3d6522146101d6578063a67e30cb14610201578063b60d42881461022c578063dba6335f14610236578063dc0d3dff14610261578063efb98bcf1461029e576100ba565b80631a39d8ef146100c45780633ccfd60b146100ef5780633e47d6f3146101065780634628ac391461014357806361dba32a1461016e578063769d3c98146101ab576100ba565b366100ba576100b86102c9565b005b6100c26102c9565b005b3480156100d057600080fd5b506100d961054b565b6040516100e69190610bd7565b60405180910390f35b3480156100fb57600080fd5b50610104610551565b005b34801561011257600080fd5b5061012d60048036038101906101289190610c55565b61082e565b60405161013a9190610bd7565b60405180910390f35b34801561014f57600080fd5b50610158610846565b6040516101659190610bd7565b60405180910390f35b34801561017a57600080fd5b5061019560048036038101906101909190610c55565b61086a565b6040516101a29190610c9d565b60405180910390f35b3480156101b757600080fd5b506101c061088a565b6040516101cd9190610bd7565b60405180910390f35b3480156101e257600080fd5b506101eb61094a565b6040516101f89190610c9d565b60405180910390f35b34801561020d57600080fd5b5061021661095d565b6040516102239190610bd7565b60405180910390f35b6102346102c9565b005b34801561024257600080fd5b5061024b610981565b6040516102589190610cc7565b60405180910390f35b34801561026d57600080fd5b5061028860048036038101906102839190610d0e565b6109a5565b6040516102959190610cc7565b60405180910390f35b3480156102aa57600080fd5b506102b36109e4565b6040516102c09190610bd7565b60405180910390f35b7f0000000000000000000000000000000000000000000000000000000000000000421061032b576040517f08c379a000000000000000000000000000000000000000000000000000000000815260040161032290610d98565b60405180910390fd5b600460009054906101000a900460ff161561037b576040517f08c379a000000000000000000000000000000000000000000000000000000000815260040161037290610e04565b60405180910390fd5b600360003373ffffffffffffffffffffffffffffffffffffffff1673ffffffffffffffffffffffffffffffffffffffff16815260200190815260200160002060009054906101000a900460ff16610488576001600360003373ffffffffffffffffffffffffffffffffffffffff1673ffffffffffffffffffffffffffffffffffffffff16815260200190815260200160002060006101000a81548160ff0219169083151502179055506001339080600181540180825580915050600190039060005260206000200160009091909190916101000a81548173ffffffffffffffffffffffffffffffffffffffff021916908373ffffffffffffffffffffffffffffffffffffffff1602179055505b346000803373ffffffffffffffffffffffffffffffffffffffff1673ffffffffffffffffffffffffffffffffffffffff16815260200190815260200160002060008282546104d69190610e53565b9250508190555034600260008282546104ef9190610e53565b925050819055506000610503600254610a48565b90507f00000000000000000000000000000000000000000000000000000000000000008110610548576001600460006101000a81548160ff0219169083151502179055505b50565b60025481565b7f000000000000000000000000000000000000000000000000000000000000000073ffffffffffffffffffffffffffffffffffffffff163373ffffffffffffffffffffffffffffffffffffffff16146105d6576040517f251c9d6300000000000000000000000000000000000000000000000000000000815260040160405180910390fd5b7f00000000000000000000000000000000000000000000000000000000000000004210801561062b57507f000000000000000000000000000000000000000000000000000000000000000061062961088a565b105b15610662576040517f046e298b00000000000000000000000000000000000000000000000000000000815260040160405180910390fd5b60005b6001805490508110156107075760008060006001848154811061068b5761068a610e87565b5b9060005260206000200160009054906101000a900473ffffffffffffffffffffffffffffffffffffffff1673ffffffffffffffffffffffffffffffffffffffff1673ffffffffffffffffffffffffffffffffffffffff1681526020019081526020016000208190555080806106ff90610eb6565b915050610665565b50600067ffffffffffffffff81111561072357610722610efe565b5b6040519080825280602002602001820160405280156107515781602001602082028036833780820191505090505b5060019080519060200190610767929190610b17565b5060007f000000000000000000000000000000000000000000000000000000000000000073ffffffffffffffffffffffffffffffffffffffff16476040516107ae90610f5e565b60006040518083038185875af1925050503d80600081146107eb576040519150601f19603f3d011682016040523d82523d6000602084013e6107f0565b606091505b505090508061082b576040517f67b2cd0500000000000000000000000000000000000000000000000000000000815260040160405180910390fd5b50565b60006020528060005260406000206000915090505481565b7f000000000000000000000000000000000000000000000000000000000000000081565b60036020528060005260406000206000915054906101000a900460ff1681565b60008060005b60018054905081101561093a57600080600183815481106108b4576108b3610e87565b5b9060005260206000200160009054906101000a900473ffffffffffffffffffffffffffffffffffffffff1673ffffffffffffffffffffffffffffffffffffffff1673ffffffffffffffffffffffffffffffffffffffff16815260200190815260200160002054826109259190610e53565b9150808061093290610eb6565b915050610890565b5061094481610a48565b91505090565b600460009054906101000a900460ff1681565b7f000000000000000000000000000000000000000000000000000000000000000081565b7f000000000000000000000000000000000000000000000000000000000000000081565b600181815481106109b557600080fd5b906000526020600020016000915054906101000a900473ffffffffffffffffffffffffffffffffffffffff1681565b60007f00000000000000000000000000000000000000000000000000000000000000004210610a165760009050610a45565b427f0000000000000000000000000000000000000000000000000000000000000000610a429190610f73565b90505b90565b60008073694aa1769357215de4fac081bf1f309adc325306905060008173ffffffffffffffffffffffffffffffffffffffff1663feaf968c6040518163ffffffff1660e01b815260040160a060405180830381865afa158015610aaf573d6000803e3d6000fd5b505050506040513d601f19601f82011682018060405250810190610ad39190611034565b50505091505060006402540be40082610aec91906110af565b9050670de0b6b3a76400008582610b039190611127565b610b0d9190611198565b9350505050919050565b828054828255906000526020600020908101928215610b90579160200282015b82811115610b8f5782518260006101000a81548173ffffffffffffffffffffffffffffffffffffffff021916908373ffffffffffffffffffffffffffffffffffffffff16021790555091602001919060010190610b37565b5b509050610b9d9190610ba1565b5090565b5b80821115610bba576000816000905550600101610ba2565b5090565b6000819050919050565b610bd181610bbe565b82525050565b6000602082019050610bec6000830184610bc8565b92915050565b600080fd5b600073ffffffffffffffffffffffffffffffffffffffff82169050919050565b6000610c2282610bf7565b9050919050565b610c3281610c17565b8114610c3d57600080fd5b50565b600081359050610c4f81610c29565b92915050565b600060208284031215610c6b57610c6a610bf2565b5b6000610c7984828501610c40565b91505092915050565b60008115159050919050565b610c9781610c82565b82525050565b6000602082019050610cb26000830184610c8e565b92915050565b610cc181610c17565b82525050565b6000602082019050610cdc6000830184610cb8565b92915050565b610ceb81610bbe565b8114610cf657600080fd5b50565b600081359050610d0881610ce2565b92915050565b600060208284031215610d2457610d23610bf2565b5b6000610d3284828501610cf9565b91505092915050565b600082825260208201905092915050565b7f43726f776466756e643a2050726f6a65637420656e6465640000000000000000600082015250565b6000610d82601883610d3b565b9150610d8d82610d4c565b602082019050919050565b60006020820190508181036000830152610db181610d75565b9050919050565b7f43726f776466756e643a20476f616c20616c7265616479207265616368656400600082015250565b6000610dee601f83610d3b565b9150610df982610db8565b602082019050919050565b60006020820190508181036000830152610e1d81610de1565b9050919050565b7f4e487b7100000000000000000000000000000000000000000000000000000000600052601160045260246000fd5b6000610e5e82610bbe565b9150610e6983610bbe565b9250828201905080821115610e8157610e80610e24565b5b92915050565b7f4e487b7100000000000000000000000000000000000000000000000000000000600052603260045260246000fd5b6000610ec182610bbe565b91507fffffffffffffffffffffffffffffffffffffffffffffffffffffffffffffffff8203610ef357610ef2610e24565b5b600182019050919050565b7f4e487b7100000000000000000000000000000000000000000000000000000000600052604160045260246000fd5b600081905092915050565b50565b6000610f48600083610f2d565b9150610f5382610f38565b600082019050919050565b6000610f6982610f3b565b9150819050919050565b6000610f7e82610bbe565b9150610f8983610bbe565b9250828203905081811115610fa157610fa0610e24565b5b92915050565b600069ffffffffffffffffffff82169050919050565b610fc681610fa7565b8114610fd157600080fd5b50565b600081519050610fe381610fbd565b92915050565b6000819050919050565b610ffc81610fe9565b811461100757600080fd5b50565b60008151905061101981610ff3565b92915050565b60008151905061102e81610ce2565b92915050565b600080600080600060a086880312156110505761104f610bf2565b5b600061105e88828901610fd4565b955050602061106f8882890161100a565b94505060406110808882890161101f565b93505060606110918882890161101f565b92505060806110a288828901610fd4565b9150509295509295909350565b60006110ba82610fe9565b91506110c583610fe9565b92508282026110d381610fe9565b91507f8000000000000000000000000000000000000000000000000000000000000000841460008412161561110b5761110a610e24565b5b82820584148315176111205761111f610e24565b5b5092915050565b600061113282610bbe565b915061113d83610bbe565b925082820261114b81610bbe565b9150828204841483151761116257611161610e24565b5b5092915050565b7f4e487b7100000000000000000000000000000000000000000000000000000000600052601260045260246000fd5b60006111a382610bbe565b91506111ae83610bbe565b9250826111be576111bd611169565b5b82820490509291505056fea2646970667358221220bfd893472f9c83fead5a830138192338756a5d5c830add2490d3be5b1436cef764736f6c63430008120033",
					"opcodes": "PUSH1 0xE0 PUSH1 0x40 MSTORE CALLVALUE DUP1 ISZERO PUSH2 0x10 JUMPI PUSH1 0x0 DUP1 REVERT JUMPDEST POP CALLER PUSH20 0xFFFFFFFFFFFFFFFFFFFFFFFFFFFFFFFFFFFFFFFF AND PUSH1 0x80 DUP2 PUSH20 0xFFFFFFFFFFFFFFFFFFFFFFFFFFFFFFFFFFFFFFFF AND DUP2 MSTORE POP POP PUSH9 0x2B5E3AF16B1880000 PUSH1 0xA0 DUP2 DUP2 MSTORE POP POP PUSH2 0x708 TIMESTAMP PUSH2 0x64 SWAP2 SWAP1 PUSH2 0xA9 JUMP JUMPDEST PUSH1 0xC0 DUP2 DUP2 MSTORE POP POP PUSH2 0xDD JUMP JUMPDEST PUSH1 0x0 DUP2 SWAP1 POP SWAP2 SWAP1 POP JUMP JUMPDEST PUSH32 0x4E487B7100000000000000000000000000000000000000000000000000000000 PUSH1 0x0 MSTORE PUSH1 0x11 PUSH1 0x4 MSTORE PUSH1 0x24 PUSH1 0x0 REVERT JUMPDEST PUSH1 0x0 PUSH2 0xB4 DUP3 PUSH2 0x70 JUMP JUMPDEST SWAP2 POP PUSH2 0xBF DUP4 PUSH2 0x70 JUMP JUMPDEST SWAP3 POP DUP3 DUP3 ADD SWAP1 POP DUP1 DUP3 GT ISZERO PUSH2 0xD7 JUMPI PUSH2 0xD6 PUSH2 0x7A JUMP JUMPDEST JUMPDEST SWAP3 SWAP2 POP POP JUMP JUMPDEST PUSH1 0x80 MLOAD PUSH1 0xA0 MLOAD PUSH1 0xC0 MLOAD PUSH2 0x11FF PUSH2 0x144 PUSH1 0x0 CODECOPY PUSH1 0x0 DUP2 DUP2 PUSH2 0x2CB ADD MSTORE DUP2 DUP2 PUSH2 0x5D8 ADD MSTORE DUP2 DUP2 PUSH2 0x848 ADD MSTORE DUP2 DUP2 PUSH2 0x9E8 ADD MSTORE PUSH2 0xA19 ADD MSTORE PUSH1 0x0 DUP2 DUP2 PUSH2 0x507 ADD MSTORE DUP2 DUP2 PUSH2 0x602 ADD MSTORE PUSH2 0x95F ADD MSTORE PUSH1 0x0 DUP2 DUP2 PUSH2 0x553 ADD MSTORE DUP2 DUP2 PUSH2 0x76C ADD MSTORE PUSH2 0x983 ADD MSTORE PUSH2 0x11FF PUSH1 0x0 RETURN INVALID PUSH1 0x80 PUSH1 0x40 MSTORE PUSH1 0x4 CALLDATASIZE LT PUSH2 0xAB JUMPI PUSH1 0x0 CALLDATALOAD PUSH1 0xE0 SHR DUP1 PUSH4 0x7D3D6522 GT PUSH2 0x64 JUMPI DUP1 PUSH4 0x7D3D6522 EQ PUSH2 0x1D6 JUMPI DUP1 PUSH4 0xA67E30CB EQ PUSH2 0x201 JUMPI DUP1 PUSH4 0xB60D4288 EQ PUSH2 0x22C JUMPI DUP1 PUSH4 0xDBA6335F EQ PUSH2 0x236 JUMPI DUP1 PUSH4 0xDC0D3DFF EQ PUSH2 0x261 JUMPI DUP1 PUSH4 0xEFB98BCF EQ PUSH2 0x29E JUMPI PUSH2 0xBA JUMP JUMPDEST DUP1 PUSH4 0x1A39D8EF EQ PUSH2 0xC4 JUMPI DUP1 PUSH4 0x3CCFD60B EQ PUSH2 0xEF JUMPI DUP1 PUSH4 0x3E47D6F3 EQ PUSH2 0x106 JUMPI DUP1 PUSH4 0x4628AC39 EQ PUSH2 0x143 JUMPI DUP1 PUSH4 0x61DBA32A EQ PUSH2 0x16E JUMPI DUP1 PUSH4 0x769D3C98 EQ PUSH2 0x1AB JUMPI PUSH2 0xBA JUMP JUMPDEST CALLDATASIZE PUSH2 0xBA JUMPI PUSH2 0xB8 PUSH2 0x2C9 JUMP JUMPDEST STOP JUMPDEST PUSH2 0xC2 PUSH2 0x2C9 JUMP JUMPDEST STOP JUMPDEST CALLVALUE DUP1 ISZERO PUSH2 0xD0 JUMPI PUSH1 0x0 DUP1 REVERT JUMPDEST POP PUSH2 0xD9 PUSH2 0x54B JUMP JUMPDEST PUSH1 0x40 MLOAD PUSH2 0xE6 SWAP2 SWAP1 PUSH2 0xBD7 JUMP JUMPDEST PUSH1 0x40 MLOAD DUP1 SWAP2 SUB SWAP1 RETURN JUMPDEST CALLVALUE DUP1 ISZERO PUSH2 0xFB JUMPI PUSH1 0x0 DUP1 REVERT JUMPDEST POP PUSH2 0x104 PUSH2 0x551 JUMP JUMPDEST STOP JUMPDEST CALLVALUE DUP1 ISZERO PUSH2 0x112 JUMPI PUSH1 0x0 DUP1 REVERT JUMPDEST POP PUSH2 0x12D PUSH1 0x4 DUP1 CALLDATASIZE SUB DUP2 ADD SWAP1 PUSH2 0x128 SWAP2 SWAP1 PUSH2 0xC55 JUMP JUMPDEST PUSH2 0x82E JUMP JUMPDEST PUSH1 0x40 MLOAD PUSH2 0x13A SWAP2 SWAP1 PUSH2 0xBD7 JUMP JUMPDEST PUSH1 0x40 MLOAD DUP1 SWAP2 SUB SWAP1 RETURN JUMPDEST CALLVALUE DUP1 ISZERO PUSH2 0x14F JUMPI PUSH1 0x0 DUP1 REVERT JUMPDEST POP PUSH2 0x158 PUSH2 0x846 JUMP JUMPDEST PUSH1 0x40 MLOAD PUSH2 0x165 SWAP2 SWAP1 PUSH2 0xBD7 JUMP JUMPDEST PUSH1 0x40 MLOAD DUP1 SWAP2 SUB SWAP1 RETURN JUMPDEST CALLVALUE DUP1 ISZERO PUSH2 0x17A JUMPI PUSH1 0x0 DUP1 REVERT JUMPDEST POP PUSH2 0x195 PUSH1 0x4 DUP1 CALLDATASIZE SUB DUP2 ADD SWAP1 PUSH2 0x190 SWAP2 SWAP1 PUSH2 0xC55 JUMP JUMPDEST PUSH2 0x86A JUMP JUMPDEST PUSH1 0x40 MLOAD PUSH2 0x1A2 SWAP2 SWAP1 PUSH2 0xC9D JUMP JUMPDEST PUSH1 0x40 MLOAD DUP1 SWAP2 SUB SWAP1 RETURN JUMPDEST CALLVALUE DUP1 ISZERO PUSH2 0x1B7 JUMPI PUSH1 0x0 DUP1 REVERT JUMPDEST POP PUSH2 0x1C0 PUSH2 0x88A JUMP JUMPDEST PUSH1 0x40 MLOAD PUSH2 0x1CD SWAP2 SWAP1 PUSH2 0xBD7 JUMP JUMPDEST PUSH1 0x40 MLOAD DUP1 SWAP2 SUB SWAP1 RETURN JUMPDEST CALLVALUE DUP1 ISZERO PUSH2 0x1E2 JUMPI PUSH1 0x0 DUP1 REVERT JUMPDEST POP PUSH2 0x1EB PUSH2 0x94A JUMP JUMPDEST PUSH1 0x40 MLOAD PUSH2 0x1F8 SWAP2 SWAP1 PUSH2 0xC9D JUMP JUMPDEST PUSH1 0x40 MLOAD DUP1 SWAP2 SUB SWAP1 RETURN JUMPDEST CALLVALUE DUP1 ISZERO PUSH2 0x20D JUMPI PUSH1 0x0 DUP1 REVERT JUMPDEST POP PUSH2 0x216 PUSH2 0x95D JUMP JUMPDEST PUSH1 0x40 MLOAD PUSH2 0x223 SWAP2 SWAP1 PUSH2 0xBD7 JUMP JUMPDEST PUSH1 0x40 MLOAD DUP1 SWAP2 SUB SWAP1 RETURN JUMPDEST PUSH2 0x234 PUSH2 0x2C9 JUMP JUMPDEST STOP JUMPDEST CALLVALUE DUP1 ISZERO PUSH2 0x242 JUMPI PUSH1 0x0 DUP1 REVERT JUMPDEST POP PUSH2 0x24B PUSH2 0x981 JUMP JUMPDEST PUSH1 0x40 MLOAD PUSH2 0x258 SWAP2 SWAP1 PUSH2 0xCC7 JUMP JUMPDEST PUSH1 0x40 MLOAD DUP1 SWAP2 SUB SWAP1 RETURN JUMPDEST CALLVALUE DUP1 ISZERO PUSH2 0x26D JUMPI PUSH1 0x0 DUP1 REVERT JUMPDEST POP PUSH2 0x288 PUSH1 0x4 DUP1 CALLDATASIZE SUB DUP2 ADD SWAP1 PUSH2 0x283 SWAP2 SWAP1 PUSH2 0xD0E JUMP JUMPDEST PUSH2 0x9A5 JUMP JUMPDEST PUSH1 0x40 MLOAD PUSH2 0x295 SWAP2 SWAP1 PUSH2 0xCC7 JUMP JUMPDEST PUSH1 0x40 MLOAD DUP1 SWAP2 SUB SWAP1 RETURN JUMPDEST CALLVALUE DUP1 ISZERO PUSH2 0x2AA JUMPI PUSH1 0x0 DUP1 REVERT JUMPDEST POP PUSH2 0x2B3 PUSH2 0x9E4 JUMP JUMPDEST PUSH1 0x40 MLOAD PUSH2 0x2C0 SWAP2 SWAP1 PUSH2 0xBD7 JUMP JUMPDEST PUSH1 0x40 MLOAD DUP1 SWAP2 SUB SWAP1 RETURN JUMPDEST PUSH32 0x0 TIMESTAMP LT PUSH2 0x32B JUMPI PUSH1 0x40 MLOAD PUSH32 0x8C379A000000000000000000000000000000000000000000000000000000000 DUP2 MSTORE PUSH1 0x4 ADD PUSH2 0x322 SWAP1 PUSH2 0xD98 JUMP JUMPDEST PUSH1 0x40 MLOAD DUP1 SWAP2 SUB SWAP1 REVERT JUMPDEST PUSH1 0x4 PUSH1 0x0 SWAP1 SLOAD SWAP1 PUSH2 0x100 EXP SWAP1 DIV PUSH1 0xFF AND ISZERO PUSH2 0x37B JUMPI PUSH1 0x40 MLOAD PUSH32 0x8C379A000000000000000000000000000000000000000000000000000000000 DUP2 MSTORE PUSH1 0x4 ADD PUSH2 0x372 SWAP1 PUSH2 0xE04 JUMP JUMPDEST PUSH1 0x40 MLOAD DUP1 SWAP2 SUB SWAP1 REVERT JUMPDEST PUSH1 0x3 PUSH1 0x0 CALLER PUSH20 0xFFFFFFFFFFFFFFFFFFFFFFFFFFFFFFFFFFFFFFFF AND PUSH20 0xFFFFFFFFFFFFFFFFFFFFFFFFFFFFFFFFFFFFFFFF AND DUP2 MSTORE PUSH1 0x20 ADD SWAP1 DUP2 MSTORE PUSH1 0x20 ADD PUSH1 0x0 KECCAK256 PUSH1 0x0 SWAP1 SLOAD SWAP1 PUSH2 0x100 EXP SWAP1 DIV PUSH1 0xFF AND PUSH2 0x488 JUMPI PUSH1 0x1 PUSH1 0x3 PUSH1 0x0 CALLER PUSH20 0xFFFFFFFFFFFFFFFFFFFFFFFFFFFFFFFFFFFFFFFF AND PUSH20 0xFFFFFFFFFFFFFFFFFFFFFFFFFFFFFFFFFFFFFFFF AND DUP2 MSTORE PUSH1 0x20 ADD SWAP1 DUP2 MSTORE PUSH1 0x20 ADD PUSH1 0x0 KECCAK256 PUSH1 0x0 PUSH2 0x100 EXP DUP2 SLOAD DUP2 PUSH1 0xFF MUL NOT AND SWAP1 DUP4 ISZERO ISZERO MUL OR SWAP1 SSTORE POP PUSH1 0x1 CALLER SWAP1 DUP1 PUSH1 0x1 DUP2 SLOAD ADD DUP1 DUP3 SSTORE DUP1 SWAP2 POP POP PUSH1 0x1 SWAP1 SUB SWAP1 PUSH1 0x0 MSTORE PUSH1 0x20 PUSH1 0x0 KECCAK256 ADD PUSH1 0x0 SWAP1 SWAP2 SWAP1 SWAP2 SWAP1 SWAP2 PUSH2 0x100 EXP DUP2 SLOAD DUP2 PUSH20 0xFFFFFFFFFFFFFFFFFFFFFFFFFFFFFFFFFFFFFFFF MUL NOT AND SWAP1 DUP4 PUSH20 0xFFFFFFFFFFFFFFFFFFFFFFFFFFFFFFFFFFFFFFFF AND MUL OR SWAP1 SSTORE POP JUMPDEST CALLVALUE PUSH1 0x0 DUP1 CALLER PUSH20 0xFFFFFFFFFFFFFFFFFFFFFFFFFFFFFFFFFFFFFFFF AND PUSH20 0xFFFFFFFFFFFFFFFFFFFFFFFFFFFFFFFFFFFFFFFF AND DUP2 MSTORE PUSH1 0x20 ADD SWAP1 DUP2 MSTORE PUSH1 0x20 ADD PUSH1 0x0 KECCAK256 PUSH1 0x0 DUP3 DUP3 SLOAD PUSH2 0x4D6 SWAP2 SWAP1 PUSH2 0xE53 JUMP JUMPDEST SWAP3 POP POP DUP2 SWAP1 SSTORE POP CALLVALUE PUSH1 0x2 PUSH1 0x0 DUP3 DUP3 SLOAD PUSH2 0x4EF SWAP2 SWAP1 PUSH2 0xE53 JUMP JUMPDEST SWAP3 POP POP DUP2 SWAP1 SSTORE POP PUSH1 0x0 PUSH2 0x503 PUSH1 0x2 SLOAD PUSH2 0xA48 JUMP JUMPDEST SWAP1 POP PUSH32 0x0 DUP2 LT PUSH2 0x548 JUMPI PUSH1 0x1 PUSH1 0x4 PUSH1 0x0 PUSH2 0x100 EXP DUP2 SLOAD DUP2 PUSH1 0xFF MUL NOT AND SWAP1 DUP4 ISZERO ISZERO MUL OR SWAP1 SSTORE POP JUMPDEST POP JUMP JUMPDEST PUSH1 0x2 SLOAD DUP2 JUMP JUMPDEST PUSH32 0x0 PUSH20 0xFFFFFFFFFFFFFFFFFFFFFFFFFFFFFFFFFFFFFFFF AND CALLER PUSH20 0xFFFFFFFFFFFFFFFFFFFFFFFFFFFFFFFFFFFFFFFF AND EQ PUSH2 0x5D6 JUMPI PUSH1 0x40 MLOAD PUSH32 0x251C9D6300000000000000000000000000000000000000000000000000000000 DUP2 MSTORE PUSH1 0x4 ADD PUSH1 0x40 MLOAD DUP1 SWAP2 SUB SWAP1 REVERT JUMPDEST PUSH32 0x0 TIMESTAMP LT DUP1 ISZERO PUSH2 0x62B JUMPI POP PUSH32 0x0 PUSH2 0x629 PUSH2 0x88A JUMP JUMPDEST LT JUMPDEST ISZERO PUSH2 0x662 JUMPI PUSH1 0x40 MLOAD PUSH32 0x46E298B00000000000000000000000000000000000000000000000000000000 DUP2 MSTORE PUSH1 0x4 ADD PUSH1 0x40 MLOAD DUP1 SWAP2 SUB SWAP1 REVERT JUMPDEST PUSH1 0x0 JUMPDEST PUSH1 0x1 DUP1 SLOAD SWAP1 POP DUP2 LT ISZERO PUSH2 0x707 JUMPI PUSH1 0x0 DUP1 PUSH1 0x0 PUSH1 0x1 DUP5 DUP2 SLOAD DUP2 LT PUSH2 0x68B JUMPI PUSH2 0x68A PUSH2 0xE87 JUMP JUMPDEST JUMPDEST SWAP1 PUSH1 0x0 MSTORE PUSH1 0x20 PUSH1 0x0 KECCAK256 ADD PUSH1 0x0 SWAP1 SLOAD SWAP1 PUSH2 0x100 EXP SWAP1 DIV PUSH20 0xFFFFFFFFFFFFFFFFFFFFFFFFFFFFFFFFFFFFFFFF AND PUSH20 0xFFFFFFFFFFFFFFFFFFFFFFFFFFFFFFFFFFFFFFFF AND PUSH20 0xFFFFFFFFFFFFFFFFFFFFFFFFFFFFFFFFFFFFFFFF AND DUP2 MSTORE PUSH1 0x20 ADD SWAP1 DUP2 MSTORE PUSH1 0x20 ADD PUSH1 0x0 KECCAK256 DUP2 SWAP1 SSTORE POP DUP1 DUP1 PUSH2 0x6FF SWAP1 PUSH2 0xEB6 JUMP JUMPDEST SWAP2 POP POP PUSH2 0x665 JUMP JUMPDEST POP PUSH1 0x0 PUSH8 0xFFFFFFFFFFFFFFFF DUP2 GT ISZERO PUSH2 0x723 JUMPI PUSH2 0x722 PUSH2 0xEFE JUMP JUMPDEST JUMPDEST PUSH1 0x40 MLOAD SWAP1 DUP1 DUP3 MSTORE DUP1 PUSH1 0x20 MUL PUSH1 0x20 ADD DUP3 ADD PUSH1 0x40 MSTORE DUP1 ISZERO PUSH2 0x751 JUMPI DUP2 PUSH1 0x20 ADD PUSH1 0x20 DUP3 MUL DUP1 CALLDATASIZE DUP4 CALLDATACOPY DUP1 DUP3 ADD SWAP2 POP POP SWAP1 POP JUMPDEST POP PUSH1 0x1 SWAP1 DUP1 MLOAD SWAP1 PUSH1 0x20 ADD SWAP1 PUSH2 0x767 SWAP3 SWAP2 SWAP1 PUSH2 0xB17 JUMP JUMPDEST POP PUSH1 0x0 PUSH32 0x0 PUSH20 0xFFFFFFFFFFFFFFFFFFFFFFFFFFFFFFFFFFFFFFFF AND SELFBALANCE PUSH1 0x40 MLOAD PUSH2 0x7AE SWAP1 PUSH2 0xF5E JUMP JUMPDEST PUSH1 0x0 PUSH1 0x40 MLOAD DUP1 DUP4 SUB DUP2 DUP6 DUP8 GAS CALL SWAP3 POP POP POP RETURNDATASIZE DUP1 PUSH1 0x0 DUP2 EQ PUSH2 0x7EB JUMPI PUSH1 0x40 MLOAD SWAP2 POP PUSH1 0x1F NOT PUSH1 0x3F RETURNDATASIZE ADD AND DUP3 ADD PUSH1 0x40 MSTORE RETURNDATASIZE DUP3 MSTORE RETURNDATASIZE PUSH1 0x0 PUSH1 0x20 DUP5 ADD RETURNDATACOPY PUSH2 0x7F0 JUMP JUMPDEST PUSH1 0x60 SWAP2 POP JUMPDEST POP POP SWAP1 POP DUP1 PUSH2 0x82B JUMPI PUSH1 0x40 MLOAD PUSH32 0x67B2CD0500000000000000000000000000000000000000000000000000000000 DUP2 MSTORE PUSH1 0x4 ADD PUSH1 0x40 MLOAD DUP1 SWAP2 SUB SWAP1 REVERT JUMPDEST POP JUMP JUMPDEST PUSH1 0x0 PUSH1 0x20 MSTORE DUP1 PUSH1 0x0 MSTORE PUSH1 0x40 PUSH1 0x0 KECCAK256 PUSH1 0x0 SWAP2 POP SWAP1 POP SLOAD DUP2 JUMP JUMPDEST PUSH32 0x0 DUP2 JUMP JUMPDEST PUSH1 0x3 PUSH1 0x20 MSTORE DUP1 PUSH1 0x0 MSTORE PUSH1 0x40 PUSH1 0x0 KECCAK256 PUSH1 0x0 SWAP2 POP SLOAD SWAP1 PUSH2 0x100 EXP SWAP1 DIV PUSH1 0xFF AND DUP2 JUMP JUMPDEST PUSH1 0x0 DUP1 PUSH1 0x0 JUMPDEST PUSH1 0x1 DUP1 SLOAD SWAP1 POP DUP2 LT ISZERO PUSH2 0x93A JUMPI PUSH1 0x0 DUP1 PUSH1 0x1 DUP4 DUP2 SLOAD DUP2 LT PUSH2 0x8B4 JUMPI PUSH2 0x8B3 PUSH2 0xE87 JUMP JUMPDEST JUMPDEST SWAP1 PUSH1 0x0 MSTORE PUSH1 0x20 PUSH1 0x0 KECCAK256 ADD PUSH1 0x0 SWAP1 SLOAD SWAP1 PUSH2 0x100 EXP SWAP1 DIV PUSH20 0xFFFFFFFFFFFFFFFFFFFFFFFFFFFFFFFFFFFFFFFF AND PUSH20 0xFFFFFFFFFFFFFFFFFFFFFFFFFFFFFFFFFFFFFFFF AND PUSH20 0xFFFFFFFFFFFFFFFFFFFFFFFFFFFFFFFFFFFFFFFF AND DUP2 MSTORE PUSH1 0x20 ADD SWAP1 DUP2 MSTORE PUSH1 0x20 ADD PUSH1 0x0 KECCAK256 SLOAD DUP3 PUSH2 0x925 SWAP2 SWAP1 PUSH2 0xE53 JUMP JUMPDEST SWAP2 POP DUP1 DUP1 PUSH2 0x932 SWAP1 PUSH2 0xEB6 JUMP JUMPDEST SWAP2 POP POP PUSH2 0x890 JUMP JUMPDEST POP PUSH2 0x944 DUP2 PUSH2 0xA48 JUMP JUMPDEST SWAP2 POP POP SWAP1 JUMP JUMPDEST PUSH1 0x4 PUSH1 0x0 SWAP1 SLOAD SWAP1 PUSH2 0x100 EXP SWAP1 DIV PUSH1 0xFF AND DUP2 JUMP JUMPDEST PUSH32 0x0 DUP2 JUMP JUMPDEST PUSH32 0x0 DUP2 JUMP JUMPDEST PUSH1 0x1 DUP2 DUP2 SLOAD DUP2 LT PUSH2 0x9B5 JUMPI PUSH1 0x0 DUP1 REVERT JUMPDEST SWAP1 PUSH1 0x0 MSTORE PUSH1 0x20 PUSH1 0x0 KECCAK256 ADD PUSH1 0x0 SWAP2 POP SLOAD SWAP1 PUSH2 0x100 EXP SWAP1 DIV PUSH20 0xFFFFFFFFFFFFFFFFFFFFFFFFFFFFFFFFFFFFFFFF AND DUP2 JUMP JUMPDEST PUSH1 0x0 PUSH32 0x0 TIMESTAMP LT PUSH2 0xA16 JUMPI PUSH1 0x0 SWAP1 POP PUSH2 0xA45 JUMP JUMPDEST TIMESTAMP PUSH32 0x0 PUSH2 0xA42 SWAP2 SWAP1 PUSH2 0xF73 JUMP JUMPDEST SWAP1 POP JUMPDEST SWAP1 JUMP JUMPDEST PUSH1 0x0 DUP1 PUSH20 0x694AA1769357215DE4FAC081BF1F309ADC325306 SWAP1 POP PUSH1 0x0 DUP2 PUSH20 0xFFFFFFFFFFFFFFFFFFFFFFFFFFFFFFFFFFFFFFFF AND PUSH4 0xFEAF968C PUSH1 0x40 MLOAD DUP2 PUSH4 0xFFFFFFFF AND PUSH1 0xE0 SHL DUP2 MSTORE PUSH1 0x4 ADD PUSH1 0xA0 PUSH1 0x40 MLOAD DUP1 DUP4 SUB DUP2 DUP7 GAS STATICCALL ISZERO DUP1 ISZERO PUSH2 0xAAF JUMPI RETURNDATASIZE PUSH1 0x0 DUP1 RETURNDATACOPY RETURNDATASIZE PUSH1 0x0 REVERT JUMPDEST POP POP POP POP PUSH1 0x40 MLOAD RETURNDATASIZE PUSH1 0x1F NOT PUSH1 0x1F DUP3 ADD AND DUP3 ADD DUP1 PUSH1 0x40 MSTORE POP DUP2 ADD SWAP1 PUSH2 0xAD3 SWAP2 SWAP1 PUSH2 0x1034 JUMP JUMPDEST POP POP POP SWAP2 POP POP PUSH1 0x0 PUSH5 0x2540BE400 DUP3 PUSH2 0xAEC SWAP2 SWAP1 PUSH2 0x10AF JUMP JUMPDEST SWAP1 POP PUSH8 0xDE0B6B3A7640000 DUP6 DUP3 PUSH2 0xB03 SWAP2 SWAP1 PUSH2 0x1127 JUMP JUMPDEST PUSH2 0xB0D SWAP2 SWAP1 PUSH2 0x1198 JUMP JUMPDEST SWAP4 POP POP POP POP SWAP2 SWAP1 POP JUMP JUMPDEST DUP3 DUP1 SLOAD DUP3 DUP3 SSTORE SWAP1 PUSH1 0x0 MSTORE PUSH1 0x20 PUSH1 0x0 KECCAK256 SWAP1 DUP2 ADD SWAP3 DUP3 ISZERO PUSH2 0xB90 JUMPI SWAP2 PUSH1 0x20 MUL DUP3 ADD JUMPDEST DUP3 DUP2 GT ISZERO PUSH2 0xB8F JUMPI DUP3 MLOAD DUP3 PUSH1 0x0 PUSH2 0x100 EXP DUP2 SLOAD DUP2 PUSH20 0xFFFFFFFFFFFFFFFFFFFFFFFFFFFFFFFFFFFFFFFF MUL NOT AND SWAP1 DUP4 PUSH20 0xFFFFFFFFFFFFFFFFFFFFFFFFFFFFFFFFFFFFFFFF AND MUL OR SWAP1 SSTORE POP SWAP2 PUSH1 0x20 ADD SWAP2 SWAP1 PUSH1 0x1 ADD SWAP1 PUSH2 0xB37 JUMP JUMPDEST JUMPDEST POP SWAP1 POP PUSH2 0xB9D SWAP2 SWAP1 PUSH2 0xBA1 JUMP JUMPDEST POP SWAP1 JUMP JUMPDEST JUMPDEST DUP1 DUP3 GT ISZERO PUSH2 0xBBA JUMPI PUSH1 0x0 DUP2 PUSH1 0x0 SWAP1 SSTORE POP PUSH1 0x1 ADD PUSH2 0xBA2 JUMP JUMPDEST POP SWAP1 JUMP JUMPDEST PUSH1 0x0 DUP2 SWAP1 POP SWAP2 SWAP1 POP JUMP JUMPDEST PUSH2 0xBD1 DUP2 PUSH2 0xBBE JUMP JUMPDEST DUP3 MSTORE POP POP JUMP JUMPDEST PUSH1 0x0 PUSH1 0x20 DUP3 ADD SWAP1 POP PUSH2 0xBEC PUSH1 0x0 DUP4 ADD DUP5 PUSH2 0xBC8 JUMP JUMPDEST SWAP3 SWAP2 POP POP JUMP JUMPDEST PUSH1 0x0 DUP1 REVERT JUMPDEST PUSH1 0x0 PUSH20 0xFFFFFFFFFFFFFFFFFFFFFFFFFFFFFFFFFFFFFFFF DUP3 AND SWAP1 POP SWAP2 SWAP1 POP JUMP JUMPDEST PUSH1 0x0 PUSH2 0xC22 DUP3 PUSH2 0xBF7 JUMP JUMPDEST SWAP1 POP SWAP2 SWAP1 POP JUMP JUMPDEST PUSH2 0xC32 DUP2 PUSH2 0xC17 JUMP JUMPDEST DUP2 EQ PUSH2 0xC3D JUMPI PUSH1 0x0 DUP1 REVERT JUMPDEST POP JUMP JUMPDEST PUSH1 0x0 DUP2 CALLDATALOAD SWAP1 POP PUSH2 0xC4F DUP2 PUSH2 0xC29 JUMP JUMPDEST SWAP3 SWAP2 POP POP JUMP JUMPDEST PUSH1 0x0 PUSH1 0x20 DUP3 DUP5 SUB SLT ISZERO PUSH2 0xC6B JUMPI PUSH2 0xC6A PUSH2 0xBF2 JUMP JUMPDEST JUMPDEST PUSH1 0x0 PUSH2 0xC79 DUP5 DUP3 DUP6 ADD PUSH2 0xC40 JUMP JUMPDEST SWAP2 POP POP SWAP3 SWAP2 POP POP JUMP JUMPDEST PUSH1 0x0 DUP2 ISZERO ISZERO SWAP1 POP SWAP2 SWAP1 POP JUMP JUMPDEST PUSH2 0xC97 DUP2 PUSH2 0xC82 JUMP JUMPDEST DUP3 MSTORE POP POP JUMP JUMPDEST PUSH1 0x0 PUSH1 0x20 DUP3 ADD SWAP1 POP PUSH2 0xCB2 PUSH1 0x0 DUP4 ADD DUP5 PUSH2 0xC8E JUMP JUMPDEST SWAP3 SWAP2 POP POP JUMP JUMPDEST PUSH2 0xCC1 DUP2 PUSH2 0xC17 JUMP JUMPDEST DUP3 MSTORE POP POP JUMP JUMPDEST PUSH1 0x0 PUSH1 0x20 DUP3 ADD SWAP1 POP PUSH2 0xCDC PUSH1 0x0 DUP4 ADD DUP5 PUSH2 0xCB8 JUMP JUMPDEST SWAP3 SWAP2 POP POP JUMP JUMPDEST PUSH2 0xCEB DUP2 PUSH2 0xBBE JUMP JUMPDEST DUP2 EQ PUSH2 0xCF6 JUMPI PUSH1 0x0 DUP1 REVERT JUMPDEST POP JUMP JUMPDEST PUSH1 0x0 DUP2 CALLDATALOAD SWAP1 POP PUSH2 0xD08 DUP2 PUSH2 0xCE2 JUMP JUMPDEST SWAP3 SWAP2 POP POP JUMP JUMPDEST PUSH1 0x0 PUSH1 0x20 DUP3 DUP5 SUB SLT ISZERO PUSH2 0xD24 JUMPI PUSH2 0xD23 PUSH2 0xBF2 JUMP JUMPDEST JUMPDEST PUSH1 0x0 PUSH2 0xD32 DUP5 DUP3 DUP6 ADD PUSH2 0xCF9 JUMP JUMPDEST SWAP2 POP POP SWAP3 SWAP2 POP POP JUMP JUMPDEST PUSH1 0x0 DUP3 DUP3 MSTORE PUSH1 0x20 DUP3 ADD SWAP1 POP SWAP3 SWAP2 POP POP JUMP JUMPDEST PUSH32 0x43726F776466756E643A2050726F6A65637420656E6465640000000000000000 PUSH1 0x0 DUP3 ADD MSTORE POP JUMP JUMPDEST PUSH1 0x0 PUSH2 0xD82 PUSH1 0x18 DUP4 PUSH2 0xD3B JUMP JUMPDEST SWAP2 POP PUSH2 0xD8D DUP3 PUSH2 0xD4C JUMP JUMPDEST PUSH1 0x20 DUP3 ADD SWAP1 POP SWAP2 SWAP1 POP JUMP JUMPDEST PUSH1 0x0 PUSH1 0x20 DUP3 ADD SWAP1 POP DUP2 DUP2 SUB PUSH1 0x0 DUP4 ADD MSTORE PUSH2 0xDB1 DUP2 PUSH2 0xD75 JUMP JUMPDEST SWAP1 POP SWAP2 SWAP1 POP JUMP JUMPDEST PUSH32 0x43726F776466756E643A20476F616C20616C7265616479207265616368656400 PUSH1 0x0 DUP3 ADD MSTORE POP JUMP JUMPDEST PUSH1 0x0 PUSH2 0xDEE PUSH1 0x1F DUP4 PUSH2 0xD3B JUMP JUMPDEST SWAP2 POP PUSH2 0xDF9 DUP3 PUSH2 0xDB8 JUMP JUMPDEST PUSH1 0x20 DUP3 ADD SWAP1 POP SWAP2 SWAP1 POP JUMP JUMPDEST PUSH1 0x0 PUSH1 0x20 DUP3 ADD SWAP1 POP DUP2 DUP2 SUB PUSH1 0x0 DUP4 ADD MSTORE PUSH2 0xE1D DUP2 PUSH2 0xDE1 JUMP JUMPDEST SWAP1 POP SWAP2 SWAP1 POP JUMP JUMPDEST PUSH32 0x4E487B7100000000000000000000000000000000000000000000000000000000 PUSH1 0x0 MSTORE PUSH1 0x11 PUSH1 0x4 MSTORE PUSH1 0x24 PUSH1 0x0 REVERT JUMPDEST PUSH1 0x0 PUSH2 0xE5E DUP3 PUSH2 0xBBE JUMP JUMPDEST SWAP2 POP PUSH2 0xE69 DUP4 PUSH2 0xBBE JUMP JUMPDEST SWAP3 POP DUP3 DUP3 ADD SWAP1 POP DUP1 DUP3 GT ISZERO PUSH2 0xE81 JUMPI PUSH2 0xE80 PUSH2 0xE24 JUMP JUMPDEST JUMPDEST SWAP3 SWAP2 POP POP JUMP JUMPDEST PUSH32 0x4E487B7100000000000000000000000000000000000000000000000000000000 PUSH1 0x0 MSTORE PUSH1 0x32 PUSH1 0x4 MSTORE PUSH1 0x24 PUSH1 0x0 REVERT JUMPDEST PUSH1 0x0 PUSH2 0xEC1 DUP3 PUSH2 0xBBE JUMP JUMPDEST SWAP2 POP PUSH32 0xFFFFFFFFFFFFFFFFFFFFFFFFFFFFFFFFFFFFFFFFFFFFFFFFFFFFFFFFFFFFFFFF DUP3 SUB PUSH2 0xEF3 JUMPI PUSH2 0xEF2 PUSH2 0xE24 JUMP JUMPDEST JUMPDEST PUSH1 0x1 DUP3 ADD SWAP1 POP SWAP2 SWAP1 POP JUMP JUMPDEST PUSH32 0x4E487B7100000000000000000000000000000000000000000000000000000000 PUSH1 0x0 MSTORE PUSH1 0x41 PUSH1 0x4 MSTORE PUSH1 0x24 PUSH1 0x0 REVERT JUMPDEST PUSH1 0x0 DUP2 SWAP1 POP SWAP3 SWAP2 POP POP JUMP JUMPDEST POP JUMP JUMPDEST PUSH1 0x0 PUSH2 0xF48 PUSH1 0x0 DUP4 PUSH2 0xF2D JUMP JUMPDEST SWAP2 POP PUSH2 0xF53 DUP3 PUSH2 0xF38 JUMP JUMPDEST PUSH1 0x0 DUP3 ADD SWAP1 POP SWAP2 SWAP1 POP JUMP JUMPDEST PUSH1 0x0 PUSH2 0xF69 DUP3 PUSH2 0xF3B JUMP JUMPDEST SWAP2 POP DUP2 SWAP1 POP SWAP2 SWAP1 POP JUMP JUMPDEST PUSH1 0x0 PUSH2 0xF7E DUP3 PUSH2 0xBBE JUMP JUMPDEST SWAP2 POP PUSH2 0xF89 DUP4 PUSH2 0xBBE JUMP JUMPDEST SWAP3 POP DUP3 DUP3 SUB SWAP1 POP DUP2 DUP2 GT ISZERO PUSH2 0xFA1 JUMPI PUSH2 0xFA0 PUSH2 0xE24 JUMP JUMPDEST JUMPDEST SWAP3 SWAP2 POP POP JUMP JUMPDEST PUSH1 0x0 PUSH10 0xFFFFFFFFFFFFFFFFFFFF DUP3 AND SWAP1 POP SWAP2 SWAP1 POP JUMP JUMPDEST PUSH2 0xFC6 DUP2 PUSH2 0xFA7 JUMP JUMPDEST DUP2 EQ PUSH2 0xFD1 JUMPI PUSH1 0x0 DUP1 REVERT JUMPDEST POP JUMP JUMPDEST PUSH1 0x0 DUP2 MLOAD SWAP1 POP PUSH2 0xFE3 DUP2 PUSH2 0xFBD JUMP JUMPDEST SWAP3 SWAP2 POP POP JUMP JUMPDEST PUSH1 0x0 DUP2 SWAP1 POP SWAP2 SWAP1 POP JUMP JUMPDEST PUSH2 0xFFC DUP2 PUSH2 0xFE9 JUMP JUMPDEST DUP2 EQ PUSH2 0x1007 JUMPI PUSH1 0x0 DUP1 REVERT JUMPDEST POP JUMP JUMPDEST PUSH1 0x0 DUP2 MLOAD SWAP1 POP PUSH2 0x1019 DUP2 PUSH2 0xFF3 JUMP JUMPDEST SWAP3 SWAP2 POP POP JUMP JUMPDEST PUSH1 0x0 DUP2 MLOAD SWAP1 POP PUSH2 0x102E DUP2 PUSH2 0xCE2 JUMP JUMPDEST SWAP3 SWAP2 POP POP JUMP JUMPDEST PUSH1 0x0 DUP1 PUSH1 0x0 DUP1 PUSH1 0x0 PUSH1 0xA0 DUP7 DUP9 SUB SLT ISZERO PUSH2 0x1050 JUMPI PUSH2 0x104F PUSH2 0xBF2 JUMP JUMPDEST JUMPDEST PUSH1 0x0 PUSH2 0x105E DUP9 DUP3 DUP10 ADD PUSH2 0xFD4 JUMP JUMPDEST SWAP6 POP POP PUSH1 0x20 PUSH2 0x106F DUP9 DUP3 DUP10 ADD PUSH2 0x100A JUMP JUMPDEST SWAP5 POP POP PUSH1 0x40 PUSH2 0x1080 DUP9 DUP3 DUP10 ADD PUSH2 0x101F JUMP JUMPDEST SWAP4 POP POP PUSH1 0x60 PUSH2 0x1091 DUP9 DUP3 DUP10 ADD PUSH2 0x101F JUMP JUMPDEST SWAP3 POP POP PUSH1 0x80 PUSH2 0x10A2 DUP9 DUP3 DUP10 ADD PUSH2 0xFD4 JUMP JUMPDEST SWAP2 POP POP SWAP3 SWAP6 POP SWAP3 SWAP6 SWAP1 SWAP4 POP JUMP JUMPDEST PUSH1 0x0 PUSH2 0x10BA DUP3 PUSH2 0xFE9 JUMP JUMPDEST SWAP2 POP PUSH2 0x10C5 DUP4 PUSH2 0xFE9 JUMP JUMPDEST SWAP3 POP DUP3 DUP3 MUL PUSH2 0x10D3 DUP2 PUSH2 0xFE9 JUMP JUMPDEST SWAP2 POP PUSH32 0x8000000000000000000000000000000000000000000000000000000000000000 DUP5 EQ PUSH1 0x0 DUP5 SLT AND ISZERO PUSH2 0x110B JUMPI PUSH2 0x110A PUSH2 0xE24 JUMP JUMPDEST JUMPDEST DUP3 DUP3 SDIV DUP5 EQ DUP4 ISZERO OR PUSH2 0x1120 JUMPI PUSH2 0x111F PUSH2 0xE24 JUMP JUMPDEST JUMPDEST POP SWAP3 SWAP2 POP POP JUMP JUMPDEST PUSH1 0x0 PUSH2 0x1132 DUP3 PUSH2 0xBBE JUMP JUMPDEST SWAP2 POP PUSH2 0x113D DUP4 PUSH2 0xBBE JUMP JUMPDEST SWAP3 POP DUP3 DUP3 MUL PUSH2 0x114B DUP2 PUSH2 0xBBE JUMP JUMPDEST SWAP2 POP DUP3 DUP3 DIV DUP5 EQ DUP4 ISZERO OR PUSH2 0x1162 JUMPI PUSH2 0x1161 PUSH2 0xE24 JUMP JUMPDEST JUMPDEST POP SWAP3 SWAP2 POP POP JUMP JUMPDEST PUSH32 0x4E487B7100000000000000000000000000000000000000000000000000000000 PUSH1 0x0 MSTORE PUSH1 0x12 PUSH1 0x4 MSTORE PUSH1 0x24 PUSH1 0x0 REVERT JUMPDEST PUSH1 0x0 PUSH2 0x11A3 DUP3 PUSH2 0xBBE JUMP JUMPDEST SWAP2 POP PUSH2 0x11AE DUP4 PUSH2 0xBBE JUMP JUMPDEST SWAP3 POP DUP3 PUSH2 0x11BE JUMPI PUSH2 0x11BD PUSH2 0x1169 JUMP JUMPDEST JUMPDEST DUP3 DUP3 DIV SWAP1 POP SWAP3 SWAP2 POP POP JUMP INVALID LOG2 PUSH5 0x6970667358 0x22 SLT KECCAK256 0xBF 0xD8 SWAP4 SELFBALANCE 0x2F SWAP13 DUP4 INVALID 0xAD GAS DUP4 ADD CODESIZE NOT 0x23 CODESIZE PUSH22 0x6A5D5C830ADD2490D3BE5B1436CEF764736F6C634300 ADDMOD SLT STOP CALLER "
				},
				"gasEstimates": {
					"creation": {
						"codeDepositCost": "921400",
						"executionCost": "infinite",
						"totalCost": "infinite"
					},
					"external": {
						"": "infinite",
						"addressToAmountFunded(address)": "2859",
						"fund()": "infinite",
						"funders(uint256)": "5044",
						"getRemainingTime()": "infinite",
						"getTotalRaisedInUsd()": "infinite",
						"goalReached()": "2471",
						"hasFunded(address)": "2934",
						"i_deadline()": "infinite",
						"i_goal()": "infinite",
						"i_owner()": "infinite",
						"totalAmount()": "2430",
						"withdraw()": "infinite"
					}
				},
				"methodIdentifiers": {
					"addressToAmountFunded(address)": "3e47d6f3",
					"fund()": "b60d4288",
					"funders(uint256)": "dc0d3dff",
					"getRemainingTime()": "efb98bcf",
					"getTotalRaisedInUsd()": "769d3c98",
					"goalReached()": "7d3d6522",
					"hasFunded(address)": "61dba32a",
					"i_deadline()": "4628ac39",
					"i_goal()": "a67e30cb",
					"i_owner()": "dba6335f",
					"totalAmount()": "1a39d8ef",
					"withdraw()": "3ccfd60b"
				}
			},
			"storageLayout": {
				"storage": [
					{
						"astId": 68,
						"contract": "remix-fundme/CryptoCrowdfund.sol:CryptoCrowdfund",
						"label": "addressToAmountFunded",
						"offset": 0,
						"slot": "0",
						"type": "t_mapping(t_address,t_uint256)"
					},
					{
						"astId": 71,
						"contract": "remix-fundme/CryptoCrowdfund.sol:CryptoCrowdfund",
						"label": "funders",
						"offset": 0,
						"slot": "1",
						"type": "t_array(t_address)dyn_storage"
					},
					{
						"astId": 73,
						"contract": "remix-fundme/CryptoCrowdfund.sol:CryptoCrowdfund",
						"label": "totalAmount",
						"offset": 0,
						"slot": "2",
						"type": "t_uint256"
					},
					{
						"astId": 77,
						"contract": "remix-fundme/CryptoCrowdfund.sol:CryptoCrowdfund",
						"label": "hasFunded",
						"offset": 0,
						"slot": "3",
						"type": "t_mapping(t_address,t_bool)"
					},
					{
						"astId": 79,
						"contract": "remix-fundme/CryptoCrowdfund.sol:CryptoCrowdfund",
						"label": "goalReached",
						"offset": 0,
						"slot": "4",
						"type": "t_bool"
					}
				],
				"types": {
					"t_address": {
						"encoding": "inplace",
						"label": "address",
						"numberOfBytes": "20"
					},
					"t_array(t_address)dyn_storage": {
						"base": "t_address",
						"encoding": "dynamic_array",
						"label": "address[]",
						"numberOfBytes": "32"
					},
					"t_bool": {
						"encoding": "inplace",
						"label": "bool",
						"numberOfBytes": "1"
					},
					"t_mapping(t_address,t_bool)": {
						"encoding": "mapping",
						"key": "t_address",
						"label": "mapping(address => bool)",
						"numberOfBytes": "32",
						"value": "t_bool"
					},
					"t_mapping(t_address,t_uint256)": {
						"encoding": "mapping",
						"key": "t_address",
						"label": "mapping(address => uint256)",
						"numberOfBytes": "32",
						"value": "t_uint256"
					},
					"t_uint256": {
						"encoding": "inplace",
						"label": "uint256",
						"numberOfBytes": "32"
					}
				}
			},
			"userdoc": {
				"kind": "user",
				"methods": {},
				"version": 1
			}
		}
	}
}