{
	"SimpleStorage.sol": {
		"SimpleStorage": {
			"abi": [
				{
					"inputs": [],
					"name": "favoriteNumber",
					"outputs": [
						{
							"internalType": "uint256",
							"name": "",
							"type": "uint256"
						}
					],
					"stateMutability": "view",
					"type": "function"
				},
				{
					"inputs": [],
					"name": "s1",
					"outputs": [
						{
							"internalType": "string",
							"name": "",
							"type": "string"
						}
					],
					"stateMutability": "view",
					"type": "function"
				},
				{
					"inputs": [],
					"name": "s2",
					"outputs": [
						{
							"internalType": "bytes32",
							"name": "",
							"type": "bytes32"
						}
					],
					"stateMutability": "view",
					"type": "function"
				},
				{
					"inputs": [
						{
							"internalType": "uint256",
							"name": "_newNumber",
							"type": "uint256"
						}
					],
					"name": "store",
					"outputs": [],
					"stateMutability": "nonpayable",
					"type": "function"
				},
				{
					"inputs": [
						{
							"internalType": "bytes32",
							"name": "_s2",
							"type": "bytes32"
						}
					],
					"name": "storeBytes32",
					"outputs": [],
					"stateMutability": "nonpayable",
					"type": "function"
				},
				{
					"inputs": [
						{
							"internalType": "string",
							"name": "_s1",
							"type": "string"
						}
					],
					"name": "storeString",
					"outputs": [],
					"stateMutability": "nonpayable",
					"type": "function"
				}
			],
			"devdoc": {
				"kind": "dev",
				"methods": {},
				"version": 1
			},
			"evm": {
				"assembly": "    /* \"SimpleStorage.sol\":167:751  contract SimpleStorage{... */\n  mstore(0x40, 0x80)\n  callvalue\n  dup1\n  iszero\n  tag_1\n  jumpi\n  0x00\n  dup1\n  revert\ntag_1:\n  pop\n  dataSize(sub_0)\n  dup1\n  dataOffset(sub_0)\n  0x00\n  codecopy\n  0x00\n  return\nstop\n\nsub_0: assembly {\n        /* \"SimpleStorage.sol\":167:751  contract SimpleStorage{... */\n      mstore(0x40, 0x80)\n      callvalue\n      dup1\n      iszero\n      tag_1\n      jumpi\n      0x00\n      dup1\n      revert\n    tag_1:\n      pop\n      jumpi(tag_2, lt(calldatasize, 0x04))\n      shr(0xe0, calldataload(0x00))\n      dup1\n      0x0a27f951\n      eq\n      tag_3\n      jumpi\n      dup1\n      0x1bb8305d\n      eq\n      tag_4\n      jumpi\n      dup1\n      0x471f7cdf\n      eq\n      tag_5\n      jumpi\n      dup1\n      0x6057361d\n      eq\n      tag_6\n      jumpi\n      dup1\n      0x6cc014de\n      eq\n      tag_7\n      jumpi\n      dup1\n      0xa314150f\n      eq\n      tag_8\n      jumpi\n    tag_2:\n      0x00\n      dup1\n      revert\n        /* \"SimpleStorage.sol\":681:748  function storeBytes32(bytes32 _s2) public {... */\n    tag_3:\n      tag_9\n      0x04\n      dup1\n      calldatasize\n      sub\n      dup2\n      add\n      swap1\n      tag_10\n      swap2\n      swap1\n      tag_11\n      jump\t// in\n    tag_10:\n      tag_12\n      jump\t// in\n    tag_9:\n      stop\n        /* \"SimpleStorage.sol\":603:675  function storeString(string memory _s1) public {... */\n    tag_4:\n      tag_13\n      0x04\n      dup1\n      calldatasize\n      sub\n      dup2\n      add\n      swap1\n      tag_14\n      swap2\n      swap1\n      tag_15\n      jump\t// in\n    tag_14:\n      tag_16\n      jump\t// in\n    tag_13:\n      stop\n        /* \"SimpleStorage.sol\":378:408  uint256  public favoriteNumber */\n    tag_5:\n      tag_17\n      tag_18\n      jump\t// in\n    tag_17:\n      mload(0x40)\n      tag_19\n      swap2\n      swap1\n      tag_20\n      jump\t// in\n    tag_19:\n      mload(0x40)\n      dup1\n      swap2\n      sub\n      swap1\n      return\n        /* \"SimpleStorage.sol\":483:597  function store(uint256 _newNumber) public {//存储函数... */\n    tag_6:\n      tag_21\n      0x04\n      dup1\n      calldatasize\n      sub\n      dup2\n      add\n      swap1\n      tag_22\n      swap2\n      swap1\n      tag_23\n      jump\t// in\n    tag_22:\n      tag_24\n      jump\t// in\n    tag_21:\n      stop\n        /* \"SimpleStorage.sol\":434:450  string public s1 */\n    tag_7:\n      tag_25\n      tag_26\n      jump\t// in\n    tag_25:\n      mload(0x40)\n      tag_27\n      swap2\n      swap1\n      tag_28\n      jump\t// in\n    tag_27:\n      mload(0x40)\n      dup1\n      swap2\n      sub\n      swap1\n      return\n        /* \"SimpleStorage.sol\":457:475  bytes32 public  s2 */\n    tag_8:\n      tag_29\n      tag_30\n      jump\t// in\n    tag_29:\n      mload(0x40)\n      tag_31\n      swap2\n      swap1\n      tag_32\n      jump\t// in\n    tag_31:\n      mload(0x40)\n      dup1\n      swap2\n      sub\n      swap1\n      return\n        /* \"SimpleStorage.sol\":681:748  function storeBytes32(bytes32 _s2) public {... */\n    tag_12:\n        /* \"SimpleStorage.sol\":738:741  _s2 */\n      dup1\n        /* \"SimpleStorage.sol\":733:735  s2 */\n      0x02\n        /* \"SimpleStorage.sol\":733:741  s2 = _s2 */\n      dup2\n      swap1\n      sstore\n      pop\n        /* \"SimpleStorage.sol\":681:748  function storeBytes32(bytes32 _s2) public {... */\n      pop\n      jump\t// out\n        /* \"SimpleStorage.sol\":603:675  function storeString(string memory _s1) public {... */\n    tag_16:\n        /* \"SimpleStorage.sol\":665:668  _s1 */\n      dup1\n        /* \"SimpleStorage.sol\":660:662  s1 */\n      0x01\n        /* \"SimpleStorage.sol\":660:668  s1 = _s1 */\n      swap1\n      dup2\n      tag_35\n      swap2\n      swap1\n      tag_36\n      jump\t// in\n    tag_35:\n      pop\n        /* \"SimpleStorage.sol\":603:675  function storeString(string memory _s1) public {... */\n      pop\n      jump\t// out\n        /* \"SimpleStorage.sol\":378:408  uint256  public favoriteNumber */\n    tag_18:\n      sload(0x00)\n      dup2\n      jump\t// out\n        /* \"SimpleStorage.sol\":483:597  function store(uint256 _newNumber) public {//存储函数... */\n    tag_24:\n        /* \"SimpleStorage.sol\":566:576  _newNumber */\n      dup1\n        /* \"SimpleStorage.sol\":549:563  favoriteNumber */\n      0x00\n        /* \"SimpleStorage.sol\":549:576  favoriteNumber = _newNumber */\n      dup2\n      swap1\n      sstore\n      pop\n        /* \"SimpleStorage.sol\":483:597  function store(uint256 _newNumber) public {//存储函数... */\n      pop\n      jump\t// out\n        /* \"SimpleStorage.sol\":434:450  string public s1 */\n    tag_26:\n      0x01\n      dup1\n      sload\n      tag_38\n      swap1\n      tag_39\n      jump\t// in\n    tag_38:\n      dup1\n      0x1f\n      add\n      0x20\n      dup1\n      swap2\n      div\n      mul\n      0x20\n      add\n      mload(0x40)\n      swap1\n      dup2\n      add\n      0x40\n      mstore\n      dup1\n      swap3\n      swap2\n      swap1\n      dup2\n      dup2\n      mstore\n      0x20\n      add\n      dup3\n      dup1\n      sload\n      tag_40\n      swap1\n      tag_39\n      jump\t// in\n    tag_40:\n      dup1\n      iszero\n      tag_41\n      jumpi\n      dup1\n      0x1f\n      lt\n      tag_42\n      jumpi\n      0x0100\n      dup1\n      dup4\n      sload\n      div\n      mul\n      dup4\n      mstore\n      swap2\n      0x20\n      add\n      swap2\n      jump(tag_41)\n    tag_42:\n      dup3\n      add\n      swap2\n      swap1\n      0x00\n      mstore\n      keccak256(0x00, 0x20)\n      swap1\n    tag_43:\n      dup2\n      sload\n      dup2\n      mstore\n      swap1\n      0x01\n      add\n      swap1\n      0x20\n      add\n      dup1\n      dup4\n      gt\n      tag_43\n      jumpi\n      dup3\n      swap1\n      sub\n      0x1f\n      and\n      dup3\n      add\n      swap2\n    tag_41:\n      pop\n      pop\n      pop\n      pop\n      pop\n      dup2\n      jump\t// out\n        /* \"SimpleStorage.sol\":457:475  bytes32 public  s2 */\n    tag_30:\n      sload(0x02)\n      dup2\n      jump\t// out\n        /* \"#utility.yul\":7:82   */\n    tag_44:\n        /* \"#utility.yul\":40:46   */\n      0x00\n        /* \"#utility.yul\":73:75   */\n      0x40\n        /* \"#utility.yul\":67:76   */\n      mload\n        /* \"#utility.yul\":57:76   */\n      swap1\n      pop\n        /* \"#utility.yul\":7:82   */\n      swap1\n      jump\t// out\n        /* \"#utility.yul\":88:205   */\n    tag_45:\n        /* \"#utility.yul\":197:198   */\n      0x00\n        /* \"#utility.yul\":194:195   */\n      dup1\n        /* \"#utility.yul\":187:199   */\n      revert\n        /* \"#utility.yul\":211:328   */\n    tag_46:\n        /* \"#utility.yul\":320:321   */\n      0x00\n        /* \"#utility.yul\":317:318   */\n      dup1\n        /* \"#utility.yul\":310:322   */\n      revert\n        /* \"#utility.yul\":334:411   */\n    tag_47:\n        /* \"#utility.yul\":371:378   */\n      0x00\n        /* \"#utility.yul\":400:405   */\n      dup2\n        /* \"#utility.yul\":389:405   */\n      swap1\n      pop\n        /* \"#utility.yul\":334:411   */\n      swap2\n      swap1\n      pop\n      jump\t// out\n        /* \"#utility.yul\":417:539   */\n    tag_48:\n        /* \"#utility.yul\":490:514   */\n      tag_91\n        /* \"#utility.yul\":508:513   */\n      dup2\n        /* \"#utility.yul\":490:514   */\n      tag_47\n      jump\t// in\n    tag_91:\n        /* \"#utility.yul\":483:488   */\n      dup2\n        /* \"#utility.yul\":480:515   */\n      eq\n        /* \"#utility.yul\":470:533   */\n      tag_92\n      jumpi\n        /* \"#utility.yul\":529:530   */\n      0x00\n        /* \"#utility.yul\":526:527   */\n      dup1\n        /* \"#utility.yul\":519:531   */\n      revert\n        /* \"#utility.yul\":470:533   */\n    tag_92:\n        /* \"#utility.yul\":417:539   */\n      pop\n      jump\t// out\n        /* \"#utility.yul\":545:684   */\n    tag_49:\n        /* \"#utility.yul\":591:596   */\n      0x00\n        /* \"#utility.yul\":629:635   */\n      dup2\n        /* \"#utility.yul\":616:636   */\n      calldataload\n        /* \"#utility.yul\":607:636   */\n      swap1\n      pop\n        /* \"#utility.yul\":645:678   */\n      tag_94\n        /* \"#utility.yul\":672:677   */\n      dup2\n        /* \"#utility.yul\":645:678   */\n      tag_48\n      jump\t// in\n    tag_94:\n        /* \"#utility.yul\":545:684   */\n      swap3\n      swap2\n      pop\n      pop\n      jump\t// out\n        /* \"#utility.yul\":690:1019   */\n    tag_11:\n        /* \"#utility.yul\":749:755   */\n      0x00\n        /* \"#utility.yul\":798:800   */\n      0x20\n        /* \"#utility.yul\":786:795   */\n      dup3\n        /* \"#utility.yul\":777:784   */\n      dup5\n        /* \"#utility.yul\":773:796   */\n      sub\n        /* \"#utility.yul\":769:801   */\n      slt\n        /* \"#utility.yul\":766:885   */\n      iszero\n      tag_96\n      jumpi\n        /* \"#utility.yul\":804:883   */\n      tag_97\n      tag_45\n      jump\t// in\n    tag_97:\n        /* \"#utility.yul\":766:885   */\n    tag_96:\n        /* \"#utility.yul\":924:925   */\n      0x00\n        /* \"#utility.yul\":949:1002   */\n      tag_98\n        /* \"#utility.yul\":994:1001   */\n      dup5\n        /* \"#utility.yul\":985:991   */\n      dup3\n        /* \"#utility.yul\":974:983   */\n      dup6\n        /* \"#utility.yul\":970:992   */\n      add\n        /* \"#utility.yul\":949:1002   */\n      tag_49\n      jump\t// in\n    tag_98:\n        /* \"#utility.yul\":939:1002   */\n      swap2\n      pop\n        /* \"#utility.yul\":895:1012   */\n      pop\n        /* \"#utility.yul\":690:1019   */\n      swap3\n      swap2\n      pop\n      pop\n      jump\t// out\n        /* \"#utility.yul\":1025:1142   */\n    tag_50:\n        /* \"#utility.yul\":1134:1135   */\n      0x00\n        /* \"#utility.yul\":1131:1132   */\n      dup1\n        /* \"#utility.yul\":1124:1136   */\n      revert\n        /* \"#utility.yul\":1148:1265   */\n    tag_51:\n        /* \"#utility.yul\":1257:1258   */\n      0x00\n        /* \"#utility.yul\":1254:1255   */\n      dup1\n        /* \"#utility.yul\":1247:1259   */\n      revert\n        /* \"#utility.yul\":1271:1373   */\n    tag_52:\n        /* \"#utility.yul\":1312:1318   */\n      0x00\n        /* \"#utility.yul\":1363:1365   */\n      0x1f\n        /* \"#utility.yul\":1359:1366   */\n      not\n        /* \"#utility.yul\":1354:1356   */\n      0x1f\n        /* \"#utility.yul\":1347:1352   */\n      dup4\n        /* \"#utility.yul\":1343:1357   */\n      add\n        /* \"#utility.yul\":1339:1367   */\n      and\n        /* \"#utility.yul\":1329:1367   */\n      swap1\n      pop\n        /* \"#utility.yul\":1271:1373   */\n      swap2\n      swap1\n      pop\n      jump\t// out\n        /* \"#utility.yul\":1379:1559   */\n    tag_53:\n        /* \"#utility.yul\":1427:1504   */\n      0x4e487b7100000000000000000000000000000000000000000000000000000000\n        /* \"#utility.yul\":1424:1425   */\n      0x00\n        /* \"#utility.yul\":1417:1505   */\n      mstore\n        /* \"#utility.yul\":1524:1528   */\n      0x41\n        /* \"#utility.yul\":1521:1522   */\n      0x04\n        /* \"#utility.yul\":1514:1529   */\n      mstore\n        /* \"#utility.yul\":1548:1552   */\n      0x24\n        /* \"#utility.yul\":1545:1546   */\n      0x00\n        /* \"#utility.yul\":1538:1553   */\n      revert\n        /* \"#utility.yul\":1565:1846   */\n    tag_54:\n        /* \"#utility.yul\":1648:1675   */\n      tag_104\n        /* \"#utility.yul\":1670:1674   */\n      dup3\n        /* \"#utility.yul\":1648:1675   */\n      tag_52\n      jump\t// in\n    tag_104:\n        /* \"#utility.yul\":1640:1646   */\n      dup2\n        /* \"#utility.yul\":1636:1676   */\n      add\n        /* \"#utility.yul\":1778:1784   */\n      dup2\n        /* \"#utility.yul\":1766:1776   */\n      dup2\n        /* \"#utility.yul\":1763:1785   */\n      lt\n        /* \"#utility.yul\":1742:1760   */\n      0xffffffffffffffff\n        /* \"#utility.yul\":1730:1740   */\n      dup3\n        /* \"#utility.yul\":1727:1761   */\n      gt\n        /* \"#utility.yul\":1724:1786   */\n      or\n        /* \"#utility.yul\":1721:1809   */\n      iszero\n      tag_105\n      jumpi\n        /* \"#utility.yul\":1789:1807   */\n      tag_106\n      tag_53\n      jump\t// in\n    tag_106:\n        /* \"#utility.yul\":1721:1809   */\n    tag_105:\n        /* \"#utility.yul\":1829:1839   */\n      dup1\n        /* \"#utility.yul\":1825:1827   */\n      0x40\n        /* \"#utility.yul\":1818:1840   */\n      mstore\n        /* \"#utility.yul\":1608:1846   */\n      pop\n        /* \"#utility.yul\":1565:1846   */\n      pop\n      pop\n      jump\t// out\n        /* \"#utility.yul\":1852:1981   */\n    tag_55:\n        /* \"#utility.yul\":1886:1892   */\n      0x00\n        /* \"#utility.yul\":1913:1933   */\n      tag_108\n      tag_44\n      jump\t// in\n    tag_108:\n        /* \"#utility.yul\":1903:1933   */\n      swap1\n      pop\n        /* \"#utility.yul\":1942:1975   */\n      tag_109\n        /* \"#utility.yul\":1970:1974   */\n      dup3\n        /* \"#utility.yul\":1962:1968   */\n      dup3\n        /* \"#utility.yul\":1942:1975   */\n      tag_54\n      jump\t// in\n    tag_109:\n        /* \"#utility.yul\":1852:1981   */\n      swap2\n      swap1\n      pop\n      jump\t// out\n        /* \"#utility.yul\":1987:2295   */\n    tag_56:\n        /* \"#utility.yul\":2049:2053   */\n      0x00\n        /* \"#utility.yul\":2139:2157   */\n      0xffffffffffffffff\n        /* \"#utility.yul\":2131:2137   */\n      dup3\n        /* \"#utility.yul\":2128:2158   */\n      gt\n        /* \"#utility.yul\":2125:2181   */\n      iszero\n      tag_111\n      jumpi\n        /* \"#utility.yul\":2161:2179   */\n      tag_112\n      tag_53\n      jump\t// in\n    tag_112:\n        /* \"#utility.yul\":2125:2181   */\n    tag_111:\n        /* \"#utility.yul\":2199:2228   */\n      tag_113\n        /* \"#utility.yul\":2221:2227   */\n      dup3\n        /* \"#utility.yul\":2199:2228   */\n      tag_52\n      jump\t// in\n    tag_113:\n        /* \"#utility.yul\":2191:2228   */\n      swap1\n      pop\n        /* \"#utility.yul\":2283:2287   */\n      0x20\n        /* \"#utility.yul\":2277:2281   */\n      dup2\n        /* \"#utility.yul\":2273:2288   */\n      add\n        /* \"#utility.yul\":2265:2288   */\n      swap1\n      pop\n        /* \"#utility.yul\":1987:2295   */\n      swap2\n      swap1\n      pop\n      jump\t// out\n        /* \"#utility.yul\":2301:2447   */\n    tag_57:\n        /* \"#utility.yul\":2398:2404   */\n      dup3\n        /* \"#utility.yul\":2393:2396   */\n      dup2\n        /* \"#utility.yul\":2388:2391   */\n      dup4\n        /* \"#utility.yul\":2375:2405   */\n      calldatacopy\n        /* \"#utility.yul\":2439:2440   */\n      0x00\n        /* \"#utility.yul\":2430:2436   */\n      dup4\n        /* \"#utility.yul\":2425:2428   */\n      dup4\n        /* \"#utility.yul\":2421:2437   */\n      add\n        /* \"#utility.yul\":2414:2441   */\n      mstore\n        /* \"#utility.yul\":2301:2447   */\n      pop\n      pop\n      pop\n      jump\t// out\n        /* \"#utility.yul\":2453:2878   */\n    tag_58:\n        /* \"#utility.yul\":2531:2536   */\n      0x00\n        /* \"#utility.yul\":2556:2622   */\n      tag_116\n        /* \"#utility.yul\":2572:2621   */\n      tag_117\n        /* \"#utility.yul\":2614:2620   */\n      dup5\n        /* \"#utility.yul\":2572:2621   */\n      tag_56\n      jump\t// in\n    tag_117:\n        /* \"#utility.yul\":2556:2622   */\n      tag_55\n      jump\t// in\n    tag_116:\n        /* \"#utility.yul\":2547:2622   */\n      swap1\n      pop\n        /* \"#utility.yul\":2645:2651   */\n      dup3\n        /* \"#utility.yul\":2638:2643   */\n      dup2\n        /* \"#utility.yul\":2631:2652   */\n      mstore\n        /* \"#utility.yul\":2683:2687   */\n      0x20\n        /* \"#utility.yul\":2676:2681   */\n      dup2\n        /* \"#utility.yul\":2672:2688   */\n      add\n        /* \"#utility.yul\":2721:2724   */\n      dup5\n        /* \"#utility.yul\":2712:2718   */\n      dup5\n        /* \"#utility.yul\":2707:2710   */\n      dup5\n        /* \"#utility.yul\":2703:2719   */\n      add\n        /* \"#utility.yul\":2700:2725   */\n      gt\n        /* \"#utility.yul\":2697:2809   */\n      iszero\n      tag_118\n      jumpi\n        /* \"#utility.yul\":2728:2807   */\n      tag_119\n      tag_51\n      jump\t// in\n    tag_119:\n        /* \"#utility.yul\":2697:2809   */\n    tag_118:\n        /* \"#utility.yul\":2818:2872   */\n      tag_120\n        /* \"#utility.yul\":2865:2871   */\n      dup5\n        /* \"#utility.yul\":2860:2863   */\n      dup3\n        /* \"#utility.yul\":2855:2858   */\n      dup6\n        /* \"#utility.yul\":2818:2872   */\n      tag_57\n      jump\t// in\n    tag_120:\n        /* \"#utility.yul\":2537:2878   */\n      pop\n        /* \"#utility.yul\":2453:2878   */\n      swap4\n      swap3\n      pop\n      pop\n      pop\n      jump\t// out\n        /* \"#utility.yul\":2898:3238   */\n    tag_59:\n        /* \"#utility.yul\":2954:2959   */\n      0x00\n        /* \"#utility.yul\":3003:3006   */\n      dup3\n        /* \"#utility.yul\":2996:3000   */\n      0x1f\n        /* \"#utility.yul\":2988:2994   */\n      dup4\n        /* \"#utility.yul\":2984:3001   */\n      add\n        /* \"#utility.yul\":2980:3007   */\n      slt\n        /* \"#utility.yul\":2970:3092   */\n      tag_122\n      jumpi\n        /* \"#utility.yul\":3011:3090   */\n      tag_123\n      tag_50\n      jump\t// in\n    tag_123:\n        /* \"#utility.yul\":2970:3092   */\n    tag_122:\n        /* \"#utility.yul\":3128:3134   */\n      dup2\n        /* \"#utility.yul\":3115:3135   */\n      calldataload\n        /* \"#utility.yul\":3153:3232   */\n      tag_124\n        /* \"#utility.yul\":3228:3231   */\n      dup5\n        /* \"#utility.yul\":3220:3226   */\n      dup3\n        /* \"#utility.yul\":3213:3217   */\n      0x20\n        /* \"#utility.yul\":3205:3211   */\n      dup7\n        /* \"#utility.yul\":3201:3218   */\n      add\n        /* \"#utility.yul\":3153:3232   */\n      tag_58\n      jump\t// in\n    tag_124:\n        /* \"#utility.yul\":3144:3232   */\n      swap2\n      pop\n        /* \"#utility.yul\":2960:3238   */\n      pop\n        /* \"#utility.yul\":2898:3238   */\n      swap3\n      swap2\n      pop\n      pop\n      jump\t// out\n        /* \"#utility.yul\":3244:3753   */\n    tag_15:\n        /* \"#utility.yul\":3313:3319   */\n      0x00\n        /* \"#utility.yul\":3362:3364   */\n      0x20\n        /* \"#utility.yul\":3350:3359   */\n      dup3\n        /* \"#utility.yul\":3341:3348   */\n      dup5\n        /* \"#utility.yul\":3337:3360   */\n      sub\n        /* \"#utility.yul\":3333:3365   */\n      slt\n        /* \"#utility.yul\":3330:3449   */\n      iszero\n      tag_126\n      jumpi\n        /* \"#utility.yul\":3368:3447   */\n      tag_127\n      tag_45\n      jump\t// in\n    tag_127:\n        /* \"#utility.yul\":3330:3449   */\n    tag_126:\n        /* \"#utility.yul\":3516:3517   */\n      0x00\n        /* \"#utility.yul\":3505:3514   */\n      dup3\n        /* \"#utility.yul\":3501:3518   */\n      add\n        /* \"#utility.yul\":3488:3519   */\n      calldataload\n        /* \"#utility.yul\":3546:3564   */\n      0xffffffffffffffff\n        /* \"#utility.yul\":3538:3544   */\n      dup2\n        /* \"#utility.yul\":3535:3565   */\n      gt\n        /* \"#utility.yul\":3532:3649   */\n      iszero\n      tag_128\n      jumpi\n        /* \"#utility.yul\":3568:3647   */\n      tag_129\n      tag_46\n      jump\t// in\n    tag_129:\n        /* \"#utility.yul\":3532:3649   */\n    tag_128:\n        /* \"#utility.yul\":3673:3736   */\n      tag_130\n        /* \"#utility.yul\":3728:3735   */\n      dup5\n        /* \"#utility.yul\":3719:3725   */\n      dup3\n        /* \"#utility.yul\":3708:3717   */\n      dup6\n        /* \"#utility.yul\":3704:3726   */\n      add\n        /* \"#utility.yul\":3673:3736   */\n      tag_59\n      jump\t// in\n    tag_130:\n        /* \"#utility.yul\":3663:3736   */\n      swap2\n      pop\n        /* \"#utility.yul\":3459:3746   */\n      pop\n        /* \"#utility.yul\":3244:3753   */\n      swap3\n      swap2\n      pop\n      pop\n      jump\t// out\n        /* \"#utility.yul\":3759:3836   */\n    tag_60:\n        /* \"#utility.yul\":3796:3803   */\n      0x00\n        /* \"#utility.yul\":3825:3830   */\n      dup2\n        /* \"#utility.yul\":3814:3830   */\n      swap1\n      pop\n        /* \"#utility.yul\":3759:3836   */\n      swap2\n      swap1\n      pop\n      jump\t// out\n        /* \"#utility.yul\":3842:3960   */\n    tag_61:\n        /* \"#utility.yul\":3929:3953   */\n      tag_133\n        /* \"#utility.yul\":3947:3952   */\n      dup2\n        /* \"#utility.yul\":3929:3953   */\n      tag_60\n      jump\t// in\n    tag_133:\n        /* \"#utility.yul\":3924:3927   */\n      dup3\n        /* \"#utility.yul\":3917:3954   */\n      mstore\n        /* \"#utility.yul\":3842:3960   */\n      pop\n      pop\n      jump\t// out\n        /* \"#utility.yul\":3966:4188   */\n    tag_20:\n        /* \"#utility.yul\":4059:4063   */\n      0x00\n        /* \"#utility.yul\":4097:4099   */\n      0x20\n        /* \"#utility.yul\":4086:4095   */\n      dup3\n        /* \"#utility.yul\":4082:4100   */\n      add\n        /* \"#utility.yul\":4074:4100   */\n      swap1\n      pop\n        /* \"#utility.yul\":4110:4181   */\n      tag_135\n        /* \"#utility.yul\":4178:4179   */\n      0x00\n        /* \"#utility.yul\":4167:4176   */\n      dup4\n        /* \"#utility.yul\":4163:4180   */\n      add\n        /* \"#utility.yul\":4154:4160   */\n      dup5\n        /* \"#utility.yul\":4110:4181   */\n      tag_61\n      jump\t// in\n    tag_135:\n        /* \"#utility.yul\":3966:4188   */\n      swap3\n      swap2\n      pop\n      pop\n      jump\t// out\n        /* \"#utility.yul\":4194:4316   */\n    tag_62:\n        /* \"#utility.yul\":4267:4291   */\n      tag_137\n        /* \"#utility.yul\":4285:4290   */\n      dup2\n        /* \"#utility.yul\":4267:4291   */\n      tag_60\n      jump\t// in\n    tag_137:\n        /* \"#utility.yul\":4260:4265   */\n      dup2\n        /* \"#utility.yul\":4257:4292   */\n      eq\n        /* \"#utility.yul\":4247:4310   */\n      tag_138\n      jumpi\n        /* \"#utility.yul\":4306:4307   */\n      0x00\n        /* \"#utility.yul\":4303:4304   */\n      dup1\n        /* \"#utility.yul\":4296:4308   */\n      revert\n        /* \"#utility.yul\":4247:4310   */\n    tag_138:\n        /* \"#utility.yul\":4194:4316   */\n      pop\n      jump\t// out\n        /* \"#utility.yul\":4322:4461   */\n    tag_63:\n        /* \"#utility.yul\":4368:4373   */\n      0x00\n        /* \"#utility.yul\":4406:4412   */\n      dup2\n        /* \"#utility.yul\":4393:4413   */\n      calldataload\n        /* \"#utility.yul\":4384:4413   */\n      swap1\n      pop\n        /* \"#utility.yul\":4422:4455   */\n      tag_140\n        /* \"#utility.yul\":4449:4454   */\n      dup2\n        /* \"#utility.yul\":4422:4455   */\n      tag_62\n      jump\t// in\n    tag_140:\n        /* \"#utility.yul\":4322:4461   */\n      swap3\n      swap2\n      pop\n      pop\n      jump\t// out\n        /* \"#utility.yul\":4467:4796   */\n    tag_23:\n        /* \"#utility.yul\":4526:4532   */\n      0x00\n        /* \"#utility.yul\":4575:4577   */\n      0x20\n        /* \"#utility.yul\":4563:4572   */\n      dup3\n        /* \"#utility.yul\":4554:4561   */\n      dup5\n        /* \"#utility.yul\":4550:4573   */\n      sub\n        /* \"#utility.yul\":4546:4578   */\n      slt\n        /* \"#utility.yul\":4543:4662   */\n      iszero\n      tag_142\n      jumpi\n        /* \"#utility.yul\":4581:4660   */\n      tag_143\n      tag_45\n      jump\t// in\n    tag_143:\n        /* \"#utility.yul\":4543:4662   */\n    tag_142:\n        /* \"#utility.yul\":4701:4702   */\n      0x00\n        /* \"#utility.yul\":4726:4779   */\n      tag_144\n        /* \"#utility.yul\":4771:4778   */\n      dup5\n        /* \"#utility.yul\":4762:4768   */\n      dup3\n        /* \"#utility.yul\":4751:4760   */\n      dup6\n        /* \"#utility.yul\":4747:4769   */\n      add\n        /* \"#utility.yul\":4726:4779   */\n      tag_63\n      jump\t// in\n    tag_144:\n        /* \"#utility.yul\":4716:4779   */\n      swap2\n      pop\n        /* \"#utility.yul\":4672:4789   */\n      pop\n        /* \"#utility.yul\":4467:4796   */\n      swap3\n      swap2\n      pop\n      pop\n      jump\t// out\n        /* \"#utility.yul\":4802:4901   */\n    tag_64:\n        /* \"#utility.yul\":4854:4860   */\n      0x00\n        /* \"#utility.yul\":4888:4893   */\n      dup2\n        /* \"#utility.yul\":4882:4894   */\n      mload\n        /* \"#utility.yul\":4872:4894   */\n      swap1\n      pop\n        /* \"#utility.yul\":4802:4901   */\n      swap2\n      swap1\n      pop\n      jump\t// out\n        /* \"#utility.yul\":4907:5076   */\n    tag_65:\n        /* \"#utility.yul\":4991:5002   */\n      0x00\n        /* \"#utility.yul\":5025:5031   */\n      dup3\n        /* \"#utility.yul\":5020:5023   */\n      dup3\n        /* \"#utility.yul\":5013:5032   */\n      mstore\n        /* \"#utility.yul\":5065:5069   */\n      0x20\n        /* \"#utility.yul\":5060:5063   */\n      dup3\n        /* \"#utility.yul\":5056:5070   */\n      add\n        /* \"#utility.yul\":5041:5070   */\n      swap1\n      pop\n        /* \"#utility.yul\":4907:5076   */\n      swap3\n      swap2\n      pop\n      pop\n      jump\t// out\n        /* \"#utility.yul\":5082:5328   */\n    tag_66:\n        /* \"#utility.yul\":5163:5164   */\n      0x00\n        /* \"#utility.yul\":5173:5286   */\n    tag_148:\n        /* \"#utility.yul\":5187:5193   */\n      dup4\n        /* \"#utility.yul\":5184:5185   */\n      dup2\n        /* \"#utility.yul\":5181:5194   */\n      lt\n        /* \"#utility.yul\":5173:5286   */\n      iszero\n      tag_150\n      jumpi\n        /* \"#utility.yul\":5272:5273   */\n      dup1\n        /* \"#utility.yul\":5267:5270   */\n      dup3\n        /* \"#utility.yul\":5263:5274   */\n      add\n        /* \"#utility.yul\":5257:5275   */\n      mload\n        /* \"#utility.yul\":5253:5254   */\n      dup2\n        /* \"#utility.yul\":5248:5251   */\n      dup5\n        /* \"#utility.yul\":5244:5255   */\n      add\n        /* \"#utility.yul\":5237:5276   */\n      mstore\n        /* \"#utility.yul\":5209:5211   */\n      0x20\n        /* \"#utility.yul\":5206:5207   */\n      dup2\n        /* \"#utility.yul\":5202:5212   */\n      add\n        /* \"#utility.yul\":5197:5212   */\n      swap1\n      pop\n        /* \"#utility.yul\":5173:5286   */\n      jump(tag_148)\n    tag_150:\n        /* \"#utility.yul\":5320:5321   */\n      0x00\n        /* \"#utility.yul\":5311:5317   */\n      dup5\n        /* \"#utility.yul\":5306:5309   */\n      dup5\n        /* \"#utility.yul\":5302:5318   */\n      add\n        /* \"#utility.yul\":5295:5322   */\n      mstore\n        /* \"#utility.yul\":5144:5328   */\n      pop\n        /* \"#utility.yul\":5082:5328   */\n      pop\n      pop\n      pop\n      jump\t// out\n        /* \"#utility.yul\":5334:5711   */\n    tag_67:\n        /* \"#utility.yul\":5422:5425   */\n      0x00\n        /* \"#utility.yul\":5450:5489   */\n      tag_152\n        /* \"#utility.yul\":5483:5488   */\n      dup3\n        /* \"#utility.yul\":5450:5489   */\n      tag_64\n      jump\t// in\n    tag_152:\n        /* \"#utility.yul\":5505:5576   */\n      tag_153\n        /* \"#utility.yul\":5569:5575   */\n      dup2\n        /* \"#utility.yul\":5564:5567   */\n      dup6\n        /* \"#utility.yul\":5505:5576   */\n      tag_65\n      jump\t// in\n    tag_153:\n        /* \"#utility.yul\":5498:5576   */\n      swap4\n      pop\n        /* \"#utility.yul\":5585:5650   */\n      tag_154\n        /* \"#utility.yul\":5643:5649   */\n      dup2\n        /* \"#utility.yul\":5638:5641   */\n      dup6\n        /* \"#utility.yul\":5631:5635   */\n      0x20\n        /* \"#utility.yul\":5624:5629   */\n      dup7\n        /* \"#utility.yul\":5620:5636   */\n      add\n        /* \"#utility.yul\":5585:5650   */\n      tag_66\n      jump\t// in\n    tag_154:\n        /* \"#utility.yul\":5675:5704   */\n      tag_155\n        /* \"#utility.yul\":5697:5703   */\n      dup2\n        /* \"#utility.yul\":5675:5704   */\n      tag_52\n      jump\t// in\n    tag_155:\n        /* \"#utility.yul\":5670:5673   */\n      dup5\n        /* \"#utility.yul\":5666:5705   */\n      add\n        /* \"#utility.yul\":5659:5705   */\n      swap2\n      pop\n        /* \"#utility.yul\":5426:5711   */\n      pop\n        /* \"#utility.yul\":5334:5711   */\n      swap3\n      swap2\n      pop\n      pop\n      jump\t// out\n        /* \"#utility.yul\":5717:6030   */\n    tag_28:\n        /* \"#utility.yul\":5830:5834   */\n      0x00\n        /* \"#utility.yul\":5868:5870   */\n      0x20\n        /* \"#utility.yul\":5857:5866   */\n      dup3\n        /* \"#utility.yul\":5853:5871   */\n      add\n        /* \"#utility.yul\":5845:5871   */\n      swap1\n      pop\n        /* \"#utility.yul\":5917:5926   */\n      dup2\n        /* \"#utility.yul\":5911:5915   */\n      dup2\n        /* \"#utility.yul\":5907:5927   */\n      sub\n        /* \"#utility.yul\":5903:5904   */\n      0x00\n        /* \"#utility.yul\":5892:5901   */\n      dup4\n        /* \"#utility.yul\":5888:5905   */\n      add\n        /* \"#utility.yul\":5881:5928   */\n      mstore\n        /* \"#utility.yul\":5945:6023   */\n      tag_157\n        /* \"#utility.yul\":6018:6022   */\n      dup2\n        /* \"#utility.yul\":6009:6015   */\n      dup5\n        /* \"#utility.yul\":5945:6023   */\n      tag_67\n      jump\t// in\n    tag_157:\n        /* \"#utility.yul\":5937:6023   */\n      swap1\n      pop\n        /* \"#utility.yul\":5717:6030   */\n      swap3\n      swap2\n      pop\n      pop\n      jump\t// out\n        /* \"#utility.yul\":6036:6154   */\n    tag_68:\n        /* \"#utility.yul\":6123:6147   */\n      tag_159\n        /* \"#utility.yul\":6141:6146   */\n      dup2\n        /* \"#utility.yul\":6123:6147   */\n      tag_47\n      jump\t// in\n    tag_159:\n        /* \"#utility.yul\":6118:6121   */\n      dup3\n        /* \"#utility.yul\":6111:6148   */\n      mstore\n        /* \"#utility.yul\":6036:6154   */\n      pop\n      pop\n      jump\t// out\n        /* \"#utility.yul\":6160:6382   */\n    tag_32:\n        /* \"#utility.yul\":6253:6257   */\n      0x00\n        /* \"#utility.yul\":6291:6293   */\n      0x20\n        /* \"#utility.yul\":6280:6289   */\n      dup3\n        /* \"#utility.yul\":6276:6294   */\n      add\n        /* \"#utility.yul\":6268:6294   */\n      swap1\n      pop\n        /* \"#utility.yul\":6304:6375   */\n      tag_161\n        /* \"#utility.yul\":6372:6373   */\n      0x00\n        /* \"#utility.yul\":6361:6370   */\n      dup4\n        /* \"#utility.yul\":6357:6374   */\n      add\n        /* \"#utility.yul\":6348:6354   */\n      dup5\n        /* \"#utility.yul\":6304:6375   */\n      tag_68\n      jump\t// in\n    tag_161:\n        /* \"#utility.yul\":6160:6382   */\n      swap3\n      swap2\n      pop\n      pop\n      jump\t// out\n        /* \"#utility.yul\":6388:6568   */\n    tag_69:\n        /* \"#utility.yul\":6436:6513   */\n      0x4e487b7100000000000000000000000000000000000000000000000000000000\n        /* \"#utility.yul\":6433:6434   */\n      0x00\n        /* \"#utility.yul\":6426:6514   */\n      mstore\n        /* \"#utility.yul\":6533:6537   */\n      0x22\n        /* \"#utility.yul\":6530:6531   */\n      0x04\n        /* \"#utility.yul\":6523:6538   */\n      mstore\n        /* \"#utility.yul\":6557:6561   */\n      0x24\n        /* \"#utility.yul\":6554:6555   */\n      0x00\n        /* \"#utility.yul\":6547:6562   */\n      revert\n        /* \"#utility.yul\":6574:6894   */\n    tag_39:\n        /* \"#utility.yul\":6618:6624   */\n      0x00\n        /* \"#utility.yul\":6655:6656   */\n      0x02\n        /* \"#utility.yul\":6649:6653   */\n      dup3\n        /* \"#utility.yul\":6645:6657   */\n      div\n        /* \"#utility.yul\":6635:6657   */\n      swap1\n      pop\n        /* \"#utility.yul\":6702:6703   */\n      0x01\n        /* \"#utility.yul\":6696:6700   */\n      dup3\n        /* \"#utility.yul\":6692:6704   */\n      and\n        /* \"#utility.yul\":6723:6741   */\n      dup1\n        /* \"#utility.yul\":6713:6794   */\n      tag_164\n      jumpi\n        /* \"#utility.yul\":6779:6783   */\n      0x7f\n        /* \"#utility.yul\":6771:6777   */\n      dup3\n        /* \"#utility.yul\":6767:6784   */\n      and\n        /* \"#utility.yul\":6757:6784   */\n      swap2\n      pop\n        /* \"#utility.yul\":6713:6794   */\n    tag_164:\n        /* \"#utility.yul\":6841:6843   */\n      0x20\n        /* \"#utility.yul\":6833:6839   */\n      dup3\n        /* \"#utility.yul\":6830:6844   */\n      lt\n        /* \"#utility.yul\":6810:6828   */\n      dup2\n        /* \"#utility.yul\":6807:6845   */\n      sub\n        /* \"#utility.yul\":6804:6888   */\n      tag_165\n      jumpi\n        /* \"#utility.yul\":6860:6878   */\n      tag_166\n      tag_69\n      jump\t// in\n    tag_166:\n        /* \"#utility.yul\":6804:6888   */\n    tag_165:\n        /* \"#utility.yul\":6625:6894   */\n      pop\n        /* \"#utility.yul\":6574:6894   */\n      swap2\n      swap1\n      pop\n      jump\t// out\n        /* \"#utility.yul\":6900:7041   */\n    tag_70:\n        /* \"#utility.yul\":6949:6953   */\n      0x00\n        /* \"#utility.yul\":6972:6975   */\n      dup2\n        /* \"#utility.yul\":6964:6975   */\n      swap1\n      pop\n        /* \"#utility.yul\":6995:6998   */\n      dup2\n        /* \"#utility.yul\":6992:6993   */\n      0x00\n        /* \"#utility.yul\":6985:6999   */\n      mstore\n        /* \"#utility.yul\":7029:7033   */\n      0x20\n        /* \"#utility.yul\":7026:7027   */\n      0x00\n        /* \"#utility.yul\":7016:7034   */\n      keccak256\n        /* \"#utility.yul\":7008:7034   */\n      swap1\n      pop\n        /* \"#utility.yul\":6900:7041   */\n      swap2\n      swap1\n      pop\n      jump\t// out\n        /* \"#utility.yul\":7047:7140   */\n    tag_71:\n        /* \"#utility.yul\":7084:7090   */\n      0x00\n        /* \"#utility.yul\":7131:7133   */\n      0x20\n        /* \"#utility.yul\":7126:7128   */\n      0x1f\n        /* \"#utility.yul\":7119:7124   */\n      dup4\n        /* \"#utility.yul\":7115:7129   */\n      add\n        /* \"#utility.yul\":7111:7134   */\n      div\n        /* \"#utility.yul\":7101:7134   */\n      swap1\n      pop\n        /* \"#utility.yul\":7047:7140   */\n      swap2\n      swap1\n      pop\n      jump\t// out\n        /* \"#utility.yul\":7146:7253   */\n    tag_72:\n        /* \"#utility.yul\":7190:7198   */\n      0x00\n        /* \"#utility.yul\":7240:7245   */\n      dup3\n        /* \"#utility.yul\":7234:7238   */\n      dup3\n        /* \"#utility.yul\":7230:7246   */\n      shl\n        /* \"#utility.yul\":7209:7246   */\n      swap1\n      pop\n        /* \"#utility.yul\":7146:7253   */\n      swap3\n      swap2\n      pop\n      pop\n      jump\t// out\n        /* \"#utility.yul\":7259:7652   */\n    tag_73:\n        /* \"#utility.yul\":7328:7334   */\n      0x00\n        /* \"#utility.yul\":7378:7379   */\n      0x08\n        /* \"#utility.yul\":7366:7376   */\n      dup4\n        /* \"#utility.yul\":7362:7380   */\n      mul\n        /* \"#utility.yul\":7401:7498   */\n      tag_171\n        /* \"#utility.yul\":7431:7497   */\n      0xffffffffffffffffffffffffffffffffffffffffffffffffffffffffffffffff\n        /* \"#utility.yul\":7420:7429   */\n      dup3\n        /* \"#utility.yul\":7401:7498   */\n      tag_72\n      jump\t// in\n    tag_171:\n        /* \"#utility.yul\":7519:7558   */\n      tag_172\n        /* \"#utility.yul\":7549:7557   */\n      dup7\n        /* \"#utility.yul\":7538:7547   */\n      dup4\n        /* \"#utility.yul\":7519:7558   */\n      tag_72\n      jump\t// in\n    tag_172:\n        /* \"#utility.yul\":7507:7558   */\n      swap6\n      pop\n        /* \"#utility.yul\":7591:7595   */\n      dup1\n        /* \"#utility.yul\":7587:7596   */\n      not\n        /* \"#utility.yul\":7580:7585   */\n      dup5\n        /* \"#utility.yul\":7576:7597   */\n      and\n        /* \"#utility.yul\":7567:7597   */\n      swap4\n      pop\n        /* \"#utility.yul\":7640:7644   */\n      dup1\n        /* \"#utility.yul\":7630:7638   */\n      dup7\n        /* \"#utility.yul\":7626:7645   */\n      and\n        /* \"#utility.yul\":7619:7624   */\n      dup5\n        /* \"#utility.yul\":7616:7646   */\n      or\n        /* \"#utility.yul\":7606:7646   */\n      swap3\n      pop\n        /* \"#utility.yul\":7335:7652   */\n      pop\n      pop\n        /* \"#utility.yul\":7259:7652   */\n      swap4\n      swap3\n      pop\n      pop\n      pop\n      jump\t// out\n        /* \"#utility.yul\":7658:7718   */\n    tag_74:\n        /* \"#utility.yul\":7686:7689   */\n      0x00\n        /* \"#utility.yul\":7707:7712   */\n      dup2\n        /* \"#utility.yul\":7700:7712   */\n      swap1\n      pop\n        /* \"#utility.yul\":7658:7718   */\n      swap2\n      swap1\n      pop\n      jump\t// out\n        /* \"#utility.yul\":7724:7866   */\n    tag_75:\n        /* \"#utility.yul\":7774:7783   */\n      0x00\n        /* \"#utility.yul\":7807:7860   */\n      tag_175\n        /* \"#utility.yul\":7825:7859   */\n      tag_176\n        /* \"#utility.yul\":7834:7858   */\n      tag_177\n        /* \"#utility.yul\":7852:7857   */\n      dup5\n        /* \"#utility.yul\":7834:7858   */\n      tag_60\n      jump\t// in\n    tag_177:\n        /* \"#utility.yul\":7825:7859   */\n      tag_74\n      jump\t// in\n    tag_176:\n        /* \"#utility.yul\":7807:7860   */\n      tag_60\n      jump\t// in\n    tag_175:\n        /* \"#utility.yul\":7794:7860   */\n      swap1\n      pop\n        /* \"#utility.yul\":7724:7866   */\n      swap2\n      swap1\n      pop\n      jump\t// out\n        /* \"#utility.yul\":7872:7947   */\n    tag_76:\n        /* \"#utility.yul\":7915:7918   */\n      0x00\n        /* \"#utility.yul\":7936:7941   */\n      dup2\n        /* \"#utility.yul\":7929:7941   */\n      swap1\n      pop\n        /* \"#utility.yul\":7872:7947   */\n      swap2\n      swap1\n      pop\n      jump\t// out\n        /* \"#utility.yul\":7953:8222   */\n    tag_77:\n        /* \"#utility.yul\":8063:8102   */\n      tag_180\n        /* \"#utility.yul\":8094:8101   */\n      dup4\n        /* \"#utility.yul\":8063:8102   */\n      tag_75\n      jump\t// in\n    tag_180:\n        /* \"#utility.yul\":8124:8215   */\n      tag_181\n        /* \"#utility.yul\":8173:8214   */\n      tag_182\n        /* \"#utility.yul\":8197:8213   */\n      dup3\n        /* \"#utility.yul\":8173:8214   */\n      tag_76\n      jump\t// in\n    tag_182:\n        /* \"#utility.yul\":8165:8171   */\n      dup5\n        /* \"#utility.yul\":8158:8162   */\n      dup5\n        /* \"#utility.yul\":8152:8163   */\n      sload\n        /* \"#utility.yul\":8124:8215   */\n      tag_73\n      jump\t// in\n    tag_181:\n        /* \"#utility.yul\":8118:8122   */\n      dup3\n        /* \"#utility.yul\":8111:8216   */\n      sstore\n        /* \"#utility.yul\":8029:8222   */\n      pop\n        /* \"#utility.yul\":7953:8222   */\n      pop\n      pop\n      pop\n      jump\t// out\n        /* \"#utility.yul\":8228:8301   */\n    tag_78:\n        /* \"#utility.yul\":8273:8276   */\n      0x00\n        /* \"#utility.yul\":8228:8301   */\n      swap1\n      jump\t// out\n        /* \"#utility.yul\":8307:8496   */\n    tag_79:\n        /* \"#utility.yul\":8384:8416   */\n      tag_185\n      tag_78\n      jump\t// in\n    tag_185:\n        /* \"#utility.yul\":8425:8490   */\n      tag_186\n        /* \"#utility.yul\":8483:8489   */\n      dup2\n        /* \"#utility.yul\":8475:8481   */\n      dup5\n        /* \"#utility.yul\":8469:8473   */\n      dup5\n        /* \"#utility.yul\":8425:8490   */\n      tag_77\n      jump\t// in\n    tag_186:\n        /* \"#utility.yul\":8360:8496   */\n      pop\n        /* \"#utility.yul\":8307:8496   */\n      pop\n      pop\n      jump\t// out\n        /* \"#utility.yul\":8502:8688   */\n    tag_80:\n        /* \"#utility.yul\":8562:8682   */\n    tag_188:\n        /* \"#utility.yul\":8579:8582   */\n      dup2\n        /* \"#utility.yul\":8572:8577   */\n      dup2\n        /* \"#utility.yul\":8569:8583   */\n      lt\n        /* \"#utility.yul\":8562:8682   */\n      iszero\n      tag_190\n      jumpi\n        /* \"#utility.yul\":8633:8672   */\n      tag_191\n        /* \"#utility.yul\":8670:8671   */\n      0x00\n        /* \"#utility.yul\":8663:8668   */\n      dup3\n        /* \"#utility.yul\":8633:8672   */\n      tag_79\n      jump\t// in\n    tag_191:\n        /* \"#utility.yul\":8606:8607   */\n      0x01\n        /* \"#utility.yul\":8599:8604   */\n      dup2\n        /* \"#utility.yul\":8595:8608   */\n      add\n        /* \"#utility.yul\":8586:8608   */\n      swap1\n      pop\n        /* \"#utility.yul\":8562:8682   */\n      jump(tag_188)\n    tag_190:\n        /* \"#utility.yul\":8502:8688   */\n      pop\n      pop\n      jump\t// out\n        /* \"#utility.yul\":8694:9237   */\n    tag_81:\n        /* \"#utility.yul\":8795:8797   */\n      0x1f\n        /* \"#utility.yul\":8790:8793   */\n      dup3\n        /* \"#utility.yul\":8787:8798   */\n      gt\n        /* \"#utility.yul\":8784:9230   */\n      iszero\n      tag_193\n      jumpi\n        /* \"#utility.yul\":8829:8867   */\n      tag_194\n        /* \"#utility.yul\":8861:8866   */\n      dup2\n        /* \"#utility.yul\":8829:8867   */\n      tag_70\n      jump\t// in\n    tag_194:\n        /* \"#utility.yul\":8913:8942   */\n      tag_195\n        /* \"#utility.yul\":8931:8941   */\n      dup5\n        /* \"#utility.yul\":8913:8942   */\n      tag_71\n      jump\t// in\n    tag_195:\n        /* \"#utility.yul\":8903:8911   */\n      dup2\n        /* \"#utility.yul\":8899:8943   */\n      add\n        /* \"#utility.yul\":9096:9098   */\n      0x20\n        /* \"#utility.yul\":9084:9094   */\n      dup6\n        /* \"#utility.yul\":9081:9099   */\n      lt\n        /* \"#utility.yul\":9078:9127   */\n      iszero\n      tag_196\n      jumpi\n        /* \"#utility.yul\":9117:9125   */\n      dup2\n        /* \"#utility.yul\":9102:9125   */\n      swap1\n      pop\n        /* \"#utility.yul\":9078:9127   */\n    tag_196:\n        /* \"#utility.yul\":9140:9220   */\n      tag_197\n        /* \"#utility.yul\":9196:9218   */\n      tag_198\n        /* \"#utility.yul\":9214:9217   */\n      dup6\n        /* \"#utility.yul\":9196:9218   */\n      tag_71\n      jump\t// in\n    tag_198:\n        /* \"#utility.yul\":9186:9194   */\n      dup4\n        /* \"#utility.yul\":9182:9219   */\n      add\n        /* \"#utility.yul\":9169:9180   */\n      dup3\n        /* \"#utility.yul\":9140:9220   */\n      tag_80\n      jump\t// in\n    tag_197:\n        /* \"#utility.yul\":8799:9230   */\n      pop\n      pop\n        /* \"#utility.yul\":8784:9230   */\n    tag_193:\n        /* \"#utility.yul\":8694:9237   */\n      pop\n      pop\n      pop\n      jump\t// out\n        /* \"#utility.yul\":9243:9360   */\n    tag_82:\n        /* \"#utility.yul\":9297:9305   */\n      0x00\n        /* \"#utility.yul\":9347:9352   */\n      dup3\n        /* \"#utility.yul\":9341:9345   */\n      dup3\n        /* \"#utility.yul\":9337:9353   */\n      shr\n        /* \"#utility.yul\":9316:9353   */\n      swap1\n      pop\n        /* \"#utility.yul\":9243:9360   */\n      swap3\n      swap2\n      pop\n      pop\n      jump\t// out\n        /* \"#utility.yul\":9366:9535   */\n    tag_83:\n        /* \"#utility.yul\":9410:9416   */\n      0x00\n        /* \"#utility.yul\":9443:9494   */\n      tag_201\n        /* \"#utility.yul\":9491:9492   */\n      0x00\n        /* \"#utility.yul\":9487:9493   */\n      not\n        /* \"#utility.yul\":9479:9484   */\n      dup5\n        /* \"#utility.yul\":9476:9477   */\n      0x08\n        /* \"#utility.yul\":9472:9485   */\n      mul\n        /* \"#utility.yul\":9443:9494   */\n      tag_82\n      jump\t// in\n    tag_201:\n        /* \"#utility.yul\":9439:9495   */\n      not\n        /* \"#utility.yul\":9524:9528   */\n      dup1\n        /* \"#utility.yul\":9518:9522   */\n      dup4\n        /* \"#utility.yul\":9514:9529   */\n      and\n        /* \"#utility.yul\":9504:9529   */\n      swap2\n      pop\n        /* \"#utility.yul\":9417:9535   */\n      pop\n        /* \"#utility.yul\":9366:9535   */\n      swap3\n      swap2\n      pop\n      pop\n      jump\t// out\n        /* \"#utility.yul\":9540:9835   */\n    tag_84:\n        /* \"#utility.yul\":9616:9620   */\n      0x00\n        /* \"#utility.yul\":9762:9791   */\n      tag_203\n        /* \"#utility.yul\":9787:9790   */\n      dup4\n        /* \"#utility.yul\":9781:9785   */\n      dup4\n        /* \"#utility.yul\":9762:9791   */\n      tag_83\n      jump\t// in\n    tag_203:\n        /* \"#utility.yul\":9754:9791   */\n      swap2\n      pop\n        /* \"#utility.yul\":9824:9827   */\n      dup3\n        /* \"#utility.yul\":9821:9822   */\n      0x02\n        /* \"#utility.yul\":9817:9828   */\n      mul\n        /* \"#utility.yul\":9811:9815   */\n      dup3\n        /* \"#utility.yul\":9808:9829   */\n      or\n        /* \"#utility.yul\":9800:9829   */\n      swap1\n      pop\n        /* \"#utility.yul\":9540:9835   */\n      swap3\n      swap2\n      pop\n      pop\n      jump\t// out\n        /* \"#utility.yul\":9840:11235   */\n    tag_36:\n        /* \"#utility.yul\":9957:9994   */\n      tag_205\n        /* \"#utility.yul\":9990:9993   */\n      dup3\n        /* \"#utility.yul\":9957:9994   */\n      tag_64\n      jump\t// in\n    tag_205:\n        /* \"#utility.yul\":10059:10077   */\n      0xffffffffffffffff\n        /* \"#utility.yul\":10051:10057   */\n      dup2\n        /* \"#utility.yul\":10048:10078   */\n      gt\n        /* \"#utility.yul\":10045:10101   */\n      iszero\n      tag_206\n      jumpi\n        /* \"#utility.yul\":10081:10099   */\n      tag_207\n      tag_53\n      jump\t// in\n    tag_207:\n        /* \"#utility.yul\":10045:10101   */\n    tag_206:\n        /* \"#utility.yul\":10125:10163   */\n      tag_208\n        /* \"#utility.yul\":10157:10161   */\n      dup3\n        /* \"#utility.yul\":10151:10162   */\n      sload\n        /* \"#utility.yul\":10125:10163   */\n      tag_39\n      jump\t// in\n    tag_208:\n        /* \"#utility.yul\":10210:10277   */\n      tag_209\n        /* \"#utility.yul\":10270:10276   */\n      dup3\n        /* \"#utility.yul\":10262:10268   */\n      dup3\n        /* \"#utility.yul\":10256:10260   */\n      dup6\n        /* \"#utility.yul\":10210:10277   */\n      tag_81\n      jump\t// in\n    tag_209:\n        /* \"#utility.yul\":10304:10305   */\n      0x00\n        /* \"#utility.yul\":10328:10332   */\n      0x20\n        /* \"#utility.yul\":10315:10332   */\n      swap1\n      pop\n        /* \"#utility.yul\":10360:10362   */\n      0x1f\n        /* \"#utility.yul\":10352:10358   */\n      dup4\n        /* \"#utility.yul\":10349:10363   */\n      gt\n        /* \"#utility.yul\":10377:10378   */\n      0x01\n        /* \"#utility.yul\":10372:10990   */\n      dup2\n      eq\n      tag_211\n      jumpi\n        /* \"#utility.yul\":11034:11035   */\n      0x00\n        /* \"#utility.yul\":11051:11057   */\n      dup5\n        /* \"#utility.yul\":11048:11125   */\n      iszero\n      tag_212\n      jumpi\n        /* \"#utility.yul\":11100:11109   */\n      dup3\n        /* \"#utility.yul\":11095:11098   */\n      dup8\n        /* \"#utility.yul\":11091:11110   */\n      add\n        /* \"#utility.yul\":11085:11111   */\n      mload\n        /* \"#utility.yul\":11076:11111   */\n      swap1\n      pop\n        /* \"#utility.yul\":11048:11125   */\n    tag_212:\n        /* \"#utility.yul\":11151:11218   */\n      tag_213\n        /* \"#utility.yul\":11211:11217   */\n      dup6\n        /* \"#utility.yul\":11204:11209   */\n      dup3\n        /* \"#utility.yul\":11151:11218   */\n      tag_84\n      jump\t// in\n    tag_213:\n        /* \"#utility.yul\":11145:11149   */\n      dup7\n        /* \"#utility.yul\":11138:11219   */\n      sstore\n        /* \"#utility.yul\":11007:11229   */\n      pop\n        /* \"#utility.yul\":10342:11229   */\n      jump(tag_210)\n        /* \"#utility.yul\":10372:10990   */\n    tag_211:\n        /* \"#utility.yul\":10424:10428   */\n      0x1f\n        /* \"#utility.yul\":10420:10429   */\n      not\n        /* \"#utility.yul\":10412:10418   */\n      dup5\n        /* \"#utility.yul\":10408:10430   */\n      and\n        /* \"#utility.yul\":10458:10495   */\n      tag_214\n        /* \"#utility.yul\":10490:10494   */\n      dup7\n        /* \"#utility.yul\":10458:10495   */\n      tag_70\n      jump\t// in\n    tag_214:\n        /* \"#utility.yul\":10517:10518   */\n      0x00\n        /* \"#utility.yul\":10531:10739   */\n    tag_215:\n        /* \"#utility.yul\":10545:10552   */\n      dup3\n        /* \"#utility.yul\":10542:10543   */\n      dup2\n        /* \"#utility.yul\":10539:10553   */\n      lt\n        /* \"#utility.yul\":10531:10739   */\n      iszero\n      tag_217\n      jumpi\n        /* \"#utility.yul\":10624:10633   */\n      dup5\n        /* \"#utility.yul\":10619:10622   */\n      dup10\n        /* \"#utility.yul\":10615:10634   */\n      add\n        /* \"#utility.yul\":10609:10635   */\n      mload\n        /* \"#utility.yul\":10601:10607   */\n      dup3\n        /* \"#utility.yul\":10594:10636   */\n      sstore\n        /* \"#utility.yul\":10675:10676   */\n      0x01\n        /* \"#utility.yul\":10667:10673   */\n      dup3\n        /* \"#utility.yul\":10663:10677   */\n      add\n        /* \"#utility.yul\":10653:10677   */\n      swap2\n      pop\n        /* \"#utility.yul\":10722:10724   */\n      0x20\n        /* \"#utility.yul\":10711:10720   */\n      dup6\n        /* \"#utility.yul\":10707:10725   */\n      add\n        /* \"#utility.yul\":10694:10725   */\n      swap5\n      pop\n        /* \"#utility.yul\":10568:10572   */\n      0x20\n        /* \"#utility.yul\":10565:10566   */\n      dup2\n        /* \"#utility.yul\":10561:10573   */\n      add\n        /* \"#utility.yul\":10556:10573   */\n      swap1\n      pop\n        /* \"#utility.yul\":10531:10739   */\n      jump(tag_215)\n    tag_217:\n        /* \"#utility.yul\":10767:10773   */\n      dup7\n        /* \"#utility.yul\":10758:10765   */\n      dup4\n        /* \"#utility.yul\":10755:10774   */\n      lt\n        /* \"#utility.yul\":10752:10931   */\n      iszero\n      tag_218\n      jumpi\n        /* \"#utility.yul\":10825:10834   */\n      dup5\n        /* \"#utility.yul\":10820:10823   */\n      dup10\n        /* \"#utility.yul\":10816:10835   */\n      add\n        /* \"#utility.yul\":10810:10836   */\n      mload\n        /* \"#utility.yul\":10868:10916   */\n      tag_219\n        /* \"#utility.yul\":10910:10914   */\n      0x1f\n        /* \"#utility.yul\":10902:10908   */\n      dup10\n        /* \"#utility.yul\":10898:10915   */\n      and\n        /* \"#utility.yul\":10887:10896   */\n      dup3\n        /* \"#utility.yul\":10868:10916   */\n      tag_83\n      jump\t// in\n    tag_219:\n        /* \"#utility.yul\":10860:10866   */\n      dup4\n        /* \"#utility.yul\":10853:10917   */\n      sstore\n        /* \"#utility.yul\":10775:10931   */\n      pop\n        /* \"#utility.yul\":10752:10931   */\n    tag_218:\n        /* \"#utility.yul\":10977:10978   */\n      0x01\n        /* \"#utility.yul\":10973:10974   */\n      0x02\n        /* \"#utility.yul\":10965:10971   */\n      dup9\n        /* \"#utility.yul\":10961:10975   */\n      mul\n        /* \"#utility.yul\":10957:10979   */\n      add\n        /* \"#utility.yul\":10951:10955   */\n      dup9\n        /* \"#utility.yul\":10944:10980   */\n      sstore\n        /* \"#utility.yul\":10379:10990   */\n      pop\n      pop\n      pop\n        /* \"#utility.yul\":10342:11229   */\n    tag_210:\n      pop\n        /* \"#utility.yul\":9932:11235   */\n      pop\n      pop\n      pop\n        /* \"#utility.yul\":9840:11235   */\n      pop\n      pop\n      jump\t// out\n\n    auxdata: 0xa26469706673582212201ea73a36ad00ec00cd471ffc9fdb296276bddafa92b55bc00e17558fef03829a64736f6c63430008120033\n}\n",
				"bytecode": {
					"linkReferences": {},
					"object": "608060405234801561001057600080fd5b50610848806100206000396000f3fe608060405234801561001057600080fd5b50600436106100625760003560e01c80630a27f951146100675780631bb8305d14610083578063471f7cdf1461009f5780636057361d146100bd5780636cc014de146100d9578063a314150f146100f7575b600080fd5b610081600480360381019061007c9190610220565b610115565b005b61009d60048036038101906100989190610393565b61011f565b005b6100a7610132565b6040516100b491906103f5565b60405180910390f35b6100d760048036038101906100d2919061043c565b610138565b005b6100e1610142565b6040516100ee91906104e8565b60405180910390f35b6100ff6101d0565b60405161010c9190610519565b60405180910390f35b8060028190555050565b806001908161012e9190610740565b5050565b60005481565b8060008190555050565b6001805461014f90610563565b80601f016020809104026020016040519081016040528092919081815260200182805461017b90610563565b80156101c85780601f1061019d576101008083540402835291602001916101c8565b820191906000526020600020905b8154815290600101906020018083116101ab57829003601f168201915b505050505081565b60025481565b6000604051905090565b600080fd5b600080fd5b6000819050919050565b6101fd816101ea565b811461020857600080fd5b50565b60008135905061021a816101f4565b92915050565b600060208284031215610236576102356101e0565b5b60006102448482850161020b565b91505092915050565b600080fd5b600080fd5b6000601f19601f8301169050919050565b7f4e487b7100000000000000000000000000000000000000000000000000000000600052604160045260246000fd5b6102a082610257565b810181811067ffffffffffffffff821117156102bf576102be610268565b5b80604052505050565b60006102d26101d6565b90506102de8282610297565b919050565b600067ffffffffffffffff8211156102fe576102fd610268565b5b61030782610257565b9050602081019050919050565b82818337600083830152505050565b6000610336610331846102e3565b6102c8565b90508281526020810184848401111561035257610351610252565b5b61035d848285610314565b509392505050565b600082601f83011261037a5761037961024d565b5b813561038a848260208601610323565b91505092915050565b6000602082840312156103a9576103a86101e0565b5b600082013567ffffffffffffffff8111156103c7576103c66101e5565b5b6103d384828501610365565b91505092915050565b6000819050919050565b6103ef816103dc565b82525050565b600060208201905061040a60008301846103e6565b92915050565b610419816103dc565b811461042457600080fd5b50565b60008135905061043681610410565b92915050565b600060208284031215610452576104516101e0565b5b600061046084828501610427565b91505092915050565b600081519050919050565b600082825260208201905092915050565b60005b838110156104a3578082015181840152602081019050610488565b60008484015250505050565b60006104ba82610469565b6104c48185610474565b93506104d4818560208601610485565b6104dd81610257565b840191505092915050565b6000602082019050818103600083015261050281846104af565b905092915050565b610513816101ea565b82525050565b600060208201905061052e600083018461050a565b92915050565b7f4e487b7100000000000000000000000000000000000000000000000000000000600052602260045260246000fd5b6000600282049050600182168061057b57607f821691505b60208210810361058e5761058d610534565b5b50919050565b60008190508160005260206000209050919050565b60006020601f8301049050919050565b600082821b905092915050565b6000600883026105f67fffffffffffffffffffffffffffffffffffffffffffffffffffffffffffffffff826105b9565b61060086836105b9565b95508019841693508086168417925050509392505050565b6000819050919050565b600061063d610638610633846103dc565b610618565b6103dc565b9050919050565b6000819050919050565b61065783610622565b61066b61066382610644565b8484546105c6565b825550505050565b600090565b610680610673565b61068b81848461064e565b505050565b5b818110156106af576106a4600082610678565b600181019050610691565b5050565b601f8211156106f4576106c581610594565b6106ce846105a9565b810160208510156106dd578190505b6106f16106e9856105a9565b830182610690565b50505b505050565b600082821c905092915050565b6000610717600019846008026106f9565b1980831691505092915050565b60006107308383610706565b9150826002028217905092915050565b61074982610469565b67ffffffffffffffff81111561076257610761610268565b5b61076c8254610563565b6107778282856106b3565b600060209050601f8311600181146107aa5760008415610798578287015190505b6107a28582610724565b86555061080a565b601f1984166107b886610594565b60005b828110156107e0578489015182556001820191506020850194506020810190506107bb565b868310156107fd57848901516107f9601f891682610706565b8355505b6001600288020188555050505b50505050505056fea26469706673582212201ea73a36ad00ec00cd471ffc9fdb296276bddafa92b55bc00e17558fef03829a64736f6c63430008120033",
					"opcodes": "PUSH1 0x80 PUSH1 0x40 MSTORE CALLVALUE DUP1 ISZERO PUSH2 0x10 JUMPI PUSH1 0x0 DUP1 REVERT JUMPDEST POP PUSH2 0x848 DUP1 PUSH2 0x20 PUSH1 0x0 CODECOPY PUSH1 0x0 RETURN INVALID PUSH1 0x80 PUSH1 0x40 MSTORE CALLVALUE DUP1 ISZERO PUSH2 0x10 JUMPI PUSH1 0x0 DUP1 REVERT JUMPDEST POP PUSH1 0x4 CALLDATASIZE LT PUSH2 0x62 JUMPI PUSH1 0x0 CALLDATALOAD PUSH1 0xE0 SHR DUP1 PUSH4 0xA27F951 EQ PUSH2 0x67 JUMPI DUP1 PUSH4 0x1BB8305D EQ PUSH2 0x83 JUMPI DUP1 PUSH4 0x471F7CDF EQ PUSH2 0x9F JUMPI DUP1 PUSH4 0x6057361D EQ PUSH2 0xBD JUMPI DUP1 PUSH4 0x6CC014DE EQ PUSH2 0xD9 JUMPI DUP1 PUSH4 0xA314150F EQ PUSH2 0xF7 JUMPI JUMPDEST PUSH1 0x0 DUP1 REVERT JUMPDEST PUSH2 0x81 PUSH1 0x4 DUP1 CALLDATASIZE SUB DUP2 ADD SWAP1 PUSH2 0x7C SWAP2 SWAP1 PUSH2 0x220 JUMP JUMPDEST PUSH2 0x115 JUMP JUMPDEST STOP JUMPDEST PUSH2 0x9D PUSH1 0x4 DUP1 CALLDATASIZE SUB DUP2 ADD SWAP1 PUSH2 0x98 SWAP2 SWAP1 PUSH2 0x393 JUMP JUMPDEST PUSH2 0x11F JUMP JUMPDEST STOP JUMPDEST PUSH2 0xA7 PUSH2 0x132 JUMP JUMPDEST PUSH1 0x40 MLOAD PUSH2 0xB4 SWAP2 SWAP1 PUSH2 0x3F5 JUMP JUMPDEST PUSH1 0x40 MLOAD DUP1 SWAP2 SUB SWAP1 RETURN JUMPDEST PUSH2 0xD7 PUSH1 0x4 DUP1 CALLDATASIZE SUB DUP2 ADD SWAP1 PUSH2 0xD2 SWAP2 SWAP1 PUSH2 0x43C JUMP JUMPDEST PUSH2 0x138 JUMP JUMPDEST STOP JUMPDEST PUSH2 0xE1 PUSH2 0x142 JUMP JUMPDEST PUSH1 0x40 MLOAD PUSH2 0xEE SWAP2 SWAP1 PUSH2 0x4E8 JUMP JUMPDEST PUSH1 0x40 MLOAD DUP1 SWAP2 SUB SWAP1 RETURN JUMPDEST PUSH2 0xFF PUSH2 0x1D0 JUMP JUMPDEST PUSH1 0x40 MLOAD PUSH2 0x10C SWAP2 SWAP1 PUSH2 0x519 JUMP JUMPDEST PUSH1 0x40 MLOAD DUP1 SWAP2 SUB SWAP1 RETURN JUMPDEST DUP1 PUSH1 0x2 DUP2 SWAP1 SSTORE POP POP JUMP JUMPDEST DUP1 PUSH1 0x1 SWAP1 DUP2 PUSH2 0x12E SWAP2 SWAP1 PUSH2 0x740 JUMP JUMPDEST POP POP JUMP JUMPDEST PUSH1 0x0 SLOAD DUP2 JUMP JUMPDEST DUP1 PUSH1 0x0 DUP2 SWAP1 SSTORE POP POP JUMP JUMPDEST PUSH1 0x1 DUP1 SLOAD PUSH2 0x14F SWAP1 PUSH2 0x563 JUMP JUMPDEST DUP1 PUSH1 0x1F ADD PUSH1 0x20 DUP1 SWAP2 DIV MUL PUSH1 0x20 ADD PUSH1 0x40 MLOAD SWAP1 DUP2 ADD PUSH1 0x40 MSTORE DUP1 SWAP3 SWAP2 SWAP1 DUP2 DUP2 MSTORE PUSH1 0x20 ADD DUP3 DUP1 SLOAD PUSH2 0x17B SWAP1 PUSH2 0x563 JUMP JUMPDEST DUP1 ISZERO PUSH2 0x1C8 JUMPI DUP1 PUSH1 0x1F LT PUSH2 0x19D JUMPI PUSH2 0x100 DUP1 DUP4 SLOAD DIV MUL DUP4 MSTORE SWAP2 PUSH1 0x20 ADD SWAP2 PUSH2 0x1C8 JUMP JUMPDEST DUP3 ADD SWAP2 SWAP1 PUSH1 0x0 MSTORE PUSH1 0x20 PUSH1 0x0 KECCAK256 SWAP1 JUMPDEST DUP2 SLOAD DUP2 MSTORE SWAP1 PUSH1 0x1 ADD SWAP1 PUSH1 0x20 ADD DUP1 DUP4 GT PUSH2 0x1AB JUMPI DUP3 SWAP1 SUB PUSH1 0x1F AND DUP3 ADD SWAP2 JUMPDEST POP POP POP POP POP DUP2 JUMP JUMPDEST PUSH1 0x2 SLOAD DUP2 JUMP JUMPDEST PUSH1 0x0 PUSH1 0x40 MLOAD SWAP1 POP SWAP1 JUMP JUMPDEST PUSH1 0x0 DUP1 REVERT JUMPDEST PUSH1 0x0 DUP1 REVERT JUMPDEST PUSH1 0x0 DUP2 SWAP1 POP SWAP2 SWAP1 POP JUMP JUMPDEST PUSH2 0x1FD DUP2 PUSH2 0x1EA JUMP JUMPDEST DUP2 EQ PUSH2 0x208 JUMPI PUSH1 0x0 DUP1 REVERT JUMPDEST POP JUMP JUMPDEST PUSH1 0x0 DUP2 CALLDATALOAD SWAP1 POP PUSH2 0x21A DUP2 PUSH2 0x1F4 JUMP JUMPDEST SWAP3 SWAP2 POP POP JUMP JUMPDEST PUSH1 0x0 PUSH1 0x20 DUP3 DUP5 SUB SLT ISZERO PUSH2 0x236 JUMPI PUSH2 0x235 PUSH2 0x1E0 JUMP JUMPDEST JUMPDEST PUSH1 0x0 PUSH2 0x244 DUP5 DUP3 DUP6 ADD PUSH2 0x20B JUMP JUMPDEST SWAP2 POP POP SWAP3 SWAP2 POP POP JUMP JUMPDEST PUSH1 0x0 DUP1 REVERT JUMPDEST PUSH1 0x0 DUP1 REVERT JUMPDEST PUSH1 0x0 PUSH1 0x1F NOT PUSH1 0x1F DUP4 ADD AND SWAP1 POP SWAP2 SWAP1 POP JUMP JUMPDEST PUSH32 0x4E487B7100000000000000000000000000000000000000000000000000000000 PUSH1 0x0 MSTORE PUSH1 0x41 PUSH1 0x4 MSTORE PUSH1 0x24 PUSH1 0x0 REVERT JUMPDEST PUSH2 0x2A0 DUP3 PUSH2 0x257 JUMP JUMPDEST DUP2 ADD DUP2 DUP2 LT PUSH8 0xFFFFFFFFFFFFFFFF DUP3 GT OR ISZERO PUSH2 0x2BF JUMPI PUSH2 0x2BE PUSH2 0x268 JUMP JUMPDEST JUMPDEST DUP1 PUSH1 0x40 MSTORE POP POP POP JUMP JUMPDEST PUSH1 0x0 PUSH2 0x2D2 PUSH2 0x1D6 JUMP JUMPDEST SWAP1 POP PUSH2 0x2DE DUP3 DUP3 PUSH2 0x297 JUMP JUMPDEST SWAP2 SWAP1 POP JUMP JUMPDEST PUSH1 0x0 PUSH8 0xFFFFFFFFFFFFFFFF DUP3 GT ISZERO PUSH2 0x2FE JUMPI PUSH2 0x2FD PUSH2 0x268 JUMP JUMPDEST JUMPDEST PUSH2 0x307 DUP3 PUSH2 0x257 JUMP JUMPDEST SWAP1 POP PUSH1 0x20 DUP2 ADD SWAP1 POP SWAP2 SWAP1 POP JUMP JUMPDEST DUP3 DUP2 DUP4 CALLDATACOPY PUSH1 0x0 DUP4 DUP4 ADD MSTORE POP POP POP JUMP JUMPDEST PUSH1 0x0 PUSH2 0x336 PUSH2 0x331 DUP5 PUSH2 0x2E3 JUMP JUMPDEST PUSH2 0x2C8 JUMP JUMPDEST SWAP1 POP DUP3 DUP2 MSTORE PUSH1 0x20 DUP2 ADD DUP5 DUP5 DUP5 ADD GT ISZERO PUSH2 0x352 JUMPI PUSH2 0x351 PUSH2 0x252 JUMP JUMPDEST JUMPDEST PUSH2 0x35D DUP5 DUP3 DUP6 PUSH2 0x314 JUMP JUMPDEST POP SWAP4 SWAP3 POP POP POP JUMP JUMPDEST PUSH1 0x0 DUP3 PUSH1 0x1F DUP4 ADD SLT PUSH2 0x37A JUMPI PUSH2 0x379 PUSH2 0x24D JUMP JUMPDEST JUMPDEST DUP2 CALLDATALOAD PUSH2 0x38A DUP5 DUP3 PUSH1 0x20 DUP7 ADD PUSH2 0x323 JUMP JUMPDEST SWAP2 POP POP SWAP3 SWAP2 POP POP JUMP JUMPDEST PUSH1 0x0 PUSH1 0x20 DUP3 DUP5 SUB SLT ISZERO PUSH2 0x3A9 JUMPI PUSH2 0x3A8 PUSH2 0x1E0 JUMP JUMPDEST JUMPDEST PUSH1 0x0 DUP3 ADD CALLDATALOAD PUSH8 0xFFFFFFFFFFFFFFFF DUP2 GT ISZERO PUSH2 0x3C7 JUMPI PUSH2 0x3C6 PUSH2 0x1E5 JUMP JUMPDEST JUMPDEST PUSH2 0x3D3 DUP5 DUP3 DUP6 ADD PUSH2 0x365 JUMP JUMPDEST SWAP2 POP POP SWAP3 SWAP2 POP POP JUMP JUMPDEST PUSH1 0x0 DUP2 SWAP1 POP SWAP2 SWAP1 POP JUMP JUMPDEST PUSH2 0x3EF DUP2 PUSH2 0x3DC JUMP JUMPDEST DUP3 MSTORE POP POP JUMP JUMPDEST PUSH1 0x0 PUSH1 0x20 DUP3 ADD SWAP1 POP PUSH2 0x40A PUSH1 0x0 DUP4 ADD DUP5 PUSH2 0x3E6 JUMP JUMPDEST SWAP3 SWAP2 POP POP JUMP JUMPDEST PUSH2 0x419 DUP2 PUSH2 0x3DC JUMP JUMPDEST DUP2 EQ PUSH2 0x424 JUMPI PUSH1 0x0 DUP1 REVERT JUMPDEST POP JUMP JUMPDEST PUSH1 0x0 DUP2 CALLDATALOAD SWAP1 POP PUSH2 0x436 DUP2 PUSH2 0x410 JUMP JUMPDEST SWAP3 SWAP2 POP POP JUMP JUMPDEST PUSH1 0x0 PUSH1 0x20 DUP3 DUP5 SUB SLT ISZERO PUSH2 0x452 JUMPI PUSH2 0x451 PUSH2 0x1E0 JUMP JUMPDEST JUMPDEST PUSH1 0x0 PUSH2 0x460 DUP5 DUP3 DUP6 ADD PUSH2 0x427 JUMP JUMPDEST SWAP2 POP POP SWAP3 SWAP2 POP POP JUMP JUMPDEST PUSH1 0x0 DUP2 MLOAD SWAP1 POP SWAP2 SWAP1 POP JUMP JUMPDEST PUSH1 0x0 DUP3 DUP3 MSTORE PUSH1 0x20 DUP3 ADD SWAP1 POP SWAP3 SWAP2 POP POP JUMP JUMPDEST PUSH1 0x0 JUMPDEST DUP4 DUP2 LT ISZERO PUSH2 0x4A3 JUMPI DUP1 DUP3 ADD MLOAD DUP2 DUP5 ADD MSTORE PUSH1 0x20 DUP2 ADD SWAP1 POP PUSH2 0x488 JUMP JUMPDEST PUSH1 0x0 DUP5 DUP5 ADD MSTORE POP POP POP POP JUMP JUMPDEST PUSH1 0x0 PUSH2 0x4BA DUP3 PUSH2 0x469 JUMP JUMPDEST PUSH2 0x4C4 DUP2 DUP6 PUSH2 0x474 JUMP JUMPDEST SWAP4 POP PUSH2 0x4D4 DUP2 DUP6 PUSH1 0x20 DUP7 ADD PUSH2 0x485 JUMP JUMPDEST PUSH2 0x4DD DUP2 PUSH2 0x257 JUMP JUMPDEST DUP5 ADD SWAP2 POP POP SWAP3 SWAP2 POP POP JUMP JUMPDEST PUSH1 0x0 PUSH1 0x20 DUP3 ADD SWAP1 POP DUP2 DUP2 SUB PUSH1 0x0 DUP4 ADD MSTORE PUSH2 0x502 DUP2 DUP5 PUSH2 0x4AF JUMP JUMPDEST SWAP1 POP SWAP3 SWAP2 POP POP JUMP JUMPDEST PUSH2 0x513 DUP2 PUSH2 0x1EA JUMP JUMPDEST DUP3 MSTORE POP POP JUMP JUMPDEST PUSH1 0x0 PUSH1 0x20 DUP3 ADD SWAP1 POP PUSH2 0x52E PUSH1 0x0 DUP4 ADD DUP5 PUSH2 0x50A JUMP JUMPDEST SWAP3 SWAP2 POP POP JUMP JUMPDEST PUSH32 0x4E487B7100000000000000000000000000000000000000000000000000000000 PUSH1 0x0 MSTORE PUSH1 0x22 PUSH1 0x4 MSTORE PUSH1 0x24 PUSH1 0x0 REVERT JUMPDEST PUSH1 0x0 PUSH1 0x2 DUP3 DIV SWAP1 POP PUSH1 0x1 DUP3 AND DUP1 PUSH2 0x57B JUMPI PUSH1 0x7F DUP3 AND SWAP2 POP JUMPDEST PUSH1 0x20 DUP3 LT DUP2 SUB PUSH2 0x58E JUMPI PUSH2 0x58D PUSH2 0x534 JUMP JUMPDEST JUMPDEST POP SWAP2 SWAP1 POP JUMP JUMPDEST PUSH1 0x0 DUP2 SWAP1 POP DUP2 PUSH1 0x0 MSTORE PUSH1 0x20 PUSH1 0x0 KECCAK256 SWAP1 POP SWAP2 SWAP1 POP JUMP JUMPDEST PUSH1 0x0 PUSH1 0x20 PUSH1 0x1F DUP4 ADD DIV SWAP1 POP SWAP2 SWAP1 POP JUMP JUMPDEST PUSH1 0x0 DUP3 DUP3 SHL SWAP1 POP SWAP3 SWAP2 POP POP JUMP JUMPDEST PUSH1 0x0 PUSH1 0x8 DUP4 MUL PUSH2 0x5F6 PUSH32 0xFFFFFFFFFFFFFFFFFFFFFFFFFFFFFFFFFFFFFFFFFFFFFFFFFFFFFFFFFFFFFFFF DUP3 PUSH2 0x5B9 JUMP JUMPDEST PUSH2 0x600 DUP7 DUP4 PUSH2 0x5B9 JUMP JUMPDEST SWAP6 POP DUP1 NOT DUP5 AND SWAP4 POP DUP1 DUP7 AND DUP5 OR SWAP3 POP POP POP SWAP4 SWAP3 POP POP POP JUMP JUMPDEST PUSH1 0x0 DUP2 SWAP1 POP SWAP2 SWAP1 POP JUMP JUMPDEST PUSH1 0x0 PUSH2 0x63D PUSH2 0x638 PUSH2 0x633 DUP5 PUSH2 0x3DC JUMP JUMPDEST PUSH2 0x618 JUMP JUMPDEST PUSH2 0x3DC JUMP JUMPDEST SWAP1 POP SWAP2 SWAP1 POP JUMP JUMPDEST PUSH1 0x0 DUP2 SWAP1 POP SWAP2 SWAP1 POP JUMP JUMPDEST PUSH2 0x657 DUP4 PUSH2 0x622 JUMP JUMPDEST PUSH2 0x66B PUSH2 0x663 DUP3 PUSH2 0x644 JUMP JUMPDEST DUP5 DUP5 SLOAD PUSH2 0x5C6 JUMP JUMPDEST DUP3 SSTORE POP POP POP POP JUMP JUMPDEST PUSH1 0x0 SWAP1 JUMP JUMPDEST PUSH2 0x680 PUSH2 0x673 JUMP JUMPDEST PUSH2 0x68B DUP2 DUP5 DUP5 PUSH2 0x64E JUMP JUMPDEST POP POP POP JUMP JUMPDEST JUMPDEST DUP2 DUP2 LT ISZERO PUSH2 0x6AF JUMPI PUSH2 0x6A4 PUSH1 0x0 DUP3 PUSH2 0x678 JUMP JUMPDEST PUSH1 0x1 DUP2 ADD SWAP1 POP PUSH2 0x691 JUMP JUMPDEST POP POP JUMP JUMPDEST PUSH1 0x1F DUP3 GT ISZERO PUSH2 0x6F4 JUMPI PUSH2 0x6C5 DUP2 PUSH2 0x594 JUMP JUMPDEST PUSH2 0x6CE DUP5 PUSH2 0x5A9 JUMP JUMPDEST DUP2 ADD PUSH1 0x20 DUP6 LT ISZERO PUSH2 0x6DD JUMPI DUP2 SWAP1 POP JUMPDEST PUSH2 0x6F1 PUSH2 0x6E9 DUP6 PUSH2 0x5A9 JUMP JUMPDEST DUP4 ADD DUP3 PUSH2 0x690 JUMP JUMPDEST POP POP JUMPDEST POP POP POP JUMP JUMPDEST PUSH1 0x0 DUP3 DUP3 SHR SWAP1 POP SWAP3 SWAP2 POP POP JUMP JUMPDEST PUSH1 0x0 PUSH2 0x717 PUSH1 0x0 NOT DUP5 PUSH1 0x8 MUL PUSH2 0x6F9 JUMP JUMPDEST NOT DUP1 DUP4 AND SWAP2 POP POP SWAP3 SWAP2 POP POP JUMP JUMPDEST PUSH1 0x0 PUSH2 0x730 DUP4 DUP4 PUSH2 0x706 JUMP JUMPDEST SWAP2 POP DUP3 PUSH1 0x2 MUL DUP3 OR SWAP1 POP SWAP3 SWAP2 POP POP JUMP JUMPDEST PUSH2 0x749 DUP3 PUSH2 0x469 JUMP JUMPDEST PUSH8 0xFFFFFFFFFFFFFFFF DUP2 GT ISZERO PUSH2 0x762 JUMPI PUSH2 0x761 PUSH2 0x268 JUMP JUMPDEST JUMPDEST PUSH2 0x76C DUP3 SLOAD PUSH2 0x563 JUMP JUMPDEST PUSH2 0x777 DUP3 DUP3 DUP6 PUSH2 0x6B3 JUMP JUMPDEST PUSH1 0x0 PUSH1 0x20 SWAP1 POP PUSH1 0x1F DUP4 GT PUSH1 0x1 DUP2 EQ PUSH2 0x7AA JUMPI PUSH1 0x0 DUP5 ISZERO PUSH2 0x798 JUMPI DUP3 DUP8 ADD MLOAD SWAP1 POP JUMPDEST PUSH2 0x7A2 DUP6 DUP3 PUSH2 0x724 JUMP JUMPDEST DUP7 SSTORE POP PUSH2 0x80A JUMP JUMPDEST PUSH1 0x1F NOT DUP5 AND PUSH2 0x7B8 DUP7 PUSH2 0x594 JUMP JUMPDEST PUSH1 0x0 JUMPDEST DUP3 DUP2 LT ISZERO PUSH2 0x7E0 JUMPI DUP5 DUP10 ADD MLOAD DUP3 SSTORE PUSH1 0x1 DUP3 ADD SWAP2 POP PUSH1 0x20 DUP6 ADD SWAP5 POP PUSH1 0x20 DUP2 ADD SWAP1 POP PUSH2 0x7BB JUMP JUMPDEST DUP7 DUP4 LT ISZERO PUSH2 0x7FD JUMPI DUP5 DUP10 ADD MLOAD PUSH2 0x7F9 PUSH1 0x1F DUP10 AND DUP3 PUSH2 0x706 JUMP JUMPDEST DUP4 SSTORE POP JUMPDEST PUSH1 0x1 PUSH1 0x2 DUP9 MUL ADD DUP9 SSTORE POP POP POP JUMPDEST POP POP POP POP POP POP JUMP INVALID LOG2 PUSH5 0x6970667358 0x22 SLT KECCAK256 0x1E 0xA7 GASPRICE CALLDATASIZE 0xAD STOP 0xEC STOP 0xCD SELFBALANCE 0x1F 0xFC SWAP16 0xDB 0x29 PUSH3 0x76BDDA STATICCALL SWAP3 0xB5 JUMPDEST 0xC0 0xE OR SSTORE DUP16 0xEF SUB DUP3 SWAP11 PUSH5 0x736F6C6343 STOP ADDMOD SLT STOP CALLER "
				},
				"gasEstimates": {
					"creation": {
						"codeDepositCost": "424000",
						"executionCost": "461",
						"totalCost": "424461"
					},
					"external": {
						"favoriteNumber()": "2451",
						"s1()": "infinite",
						"s2()": "2517",
						"store(uint256)": "22564",
						"storeBytes32(bytes32)": "22498",
						"storeString(string)": "infinite"
					}
				},
				"methodIdentifiers": {
					"favoriteNumber()": "471f7cdf",
					"s1()": "6cc014de",
					"s2()": "a314150f",
					"store(uint256)": "6057361d",
					"storeBytes32(bytes32)": "0a27f951",
					"storeString(string)": "1bb8305d"
				}
			},
			"storageLayout": {
				"storage": [
					{
						"astId": 3,
						"contract": "SimpleStorage.sol:SimpleStorage",
						"label": "favoriteNumber",
						"offset": 0,
						"slot": "0",
						"type": "t_uint256"
					},
					{
						"astId": 5,
						"contract": "SimpleStorage.sol:SimpleStorage",
						"label": "s1",
						"offset": 0,
						"slot": "1",
						"type": "t_string_storage"
					},
					{
						"astId": 7,
						"contract": "SimpleStorage.sol:SimpleStorage",
						"label": "s2",
						"offset": 0,
						"slot": "2",
						"type": "t_bytes32"
					}
				],
				"types": {
					"t_bytes32": {
						"encoding": "inplace",
						"label": "bytes32",
						"numberOfBytes": "32"
					},
					"t_string_storage": {
						"encoding": "bytes",
						"label": "string",
						"numberOfBytes": "32"
					},
					"t_uint256": {
						"encoding": "inplace",
						"label": "uint256",
						"numberOfBytes": "32"
					}
				}
			},
			"userdoc": {
				"kind": "user",
				"methods": {},
				"version": 1
			}
		}
	}
}