{
	"DeFi 预售合约（Token Presale with Linear Vesting）/TokenPresale.sol": {
		"TokenPresale": {
			"abi": [
				{
					"inputs": [],
					"stateMutability": "nonpayable",
					"type": "constructor"
				},
				{
					"inputs": [],
					"name": "ClaimDisabled",
					"type": "error"
				},
				{
					"inputs": [],
					"name": "GoalReached",
					"type": "error"
				},
				{
					"inputs": [],
					"name": "PresaleEnded",
					"type": "error"
				},
				{
					"inputs": [],
					"name": "TooSmall",
					"type": "error"
				},
				{
					"inputs": [],
					"name": "notFinished",
					"type": "error"
				},
				{
					"inputs": [],
					"name": "notOwner",
					"type": "error"
				},
				{
					"inputs": [],
					"name": "withdrawFailed",
					"type": "error"
				},
				{
					"stateMutability": "payable",
					"type": "fallback"
				},
				{
					"inputs": [],
					"name": "claimTokens",
					"outputs": [],
					"stateMutability": "nonpayable",
					"type": "function"
				},
				{
					"inputs": [
						{
							"internalType": "uint256",
							"name": "",
							"type": "uint256"
						}
					],
					"name": "contributors",
					"outputs": [
						{
							"internalType": "address",
							"name": "",
							"type": "address"
						}
					],
					"stateMutability": "view",
					"type": "function"
				},
				{
					"inputs": [],
					"name": "fund",
					"outputs": [],
					"stateMutability": "payable",
					"type": "function"
				},
				{
					"inputs": [
						{
							"internalType": "address",
							"name": "user",
							"type": "address"
						}
					],
					"name": "getTokenClaimable",
					"outputs": [
						{
							"internalType": "uint256",
							"name": "",
							"type": "uint256"
						}
					],
					"stateMutability": "view",
					"type": "function"
				},
				{
					"inputs": [
						{
							"internalType": "address",
							"name": "user",
							"type": "address"
						}
					],
					"name": "getUserInfo",
					"outputs": [
						{
							"internalType": "uint256",
							"name": "",
							"type": "uint256"
						},
						{
							"internalType": "uint256",
							"name": "",
							"type": "uint256"
						},
						{
							"internalType": "uint256",
							"name": "",
							"type": "uint256"
						}
					],
					"stateMutability": "view",
					"type": "function"
				},
				{
					"inputs": [],
					"name": "goalInUsd",
					"outputs": [
						{
							"internalType": "uint256",
							"name": "",
							"type": "uint256"
						}
					],
					"stateMutability": "view",
					"type": "function"
				},
				{
					"inputs": [
						{
							"internalType": "address",
							"name": "",
							"type": "address"
						}
					],
					"name": "hasContributed",
					"outputs": [
						{
							"internalType": "bool",
							"name": "",
							"type": "bool"
						}
					],
					"stateMutability": "view",
					"type": "function"
				},
				{
					"inputs": [],
					"name": "isClaimEnabled",
					"outputs": [
						{
							"internalType": "bool",
							"name": "",
							"type": "bool"
						}
					],
					"stateMutability": "view",
					"type": "function"
				},
				{
					"inputs": [],
					"name": "owner",
					"outputs": [
						{
							"internalType": "address",
							"name": "",
							"type": "address"
						}
					],
					"stateMutability": "view",
					"type": "function"
				},
				{
					"inputs": [],
					"name": "pause",
					"outputs": [],
					"stateMutability": "nonpayable",
					"type": "function"
				},
				{
					"inputs": [],
					"name": "paused",
					"outputs": [
						{
							"internalType": "bool",
							"name": "",
							"type": "bool"
						}
					],
					"stateMutability": "view",
					"type": "function"
				},
				{
					"inputs": [],
					"name": "presaleEndTime",
					"outputs": [
						{
							"internalType": "uint256",
							"name": "",
							"type": "uint256"
						}
					],
					"stateMutability": "view",
					"type": "function"
				},
				{
					"inputs": [],
					"name": "tokenPerUsdRate",
					"outputs": [
						{
							"internalType": "uint256",
							"name": "",
							"type": "uint256"
						}
					],
					"stateMutability": "view",
					"type": "function"
				},
				{
					"inputs": [],
					"name": "totalUsdRaised",
					"outputs": [
						{
							"internalType": "uint256",
							"name": "",
							"type": "uint256"
						}
					],
					"stateMutability": "view",
					"type": "function"
				},
				{
					"inputs": [],
					"name": "unlockDuration",
					"outputs": [
						{
							"internalType": "uint256",
							"name": "",
							"type": "uint256"
						}
					],
					"stateMutability": "view",
					"type": "function"
				},
				{
					"inputs": [],
					"name": "unlockStartTime",
					"outputs": [
						{
							"internalType": "uint256",
							"name": "",
							"type": "uint256"
						}
					],
					"stateMutability": "view",
					"type": "function"
				},
				{
					"inputs": [],
					"name": "unpause",
					"outputs": [],
					"stateMutability": "nonpayable",
					"type": "function"
				},
				{
					"inputs": [
						{
							"internalType": "address",
							"name": "",
							"type": "address"
						}
					],
					"name": "userClaimedTokens",
					"outputs": [
						{
							"internalType": "uint256",
							"name": "",
							"type": "uint256"
						}
					],
					"stateMutability": "view",
					"type": "function"
				},
				{
					"inputs": [
						{
							"internalType": "address",
							"name": "",
							"type": "address"
						}
					],
					"name": "userTotalToken",
					"outputs": [
						{
							"internalType": "uint256",
							"name": "",
							"type": "uint256"
						}
					],
					"stateMutability": "view",
					"type": "function"
				},
				{
					"inputs": [
						{
							"internalType": "address",
							"name": "",
							"type": "address"
						}
					],
					"name": "userUsdContributed",
					"outputs": [
						{
							"internalType": "uint256",
							"name": "",
							"type": "uint256"
						}
					],
					"stateMutability": "view",
					"type": "function"
				},
				{
					"inputs": [],
					"name": "withdrawETH",
					"outputs": [],
					"stateMutability": "payable",
					"type": "function"
				},
				{
					"stateMutability": "payable",
					"type": "receive"
				}
			],
			"devdoc": {
				"kind": "dev",
				"methods": {},
				"version": 1
			},
			"evm": {
				"assembly": "    /* \"DeFi \\xe9\\xa2\\x84\\xe5\\x94\\xae\\xe5\\x90\\x88\\xe7\\xba\\xa6\\xef\\xbc\\x88Token Presale with Linear Vesting\\xef\\xbc\\x89/TokenPresale.sol\":260:5563  contract TokenPresale{... */\n  mstore(0x40, 0x0100)\n    /* \"DeFi \\xe9\\xa2\\x84\\xe5\\x94\\xae\\xe5\\x90\\x88\\xe7\\xba\\xa6\\xef\\xbc\\x88Token Presale with Linear Vesting\\xef\\xbc\\x89/TokenPresale.sol\":1383:1692  constructor(){... */\n  callvalue\n  dup1\n  iszero\n  tag_1\n  jumpi\n  0x00\n  dup1\n  revert\ntag_1:\n  pop\n    /* \"DeFi \\xe9\\xa2\\x84\\xe5\\x94\\xae\\xe5\\x90\\x88\\xe7\\xba\\xa6\\xef\\xbc\\x88Token Presale with Linear Vesting\\xef\\xbc\\x89/TokenPresale.sol\":1414:1424  msg.sender */\n  caller\n    /* \"DeFi \\xe9\\xa2\\x84\\xe5\\x94\\xae\\xe5\\x90\\x88\\xe7\\xba\\xa6\\xef\\xbc\\x88Token Presale with Linear Vesting\\xef\\xbc\\x89/TokenPresale.sol\":1406:1424  owner = msg.sender */\n  0xffffffffffffffffffffffffffffffffffffffff\n  and\n  0x80\n  dup2\n  0xffffffffffffffffffffffffffffffffffffffff\n  and\n  dup2\n  mstore\n  pop\n  pop\n    /* \"DeFi \\xe9\\xa2\\x84\\xe5\\x94\\xae\\xe5\\x90\\x88\\xe7\\xba\\xa6\\xef\\xbc\\x88Token Presale with Linear Vesting\\xef\\xbc\\x89/TokenPresale.sol\":1469:1474  30*60 */\n  0x0708\n    /* \"DeFi \\xe9\\xa2\\x84\\xe5\\x94\\xae\\xe5\\x90\\x88\\xe7\\xba\\xa6\\xef\\xbc\\x88Token Presale with Linear Vesting\\xef\\xbc\\x89/TokenPresale.sol\":1451:1466  block.timestamp */\n  timestamp\n    /* \"DeFi \\xe9\\xa2\\x84\\xe5\\x94\\xae\\xe5\\x90\\x88\\xe7\\xba\\xa6\\xef\\xbc\\x88Token Presale with Linear Vesting\\xef\\xbc\\x89/TokenPresale.sol\":1451:1474  block.timestamp + 30*60 */\n  tag_4\n  swap2\n  swap1\n  tag_5\n  jump\t// in\ntag_4:\n    /* \"DeFi \\xe9\\xa2\\x84\\xe5\\x94\\xae\\xe5\\x90\\x88\\xe7\\xba\\xa6\\xef\\xbc\\x88Token Presale with Linear Vesting\\xef\\xbc\\x89/TokenPresale.sol\":1434:1474  presaleEndTime = block.timestamp + 30*60 */\n  0xa0\n  dup2\n  dup2\n  mstore\n  pop\n  pop\n    /* \"DeFi \\xe9\\xa2\\x84\\xe5\\x94\\xae\\xe5\\x90\\x88\\xe7\\xba\\xa6\\xef\\xbc\\x88Token Presale with Linear Vesting\\xef\\xbc\\x89/TokenPresale.sol\":1505:1514  50 * 1e18 */\n  0x02b5e3af16b1880000\n    /* \"DeFi \\xe9\\xa2\\x84\\xe5\\x94\\xae\\xe5\\x90\\x88\\xe7\\xba\\xa6\\xef\\xbc\\x88Token Presale with Linear Vesting\\xef\\xbc\\x89/TokenPresale.sol\":1493:1514  goalInUsd = 50 * 1e18 */\n  0xc0\n  dup2\n  dup2\n  mstore\n  pop\n  pop\n    /* \"DeFi \\xe9\\xa2\\x84\\xe5\\x94\\xae\\xe5\\x90\\x88\\xe7\\xba\\xa6\\xef\\xbc\\x88Token Presale with Linear Vesting\\xef\\xbc\\x89/TokenPresale.sol\":1653:1656  100 */\n  0x64\n    /* \"DeFi \\xe9\\xa2\\x84\\xe5\\x94\\xae\\xe5\\x90\\x88\\xe7\\xba\\xa6\\xef\\xbc\\x88Token Presale with Linear Vesting\\xef\\xbc\\x89/TokenPresale.sol\":1635:1656  tokenPerUsdRate = 100 */\n  0xe0\n  dup2\n  dup2\n  mstore\n  pop\n  pop\n    /* \"DeFi \\xe9\\xa2\\x84\\xe5\\x94\\xae\\xe5\\x90\\x88\\xe7\\xba\\xa6\\xef\\xbc\\x88Token Presale with Linear Vesting\\xef\\xbc\\x89/TokenPresale.sol\":260:5563  contract TokenPresale{... */\n  jump(tag_6)\n    /* \"#utility.yul\":7:84   */\ntag_7:\n    /* \"#utility.yul\":44:51   */\n  0x00\n    /* \"#utility.yul\":73:78   */\n  dup2\n    /* \"#utility.yul\":62:78   */\n  swap1\n  pop\n    /* \"#utility.yul\":7:84   */\n  swap2\n  swap1\n  pop\n  jump\t// out\n    /* \"#utility.yul\":90:270   */\ntag_8:\n    /* \"#utility.yul\":138:215   */\n  0x4e487b7100000000000000000000000000000000000000000000000000000000\n    /* \"#utility.yul\":135:136   */\n  0x00\n    /* \"#utility.yul\":128:216   */\n  mstore\n    /* \"#utility.yul\":235:239   */\n  0x11\n    /* \"#utility.yul\":232:233   */\n  0x04\n    /* \"#utility.yul\":225:240   */\n  mstore\n    /* \"#utility.yul\":259:263   */\n  0x24\n    /* \"#utility.yul\":256:257   */\n  0x00\n    /* \"#utility.yul\":249:264   */\n  revert\n    /* \"#utility.yul\":276:467   */\ntag_5:\n    /* \"#utility.yul\":316:319   */\n  0x00\n    /* \"#utility.yul\":335:355   */\n  tag_13\n    /* \"#utility.yul\":353:354   */\n  dup3\n    /* \"#utility.yul\":335:355   */\n  tag_7\n  jump\t// in\ntag_13:\n    /* \"#utility.yul\":330:355   */\n  swap2\n  pop\n    /* \"#utility.yul\":369:389   */\n  tag_14\n    /* \"#utility.yul\":387:388   */\n  dup4\n    /* \"#utility.yul\":369:389   */\n  tag_7\n  jump\t// in\ntag_14:\n    /* \"#utility.yul\":364:389   */\n  swap3\n  pop\n    /* \"#utility.yul\":412:413   */\n  dup3\n    /* \"#utility.yul\":409:410   */\n  dup3\n    /* \"#utility.yul\":405:414   */\n  add\n    /* \"#utility.yul\":398:414   */\n  swap1\n  pop\n    /* \"#utility.yul\":433:436   */\n  dup1\n    /* \"#utility.yul\":430:431   */\n  dup3\n    /* \"#utility.yul\":427:437   */\n  gt\n    /* \"#utility.yul\":424:460   */\n  iszero\n  tag_15\n  jumpi\n    /* \"#utility.yul\":440:458   */\n  tag_16\n  tag_8\n  jump\t// in\ntag_16:\n    /* \"#utility.yul\":424:460   */\ntag_15:\n    /* \"#utility.yul\":276:467   */\n  swap3\n  swap2\n  pop\n  pop\n  jump\t// out\n    /* \"DeFi \\xe9\\xa2\\x84\\xe5\\x94\\xae\\xe5\\x90\\x88\\xe7\\xba\\xa6\\xef\\xbc\\x88Token Presale with Linear Vesting\\xef\\xbc\\x89/TokenPresale.sol\":260:5563  contract TokenPresale{... */\ntag_6:\n  mload(0x80)\n  mload(0xa0)\n  mload(0xc0)\n  mload(0xe0)\n  codecopy(0x00, dataOffset(sub_0), dataSize(sub_0))\n  0x00\n  assignImmutable(\"0x7d4579ab3c781860520f730aa471b37a7366c1c6efb6e34470da23130f5149f7\")\n  0x00\n  assignImmutable(\"0xde838e9e0a4b3e84cad3a9d39f9fe437c20f318b30d3166f08c0cdbee96032ab\")\n  0x00\n  assignImmutable(\"0xb811eb8190fe00dc85563459f7e9e4ba4c2ef31ddac91e9e2d37d1e7e1b1d5bc\")\n  0x00\n  assignImmutable(\"0xe41a685dc3df81383d452481451b89eb3f69781b836c19936fa9714a13d1c9c2\")\n  return(0x00, dataSize(sub_0))\nstop\n\nsub_0: assembly {\n        /* \"DeFi \\xe9\\xa2\\x84\\xe5\\x94\\xae\\xe5\\x90\\x88\\xe7\\xba\\xa6\\xef\\xbc\\x88Token Presale with Linear Vesting\\xef\\xbc\\x89/TokenPresale.sol\":260:5563  contract TokenPresale{... */\n      mstore(0x40, 0x80)\n      jumpi(tag_1, lt(calldatasize, 0x04))\n      shr(0xe0, calldataload(0x00))\n      dup1\n      0x5c975abb\n      gt\n      tag_24\n      jumpi\n      dup1\n      0xb60d4288\n      gt\n      tag_25\n      jumpi\n      dup1\n      0xb60d4288\n      eq\n      tag_18\n      jumpi\n      dup1\n      0xc9aa4768\n      eq\n      tag_19\n      jumpi\n      dup1\n      0xda440b61\n      eq\n      tag_20\n      jumpi\n      dup1\n      0xe086e5ec\n      eq\n      tag_21\n      jumpi\n      dup1\n      0xe48d3c24\n      eq\n      tag_22\n      jumpi\n      dup1\n      0xf30e5b26\n      eq\n      tag_23\n      jumpi\n      jump(tag_2)\n    tag_25:\n      dup1\n      0x5c975abb\n      eq\n      tag_13\n      jumpi\n      dup1\n      0x6386c1c7\n      eq\n      tag_14\n      jumpi\n      dup1\n      0x8456cb59\n      eq\n      tag_15\n      jumpi\n      dup1\n      0x8a1fcd60\n      eq\n      tag_16\n      jumpi\n      dup1\n      0x8da5cb5b\n      eq\n      tag_17\n      jumpi\n      jump(tag_2)\n    tag_24:\n      dup1\n      0x304cfa99\n      gt\n      tag_26\n      jumpi\n      dup1\n      0x304cfa99\n      eq\n      tag_8\n      jumpi\n      dup1\n      0x3cb5d100\n      eq\n      tag_9\n      jumpi\n      dup1\n      0x3f4ba83a\n      eq\n      tag_10\n      jumpi\n      dup1\n      0x48c54b9d\n      eq\n      tag_11\n      jumpi\n      dup1\n      0x4ad82cf3\n      eq\n      tag_12\n      jumpi\n      jump(tag_2)\n    tag_26:\n      dup1\n      0x13c58a\n      eq\n      tag_3\n      jumpi\n      dup1\n      0x205b1946\n      eq\n      tag_4\n      jumpi\n      dup1\n      0x249b7c19\n      eq\n      tag_5\n      jumpi\n      dup1\n      0x2cea9442\n      eq\n      tag_6\n      jumpi\n      dup1\n      0x2e0d45aa\n      eq\n      tag_7\n      jumpi\n      jump(tag_2)\n    tag_1:\n      jumpi(tag_2, calldatasize)\n        /* \"DeFi \\xe9\\xa2\\x84\\xe5\\x94\\xae\\xe5\\x90\\x88\\xe7\\xba\\xa6\\xef\\xbc\\x88Token Presale with Linear Vesting\\xef\\xbc\\x89/TokenPresale.sol\":5507:5513  fund() */\n      tag_29\n        /* \"DeFi \\xe9\\xa2\\x84\\xe5\\x94\\xae\\xe5\\x90\\x88\\xe7\\xba\\xa6\\xef\\xbc\\x88Token Presale with Linear Vesting\\xef\\xbc\\x89/TokenPresale.sol\":5507:5511  fund */\n      tag_30\n        /* \"DeFi \\xe9\\xa2\\x84\\xe5\\x94\\xae\\xe5\\x90\\x88\\xe7\\xba\\xa6\\xef\\xbc\\x88Token Presale with Linear Vesting\\xef\\xbc\\x89/TokenPresale.sol\":5507:5513  fund() */\n      jump\t// in\n    tag_29:\n        /* \"DeFi \\xe9\\xa2\\x84\\xe5\\x94\\xae\\xe5\\x90\\x88\\xe7\\xba\\xa6\\xef\\xbc\\x88Token Presale with Linear Vesting\\xef\\xbc\\x89/TokenPresale.sol\":260:5563  contract TokenPresale{... */\n      stop\n    tag_2:\n        /* \"DeFi \\xe9\\xa2\\x84\\xe5\\x94\\xae\\xe5\\x90\\x88\\xe7\\xba\\xa6\\xef\\xbc\\x88Token Presale with Linear Vesting\\xef\\xbc\\x89/TokenPresale.sol\":5551:5557  fund() */\n      tag_33\n        /* \"DeFi \\xe9\\xa2\\x84\\xe5\\x94\\xae\\xe5\\x90\\x88\\xe7\\xba\\xa6\\xef\\xbc\\x88Token Presale with Linear Vesting\\xef\\xbc\\x89/TokenPresale.sol\":5551:5555  fund */\n      tag_30\n        /* \"DeFi \\xe9\\xa2\\x84\\xe5\\x94\\xae\\xe5\\x90\\x88\\xe7\\xba\\xa6\\xef\\xbc\\x88Token Presale with Linear Vesting\\xef\\xbc\\x89/TokenPresale.sol\":5551:5557  fund() */\n      jump\t// in\n    tag_33:\n        /* \"DeFi \\xe9\\xa2\\x84\\xe5\\x94\\xae\\xe5\\x90\\x88\\xe7\\xba\\xa6\\xef\\xbc\\x88Token Presale with Linear Vesting\\xef\\xbc\\x89/TokenPresale.sol\":260:5563  contract TokenPresale{... */\n      stop\n        /* \"DeFi \\xe9\\xa2\\x84\\xe5\\x94\\xae\\xe5\\x90\\x88\\xe7\\xba\\xa6\\xef\\xbc\\x88Token Presale with Linear Vesting\\xef\\xbc\\x89/TokenPresale.sol\":413:447  uint256 public immutable goalInUsd */\n    tag_3:\n      callvalue\n      dup1\n      iszero\n      tag_34\n      jumpi\n      0x00\n      dup1\n      revert\n    tag_34:\n      pop\n      tag_35\n      tag_36\n      jump\t// in\n    tag_35:\n      mload(0x40)\n      tag_37\n      swap2\n      swap1\n      tag_38\n      jump\t// in\n    tag_37:\n      mload(0x40)\n      dup1\n      swap2\n      sub\n      swap1\n      return\n        /* \"DeFi \\xe9\\xa2\\x84\\xe5\\x94\\xae\\xe5\\x90\\x88\\xe7\\xba\\xa6\\xef\\xbc\\x88Token Presale with Linear Vesting\\xef\\xbc\\x89/TokenPresale.sol\":1131:1177  mapping(address => bool) public hasContributed */\n    tag_4:\n      callvalue\n      dup1\n      iszero\n      tag_39\n      jumpi\n      0x00\n      dup1\n      revert\n    tag_39:\n      pop\n      tag_40\n      0x04\n      dup1\n      calldatasize\n      sub\n      dup2\n      add\n      swap1\n      tag_41\n      swap2\n      swap1\n      tag_42\n      jump\t// in\n    tag_41:\n      tag_43\n      jump\t// in\n    tag_40:\n      mload(0x40)\n      tag_44\n      swap2\n      swap1\n      tag_45\n      jump\t// in\n    tag_44:\n      mload(0x40)\n      dup1\n      swap2\n      sub\n      swap1\n      return\n        /* \"DeFi \\xe9\\xa2\\x84\\xe5\\x94\\xae\\xe5\\x90\\x88\\xe7\\xba\\xa6\\xef\\xbc\\x88Token Presale with Linear Vesting\\xef\\xbc\\x89/TokenPresale.sol\":343:382  uint256 public immutable presaleEndTime */\n    tag_5:\n      callvalue\n      dup1\n      iszero\n      tag_46\n      jumpi\n      0x00\n      dup1\n      revert\n    tag_46:\n      pop\n      tag_47\n      tag_48\n      jump\t// in\n    tag_47:\n      mload(0x40)\n      tag_49\n      swap2\n      swap1\n      tag_38\n      jump\t// in\n    tag_49:\n      mload(0x40)\n      dup1\n      swap2\n      sub\n      swap1\n      return\n        /* \"DeFi \\xe9\\xa2\\x84\\xe5\\x94\\xae\\xe5\\x90\\x88\\xe7\\xba\\xa6\\xef\\xbc\\x88Token Presale with Linear Vesting\\xef\\xbc\\x89/TokenPresale.sol\":482:511  uint256 public totalUsdRaised */\n    tag_6:\n      callvalue\n      dup1\n      iszero\n      tag_50\n      jumpi\n      0x00\n      dup1\n      revert\n    tag_50:\n      pop\n      tag_51\n      tag_52\n      jump\t// in\n    tag_51:\n      mload(0x40)\n      tag_53\n      swap2\n      swap1\n      tag_38\n      jump\t// in\n    tag_53:\n      mload(0x40)\n      dup1\n      swap2\n      sub\n      swap1\n      return\n        /* \"DeFi \\xe9\\xa2\\x84\\xe5\\x94\\xae\\xe5\\x90\\x88\\xe7\\xba\\xa6\\xef\\xbc\\x88Token Presale with Linear Vesting\\xef\\xbc\\x89/TokenPresale.sol\":619:659  uint256 public immutable tokenPerUsdRate */\n    tag_7:\n      callvalue\n      dup1\n      iszero\n      tag_54\n      jumpi\n      0x00\n      dup1\n      revert\n    tag_54:\n      pop\n      tag_55\n      tag_56\n      jump\t// in\n    tag_55:\n      mload(0x40)\n      tag_57\n      swap2\n      swap1\n      tag_38\n      jump\t// in\n    tag_57:\n      mload(0x40)\n      dup1\n      swap2\n      sub\n      swap1\n      return\n        /* \"DeFi \\xe9\\xa2\\x84\\xe5\\x94\\xae\\xe5\\x90\\x88\\xe7\\xba\\xa6\\xef\\xbc\\x88Token Presale with Linear Vesting\\xef\\xbc\\x89/TokenPresale.sol\":3959:4463  function getTokenClaimable(address user) public view canClaim returns (uint256){... */\n    tag_8:\n      callvalue\n      dup1\n      iszero\n      tag_58\n      jumpi\n      0x00\n      dup1\n      revert\n    tag_58:\n      pop\n      tag_59\n      0x04\n      dup1\n      calldatasize\n      sub\n      dup2\n      add\n      swap1\n      tag_60\n      swap2\n      swap1\n      tag_42\n      jump\t// in\n    tag_60:\n      tag_61\n      jump\t// in\n    tag_59:\n      mload(0x40)\n      tag_62\n      swap2\n      swap1\n      tag_38\n      jump\t// in\n    tag_62:\n      mload(0x40)\n      dup1\n      swap2\n      sub\n      swap1\n      return\n        /* \"DeFi \\xe9\\xa2\\x84\\xe5\\x94\\xae\\xe5\\x90\\x88\\xe7\\xba\\xa6\\xef\\xbc\\x88Token Presale with Linear Vesting\\xef\\xbc\\x89/TokenPresale.sol\":1050:1079  address[] public contributors */\n    tag_9:\n      callvalue\n      dup1\n      iszero\n      tag_63\n      jumpi\n      0x00\n      dup1\n      revert\n    tag_63:\n      pop\n      tag_64\n      0x04\n      dup1\n      calldatasize\n      sub\n      dup2\n      add\n      swap1\n      tag_65\n      swap2\n      swap1\n      tag_66\n      jump\t// in\n    tag_65:\n      tag_67\n      jump\t// in\n    tag_64:\n      mload(0x40)\n      tag_68\n      swap2\n      swap1\n      tag_69\n      jump\t// in\n    tag_68:\n      mload(0x40)\n      dup1\n      swap2\n      sub\n      swap1\n      return\n        /* \"DeFi \\xe9\\xa2\\x84\\xe5\\x94\\xae\\xe5\\x90\\x88\\xe7\\xba\\xa6\\xef\\xbc\\x88Token Presale with Linear Vesting\\xef\\xbc\\x89/TokenPresale.sol\":2982:3051  function unpause() external onlyOwner {... */\n    tag_10:\n      callvalue\n      dup1\n      iszero\n      tag_70\n      jumpi\n      0x00\n      dup1\n      revert\n    tag_70:\n      pop\n      tag_71\n      tag_72\n      jump\t// in\n    tag_71:\n      stop\n        /* \"DeFi \\xe9\\xa2\\x84\\xe5\\x94\\xae\\xe5\\x90\\x88\\xe7\\xba\\xa6\\xef\\xbc\\x88Token Presale with Linear Vesting\\xef\\xbc\\x89/TokenPresale.sol\":4545:4939  function claimTokens() public canClaim{... */\n    tag_11:\n      callvalue\n      dup1\n      iszero\n      tag_73\n      jumpi\n      0x00\n      dup1\n      revert\n    tag_73:\n      pop\n      tag_74\n      tag_75\n      jump\t// in\n    tag_74:\n      stop\n        /* \"DeFi \\xe9\\xa2\\x84\\xe5\\x94\\xae\\xe5\\x90\\x88\\xe7\\xba\\xa6\\xef\\xbc\\x88Token Presale with Linear Vesting\\xef\\xbc\\x89/TokenPresale.sol\":958:1010  mapping(address => uint256) public userClaimedTokens */\n    tag_12:\n      callvalue\n      dup1\n      iszero\n      tag_76\n      jumpi\n      0x00\n      dup1\n      revert\n    tag_76:\n      pop\n      tag_77\n      0x04\n      dup1\n      calldatasize\n      sub\n      dup2\n      add\n      swap1\n      tag_78\n      swap2\n      swap1\n      tag_42\n      jump\t// in\n    tag_78:\n      tag_79\n      jump\t// in\n    tag_77:\n      mload(0x40)\n      tag_80\n      swap2\n      swap1\n      tag_38\n      jump\t// in\n    tag_80:\n      mload(0x40)\n      dup1\n      swap2\n      sub\n      swap1\n      return\n        /* \"DeFi \\xe9\\xa2\\x84\\xe5\\x94\\xae\\xe5\\x90\\x88\\xe7\\xba\\xa6\\xef\\xbc\\x88Token Presale with Linear Vesting\\xef\\xbc\\x89/TokenPresale.sol\":1298:1316  bool public paused */\n    tag_13:\n      callvalue\n      dup1\n      iszero\n      tag_81\n      jumpi\n      0x00\n      dup1\n      revert\n    tag_81:\n      pop\n      tag_82\n      tag_83\n      jump\t// in\n    tag_82:\n      mload(0x40)\n      tag_84\n      swap2\n      swap1\n      tag_45\n      jump\t// in\n    tag_84:\n      mload(0x40)\n      dup1\n      swap2\n      sub\n      swap1\n      return\n        /* \"DeFi \\xe9\\xa2\\x84\\xe5\\x94\\xae\\xe5\\x90\\x88\\xe7\\xba\\xa6\\xef\\xbc\\x88Token Presale with Linear Vesting\\xef\\xbc\\x89/TokenPresale.sol\":5215:5405  function getUserInfo(address user) public view returns (uint256, uint256, uint256){... */\n    tag_14:\n      callvalue\n      dup1\n      iszero\n      tag_85\n      jumpi\n      0x00\n      dup1\n      revert\n    tag_85:\n      pop\n      tag_86\n      0x04\n      dup1\n      calldatasize\n      sub\n      dup2\n      add\n      swap1\n      tag_87\n      swap2\n      swap1\n      tag_42\n      jump\t// in\n    tag_87:\n      tag_88\n      jump\t// in\n    tag_86:\n      mload(0x40)\n      tag_89\n      swap4\n      swap3\n      swap2\n      swap1\n      tag_90\n      jump\t// in\n    tag_89:\n      mload(0x40)\n      dup1\n      swap2\n      sub\n      swap1\n      return\n        /* \"DeFi \\xe9\\xa2\\x84\\xe5\\x94\\xae\\xe5\\x90\\x88\\xe7\\xba\\xa6\\xef\\xbc\\x88Token Presale with Linear Vesting\\xef\\xbc\\x89/TokenPresale.sol\":2910:2976  function pause() external onlyOwner {... */\n    tag_15:\n      callvalue\n      dup1\n      iszero\n      tag_91\n      jumpi\n      0x00\n      dup1\n      revert\n    tag_91:\n      pop\n      tag_92\n      tag_93\n      jump\t// in\n    tag_92:\n      stop\n        /* \"DeFi \\xe9\\xa2\\x84\\xe5\\x94\\xae\\xe5\\x90\\x88\\xe7\\xba\\xa6\\xef\\xbc\\x88Token Presale with Linear Vesting\\xef\\xbc\\x89/TokenPresale.sol\":786:833  uint256 public constant unlockDuration = 1 days */\n    tag_16:\n      callvalue\n      dup1\n      iszero\n      tag_94\n      jumpi\n      0x00\n      dup1\n      revert\n    tag_94:\n      pop\n      tag_95\n      tag_96\n      jump\t// in\n    tag_95:\n      mload(0x40)\n      tag_97\n      swap2\n      swap1\n      tag_38\n      jump\t// in\n    tag_97:\n      mload(0x40)\n      dup1\n      swap2\n      sub\n      swap1\n      return\n        /* \"DeFi \\xe9\\xa2\\x84\\xe5\\x94\\xae\\xe5\\x90\\x88\\xe7\\xba\\xa6\\xef\\xbc\\x88Token Presale with Linear Vesting\\xef\\xbc\\x89/TokenPresale.sol\":288:318  address public immutable owner */\n    tag_17:\n      callvalue\n      dup1\n      iszero\n      tag_98\n      jumpi\n      0x00\n      dup1\n      revert\n    tag_98:\n      pop\n      tag_99\n      tag_100\n      jump\t// in\n    tag_99:\n      mload(0x40)\n      tag_101\n      swap2\n      swap1\n      tag_69\n      jump\t// in\n    tag_101:\n      mload(0x40)\n      dup1\n      swap2\n      sub\n      swap1\n      return\n        /* \"DeFi \\xe9\\xa2\\x84\\xe5\\x94\\xae\\xe5\\x90\\x88\\xe7\\xba\\xa6\\xef\\xbc\\x88Token Presale with Linear Vesting\\xef\\xbc\\x89/TokenPresale.sol\":1788:2474  function fund() public payable notPaused{... */\n    tag_18:\n      tag_102\n      tag_30\n      jump\t// in\n    tag_102:\n      stop\n        /* \"DeFi \\xe9\\xa2\\x84\\xe5\\x94\\xae\\xe5\\x90\\x88\\xe7\\xba\\xa6\\xef\\xbc\\x88Token Presale with Linear Vesting\\xef\\xbc\\x89/TokenPresale.sol\":722:752  uint256 public unlockStartTime */\n    tag_19:\n      callvalue\n      dup1\n      iszero\n      tag_103\n      jumpi\n      0x00\n      dup1\n      revert\n    tag_103:\n      pop\n      tag_104\n      tag_105\n      jump\t// in\n    tag_104:\n      mload(0x40)\n      tag_106\n      swap2\n      swap1\n      tag_38\n      jump\t// in\n    tag_106:\n      mload(0x40)\n      dup1\n      swap2\n      sub\n      swap1\n      return\n        /* \"DeFi \\xe9\\xa2\\x84\\xe5\\x94\\xae\\xe5\\x90\\x88\\xe7\\xba\\xa6\\xef\\xbc\\x88Token Presale with Linear Vesting\\xef\\xbc\\x89/TokenPresale.sol\":1214:1261  mapping (address => uint) public userTotalToken */\n    tag_20:\n      callvalue\n      dup1\n      iszero\n      tag_107\n      jumpi\n      0x00\n      dup1\n      revert\n    tag_107:\n      pop\n      tag_108\n      0x04\n      dup1\n      calldatasize\n      sub\n      dup2\n      add\n      swap1\n      tag_109\n      swap2\n      swap1\n      tag_42\n      jump\t// in\n    tag_109:\n      tag_110\n      jump\t// in\n    tag_108:\n      mload(0x40)\n      tag_111\n      swap2\n      swap1\n      tag_38\n      jump\t// in\n    tag_111:\n      mload(0x40)\n      dup1\n      swap2\n      sub\n      swap1\n      return\n        /* \"DeFi \\xe9\\xa2\\x84\\xe5\\x94\\xae\\xe5\\x90\\x88\\xe7\\xba\\xa6\\xef\\xbc\\x88Token Presale with Linear Vesting\\xef\\xbc\\x89/TokenPresale.sol\":3111:3414  function withdrawETH() public payable onlyOwner canWithdraw{... */\n    tag_21:\n      tag_112\n      tag_113\n      jump\t// in\n    tag_112:\n      stop\n        /* \"DeFi \\xe9\\xa2\\x84\\xe5\\x94\\xae\\xe5\\x90\\x88\\xe7\\xba\\xa6\\xef\\xbc\\x88Token Presale with Linear Vesting\\xef\\xbc\\x89/TokenPresale.sol\":858:911  mapping(address => uint256) public userUsdContributed */\n    tag_22:\n      callvalue\n      dup1\n      iszero\n      tag_114\n      jumpi\n      0x00\n      dup1\n      revert\n    tag_114:\n      pop\n      tag_115\n      0x04\n      dup1\n      calldatasize\n      sub\n      dup2\n      add\n      swap1\n      tag_116\n      swap2\n      swap1\n      tag_42\n      jump\t// in\n    tag_116:\n      tag_117\n      jump\t// in\n    tag_115:\n      mload(0x40)\n      tag_118\n      swap2\n      swap1\n      tag_38\n      jump\t// in\n    tag_118:\n      mload(0x40)\n      dup1\n      swap2\n      sub\n      swap1\n      return\n        /* \"DeFi \\xe9\\xa2\\x84\\xe5\\x94\\xae\\xe5\\x90\\x88\\xe7\\xba\\xa6\\xef\\xbc\\x88Token Presale with Linear Vesting\\xef\\xbc\\x89/TokenPresale.sol\":553:579  bool public isClaimEnabled */\n    tag_23:\n      callvalue\n      dup1\n      iszero\n      tag_119\n      jumpi\n      0x00\n      dup1\n      revert\n    tag_119:\n      pop\n      tag_120\n      tag_121\n      jump\t// in\n    tag_120:\n      mload(0x40)\n      tag_122\n      swap2\n      swap1\n      tag_45\n      jump\t// in\n    tag_122:\n      mload(0x40)\n      dup1\n      swap2\n      sub\n      swap1\n      return\n        /* \"DeFi \\xe9\\xa2\\x84\\xe5\\x94\\xae\\xe5\\x90\\x88\\xe7\\xba\\xa6\\xef\\xbc\\x88Token Presale with Linear Vesting\\xef\\xbc\\x89/TokenPresale.sol\":1788:2474  function fund() public payable notPaused{... */\n    tag_30:\n        /* \"DeFi \\xe9\\xa2\\x84\\xe5\\x94\\xae\\xe5\\x90\\x88\\xe7\\xba\\xa6\\xef\\xbc\\x88Token Presale with Linear Vesting\\xef\\xbc\\x89/TokenPresale.sol\":2878:2884  paused */\n      0x08\n      0x00\n      swap1\n      sload\n      swap1\n      0x0100\n      exp\n      swap1\n      div\n      0xff\n      and\n        /* \"DeFi \\xe9\\xa2\\x84\\xe5\\x94\\xae\\xe5\\x90\\x88\\xe7\\xba\\xa6\\xef\\xbc\\x88Token Presale with Linear Vesting\\xef\\xbc\\x89/TokenPresale.sol\":2877:2884  !paused */\n      iszero\n        /* \"DeFi \\xe9\\xa2\\x84\\xe5\\x94\\xae\\xe5\\x90\\x88\\xe7\\xba\\xa6\\xef\\xbc\\x88Token Presale with Linear Vesting\\xef\\xbc\\x89/TokenPresale.sol\":2869:2885  require(!paused) */\n      tag_124\n      jumpi\n      0x00\n      dup1\n      revert\n    tag_124:\n        /* \"DeFi \\xe9\\xa2\\x84\\xe5\\x94\\xae\\xe5\\x90\\x88\\xe7\\xba\\xa6\\xef\\xbc\\x88Token Presale with Linear Vesting\\xef\\xbc\\x89/TokenPresale.sol\":1884:1898  presaleEndTime */\n      immutable(\"0xb811eb8190fe00dc85563459f7e9e4ba4c2ef31ddac91e9e2d37d1e7e1b1d5bc\")\n        /* \"DeFi \\xe9\\xa2\\x84\\xe5\\x94\\xae\\xe5\\x90\\x88\\xe7\\xba\\xa6\\xef\\xbc\\x88Token Presale with Linear Vesting\\xef\\xbc\\x89/TokenPresale.sol\":1866:1881  block.timestamp */\n      timestamp\n        /* \"DeFi \\xe9\\xa2\\x84\\xe5\\x94\\xae\\xe5\\x90\\x88\\xe7\\xba\\xa6\\xef\\xbc\\x88Token Presale with Linear Vesting\\xef\\xbc\\x89/TokenPresale.sol\":1866:1898  block.timestamp > presaleEndTime */\n      gt\n        /* \"DeFi \\xe9\\xa2\\x84\\xe5\\x94\\xae\\xe5\\x90\\x88\\xe7\\xba\\xa6\\xef\\xbc\\x88Token Presale with Linear Vesting\\xef\\xbc\\x89/TokenPresale.sol\":1862:1921  if (block.timestamp > presaleEndTime) revert PresaleEnded() */\n      iszero\n      tag_126\n      jumpi\n        /* \"DeFi \\xe9\\xa2\\x84\\xe5\\x94\\xae\\xe5\\x90\\x88\\xe7\\xba\\xa6\\xef\\xbc\\x88Token Presale with Linear Vesting\\xef\\xbc\\x89/TokenPresale.sol\":1907:1921  PresaleEnded() */\n      mload(0x40)\n      0x1eb1561f00000000000000000000000000000000000000000000000000000000\n      dup2\n      mstore\n      0x04\n      add\n      mload(0x40)\n      dup1\n      swap2\n      sub\n      swap1\n      revert\n        /* \"DeFi \\xe9\\xa2\\x84\\xe5\\x94\\xae\\xe5\\x90\\x88\\xe7\\xba\\xa6\\xef\\xbc\\x88Token Presale with Linear Vesting\\xef\\xbc\\x89/TokenPresale.sol\":1862:1921  if (block.timestamp > presaleEndTime) revert PresaleEnded() */\n    tag_126:\n        /* \"DeFi \\xe9\\xa2\\x84\\xe5\\x94\\xae\\xe5\\x90\\x88\\xe7\\xba\\xa6\\xef\\xbc\\x88Token Presale with Linear Vesting\\xef\\xbc\\x89/TokenPresale.sol\":2002:2011  goalInUsd */\n      immutable(\"0xde838e9e0a4b3e84cad3a9d39f9fe437c20f318b30d3166f08c0cdbee96032ab\")\n        /* \"DeFi \\xe9\\xa2\\x84\\xe5\\x94\\xae\\xe5\\x90\\x88\\xe7\\xba\\xa6\\xef\\xbc\\x88Token Presale with Linear Vesting\\xef\\xbc\\x89/TokenPresale.sol\":1959:1998  totalUsdRaised.getLatestETHPriceInUSD() */\n      tag_127\n        /* \"DeFi \\xe9\\xa2\\x84\\xe5\\x94\\xae\\xe5\\x90\\x88\\xe7\\xba\\xa6\\xef\\xbc\\x88Token Presale with Linear Vesting\\xef\\xbc\\x89/TokenPresale.sol\":1959:1973  totalUsdRaised */\n      sload(0x00)\n        /* \"DeFi \\xe9\\xa2\\x84\\xe5\\x94\\xae\\xe5\\x90\\x88\\xe7\\xba\\xa6\\xef\\xbc\\x88Token Presale with Linear Vesting\\xef\\xbc\\x89/TokenPresale.sol\":1959:1996  totalUsdRaised.getLatestETHPriceInUSD */\n      tag_128\n        /* \"DeFi \\xe9\\xa2\\x84\\xe5\\x94\\xae\\xe5\\x90\\x88\\xe7\\xba\\xa6\\xef\\xbc\\x88Token Presale with Linear Vesting\\xef\\xbc\\x89/TokenPresale.sol\":1959:1998  totalUsdRaised.getLatestETHPriceInUSD() */\n      jump\t// in\n    tag_127:\n        /* \"DeFi \\xe9\\xa2\\x84\\xe5\\x94\\xae\\xe5\\x90\\x88\\xe7\\xba\\xa6\\xef\\xbc\\x88Token Presale with Linear Vesting\\xef\\xbc\\x89/TokenPresale.sol\":1959:2011  totalUsdRaised.getLatestETHPriceInUSD() >= goalInUsd */\n      lt\n        /* \"DeFi \\xe9\\xa2\\x84\\xe5\\x94\\xae\\xe5\\x90\\x88\\xe7\\xba\\xa6\\xef\\xbc\\x88Token Presale with Linear Vesting\\xef\\xbc\\x89/TokenPresale.sol\":1955:2033  if (totalUsdRaised.getLatestETHPriceInUSD() >= goalInUsd) revert GoalReached() */\n      tag_129\n      jumpi\n        /* \"DeFi \\xe9\\xa2\\x84\\xe5\\x94\\xae\\xe5\\x90\\x88\\xe7\\xba\\xa6\\xef\\xbc\\x88Token Presale with Linear Vesting\\xef\\xbc\\x89/TokenPresale.sol\":2020:2033  GoalReached() */\n      mload(0x40)\n      0xf30bb8af00000000000000000000000000000000000000000000000000000000\n      dup2\n      mstore\n      0x04\n      add\n      mload(0x40)\n      dup1\n      swap2\n      sub\n      swap1\n      revert\n        /* \"DeFi \\xe9\\xa2\\x84\\xe5\\x94\\xae\\xe5\\x90\\x88\\xe7\\xba\\xa6\\xef\\xbc\\x88Token Presale with Linear Vesting\\xef\\xbc\\x89/TokenPresale.sol\":1955:2033  if (totalUsdRaised.getLatestETHPriceInUSD() >= goalInUsd) revert GoalReached() */\n    tag_129:\n        /* \"DeFi \\xe9\\xa2\\x84\\xe5\\x94\\xae\\xe5\\x90\\x88\\xe7\\xba\\xa6\\xef\\xbc\\x88Token Presale with Linear Vesting\\xef\\xbc\\x89/TokenPresale.sol\":2044:2058  uint256 minUsd */\n      0x00\n        /* \"DeFi \\xe9\\xa2\\x84\\xe5\\x94\\xae\\xe5\\x90\\x88\\xe7\\xba\\xa6\\xef\\xbc\\x88Token Presale with Linear Vesting\\xef\\xbc\\x89/TokenPresale.sol\":2061:2070  10 * 1e18 */\n      0x8ac7230489e80000\n        /* \"DeFi \\xe9\\xa2\\x84\\xe5\\x94\\xae\\xe5\\x90\\x88\\xe7\\xba\\xa6\\xef\\xbc\\x88Token Presale with Linear Vesting\\xef\\xbc\\x89/TokenPresale.sol\":2044:2070  uint256 minUsd = 10 * 1e18 */\n      swap1\n      pop\n        /* \"DeFi \\xe9\\xa2\\x84\\xe5\\x94\\xae\\xe5\\x90\\x88\\xe7\\xba\\xa6\\xef\\xbc\\x88Token Presale with Linear Vesting\\xef\\xbc\\x89/TokenPresale.sol\":2121:2127  minUsd */\n      dup1\n        /* \"DeFi \\xe9\\xa2\\x84\\xe5\\x94\\xae\\xe5\\x90\\x88\\xe7\\xba\\xa6\\xef\\xbc\\x88Token Presale with Linear Vesting\\xef\\xbc\\x89/TokenPresale.sol\":2084:2118  msg.value.getLatestETHPriceInUSD() */\n      tag_130\n        /* \"DeFi \\xe9\\xa2\\x84\\xe5\\x94\\xae\\xe5\\x90\\x88\\xe7\\xba\\xa6\\xef\\xbc\\x88Token Presale with Linear Vesting\\xef\\xbc\\x89/TokenPresale.sol\":2084:2093  msg.value */\n      callvalue\n        /* \"DeFi \\xe9\\xa2\\x84\\xe5\\x94\\xae\\xe5\\x90\\x88\\xe7\\xba\\xa6\\xef\\xbc\\x88Token Presale with Linear Vesting\\xef\\xbc\\x89/TokenPresale.sol\":2084:2116  msg.value.getLatestETHPriceInUSD */\n      tag_128\n        /* \"DeFi \\xe9\\xa2\\x84\\xe5\\x94\\xae\\xe5\\x90\\x88\\xe7\\xba\\xa6\\xef\\xbc\\x88Token Presale with Linear Vesting\\xef\\xbc\\x89/TokenPresale.sol\":2084:2118  msg.value.getLatestETHPriceInUSD() */\n      jump\t// in\n    tag_130:\n        /* \"DeFi \\xe9\\xa2\\x84\\xe5\\x94\\xae\\xe5\\x90\\x88\\xe7\\xba\\xa6\\xef\\xbc\\x88Token Presale with Linear Vesting\\xef\\xbc\\x89/TokenPresale.sol\":2084:2127  msg.value.getLatestETHPriceInUSD() < minUsd */\n      lt\n        /* \"DeFi \\xe9\\xa2\\x84\\xe5\\x94\\xae\\xe5\\x90\\x88\\xe7\\xba\\xa6\\xef\\xbc\\x88Token Presale with Linear Vesting\\xef\\xbc\\x89/TokenPresale.sol\":2080:2146  if (msg.value.getLatestETHPriceInUSD() < minUsd) revert TooSmall() */\n      iszero\n      tag_131\n      jumpi\n        /* \"DeFi \\xe9\\xa2\\x84\\xe5\\x94\\xae\\xe5\\x90\\x88\\xe7\\xba\\xa6\\xef\\xbc\\x88Token Presale with Linear Vesting\\xef\\xbc\\x89/TokenPresale.sol\":2136:2146  TooSmall() */\n      mload(0x40)\n      0xd313d3a200000000000000000000000000000000000000000000000000000000\n      dup2\n      mstore\n      0x04\n      add\n      mload(0x40)\n      dup1\n      swap2\n      sub\n      swap1\n      revert\n        /* \"DeFi \\xe9\\xa2\\x84\\xe5\\x94\\xae\\xe5\\x90\\x88\\xe7\\xba\\xa6\\xef\\xbc\\x88Token Presale with Linear Vesting\\xef\\xbc\\x89/TokenPresale.sol\":2080:2146  if (msg.value.getLatestETHPriceInUSD() < minUsd) revert TooSmall() */\n    tag_131:\n        /* \"DeFi \\xe9\\xa2\\x84\\xe5\\x94\\xae\\xe5\\x90\\x88\\xe7\\xba\\xa6\\xef\\xbc\\x88Token Presale with Linear Vesting\\xef\\xbc\\x89/TokenPresale.sol\":2162:2176  hasContributed */\n      0x06\n        /* \"DeFi \\xe9\\xa2\\x84\\xe5\\x94\\xae\\xe5\\x90\\x88\\xe7\\xba\\xa6\\xef\\xbc\\x88Token Presale with Linear Vesting\\xef\\xbc\\x89/TokenPresale.sol\":2162:2188  hasContributed[msg.sender] */\n      0x00\n        /* \"DeFi \\xe9\\xa2\\x84\\xe5\\x94\\xae\\xe5\\x90\\x88\\xe7\\xba\\xa6\\xef\\xbc\\x88Token Presale with Linear Vesting\\xef\\xbc\\x89/TokenPresale.sol\":2177:2187  msg.sender */\n      caller\n        /* \"DeFi \\xe9\\xa2\\x84\\xe5\\x94\\xae\\xe5\\x90\\x88\\xe7\\xba\\xa6\\xef\\xbc\\x88Token Presale with Linear Vesting\\xef\\xbc\\x89/TokenPresale.sol\":2162:2188  hasContributed[msg.sender] */\n      0xffffffffffffffffffffffffffffffffffffffff\n      and\n      0xffffffffffffffffffffffffffffffffffffffff\n      and\n      dup2\n      mstore\n      0x20\n      add\n      swap1\n      dup2\n      mstore\n      0x20\n      add\n      0x00\n      keccak256\n      0x00\n      swap1\n      sload\n      swap1\n      0x0100\n      exp\n      swap1\n      div\n      0xff\n      and\n        /* \"DeFi \\xe9\\xa2\\x84\\xe5\\x94\\xae\\xe5\\x90\\x88\\xe7\\xba\\xa6\\xef\\xbc\\x88Token Presale with Linear Vesting\\xef\\xbc\\x89/TokenPresale.sol\":2157:2290  if (!hasContributed[msg.sender]){... */\n      tag_132\n      jumpi\n        /* \"DeFi \\xe9\\xa2\\x84\\xe5\\x94\\xae\\xe5\\x90\\x88\\xe7\\xba\\xa6\\xef\\xbc\\x88Token Presale with Linear Vesting\\xef\\xbc\\x89/TokenPresale.sol\":2232:2236  true */\n      0x01\n        /* \"DeFi \\xe9\\xa2\\x84\\xe5\\x94\\xae\\xe5\\x90\\x88\\xe7\\xba\\xa6\\xef\\xbc\\x88Token Presale with Linear Vesting\\xef\\xbc\\x89/TokenPresale.sol\":2203:2217  hasContributed */\n      0x06\n        /* \"DeFi \\xe9\\xa2\\x84\\xe5\\x94\\xae\\xe5\\x90\\x88\\xe7\\xba\\xa6\\xef\\xbc\\x88Token Presale with Linear Vesting\\xef\\xbc\\x89/TokenPresale.sol\":2203:2229  hasContributed[msg.sender] */\n      0x00\n        /* \"DeFi \\xe9\\xa2\\x84\\xe5\\x94\\xae\\xe5\\x90\\x88\\xe7\\xba\\xa6\\xef\\xbc\\x88Token Presale with Linear Vesting\\xef\\xbc\\x89/TokenPresale.sol\":2218:2228  msg.sender */\n      caller\n        /* \"DeFi \\xe9\\xa2\\x84\\xe5\\x94\\xae\\xe5\\x90\\x88\\xe7\\xba\\xa6\\xef\\xbc\\x88Token Presale with Linear Vesting\\xef\\xbc\\x89/TokenPresale.sol\":2203:2229  hasContributed[msg.sender] */\n      0xffffffffffffffffffffffffffffffffffffffff\n      and\n      0xffffffffffffffffffffffffffffffffffffffff\n      and\n      dup2\n      mstore\n      0x20\n      add\n      swap1\n      dup2\n      mstore\n      0x20\n      add\n      0x00\n      keccak256\n      0x00\n        /* \"DeFi \\xe9\\xa2\\x84\\xe5\\x94\\xae\\xe5\\x90\\x88\\xe7\\xba\\xa6\\xef\\xbc\\x88Token Presale with Linear Vesting\\xef\\xbc\\x89/TokenPresale.sol\":2203:2236  hasContributed[msg.sender] = true */\n      0x0100\n      exp\n      dup2\n      sload\n      dup2\n      0xff\n      mul\n      not\n      and\n      swap1\n      dup4\n      iszero\n      iszero\n      mul\n      or\n      swap1\n      sstore\n      pop\n        /* \"DeFi \\xe9\\xa2\\x84\\xe5\\x94\\xae\\xe5\\x90\\x88\\xe7\\xba\\xa6\\xef\\xbc\\x88Token Presale with Linear Vesting\\xef\\xbc\\x89/TokenPresale.sol\":2250:2262  contributors */\n      0x05\n        /* \"DeFi \\xe9\\xa2\\x84\\xe5\\x94\\xae\\xe5\\x90\\x88\\xe7\\xba\\xa6\\xef\\xbc\\x88Token Presale with Linear Vesting\\xef\\xbc\\x89/TokenPresale.sol\":2268:2278  msg.sender */\n      caller\n        /* \"DeFi \\xe9\\xa2\\x84\\xe5\\x94\\xae\\xe5\\x90\\x88\\xe7\\xba\\xa6\\xef\\xbc\\x88Token Presale with Linear Vesting\\xef\\xbc\\x89/TokenPresale.sol\":2250:2279  contributors.push(msg.sender) */\n      swap1\n      dup1\n      0x01\n      dup2\n      sload\n      add\n      dup1\n      dup3\n      sstore\n      dup1\n      swap2\n      pop\n      pop\n      0x01\n      swap1\n      sub\n      swap1\n      0x00\n      mstore\n      keccak256(0x00, 0x20)\n      add\n      0x00\n      swap1\n      swap2\n      swap1\n      swap2\n      swap1\n      swap2\n      0x0100\n      exp\n      dup2\n      sload\n      dup2\n      0xffffffffffffffffffffffffffffffffffffffff\n      mul\n      not\n      and\n      swap1\n      dup4\n      0xffffffffffffffffffffffffffffffffffffffff\n      and\n      mul\n      or\n      swap1\n      sstore\n      pop\n        /* \"DeFi \\xe9\\xa2\\x84\\xe5\\x94\\xae\\xe5\\x90\\x88\\xe7\\xba\\xa6\\xef\\xbc\\x88Token Presale with Linear Vesting\\xef\\xbc\\x89/TokenPresale.sol\":2157:2290  if (!hasContributed[msg.sender]){... */\n    tag_132:\n        /* \"DeFi \\xe9\\xa2\\x84\\xe5\\x94\\xae\\xe5\\x90\\x88\\xe7\\xba\\xa6\\xef\\xbc\\x88Token Presale with Linear Vesting\\xef\\xbc\\x89/TokenPresale.sol\":2308:2330  uint256 contributedUsd */\n      0x00\n        /* \"DeFi \\xe9\\xa2\\x84\\xe5\\x94\\xae\\xe5\\x90\\x88\\xe7\\xba\\xa6\\xef\\xbc\\x88Token Presale with Linear Vesting\\xef\\xbc\\x89/TokenPresale.sol\":2333:2367  msg.value.getLatestETHPriceInUSD() */\n      tag_134\n        /* \"DeFi \\xe9\\xa2\\x84\\xe5\\x94\\xae\\xe5\\x90\\x88\\xe7\\xba\\xa6\\xef\\xbc\\x88Token Presale with Linear Vesting\\xef\\xbc\\x89/TokenPresale.sol\":2333:2342  msg.value */\n      callvalue\n        /* \"DeFi \\xe9\\xa2\\x84\\xe5\\x94\\xae\\xe5\\x90\\x88\\xe7\\xba\\xa6\\xef\\xbc\\x88Token Presale with Linear Vesting\\xef\\xbc\\x89/TokenPresale.sol\":2333:2365  msg.value.getLatestETHPriceInUSD */\n      tag_128\n        /* \"DeFi \\xe9\\xa2\\x84\\xe5\\x94\\xae\\xe5\\x90\\x88\\xe7\\xba\\xa6\\xef\\xbc\\x88Token Presale with Linear Vesting\\xef\\xbc\\x89/TokenPresale.sol\":2333:2367  msg.value.getLatestETHPriceInUSD() */\n      jump\t// in\n    tag_134:\n        /* \"DeFi \\xe9\\xa2\\x84\\xe5\\x94\\xae\\xe5\\x90\\x88\\xe7\\xba\\xa6\\xef\\xbc\\x88Token Presale with Linear Vesting\\xef\\xbc\\x89/TokenPresale.sol\":2308:2367  uint256 contributedUsd = msg.value.getLatestETHPriceInUSD() */\n      swap1\n      pop\n        /* \"DeFi \\xe9\\xa2\\x84\\xe5\\x94\\xae\\xe5\\x90\\x88\\xe7\\xba\\xa6\\xef\\xbc\\x88Token Presale with Linear Vesting\\xef\\xbc\\x89/TokenPresale.sol\":2411:2425  contributedUsd */\n      dup1\n        /* \"DeFi \\xe9\\xa2\\x84\\xe5\\x94\\xae\\xe5\\x90\\x88\\xe7\\xba\\xa6\\xef\\xbc\\x88Token Presale with Linear Vesting\\xef\\xbc\\x89/TokenPresale.sol\":2377:2395  userUsdContributed */\n      0x03\n        /* \"DeFi \\xe9\\xa2\\x84\\xe5\\x94\\xae\\xe5\\x90\\x88\\xe7\\xba\\xa6\\xef\\xbc\\x88Token Presale with Linear Vesting\\xef\\xbc\\x89/TokenPresale.sol\":2377:2407  userUsdContributed[msg.sender] */\n      0x00\n        /* \"DeFi \\xe9\\xa2\\x84\\xe5\\x94\\xae\\xe5\\x90\\x88\\xe7\\xba\\xa6\\xef\\xbc\\x88Token Presale with Linear Vesting\\xef\\xbc\\x89/TokenPresale.sol\":2396:2406  msg.sender */\n      caller\n        /* \"DeFi \\xe9\\xa2\\x84\\xe5\\x94\\xae\\xe5\\x90\\x88\\xe7\\xba\\xa6\\xef\\xbc\\x88Token Presale with Linear Vesting\\xef\\xbc\\x89/TokenPresale.sol\":2377:2407  userUsdContributed[msg.sender] */\n      0xffffffffffffffffffffffffffffffffffffffff\n      and\n      0xffffffffffffffffffffffffffffffffffffffff\n      and\n      dup2\n      mstore\n      0x20\n      add\n      swap1\n      dup2\n      mstore\n      0x20\n      add\n      0x00\n      keccak256\n      0x00\n        /* \"DeFi \\xe9\\xa2\\x84\\xe5\\x94\\xae\\xe5\\x90\\x88\\xe7\\xba\\xa6\\xef\\xbc\\x88Token Presale with Linear Vesting\\xef\\xbc\\x89/TokenPresale.sol\":2377:2425  userUsdContributed[msg.sender] += contributedUsd */\n      dup3\n      dup3\n      sload\n      tag_135\n      swap2\n      swap1\n      tag_136\n      jump\t// in\n    tag_135:\n      swap3\n      pop\n      pop\n      dup2\n      swap1\n      sstore\n      pop\n        /* \"DeFi \\xe9\\xa2\\x84\\xe5\\x94\\xae\\xe5\\x90\\x88\\xe7\\xba\\xa6\\xef\\xbc\\x88Token Presale with Linear Vesting\\xef\\xbc\\x89/TokenPresale.sol\":2453:2467  contributedUsd */\n      dup1\n        /* \"DeFi \\xe9\\xa2\\x84\\xe5\\x94\\xae\\xe5\\x90\\x88\\xe7\\xba\\xa6\\xef\\xbc\\x88Token Presale with Linear Vesting\\xef\\xbc\\x89/TokenPresale.sol\":2435:2449  totalUsdRaised */\n      0x00\n      dup1\n        /* \"DeFi \\xe9\\xa2\\x84\\xe5\\x94\\xae\\xe5\\x90\\x88\\xe7\\xba\\xa6\\xef\\xbc\\x88Token Presale with Linear Vesting\\xef\\xbc\\x89/TokenPresale.sol\":2435:2467  totalUsdRaised += contributedUsd */\n      dup3\n      dup3\n      sload\n      tag_137\n      swap2\n      swap1\n      tag_136\n      jump\t// in\n    tag_137:\n      swap3\n      pop\n      pop\n      dup2\n      swap1\n      sstore\n      pop\n        /* \"DeFi \\xe9\\xa2\\x84\\xe5\\x94\\xae\\xe5\\x90\\x88\\xe7\\xba\\xa6\\xef\\xbc\\x88Token Presale with Linear Vesting\\xef\\xbc\\x89/TokenPresale.sol\":1828:2474  {... */\n      pop\n      pop\n        /* \"DeFi \\xe9\\xa2\\x84\\xe5\\x94\\xae\\xe5\\x90\\x88\\xe7\\xba\\xa6\\xef\\xbc\\x88Token Presale with Linear Vesting\\xef\\xbc\\x89/TokenPresale.sol\":1788:2474  function fund() public payable notPaused{... */\n      jump\t// out\n        /* \"DeFi \\xe9\\xa2\\x84\\xe5\\x94\\xae\\xe5\\x90\\x88\\xe7\\xba\\xa6\\xef\\xbc\\x88Token Presale with Linear Vesting\\xef\\xbc\\x89/TokenPresale.sol\":413:447  uint256 public immutable goalInUsd */\n    tag_36:\n      immutable(\"0xde838e9e0a4b3e84cad3a9d39f9fe437c20f318b30d3166f08c0cdbee96032ab\")\n      dup2\n      jump\t// out\n        /* \"DeFi \\xe9\\xa2\\x84\\xe5\\x94\\xae\\xe5\\x90\\x88\\xe7\\xba\\xa6\\xef\\xbc\\x88Token Presale with Linear Vesting\\xef\\xbc\\x89/TokenPresale.sol\":1131:1177  mapping(address => bool) public hasContributed */\n    tag_43:\n      mstore(0x20, 0x06)\n      dup1\n      0x00\n      mstore\n      keccak256(0x00, 0x40)\n      0x00\n      swap2\n      pop\n      sload\n      swap1\n      0x0100\n      exp\n      swap1\n      div\n      0xff\n      and\n      dup2\n      jump\t// out\n        /* \"DeFi \\xe9\\xa2\\x84\\xe5\\x94\\xae\\xe5\\x90\\x88\\xe7\\xba\\xa6\\xef\\xbc\\x88Token Presale with Linear Vesting\\xef\\xbc\\x89/TokenPresale.sol\":343:382  uint256 public immutable presaleEndTime */\n    tag_48:\n      immutable(\"0xb811eb8190fe00dc85563459f7e9e4ba4c2ef31ddac91e9e2d37d1e7e1b1d5bc\")\n      dup2\n      jump\t// out\n        /* \"DeFi \\xe9\\xa2\\x84\\xe5\\x94\\xae\\xe5\\x90\\x88\\xe7\\xba\\xa6\\xef\\xbc\\x88Token Presale with Linear Vesting\\xef\\xbc\\x89/TokenPresale.sol\":482:511  uint256 public totalUsdRaised */\n    tag_52:\n      sload(0x00)\n      dup2\n      jump\t// out\n        /* \"DeFi \\xe9\\xa2\\x84\\xe5\\x94\\xae\\xe5\\x90\\x88\\xe7\\xba\\xa6\\xef\\xbc\\x88Token Presale with Linear Vesting\\xef\\xbc\\x89/TokenPresale.sol\":619:659  uint256 public immutable tokenPerUsdRate */\n    tag_56:\n      immutable(\"0x7d4579ab3c781860520f730aa471b37a7366c1c6efb6e34470da23130f5149f7\")\n      dup2\n      jump\t// out\n        /* \"DeFi \\xe9\\xa2\\x84\\xe5\\x94\\xae\\xe5\\x90\\x88\\xe7\\xba\\xa6\\xef\\xbc\\x88Token Presale with Linear Vesting\\xef\\xbc\\x89/TokenPresale.sol\":3959:4463  function getTokenClaimable(address user) public view canClaim returns (uint256){... */\n    tag_61:\n        /* \"DeFi \\xe9\\xa2\\x84\\xe5\\x94\\xae\\xe5\\x90\\x88\\xe7\\xba\\xa6\\xef\\xbc\\x88Token Presale with Linear Vesting\\xef\\xbc\\x89/TokenPresale.sol\":4030:4037  uint256 */\n      0x00\n        /* \"DeFi \\xe9\\xa2\\x84\\xe5\\x94\\xae\\xe5\\x90\\x88\\xe7\\xba\\xa6\\xef\\xbc\\x88Token Presale with Linear Vesting\\xef\\xbc\\x89/TokenPresale.sol\":2778:2792  isClaimEnabled */\n      0x01\n      0x00\n      swap1\n      sload\n      swap1\n      0x0100\n      exp\n      swap1\n      div\n      0xff\n      and\n        /* \"DeFi \\xe9\\xa2\\x84\\xe5\\x94\\xae\\xe5\\x90\\x88\\xe7\\xba\\xa6\\xef\\xbc\\x88Token Presale with Linear Vesting\\xef\\xbc\\x89/TokenPresale.sol\":2773:2816  if (!isClaimEnabled) revert ClaimDisabled() */\n      tag_139\n      jumpi\n        /* \"DeFi \\xe9\\xa2\\x84\\xe5\\x94\\xae\\xe5\\x90\\x88\\xe7\\xba\\xa6\\xef\\xbc\\x88Token Presale with Linear Vesting\\xef\\xbc\\x89/TokenPresale.sol\":2801:2816  ClaimDisabled() */\n      mload(0x40)\n      0x8fab9a5800000000000000000000000000000000000000000000000000000000\n      dup2\n      mstore\n      0x04\n      add\n      mload(0x40)\n      dup1\n      swap2\n      sub\n      swap1\n      revert\n        /* \"DeFi \\xe9\\xa2\\x84\\xe5\\x94\\xae\\xe5\\x90\\x88\\xe7\\xba\\xa6\\xef\\xbc\\x88Token Presale with Linear Vesting\\xef\\xbc\\x89/TokenPresale.sol\":2773:2816  if (!isClaimEnabled) revert ClaimDisabled() */\n    tag_139:\n        /* \"DeFi \\xe9\\xa2\\x84\\xe5\\x94\\xae\\xe5\\x90\\x88\\xe7\\xba\\xa6\\xef\\xbc\\x88Token Presale with Linear Vesting\\xef\\xbc\\x89/TokenPresale.sol\":4088:4103  uint256 elapsed */\n      0x00\n        /* \"DeFi \\xe9\\xa2\\x84\\xe5\\x94\\xae\\xe5\\x90\\x88\\xe7\\xba\\xa6\\xef\\xbc\\x88Token Presale with Linear Vesting\\xef\\xbc\\x89/TokenPresale.sol\":4124:4139  unlockStartTime */\n      sload(0x02)\n        /* \"DeFi \\xe9\\xa2\\x84\\xe5\\x94\\xae\\xe5\\x90\\x88\\xe7\\xba\\xa6\\xef\\xbc\\x88Token Presale with Linear Vesting\\xef\\xbc\\x89/TokenPresale.sol\":4106:4121  block.timestamp */\n      timestamp\n        /* \"DeFi \\xe9\\xa2\\x84\\xe5\\x94\\xae\\xe5\\x90\\x88\\xe7\\xba\\xa6\\xef\\xbc\\x88Token Presale with Linear Vesting\\xef\\xbc\\x89/TokenPresale.sol\":4106:4139  block.timestamp - unlockStartTime */\n      tag_141\n      swap2\n      swap1\n      tag_142\n      jump\t// in\n    tag_141:\n        /* \"DeFi \\xe9\\xa2\\x84\\xe5\\x94\\xae\\xe5\\x90\\x88\\xe7\\xba\\xa6\\xef\\xbc\\x88Token Presale with Linear Vesting\\xef\\xbc\\x89/TokenPresale.sol\":4088:4139  uint256 elapsed = block.timestamp - unlockStartTime */\n      swap1\n      pop\n        /* \"DeFi \\xe9\\xa2\\x84\\xe5\\x94\\xae\\xe5\\x90\\x88\\xe7\\xba\\xa6\\xef\\xbc\\x88Token Presale with Linear Vesting\\xef\\xbc\\x89/TokenPresale.sol\":827:833  1 days */\n      0x015180\n        /* \"DeFi \\xe9\\xa2\\x84\\xe5\\x94\\xae\\xe5\\x90\\x88\\xe7\\xba\\xa6\\xef\\xbc\\x88Token Presale with Linear Vesting\\xef\\xbc\\x89/TokenPresale.sol\":4153:4160  elapsed */\n      dup2\n        /* \"DeFi \\xe9\\xa2\\x84\\xe5\\x94\\xae\\xe5\\x90\\x88\\xe7\\xba\\xa6\\xef\\xbc\\x88Token Presale with Linear Vesting\\xef\\xbc\\x89/TokenPresale.sol\":4153:4177  elapsed > unlockDuration */\n      gt\n        /* \"DeFi \\xe9\\xa2\\x84\\xe5\\x94\\xae\\xe5\\x90\\x88\\xe7\\xba\\xa6\\xef\\xbc\\x88Token Presale with Linear Vesting\\xef\\xbc\\x89/TokenPresale.sol\":4149:4203  if (elapsed > unlockDuration) elapsed = unlockDuration */\n      iszero\n      tag_143\n      jumpi\n        /* \"DeFi \\xe9\\xa2\\x84\\xe5\\x94\\xae\\xe5\\x90\\x88\\xe7\\xba\\xa6\\xef\\xbc\\x88Token Presale with Linear Vesting\\xef\\xbc\\x89/TokenPresale.sol\":827:833  1 days */\n      0x015180\n        /* \"DeFi \\xe9\\xa2\\x84\\xe5\\x94\\xae\\xe5\\x90\\x88\\xe7\\xba\\xa6\\xef\\xbc\\x88Token Presale with Linear Vesting\\xef\\xbc\\x89/TokenPresale.sol\":4179:4203  elapsed = unlockDuration */\n      swap1\n      pop\n        /* \"DeFi \\xe9\\xa2\\x84\\xe5\\x94\\xae\\xe5\\x90\\x88\\xe7\\xba\\xa6\\xef\\xbc\\x88Token Presale with Linear Vesting\\xef\\xbc\\x89/TokenPresale.sol\":4149:4203  if (elapsed > unlockDuration) elapsed = unlockDuration */\n    tag_143:\n        /* \"DeFi \\xe9\\xa2\\x84\\xe5\\x94\\xae\\xe5\\x90\\x88\\xe7\\xba\\xa6\\xef\\xbc\\x88Token Presale with Linear Vesting\\xef\\xbc\\x89/TokenPresale.sol\":4213:4232  uint256 unlockToken */\n      0x00\n        /* \"DeFi \\xe9\\xa2\\x84\\xe5\\x94\\xae\\xe5\\x90\\x88\\xe7\\xba\\xa6\\xef\\xbc\\x88Token Presale with Linear Vesting\\xef\\xbc\\x89/TokenPresale.sol\":827:833  1 days */\n      0x015180\n        /* \"DeFi \\xe9\\xa2\\x84\\xe5\\x94\\xae\\xe5\\x90\\x88\\xe7\\xba\\xa6\\xef\\xbc\\x88Token Presale with Linear Vesting\\xef\\xbc\\x89/TokenPresale.sol\":4259:4266  elapsed */\n      dup3\n        /* \"DeFi \\xe9\\xa2\\x84\\xe5\\x94\\xae\\xe5\\x90\\x88\\xe7\\xba\\xa6\\xef\\xbc\\x88Token Presale with Linear Vesting\\xef\\xbc\\x89/TokenPresale.sol\":4236:4250  userTotalToken */\n      0x07\n        /* \"DeFi \\xe9\\xa2\\x84\\xe5\\x94\\xae\\xe5\\x90\\x88\\xe7\\xba\\xa6\\xef\\xbc\\x88Token Presale with Linear Vesting\\xef\\xbc\\x89/TokenPresale.sol\":4236:4256  userTotalToken[user] */\n      0x00\n        /* \"DeFi \\xe9\\xa2\\x84\\xe5\\x94\\xae\\xe5\\x90\\x88\\xe7\\xba\\xa6\\xef\\xbc\\x88Token Presale with Linear Vesting\\xef\\xbc\\x89/TokenPresale.sol\":4251:4255  user */\n      dup8\n        /* \"DeFi \\xe9\\xa2\\x84\\xe5\\x94\\xae\\xe5\\x90\\x88\\xe7\\xba\\xa6\\xef\\xbc\\x88Token Presale with Linear Vesting\\xef\\xbc\\x89/TokenPresale.sol\":4236:4256  userTotalToken[user] */\n      0xffffffffffffffffffffffffffffffffffffffff\n      and\n      0xffffffffffffffffffffffffffffffffffffffff\n      and\n      dup2\n      mstore\n      0x20\n      add\n      swap1\n      dup2\n      mstore\n      0x20\n      add\n      0x00\n      keccak256\n      sload\n        /* \"DeFi \\xe9\\xa2\\x84\\xe5\\x94\\xae\\xe5\\x90\\x88\\xe7\\xba\\xa6\\xef\\xbc\\x88Token Presale with Linear Vesting\\xef\\xbc\\x89/TokenPresale.sol\":4236:4266  userTotalToken[user] * elapsed */\n      tag_144\n      swap2\n      swap1\n      tag_145\n      jump\t// in\n    tag_144:\n        /* \"DeFi \\xe9\\xa2\\x84\\xe5\\x94\\xae\\xe5\\x90\\x88\\xe7\\xba\\xa6\\xef\\xbc\\x88Token Presale with Linear Vesting\\xef\\xbc\\x89/TokenPresale.sol\":4235:4284  (userTotalToken[user] * elapsed) / unlockDuration */\n      tag_146\n      swap2\n      swap1\n      tag_147\n      jump\t// in\n    tag_146:\n        /* \"DeFi \\xe9\\xa2\\x84\\xe5\\x94\\xae\\xe5\\x90\\x88\\xe7\\xba\\xa6\\xef\\xbc\\x88Token Presale with Linear Vesting\\xef\\xbc\\x89/TokenPresale.sol\":4213:4284  uint256 unlockToken = (userTotalToken[user] * elapsed) / unlockDuration */\n      swap1\n      pop\n        /* \"DeFi \\xe9\\xa2\\x84\\xe5\\x94\\xae\\xe5\\x90\\x88\\xe7\\xba\\xa6\\xef\\xbc\\x88Token Presale with Linear Vesting\\xef\\xbc\\x89/TokenPresale.sol\":4334:4351  uint256 claimable */\n      0x00\n        /* \"DeFi \\xe9\\xa2\\x84\\xe5\\x94\\xae\\xe5\\x90\\x88\\xe7\\xba\\xa6\\xef\\xbc\\x88Token Presale with Linear Vesting\\xef\\xbc\\x89/TokenPresale.sol\":4368:4385  userClaimedTokens */\n      0x04\n        /* \"DeFi \\xe9\\xa2\\x84\\xe5\\x94\\xae\\xe5\\x90\\x88\\xe7\\xba\\xa6\\xef\\xbc\\x88Token Presale with Linear Vesting\\xef\\xbc\\x89/TokenPresale.sol\":4368:4391  userClaimedTokens[user] */\n      0x00\n        /* \"DeFi \\xe9\\xa2\\x84\\xe5\\x94\\xae\\xe5\\x90\\x88\\xe7\\xba\\xa6\\xef\\xbc\\x88Token Presale with Linear Vesting\\xef\\xbc\\x89/TokenPresale.sol\":4386:4390  user */\n      dup7\n        /* \"DeFi \\xe9\\xa2\\x84\\xe5\\x94\\xae\\xe5\\x90\\x88\\xe7\\xba\\xa6\\xef\\xbc\\x88Token Presale with Linear Vesting\\xef\\xbc\\x89/TokenPresale.sol\":4368:4391  userClaimedTokens[user] */\n      0xffffffffffffffffffffffffffffffffffffffff\n      and\n      0xffffffffffffffffffffffffffffffffffffffff\n      and\n      dup2\n      mstore\n      0x20\n      add\n      swap1\n      dup2\n      mstore\n      0x20\n      add\n      0x00\n      keccak256\n      sload\n        /* \"DeFi \\xe9\\xa2\\x84\\xe5\\x94\\xae\\xe5\\x90\\x88\\xe7\\xba\\xa6\\xef\\xbc\\x88Token Presale with Linear Vesting\\xef\\xbc\\x89/TokenPresale.sol\":4354:4365  unlockToken */\n      dup3\n        /* \"DeFi \\xe9\\xa2\\x84\\xe5\\x94\\xae\\xe5\\x90\\x88\\xe7\\xba\\xa6\\xef\\xbc\\x88Token Presale with Linear Vesting\\xef\\xbc\\x89/TokenPresale.sol\":4354:4391  unlockToken - userClaimedTokens[user] */\n      tag_148\n      swap2\n      swap1\n      tag_142\n      jump\t// in\n    tag_148:\n        /* \"DeFi \\xe9\\xa2\\x84\\xe5\\x94\\xae\\xe5\\x90\\x88\\xe7\\xba\\xa6\\xef\\xbc\\x88Token Presale with Linear Vesting\\xef\\xbc\\x89/TokenPresale.sol\":4334:4391  uint256 claimable = unlockToken - userClaimedTokens[user] */\n      swap1\n      pop\n        /* \"DeFi \\xe9\\xa2\\x84\\xe5\\x94\\xae\\xe5\\x90\\x88\\xe7\\xba\\xa6\\xef\\xbc\\x88Token Presale with Linear Vesting\\xef\\xbc\\x89/TokenPresale.sol\":4418:4419  0 */\n      0x00\n        /* \"DeFi \\xe9\\xa2\\x84\\xe5\\x94\\xae\\xe5\\x90\\x88\\xe7\\xba\\xa6\\xef\\xbc\\x88Token Presale with Linear Vesting\\xef\\xbc\\x89/TokenPresale.sol\":4405:4414  claimable */\n      dup2\n        /* \"DeFi \\xe9\\xa2\\x84\\xe5\\x94\\xae\\xe5\\x90\\x88\\xe7\\xba\\xa6\\xef\\xbc\\x88Token Presale with Linear Vesting\\xef\\xbc\\x89/TokenPresale.sol\":4405:4419  claimable <= 0 */\n      gt\n        /* \"DeFi \\xe9\\xa2\\x84\\xe5\\x94\\xae\\xe5\\x90\\x88\\xe7\\xba\\xa6\\xef\\xbc\\x88Token Presale with Linear Vesting\\xef\\xbc\\x89/TokenPresale.sol\":4401:4429  if (claimable <= 0) return 0 */\n      tag_149\n      jumpi\n        /* \"DeFi \\xe9\\xa2\\x84\\xe5\\x94\\xae\\xe5\\x90\\x88\\xe7\\xba\\xa6\\xef\\xbc\\x88Token Presale with Linear Vesting\\xef\\xbc\\x89/TokenPresale.sol\":4428:4429  0 */\n      0x00\n        /* \"DeFi \\xe9\\xa2\\x84\\xe5\\x94\\xae\\xe5\\x90\\x88\\xe7\\xba\\xa6\\xef\\xbc\\x88Token Presale with Linear Vesting\\xef\\xbc\\x89/TokenPresale.sol\":4421:4429  return 0 */\n      swap4\n      pop\n      pop\n      pop\n      pop\n      jump(tag_140)\n        /* \"DeFi \\xe9\\xa2\\x84\\xe5\\x94\\xae\\xe5\\x90\\x88\\xe7\\xba\\xa6\\xef\\xbc\\x88Token Presale with Linear Vesting\\xef\\xbc\\x89/TokenPresale.sol\":4401:4429  if (claimable <= 0) return 0 */\n    tag_149:\n        /* \"DeFi \\xe9\\xa2\\x84\\xe5\\x94\\xae\\xe5\\x90\\x88\\xe7\\xba\\xa6\\xef\\xbc\\x88Token Presale with Linear Vesting\\xef\\xbc\\x89/TokenPresale.sol\":4447:4456  claimable */\n      dup1\n        /* \"DeFi \\xe9\\xa2\\x84\\xe5\\x94\\xae\\xe5\\x90\\x88\\xe7\\xba\\xa6\\xef\\xbc\\x88Token Presale with Linear Vesting\\xef\\xbc\\x89/TokenPresale.sol\":4440:4456  return claimable */\n      swap4\n      pop\n      pop\n      pop\n      pop\n        /* \"DeFi \\xe9\\xa2\\x84\\xe5\\x94\\xae\\xe5\\x90\\x88\\xe7\\xba\\xa6\\xef\\xbc\\x88Token Presale with Linear Vesting\\xef\\xbc\\x89/TokenPresale.sol\":2826:2827  _ */\n    tag_140:\n        /* \"DeFi \\xe9\\xa2\\x84\\xe5\\x94\\xae\\xe5\\x90\\x88\\xe7\\xba\\xa6\\xef\\xbc\\x88Token Presale with Linear Vesting\\xef\\xbc\\x89/TokenPresale.sol\":3959:4463  function getTokenClaimable(address user) public view canClaim returns (uint256){... */\n      swap2\n      swap1\n      pop\n      jump\t// out\n        /* \"DeFi \\xe9\\xa2\\x84\\xe5\\x94\\xae\\xe5\\x90\\x88\\xe7\\xba\\xa6\\xef\\xbc\\x88Token Presale with Linear Vesting\\xef\\xbc\\x89/TokenPresale.sol\":1050:1079  address[] public contributors */\n    tag_67:\n      0x05\n      dup2\n      dup2\n      sload\n      dup2\n      lt\n      tag_150\n      jumpi\n      0x00\n      dup1\n      revert\n    tag_150:\n      swap1\n      0x00\n      mstore\n      keccak256(0x00, 0x20)\n      add\n      0x00\n      swap2\n      pop\n      sload\n      swap1\n      0x0100\n      exp\n      swap1\n      div\n      0xffffffffffffffffffffffffffffffffffffffff\n      and\n      dup2\n      jump\t// out\n        /* \"DeFi \\xe9\\xa2\\x84\\xe5\\x94\\xae\\xe5\\x90\\x88\\xe7\\xba\\xa6\\xef\\xbc\\x88Token Presale with Linear Vesting\\xef\\xbc\\x89/TokenPresale.sol\":2982:3051  function unpause() external onlyOwner {... */\n    tag_72:\n        /* \"DeFi \\xe9\\xa2\\x84\\xe5\\x94\\xae\\xe5\\x90\\x88\\xe7\\xba\\xa6\\xef\\xbc\\x88Token Presale with Linear Vesting\\xef\\xbc\\x89/TokenPresale.sol\":2528:2533  owner */\n      immutable(\"0xe41a685dc3df81383d452481451b89eb3f69781b836c19936fa9714a13d1c9c2\")\n        /* \"DeFi \\xe9\\xa2\\x84\\xe5\\x94\\xae\\xe5\\x90\\x88\\xe7\\xba\\xa6\\xef\\xbc\\x88Token Presale with Linear Vesting\\xef\\xbc\\x89/TokenPresale.sol\":2514:2533  msg.sender != owner */\n      0xffffffffffffffffffffffffffffffffffffffff\n      and\n        /* \"DeFi \\xe9\\xa2\\x84\\xe5\\x94\\xae\\xe5\\x90\\x88\\xe7\\xba\\xa6\\xef\\xbc\\x88Token Presale with Linear Vesting\\xef\\xbc\\x89/TokenPresale.sol\":2514:2524  msg.sender */\n      caller\n        /* \"DeFi \\xe9\\xa2\\x84\\xe5\\x94\\xae\\xe5\\x90\\x88\\xe7\\xba\\xa6\\xef\\xbc\\x88Token Presale with Linear Vesting\\xef\\xbc\\x89/TokenPresale.sol\":2514:2533  msg.sender != owner */\n      0xffffffffffffffffffffffffffffffffffffffff\n      and\n      eq\n        /* \"DeFi \\xe9\\xa2\\x84\\xe5\\x94\\xae\\xe5\\x90\\x88\\xe7\\xba\\xa6\\xef\\xbc\\x88Token Presale with Linear Vesting\\xef\\xbc\\x89/TokenPresale.sol\":2510:2552  if (msg.sender != owner) revert notOwner() */\n      tag_153\n      jumpi\n        /* \"DeFi \\xe9\\xa2\\x84\\xe5\\x94\\xae\\xe5\\x90\\x88\\xe7\\xba\\xa6\\xef\\xbc\\x88Token Presale with Linear Vesting\\xef\\xbc\\x89/TokenPresale.sol\":2542:2552  notOwner() */\n      mload(0x40)\n      0x251c9d6300000000000000000000000000000000000000000000000000000000\n      dup2\n      mstore\n      0x04\n      add\n      mload(0x40)\n      dup1\n      swap2\n      sub\n      swap1\n      revert\n        /* \"DeFi \\xe9\\xa2\\x84\\xe5\\x94\\xae\\xe5\\x90\\x88\\xe7\\xba\\xa6\\xef\\xbc\\x88Token Presale with Linear Vesting\\xef\\xbc\\x89/TokenPresale.sol\":2510:2552  if (msg.sender != owner) revert notOwner() */\n    tag_153:\n        /* \"DeFi \\xe9\\xa2\\x84\\xe5\\x94\\xae\\xe5\\x90\\x88\\xe7\\xba\\xa6\\xef\\xbc\\x88Token Presale with Linear Vesting\\xef\\xbc\\x89/TokenPresale.sol\":3039:3044  false */\n      0x00\n        /* \"DeFi \\xe9\\xa2\\x84\\xe5\\x94\\xae\\xe5\\x90\\x88\\xe7\\xba\\xa6\\xef\\xbc\\x88Token Presale with Linear Vesting\\xef\\xbc\\x89/TokenPresale.sol\":3030:3036  paused */\n      0x08\n      0x00\n        /* \"DeFi \\xe9\\xa2\\x84\\xe5\\x94\\xae\\xe5\\x90\\x88\\xe7\\xba\\xa6\\xef\\xbc\\x88Token Presale with Linear Vesting\\xef\\xbc\\x89/TokenPresale.sol\":3030:3044  paused = false */\n      0x0100\n      exp\n      dup2\n      sload\n      dup2\n      0xff\n      mul\n      not\n      and\n      swap1\n      dup4\n      iszero\n      iszero\n      mul\n      or\n      swap1\n      sstore\n      pop\n        /* \"DeFi \\xe9\\xa2\\x84\\xe5\\x94\\xae\\xe5\\x90\\x88\\xe7\\xba\\xa6\\xef\\xbc\\x88Token Presale with Linear Vesting\\xef\\xbc\\x89/TokenPresale.sol\":2982:3051  function unpause() external onlyOwner {... */\n      jump\t// out\n        /* \"DeFi \\xe9\\xa2\\x84\\xe5\\x94\\xae\\xe5\\x90\\x88\\xe7\\xba\\xa6\\xef\\xbc\\x88Token Presale with Linear Vesting\\xef\\xbc\\x89/TokenPresale.sol\":4545:4939  function claimTokens() public canClaim{... */\n    tag_75:\n        /* \"DeFi \\xe9\\xa2\\x84\\xe5\\x94\\xae\\xe5\\x90\\x88\\xe7\\xba\\xa6\\xef\\xbc\\x88Token Presale with Linear Vesting\\xef\\xbc\\x89/TokenPresale.sol\":2778:2792  isClaimEnabled */\n      0x01\n      0x00\n      swap1\n      sload\n      swap1\n      0x0100\n      exp\n      swap1\n      div\n      0xff\n      and\n        /* \"DeFi \\xe9\\xa2\\x84\\xe5\\x94\\xae\\xe5\\x90\\x88\\xe7\\xba\\xa6\\xef\\xbc\\x88Token Presale with Linear Vesting\\xef\\xbc\\x89/TokenPresale.sol\":2773:2816  if (!isClaimEnabled) revert ClaimDisabled() */\n      tag_156\n      jumpi\n        /* \"DeFi \\xe9\\xa2\\x84\\xe5\\x94\\xae\\xe5\\x90\\x88\\xe7\\xba\\xa6\\xef\\xbc\\x88Token Presale with Linear Vesting\\xef\\xbc\\x89/TokenPresale.sol\":2801:2816  ClaimDisabled() */\n      mload(0x40)\n      0x8fab9a5800000000000000000000000000000000000000000000000000000000\n      dup2\n      mstore\n      0x04\n      add\n      mload(0x40)\n      dup1\n      swap2\n      sub\n      swap1\n      revert\n        /* \"DeFi \\xe9\\xa2\\x84\\xe5\\x94\\xae\\xe5\\x90\\x88\\xe7\\xba\\xa6\\xef\\xbc\\x88Token Presale with Linear Vesting\\xef\\xbc\\x89/TokenPresale.sol\":2773:2816  if (!isClaimEnabled) revert ClaimDisabled() */\n    tag_156:\n        /* \"DeFi \\xe9\\xa2\\x84\\xe5\\x94\\xae\\xe5\\x90\\x88\\xe7\\xba\\xa6\\xef\\xbc\\x88Token Presale with Linear Vesting\\xef\\xbc\\x89/TokenPresale.sol\":4593:4610  uint256 claimable */\n      0x00\n        /* \"DeFi \\xe9\\xa2\\x84\\xe5\\x94\\xae\\xe5\\x90\\x88\\xe7\\xba\\xa6\\xef\\xbc\\x88Token Presale with Linear Vesting\\xef\\xbc\\x89/TokenPresale.sol\":4613:4642  getTokenClaimable(msg.sender) */\n      tag_158\n        /* \"DeFi \\xe9\\xa2\\x84\\xe5\\x94\\xae\\xe5\\x90\\x88\\xe7\\xba\\xa6\\xef\\xbc\\x88Token Presale with Linear Vesting\\xef\\xbc\\x89/TokenPresale.sol\":4631:4641  msg.sender */\n      caller\n        /* \"DeFi \\xe9\\xa2\\x84\\xe5\\x94\\xae\\xe5\\x90\\x88\\xe7\\xba\\xa6\\xef\\xbc\\x88Token Presale with Linear Vesting\\xef\\xbc\\x89/TokenPresale.sol\":4613:4630  getTokenClaimable */\n      tag_61\n        /* \"DeFi \\xe9\\xa2\\x84\\xe5\\x94\\xae\\xe5\\x90\\x88\\xe7\\xba\\xa6\\xef\\xbc\\x88Token Presale with Linear Vesting\\xef\\xbc\\x89/TokenPresale.sol\":4613:4642  getTokenClaimable(msg.sender) */\n      jump\t// in\n    tag_158:\n        /* \"DeFi \\xe9\\xa2\\x84\\xe5\\x94\\xae\\xe5\\x90\\x88\\xe7\\xba\\xa6\\xef\\xbc\\x88Token Presale with Linear Vesting\\xef\\xbc\\x89/TokenPresale.sol\":4593:4642  uint256 claimable = getTokenClaimable(msg.sender) */\n      swap1\n      pop\n        /* \"DeFi \\xe9\\xa2\\x84\\xe5\\x94\\xae\\xe5\\x90\\x88\\xe7\\xba\\xa6\\xef\\xbc\\x88Token Presale with Linear Vesting\\xef\\xbc\\x89/TokenPresale.sol\":4686:4695  claimable */\n      dup1\n        /* \"DeFi \\xe9\\xa2\\x84\\xe5\\x94\\xae\\xe5\\x90\\x88\\xe7\\xba\\xa6\\xef\\xbc\\x88Token Presale with Linear Vesting\\xef\\xbc\\x89/TokenPresale.sol\":4653:4670  userClaimedTokens */\n      0x04\n        /* \"DeFi \\xe9\\xa2\\x84\\xe5\\x94\\xae\\xe5\\x90\\x88\\xe7\\xba\\xa6\\xef\\xbc\\x88Token Presale with Linear Vesting\\xef\\xbc\\x89/TokenPresale.sol\":4653:4682  userClaimedTokens[msg.sender] */\n      0x00\n        /* \"DeFi \\xe9\\xa2\\x84\\xe5\\x94\\xae\\xe5\\x90\\x88\\xe7\\xba\\xa6\\xef\\xbc\\x88Token Presale with Linear Vesting\\xef\\xbc\\x89/TokenPresale.sol\":4671:4681  msg.sender */\n      caller\n        /* \"DeFi \\xe9\\xa2\\x84\\xe5\\x94\\xae\\xe5\\x90\\x88\\xe7\\xba\\xa6\\xef\\xbc\\x88Token Presale with Linear Vesting\\xef\\xbc\\x89/TokenPresale.sol\":4653:4682  userClaimedTokens[msg.sender] */\n      0xffffffffffffffffffffffffffffffffffffffff\n      and\n      0xffffffffffffffffffffffffffffffffffffffff\n      and\n      dup2\n      mstore\n      0x20\n      add\n      swap1\n      dup2\n      mstore\n      0x20\n      add\n      0x00\n      keccak256\n      0x00\n        /* \"DeFi \\xe9\\xa2\\x84\\xe5\\x94\\xae\\xe5\\x90\\x88\\xe7\\xba\\xa6\\xef\\xbc\\x88Token Presale with Linear Vesting\\xef\\xbc\\x89/TokenPresale.sol\":4653:4695  userClaimedTokens[msg.sender] += claimable */\n      dup3\n      dup3\n      sload\n      tag_159\n      swap2\n      swap1\n      tag_136\n      jump\t// in\n    tag_159:\n      swap3\n      pop\n      pop\n      dup2\n      swap1\n      sstore\n      pop\n        /* \"DeFi \\xe9\\xa2\\x84\\xe5\\x94\\xae\\xe5\\x90\\x88\\xe7\\xba\\xa6\\xef\\xbc\\x88Token Presale with Linear Vesting\\xef\\xbc\\x89/TokenPresale.sol\":4583:4939  {... */\n      pop\n        /* \"DeFi \\xe9\\xa2\\x84\\xe5\\x94\\xae\\xe5\\x90\\x88\\xe7\\xba\\xa6\\xef\\xbc\\x88Token Presale with Linear Vesting\\xef\\xbc\\x89/TokenPresale.sol\":4545:4939  function claimTokens() public canClaim{... */\n      jump\t// out\n        /* \"DeFi \\xe9\\xa2\\x84\\xe5\\x94\\xae\\xe5\\x90\\x88\\xe7\\xba\\xa6\\xef\\xbc\\x88Token Presale with Linear Vesting\\xef\\xbc\\x89/TokenPresale.sol\":958:1010  mapping(address => uint256) public userClaimedTokens */\n    tag_79:\n      mstore(0x20, 0x04)\n      dup1\n      0x00\n      mstore\n      keccak256(0x00, 0x40)\n      0x00\n      swap2\n      pop\n      swap1\n      pop\n      sload\n      dup2\n      jump\t// out\n        /* \"DeFi \\xe9\\xa2\\x84\\xe5\\x94\\xae\\xe5\\x90\\x88\\xe7\\xba\\xa6\\xef\\xbc\\x88Token Presale with Linear Vesting\\xef\\xbc\\x89/TokenPresale.sol\":1298:1316  bool public paused */\n    tag_83:\n      0x08\n      0x00\n      swap1\n      sload\n      swap1\n      0x0100\n      exp\n      swap1\n      div\n      0xff\n      and\n      dup2\n      jump\t// out\n        /* \"DeFi \\xe9\\xa2\\x84\\xe5\\x94\\xae\\xe5\\x90\\x88\\xe7\\xba\\xa6\\xef\\xbc\\x88Token Presale with Linear Vesting\\xef\\xbc\\x89/TokenPresale.sol\":5215:5405  function getUserInfo(address user) public view returns (uint256, uint256, uint256){... */\n    tag_88:\n        /* \"DeFi \\xe9\\xa2\\x84\\xe5\\x94\\xae\\xe5\\x90\\x88\\xe7\\xba\\xa6\\xef\\xbc\\x88Token Presale with Linear Vesting\\xef\\xbc\\x89/TokenPresale.sol\":5271:5278  uint256 */\n      0x00\n        /* \"DeFi \\xe9\\xa2\\x84\\xe5\\x94\\xae\\xe5\\x90\\x88\\xe7\\xba\\xa6\\xef\\xbc\\x88Token Presale with Linear Vesting\\xef\\xbc\\x89/TokenPresale.sol\":5280:5287  uint256 */\n      dup1\n        /* \"DeFi \\xe9\\xa2\\x84\\xe5\\x94\\xae\\xe5\\x90\\x88\\xe7\\xba\\xa6\\xef\\xbc\\x88Token Presale with Linear Vesting\\xef\\xbc\\x89/TokenPresale.sol\":5289:5296  uint256 */\n      0x00\n        /* \"DeFi \\xe9\\xa2\\x84\\xe5\\x94\\xae\\xe5\\x90\\x88\\xe7\\xba\\xa6\\xef\\xbc\\x88Token Presale with Linear Vesting\\xef\\xbc\\x89/TokenPresale.sol\":5342:5346  1e18 */\n      0x0de0b6b3a7640000\n        /* \"DeFi \\xe9\\xa2\\x84\\xe5\\x94\\xae\\xe5\\x90\\x88\\xe7\\xba\\xa6\\xef\\xbc\\x88Token Presale with Linear Vesting\\xef\\xbc\\x89/TokenPresale.sol\":5315:5333  userUsdContributed */\n      0x03\n        /* \"DeFi \\xe9\\xa2\\x84\\xe5\\x94\\xae\\xe5\\x90\\x88\\xe7\\xba\\xa6\\xef\\xbc\\x88Token Presale with Linear Vesting\\xef\\xbc\\x89/TokenPresale.sol\":5315:5339  userUsdContributed[user] */\n      0x00\n        /* \"DeFi \\xe9\\xa2\\x84\\xe5\\x94\\xae\\xe5\\x90\\x88\\xe7\\xba\\xa6\\xef\\xbc\\x88Token Presale with Linear Vesting\\xef\\xbc\\x89/TokenPresale.sol\":5334:5338  user */\n      dup7\n        /* \"DeFi \\xe9\\xa2\\x84\\xe5\\x94\\xae\\xe5\\x90\\x88\\xe7\\xba\\xa6\\xef\\xbc\\x88Token Presale with Linear Vesting\\xef\\xbc\\x89/TokenPresale.sol\":5315:5339  userUsdContributed[user] */\n      0xffffffffffffffffffffffffffffffffffffffff\n      and\n      0xffffffffffffffffffffffffffffffffffffffff\n      and\n      dup2\n      mstore\n      0x20\n      add\n      swap1\n      dup2\n      mstore\n      0x20\n      add\n      0x00\n      keccak256\n      sload\n        /* \"DeFi \\xe9\\xa2\\x84\\xe5\\x94\\xae\\xe5\\x90\\x88\\xe7\\xba\\xa6\\xef\\xbc\\x88Token Presale with Linear Vesting\\xef\\xbc\\x89/TokenPresale.sol\":5315:5346  userUsdContributed[user] / 1e18 */\n      tag_161\n      swap2\n      swap1\n      tag_147\n      jump\t// in\n    tag_161:\n        /* \"DeFi \\xe9\\xa2\\x84\\xe5\\x94\\xae\\xe5\\x90\\x88\\xe7\\xba\\xa6\\xef\\xbc\\x88Token Presale with Linear Vesting\\xef\\xbc\\x89/TokenPresale.sol\":5348:5365  userClaimedTokens */\n      0x04\n        /* \"DeFi \\xe9\\xa2\\x84\\xe5\\x94\\xae\\xe5\\x90\\x88\\xe7\\xba\\xa6\\xef\\xbc\\x88Token Presale with Linear Vesting\\xef\\xbc\\x89/TokenPresale.sol\":5348:5371  userClaimedTokens[user] */\n      0x00\n        /* \"DeFi \\xe9\\xa2\\x84\\xe5\\x94\\xae\\xe5\\x90\\x88\\xe7\\xba\\xa6\\xef\\xbc\\x88Token Presale with Linear Vesting\\xef\\xbc\\x89/TokenPresale.sol\":5366:5370  user */\n      dup7\n        /* \"DeFi \\xe9\\xa2\\x84\\xe5\\x94\\xae\\xe5\\x90\\x88\\xe7\\xba\\xa6\\xef\\xbc\\x88Token Presale with Linear Vesting\\xef\\xbc\\x89/TokenPresale.sol\":5348:5371  userClaimedTokens[user] */\n      0xffffffffffffffffffffffffffffffffffffffff\n      and\n      0xffffffffffffffffffffffffffffffffffffffff\n      and\n      dup2\n      mstore\n      0x20\n      add\n      swap1\n      dup2\n      mstore\n      0x20\n      add\n      0x00\n      keccak256\n      sload\n        /* \"DeFi \\xe9\\xa2\\x84\\xe5\\x94\\xae\\xe5\\x90\\x88\\xe7\\xba\\xa6\\xef\\xbc\\x88Token Presale with Linear Vesting\\xef\\xbc\\x89/TokenPresale.sol\":5374:5397  getTokenClaimable(user) */\n      tag_162\n        /* \"DeFi \\xe9\\xa2\\x84\\xe5\\x94\\xae\\xe5\\x90\\x88\\xe7\\xba\\xa6\\xef\\xbc\\x88Token Presale with Linear Vesting\\xef\\xbc\\x89/TokenPresale.sol\":5392:5396  user */\n      dup7\n        /* \"DeFi \\xe9\\xa2\\x84\\xe5\\x94\\xae\\xe5\\x90\\x88\\xe7\\xba\\xa6\\xef\\xbc\\x88Token Presale with Linear Vesting\\xef\\xbc\\x89/TokenPresale.sol\":5374:5391  getTokenClaimable */\n      tag_61\n        /* \"DeFi \\xe9\\xa2\\x84\\xe5\\x94\\xae\\xe5\\x90\\x88\\xe7\\xba\\xa6\\xef\\xbc\\x88Token Presale with Linear Vesting\\xef\\xbc\\x89/TokenPresale.sol\":5374:5397  getTokenClaimable(user) */\n      jump\t// in\n    tag_162:\n        /* \"DeFi \\xe9\\xa2\\x84\\xe5\\x94\\xae\\xe5\\x90\\x88\\xe7\\xba\\xa6\\xef\\xbc\\x88Token Presale with Linear Vesting\\xef\\xbc\\x89/TokenPresale.sol\":5307:5398  return (userUsdContributed[user] / 1e18, userClaimedTokens[user] , getTokenClaimable(user)) */\n      swap3\n      pop\n      swap3\n      pop\n      swap3\n      pop\n        /* \"DeFi \\xe9\\xa2\\x84\\xe5\\x94\\xae\\xe5\\x90\\x88\\xe7\\xba\\xa6\\xef\\xbc\\x88Token Presale with Linear Vesting\\xef\\xbc\\x89/TokenPresale.sol\":5215:5405  function getUserInfo(address user) public view returns (uint256, uint256, uint256){... */\n      swap2\n      swap4\n      swap1\n      swap3\n      pop\n      jump\t// out\n        /* \"DeFi \\xe9\\xa2\\x84\\xe5\\x94\\xae\\xe5\\x90\\x88\\xe7\\xba\\xa6\\xef\\xbc\\x88Token Presale with Linear Vesting\\xef\\xbc\\x89/TokenPresale.sol\":2910:2976  function pause() external onlyOwner {... */\n    tag_93:\n        /* \"DeFi \\xe9\\xa2\\x84\\xe5\\x94\\xae\\xe5\\x90\\x88\\xe7\\xba\\xa6\\xef\\xbc\\x88Token Presale with Linear Vesting\\xef\\xbc\\x89/TokenPresale.sol\":2528:2533  owner */\n      immutable(\"0xe41a685dc3df81383d452481451b89eb3f69781b836c19936fa9714a13d1c9c2\")\n        /* \"DeFi \\xe9\\xa2\\x84\\xe5\\x94\\xae\\xe5\\x90\\x88\\xe7\\xba\\xa6\\xef\\xbc\\x88Token Presale with Linear Vesting\\xef\\xbc\\x89/TokenPresale.sol\":2514:2533  msg.sender != owner */\n      0xffffffffffffffffffffffffffffffffffffffff\n      and\n        /* \"DeFi \\xe9\\xa2\\x84\\xe5\\x94\\xae\\xe5\\x90\\x88\\xe7\\xba\\xa6\\xef\\xbc\\x88Token Presale with Linear Vesting\\xef\\xbc\\x89/TokenPresale.sol\":2514:2524  msg.sender */\n      caller\n        /* \"DeFi \\xe9\\xa2\\x84\\xe5\\x94\\xae\\xe5\\x90\\x88\\xe7\\xba\\xa6\\xef\\xbc\\x88Token Presale with Linear Vesting\\xef\\xbc\\x89/TokenPresale.sol\":2514:2533  msg.sender != owner */\n      0xffffffffffffffffffffffffffffffffffffffff\n      and\n      eq\n        /* \"DeFi \\xe9\\xa2\\x84\\xe5\\x94\\xae\\xe5\\x90\\x88\\xe7\\xba\\xa6\\xef\\xbc\\x88Token Presale with Linear Vesting\\xef\\xbc\\x89/TokenPresale.sol\":2510:2552  if (msg.sender != owner) revert notOwner() */\n      tag_164\n      jumpi\n        /* \"DeFi \\xe9\\xa2\\x84\\xe5\\x94\\xae\\xe5\\x90\\x88\\xe7\\xba\\xa6\\xef\\xbc\\x88Token Presale with Linear Vesting\\xef\\xbc\\x89/TokenPresale.sol\":2542:2552  notOwner() */\n      mload(0x40)\n      0x251c9d6300000000000000000000000000000000000000000000000000000000\n      dup2\n      mstore\n      0x04\n      add\n      mload(0x40)\n      dup1\n      swap2\n      sub\n      swap1\n      revert\n        /* \"DeFi \\xe9\\xa2\\x84\\xe5\\x94\\xae\\xe5\\x90\\x88\\xe7\\xba\\xa6\\xef\\xbc\\x88Token Presale with Linear Vesting\\xef\\xbc\\x89/TokenPresale.sol\":2510:2552  if (msg.sender != owner) revert notOwner() */\n    tag_164:\n        /* \"DeFi \\xe9\\xa2\\x84\\xe5\\x94\\xae\\xe5\\x90\\x88\\xe7\\xba\\xa6\\xef\\xbc\\x88Token Presale with Linear Vesting\\xef\\xbc\\x89/TokenPresale.sol\":2965:2969  true */\n      0x01\n        /* \"DeFi \\xe9\\xa2\\x84\\xe5\\x94\\xae\\xe5\\x90\\x88\\xe7\\xba\\xa6\\xef\\xbc\\x88Token Presale with Linear Vesting\\xef\\xbc\\x89/TokenPresale.sol\":2956:2962  paused */\n      0x08\n      0x00\n        /* \"DeFi \\xe9\\xa2\\x84\\xe5\\x94\\xae\\xe5\\x90\\x88\\xe7\\xba\\xa6\\xef\\xbc\\x88Token Presale with Linear Vesting\\xef\\xbc\\x89/TokenPresale.sol\":2956:2969  paused = true */\n      0x0100\n      exp\n      dup2\n      sload\n      dup2\n      0xff\n      mul\n      not\n      and\n      swap1\n      dup4\n      iszero\n      iszero\n      mul\n      or\n      swap1\n      sstore\n      pop\n        /* \"DeFi \\xe9\\xa2\\x84\\xe5\\x94\\xae\\xe5\\x90\\x88\\xe7\\xba\\xa6\\xef\\xbc\\x88Token Presale with Linear Vesting\\xef\\xbc\\x89/TokenPresale.sol\":2910:2976  function pause() external onlyOwner {... */\n      jump\t// out\n        /* \"DeFi \\xe9\\xa2\\x84\\xe5\\x94\\xae\\xe5\\x90\\x88\\xe7\\xba\\xa6\\xef\\xbc\\x88Token Presale with Linear Vesting\\xef\\xbc\\x89/TokenPresale.sol\":786:833  uint256 public constant unlockDuration = 1 days */\n    tag_96:\n        /* \"DeFi \\xe9\\xa2\\x84\\xe5\\x94\\xae\\xe5\\x90\\x88\\xe7\\xba\\xa6\\xef\\xbc\\x88Token Presale with Linear Vesting\\xef\\xbc\\x89/TokenPresale.sol\":827:833  1 days */\n      0x015180\n        /* \"DeFi \\xe9\\xa2\\x84\\xe5\\x94\\xae\\xe5\\x90\\x88\\xe7\\xba\\xa6\\xef\\xbc\\x88Token Presale with Linear Vesting\\xef\\xbc\\x89/TokenPresale.sol\":786:833  uint256 public constant unlockDuration = 1 days */\n      dup2\n      jump\t// out\n        /* \"DeFi \\xe9\\xa2\\x84\\xe5\\x94\\xae\\xe5\\x90\\x88\\xe7\\xba\\xa6\\xef\\xbc\\x88Token Presale with Linear Vesting\\xef\\xbc\\x89/TokenPresale.sol\":288:318  address public immutable owner */\n    tag_100:\n      immutable(\"0xe41a685dc3df81383d452481451b89eb3f69781b836c19936fa9714a13d1c9c2\")\n      dup2\n      jump\t// out\n        /* \"DeFi \\xe9\\xa2\\x84\\xe5\\x94\\xae\\xe5\\x90\\x88\\xe7\\xba\\xa6\\xef\\xbc\\x88Token Presale with Linear Vesting\\xef\\xbc\\x89/TokenPresale.sol\":722:752  uint256 public unlockStartTime */\n    tag_105:\n      sload(0x02)\n      dup2\n      jump\t// out\n        /* \"DeFi \\xe9\\xa2\\x84\\xe5\\x94\\xae\\xe5\\x90\\x88\\xe7\\xba\\xa6\\xef\\xbc\\x88Token Presale with Linear Vesting\\xef\\xbc\\x89/TokenPresale.sol\":1214:1261  mapping (address => uint) public userTotalToken */\n    tag_110:\n      mstore(0x20, 0x07)\n      dup1\n      0x00\n      mstore\n      keccak256(0x00, 0x40)\n      0x00\n      swap2\n      pop\n      swap1\n      pop\n      sload\n      dup2\n      jump\t// out\n        /* \"DeFi \\xe9\\xa2\\x84\\xe5\\x94\\xae\\xe5\\x90\\x88\\xe7\\xba\\xa6\\xef\\xbc\\x88Token Presale with Linear Vesting\\xef\\xbc\\x89/TokenPresale.sol\":3111:3414  function withdrawETH() public payable onlyOwner canWithdraw{... */\n    tag_113:\n        /* \"DeFi \\xe9\\xa2\\x84\\xe5\\x94\\xae\\xe5\\x90\\x88\\xe7\\xba\\xa6\\xef\\xbc\\x88Token Presale with Linear Vesting\\xef\\xbc\\x89/TokenPresale.sol\":2528:2533  owner */\n      immutable(\"0xe41a685dc3df81383d452481451b89eb3f69781b836c19936fa9714a13d1c9c2\")\n        /* \"DeFi \\xe9\\xa2\\x84\\xe5\\x94\\xae\\xe5\\x90\\x88\\xe7\\xba\\xa6\\xef\\xbc\\x88Token Presale with Linear Vesting\\xef\\xbc\\x89/TokenPresale.sol\":2514:2533  msg.sender != owner */\n      0xffffffffffffffffffffffffffffffffffffffff\n      and\n        /* \"DeFi \\xe9\\xa2\\x84\\xe5\\x94\\xae\\xe5\\x90\\x88\\xe7\\xba\\xa6\\xef\\xbc\\x88Token Presale with Linear Vesting\\xef\\xbc\\x89/TokenPresale.sol\":2514:2524  msg.sender */\n      caller\n        /* \"DeFi \\xe9\\xa2\\x84\\xe5\\x94\\xae\\xe5\\x90\\x88\\xe7\\xba\\xa6\\xef\\xbc\\x88Token Presale with Linear Vesting\\xef\\xbc\\x89/TokenPresale.sol\":2514:2533  msg.sender != owner */\n      0xffffffffffffffffffffffffffffffffffffffff\n      and\n      eq\n        /* \"DeFi \\xe9\\xa2\\x84\\xe5\\x94\\xae\\xe5\\x90\\x88\\xe7\\xba\\xa6\\xef\\xbc\\x88Token Presale with Linear Vesting\\xef\\xbc\\x89/TokenPresale.sol\":2510:2552  if (msg.sender != owner) revert notOwner() */\n      tag_167\n      jumpi\n        /* \"DeFi \\xe9\\xa2\\x84\\xe5\\x94\\xae\\xe5\\x90\\x88\\xe7\\xba\\xa6\\xef\\xbc\\x88Token Presale with Linear Vesting\\xef\\xbc\\x89/TokenPresale.sol\":2542:2552  notOwner() */\n      mload(0x40)\n      0x251c9d6300000000000000000000000000000000000000000000000000000000\n      dup2\n      mstore\n      0x04\n      add\n      mload(0x40)\n      dup1\n      swap2\n      sub\n      swap1\n      revert\n        /* \"DeFi \\xe9\\xa2\\x84\\xe5\\x94\\xae\\xe5\\x90\\x88\\xe7\\xba\\xa6\\xef\\xbc\\x88Token Presale with Linear Vesting\\xef\\xbc\\x89/TokenPresale.sol\":2510:2552  if (msg.sender != owner) revert notOwner() */\n    tag_167:\n        /* \"DeFi \\xe9\\xa2\\x84\\xe5\\x94\\xae\\xe5\\x90\\x88\\xe7\\xba\\xa6\\xef\\xbc\\x88Token Presale with Linear Vesting\\xef\\xbc\\x89/TokenPresale.sol\":2653:2662  goalInUsd */\n      immutable(\"0xde838e9e0a4b3e84cad3a9d39f9fe437c20f318b30d3166f08c0cdbee96032ab\")\n        /* \"DeFi \\xe9\\xa2\\x84\\xe5\\x94\\xae\\xe5\\x90\\x88\\xe7\\xba\\xa6\\xef\\xbc\\x88Token Presale with Linear Vesting\\xef\\xbc\\x89/TokenPresale.sol\":2611:2650  totalUsdRaised.getLatestETHPriceInUSD() */\n      tag_169\n        /* \"DeFi \\xe9\\xa2\\x84\\xe5\\x94\\xae\\xe5\\x90\\x88\\xe7\\xba\\xa6\\xef\\xbc\\x88Token Presale with Linear Vesting\\xef\\xbc\\x89/TokenPresale.sol\":2611:2625  totalUsdRaised */\n      sload(0x00)\n        /* \"DeFi \\xe9\\xa2\\x84\\xe5\\x94\\xae\\xe5\\x90\\x88\\xe7\\xba\\xa6\\xef\\xbc\\x88Token Presale with Linear Vesting\\xef\\xbc\\x89/TokenPresale.sol\":2611:2648  totalUsdRaised.getLatestETHPriceInUSD */\n      tag_128\n        /* \"DeFi \\xe9\\xa2\\x84\\xe5\\x94\\xae\\xe5\\x90\\x88\\xe7\\xba\\xa6\\xef\\xbc\\x88Token Presale with Linear Vesting\\xef\\xbc\\x89/TokenPresale.sol\":2611:2650  totalUsdRaised.getLatestETHPriceInUSD() */\n      jump\t// in\n    tag_169:\n        /* \"DeFi \\xe9\\xa2\\x84\\xe5\\x94\\xae\\xe5\\x90\\x88\\xe7\\xba\\xa6\\xef\\xbc\\x88Token Presale with Linear Vesting\\xef\\xbc\\x89/TokenPresale.sol\":2611:2662  totalUsdRaised.getLatestETHPriceInUSD() < goalInUsd */\n      lt\n        /* \"DeFi \\xe9\\xa2\\x84\\xe5\\x94\\xae\\xe5\\x90\\x88\\xe7\\xba\\xa6\\xef\\xbc\\x88Token Presale with Linear Vesting\\xef\\xbc\\x89/TokenPresale.sol\":2611:2699  totalUsdRaised.getLatestETHPriceInUSD() < goalInUsd && block.timestamp <= presaleEndTime */\n      dup1\n      iszero\n      tag_170\n      jumpi\n      pop\n        /* \"DeFi \\xe9\\xa2\\x84\\xe5\\x94\\xae\\xe5\\x90\\x88\\xe7\\xba\\xa6\\xef\\xbc\\x88Token Presale with Linear Vesting\\xef\\xbc\\x89/TokenPresale.sol\":2685:2699  presaleEndTime */\n      immutable(\"0xb811eb8190fe00dc85563459f7e9e4ba4c2ef31ddac91e9e2d37d1e7e1b1d5bc\")\n        /* \"DeFi \\xe9\\xa2\\x84\\xe5\\x94\\xae\\xe5\\x90\\x88\\xe7\\xba\\xa6\\xef\\xbc\\x88Token Presale with Linear Vesting\\xef\\xbc\\x89/TokenPresale.sol\":2666:2681  block.timestamp */\n      timestamp\n        /* \"DeFi \\xe9\\xa2\\x84\\xe5\\x94\\xae\\xe5\\x90\\x88\\xe7\\xba\\xa6\\xef\\xbc\\x88Token Presale with Linear Vesting\\xef\\xbc\\x89/TokenPresale.sol\":2666:2699  block.timestamp <= presaleEndTime */\n      gt\n      iszero\n        /* \"DeFi \\xe9\\xa2\\x84\\xe5\\x94\\xae\\xe5\\x90\\x88\\xe7\\xba\\xa6\\xef\\xbc\\x88Token Presale with Linear Vesting\\xef\\xbc\\x89/TokenPresale.sol\":2611:2699  totalUsdRaised.getLatestETHPriceInUSD() < goalInUsd && block.timestamp <= presaleEndTime */\n    tag_170:\n        /* \"DeFi \\xe9\\xa2\\x84\\xe5\\x94\\xae\\xe5\\x90\\x88\\xe7\\xba\\xa6\\xef\\xbc\\x88Token Presale with Linear Vesting\\xef\\xbc\\x89/TokenPresale.sol\":2607:2721  if (totalUsdRaised.getLatestETHPriceInUSD() < goalInUsd && block.timestamp <= presaleEndTime) revert notFinished() */\n      iszero\n      tag_171\n      jumpi\n        /* \"DeFi \\xe9\\xa2\\x84\\xe5\\x94\\xae\\xe5\\x90\\x88\\xe7\\xba\\xa6\\xef\\xbc\\x88Token Presale with Linear Vesting\\xef\\xbc\\x89/TokenPresale.sol\":2708:2721  notFinished() */\n      mload(0x40)\n      0x8dceef0a00000000000000000000000000000000000000000000000000000000\n      dup2\n      mstore\n      0x04\n      add\n      mload(0x40)\n      dup1\n      swap2\n      sub\n      swap1\n      revert\n        /* \"DeFi \\xe9\\xa2\\x84\\xe5\\x94\\xae\\xe5\\x90\\x88\\xe7\\xba\\xa6\\xef\\xbc\\x88Token Presale with Linear Vesting\\xef\\xbc\\x89/TokenPresale.sol\":2607:2721  if (totalUsdRaised.getLatestETHPriceInUSD() < goalInUsd && block.timestamp <= presaleEndTime) revert notFinished() */\n    tag_171:\n        /* \"DeFi \\xe9\\xa2\\x84\\xe5\\x94\\xae\\xe5\\x90\\x88\\xe7\\xba\\xa6\\xef\\xbc\\x88Token Presale with Linear Vesting\\xef\\xbc\\x89/TokenPresale.sol\":3261:3275  bool isSuccess */\n      0x00\n        /* \"DeFi \\xe9\\xa2\\x84\\xe5\\x94\\xae\\xe5\\x90\\x88\\xe7\\xba\\xa6\\xef\\xbc\\x88Token Presale with Linear Vesting\\xef\\xbc\\x89/TokenPresale.sol\":3289:3294  owner */\n      immutable(\"0xe41a685dc3df81383d452481451b89eb3f69781b836c19936fa9714a13d1c9c2\")\n        /* \"DeFi \\xe9\\xa2\\x84\\xe5\\x94\\xae\\xe5\\x90\\x88\\xe7\\xba\\xa6\\xef\\xbc\\x88Token Presale with Linear Vesting\\xef\\xbc\\x89/TokenPresale.sol\":3280:3300  payable (owner).call */\n      0xffffffffffffffffffffffffffffffffffffffff\n      and\n        /* \"DeFi \\xe9\\xa2\\x84\\xe5\\x94\\xae\\xe5\\x90\\x88\\xe7\\xba\\xa6\\xef\\xbc\\x88Token Presale with Linear Vesting\\xef\\xbc\\x89/TokenPresale.sol\":3308:3329  address(this).balance */\n      selfbalance\n        /* \"DeFi \\xe9\\xa2\\x84\\xe5\\x94\\xae\\xe5\\x90\\x88\\xe7\\xba\\xa6\\xef\\xbc\\x88Token Presale with Linear Vesting\\xef\\xbc\\x89/TokenPresale.sol\":3280:3334  payable (owner).call{value: address(this).balance}(\"\") */\n      mload(0x40)\n      tag_173\n      swap1\n      tag_174\n      jump\t// in\n    tag_173:\n      0x00\n      mload(0x40)\n      dup1\n      dup4\n      sub\n      dup2\n      dup6\n      dup8\n      gas\n      call\n      swap3\n      pop\n      pop\n      pop\n      returndatasize\n      dup1\n      0x00\n      dup2\n      eq\n      tag_177\n      jumpi\n      mload(0x40)\n      swap2\n      pop\n      and(add(returndatasize, 0x3f), not(0x1f))\n      dup3\n      add\n      0x40\n      mstore\n      returndatasize\n      dup3\n      mstore\n      returndatasize\n      0x00\n      0x20\n      dup5\n      add\n      returndatacopy\n      jump(tag_176)\n    tag_177:\n      0x60\n      swap2\n      pop\n    tag_176:\n      pop\n        /* \"DeFi \\xe9\\xa2\\x84\\xe5\\x94\\xae\\xe5\\x90\\x88\\xe7\\xba\\xa6\\xef\\xbc\\x88Token Presale with Linear Vesting\\xef\\xbc\\x89/TokenPresale.sol\":3260:3334  (bool isSuccess, )= payable (owner).call{value: address(this).balance}(\"\") */\n      pop\n      swap1\n      pop\n        /* \"DeFi \\xe9\\xa2\\x84\\xe5\\x94\\xae\\xe5\\x90\\x88\\xe7\\xba\\xa6\\xef\\xbc\\x88Token Presale with Linear Vesting\\xef\\xbc\\x89/TokenPresale.sol\":3349:3358  isSuccess */\n      dup1\n        /* \"DeFi \\xe9\\xa2\\x84\\xe5\\x94\\xae\\xe5\\x90\\x88\\xe7\\xba\\xa6\\xef\\xbc\\x88Token Presale with Linear Vesting\\xef\\xbc\\x89/TokenPresale.sol\":3344:3383  if (!isSuccess) revert withdrawFailed() */\n      tag_178\n      jumpi\n        /* \"DeFi \\xe9\\xa2\\x84\\xe5\\x94\\xae\\xe5\\x90\\x88\\xe7\\xba\\xa6\\xef\\xbc\\x88Token Presale with Linear Vesting\\xef\\xbc\\x89/TokenPresale.sol\":3367:3383  withdrawFailed() */\n      mload(0x40)\n      0x67b2cd0500000000000000000000000000000000000000000000000000000000\n      dup2\n      mstore\n      0x04\n      add\n      mload(0x40)\n      dup1\n      swap2\n      sub\n      swap1\n      revert\n        /* \"DeFi \\xe9\\xa2\\x84\\xe5\\x94\\xae\\xe5\\x90\\x88\\xe7\\xba\\xa6\\xef\\xbc\\x88Token Presale with Linear Vesting\\xef\\xbc\\x89/TokenPresale.sol\":3344:3383  if (!isSuccess) revert withdrawFailed() */\n    tag_178:\n        /* \"DeFi \\xe9\\xa2\\x84\\xe5\\x94\\xae\\xe5\\x90\\x88\\xe7\\xba\\xa6\\xef\\xbc\\x88Token Presale with Linear Vesting\\xef\\xbc\\x89/TokenPresale.sol\":3394:3407  enableClaim() */\n      tag_179\n        /* \"DeFi \\xe9\\xa2\\x84\\xe5\\x94\\xae\\xe5\\x90\\x88\\xe7\\xba\\xa6\\xef\\xbc\\x88Token Presale with Linear Vesting\\xef\\xbc\\x89/TokenPresale.sol\":3394:3405  enableClaim */\n      tag_180\n        /* \"DeFi \\xe9\\xa2\\x84\\xe5\\x94\\xae\\xe5\\x90\\x88\\xe7\\xba\\xa6\\xef\\xbc\\x88Token Presale with Linear Vesting\\xef\\xbc\\x89/TokenPresale.sol\":3394:3407  enableClaim() */\n      jump\t// in\n    tag_179:\n        /* \"DeFi \\xe9\\xa2\\x84\\xe5\\x94\\xae\\xe5\\x90\\x88\\xe7\\xba\\xa6\\xef\\xbc\\x88Token Presale with Linear Vesting\\xef\\xbc\\x89/TokenPresale.sol\":3170:3414  {... */\n      pop\n        /* \"DeFi \\xe9\\xa2\\x84\\xe5\\x94\\xae\\xe5\\x90\\x88\\xe7\\xba\\xa6\\xef\\xbc\\x88Token Presale with Linear Vesting\\xef\\xbc\\x89/TokenPresale.sol\":3111:3414  function withdrawETH() public payable onlyOwner canWithdraw{... */\n      jump\t// out\n        /* \"DeFi \\xe9\\xa2\\x84\\xe5\\x94\\xae\\xe5\\x90\\x88\\xe7\\xba\\xa6\\xef\\xbc\\x88Token Presale with Linear Vesting\\xef\\xbc\\x89/TokenPresale.sol\":858:911  mapping(address => uint256) public userUsdContributed */\n    tag_117:\n      mstore(0x20, 0x03)\n      dup1\n      0x00\n      mstore\n      keccak256(0x00, 0x40)\n      0x00\n      swap2\n      pop\n      swap1\n      pop\n      sload\n      dup2\n      jump\t// out\n        /* \"DeFi \\xe9\\xa2\\x84\\xe5\\x94\\xae\\xe5\\x90\\x88\\xe7\\xba\\xa6\\xef\\xbc\\x88Token Presale with Linear Vesting\\xef\\xbc\\x89/TokenPresale.sol\":553:579  bool public isClaimEnabled */\n    tag_121:\n      0x01\n      0x00\n      swap1\n      sload\n      swap1\n      0x0100\n      exp\n      swap1\n      div\n      0xff\n      and\n      dup2\n      jump\t// out\n        /* \"DeFi \\xe9\\xa2\\x84\\xe5\\x94\\xae\\xe5\\x90\\x88\\xe7\\xba\\xa6\\xef\\xbc\\x88Token Presale with Linear Vesting\\xef\\xbc\\x89/PriceConverter.sol\":204:777  function getLatestETHPriceInUSD(uint ethAmountInWei) internal view returns (uint256){... */\n    tag_128:\n        /* \"DeFi \\xe9\\xa2\\x84\\xe5\\x94\\xae\\xe5\\x90\\x88\\xe7\\xba\\xa6\\xef\\xbc\\x88Token Presale with Linear Vesting\\xef\\xbc\\x89/PriceConverter.sol\":280:287  uint256 */\n      0x00\n        /* \"DeFi \\xe9\\xa2\\x84\\xe5\\x94\\xae\\xe5\\x90\\x88\\xe7\\xba\\xa6\\xef\\xbc\\x88Token Presale with Linear Vesting\\xef\\xbc\\x89/PriceConverter.sol\":307:338  AggregatorV3Interface priceFeed */\n      dup1\n        /* \"DeFi \\xe9\\xa2\\x84\\xe5\\x94\\xae\\xe5\\x90\\x88\\xe7\\xba\\xa6\\xef\\xbc\\x88Token Presale with Linear Vesting\\xef\\xbc\\x89/PriceConverter.sol\":363:405  0x694AA1769357215DE4FAC081bf1f309aDC325306 */\n      0x694aa1769357215de4fac081bf1f309adc325306\n        /* \"DeFi \\xe9\\xa2\\x84\\xe5\\x94\\xae\\xe5\\x90\\x88\\xe7\\xba\\xa6\\xef\\xbc\\x88Token Presale with Linear Vesting\\xef\\xbc\\x89/PriceConverter.sol\":307:406  AggregatorV3Interface priceFeed = AggregatorV3Interface(0x694AA1769357215DE4FAC081bf1f309aDC325306) */\n      swap1\n      pop\n        /* \"DeFi \\xe9\\xa2\\x84\\xe5\\x94\\xae\\xe5\\x90\\x88\\xe7\\xba\\xa6\\xef\\xbc\\x88Token Presale with Linear Vesting\\xef\\xbc\\x89/PriceConverter.sol\":500:513  int256 answer */\n      0x00\n        /* \"DeFi \\xe9\\xa2\\x84\\xe5\\x94\\xae\\xe5\\x90\\x88\\xe7\\xba\\xa6\\xef\\xbc\\x88Token Presale with Linear Vesting\\xef\\xbc\\x89/PriceConverter.sol\":637:646  priceFeed */\n      dup2\n        /* \"DeFi \\xe9\\xa2\\x84\\xe5\\x94\\xae\\xe5\\x90\\x88\\xe7\\xba\\xa6\\xef\\xbc\\x88Token Presale with Linear Vesting\\xef\\xbc\\x89/PriceConverter.sol\":637:662  priceFeed.latestRoundData */\n      0xffffffffffffffffffffffffffffffffffffffff\n      and\n      0xfeaf968c\n        /* \"DeFi \\xe9\\xa2\\x84\\xe5\\x94\\xae\\xe5\\x90\\x88\\xe7\\xba\\xa6\\xef\\xbc\\x88Token Presale with Linear Vesting\\xef\\xbc\\x89/PriceConverter.sol\":637:664  priceFeed.latestRoundData() */\n      mload(0x40)\n      dup2\n      0xffffffff\n      and\n      0xe0\n      shl\n      dup2\n      mstore\n      0x04\n      add\n      0xa0\n      mload(0x40)\n      dup1\n      dup4\n      sub\n      dup2\n      dup7\n      gas\n      staticcall\n      iszero\n      dup1\n      iszero\n      tag_183\n      jumpi\n      returndatasize\n      0x00\n      dup1\n      returndatacopy\n      revert(0x00, returndatasize)\n    tag_183:\n      pop\n      pop\n      pop\n      pop\n      mload(0x40)\n      returndatasize\n      not(0x1f)\n      0x1f\n      dup3\n      add\n      and\n      dup3\n      add\n      dup1\n      0x40\n      mstore\n      pop\n      dup2\n      add\n      swap1\n      tag_184\n      swap2\n      swap1\n      tag_185\n      jump\t// in\n    tag_184:\n        /* \"DeFi \\xe9\\xa2\\x84\\xe5\\x94\\xae\\xe5\\x90\\x88\\xe7\\xba\\xa6\\xef\\xbc\\x88Token Presale with Linear Vesting\\xef\\xbc\\x89/PriceConverter.sol\":452:664  (... */\n      pop\n      pop\n      pop\n      swap2\n      pop\n      pop\n        /* \"DeFi \\xe9\\xa2\\x84\\xe5\\x94\\xae\\xe5\\x90\\x88\\xe7\\xba\\xa6\\xef\\xbc\\x88Token Presale with Linear Vesting\\xef\\xbc\\x89/PriceConverter.sol\":675:691  uint256 ethPrice */\n      0x00\n        /* \"DeFi \\xe9\\xa2\\x84\\xe5\\x94\\xae\\xe5\\x90\\x88\\xe7\\xba\\xa6\\xef\\xbc\\x88Token Presale with Linear Vesting\\xef\\xbc\\x89/PriceConverter.sol\":712:716  1e10 */\n      0x02540be400\n        /* \"DeFi \\xe9\\xa2\\x84\\xe5\\x94\\xae\\xe5\\x90\\x88\\xe7\\xba\\xa6\\xef\\xbc\\x88Token Presale with Linear Vesting\\xef\\xbc\\x89/PriceConverter.sol\":703:709  answer */\n      dup3\n        /* \"DeFi \\xe9\\xa2\\x84\\xe5\\x94\\xae\\xe5\\x90\\x88\\xe7\\xba\\xa6\\xef\\xbc\\x88Token Presale with Linear Vesting\\xef\\xbc\\x89/PriceConverter.sol\":703:716  answer * 1e10 */\n      tag_186\n      swap2\n      swap1\n      tag_187\n      jump\t// in\n    tag_186:\n        /* \"DeFi \\xe9\\xa2\\x84\\xe5\\x94\\xae\\xe5\\x90\\x88\\xe7\\xba\\xa6\\xef\\xbc\\x88Token Presale with Linear Vesting\\xef\\xbc\\x89/PriceConverter.sol\":675:717  uint256 ethPrice = uint256 (answer * 1e10) */\n      swap1\n      pop\n        /* \"DeFi \\xe9\\xa2\\x84\\xe5\\x94\\xae\\xe5\\x90\\x88\\xe7\\xba\\xa6\\xef\\xbc\\x88Token Presale with Linear Vesting\\xef\\xbc\\x89/PriceConverter.sol\":766:770  1e18 */\n      0x0de0b6b3a7640000\n        /* \"DeFi \\xe9\\xa2\\x84\\xe5\\x94\\xae\\xe5\\x90\\x88\\xe7\\xba\\xa6\\xef\\xbc\\x88Token Presale with Linear Vesting\\xef\\xbc\\x89/PriceConverter.sol\":748:762  ethAmountInWei */\n      dup6\n        /* \"DeFi \\xe9\\xa2\\x84\\xe5\\x94\\xae\\xe5\\x90\\x88\\xe7\\xba\\xa6\\xef\\xbc\\x88Token Presale with Linear Vesting\\xef\\xbc\\x89/PriceConverter.sol\":737:745  ethPrice */\n      dup3\n        /* \"DeFi \\xe9\\xa2\\x84\\xe5\\x94\\xae\\xe5\\x90\\x88\\xe7\\xba\\xa6\\xef\\xbc\\x88Token Presale with Linear Vesting\\xef\\xbc\\x89/PriceConverter.sol\":737:762  ethPrice * ethAmountInWei */\n      tag_188\n      swap2\n      swap1\n      tag_145\n      jump\t// in\n    tag_188:\n        /* \"DeFi \\xe9\\xa2\\x84\\xe5\\x94\\xae\\xe5\\x90\\x88\\xe7\\xba\\xa6\\xef\\xbc\\x88Token Presale with Linear Vesting\\xef\\xbc\\x89/PriceConverter.sol\":736:770  (ethPrice * ethAmountInWei) / 1e18 */\n      tag_189\n      swap2\n      swap1\n      tag_147\n      jump\t// in\n    tag_189:\n        /* \"DeFi \\xe9\\xa2\\x84\\xe5\\x94\\xae\\xe5\\x90\\x88\\xe7\\xba\\xa6\\xef\\xbc\\x88Token Presale with Linear Vesting\\xef\\xbc\\x89/PriceConverter.sol\":729:770  return (ethPrice * ethAmountInWei) / 1e18 */\n      swap4\n      pop\n      pop\n      pop\n      pop\n        /* \"DeFi \\xe9\\xa2\\x84\\xe5\\x94\\xae\\xe5\\x90\\x88\\xe7\\xba\\xa6\\xef\\xbc\\x88Token Presale with Linear Vesting\\xef\\xbc\\x89/PriceConverter.sol\":204:777  function getLatestETHPriceInUSD(uint ethAmountInWei) internal view returns (uint256){... */\n      swap2\n      swap1\n      pop\n      jump\t// out\n        /* \"DeFi \\xe9\\xa2\\x84\\xe5\\x94\\xae\\xe5\\x90\\x88\\xe7\\xba\\xa6\\xef\\xbc\\x88Token Presale with Linear Vesting\\xef\\xbc\\x89/TokenPresale.sol\":4993:5132  function enableClaim() private {... */\n    tag_180:\n        /* \"DeFi \\xe9\\xa2\\x84\\xe5\\x94\\xae\\xe5\\x90\\x88\\xe7\\xba\\xa6\\xef\\xbc\\x88Token Presale with Linear Vesting\\xef\\xbc\\x89/TokenPresale.sol\":5051:5055  true */\n      0x01\n        /* \"DeFi \\xe9\\xa2\\x84\\xe5\\x94\\xae\\xe5\\x90\\x88\\xe7\\xba\\xa6\\xef\\xbc\\x88Token Presale with Linear Vesting\\xef\\xbc\\x89/TokenPresale.sol\":5034:5048  isClaimEnabled */\n      dup1\n      0x00\n        /* \"DeFi \\xe9\\xa2\\x84\\xe5\\x94\\xae\\xe5\\x90\\x88\\xe7\\xba\\xa6\\xef\\xbc\\x88Token Presale with Linear Vesting\\xef\\xbc\\x89/TokenPresale.sol\":5034:5055  isClaimEnabled = true */\n      0x0100\n      exp\n      dup2\n      sload\n      dup2\n      0xff\n      mul\n      not\n      and\n      swap1\n      dup4\n      iszero\n      iszero\n      mul\n      or\n      swap1\n      sstore\n      pop\n        /* \"DeFi \\xe9\\xa2\\x84\\xe5\\x94\\xae\\xe5\\x90\\x88\\xe7\\xba\\xa6\\xef\\xbc\\x88Token Presale with Linear Vesting\\xef\\xbc\\x89/TokenPresale.sol\":5083:5098  block.timestamp */\n      timestamp\n        /* \"DeFi \\xe9\\xa2\\x84\\xe5\\x94\\xae\\xe5\\x90\\x88\\xe7\\xba\\xa6\\xef\\xbc\\x88Token Presale with Linear Vesting\\xef\\xbc\\x89/TokenPresale.sol\":5065:5080  unlockStartTime */\n      0x02\n        /* \"DeFi \\xe9\\xa2\\x84\\xe5\\x94\\xae\\xe5\\x90\\x88\\xe7\\xba\\xa6\\xef\\xbc\\x88Token Presale with Linear Vesting\\xef\\xbc\\x89/TokenPresale.sol\":5065:5098  unlockStartTime = block.timestamp */\n      dup2\n      swap1\n      sstore\n      pop\n        /* \"DeFi \\xe9\\xa2\\x84\\xe5\\x94\\xae\\xe5\\x90\\x88\\xe7\\xba\\xa6\\xef\\xbc\\x88Token Presale with Linear Vesting\\xef\\xbc\\x89/TokenPresale.sol\":5108:5125  calculateTokens() */\n      tag_191\n        /* \"DeFi \\xe9\\xa2\\x84\\xe5\\x94\\xae\\xe5\\x90\\x88\\xe7\\xba\\xa6\\xef\\xbc\\x88Token Presale with Linear Vesting\\xef\\xbc\\x89/TokenPresale.sol\":5108:5123  calculateTokens */\n      tag_192\n        /* \"DeFi \\xe9\\xa2\\x84\\xe5\\x94\\xae\\xe5\\x90\\x88\\xe7\\xba\\xa6\\xef\\xbc\\x88Token Presale with Linear Vesting\\xef\\xbc\\x89/TokenPresale.sol\":5108:5125  calculateTokens() */\n      jump\t// in\n    tag_191:\n        /* \"DeFi \\xe9\\xa2\\x84\\xe5\\x94\\xae\\xe5\\x90\\x88\\xe7\\xba\\xa6\\xef\\xbc\\x88Token Presale with Linear Vesting\\xef\\xbc\\x89/TokenPresale.sol\":4993:5132  function enableClaim() private {... */\n      jump\t// out\n        /* \"DeFi \\xe9\\xa2\\x84\\xe5\\x94\\xae\\xe5\\x90\\x88\\xe7\\xba\\xa6\\xef\\xbc\\x88Token Presale with Linear Vesting\\xef\\xbc\\x89/TokenPresale.sol\":3470:3894  function calculateTokens() private {... */\n    tag_192:\n        /* \"DeFi \\xe9\\xa2\\x84\\xe5\\x94\\xae\\xe5\\x90\\x88\\xe7\\xba\\xa6\\xef\\xbc\\x88Token Presale with Linear Vesting\\xef\\xbc\\x89/TokenPresale.sol\":3520:3529  uint256 i */\n      0x00\n        /* \"DeFi \\xe9\\xa2\\x84\\xe5\\x94\\xae\\xe5\\x90\\x88\\xe7\\xba\\xa6\\xef\\xbc\\x88Token Presale with Linear Vesting\\xef\\xbc\\x89/TokenPresale.sol\":3515:3888  for (uint256 i = 0;i < contributors.length;++i){... */\n    tag_194:\n        /* \"DeFi \\xe9\\xa2\\x84\\xe5\\x94\\xae\\xe5\\x90\\x88\\xe7\\xba\\xa6\\xef\\xbc\\x88Token Presale with Linear Vesting\\xef\\xbc\\x89/TokenPresale.sol\":3538:3550  contributors */\n      0x05\n        /* \"DeFi \\xe9\\xa2\\x84\\xe5\\x94\\xae\\xe5\\x90\\x88\\xe7\\xba\\xa6\\xef\\xbc\\x88Token Presale with Linear Vesting\\xef\\xbc\\x89/TokenPresale.sol\":3538:3557  contributors.length */\n      dup1\n      sload\n      swap1\n      pop\n        /* \"DeFi \\xe9\\xa2\\x84\\xe5\\x94\\xae\\xe5\\x90\\x88\\xe7\\xba\\xa6\\xef\\xbc\\x88Token Presale with Linear Vesting\\xef\\xbc\\x89/TokenPresale.sol\":3534:3535  i */\n      dup2\n        /* \"DeFi \\xe9\\xa2\\x84\\xe5\\x94\\xae\\xe5\\x90\\x88\\xe7\\xba\\xa6\\xef\\xbc\\x88Token Presale with Linear Vesting\\xef\\xbc\\x89/TokenPresale.sol\":3534:3557  i < contributors.length */\n      lt\n        /* \"DeFi \\xe9\\xa2\\x84\\xe5\\x94\\xae\\xe5\\x90\\x88\\xe7\\xba\\xa6\\xef\\xbc\\x88Token Presale with Linear Vesting\\xef\\xbc\\x89/TokenPresale.sol\":3515:3888  for (uint256 i = 0;i < contributors.length;++i){... */\n      iszero\n      tag_195\n      jumpi\n        /* \"DeFi \\xe9\\xa2\\x84\\xe5\\x94\\xae\\xe5\\x90\\x88\\xe7\\xba\\xa6\\xef\\xbc\\x88Token Presale with Linear Vesting\\xef\\xbc\\x89/TokenPresale.sol\":3576:3595  address contributor */\n      0x00\n        /* \"DeFi \\xe9\\xa2\\x84\\xe5\\x94\\xae\\xe5\\x90\\x88\\xe7\\xba\\xa6\\xef\\xbc\\x88Token Presale with Linear Vesting\\xef\\xbc\\x89/TokenPresale.sol\":3598:3610  contributors */\n      0x05\n        /* \"DeFi \\xe9\\xa2\\x84\\xe5\\x94\\xae\\xe5\\x90\\x88\\xe7\\xba\\xa6\\xef\\xbc\\x88Token Presale with Linear Vesting\\xef\\xbc\\x89/TokenPresale.sol\":3611:3612  i */\n      dup3\n        /* \"DeFi \\xe9\\xa2\\x84\\xe5\\x94\\xae\\xe5\\x90\\x88\\xe7\\xba\\xa6\\xef\\xbc\\x88Token Presale with Linear Vesting\\xef\\xbc\\x89/TokenPresale.sol\":3598:3613  contributors[i] */\n      dup2\n      sload\n      dup2\n      lt\n      tag_197\n      jumpi\n      tag_198\n      tag_199\n      jump\t// in\n    tag_198:\n    tag_197:\n      swap1\n      0x00\n      mstore\n      keccak256(0x00, 0x20)\n      add\n      0x00\n      swap1\n      sload\n      swap1\n      0x0100\n      exp\n      swap1\n      div\n      0xffffffffffffffffffffffffffffffffffffffff\n      and\n        /* \"DeFi \\xe9\\xa2\\x84\\xe5\\x94\\xae\\xe5\\x90\\x88\\xe7\\xba\\xa6\\xef\\xbc\\x88Token Presale with Linear Vesting\\xef\\xbc\\x89/TokenPresale.sol\":3576:3613  address contributor = contributors[i] */\n      swap1\n      pop\n        /* \"DeFi \\xe9\\xa2\\x84\\xe5\\x94\\xae\\xe5\\x90\\x88\\xe7\\xba\\xa6\\xef\\xbc\\x88Token Presale with Linear Vesting\\xef\\xbc\\x89/TokenPresale.sol\":3627:3649  uint256 contributedUsd */\n      0x00\n        /* \"DeFi \\xe9\\xa2\\x84\\xe5\\x94\\xae\\xe5\\x90\\x88\\xe7\\xba\\xa6\\xef\\xbc\\x88Token Presale with Linear Vesting\\xef\\xbc\\x89/TokenPresale.sol\":3686:3690  1e18 */\n      0x0de0b6b3a7640000\n        /* \"DeFi \\xe9\\xa2\\x84\\xe5\\x94\\xae\\xe5\\x90\\x88\\xe7\\xba\\xa6\\xef\\xbc\\x88Token Presale with Linear Vesting\\xef\\xbc\\x89/TokenPresale.sol\":3652:3670  userUsdContributed */\n      0x03\n        /* \"DeFi \\xe9\\xa2\\x84\\xe5\\x94\\xae\\xe5\\x90\\x88\\xe7\\xba\\xa6\\xef\\xbc\\x88Token Presale with Linear Vesting\\xef\\xbc\\x89/TokenPresale.sol\":3652:3683  userUsdContributed[contributor] */\n      0x00\n        /* \"DeFi \\xe9\\xa2\\x84\\xe5\\x94\\xae\\xe5\\x90\\x88\\xe7\\xba\\xa6\\xef\\xbc\\x88Token Presale with Linear Vesting\\xef\\xbc\\x89/TokenPresale.sol\":3671:3682  contributor */\n      dup5\n        /* \"DeFi \\xe9\\xa2\\x84\\xe5\\x94\\xae\\xe5\\x90\\x88\\xe7\\xba\\xa6\\xef\\xbc\\x88Token Presale with Linear Vesting\\xef\\xbc\\x89/TokenPresale.sol\":3652:3683  userUsdContributed[contributor] */\n      0xffffffffffffffffffffffffffffffffffffffff\n      and\n      0xffffffffffffffffffffffffffffffffffffffff\n      and\n      dup2\n      mstore\n      0x20\n      add\n      swap1\n      dup2\n      mstore\n      0x20\n      add\n      0x00\n      keccak256\n      sload\n        /* \"DeFi \\xe9\\xa2\\x84\\xe5\\x94\\xae\\xe5\\x90\\x88\\xe7\\xba\\xa6\\xef\\xbc\\x88Token Presale with Linear Vesting\\xef\\xbc\\x89/TokenPresale.sol\":3652:3690  userUsdContributed[contributor] / 1e18 */\n      tag_201\n      swap2\n      swap1\n      tag_147\n      jump\t// in\n    tag_201:\n        /* \"DeFi \\xe9\\xa2\\x84\\xe5\\x94\\xae\\xe5\\x90\\x88\\xe7\\xba\\xa6\\xef\\xbc\\x88Token Presale with Linear Vesting\\xef\\xbc\\x89/TokenPresale.sol\":3627:3690  uint256 contributedUsd = userUsdContributed[contributor] / 1e18 */\n      swap1\n      pop\n        /* \"DeFi \\xe9\\xa2\\x84\\xe5\\x94\\xae\\xe5\\x90\\x88\\xe7\\xba\\xa6\\xef\\xbc\\x88Token Presale with Linear Vesting\\xef\\xbc\\x89/TokenPresale.sol\":3729:3730  0 */\n      0x00\n        /* \"DeFi \\xe9\\xa2\\x84\\xe5\\x94\\xae\\xe5\\x90\\x88\\xe7\\xba\\xa6\\xef\\xbc\\x88Token Presale with Linear Vesting\\xef\\xbc\\x89/TokenPresale.sol\":3712:3726  contributedUsd */\n      dup2\n        /* \"DeFi \\xe9\\xa2\\x84\\xe5\\x94\\xae\\xe5\\x90\\x88\\xe7\\xba\\xa6\\xef\\xbc\\x88Token Presale with Linear Vesting\\xef\\xbc\\x89/TokenPresale.sol\":3712:3730  contributedUsd > 0 */\n      gt\n        /* \"DeFi \\xe9\\xa2\\x84\\xe5\\x94\\xae\\xe5\\x90\\x88\\xe7\\xba\\xa6\\xef\\xbc\\x88Token Presale with Linear Vesting\\xef\\xbc\\x89/TokenPresale.sol\":3704:3750  require(contributedUsd > 0, \"Not Contributed\") */\n      tag_202\n      jumpi\n      mload(0x40)\n      0x08c379a000000000000000000000000000000000000000000000000000000000\n      dup2\n      mstore\n      0x04\n      add\n      tag_203\n      swap1\n      tag_204\n      jump\t// in\n    tag_203:\n      mload(0x40)\n      dup1\n      swap2\n      sub\n      swap1\n      revert\n    tag_202:\n        /* \"DeFi \\xe9\\xa2\\x84\\xe5\\x94\\xae\\xe5\\x90\\x88\\xe7\\xba\\xa6\\xef\\xbc\\x88Token Presale with Linear Vesting\\xef\\xbc\\x89/TokenPresale.sol\":3862:3877  tokenPerUsdRate */\n      immutable(\"0x7d4579ab3c781860520f730aa471b37a7366c1c6efb6e34470da23130f5149f7\")\n        /* \"DeFi \\xe9\\xa2\\x84\\xe5\\x94\\xae\\xe5\\x90\\x88\\xe7\\xba\\xa6\\xef\\xbc\\x88Token Presale with Linear Vesting\\xef\\xbc\\x89/TokenPresale.sol\":3845:3859  contributedUsd */\n      dup2\n        /* \"DeFi \\xe9\\xa2\\x84\\xe5\\x94\\xae\\xe5\\x90\\x88\\xe7\\xba\\xa6\\xef\\xbc\\x88Token Presale with Linear Vesting\\xef\\xbc\\x89/TokenPresale.sol\":3845:3877  contributedUsd * tokenPerUsdRate */\n      tag_205\n      swap2\n      swap1\n      tag_145\n      jump\t// in\n    tag_205:\n        /* \"DeFi \\xe9\\xa2\\x84\\xe5\\x94\\xae\\xe5\\x90\\x88\\xe7\\xba\\xa6\\xef\\xbc\\x88Token Presale with Linear Vesting\\xef\\xbc\\x89/TokenPresale.sol\":3815:3829  userTotalToken */\n      0x07\n        /* \"DeFi \\xe9\\xa2\\x84\\xe5\\x94\\xae\\xe5\\x90\\x88\\xe7\\xba\\xa6\\xef\\xbc\\x88Token Presale with Linear Vesting\\xef\\xbc\\x89/TokenPresale.sol\":3815:3842  userTotalToken[contributor] */\n      0x00\n        /* \"DeFi \\xe9\\xa2\\x84\\xe5\\x94\\xae\\xe5\\x90\\x88\\xe7\\xba\\xa6\\xef\\xbc\\x88Token Presale with Linear Vesting\\xef\\xbc\\x89/TokenPresale.sol\":3830:3841  contributor */\n      dup5\n        /* \"DeFi \\xe9\\xa2\\x84\\xe5\\x94\\xae\\xe5\\x90\\x88\\xe7\\xba\\xa6\\xef\\xbc\\x88Token Presale with Linear Vesting\\xef\\xbc\\x89/TokenPresale.sol\":3815:3842  userTotalToken[contributor] */\n      0xffffffffffffffffffffffffffffffffffffffff\n      and\n      0xffffffffffffffffffffffffffffffffffffffff\n      and\n      dup2\n      mstore\n      0x20\n      add\n      swap1\n      dup2\n      mstore\n      0x20\n      add\n      0x00\n      keccak256\n        /* \"DeFi \\xe9\\xa2\\x84\\xe5\\x94\\xae\\xe5\\x90\\x88\\xe7\\xba\\xa6\\xef\\xbc\\x88Token Presale with Linear Vesting\\xef\\xbc\\x89/TokenPresale.sol\":3815:3877  userTotalToken[contributor] = contributedUsd * tokenPerUsdRate */\n      dup2\n      swap1\n      sstore\n      pop\n        /* \"DeFi \\xe9\\xa2\\x84\\xe5\\x94\\xae\\xe5\\x90\\x88\\xe7\\xba\\xa6\\xef\\xbc\\x88Token Presale with Linear Vesting\\xef\\xbc\\x89/TokenPresale.sol\":3562:3888  {... */\n      pop\n      pop\n        /* \"DeFi \\xe9\\xa2\\x84\\xe5\\x94\\xae\\xe5\\x90\\x88\\xe7\\xba\\xa6\\xef\\xbc\\x88Token Presale with Linear Vesting\\xef\\xbc\\x89/TokenPresale.sol\":3558:3561  ++i */\n      dup1\n      tag_206\n      swap1\n      tag_207\n      jump\t// in\n    tag_206:\n      swap1\n      pop\n        /* \"DeFi \\xe9\\xa2\\x84\\xe5\\x94\\xae\\xe5\\x90\\x88\\xe7\\xba\\xa6\\xef\\xbc\\x88Token Presale with Linear Vesting\\xef\\xbc\\x89/TokenPresale.sol\":3515:3888  for (uint256 i = 0;i < contributors.length;++i){... */\n      jump(tag_194)\n    tag_195:\n      pop\n        /* \"DeFi \\xe9\\xa2\\x84\\xe5\\x94\\xae\\xe5\\x90\\x88\\xe7\\xba\\xa6\\xef\\xbc\\x88Token Presale with Linear Vesting\\xef\\xbc\\x89/TokenPresale.sol\":3470:3894  function calculateTokens() private {... */\n      jump\t// out\n        /* \"#utility.yul\":7:84   */\n    tag_208:\n        /* \"#utility.yul\":44:51   */\n      0x00\n        /* \"#utility.yul\":73:78   */\n      dup2\n        /* \"#utility.yul\":62:78   */\n      swap1\n      pop\n        /* \"#utility.yul\":7:84   */\n      swap2\n      swap1\n      pop\n      jump\t// out\n        /* \"#utility.yul\":90:208   */\n    tag_209:\n        /* \"#utility.yul\":177:201   */\n      tag_240\n        /* \"#utility.yul\":195:200   */\n      dup2\n        /* \"#utility.yul\":177:201   */\n      tag_208\n      jump\t// in\n    tag_240:\n        /* \"#utility.yul\":172:175   */\n      dup3\n        /* \"#utility.yul\":165:202   */\n      mstore\n        /* \"#utility.yul\":90:208   */\n      pop\n      pop\n      jump\t// out\n        /* \"#utility.yul\":214:436   */\n    tag_38:\n        /* \"#utility.yul\":307:311   */\n      0x00\n        /* \"#utility.yul\":345:347   */\n      0x20\n        /* \"#utility.yul\":334:343   */\n      dup3\n        /* \"#utility.yul\":330:348   */\n      add\n        /* \"#utility.yul\":322:348   */\n      swap1\n      pop\n        /* \"#utility.yul\":358:429   */\n      tag_242\n        /* \"#utility.yul\":426:427   */\n      0x00\n        /* \"#utility.yul\":415:424   */\n      dup4\n        /* \"#utility.yul\":411:428   */\n      add\n        /* \"#utility.yul\":402:408   */\n      dup5\n        /* \"#utility.yul\":358:429   */\n      tag_209\n      jump\t// in\n    tag_242:\n        /* \"#utility.yul\":214:436   */\n      swap3\n      swap2\n      pop\n      pop\n      jump\t// out\n        /* \"#utility.yul\":523:640   */\n    tag_211:\n        /* \"#utility.yul\":632:633   */\n      0x00\n        /* \"#utility.yul\":629:630   */\n      dup1\n        /* \"#utility.yul\":622:634   */\n      revert\n        /* \"#utility.yul\":769:895   */\n    tag_213:\n        /* \"#utility.yul\":806:813   */\n      0x00\n        /* \"#utility.yul\":846:888   */\n      0xffffffffffffffffffffffffffffffffffffffff\n        /* \"#utility.yul\":839:844   */\n      dup3\n        /* \"#utility.yul\":835:889   */\n      and\n        /* \"#utility.yul\":824:889   */\n      swap1\n      pop\n        /* \"#utility.yul\":769:895   */\n      swap2\n      swap1\n      pop\n      jump\t// out\n        /* \"#utility.yul\":901:997   */\n    tag_214:\n        /* \"#utility.yul\":938:945   */\n      0x00\n        /* \"#utility.yul\":967:991   */\n      tag_248\n        /* \"#utility.yul\":985:990   */\n      dup3\n        /* \"#utility.yul\":967:991   */\n      tag_213\n      jump\t// in\n    tag_248:\n        /* \"#utility.yul\":956:991   */\n      swap1\n      pop\n        /* \"#utility.yul\":901:997   */\n      swap2\n      swap1\n      pop\n      jump\t// out\n        /* \"#utility.yul\":1003:1125   */\n    tag_215:\n        /* \"#utility.yul\":1076:1100   */\n      tag_250\n        /* \"#utility.yul\":1094:1099   */\n      dup2\n        /* \"#utility.yul\":1076:1100   */\n      tag_214\n      jump\t// in\n    tag_250:\n        /* \"#utility.yul\":1069:1074   */\n      dup2\n        /* \"#utility.yul\":1066:1101   */\n      eq\n        /* \"#utility.yul\":1056:1119   */\n      tag_251\n      jumpi\n        /* \"#utility.yul\":1115:1116   */\n      0x00\n        /* \"#utility.yul\":1112:1113   */\n      dup1\n        /* \"#utility.yul\":1105:1117   */\n      revert\n        /* \"#utility.yul\":1056:1119   */\n    tag_251:\n        /* \"#utility.yul\":1003:1125   */\n      pop\n      jump\t// out\n        /* \"#utility.yul\":1131:1270   */\n    tag_216:\n        /* \"#utility.yul\":1177:1182   */\n      0x00\n        /* \"#utility.yul\":1215:1221   */\n      dup2\n        /* \"#utility.yul\":1202:1222   */\n      calldataload\n        /* \"#utility.yul\":1193:1222   */\n      swap1\n      pop\n        /* \"#utility.yul\":1231:1264   */\n      tag_253\n        /* \"#utility.yul\":1258:1263   */\n      dup2\n        /* \"#utility.yul\":1231:1264   */\n      tag_215\n      jump\t// in\n    tag_253:\n        /* \"#utility.yul\":1131:1270   */\n      swap3\n      swap2\n      pop\n      pop\n      jump\t// out\n        /* \"#utility.yul\":1276:1605   */\n    tag_42:\n        /* \"#utility.yul\":1335:1341   */\n      0x00\n        /* \"#utility.yul\":1384:1386   */\n      0x20\n        /* \"#utility.yul\":1372:1381   */\n      dup3\n        /* \"#utility.yul\":1363:1370   */\n      dup5\n        /* \"#utility.yul\":1359:1382   */\n      sub\n        /* \"#utility.yul\":1355:1387   */\n      slt\n        /* \"#utility.yul\":1352:1471   */\n      iszero\n      tag_255\n      jumpi\n        /* \"#utility.yul\":1390:1469   */\n      tag_256\n      tag_211\n      jump\t// in\n    tag_256:\n        /* \"#utility.yul\":1352:1471   */\n    tag_255:\n        /* \"#utility.yul\":1510:1511   */\n      0x00\n        /* \"#utility.yul\":1535:1588   */\n      tag_257\n        /* \"#utility.yul\":1580:1587   */\n      dup5\n        /* \"#utility.yul\":1571:1577   */\n      dup3\n        /* \"#utility.yul\":1560:1569   */\n      dup6\n        /* \"#utility.yul\":1556:1578   */\n      add\n        /* \"#utility.yul\":1535:1588   */\n      tag_216\n      jump\t// in\n    tag_257:\n        /* \"#utility.yul\":1525:1588   */\n      swap2\n      pop\n        /* \"#utility.yul\":1481:1598   */\n      pop\n        /* \"#utility.yul\":1276:1605   */\n      swap3\n      swap2\n      pop\n      pop\n      jump\t// out\n        /* \"#utility.yul\":1611:1701   */\n    tag_217:\n        /* \"#utility.yul\":1645:1652   */\n      0x00\n        /* \"#utility.yul\":1688:1693   */\n      dup2\n        /* \"#utility.yul\":1681:1694   */\n      iszero\n        /* \"#utility.yul\":1674:1695   */\n      iszero\n        /* \"#utility.yul\":1663:1695   */\n      swap1\n      pop\n        /* \"#utility.yul\":1611:1701   */\n      swap2\n      swap1\n      pop\n      jump\t// out\n        /* \"#utility.yul\":1707:1816   */\n    tag_218:\n        /* \"#utility.yul\":1788:1809   */\n      tag_260\n        /* \"#utility.yul\":1803:1808   */\n      dup2\n        /* \"#utility.yul\":1788:1809   */\n      tag_217\n      jump\t// in\n    tag_260:\n        /* \"#utility.yul\":1783:1786   */\n      dup3\n        /* \"#utility.yul\":1776:1810   */\n      mstore\n        /* \"#utility.yul\":1707:1816   */\n      pop\n      pop\n      jump\t// out\n        /* \"#utility.yul\":1822:2032   */\n    tag_45:\n        /* \"#utility.yul\":1909:1913   */\n      0x00\n        /* \"#utility.yul\":1947:1949   */\n      0x20\n        /* \"#utility.yul\":1936:1945   */\n      dup3\n        /* \"#utility.yul\":1932:1950   */\n      add\n        /* \"#utility.yul\":1924:1950   */\n      swap1\n      pop\n        /* \"#utility.yul\":1960:2025   */\n      tag_262\n        /* \"#utility.yul\":2022:2023   */\n      0x00\n        /* \"#utility.yul\":2011:2020   */\n      dup4\n        /* \"#utility.yul\":2007:2024   */\n      add\n        /* \"#utility.yul\":1998:2004   */\n      dup5\n        /* \"#utility.yul\":1960:2025   */\n      tag_218\n      jump\t// in\n    tag_262:\n        /* \"#utility.yul\":1822:2032   */\n      swap3\n      swap2\n      pop\n      pop\n      jump\t// out\n        /* \"#utility.yul\":2038:2160   */\n    tag_219:\n        /* \"#utility.yul\":2111:2135   */\n      tag_264\n        /* \"#utility.yul\":2129:2134   */\n      dup2\n        /* \"#utility.yul\":2111:2135   */\n      tag_208\n      jump\t// in\n    tag_264:\n        /* \"#utility.yul\":2104:2109   */\n      dup2\n        /* \"#utility.yul\":2101:2136   */\n      eq\n        /* \"#utility.yul\":2091:2154   */\n      tag_265\n      jumpi\n        /* \"#utility.yul\":2150:2151   */\n      0x00\n        /* \"#utility.yul\":2147:2148   */\n      dup1\n        /* \"#utility.yul\":2140:2152   */\n      revert\n        /* \"#utility.yul\":2091:2154   */\n    tag_265:\n        /* \"#utility.yul\":2038:2160   */\n      pop\n      jump\t// out\n        /* \"#utility.yul\":2166:2305   */\n    tag_220:\n        /* \"#utility.yul\":2212:2217   */\n      0x00\n        /* \"#utility.yul\":2250:2256   */\n      dup2\n        /* \"#utility.yul\":2237:2257   */\n      calldataload\n        /* \"#utility.yul\":2228:2257   */\n      swap1\n      pop\n        /* \"#utility.yul\":2266:2299   */\n      tag_267\n        /* \"#utility.yul\":2293:2298   */\n      dup2\n        /* \"#utility.yul\":2266:2299   */\n      tag_219\n      jump\t// in\n    tag_267:\n        /* \"#utility.yul\":2166:2305   */\n      swap3\n      swap2\n      pop\n      pop\n      jump\t// out\n        /* \"#utility.yul\":2311:2640   */\n    tag_66:\n        /* \"#utility.yul\":2370:2376   */\n      0x00\n        /* \"#utility.yul\":2419:2421   */\n      0x20\n        /* \"#utility.yul\":2407:2416   */\n      dup3\n        /* \"#utility.yul\":2398:2405   */\n      dup5\n        /* \"#utility.yul\":2394:2417   */\n      sub\n        /* \"#utility.yul\":2390:2422   */\n      slt\n        /* \"#utility.yul\":2387:2506   */\n      iszero\n      tag_269\n      jumpi\n        /* \"#utility.yul\":2425:2504   */\n      tag_270\n      tag_211\n      jump\t// in\n    tag_270:\n        /* \"#utility.yul\":2387:2506   */\n    tag_269:\n        /* \"#utility.yul\":2545:2546   */\n      0x00\n        /* \"#utility.yul\":2570:2623   */\n      tag_271\n        /* \"#utility.yul\":2615:2622   */\n      dup5\n        /* \"#utility.yul\":2606:2612   */\n      dup3\n        /* \"#utility.yul\":2595:2604   */\n      dup6\n        /* \"#utility.yul\":2591:2613   */\n      add\n        /* \"#utility.yul\":2570:2623   */\n      tag_220\n      jump\t// in\n    tag_271:\n        /* \"#utility.yul\":2560:2623   */\n      swap2\n      pop\n        /* \"#utility.yul\":2516:2633   */\n      pop\n        /* \"#utility.yul\":2311:2640   */\n      swap3\n      swap2\n      pop\n      pop\n      jump\t// out\n        /* \"#utility.yul\":2646:2764   */\n    tag_221:\n        /* \"#utility.yul\":2733:2757   */\n      tag_273\n        /* \"#utility.yul\":2751:2756   */\n      dup2\n        /* \"#utility.yul\":2733:2757   */\n      tag_214\n      jump\t// in\n    tag_273:\n        /* \"#utility.yul\":2728:2731   */\n      dup3\n        /* \"#utility.yul\":2721:2758   */\n      mstore\n        /* \"#utility.yul\":2646:2764   */\n      pop\n      pop\n      jump\t// out\n        /* \"#utility.yul\":2770:2992   */\n    tag_69:\n        /* \"#utility.yul\":2863:2867   */\n      0x00\n        /* \"#utility.yul\":2901:2903   */\n      0x20\n        /* \"#utility.yul\":2890:2899   */\n      dup3\n        /* \"#utility.yul\":2886:2904   */\n      add\n        /* \"#utility.yul\":2878:2904   */\n      swap1\n      pop\n        /* \"#utility.yul\":2914:2985   */\n      tag_275\n        /* \"#utility.yul\":2982:2983   */\n      0x00\n        /* \"#utility.yul\":2971:2980   */\n      dup4\n        /* \"#utility.yul\":2967:2984   */\n      add\n        /* \"#utility.yul\":2958:2964   */\n      dup5\n        /* \"#utility.yul\":2914:2985   */\n      tag_221\n      jump\t// in\n    tag_275:\n        /* \"#utility.yul\":2770:2992   */\n      swap3\n      swap2\n      pop\n      pop\n      jump\t// out\n        /* \"#utility.yul\":2998:3440   */\n    tag_90:\n        /* \"#utility.yul\":3147:3151   */\n      0x00\n        /* \"#utility.yul\":3185:3187   */\n      0x60\n        /* \"#utility.yul\":3174:3183   */\n      dup3\n        /* \"#utility.yul\":3170:3188   */\n      add\n        /* \"#utility.yul\":3162:3188   */\n      swap1\n      pop\n        /* \"#utility.yul\":3198:3269   */\n      tag_277\n        /* \"#utility.yul\":3266:3267   */\n      0x00\n        /* \"#utility.yul\":3255:3264   */\n      dup4\n        /* \"#utility.yul\":3251:3268   */\n      add\n        /* \"#utility.yul\":3242:3248   */\n      dup7\n        /* \"#utility.yul\":3198:3269   */\n      tag_209\n      jump\t// in\n    tag_277:\n        /* \"#utility.yul\":3279:3351   */\n      tag_278\n        /* \"#utility.yul\":3347:3349   */\n      0x20\n        /* \"#utility.yul\":3336:3345   */\n      dup4\n        /* \"#utility.yul\":3332:3350   */\n      add\n        /* \"#utility.yul\":3323:3329   */\n      dup6\n        /* \"#utility.yul\":3279:3351   */\n      tag_209\n      jump\t// in\n    tag_278:\n        /* \"#utility.yul\":3361:3433   */\n      tag_279\n        /* \"#utility.yul\":3429:3431   */\n      0x40\n        /* \"#utility.yul\":3418:3427   */\n      dup4\n        /* \"#utility.yul\":3414:3432   */\n      add\n        /* \"#utility.yul\":3405:3411   */\n      dup5\n        /* \"#utility.yul\":3361:3433   */\n      tag_209\n      jump\t// in\n    tag_279:\n        /* \"#utility.yul\":2998:3440   */\n      swap5\n      swap4\n      pop\n      pop\n      pop\n      pop\n      jump\t// out\n        /* \"#utility.yul\":3446:3626   */\n    tag_222:\n        /* \"#utility.yul\":3494:3571   */\n      0x4e487b7100000000000000000000000000000000000000000000000000000000\n        /* \"#utility.yul\":3491:3492   */\n      0x00\n        /* \"#utility.yul\":3484:3572   */\n      mstore\n        /* \"#utility.yul\":3591:3595   */\n      0x11\n        /* \"#utility.yul\":3588:3589   */\n      0x04\n        /* \"#utility.yul\":3581:3596   */\n      mstore\n        /* \"#utility.yul\":3615:3619   */\n      0x24\n        /* \"#utility.yul\":3612:3613   */\n      0x00\n        /* \"#utility.yul\":3605:3620   */\n      revert\n        /* \"#utility.yul\":3632:3823   */\n    tag_136:\n        /* \"#utility.yul\":3672:3675   */\n      0x00\n        /* \"#utility.yul\":3691:3711   */\n      tag_282\n        /* \"#utility.yul\":3709:3710   */\n      dup3\n        /* \"#utility.yul\":3691:3711   */\n      tag_208\n      jump\t// in\n    tag_282:\n        /* \"#utility.yul\":3686:3711   */\n      swap2\n      pop\n        /* \"#utility.yul\":3725:3745   */\n      tag_283\n        /* \"#utility.yul\":3743:3744   */\n      dup4\n        /* \"#utility.yul\":3725:3745   */\n      tag_208\n      jump\t// in\n    tag_283:\n        /* \"#utility.yul\":3720:3745   */\n      swap3\n      pop\n        /* \"#utility.yul\":3768:3769   */\n      dup3\n        /* \"#utility.yul\":3765:3766   */\n      dup3\n        /* \"#utility.yul\":3761:3770   */\n      add\n        /* \"#utility.yul\":3754:3770   */\n      swap1\n      pop\n        /* \"#utility.yul\":3789:3792   */\n      dup1\n        /* \"#utility.yul\":3786:3787   */\n      dup3\n        /* \"#utility.yul\":3783:3793   */\n      gt\n        /* \"#utility.yul\":3780:3816   */\n      iszero\n      tag_284\n      jumpi\n        /* \"#utility.yul\":3796:3814   */\n      tag_285\n      tag_222\n      jump\t// in\n    tag_285:\n        /* \"#utility.yul\":3780:3816   */\n    tag_284:\n        /* \"#utility.yul\":3632:3823   */\n      swap3\n      swap2\n      pop\n      pop\n      jump\t// out\n        /* \"#utility.yul\":3829:4023   */\n    tag_142:\n        /* \"#utility.yul\":3869:3873   */\n      0x00\n        /* \"#utility.yul\":3889:3909   */\n      tag_287\n        /* \"#utility.yul\":3907:3908   */\n      dup3\n        /* \"#utility.yul\":3889:3909   */\n      tag_208\n      jump\t// in\n    tag_287:\n        /* \"#utility.yul\":3884:3909   */\n      swap2\n      pop\n        /* \"#utility.yul\":3923:3943   */\n      tag_288\n        /* \"#utility.yul\":3941:3942   */\n      dup4\n        /* \"#utility.yul\":3923:3943   */\n      tag_208\n      jump\t// in\n    tag_288:\n        /* \"#utility.yul\":3918:3943   */\n      swap3\n      pop\n        /* \"#utility.yul\":3967:3968   */\n      dup3\n        /* \"#utility.yul\":3964:3965   */\n      dup3\n        /* \"#utility.yul\":3960:3969   */\n      sub\n        /* \"#utility.yul\":3952:3969   */\n      swap1\n      pop\n        /* \"#utility.yul\":3991:3992   */\n      dup2\n        /* \"#utility.yul\":3985:3989   */\n      dup2\n        /* \"#utility.yul\":3982:3993   */\n      gt\n        /* \"#utility.yul\":3979:4016   */\n      iszero\n      tag_289\n      jumpi\n        /* \"#utility.yul\":3996:4014   */\n      tag_290\n      tag_222\n      jump\t// in\n    tag_290:\n        /* \"#utility.yul\":3979:4016   */\n    tag_289:\n        /* \"#utility.yul\":3829:4023   */\n      swap3\n      swap2\n      pop\n      pop\n      jump\t// out\n        /* \"#utility.yul\":4029:4439   */\n    tag_145:\n        /* \"#utility.yul\":4069:4076   */\n      0x00\n        /* \"#utility.yul\":4092:4112   */\n      tag_292\n        /* \"#utility.yul\":4110:4111   */\n      dup3\n        /* \"#utility.yul\":4092:4112   */\n      tag_208\n      jump\t// in\n    tag_292:\n        /* \"#utility.yul\":4087:4112   */\n      swap2\n      pop\n        /* \"#utility.yul\":4126:4146   */\n      tag_293\n        /* \"#utility.yul\":4144:4145   */\n      dup4\n        /* \"#utility.yul\":4126:4146   */\n      tag_208\n      jump\t// in\n    tag_293:\n        /* \"#utility.yul\":4121:4146   */\n      swap3\n      pop\n        /* \"#utility.yul\":4181:4182   */\n      dup3\n        /* \"#utility.yul\":4178:4179   */\n      dup3\n        /* \"#utility.yul\":4174:4183   */\n      mul\n        /* \"#utility.yul\":4203:4233   */\n      tag_294\n        /* \"#utility.yul\":4221:4232   */\n      dup2\n        /* \"#utility.yul\":4203:4233   */\n      tag_208\n      jump\t// in\n    tag_294:\n        /* \"#utility.yul\":4192:4233   */\n      swap2\n      pop\n        /* \"#utility.yul\":4382:4383   */\n      dup3\n        /* \"#utility.yul\":4373:4380   */\n      dup3\n        /* \"#utility.yul\":4369:4384   */\n      div\n        /* \"#utility.yul\":4366:4367   */\n      dup5\n        /* \"#utility.yul\":4363:4385   */\n      eq\n        /* \"#utility.yul\":4343:4344   */\n      dup4\n        /* \"#utility.yul\":4336:4345   */\n      iszero\n        /* \"#utility.yul\":4316:4399   */\n      or\n        /* \"#utility.yul\":4293:4432   */\n      tag_295\n      jumpi\n        /* \"#utility.yul\":4412:4430   */\n      tag_296\n      tag_222\n      jump\t// in\n    tag_296:\n        /* \"#utility.yul\":4293:4432   */\n    tag_295:\n        /* \"#utility.yul\":4077:4439   */\n      pop\n        /* \"#utility.yul\":4029:4439   */\n      swap3\n      swap2\n      pop\n      pop\n      jump\t// out\n        /* \"#utility.yul\":4445:4625   */\n    tag_223:\n        /* \"#utility.yul\":4493:4570   */\n      0x4e487b7100000000000000000000000000000000000000000000000000000000\n        /* \"#utility.yul\":4490:4491   */\n      0x00\n        /* \"#utility.yul\":4483:4571   */\n      mstore\n        /* \"#utility.yul\":4590:4594   */\n      0x12\n        /* \"#utility.yul\":4587:4588   */\n      0x04\n        /* \"#utility.yul\":4580:4595   */\n      mstore\n        /* \"#utility.yul\":4614:4618   */\n      0x24\n        /* \"#utility.yul\":4611:4612   */\n      0x00\n        /* \"#utility.yul\":4604:4619   */\n      revert\n        /* \"#utility.yul\":4631:4816   */\n    tag_147:\n        /* \"#utility.yul\":4671:4672   */\n      0x00\n        /* \"#utility.yul\":4688:4708   */\n      tag_299\n        /* \"#utility.yul\":4706:4707   */\n      dup3\n        /* \"#utility.yul\":4688:4708   */\n      tag_208\n      jump\t// in\n    tag_299:\n        /* \"#utility.yul\":4683:4708   */\n      swap2\n      pop\n        /* \"#utility.yul\":4722:4742   */\n      tag_300\n        /* \"#utility.yul\":4740:4741   */\n      dup4\n        /* \"#utility.yul\":4722:4742   */\n      tag_208\n      jump\t// in\n    tag_300:\n        /* \"#utility.yul\":4717:4742   */\n      swap3\n      pop\n        /* \"#utility.yul\":4761:4762   */\n      dup3\n        /* \"#utility.yul\":4751:4786   */\n      tag_301\n      jumpi\n        /* \"#utility.yul\":4766:4784   */\n      tag_302\n      tag_223\n      jump\t// in\n    tag_302:\n        /* \"#utility.yul\":4751:4786   */\n    tag_301:\n        /* \"#utility.yul\":4808:4809   */\n      dup3\n        /* \"#utility.yul\":4805:4806   */\n      dup3\n        /* \"#utility.yul\":4801:4810   */\n      div\n        /* \"#utility.yul\":4796:4810   */\n      swap1\n      pop\n        /* \"#utility.yul\":4631:4816   */\n      swap3\n      swap2\n      pop\n      pop\n      jump\t// out\n        /* \"#utility.yul\":4822:4969   */\n    tag_224:\n        /* \"#utility.yul\":4923:4934   */\n      0x00\n        /* \"#utility.yul\":4960:4963   */\n      dup2\n        /* \"#utility.yul\":4945:4963   */\n      swap1\n      pop\n        /* \"#utility.yul\":4822:4969   */\n      swap3\n      swap2\n      pop\n      pop\n      jump\t// out\n        /* \"#utility.yul\":4975:5089   */\n    tag_225:\n      pop\n      jump\t// out\n        /* \"#utility.yul\":5095:5493   */\n    tag_226:\n        /* \"#utility.yul\":5254:5257   */\n      0x00\n        /* \"#utility.yul\":5275:5358   */\n      tag_306\n        /* \"#utility.yul\":5356:5357   */\n      0x00\n        /* \"#utility.yul\":5351:5354   */\n      dup4\n        /* \"#utility.yul\":5275:5358   */\n      tag_224\n      jump\t// in\n    tag_306:\n        /* \"#utility.yul\":5268:5358   */\n      swap2\n      pop\n        /* \"#utility.yul\":5367:5460   */\n      tag_307\n        /* \"#utility.yul\":5456:5459   */\n      dup3\n        /* \"#utility.yul\":5367:5460   */\n      tag_225\n      jump\t// in\n    tag_307:\n        /* \"#utility.yul\":5485:5486   */\n      0x00\n        /* \"#utility.yul\":5480:5483   */\n      dup3\n        /* \"#utility.yul\":5476:5487   */\n      add\n        /* \"#utility.yul\":5469:5487   */\n      swap1\n      pop\n        /* \"#utility.yul\":5095:5493   */\n      swap2\n      swap1\n      pop\n      jump\t// out\n        /* \"#utility.yul\":5499:5878   */\n    tag_174:\n        /* \"#utility.yul\":5683:5686   */\n      0x00\n        /* \"#utility.yul\":5705:5852   */\n      tag_309\n        /* \"#utility.yul\":5848:5851   */\n      dup3\n        /* \"#utility.yul\":5705:5852   */\n      tag_226\n      jump\t// in\n    tag_309:\n        /* \"#utility.yul\":5698:5852   */\n      swap2\n      pop\n        /* \"#utility.yul\":5869:5872   */\n      dup2\n        /* \"#utility.yul\":5862:5872   */\n      swap1\n      pop\n        /* \"#utility.yul\":5499:5878   */\n      swap2\n      swap1\n      pop\n      jump\t// out\n        /* \"#utility.yul\":5884:5989   */\n    tag_227:\n        /* \"#utility.yul\":5920:5927   */\n      0x00\n        /* \"#utility.yul\":5960:5982   */\n      0xffffffffffffffffffff\n        /* \"#utility.yul\":5953:5958   */\n      dup3\n        /* \"#utility.yul\":5949:5983   */\n      and\n        /* \"#utility.yul\":5938:5983   */\n      swap1\n      pop\n        /* \"#utility.yul\":5884:5989   */\n      swap2\n      swap1\n      pop\n      jump\t// out\n        /* \"#utility.yul\":5995:6115   */\n    tag_228:\n        /* \"#utility.yul\":6067:6090   */\n      tag_312\n        /* \"#utility.yul\":6084:6089   */\n      dup2\n        /* \"#utility.yul\":6067:6090   */\n      tag_227\n      jump\t// in\n    tag_312:\n        /* \"#utility.yul\":6060:6065   */\n      dup2\n        /* \"#utility.yul\":6057:6091   */\n      eq\n        /* \"#utility.yul\":6047:6109   */\n      tag_313\n      jumpi\n        /* \"#utility.yul\":6105:6106   */\n      0x00\n        /* \"#utility.yul\":6102:6103   */\n      dup1\n        /* \"#utility.yul\":6095:6107   */\n      revert\n        /* \"#utility.yul\":6047:6109   */\n    tag_313:\n        /* \"#utility.yul\":5995:6115   */\n      pop\n      jump\t// out\n        /* \"#utility.yul\":6121:6262   */\n    tag_229:\n        /* \"#utility.yul\":6177:6182   */\n      0x00\n        /* \"#utility.yul\":6208:6214   */\n      dup2\n        /* \"#utility.yul\":6202:6215   */\n      mload\n        /* \"#utility.yul\":6193:6215   */\n      swap1\n      pop\n        /* \"#utility.yul\":6224:6256   */\n      tag_315\n        /* \"#utility.yul\":6250:6255   */\n      dup2\n        /* \"#utility.yul\":6224:6256   */\n      tag_228\n      jump\t// in\n    tag_315:\n        /* \"#utility.yul\":6121:6262   */\n      swap3\n      swap2\n      pop\n      pop\n      jump\t// out\n        /* \"#utility.yul\":6268:6344   */\n    tag_230:\n        /* \"#utility.yul\":6304:6311   */\n      0x00\n        /* \"#utility.yul\":6333:6338   */\n      dup2\n        /* \"#utility.yul\":6322:6338   */\n      swap1\n      pop\n        /* \"#utility.yul\":6268:6344   */\n      swap2\n      swap1\n      pop\n      jump\t// out\n        /* \"#utility.yul\":6350:6470   */\n    tag_231:\n        /* \"#utility.yul\":6422:6445   */\n      tag_318\n        /* \"#utility.yul\":6439:6444   */\n      dup2\n        /* \"#utility.yul\":6422:6445   */\n      tag_230\n      jump\t// in\n    tag_318:\n        /* \"#utility.yul\":6415:6420   */\n      dup2\n        /* \"#utility.yul\":6412:6446   */\n      eq\n        /* \"#utility.yul\":6402:6464   */\n      tag_319\n      jumpi\n        /* \"#utility.yul\":6460:6461   */\n      0x00\n        /* \"#utility.yul\":6457:6458   */\n      dup1\n        /* \"#utility.yul\":6450:6462   */\n      revert\n        /* \"#utility.yul\":6402:6464   */\n    tag_319:\n        /* \"#utility.yul\":6350:6470   */\n      pop\n      jump\t// out\n        /* \"#utility.yul\":6476:6617   */\n    tag_232:\n        /* \"#utility.yul\":6532:6537   */\n      0x00\n        /* \"#utility.yul\":6563:6569   */\n      dup2\n        /* \"#utility.yul\":6557:6570   */\n      mload\n        /* \"#utility.yul\":6548:6570   */\n      swap1\n      pop\n        /* \"#utility.yul\":6579:6611   */\n      tag_321\n        /* \"#utility.yul\":6605:6610   */\n      dup2\n        /* \"#utility.yul\":6579:6611   */\n      tag_231\n      jump\t// in\n    tag_321:\n        /* \"#utility.yul\":6476:6617   */\n      swap3\n      swap2\n      pop\n      pop\n      jump\t// out\n        /* \"#utility.yul\":6623:6766   */\n    tag_233:\n        /* \"#utility.yul\":6680:6685   */\n      0x00\n        /* \"#utility.yul\":6711:6717   */\n      dup2\n        /* \"#utility.yul\":6705:6718   */\n      mload\n        /* \"#utility.yul\":6696:6718   */\n      swap1\n      pop\n        /* \"#utility.yul\":6727:6760   */\n      tag_323\n        /* \"#utility.yul\":6754:6759   */\n      dup2\n        /* \"#utility.yul\":6727:6760   */\n      tag_219\n      jump\t// in\n    tag_323:\n        /* \"#utility.yul\":6623:6766   */\n      swap3\n      swap2\n      pop\n      pop\n      jump\t// out\n        /* \"#utility.yul\":6772:7743   */\n    tag_185:\n        /* \"#utility.yul\":6875:6881   */\n      0x00\n        /* \"#utility.yul\":6883:6889   */\n      dup1\n        /* \"#utility.yul\":6891:6897   */\n      0x00\n        /* \"#utility.yul\":6899:6905   */\n      dup1\n        /* \"#utility.yul\":6907:6913   */\n      0x00\n        /* \"#utility.yul\":6956:6959   */\n      0xa0\n        /* \"#utility.yul\":6944:6953   */\n      dup7\n        /* \"#utility.yul\":6935:6942   */\n      dup9\n        /* \"#utility.yul\":6931:6954   */\n      sub\n        /* \"#utility.yul\":6927:6960   */\n      slt\n        /* \"#utility.yul\":6924:7044   */\n      iszero\n      tag_325\n      jumpi\n        /* \"#utility.yul\":6963:7042   */\n      tag_326\n      tag_211\n      jump\t// in\n    tag_326:\n        /* \"#utility.yul\":6924:7044   */\n    tag_325:\n        /* \"#utility.yul\":7083:7084   */\n      0x00\n        /* \"#utility.yul\":7108:7171   */\n      tag_327\n        /* \"#utility.yul\":7163:7170   */\n      dup9\n        /* \"#utility.yul\":7154:7160   */\n      dup3\n        /* \"#utility.yul\":7143:7152   */\n      dup10\n        /* \"#utility.yul\":7139:7161   */\n      add\n        /* \"#utility.yul\":7108:7171   */\n      tag_229\n      jump\t// in\n    tag_327:\n        /* \"#utility.yul\":7098:7171   */\n      swap6\n      pop\n        /* \"#utility.yul\":7054:7181   */\n      pop\n        /* \"#utility.yul\":7220:7222   */\n      0x20\n        /* \"#utility.yul\":7246:7309   */\n      tag_328\n        /* \"#utility.yul\":7301:7308   */\n      dup9\n        /* \"#utility.yul\":7292:7298   */\n      dup3\n        /* \"#utility.yul\":7281:7290   */\n      dup10\n        /* \"#utility.yul\":7277:7299   */\n      add\n        /* \"#utility.yul\":7246:7309   */\n      tag_232\n      jump\t// in\n    tag_328:\n        /* \"#utility.yul\":7236:7309   */\n      swap5\n      pop\n        /* \"#utility.yul\":7191:7319   */\n      pop\n        /* \"#utility.yul\":7358:7360   */\n      0x40\n        /* \"#utility.yul\":7384:7448   */\n      tag_329\n        /* \"#utility.yul\":7440:7447   */\n      dup9\n        /* \"#utility.yul\":7431:7437   */\n      dup3\n        /* \"#utility.yul\":7420:7429   */\n      dup10\n        /* \"#utility.yul\":7416:7438   */\n      add\n        /* \"#utility.yul\":7384:7448   */\n      tag_233\n      jump\t// in\n    tag_329:\n        /* \"#utility.yul\":7374:7448   */\n      swap4\n      pop\n        /* \"#utility.yul\":7329:7458   */\n      pop\n        /* \"#utility.yul\":7497:7499   */\n      0x60\n        /* \"#utility.yul\":7523:7587   */\n      tag_330\n        /* \"#utility.yul\":7579:7586   */\n      dup9\n        /* \"#utility.yul\":7570:7576   */\n      dup3\n        /* \"#utility.yul\":7559:7568   */\n      dup10\n        /* \"#utility.yul\":7555:7577   */\n      add\n        /* \"#utility.yul\":7523:7587   */\n      tag_233\n      jump\t// in\n    tag_330:\n        /* \"#utility.yul\":7513:7587   */\n      swap3\n      pop\n        /* \"#utility.yul\":7468:7597   */\n      pop\n        /* \"#utility.yul\":7636:7639   */\n      0x80\n        /* \"#utility.yul\":7663:7726   */\n      tag_331\n        /* \"#utility.yul\":7718:7725   */\n      dup9\n        /* \"#utility.yul\":7709:7715   */\n      dup3\n        /* \"#utility.yul\":7698:7707   */\n      dup10\n        /* \"#utility.yul\":7694:7716   */\n      add\n        /* \"#utility.yul\":7663:7726   */\n      tag_229\n      jump\t// in\n    tag_331:\n        /* \"#utility.yul\":7653:7726   */\n      swap2\n      pop\n        /* \"#utility.yul\":7607:7736   */\n      pop\n        /* \"#utility.yul\":6772:7743   */\n      swap3\n      swap6\n      pop\n      swap3\n      swap6\n      swap1\n      swap4\n      pop\n      jump\t// out\n        /* \"#utility.yul\":7749:8305   */\n    tag_187:\n        /* \"#utility.yul\":7788:7795   */\n      0x00\n        /* \"#utility.yul\":7811:7830   */\n      tag_333\n        /* \"#utility.yul\":7828:7829   */\n      dup3\n        /* \"#utility.yul\":7811:7830   */\n      tag_230\n      jump\t// in\n    tag_333:\n        /* \"#utility.yul\":7806:7830   */\n      swap2\n      pop\n        /* \"#utility.yul\":7844:7863   */\n      tag_334\n        /* \"#utility.yul\":7861:7862   */\n      dup4\n        /* \"#utility.yul\":7844:7863   */\n      tag_230\n      jump\t// in\n    tag_334:\n        /* \"#utility.yul\":7839:7863   */\n      swap3\n      pop\n        /* \"#utility.yul\":7898:7899   */\n      dup3\n        /* \"#utility.yul\":7895:7896   */\n      dup3\n        /* \"#utility.yul\":7891:7900   */\n      mul\n        /* \"#utility.yul\":7920:7949   */\n      tag_335\n        /* \"#utility.yul\":7937:7948   */\n      dup2\n        /* \"#utility.yul\":7920:7949   */\n      tag_230\n      jump\t// in\n    tag_335:\n        /* \"#utility.yul\":7909:7949   */\n      swap2\n      pop\n        /* \"#utility.yul\":8007:8073   */\n      0x8000000000000000000000000000000000000000000000000000000000000000\n        /* \"#utility.yul\":8004:8005   */\n      dup5\n        /* \"#utility.yul\":8001:8074   */\n      eq\n        /* \"#utility.yul\":7997:7998   */\n      0x00\n        /* \"#utility.yul\":7994:7995   */\n      dup5\n        /* \"#utility.yul\":7990:7999   */\n      slt\n        /* \"#utility.yul\":7986:8075   */\n      and\n        /* \"#utility.yul\":7983:8098   */\n      iszero\n      tag_336\n      jumpi\n        /* \"#utility.yul\":8078:8096   */\n      tag_337\n      tag_222\n      jump\t// in\n    tag_337:\n        /* \"#utility.yul\":7983:8098   */\n    tag_336:\n        /* \"#utility.yul\":8248:8249   */\n      dup3\n        /* \"#utility.yul\":8239:8246   */\n      dup3\n        /* \"#utility.yul\":8234:8250   */\n      sdiv\n        /* \"#utility.yul\":8231:8232   */\n      dup5\n        /* \"#utility.yul\":8228:8251   */\n      eq\n        /* \"#utility.yul\":8208:8209   */\n      dup4\n        /* \"#utility.yul\":8201:8210   */\n      iszero\n        /* \"#utility.yul\":8181:8265   */\n      or\n        /* \"#utility.yul\":8158:8298   */\n      tag_338\n      jumpi\n        /* \"#utility.yul\":8278:8296   */\n      tag_339\n      tag_222\n      jump\t// in\n    tag_339:\n        /* \"#utility.yul\":8158:8298   */\n    tag_338:\n        /* \"#utility.yul\":7796:8305   */\n      pop\n        /* \"#utility.yul\":7749:8305   */\n      swap3\n      swap2\n      pop\n      pop\n      jump\t// out\n        /* \"#utility.yul\":8311:8491   */\n    tag_199:\n        /* \"#utility.yul\":8359:8436   */\n      0x4e487b7100000000000000000000000000000000000000000000000000000000\n        /* \"#utility.yul\":8356:8357   */\n      0x00\n        /* \"#utility.yul\":8349:8437   */\n      mstore\n        /* \"#utility.yul\":8456:8460   */\n      0x32\n        /* \"#utility.yul\":8453:8454   */\n      0x04\n        /* \"#utility.yul\":8446:8461   */\n      mstore\n        /* \"#utility.yul\":8480:8484   */\n      0x24\n        /* \"#utility.yul\":8477:8478   */\n      0x00\n        /* \"#utility.yul\":8470:8485   */\n      revert\n        /* \"#utility.yul\":8497:8666   */\n    tag_234:\n        /* \"#utility.yul\":8581:8592   */\n      0x00\n        /* \"#utility.yul\":8615:8621   */\n      dup3\n        /* \"#utility.yul\":8610:8613   */\n      dup3\n        /* \"#utility.yul\":8603:8622   */\n      mstore\n        /* \"#utility.yul\":8655:8659   */\n      0x20\n        /* \"#utility.yul\":8650:8653   */\n      dup3\n        /* \"#utility.yul\":8646:8660   */\n      add\n        /* \"#utility.yul\":8631:8660   */\n      swap1\n      pop\n        /* \"#utility.yul\":8497:8666   */\n      swap3\n      swap2\n      pop\n      pop\n      jump\t// out\n        /* \"#utility.yul\":8672:8837   */\n    tag_235:\n        /* \"#utility.yul\":8812:8829   */\n      0x4e6f7420436f6e74726962757465640000000000000000000000000000000000\n        /* \"#utility.yul\":8808:8809   */\n      0x00\n        /* \"#utility.yul\":8800:8806   */\n      dup3\n        /* \"#utility.yul\":8796:8810   */\n      add\n        /* \"#utility.yul\":8789:8830   */\n      mstore\n        /* \"#utility.yul\":8672:8837   */\n      pop\n      jump\t// out\n        /* \"#utility.yul\":8843:9209   */\n    tag_236:\n        /* \"#utility.yul\":8985:8988   */\n      0x00\n        /* \"#utility.yul\":9006:9073   */\n      tag_344\n        /* \"#utility.yul\":9070:9072   */\n      0x0f\n        /* \"#utility.yul\":9065:9068   */\n      dup4\n        /* \"#utility.yul\":9006:9073   */\n      tag_234\n      jump\t// in\n    tag_344:\n        /* \"#utility.yul\":8999:9073   */\n      swap2\n      pop\n        /* \"#utility.yul\":9082:9175   */\n      tag_345\n        /* \"#utility.yul\":9171:9174   */\n      dup3\n        /* \"#utility.yul\":9082:9175   */\n      tag_235\n      jump\t// in\n    tag_345:\n        /* \"#utility.yul\":9200:9202   */\n      0x20\n        /* \"#utility.yul\":9195:9198   */\n      dup3\n        /* \"#utility.yul\":9191:9203   */\n      add\n        /* \"#utility.yul\":9184:9203   */\n      swap1\n      pop\n        /* \"#utility.yul\":8843:9209   */\n      swap2\n      swap1\n      pop\n      jump\t// out\n        /* \"#utility.yul\":9215:9634   */\n    tag_204:\n        /* \"#utility.yul\":9381:9385   */\n      0x00\n        /* \"#utility.yul\":9419:9421   */\n      0x20\n        /* \"#utility.yul\":9408:9417   */\n      dup3\n        /* \"#utility.yul\":9404:9422   */\n      add\n        /* \"#utility.yul\":9396:9422   */\n      swap1\n      pop\n        /* \"#utility.yul\":9468:9477   */\n      dup2\n        /* \"#utility.yul\":9462:9466   */\n      dup2\n        /* \"#utility.yul\":9458:9478   */\n      sub\n        /* \"#utility.yul\":9454:9455   */\n      0x00\n        /* \"#utility.yul\":9443:9452   */\n      dup4\n        /* \"#utility.yul\":9439:9456   */\n      add\n        /* \"#utility.yul\":9432:9479   */\n      mstore\n        /* \"#utility.yul\":9496:9627   */\n      tag_347\n        /* \"#utility.yul\":9622:9626   */\n      dup2\n        /* \"#utility.yul\":9496:9627   */\n      tag_236\n      jump\t// in\n    tag_347:\n        /* \"#utility.yul\":9488:9627   */\n      swap1\n      pop\n        /* \"#utility.yul\":9215:9634   */\n      swap2\n      swap1\n      pop\n      jump\t// out\n        /* \"#utility.yul\":9640:9873   */\n    tag_207:\n        /* \"#utility.yul\":9679:9682   */\n      0x00\n        /* \"#utility.yul\":9702:9726   */\n      tag_349\n        /* \"#utility.yul\":9720:9725   */\n      dup3\n        /* \"#utility.yul\":9702:9726   */\n      tag_208\n      jump\t// in\n    tag_349:\n        /* \"#utility.yul\":9693:9726   */\n      swap2\n      pop\n        /* \"#utility.yul\":9748:9814   */\n      0xffffffffffffffffffffffffffffffffffffffffffffffffffffffffffffffff\n        /* \"#utility.yul\":9741:9746   */\n      dup3\n        /* \"#utility.yul\":9738:9815   */\n      sub\n        /* \"#utility.yul\":9735:9838   */\n      tag_350\n      jumpi\n        /* \"#utility.yul\":9818:9836   */\n      tag_351\n      tag_222\n      jump\t// in\n    tag_351:\n        /* \"#utility.yul\":9735:9838   */\n    tag_350:\n        /* \"#utility.yul\":9865:9866   */\n      0x01\n        /* \"#utility.yul\":9858:9863   */\n      dup3\n        /* \"#utility.yul\":9854:9867   */\n      add\n        /* \"#utility.yul\":9847:9867   */\n      swap1\n      pop\n        /* \"#utility.yul\":9640:9873   */\n      swap2\n      swap1\n      pop\n      jump\t// out\n\n    auxdata: 0xa2646970667358221220b04585ac6e35c1aa24f6520ec9b9f9d560852931633485eaceb4efc66b5f668964736f6c63430008120033\n}\n",
				"bytecode": {
					"linkReferences": {},
					"object": "6101006040523480156200001257600080fd5b503373ffffffffffffffffffffffffffffffffffffffff1660808173ffffffffffffffffffffffffffffffffffffffff168152505061070842620000579190620000b7565b60a081815250506802b5e3af16b188000060c08181525050606460e08181525050620000f2565b6000819050919050565b7f4e487b7100000000000000000000000000000000000000000000000000000000600052601160045260246000fd5b6000620000c4826200007e565b9150620000d1836200007e565b9250828201905080821115620000ec57620000eb62000088565b5b92915050565b60805160a05160c05160e0516116f36200016b600039600081816107f10152611093015260008181610545015281816107830152610d230152600081816104eb015281816107c70152610d5701526000818161098c01528181610bb301528181610c5c01528181610c9e0152610db501526116f36000f3fe60806040526004361061012d5760003560e01c80635c975abb116100ab578063b60d42881161006f578063b60d4288146103eb578063c9aa4768146103f5578063da440b6114610420578063e086e5ec1461045d578063e48d3c2414610467578063f30e5b26146104a45761013c565b80635c975abb146103145780636386c1c71461033f5780638456cb591461037e5780638a1fcd60146103955780638da5cb5b146103c05761013c565b8063304cfa99116100f2578063304cfa991461022f5780633cb5d1001461026c5780633f4ba83a146102a957806348c54b9d146102c05780634ad82cf3146102d75761013c565b806213c58a14610146578063205b194614610171578063249b7c19146101ae5780632cea9442146101d95780632e0d45aa146102045761013c565b3661013c5761013a6104cf565b005b6101446104cf565b005b34801561015257600080fd5b5061015b610781565b604051610168919061112f565b60405180910390f35b34801561017d57600080fd5b50610198600480360381019061019391906111ad565b6107a5565b6040516101a591906111f5565b60405180910390f35b3480156101ba57600080fd5b506101c36107c5565b6040516101d0919061112f565b60405180910390f35b3480156101e557600080fd5b506101ee6107e9565b6040516101fb919061112f565b60405180910390f35b34801561021057600080fd5b506102196107ef565b604051610226919061112f565b60405180910390f35b34801561023b57600080fd5b50610256600480360381019061025191906111ad565b610813565b604051610263919061112f565b60405180910390f35b34801561027857600080fd5b50610293600480360381019061028e919061123c565b61094b565b6040516102a09190611278565b60405180910390f35b3480156102b557600080fd5b506102be61098a565b005b3480156102cc57600080fd5b506102d5610a2c565b005b3480156102e357600080fd5b506102fe60048036038101906102f991906111ad565b610ad8565b60405161030b919061112f565b60405180910390f35b34801561032057600080fd5b50610329610af0565b60405161033691906111f5565b60405180910390f35b34801561034b57600080fd5b50610366600480360381019061036191906111ad565b610b03565b60405161037593929190611293565b60405180910390f35b34801561038a57600080fd5b50610393610bb1565b005b3480156103a157600080fd5b506103aa610c53565b6040516103b7919061112f565b60405180910390f35b3480156103cc57600080fd5b506103d5610c5a565b6040516103e29190611278565b60405180910390f35b6103f36104cf565b005b34801561040157600080fd5b5061040a610c7e565b604051610417919061112f565b60405180910390f35b34801561042c57600080fd5b50610447600480360381019061044291906111ad565b610c84565b604051610454919061112f565b60405180910390f35b610465610c9c565b005b34801561047357600080fd5b5061048e600480360381019061048991906111ad565b610e7f565b60405161049b919061112f565b60405180910390f35b3480156104b057600080fd5b506104b9610e97565b6040516104c691906111f5565b60405180910390f35b600860009054906101000a900460ff16156104e957600080fd5b7f0000000000000000000000000000000000000000000000000000000000000000421115610543576040517f1eb1561f00000000000000000000000000000000000000000000000000000000815260040160405180910390fd5b7f000000000000000000000000000000000000000000000000000000000000000061056f600054610eaa565b106105a6576040517ff30bb8af00000000000000000000000000000000000000000000000000000000815260040160405180910390fd5b6000678ac7230489e800009050806105bd34610eaa565b10156105f5576040517fd313d3a200000000000000000000000000000000000000000000000000000000815260040160405180910390fd5b600660003373ffffffffffffffffffffffffffffffffffffffff1673ffffffffffffffffffffffffffffffffffffffff16815260200190815260200160002060009054906101000a900460ff16610702576001600660003373ffffffffffffffffffffffffffffffffffffffff1673ffffffffffffffffffffffffffffffffffffffff16815260200190815260200160002060006101000a81548160ff0219169083151502179055506005339080600181540180825580915050600190039060005260206000200160009091909190916101000a81548173ffffffffffffffffffffffffffffffffffffffff021916908373ffffffffffffffffffffffffffffffffffffffff1602179055505b600061070d34610eaa565b905080600360003373ffffffffffffffffffffffffffffffffffffffff1673ffffffffffffffffffffffffffffffffffffffff168152602001908152602001600020600082825461075e91906112f9565b925050819055508060008082825461077691906112f9565b925050819055505050565b7f000000000000000000000000000000000000000000000000000000000000000081565b60066020528060005260406000206000915054906101000a900460ff1681565b7f000000000000000000000000000000000000000000000000000000000000000081565b60005481565b7f000000000000000000000000000000000000000000000000000000000000000081565b6000600160009054906101000a900460ff1661085b576040517f8fab9a5800000000000000000000000000000000000000000000000000000000815260040160405180910390fd5b60006002544261086b919061132d565b90506201518081111561087f576201518090505b60006201518082600760008773ffffffffffffffffffffffffffffffffffffffff1673ffffffffffffffffffffffffffffffffffffffff168152602001908152602001600020546108d09190611361565b6108da91906113d2565b90506000600460008673ffffffffffffffffffffffffffffffffffffffff1673ffffffffffffffffffffffffffffffffffffffff1681526020019081526020016000205482610929919061132d565b90506000811161093f5760009350505050610946565b8093505050505b919050565b6005818154811061095b57600080fd5b906000526020600020016000915054906101000a900473ffffffffffffffffffffffffffffffffffffffff1681565b7f000000000000000000000000000000000000000000000000000000000000000073ffffffffffffffffffffffffffffffffffffffff163373ffffffffffffffffffffffffffffffffffffffff1614610a0f576040517f251c9d6300000000000000000000000000000000000000000000000000000000815260040160405180910390fd5b6000600860006101000a81548160ff021916908315150217905550565b600160009054906101000a900460ff16610a72576040517f8fab9a5800000000000000000000000000000000000000000000000000000000815260040160405180910390fd5b6000610a7d33610813565b905080600460003373ffffffffffffffffffffffffffffffffffffffff1673ffffffffffffffffffffffffffffffffffffffff1681526020019081526020016000206000828254610ace91906112f9565b9250508190555050565b60046020528060005260406000206000915090505481565b600860009054906101000a900460ff1681565b6000806000670de0b6b3a7640000600360008673ffffffffffffffffffffffffffffffffffffffff1673ffffffffffffffffffffffffffffffffffffffff16815260200190815260200160002054610b5b91906113d2565b600460008673ffffffffffffffffffffffffffffffffffffffff1673ffffffffffffffffffffffffffffffffffffffff16815260200190815260200160002054610ba486610813565b9250925092509193909250565b7f000000000000000000000000000000000000000000000000000000000000000073ffffffffffffffffffffffffffffffffffffffff163373ffffffffffffffffffffffffffffffffffffffff1614610c36576040517f251c9d6300000000000000000000000000000000000000000000000000000000815260040160405180910390fd5b6001600860006101000a81548160ff021916908315150217905550565b6201518081565b7f000000000000000000000000000000000000000000000000000000000000000081565b60025481565b60076020528060005260406000206000915090505481565b7f000000000000000000000000000000000000000000000000000000000000000073ffffffffffffffffffffffffffffffffffffffff163373ffffffffffffffffffffffffffffffffffffffff1614610d21576040517f251c9d6300000000000000000000000000000000000000000000000000000000815260040160405180910390fd5b7f0000000000000000000000000000000000000000000000000000000000000000610d4d600054610eaa565b108015610d7a57507f00000000000000000000000000000000000000000000000000000000000000004211155b15610db1576040517f8dceef0a00000000000000000000000000000000000000000000000000000000815260040160405180910390fd5b60007f000000000000000000000000000000000000000000000000000000000000000073ffffffffffffffffffffffffffffffffffffffff1647604051610df790611434565b60006040518083038185875af1925050503d8060008114610e34576040519150601f19603f3d011682016040523d82523d6000602084013e610e39565b606091505b5050905080610e74576040517f67b2cd0500000000000000000000000000000000000000000000000000000000815260040160405180910390fd5b610e7c610f79565b50565b60036020528060005260406000206000915090505481565b600160009054906101000a900460ff1681565b60008073694aa1769357215de4fac081bf1f309adc325306905060008173ffffffffffffffffffffffffffffffffffffffff1663feaf968c6040518163ffffffff1660e01b815260040160a060405180830381865afa158015610f11573d6000803e3d6000fd5b505050506040513d601f19601f82011682018060405250810190610f3591906114d6565b50505091505060006402540be40082610f4e9190611551565b9050670de0b6b3a76400008582610f659190611361565b610f6f91906113d2565b9350505050919050565b60018060006101000a81548160ff02191690831515021790555042600281905550610fa2610fa4565b565b60005b60058054905081101561111357600060058281548110610fca57610fc96115c9565b5b9060005260206000200160009054906101000a900473ffffffffffffffffffffffffffffffffffffffff1690506000670de0b6b3a7640000600360008473ffffffffffffffffffffffffffffffffffffffff1673ffffffffffffffffffffffffffffffffffffffff1681526020019081526020016000205461104c91906113d2565b905060008111611091576040517f08c379a000000000000000000000000000000000000000000000000000000000815260040161108890611655565b60405180910390fd5b7f0000000000000000000000000000000000000000000000000000000000000000816110bd9190611361565b600760008473ffffffffffffffffffffffffffffffffffffffff1673ffffffffffffffffffffffffffffffffffffffff1681526020019081526020016000208190555050508061110c90611675565b9050610fa7565b50565b6000819050919050565b61112981611116565b82525050565b60006020820190506111446000830184611120565b92915050565b600080fd5b600073ffffffffffffffffffffffffffffffffffffffff82169050919050565b600061117a8261114f565b9050919050565b61118a8161116f565b811461119557600080fd5b50565b6000813590506111a781611181565b92915050565b6000602082840312156111c3576111c261114a565b5b60006111d184828501611198565b91505092915050565b60008115159050919050565b6111ef816111da565b82525050565b600060208201905061120a60008301846111e6565b92915050565b61121981611116565b811461122457600080fd5b50565b60008135905061123681611210565b92915050565b6000602082840312156112525761125161114a565b5b600061126084828501611227565b91505092915050565b6112728161116f565b82525050565b600060208201905061128d6000830184611269565b92915050565b60006060820190506112a86000830186611120565b6112b56020830185611120565b6112c26040830184611120565b949350505050565b7f4e487b7100000000000000000000000000000000000000000000000000000000600052601160045260246000fd5b600061130482611116565b915061130f83611116565b9250828201905080821115611327576113266112ca565b5b92915050565b600061133882611116565b915061134383611116565b925082820390508181111561135b5761135a6112ca565b5b92915050565b600061136c82611116565b915061137783611116565b925082820261138581611116565b9150828204841483151761139c5761139b6112ca565b5b5092915050565b7f4e487b7100000000000000000000000000000000000000000000000000000000600052601260045260246000fd5b60006113dd82611116565b91506113e883611116565b9250826113f8576113f76113a3565b5b828204905092915050565b600081905092915050565b50565b600061141e600083611403565b91506114298261140e565b600082019050919050565b600061143f82611411565b9150819050919050565b600069ffffffffffffffffffff82169050919050565b61146881611449565b811461147357600080fd5b50565b6000815190506114858161145f565b92915050565b6000819050919050565b61149e8161148b565b81146114a957600080fd5b50565b6000815190506114bb81611495565b92915050565b6000815190506114d081611210565b92915050565b600080600080600060a086880312156114f2576114f161114a565b5b600061150088828901611476565b9550506020611511888289016114ac565b9450506040611522888289016114c1565b9350506060611533888289016114c1565b925050608061154488828901611476565b9150509295509295909350565b600061155c8261148b565b91506115678361148b565b92508282026115758161148b565b91507f800000000000000000000000000000000000000000000000000000000000000084146000841216156115ad576115ac6112ca565b5b82820584148315176115c2576115c16112ca565b5b5092915050565b7f4e487b7100000000000000000000000000000000000000000000000000000000600052603260045260246000fd5b600082825260208201905092915050565b7f4e6f7420436f6e74726962757465640000000000000000000000000000000000600082015250565b600061163f600f836115f8565b915061164a82611609565b602082019050919050565b6000602082019050818103600083015261166e81611632565b9050919050565b600061168082611116565b91507fffffffffffffffffffffffffffffffffffffffffffffffffffffffffffffffff82036116b2576116b16112ca565b5b60018201905091905056fea2646970667358221220b04585ac6e35c1aa24f6520ec9b9f9d560852931633485eaceb4efc66b5f668964736f6c63430008120033",
					"opcodes": "PUSH2 0x100 PUSH1 0x40 MSTORE CALLVALUE DUP1 ISZERO PUSH3 0x12 JUMPI PUSH1 0x0 DUP1 REVERT JUMPDEST POP CALLER PUSH20 0xFFFFFFFFFFFFFFFFFFFFFFFFFFFFFFFFFFFFFFFF AND PUSH1 0x80 DUP2 PUSH20 0xFFFFFFFFFFFFFFFFFFFFFFFFFFFFFFFFFFFFFFFF AND DUP2 MSTORE POP POP PUSH2 0x708 TIMESTAMP PUSH3 0x57 SWAP2 SWAP1 PUSH3 0xB7 JUMP JUMPDEST PUSH1 0xA0 DUP2 DUP2 MSTORE POP POP PUSH9 0x2B5E3AF16B1880000 PUSH1 0xC0 DUP2 DUP2 MSTORE POP POP PUSH1 0x64 PUSH1 0xE0 DUP2 DUP2 MSTORE POP POP PUSH3 0xF2 JUMP JUMPDEST PUSH1 0x0 DUP2 SWAP1 POP SWAP2 SWAP1 POP JUMP JUMPDEST PUSH32 0x4E487B7100000000000000000000000000000000000000000000000000000000 PUSH1 0x0 MSTORE PUSH1 0x11 PUSH1 0x4 MSTORE PUSH1 0x24 PUSH1 0x0 REVERT JUMPDEST PUSH1 0x0 PUSH3 0xC4 DUP3 PUSH3 0x7E JUMP JUMPDEST SWAP2 POP PUSH3 0xD1 DUP4 PUSH3 0x7E JUMP JUMPDEST SWAP3 POP DUP3 DUP3 ADD SWAP1 POP DUP1 DUP3 GT ISZERO PUSH3 0xEC JUMPI PUSH3 0xEB PUSH3 0x88 JUMP JUMPDEST JUMPDEST SWAP3 SWAP2 POP POP JUMP JUMPDEST PUSH1 0x80 MLOAD PUSH1 0xA0 MLOAD PUSH1 0xC0 MLOAD PUSH1 0xE0 MLOAD PUSH2 0x16F3 PUSH3 0x16B PUSH1 0x0 CODECOPY PUSH1 0x0 DUP2 DUP2 PUSH2 0x7F1 ADD MSTORE PUSH2 0x1093 ADD MSTORE PUSH1 0x0 DUP2 DUP2 PUSH2 0x545 ADD MSTORE DUP2 DUP2 PUSH2 0x783 ADD MSTORE PUSH2 0xD23 ADD MSTORE PUSH1 0x0 DUP2 DUP2 PUSH2 0x4EB ADD MSTORE DUP2 DUP2 PUSH2 0x7C7 ADD MSTORE PUSH2 0xD57 ADD MSTORE PUSH1 0x0 DUP2 DUP2 PUSH2 0x98C ADD MSTORE DUP2 DUP2 PUSH2 0xBB3 ADD MSTORE DUP2 DUP2 PUSH2 0xC5C ADD MSTORE DUP2 DUP2 PUSH2 0xC9E ADD MSTORE PUSH2 0xDB5 ADD MSTORE PUSH2 0x16F3 PUSH1 0x0 RETURN INVALID PUSH1 0x80 PUSH1 0x40 MSTORE PUSH1 0x4 CALLDATASIZE LT PUSH2 0x12D JUMPI PUSH1 0x0 CALLDATALOAD PUSH1 0xE0 SHR DUP1 PUSH4 0x5C975ABB GT PUSH2 0xAB JUMPI DUP1 PUSH4 0xB60D4288 GT PUSH2 0x6F JUMPI DUP1 PUSH4 0xB60D4288 EQ PUSH2 0x3EB JUMPI DUP1 PUSH4 0xC9AA4768 EQ PUSH2 0x3F5 JUMPI DUP1 PUSH4 0xDA440B61 EQ PUSH2 0x420 JUMPI DUP1 PUSH4 0xE086E5EC EQ PUSH2 0x45D JUMPI DUP1 PUSH4 0xE48D3C24 EQ PUSH2 0x467 JUMPI DUP1 PUSH4 0xF30E5B26 EQ PUSH2 0x4A4 JUMPI PUSH2 0x13C JUMP JUMPDEST DUP1 PUSH4 0x5C975ABB EQ PUSH2 0x314 JUMPI DUP1 PUSH4 0x6386C1C7 EQ PUSH2 0x33F JUMPI DUP1 PUSH4 0x8456CB59 EQ PUSH2 0x37E JUMPI DUP1 PUSH4 0x8A1FCD60 EQ PUSH2 0x395 JUMPI DUP1 PUSH4 0x8DA5CB5B EQ PUSH2 0x3C0 JUMPI PUSH2 0x13C JUMP JUMPDEST DUP1 PUSH4 0x304CFA99 GT PUSH2 0xF2 JUMPI DUP1 PUSH4 0x304CFA99 EQ PUSH2 0x22F JUMPI DUP1 PUSH4 0x3CB5D100 EQ PUSH2 0x26C JUMPI DUP1 PUSH4 0x3F4BA83A EQ PUSH2 0x2A9 JUMPI DUP1 PUSH4 0x48C54B9D EQ PUSH2 0x2C0 JUMPI DUP1 PUSH4 0x4AD82CF3 EQ PUSH2 0x2D7 JUMPI PUSH2 0x13C JUMP JUMPDEST DUP1 PUSH3 0x13C58A EQ PUSH2 0x146 JUMPI DUP1 PUSH4 0x205B1946 EQ PUSH2 0x171 JUMPI DUP1 PUSH4 0x249B7C19 EQ PUSH2 0x1AE JUMPI DUP1 PUSH4 0x2CEA9442 EQ PUSH2 0x1D9 JUMPI DUP1 PUSH4 0x2E0D45AA EQ PUSH2 0x204 JUMPI PUSH2 0x13C JUMP JUMPDEST CALLDATASIZE PUSH2 0x13C JUMPI PUSH2 0x13A PUSH2 0x4CF JUMP JUMPDEST STOP JUMPDEST PUSH2 0x144 PUSH2 0x4CF JUMP JUMPDEST STOP JUMPDEST CALLVALUE DUP1 ISZERO PUSH2 0x152 JUMPI PUSH1 0x0 DUP1 REVERT JUMPDEST POP PUSH2 0x15B PUSH2 0x781 JUMP JUMPDEST PUSH1 0x40 MLOAD PUSH2 0x168 SWAP2 SWAP1 PUSH2 0x112F JUMP JUMPDEST PUSH1 0x40 MLOAD DUP1 SWAP2 SUB SWAP1 RETURN JUMPDEST CALLVALUE DUP1 ISZERO PUSH2 0x17D JUMPI PUSH1 0x0 DUP1 REVERT JUMPDEST POP PUSH2 0x198 PUSH1 0x4 DUP1 CALLDATASIZE SUB DUP2 ADD SWAP1 PUSH2 0x193 SWAP2 SWAP1 PUSH2 0x11AD JUMP JUMPDEST PUSH2 0x7A5 JUMP JUMPDEST PUSH1 0x40 MLOAD PUSH2 0x1A5 SWAP2 SWAP1 PUSH2 0x11F5 JUMP JUMPDEST PUSH1 0x40 MLOAD DUP1 SWAP2 SUB SWAP1 RETURN JUMPDEST CALLVALUE DUP1 ISZERO PUSH2 0x1BA JUMPI PUSH1 0x0 DUP1 REVERT JUMPDEST POP PUSH2 0x1C3 PUSH2 0x7C5 JUMP JUMPDEST PUSH1 0x40 MLOAD PUSH2 0x1D0 SWAP2 SWAP1 PUSH2 0x112F JUMP JUMPDEST PUSH1 0x40 MLOAD DUP1 SWAP2 SUB SWAP1 RETURN JUMPDEST CALLVALUE DUP1 ISZERO PUSH2 0x1E5 JUMPI PUSH1 0x0 DUP1 REVERT JUMPDEST POP PUSH2 0x1EE PUSH2 0x7E9 JUMP JUMPDEST PUSH1 0x40 MLOAD PUSH2 0x1FB SWAP2 SWAP1 PUSH2 0x112F JUMP JUMPDEST PUSH1 0x40 MLOAD DUP1 SWAP2 SUB SWAP1 RETURN JUMPDEST CALLVALUE DUP1 ISZERO PUSH2 0x210 JUMPI PUSH1 0x0 DUP1 REVERT JUMPDEST POP PUSH2 0x219 PUSH2 0x7EF JUMP JUMPDEST PUSH1 0x40 MLOAD PUSH2 0x226 SWAP2 SWAP1 PUSH2 0x112F JUMP JUMPDEST PUSH1 0x40 MLOAD DUP1 SWAP2 SUB SWAP1 RETURN JUMPDEST CALLVALUE DUP1 ISZERO PUSH2 0x23B JUMPI PUSH1 0x0 DUP1 REVERT JUMPDEST POP PUSH2 0x256 PUSH1 0x4 DUP1 CALLDATASIZE SUB DUP2 ADD SWAP1 PUSH2 0x251 SWAP2 SWAP1 PUSH2 0x11AD JUMP JUMPDEST PUSH2 0x813 JUMP JUMPDEST PUSH1 0x40 MLOAD PUSH2 0x263 SWAP2 SWAP1 PUSH2 0x112F JUMP JUMPDEST PUSH1 0x40 MLOAD DUP1 SWAP2 SUB SWAP1 RETURN JUMPDEST CALLVALUE DUP1 ISZERO PUSH2 0x278 JUMPI PUSH1 0x0 DUP1 REVERT JUMPDEST POP PUSH2 0x293 PUSH1 0x4 DUP1 CALLDATASIZE SUB DUP2 ADD SWAP1 PUSH2 0x28E SWAP2 SWAP1 PUSH2 0x123C JUMP JUMPDEST PUSH2 0x94B JUMP JUMPDEST PUSH1 0x40 MLOAD PUSH2 0x2A0 SWAP2 SWAP1 PUSH2 0x1278 JUMP JUMPDEST PUSH1 0x40 MLOAD DUP1 SWAP2 SUB SWAP1 RETURN JUMPDEST CALLVALUE DUP1 ISZERO PUSH2 0x2B5 JUMPI PUSH1 0x0 DUP1 REVERT JUMPDEST POP PUSH2 0x2BE PUSH2 0x98A JUMP JUMPDEST STOP JUMPDEST CALLVALUE DUP1 ISZERO PUSH2 0x2CC JUMPI PUSH1 0x0 DUP1 REVERT JUMPDEST POP PUSH2 0x2D5 PUSH2 0xA2C JUMP JUMPDEST STOP JUMPDEST CALLVALUE DUP1 ISZERO PUSH2 0x2E3 JUMPI PUSH1 0x0 DUP1 REVERT JUMPDEST POP PUSH2 0x2FE PUSH1 0x4 DUP1 CALLDATASIZE SUB DUP2 ADD SWAP1 PUSH2 0x2F9 SWAP2 SWAP1 PUSH2 0x11AD JUMP JUMPDEST PUSH2 0xAD8 JUMP JUMPDEST PUSH1 0x40 MLOAD PUSH2 0x30B SWAP2 SWAP1 PUSH2 0x112F JUMP JUMPDEST PUSH1 0x40 MLOAD DUP1 SWAP2 SUB SWAP1 RETURN JUMPDEST CALLVALUE DUP1 ISZERO PUSH2 0x320 JUMPI PUSH1 0x0 DUP1 REVERT JUMPDEST POP PUSH2 0x329 PUSH2 0xAF0 JUMP JUMPDEST PUSH1 0x40 MLOAD PUSH2 0x336 SWAP2 SWAP1 PUSH2 0x11F5 JUMP JUMPDEST PUSH1 0x40 MLOAD DUP1 SWAP2 SUB SWAP1 RETURN JUMPDEST CALLVALUE DUP1 ISZERO PUSH2 0x34B JUMPI PUSH1 0x0 DUP1 REVERT JUMPDEST POP PUSH2 0x366 PUSH1 0x4 DUP1 CALLDATASIZE SUB DUP2 ADD SWAP1 PUSH2 0x361 SWAP2 SWAP1 PUSH2 0x11AD JUMP JUMPDEST PUSH2 0xB03 JUMP JUMPDEST PUSH1 0x40 MLOAD PUSH2 0x375 SWAP4 SWAP3 SWAP2 SWAP1 PUSH2 0x1293 JUMP JUMPDEST PUSH1 0x40 MLOAD DUP1 SWAP2 SUB SWAP1 RETURN JUMPDEST CALLVALUE DUP1 ISZERO PUSH2 0x38A JUMPI PUSH1 0x0 DUP1 REVERT JUMPDEST POP PUSH2 0x393 PUSH2 0xBB1 JUMP JUMPDEST STOP JUMPDEST CALLVALUE DUP1 ISZERO PUSH2 0x3A1 JUMPI PUSH1 0x0 DUP1 REVERT JUMPDEST POP PUSH2 0x3AA PUSH2 0xC53 JUMP JUMPDEST PUSH1 0x40 MLOAD PUSH2 0x3B7 SWAP2 SWAP1 PUSH2 0x112F JUMP JUMPDEST PUSH1 0x40 MLOAD DUP1 SWAP2 SUB SWAP1 RETURN JUMPDEST CALLVALUE DUP1 ISZERO PUSH2 0x3CC JUMPI PUSH1 0x0 DUP1 REVERT JUMPDEST POP PUSH2 0x3D5 PUSH2 0xC5A JUMP JUMPDEST PUSH1 0x40 MLOAD PUSH2 0x3E2 SWAP2 SWAP1 PUSH2 0x1278 JUMP JUMPDEST PUSH1 0x40 MLOAD DUP1 SWAP2 SUB SWAP1 RETURN JUMPDEST PUSH2 0x3F3 PUSH2 0x4CF JUMP JUMPDEST STOP JUMPDEST CALLVALUE DUP1 ISZERO PUSH2 0x401 JUMPI PUSH1 0x0 DUP1 REVERT JUMPDEST POP PUSH2 0x40A PUSH2 0xC7E JUMP JUMPDEST PUSH1 0x40 MLOAD PUSH2 0x417 SWAP2 SWAP1 PUSH2 0x112F JUMP JUMPDEST PUSH1 0x40 MLOAD DUP1 SWAP2 SUB SWAP1 RETURN JUMPDEST CALLVALUE DUP1 ISZERO PUSH2 0x42C JUMPI PUSH1 0x0 DUP1 REVERT JUMPDEST POP PUSH2 0x447 PUSH1 0x4 DUP1 CALLDATASIZE SUB DUP2 ADD SWAP1 PUSH2 0x442 SWAP2 SWAP1 PUSH2 0x11AD JUMP JUMPDEST PUSH2 0xC84 JUMP JUMPDEST PUSH1 0x40 MLOAD PUSH2 0x454 SWAP2 SWAP1 PUSH2 0x112F JUMP JUMPDEST PUSH1 0x40 MLOAD DUP1 SWAP2 SUB SWAP1 RETURN JUMPDEST PUSH2 0x465 PUSH2 0xC9C JUMP JUMPDEST STOP JUMPDEST CALLVALUE DUP1 ISZERO PUSH2 0x473 JUMPI PUSH1 0x0 DUP1 REVERT JUMPDEST POP PUSH2 0x48E PUSH1 0x4 DUP1 CALLDATASIZE SUB DUP2 ADD SWAP1 PUSH2 0x489 SWAP2 SWAP1 PUSH2 0x11AD JUMP JUMPDEST PUSH2 0xE7F JUMP JUMPDEST PUSH1 0x40 MLOAD PUSH2 0x49B SWAP2 SWAP1 PUSH2 0x112F JUMP JUMPDEST PUSH1 0x40 MLOAD DUP1 SWAP2 SUB SWAP1 RETURN JUMPDEST CALLVALUE DUP1 ISZERO PUSH2 0x4B0 JUMPI PUSH1 0x0 DUP1 REVERT JUMPDEST POP PUSH2 0x4B9 PUSH2 0xE97 JUMP JUMPDEST PUSH1 0x40 MLOAD PUSH2 0x4C6 SWAP2 SWAP1 PUSH2 0x11F5 JUMP JUMPDEST PUSH1 0x40 MLOAD DUP1 SWAP2 SUB SWAP1 RETURN JUMPDEST PUSH1 0x8 PUSH1 0x0 SWAP1 SLOAD SWAP1 PUSH2 0x100 EXP SWAP1 DIV PUSH1 0xFF AND ISZERO PUSH2 0x4E9 JUMPI PUSH1 0x0 DUP1 REVERT JUMPDEST PUSH32 0x0 TIMESTAMP GT ISZERO PUSH2 0x543 JUMPI PUSH1 0x40 MLOAD PUSH32 0x1EB1561F00000000000000000000000000000000000000000000000000000000 DUP2 MSTORE PUSH1 0x4 ADD PUSH1 0x40 MLOAD DUP1 SWAP2 SUB SWAP1 REVERT JUMPDEST PUSH32 0x0 PUSH2 0x56F PUSH1 0x0 SLOAD PUSH2 0xEAA JUMP JUMPDEST LT PUSH2 0x5A6 JUMPI PUSH1 0x40 MLOAD PUSH32 0xF30BB8AF00000000000000000000000000000000000000000000000000000000 DUP2 MSTORE PUSH1 0x4 ADD PUSH1 0x40 MLOAD DUP1 SWAP2 SUB SWAP1 REVERT JUMPDEST PUSH1 0x0 PUSH8 0x8AC7230489E80000 SWAP1 POP DUP1 PUSH2 0x5BD CALLVALUE PUSH2 0xEAA JUMP JUMPDEST LT ISZERO PUSH2 0x5F5 JUMPI PUSH1 0x40 MLOAD PUSH32 0xD313D3A200000000000000000000000000000000000000000000000000000000 DUP2 MSTORE PUSH1 0x4 ADD PUSH1 0x40 MLOAD DUP1 SWAP2 SUB SWAP1 REVERT JUMPDEST PUSH1 0x6 PUSH1 0x0 CALLER PUSH20 0xFFFFFFFFFFFFFFFFFFFFFFFFFFFFFFFFFFFFFFFF AND PUSH20 0xFFFFFFFFFFFFFFFFFFFFFFFFFFFFFFFFFFFFFFFF AND DUP2 MSTORE PUSH1 0x20 ADD SWAP1 DUP2 MSTORE PUSH1 0x20 ADD PUSH1 0x0 KECCAK256 PUSH1 0x0 SWAP1 SLOAD SWAP1 PUSH2 0x100 EXP SWAP1 DIV PUSH1 0xFF AND PUSH2 0x702 JUMPI PUSH1 0x1 PUSH1 0x6 PUSH1 0x0 CALLER PUSH20 0xFFFFFFFFFFFFFFFFFFFFFFFFFFFFFFFFFFFFFFFF AND PUSH20 0xFFFFFFFFFFFFFFFFFFFFFFFFFFFFFFFFFFFFFFFF AND DUP2 MSTORE PUSH1 0x20 ADD SWAP1 DUP2 MSTORE PUSH1 0x20 ADD PUSH1 0x0 KECCAK256 PUSH1 0x0 PUSH2 0x100 EXP DUP2 SLOAD DUP2 PUSH1 0xFF MUL NOT AND SWAP1 DUP4 ISZERO ISZERO MUL OR SWAP1 SSTORE POP PUSH1 0x5 CALLER SWAP1 DUP1 PUSH1 0x1 DUP2 SLOAD ADD DUP1 DUP3 SSTORE DUP1 SWAP2 POP POP PUSH1 0x1 SWAP1 SUB SWAP1 PUSH1 0x0 MSTORE PUSH1 0x20 PUSH1 0x0 KECCAK256 ADD PUSH1 0x0 SWAP1 SWAP2 SWAP1 SWAP2 SWAP1 SWAP2 PUSH2 0x100 EXP DUP2 SLOAD DUP2 PUSH20 0xFFFFFFFFFFFFFFFFFFFFFFFFFFFFFFFFFFFFFFFF MUL NOT AND SWAP1 DUP4 PUSH20 0xFFFFFFFFFFFFFFFFFFFFFFFFFFFFFFFFFFFFFFFF AND MUL OR SWAP1 SSTORE POP JUMPDEST PUSH1 0x0 PUSH2 0x70D CALLVALUE PUSH2 0xEAA JUMP JUMPDEST SWAP1 POP DUP1 PUSH1 0x3 PUSH1 0x0 CALLER PUSH20 0xFFFFFFFFFFFFFFFFFFFFFFFFFFFFFFFFFFFFFFFF AND PUSH20 0xFFFFFFFFFFFFFFFFFFFFFFFFFFFFFFFFFFFFFFFF AND DUP2 MSTORE PUSH1 0x20 ADD SWAP1 DUP2 MSTORE PUSH1 0x20 ADD PUSH1 0x0 KECCAK256 PUSH1 0x0 DUP3 DUP3 SLOAD PUSH2 0x75E SWAP2 SWAP1 PUSH2 0x12F9 JUMP JUMPDEST SWAP3 POP POP DUP2 SWAP1 SSTORE POP DUP1 PUSH1 0x0 DUP1 DUP3 DUP3 SLOAD PUSH2 0x776 SWAP2 SWAP1 PUSH2 0x12F9 JUMP JUMPDEST SWAP3 POP POP DUP2 SWAP1 SSTORE POP POP POP JUMP JUMPDEST PUSH32 0x0 DUP2 JUMP JUMPDEST PUSH1 0x6 PUSH1 0x20 MSTORE DUP1 PUSH1 0x0 MSTORE PUSH1 0x40 PUSH1 0x0 KECCAK256 PUSH1 0x0 SWAP2 POP SLOAD SWAP1 PUSH2 0x100 EXP SWAP1 DIV PUSH1 0xFF AND DUP2 JUMP JUMPDEST PUSH32 0x0 DUP2 JUMP JUMPDEST PUSH1 0x0 SLOAD DUP2 JUMP JUMPDEST PUSH32 0x0 DUP2 JUMP JUMPDEST PUSH1 0x0 PUSH1 0x1 PUSH1 0x0 SWAP1 SLOAD SWAP1 PUSH2 0x100 EXP SWAP1 DIV PUSH1 0xFF AND PUSH2 0x85B JUMPI PUSH1 0x40 MLOAD PUSH32 0x8FAB9A5800000000000000000000000000000000000000000000000000000000 DUP2 MSTORE PUSH1 0x4 ADD PUSH1 0x40 MLOAD DUP1 SWAP2 SUB SWAP1 REVERT JUMPDEST PUSH1 0x0 PUSH1 0x2 SLOAD TIMESTAMP PUSH2 0x86B SWAP2 SWAP1 PUSH2 0x132D JUMP JUMPDEST SWAP1 POP PUSH3 0x15180 DUP2 GT ISZERO PUSH2 0x87F JUMPI PUSH3 0x15180 SWAP1 POP JUMPDEST PUSH1 0x0 PUSH3 0x15180 DUP3 PUSH1 0x7 PUSH1 0x0 DUP8 PUSH20 0xFFFFFFFFFFFFFFFFFFFFFFFFFFFFFFFFFFFFFFFF AND PUSH20 0xFFFFFFFFFFFFFFFFFFFFFFFFFFFFFFFFFFFFFFFF AND DUP2 MSTORE PUSH1 0x20 ADD SWAP1 DUP2 MSTORE PUSH1 0x20 ADD PUSH1 0x0 KECCAK256 SLOAD PUSH2 0x8D0 SWAP2 SWAP1 PUSH2 0x1361 JUMP JUMPDEST PUSH2 0x8DA SWAP2 SWAP1 PUSH2 0x13D2 JUMP JUMPDEST SWAP1 POP PUSH1 0x0 PUSH1 0x4 PUSH1 0x0 DUP7 PUSH20 0xFFFFFFFFFFFFFFFFFFFFFFFFFFFFFFFFFFFFFFFF AND PUSH20 0xFFFFFFFFFFFFFFFFFFFFFFFFFFFFFFFFFFFFFFFF AND DUP2 MSTORE PUSH1 0x20 ADD SWAP1 DUP2 MSTORE PUSH1 0x20 ADD PUSH1 0x0 KECCAK256 SLOAD DUP3 PUSH2 0x929 SWAP2 SWAP1 PUSH2 0x132D JUMP JUMPDEST SWAP1 POP PUSH1 0x0 DUP2 GT PUSH2 0x93F JUMPI PUSH1 0x0 SWAP4 POP POP POP POP PUSH2 0x946 JUMP JUMPDEST DUP1 SWAP4 POP POP POP POP JUMPDEST SWAP2 SWAP1 POP JUMP JUMPDEST PUSH1 0x5 DUP2 DUP2 SLOAD DUP2 LT PUSH2 0x95B JUMPI PUSH1 0x0 DUP1 REVERT JUMPDEST SWAP1 PUSH1 0x0 MSTORE PUSH1 0x20 PUSH1 0x0 KECCAK256 ADD PUSH1 0x0 SWAP2 POP SLOAD SWAP1 PUSH2 0x100 EXP SWAP1 DIV PUSH20 0xFFFFFFFFFFFFFFFFFFFFFFFFFFFFFFFFFFFFFFFF AND DUP2 JUMP JUMPDEST PUSH32 0x0 PUSH20 0xFFFFFFFFFFFFFFFFFFFFFFFFFFFFFFFFFFFFFFFF AND CALLER PUSH20 0xFFFFFFFFFFFFFFFFFFFFFFFFFFFFFFFFFFFFFFFF AND EQ PUSH2 0xA0F JUMPI PUSH1 0x40 MLOAD PUSH32 0x251C9D6300000000000000000000000000000000000000000000000000000000 DUP2 MSTORE PUSH1 0x4 ADD PUSH1 0x40 MLOAD DUP1 SWAP2 SUB SWAP1 REVERT JUMPDEST PUSH1 0x0 PUSH1 0x8 PUSH1 0x0 PUSH2 0x100 EXP DUP2 SLOAD DUP2 PUSH1 0xFF MUL NOT AND SWAP1 DUP4 ISZERO ISZERO MUL OR SWAP1 SSTORE POP JUMP JUMPDEST PUSH1 0x1 PUSH1 0x0 SWAP1 SLOAD SWAP1 PUSH2 0x100 EXP SWAP1 DIV PUSH1 0xFF AND PUSH2 0xA72 JUMPI PUSH1 0x40 MLOAD PUSH32 0x8FAB9A5800000000000000000000000000000000000000000000000000000000 DUP2 MSTORE PUSH1 0x4 ADD PUSH1 0x40 MLOAD DUP1 SWAP2 SUB SWAP1 REVERT JUMPDEST PUSH1 0x0 PUSH2 0xA7D CALLER PUSH2 0x813 JUMP JUMPDEST SWAP1 POP DUP1 PUSH1 0x4 PUSH1 0x0 CALLER PUSH20 0xFFFFFFFFFFFFFFFFFFFFFFFFFFFFFFFFFFFFFFFF AND PUSH20 0xFFFFFFFFFFFFFFFFFFFFFFFFFFFFFFFFFFFFFFFF AND DUP2 MSTORE PUSH1 0x20 ADD SWAP1 DUP2 MSTORE PUSH1 0x20 ADD PUSH1 0x0 KECCAK256 PUSH1 0x0 DUP3 DUP3 SLOAD PUSH2 0xACE SWAP2 SWAP1 PUSH2 0x12F9 JUMP JUMPDEST SWAP3 POP POP DUP2 SWAP1 SSTORE POP POP JUMP JUMPDEST PUSH1 0x4 PUSH1 0x20 MSTORE DUP1 PUSH1 0x0 MSTORE PUSH1 0x40 PUSH1 0x0 KECCAK256 PUSH1 0x0 SWAP2 POP SWAP1 POP SLOAD DUP2 JUMP JUMPDEST PUSH1 0x8 PUSH1 0x0 SWAP1 SLOAD SWAP1 PUSH2 0x100 EXP SWAP1 DIV PUSH1 0xFF AND DUP2 JUMP JUMPDEST PUSH1 0x0 DUP1 PUSH1 0x0 PUSH8 0xDE0B6B3A7640000 PUSH1 0x3 PUSH1 0x0 DUP7 PUSH20 0xFFFFFFFFFFFFFFFFFFFFFFFFFFFFFFFFFFFFFFFF AND PUSH20 0xFFFFFFFFFFFFFFFFFFFFFFFFFFFFFFFFFFFFFFFF AND DUP2 MSTORE PUSH1 0x20 ADD SWAP1 DUP2 MSTORE PUSH1 0x20 ADD PUSH1 0x0 KECCAK256 SLOAD PUSH2 0xB5B SWAP2 SWAP1 PUSH2 0x13D2 JUMP JUMPDEST PUSH1 0x4 PUSH1 0x0 DUP7 PUSH20 0xFFFFFFFFFFFFFFFFFFFFFFFFFFFFFFFFFFFFFFFF AND PUSH20 0xFFFFFFFFFFFFFFFFFFFFFFFFFFFFFFFFFFFFFFFF AND DUP2 MSTORE PUSH1 0x20 ADD SWAP1 DUP2 MSTORE PUSH1 0x20 ADD PUSH1 0x0 KECCAK256 SLOAD PUSH2 0xBA4 DUP7 PUSH2 0x813 JUMP JUMPDEST SWAP3 POP SWAP3 POP SWAP3 POP SWAP2 SWAP4 SWAP1 SWAP3 POP JUMP JUMPDEST PUSH32 0x0 PUSH20 0xFFFFFFFFFFFFFFFFFFFFFFFFFFFFFFFFFFFFFFFF AND CALLER PUSH20 0xFFFFFFFFFFFFFFFFFFFFFFFFFFFFFFFFFFFFFFFF AND EQ PUSH2 0xC36 JUMPI PUSH1 0x40 MLOAD PUSH32 0x251C9D6300000000000000000000000000000000000000000000000000000000 DUP2 MSTORE PUSH1 0x4 ADD PUSH1 0x40 MLOAD DUP1 SWAP2 SUB SWAP1 REVERT JUMPDEST PUSH1 0x1 PUSH1 0x8 PUSH1 0x0 PUSH2 0x100 EXP DUP2 SLOAD DUP2 PUSH1 0xFF MUL NOT AND SWAP1 DUP4 ISZERO ISZERO MUL OR SWAP1 SSTORE POP JUMP JUMPDEST PUSH3 0x15180 DUP2 JUMP JUMPDEST PUSH32 0x0 DUP2 JUMP JUMPDEST PUSH1 0x2 SLOAD DUP2 JUMP JUMPDEST PUSH1 0x7 PUSH1 0x20 MSTORE DUP1 PUSH1 0x0 MSTORE PUSH1 0x40 PUSH1 0x0 KECCAK256 PUSH1 0x0 SWAP2 POP SWAP1 POP SLOAD DUP2 JUMP JUMPDEST PUSH32 0x0 PUSH20 0xFFFFFFFFFFFFFFFFFFFFFFFFFFFFFFFFFFFFFFFF AND CALLER PUSH20 0xFFFFFFFFFFFFFFFFFFFFFFFFFFFFFFFFFFFFFFFF AND EQ PUSH2 0xD21 JUMPI PUSH1 0x40 MLOAD PUSH32 0x251C9D6300000000000000000000000000000000000000000000000000000000 DUP2 MSTORE PUSH1 0x4 ADD PUSH1 0x40 MLOAD DUP1 SWAP2 SUB SWAP1 REVERT JUMPDEST PUSH32 0x0 PUSH2 0xD4D PUSH1 0x0 SLOAD PUSH2 0xEAA JUMP JUMPDEST LT DUP1 ISZERO PUSH2 0xD7A JUMPI POP PUSH32 0x0 TIMESTAMP GT ISZERO JUMPDEST ISZERO PUSH2 0xDB1 JUMPI PUSH1 0x40 MLOAD PUSH32 0x8DCEEF0A00000000000000000000000000000000000000000000000000000000 DUP2 MSTORE PUSH1 0x4 ADD PUSH1 0x40 MLOAD DUP1 SWAP2 SUB SWAP1 REVERT JUMPDEST PUSH1 0x0 PUSH32 0x0 PUSH20 0xFFFFFFFFFFFFFFFFFFFFFFFFFFFFFFFFFFFFFFFF AND SELFBALANCE PUSH1 0x40 MLOAD PUSH2 0xDF7 SWAP1 PUSH2 0x1434 JUMP JUMPDEST PUSH1 0x0 PUSH1 0x40 MLOAD DUP1 DUP4 SUB DUP2 DUP6 DUP8 GAS CALL SWAP3 POP POP POP RETURNDATASIZE DUP1 PUSH1 0x0 DUP2 EQ PUSH2 0xE34 JUMPI PUSH1 0x40 MLOAD SWAP2 POP PUSH1 0x1F NOT PUSH1 0x3F RETURNDATASIZE ADD AND DUP3 ADD PUSH1 0x40 MSTORE RETURNDATASIZE DUP3 MSTORE RETURNDATASIZE PUSH1 0x0 PUSH1 0x20 DUP5 ADD RETURNDATACOPY PUSH2 0xE39 JUMP JUMPDEST PUSH1 0x60 SWAP2 POP JUMPDEST POP POP SWAP1 POP DUP1 PUSH2 0xE74 JUMPI PUSH1 0x40 MLOAD PUSH32 0x67B2CD0500000000000000000000000000000000000000000000000000000000 DUP2 MSTORE PUSH1 0x4 ADD PUSH1 0x40 MLOAD DUP1 SWAP2 SUB SWAP1 REVERT JUMPDEST PUSH2 0xE7C PUSH2 0xF79 JUMP JUMPDEST POP JUMP JUMPDEST PUSH1 0x3 PUSH1 0x20 MSTORE DUP1 PUSH1 0x0 MSTORE PUSH1 0x40 PUSH1 0x0 KECCAK256 PUSH1 0x0 SWAP2 POP SWAP1 POP SLOAD DUP2 JUMP JUMPDEST PUSH1 0x1 PUSH1 0x0 SWAP1 SLOAD SWAP1 PUSH2 0x100 EXP SWAP1 DIV PUSH1 0xFF AND DUP2 JUMP JUMPDEST PUSH1 0x0 DUP1 PUSH20 0x694AA1769357215DE4FAC081BF1F309ADC325306 SWAP1 POP PUSH1 0x0 DUP2 PUSH20 0xFFFFFFFFFFFFFFFFFFFFFFFFFFFFFFFFFFFFFFFF AND PUSH4 0xFEAF968C PUSH1 0x40 MLOAD DUP2 PUSH4 0xFFFFFFFF AND PUSH1 0xE0 SHL DUP2 MSTORE PUSH1 0x4 ADD PUSH1 0xA0 PUSH1 0x40 MLOAD DUP1 DUP4 SUB DUP2 DUP7 GAS STATICCALL ISZERO DUP1 ISZERO PUSH2 0xF11 JUMPI RETURNDATASIZE PUSH1 0x0 DUP1 RETURNDATACOPY RETURNDATASIZE PUSH1 0x0 REVERT JUMPDEST POP POP POP POP PUSH1 0x40 MLOAD RETURNDATASIZE PUSH1 0x1F NOT PUSH1 0x1F DUP3 ADD AND DUP3 ADD DUP1 PUSH1 0x40 MSTORE POP DUP2 ADD SWAP1 PUSH2 0xF35 SWAP2 SWAP1 PUSH2 0x14D6 JUMP JUMPDEST POP POP POP SWAP2 POP POP PUSH1 0x0 PUSH5 0x2540BE400 DUP3 PUSH2 0xF4E SWAP2 SWAP1 PUSH2 0x1551 JUMP JUMPDEST SWAP1 POP PUSH8 0xDE0B6B3A7640000 DUP6 DUP3 PUSH2 0xF65 SWAP2 SWAP1 PUSH2 0x1361 JUMP JUMPDEST PUSH2 0xF6F SWAP2 SWAP1 PUSH2 0x13D2 JUMP JUMPDEST SWAP4 POP POP POP POP SWAP2 SWAP1 POP JUMP JUMPDEST PUSH1 0x1 DUP1 PUSH1 0x0 PUSH2 0x100 EXP DUP2 SLOAD DUP2 PUSH1 0xFF MUL NOT AND SWAP1 DUP4 ISZERO ISZERO MUL OR SWAP1 SSTORE POP TIMESTAMP PUSH1 0x2 DUP2 SWAP1 SSTORE POP PUSH2 0xFA2 PUSH2 0xFA4 JUMP JUMPDEST JUMP JUMPDEST PUSH1 0x0 JUMPDEST PUSH1 0x5 DUP1 SLOAD SWAP1 POP DUP2 LT ISZERO PUSH2 0x1113 JUMPI PUSH1 0x0 PUSH1 0x5 DUP3 DUP2 SLOAD DUP2 LT PUSH2 0xFCA JUMPI PUSH2 0xFC9 PUSH2 0x15C9 JUMP JUMPDEST JUMPDEST SWAP1 PUSH1 0x0 MSTORE PUSH1 0x20 PUSH1 0x0 KECCAK256 ADD PUSH1 0x0 SWAP1 SLOAD SWAP1 PUSH2 0x100 EXP SWAP1 DIV PUSH20 0xFFFFFFFFFFFFFFFFFFFFFFFFFFFFFFFFFFFFFFFF AND SWAP1 POP PUSH1 0x0 PUSH8 0xDE0B6B3A7640000 PUSH1 0x3 PUSH1 0x0 DUP5 PUSH20 0xFFFFFFFFFFFFFFFFFFFFFFFFFFFFFFFFFFFFFFFF AND PUSH20 0xFFFFFFFFFFFFFFFFFFFFFFFFFFFFFFFFFFFFFFFF AND DUP2 MSTORE PUSH1 0x20 ADD SWAP1 DUP2 MSTORE PUSH1 0x20 ADD PUSH1 0x0 KECCAK256 SLOAD PUSH2 0x104C SWAP2 SWAP1 PUSH2 0x13D2 JUMP JUMPDEST SWAP1 POP PUSH1 0x0 DUP2 GT PUSH2 0x1091 JUMPI PUSH1 0x40 MLOAD PUSH32 0x8C379A000000000000000000000000000000000000000000000000000000000 DUP2 MSTORE PUSH1 0x4 ADD PUSH2 0x1088 SWAP1 PUSH2 0x1655 JUMP JUMPDEST PUSH1 0x40 MLOAD DUP1 SWAP2 SUB SWAP1 REVERT JUMPDEST PUSH32 0x0 DUP2 PUSH2 0x10BD SWAP2 SWAP1 PUSH2 0x1361 JUMP JUMPDEST PUSH1 0x7 PUSH1 0x0 DUP5 PUSH20 0xFFFFFFFFFFFFFFFFFFFFFFFFFFFFFFFFFFFFFFFF AND PUSH20 0xFFFFFFFFFFFFFFFFFFFFFFFFFFFFFFFFFFFFFFFF AND DUP2 MSTORE PUSH1 0x20 ADD SWAP1 DUP2 MSTORE PUSH1 0x20 ADD PUSH1 0x0 KECCAK256 DUP2 SWAP1 SSTORE POP POP POP DUP1 PUSH2 0x110C SWAP1 PUSH2 0x1675 JUMP JUMPDEST SWAP1 POP PUSH2 0xFA7 JUMP JUMPDEST POP JUMP JUMPDEST PUSH1 0x0 DUP2 SWAP1 POP SWAP2 SWAP1 POP JUMP JUMPDEST PUSH2 0x1129 DUP2 PUSH2 0x1116 JUMP JUMPDEST DUP3 MSTORE POP POP JUMP JUMPDEST PUSH1 0x0 PUSH1 0x20 DUP3 ADD SWAP1 POP PUSH2 0x1144 PUSH1 0x0 DUP4 ADD DUP5 PUSH2 0x1120 JUMP JUMPDEST SWAP3 SWAP2 POP POP JUMP JUMPDEST PUSH1 0x0 DUP1 REVERT JUMPDEST PUSH1 0x0 PUSH20 0xFFFFFFFFFFFFFFFFFFFFFFFFFFFFFFFFFFFFFFFF DUP3 AND SWAP1 POP SWAP2 SWAP1 POP JUMP JUMPDEST PUSH1 0x0 PUSH2 0x117A DUP3 PUSH2 0x114F JUMP JUMPDEST SWAP1 POP SWAP2 SWAP1 POP JUMP JUMPDEST PUSH2 0x118A DUP2 PUSH2 0x116F JUMP JUMPDEST DUP2 EQ PUSH2 0x1195 JUMPI PUSH1 0x0 DUP1 REVERT JUMPDEST POP JUMP JUMPDEST PUSH1 0x0 DUP2 CALLDATALOAD SWAP1 POP PUSH2 0x11A7 DUP2 PUSH2 0x1181 JUMP JUMPDEST SWAP3 SWAP2 POP POP JUMP JUMPDEST PUSH1 0x0 PUSH1 0x20 DUP3 DUP5 SUB SLT ISZERO PUSH2 0x11C3 JUMPI PUSH2 0x11C2 PUSH2 0x114A JUMP JUMPDEST JUMPDEST PUSH1 0x0 PUSH2 0x11D1 DUP5 DUP3 DUP6 ADD PUSH2 0x1198 JUMP JUMPDEST SWAP2 POP POP SWAP3 SWAP2 POP POP JUMP JUMPDEST PUSH1 0x0 DUP2 ISZERO ISZERO SWAP1 POP SWAP2 SWAP1 POP JUMP JUMPDEST PUSH2 0x11EF DUP2 PUSH2 0x11DA JUMP JUMPDEST DUP3 MSTORE POP POP JUMP JUMPDEST PUSH1 0x0 PUSH1 0x20 DUP3 ADD SWAP1 POP PUSH2 0x120A PUSH1 0x0 DUP4 ADD DUP5 PUSH2 0x11E6 JUMP JUMPDEST SWAP3 SWAP2 POP POP JUMP JUMPDEST PUSH2 0x1219 DUP2 PUSH2 0x1116 JUMP JUMPDEST DUP2 EQ PUSH2 0x1224 JUMPI PUSH1 0x0 DUP1 REVERT JUMPDEST POP JUMP JUMPDEST PUSH1 0x0 DUP2 CALLDATALOAD SWAP1 POP PUSH2 0x1236 DUP2 PUSH2 0x1210 JUMP JUMPDEST SWAP3 SWAP2 POP POP JUMP JUMPDEST PUSH1 0x0 PUSH1 0x20 DUP3 DUP5 SUB SLT ISZERO PUSH2 0x1252 JUMPI PUSH2 0x1251 PUSH2 0x114A JUMP JUMPDEST JUMPDEST PUSH1 0x0 PUSH2 0x1260 DUP5 DUP3 DUP6 ADD PUSH2 0x1227 JUMP JUMPDEST SWAP2 POP POP SWAP3 SWAP2 POP POP JUMP JUMPDEST PUSH2 0x1272 DUP2 PUSH2 0x116F JUMP JUMPDEST DUP3 MSTORE POP POP JUMP JUMPDEST PUSH1 0x0 PUSH1 0x20 DUP3 ADD SWAP1 POP PUSH2 0x128D PUSH1 0x0 DUP4 ADD DUP5 PUSH2 0x1269 JUMP JUMPDEST SWAP3 SWAP2 POP POP JUMP JUMPDEST PUSH1 0x0 PUSH1 0x60 DUP3 ADD SWAP1 POP PUSH2 0x12A8 PUSH1 0x0 DUP4 ADD DUP7 PUSH2 0x1120 JUMP JUMPDEST PUSH2 0x12B5 PUSH1 0x20 DUP4 ADD DUP6 PUSH2 0x1120 JUMP JUMPDEST PUSH2 0x12C2 PUSH1 0x40 DUP4 ADD DUP5 PUSH2 0x1120 JUMP JUMPDEST SWAP5 SWAP4 POP POP POP POP JUMP JUMPDEST PUSH32 0x4E487B7100000000000000000000000000000000000000000000000000000000 PUSH1 0x0 MSTORE PUSH1 0x11 PUSH1 0x4 MSTORE PUSH1 0x24 PUSH1 0x0 REVERT JUMPDEST PUSH1 0x0 PUSH2 0x1304 DUP3 PUSH2 0x1116 JUMP JUMPDEST SWAP2 POP PUSH2 0x130F DUP4 PUSH2 0x1116 JUMP JUMPDEST SWAP3 POP DUP3 DUP3 ADD SWAP1 POP DUP1 DUP3 GT ISZERO PUSH2 0x1327 JUMPI PUSH2 0x1326 PUSH2 0x12CA JUMP JUMPDEST JUMPDEST SWAP3 SWAP2 POP POP JUMP JUMPDEST PUSH1 0x0 PUSH2 0x1338 DUP3 PUSH2 0x1116 JUMP JUMPDEST SWAP2 POP PUSH2 0x1343 DUP4 PUSH2 0x1116 JUMP JUMPDEST SWAP3 POP DUP3 DUP3 SUB SWAP1 POP DUP2 DUP2 GT ISZERO PUSH2 0x135B JUMPI PUSH2 0x135A PUSH2 0x12CA JUMP JUMPDEST JUMPDEST SWAP3 SWAP2 POP POP JUMP JUMPDEST PUSH1 0x0 PUSH2 0x136C DUP3 PUSH2 0x1116 JUMP JUMPDEST SWAP2 POP PUSH2 0x1377 DUP4 PUSH2 0x1116 JUMP JUMPDEST SWAP3 POP DUP3 DUP3 MUL PUSH2 0x1385 DUP2 PUSH2 0x1116 JUMP JUMPDEST SWAP2 POP DUP3 DUP3 DIV DUP5 EQ DUP4 ISZERO OR PUSH2 0x139C JUMPI PUSH2 0x139B PUSH2 0x12CA JUMP JUMPDEST JUMPDEST POP SWAP3 SWAP2 POP POP JUMP JUMPDEST PUSH32 0x4E487B7100000000000000000000000000000000000000000000000000000000 PUSH1 0x0 MSTORE PUSH1 0x12 PUSH1 0x4 MSTORE PUSH1 0x24 PUSH1 0x0 REVERT JUMPDEST PUSH1 0x0 PUSH2 0x13DD DUP3 PUSH2 0x1116 JUMP JUMPDEST SWAP2 POP PUSH2 0x13E8 DUP4 PUSH2 0x1116 JUMP JUMPDEST SWAP3 POP DUP3 PUSH2 0x13F8 JUMPI PUSH2 0x13F7 PUSH2 0x13A3 JUMP JUMPDEST JUMPDEST DUP3 DUP3 DIV SWAP1 POP SWAP3 SWAP2 POP POP JUMP JUMPDEST PUSH1 0x0 DUP2 SWAP1 POP SWAP3 SWAP2 POP POP JUMP JUMPDEST POP JUMP JUMPDEST PUSH1 0x0 PUSH2 0x141E PUSH1 0x0 DUP4 PUSH2 0x1403 JUMP JUMPDEST SWAP2 POP PUSH2 0x1429 DUP3 PUSH2 0x140E JUMP JUMPDEST PUSH1 0x0 DUP3 ADD SWAP1 POP SWAP2 SWAP1 POP JUMP JUMPDEST PUSH1 0x0 PUSH2 0x143F DUP3 PUSH2 0x1411 JUMP JUMPDEST SWAP2 POP DUP2 SWAP1 POP SWAP2 SWAP1 POP JUMP JUMPDEST PUSH1 0x0 PUSH10 0xFFFFFFFFFFFFFFFFFFFF DUP3 AND SWAP1 POP SWAP2 SWAP1 POP JUMP JUMPDEST PUSH2 0x1468 DUP2 PUSH2 0x1449 JUMP JUMPDEST DUP2 EQ PUSH2 0x1473 JUMPI PUSH1 0x0 DUP1 REVERT JUMPDEST POP JUMP JUMPDEST PUSH1 0x0 DUP2 MLOAD SWAP1 POP PUSH2 0x1485 DUP2 PUSH2 0x145F JUMP JUMPDEST SWAP3 SWAP2 POP POP JUMP JUMPDEST PUSH1 0x0 DUP2 SWAP1 POP SWAP2 SWAP1 POP JUMP JUMPDEST PUSH2 0x149E DUP2 PUSH2 0x148B JUMP JUMPDEST DUP2 EQ PUSH2 0x14A9 JUMPI PUSH1 0x0 DUP1 REVERT JUMPDEST POP JUMP JUMPDEST PUSH1 0x0 DUP2 MLOAD SWAP1 POP PUSH2 0x14BB DUP2 PUSH2 0x1495 JUMP JUMPDEST SWAP3 SWAP2 POP POP JUMP JUMPDEST PUSH1 0x0 DUP2 MLOAD SWAP1 POP PUSH2 0x14D0 DUP2 PUSH2 0x1210 JUMP JUMPDEST SWAP3 SWAP2 POP POP JUMP JUMPDEST PUSH1 0x0 DUP1 PUSH1 0x0 DUP1 PUSH1 0x0 PUSH1 0xA0 DUP7 DUP9 SUB SLT ISZERO PUSH2 0x14F2 JUMPI PUSH2 0x14F1 PUSH2 0x114A JUMP JUMPDEST JUMPDEST PUSH1 0x0 PUSH2 0x1500 DUP9 DUP3 DUP10 ADD PUSH2 0x1476 JUMP JUMPDEST SWAP6 POP POP PUSH1 0x20 PUSH2 0x1511 DUP9 DUP3 DUP10 ADD PUSH2 0x14AC JUMP JUMPDEST SWAP5 POP POP PUSH1 0x40 PUSH2 0x1522 DUP9 DUP3 DUP10 ADD PUSH2 0x14C1 JUMP JUMPDEST SWAP4 POP POP PUSH1 0x60 PUSH2 0x1533 DUP9 DUP3 DUP10 ADD PUSH2 0x14C1 JUMP JUMPDEST SWAP3 POP POP PUSH1 0x80 PUSH2 0x1544 DUP9 DUP3 DUP10 ADD PUSH2 0x1476 JUMP JUMPDEST SWAP2 POP POP SWAP3 SWAP6 POP SWAP3 SWAP6 SWAP1 SWAP4 POP JUMP JUMPDEST PUSH1 0x0 PUSH2 0x155C DUP3 PUSH2 0x148B JUMP JUMPDEST SWAP2 POP PUSH2 0x1567 DUP4 PUSH2 0x148B JUMP JUMPDEST SWAP3 POP DUP3 DUP3 MUL PUSH2 0x1575 DUP2 PUSH2 0x148B JUMP JUMPDEST SWAP2 POP PUSH32 0x8000000000000000000000000000000000000000000000000000000000000000 DUP5 EQ PUSH1 0x0 DUP5 SLT AND ISZERO PUSH2 0x15AD JUMPI PUSH2 0x15AC PUSH2 0x12CA JUMP JUMPDEST JUMPDEST DUP3 DUP3 SDIV DUP5 EQ DUP4 ISZERO OR PUSH2 0x15C2 JUMPI PUSH2 0x15C1 PUSH2 0x12CA JUMP JUMPDEST JUMPDEST POP SWAP3 SWAP2 POP POP JUMP JUMPDEST PUSH32 0x4E487B7100000000000000000000000000000000000000000000000000000000 PUSH1 0x0 MSTORE PUSH1 0x32 PUSH1 0x4 MSTORE PUSH1 0x24 PUSH1 0x0 REVERT JUMPDEST PUSH1 0x0 DUP3 DUP3 MSTORE PUSH1 0x20 DUP3 ADD SWAP1 POP SWAP3 SWAP2 POP POP JUMP JUMPDEST PUSH32 0x4E6F7420436F6E74726962757465640000000000000000000000000000000000 PUSH1 0x0 DUP3 ADD MSTORE POP JUMP JUMPDEST PUSH1 0x0 PUSH2 0x163F PUSH1 0xF DUP4 PUSH2 0x15F8 JUMP JUMPDEST SWAP2 POP PUSH2 0x164A DUP3 PUSH2 0x1609 JUMP JUMPDEST PUSH1 0x20 DUP3 ADD SWAP1 POP SWAP2 SWAP1 POP JUMP JUMPDEST PUSH1 0x0 PUSH1 0x20 DUP3 ADD SWAP1 POP DUP2 DUP2 SUB PUSH1 0x0 DUP4 ADD MSTORE PUSH2 0x166E DUP2 PUSH2 0x1632 JUMP JUMPDEST SWAP1 POP SWAP2 SWAP1 POP JUMP JUMPDEST PUSH1 0x0 PUSH2 0x1680 DUP3 PUSH2 0x1116 JUMP JUMPDEST SWAP2 POP PUSH32 0xFFFFFFFFFFFFFFFFFFFFFFFFFFFFFFFFFFFFFFFFFFFFFFFFFFFFFFFFFFFFFFFF DUP3 SUB PUSH2 0x16B2 JUMPI PUSH2 0x16B1 PUSH2 0x12CA JUMP JUMPDEST JUMPDEST PUSH1 0x1 DUP3 ADD SWAP1 POP SWAP2 SWAP1 POP JUMP INVALID LOG2 PUSH5 0x6970667358 0x22 SLT KECCAK256 0xB0 GASLIMIT DUP6 0xAC PUSH15 0x35C1AA24F6520EC9B9F9D560852931 PUSH4 0x3485EACE 0xB4 0xEF 0xC6 PUSH12 0x5F668964736F6C6343000812 STOP CALLER "
				},
				"gasEstimates": {
					"creation": {
						"codeDepositCost": "1175000",
						"executionCost": "infinite",
						"totalCost": "infinite"
					},
					"external": {
						"": "infinite",
						"claimTokens()": "infinite",
						"contributors(uint256)": "5001",
						"fund()": "infinite",
						"getTokenClaimable(address)": "infinite",
						"getUserInfo(address)": "infinite",
						"goalInUsd()": "infinite",
						"hasContributed(address)": "2891",
						"isClaimEnabled()": "2603",
						"owner()": "infinite",
						"pause()": "infinite",
						"paused()": "2494",
						"presaleEndTime()": "infinite",
						"tokenPerUsdRate()": "infinite",
						"totalUsdRaised()": "2519",
						"unlockDuration()": "418",
						"unlockStartTime()": "2473",
						"unpause()": "infinite",
						"userClaimedTokens(address)": "2925",
						"userTotalToken(address)": "2880",
						"userUsdContributed(address)": "2924",
						"withdrawETH()": "infinite"
					},
					"internal": {
						"calculateTokens()": "infinite",
						"enableClaim()": "infinite"
					}
				},
				"methodIdentifiers": {
					"claimTokens()": "48c54b9d",
					"contributors(uint256)": "3cb5d100",
					"fund()": "b60d4288",
					"getTokenClaimable(address)": "304cfa99",
					"getUserInfo(address)": "6386c1c7",
					"goalInUsd()": "0013c58a",
					"hasContributed(address)": "205b1946",
					"isClaimEnabled()": "f30e5b26",
					"owner()": "8da5cb5b",
					"pause()": "8456cb59",
					"paused()": "5c975abb",
					"presaleEndTime()": "249b7c19",
					"tokenPerUsdRate()": "2e0d45aa",
					"totalUsdRaised()": "2cea9442",
					"unlockDuration()": "8a1fcd60",
					"unlockStartTime()": "c9aa4768",
					"unpause()": "3f4ba83a",
					"userClaimedTokens(address)": "4ad82cf3",
					"userTotalToken(address)": "da440b61",
					"userUsdContributed(address)": "e48d3c24",
					"withdrawETH()": "e086e5ec"
				}
			},
			"storageLayout": {
				"storage": [
					{
						"astId": 113,
						"contract": "DeFi 预售合约（Token Presale with Linear Vesting）/TokenPresale.sol:TokenPresale",
						"label": "totalUsdRaised",
						"offset": 0,
						"slot": "0",
						"type": "t_uint256"
					},
					{
						"astId": 115,
						"contract": "DeFi 预售合约（Token Presale with Linear Vesting）/TokenPresale.sol:TokenPresale",
						"label": "isClaimEnabled",
						"offset": 0,
						"slot": "1",
						"type": "t_bool"
					},
					{
						"astId": 119,
						"contract": "DeFi 预售合约（Token Presale with Linear Vesting）/TokenPresale.sol:TokenPresale",
						"label": "unlockStartTime",
						"offset": 0,
						"slot": "2",
						"type": "t_uint256"
					},
					{
						"astId": 126,
						"contract": "DeFi 预售合约（Token Presale with Linear Vesting）/TokenPresale.sol:TokenPresale",
						"label": "userUsdContributed",
						"offset": 0,
						"slot": "3",
						"type": "t_mapping(t_address,t_uint256)"
					},
					{
						"astId": 130,
						"contract": "DeFi 预售合约（Token Presale with Linear Vesting）/TokenPresale.sol:TokenPresale",
						"label": "userClaimedTokens",
						"offset": 0,
						"slot": "4",
						"type": "t_mapping(t_address,t_uint256)"
					},
					{
						"astId": 133,
						"contract": "DeFi 预售合约（Token Presale with Linear Vesting）/TokenPresale.sol:TokenPresale",
						"label": "contributors",
						"offset": 0,
						"slot": "5",
						"type": "t_array(t_address)dyn_storage"
					},
					{
						"astId": 137,
						"contract": "DeFi 预售合约（Token Presale with Linear Vesting）/TokenPresale.sol:TokenPresale",
						"label": "hasContributed",
						"offset": 0,
						"slot": "6",
						"type": "t_mapping(t_address,t_bool)"
					},
					{
						"astId": 141,
						"contract": "DeFi 预售合约（Token Presale with Linear Vesting）/TokenPresale.sol:TokenPresale",
						"label": "userTotalToken",
						"offset": 0,
						"slot": "7",
						"type": "t_mapping(t_address,t_uint256)"
					},
					{
						"astId": 143,
						"contract": "DeFi 预售合约（Token Presale with Linear Vesting）/TokenPresale.sol:TokenPresale",
						"label": "paused",
						"offset": 0,
						"slot": "8",
						"type": "t_bool"
					}
				],
				"types": {
					"t_address": {
						"encoding": "inplace",
						"label": "address",
						"numberOfBytes": "20"
					},
					"t_array(t_address)dyn_storage": {
						"base": "t_address",
						"encoding": "dynamic_array",
						"label": "address[]",
						"numberOfBytes": "32"
					},
					"t_bool": {
						"encoding": "inplace",
						"label": "bool",
						"numberOfBytes": "1"
					},
					"t_mapping(t_address,t_bool)": {
						"encoding": "mapping",
						"key": "t_address",
						"label": "mapping(address => bool)",
						"numberOfBytes": "32",
						"value": "t_bool"
					},
					"t_mapping(t_address,t_uint256)": {
						"encoding": "mapping",
						"key": "t_address",
						"label": "mapping(address => uint256)",
						"numberOfBytes": "32",
						"value": "t_uint256"
					},
					"t_uint256": {
						"encoding": "inplace",
						"label": "uint256",
						"numberOfBytes": "32"
					}
				}
			},
			"userdoc": {
				"kind": "user",
				"methods": {},
				"version": 1
			}
		}
	}
}